{
	"data": {
		"bytecode": {
			"linkReferences": {},
			"object": "608060405234801561001057600080fd5b50610b4f806100206000396000f3fe608060405234801561001057600080fd5b50600436106100575760003560e01c80636e3c67381461005c578063d534ee8814610078578063dc00282c14610094578063dd68afb6146100b0578063e34f1221146100e0575b600080fd5b6100766004803603810190610071919061077e565b6100fc565b005b610092600480360381019061008d91906107ab565b610232565b005b6100ae60048036038101906100a9919061077e565b61027d565b005b6100ca60048036038101906100c5919061077e565b610301565b6040516100d79190610890565b60405180910390f35b6100fa60048036038101906100f59190610731565b6103ea565b005b600080549050811061010d57600080fd5b60008190505b60016000805490506101259190610924565b8110156101df57600060018261013b91906108ce565b8154811061014c5761014b610aa9565b5b90600052602060002090600202016000828154811061016e5761016d610aa9565b5b90600052602060002090600202016000820181600001908054610190906109a1565b61019b9291906104b4565b506001820160009054906101000a900460ff168160010160006101000a81548160ff02191690831515021790555090505080806101d7906109d3565b915050610113565b5060008054806101f2576101f1610a7a565b5b6001900381819060005260206000209060020201600080820160006102179190610541565b6001820160006101000a81549060ff02191690555050905550565b600080549050831061024357600080fd5b81816000858154811061025957610258610aa9565b5b90600052602060002090600202016000019190610277929190610581565b50505050565b600080549050811061028e57600080fd5b600081815481106102a2576102a1610aa9565b5b906000526020600020906002020160010160009054906101000a900460ff1615600082815481106102d6576102d5610aa9565b5b906000526020600020906002020160010160006101000a81548160ff02191690831515021790555050565b610309610607565b6000828154811061031d5761031c610aa9565b5b9060005260206000209060020201604051806040016040529081600082018054610346906109a1565b80601f0160208091040260200160405190810160405280929190818152602001828054610372906109a1565b80156103bf5780601f10610394576101008083540402835291602001916103bf565b820191906000526020600020905b8154815290600101906020018083116103a257829003601f168201915b505050505081526020016001820160009054906101000a900460ff1615151515815250509050919050565b6000604051806040016040528084848080601f016020809104026020016040519081016040528093929190818152602001838380828437600081840152601f19601f820116905080830192505050505050508152602001600015158152509080600181540180825580915050600190039060005260206000209060020201600090919091909150600082015181600001908051906020019061048d929190610623565b5060208201518160010160006101000a81548160ff02191690831515021790555050505050565b8280546104c0906109a1565b90600052602060002090601f0160209004810192826104e25760008555610530565b82601f106104f35780548555610530565b8280016001018555821561053057600052602060002091601f016020900482015b8281111561052f578254825591600101919060010190610514565b5b50905061053d91906106a9565b5090565b50805461054d906109a1565b6000825580601f1061055f575061057e565b601f01602090049060005260206000209081019061057d91906106a9565b5b50565b82805461058d906109a1565b90600052602060002090601f0160209004810192826105af57600085556105f6565b82601f106105c857803560ff19168380011785556105f6565b828001600101855582156105f6579182015b828111156105f55782358255916020019190600101906105da565b5b50905061060391906106a9565b5090565b6040518060400160405280606081526020016000151581525090565b82805461062f906109a1565b90600052602060002090601f0160209004810192826106515760008555610698565b82601f1061066a57805160ff1916838001178555610698565b82800160010185558215610698579182015b8281111561069757825182559160200191906001019061067c565b5b5090506106a591906106a9565b5090565b5b808211156106c25760008160009055506001016106aa565b5090565b60008083601f8401126106dc576106db610add565b5b8235905067ffffffffffffffff8111156106f9576106f8610ad8565b5b60208301915083600182028301111561071557610714610ae2565b5b9250929050565b60008135905061072b81610b02565b92915050565b6000806020838503121561074857610747610aec565b5b600083013567ffffffffffffffff81111561076657610765610ae7565b5b610772858286016106c6565b92509250509250929050565b60006020828403121561079457610793610aec565b5b60006107a28482850161071c565b91505092915050565b6000806000604084860312156107c4576107c3610aec565b5b60006107d28682870161071c565b935050602084013567ffffffffffffffff8111156107f3576107f2610ae7565b5b6107ff868287016106c6565b92509250509250925092565b61081481610958565b82525050565b6000610825826108b2565b61082f81856108bd565b935061083f81856020860161096e565b61084881610af1565b840191505092915050565b60006040830160008301518482036000860152610870828261081a565b9150506020830151610885602086018261080b565b508091505092915050565b600060208201905081810360008301526108aa8184610853565b905092915050565b600081519050919050565b600082825260208201905092915050565b60006108d982610964565b91506108e483610964565b9250827fffffffffffffffffffffffffffffffffffffffffffffffffffffffffffffffff0382111561091957610918610a1c565b5b828201905092915050565b600061092f82610964565b915061093a83610964565b92508282101561094d5761094c610a1c565b5b828203905092915050565b60008115159050919050565b6000819050919050565b60005b8381101561098c578082015181840152602081019050610971565b8381111561099b576000848401525b50505050565b600060028204905060018216806109b957607f821691505b602082108114156109cd576109cc610a4b565b5b50919050565b60006109de82610964565b91507fffffffffffffffffffffffffffffffffffffffffffffffffffffffffffffffff821415610a1157610a10610a1c565b5b600182019050919050565b7f4e487b7100000000000000000000000000000000000000000000000000000000600052601160045260246000fd5b7f4e487b7100000000000000000000000000000000000000000000000000000000600052602260045260246000fd5b7f4e487b7100000000000000000000000000000000000000000000000000000000600052603160045260246000fd5b7f4e487b7100000000000000000000000000000000000000000000000000000000600052603260045260246000fd5b600080fd5b600080fd5b600080fd5b600080fd5b600080fd5b6000601f19601f8301169050919050565b610b0b81610964565b8114610b1657600080fd5b5056fea2646970667358221220f2e2d186f72945aa8ad8411424752ae483e1ea6e34f5740b5a180a66eb1bdfee64736f6c63430008070033",
			"opcodes": "PUSH1 0x80 PUSH1 0x40 MSTORE CALLVALUE DUP1 ISZERO PUSH2 0x10 JUMPI PUSH1 0x0 DUP1 REVERT JUMPDEST POP PUSH2 0xB4F DUP1 PUSH2 0x20 PUSH1 0x0 CODECOPY PUSH1 0x0 RETURN INVALID PUSH1 0x80 PUSH1 0x40 MSTORE CALLVALUE DUP1 ISZERO PUSH2 0x10 JUMPI PUSH1 0x0 DUP1 REVERT JUMPDEST POP PUSH1 0x4 CALLDATASIZE LT PUSH2 0x57 JUMPI PUSH1 0x0 CALLDATALOAD PUSH1 0xE0 SHR DUP1 PUSH4 0x6E3C6738 EQ PUSH2 0x5C JUMPI DUP1 PUSH4 0xD534EE88 EQ PUSH2 0x78 JUMPI DUP1 PUSH4 0xDC00282C EQ PUSH2 0x94 JUMPI DUP1 PUSH4 0xDD68AFB6 EQ PUSH2 0xB0 JUMPI DUP1 PUSH4 0xE34F1221 EQ PUSH2 0xE0 JUMPI JUMPDEST PUSH1 0x0 DUP1 REVERT JUMPDEST PUSH2 0x76 PUSH1 0x4 DUP1 CALLDATASIZE SUB DUP2 ADD SWAP1 PUSH2 0x71 SWAP2 SWAP1 PUSH2 0x77E JUMP JUMPDEST PUSH2 0xFC JUMP JUMPDEST STOP JUMPDEST PUSH2 0x92 PUSH1 0x4 DUP1 CALLDATASIZE SUB DUP2 ADD SWAP1 PUSH2 0x8D SWAP2 SWAP1 PUSH2 0x7AB JUMP JUMPDEST PUSH2 0x232 JUMP JUMPDEST STOP JUMPDEST PUSH2 0xAE PUSH1 0x4 DUP1 CALLDATASIZE SUB DUP2 ADD SWAP1 PUSH2 0xA9 SWAP2 SWAP1 PUSH2 0x77E JUMP JUMPDEST PUSH2 0x27D JUMP JUMPDEST STOP JUMPDEST PUSH2 0xCA PUSH1 0x4 DUP1 CALLDATASIZE SUB DUP2 ADD SWAP1 PUSH2 0xC5 SWAP2 SWAP1 PUSH2 0x77E JUMP JUMPDEST PUSH2 0x301 JUMP JUMPDEST PUSH1 0x40 MLOAD PUSH2 0xD7 SWAP2 SWAP1 PUSH2 0x890 JUMP JUMPDEST PUSH1 0x40 MLOAD DUP1 SWAP2 SUB SWAP1 RETURN JUMPDEST PUSH2 0xFA PUSH1 0x4 DUP1 CALLDATASIZE SUB DUP2 ADD SWAP1 PUSH2 0xF5 SWAP2 SWAP1 PUSH2 0x731 JUMP JUMPDEST PUSH2 0x3EA JUMP JUMPDEST STOP JUMPDEST PUSH1 0x0 DUP1 SLOAD SWAP1 POP DUP2 LT PUSH2 0x10D JUMPI PUSH1 0x0 DUP1 REVERT JUMPDEST PUSH1 0x0 DUP2 SWAP1 POP JUMPDEST PUSH1 0x1 PUSH1 0x0 DUP1 SLOAD SWAP1 POP PUSH2 0x125 SWAP2 SWAP1 PUSH2 0x924 JUMP JUMPDEST DUP2 LT ISZERO PUSH2 0x1DF JUMPI PUSH1 0x0 PUSH1 0x1 DUP3 PUSH2 0x13B SWAP2 SWAP1 PUSH2 0x8CE JUMP JUMPDEST DUP2 SLOAD DUP2 LT PUSH2 0x14C JUMPI PUSH2 0x14B PUSH2 0xAA9 JUMP JUMPDEST JUMPDEST SWAP1 PUSH1 0x0 MSTORE PUSH1 0x20 PUSH1 0x0 KECCAK256 SWAP1 PUSH1 0x2 MUL ADD PUSH1 0x0 DUP3 DUP2 SLOAD DUP2 LT PUSH2 0x16E JUMPI PUSH2 0x16D PUSH2 0xAA9 JUMP JUMPDEST JUMPDEST SWAP1 PUSH1 0x0 MSTORE PUSH1 0x20 PUSH1 0x0 KECCAK256 SWAP1 PUSH1 0x2 MUL ADD PUSH1 0x0 DUP3 ADD DUP2 PUSH1 0x0 ADD SWAP1 DUP1 SLOAD PUSH2 0x190 SWAP1 PUSH2 0x9A1 JUMP JUMPDEST PUSH2 0x19B SWAP3 SWAP2 SWAP1 PUSH2 0x4B4 JUMP JUMPDEST POP PUSH1 0x1 DUP3 ADD PUSH1 0x0 SWAP1 SLOAD SWAP1 PUSH2 0x100 EXP SWAP1 DIV PUSH1 0xFF AND DUP2 PUSH1 0x1 ADD PUSH1 0x0 PUSH2 0x100 EXP DUP2 SLOAD DUP2 PUSH1 0xFF MUL NOT AND SWAP1 DUP4 ISZERO ISZERO MUL OR SWAP1 SSTORE POP SWAP1 POP POP DUP1 DUP1 PUSH2 0x1D7 SWAP1 PUSH2 0x9D3 JUMP JUMPDEST SWAP2 POP POP PUSH2 0x113 JUMP JUMPDEST POP PUSH1 0x0 DUP1 SLOAD DUP1 PUSH2 0x1F2 JUMPI PUSH2 0x1F1 PUSH2 0xA7A JUMP JUMPDEST JUMPDEST PUSH1 0x1 SWAP1 SUB DUP2 DUP2 SWAP1 PUSH1 0x0 MSTORE PUSH1 0x20 PUSH1 0x0 KECCAK256 SWAP1 PUSH1 0x2 MUL ADD PUSH1 0x0 DUP1 DUP3 ADD PUSH1 0x0 PUSH2 0x217 SWAP2 SWAP1 PUSH2 0x541 JUMP JUMPDEST PUSH1 0x1 DUP3 ADD PUSH1 0x0 PUSH2 0x100 EXP DUP2 SLOAD SWAP1 PUSH1 0xFF MUL NOT AND SWAP1 SSTORE POP POP SWAP1 SSTORE POP JUMP JUMPDEST PUSH1 0x0 DUP1 SLOAD SWAP1 POP DUP4 LT PUSH2 0x243 JUMPI PUSH1 0x0 DUP1 REVERT JUMPDEST DUP2 DUP2 PUSH1 0x0 DUP6 DUP2 SLOAD DUP2 LT PUSH2 0x259 JUMPI PUSH2 0x258 PUSH2 0xAA9 JUMP JUMPDEST JUMPDEST SWAP1 PUSH1 0x0 MSTORE PUSH1 0x20 PUSH1 0x0 KECCAK256 SWAP1 PUSH1 0x2 MUL ADD PUSH1 0x0 ADD SWAP2 SWAP1 PUSH2 0x277 SWAP3 SWAP2 SWAP1 PUSH2 0x581 JUMP JUMPDEST POP POP POP POP JUMP JUMPDEST PUSH1 0x0 DUP1 SLOAD SWAP1 POP DUP2 LT PUSH2 0x28E JUMPI PUSH1 0x0 DUP1 REVERT JUMPDEST PUSH1 0x0 DUP2 DUP2 SLOAD DUP2 LT PUSH2 0x2A2 JUMPI PUSH2 0x2A1 PUSH2 0xAA9 JUMP JUMPDEST JUMPDEST SWAP1 PUSH1 0x0 MSTORE PUSH1 0x20 PUSH1 0x0 KECCAK256 SWAP1 PUSH1 0x2 MUL ADD PUSH1 0x1 ADD PUSH1 0x0 SWAP1 SLOAD SWAP1 PUSH2 0x100 EXP SWAP1 DIV PUSH1 0xFF AND ISZERO PUSH1 0x0 DUP3 DUP2 SLOAD DUP2 LT PUSH2 0x2D6 JUMPI PUSH2 0x2D5 PUSH2 0xAA9 JUMP JUMPDEST JUMPDEST SWAP1 PUSH1 0x0 MSTORE PUSH1 0x20 PUSH1 0x0 KECCAK256 SWAP1 PUSH1 0x2 MUL ADD PUSH1 0x1 ADD PUSH1 0x0 PUSH2 0x100 EXP DUP2 SLOAD DUP2 PUSH1 0xFF MUL NOT AND SWAP1 DUP4 ISZERO ISZERO MUL OR SWAP1 SSTORE POP POP JUMP JUMPDEST PUSH2 0x309 PUSH2 0x607 JUMP JUMPDEST PUSH1 0x0 DUP3 DUP2 SLOAD DUP2 LT PUSH2 0x31D JUMPI PUSH2 0x31C PUSH2 0xAA9 JUMP JUMPDEST JUMPDEST SWAP1 PUSH1 0x0 MSTORE PUSH1 0x20 PUSH1 0x0 KECCAK256 SWAP1 PUSH1 0x2 MUL ADD PUSH1 0x40 MLOAD DUP1 PUSH1 0x40 ADD PUSH1 0x40 MSTORE SWAP1 DUP2 PUSH1 0x0 DUP3 ADD DUP1 SLOAD PUSH2 0x346 SWAP1 PUSH2 0x9A1 JUMP JUMPDEST DUP1 PUSH1 0x1F ADD PUSH1 0x20 DUP1 SWAP2 DIV MUL PUSH1 0x20 ADD PUSH1 0x40 MLOAD SWAP1 DUP2 ADD PUSH1 0x40 MSTORE DUP1 SWAP3 SWAP2 SWAP1 DUP2 DUP2 MSTORE PUSH1 0x20 ADD DUP3 DUP1 SLOAD PUSH2 0x372 SWAP1 PUSH2 0x9A1 JUMP JUMPDEST DUP1 ISZERO PUSH2 0x3BF JUMPI DUP1 PUSH1 0x1F LT PUSH2 0x394 JUMPI PUSH2 0x100 DUP1 DUP4 SLOAD DIV MUL DUP4 MSTORE SWAP2 PUSH1 0x20 ADD SWAP2 PUSH2 0x3BF JUMP JUMPDEST DUP3 ADD SWAP2 SWAP1 PUSH1 0x0 MSTORE PUSH1 0x20 PUSH1 0x0 KECCAK256 SWAP1 JUMPDEST DUP2 SLOAD DUP2 MSTORE SWAP1 PUSH1 0x1 ADD SWAP1 PUSH1 0x20 ADD DUP1 DUP4 GT PUSH2 0x3A2 JUMPI DUP3 SWAP1 SUB PUSH1 0x1F AND DUP3 ADD SWAP2 JUMPDEST POP POP POP POP POP DUP2 MSTORE PUSH1 0x20 ADD PUSH1 0x1 DUP3 ADD PUSH1 0x0 SWAP1 SLOAD SWAP1 PUSH2 0x100 EXP SWAP1 DIV PUSH1 0xFF AND ISZERO ISZERO ISZERO ISZERO DUP2 MSTORE POP POP SWAP1 POP SWAP2 SWAP1 POP JUMP JUMPDEST PUSH1 0x0 PUSH1 0x40 MLOAD DUP1 PUSH1 0x40 ADD PUSH1 0x40 MSTORE DUP1 DUP5 DUP5 DUP1 DUP1 PUSH1 0x1F ADD PUSH1 0x20 DUP1 SWAP2 DIV MUL PUSH1 0x20 ADD PUSH1 0x40 MLOAD SWAP1 DUP2 ADD PUSH1 0x40 MSTORE DUP1 SWAP4 SWAP3 SWAP2 SWAP1 DUP2 DUP2 MSTORE PUSH1 0x20 ADD DUP4 DUP4 DUP1 DUP3 DUP5 CALLDATACOPY PUSH1 0x0 DUP2 DUP5 ADD MSTORE PUSH1 0x1F NOT PUSH1 0x1F DUP3 ADD AND SWAP1 POP DUP1 DUP4 ADD SWAP3 POP POP POP POP POP POP POP DUP2 MSTORE PUSH1 0x20 ADD PUSH1 0x0 ISZERO ISZERO DUP2 MSTORE POP SWAP1 DUP1 PUSH1 0x1 DUP2 SLOAD ADD DUP1 DUP3 SSTORE DUP1 SWAP2 POP POP PUSH1 0x1 SWAP1 SUB SWAP1 PUSH1 0x0 MSTORE PUSH1 0x20 PUSH1 0x0 KECCAK256 SWAP1 PUSH1 0x2 MUL ADD PUSH1 0x0 SWAP1 SWAP2 SWAP1 SWAP2 SWAP1 SWAP2 POP PUSH1 0x0 DUP3 ADD MLOAD DUP2 PUSH1 0x0 ADD SWAP1 DUP1 MLOAD SWAP1 PUSH1 0x20 ADD SWAP1 PUSH2 0x48D SWAP3 SWAP2 SWAP1 PUSH2 0x623 JUMP JUMPDEST POP PUSH1 0x20 DUP3 ADD MLOAD DUP2 PUSH1 0x1 ADD PUSH1 0x0 PUSH2 0x100 EXP DUP2 SLOAD DUP2 PUSH1 0xFF MUL NOT AND SWAP1 DUP4 ISZERO ISZERO MUL OR SWAP1 SSTORE POP POP POP POP POP JUMP JUMPDEST DUP3 DUP1 SLOAD PUSH2 0x4C0 SWAP1 PUSH2 0x9A1 JUMP JUMPDEST SWAP1 PUSH1 0x0 MSTORE PUSH1 0x20 PUSH1 0x0 KECCAK256 SWAP1 PUSH1 0x1F ADD PUSH1 0x20 SWAP1 DIV DUP2 ADD SWAP3 DUP3 PUSH2 0x4E2 JUMPI PUSH1 0x0 DUP6 SSTORE PUSH2 0x530 JUMP JUMPDEST DUP3 PUSH1 0x1F LT PUSH2 0x4F3 JUMPI DUP1 SLOAD DUP6 SSTORE PUSH2 0x530 JUMP JUMPDEST DUP3 DUP1 ADD PUSH1 0x1 ADD DUP6 SSTORE DUP3 ISZERO PUSH2 0x530 JUMPI PUSH1 0x0 MSTORE PUSH1 0x20 PUSH1 0x0 KECCAK256 SWAP2 PUSH1 0x1F ADD PUSH1 0x20 SWAP1 DIV DUP3 ADD JUMPDEST DUP3 DUP2 GT ISZERO PUSH2 0x52F JUMPI DUP3 SLOAD DUP3 SSTORE SWAP2 PUSH1 0x1 ADD SWAP2 SWAP1 PUSH1 0x1 ADD SWAP1 PUSH2 0x514 JUMP JUMPDEST JUMPDEST POP SWAP1 POP PUSH2 0x53D SWAP2 SWAP1 PUSH2 0x6A9 JUMP JUMPDEST POP SWAP1 JUMP JUMPDEST POP DUP1 SLOAD PUSH2 0x54D SWAP1 PUSH2 0x9A1 JUMP JUMPDEST PUSH1 0x0 DUP3 SSTORE DUP1 PUSH1 0x1F LT PUSH2 0x55F JUMPI POP PUSH2 0x57E JUMP JUMPDEST PUSH1 0x1F ADD PUSH1 0x20 SWAP1 DIV SWAP1 PUSH1 0x0 MSTORE PUSH1 0x20 PUSH1 0x0 KECCAK256 SWAP1 DUP2 ADD SWAP1 PUSH2 0x57D SWAP2 SWAP1 PUSH2 0x6A9 JUMP JUMPDEST JUMPDEST POP JUMP JUMPDEST DUP3 DUP1 SLOAD PUSH2 0x58D SWAP1 PUSH2 0x9A1 JUMP JUMPDEST SWAP1 PUSH1 0x0 MSTORE PUSH1 0x20 PUSH1 0x0 KECCAK256 SWAP1 PUSH1 0x1F ADD PUSH1 0x20 SWAP1 DIV DUP2 ADD SWAP3 DUP3 PUSH2 0x5AF JUMPI PUSH1 0x0 DUP6 SSTORE PUSH2 0x5F6 JUMP JUMPDEST DUP3 PUSH1 0x1F LT PUSH2 0x5C8 JUMPI DUP1 CALLDATALOAD PUSH1 0xFF NOT AND DUP4 DUP1 ADD OR DUP6 SSTORE PUSH2 0x5F6 JUMP JUMPDEST DUP3 DUP1 ADD PUSH1 0x1 ADD DUP6 SSTORE DUP3 ISZERO PUSH2 0x5F6 JUMPI SWAP2 DUP3 ADD JUMPDEST DUP3 DUP2 GT ISZERO PUSH2 0x5F5 JUMPI DUP3 CALLDATALOAD DUP3 SSTORE SWAP2 PUSH1 0x20 ADD SWAP2 SWAP1 PUSH1 0x1 ADD SWAP1 PUSH2 0x5DA JUMP JUMPDEST JUMPDEST POP SWAP1 POP PUSH2 0x603 SWAP2 SWAP1 PUSH2 0x6A9 JUMP JUMPDEST POP SWAP1 JUMP JUMPDEST PUSH1 0x40 MLOAD DUP1 PUSH1 0x40 ADD PUSH1 0x40 MSTORE DUP1 PUSH1 0x60 DUP2 MSTORE PUSH1 0x20 ADD PUSH1 0x0 ISZERO ISZERO DUP2 MSTORE POP SWAP1 JUMP JUMPDEST DUP3 DUP1 SLOAD PUSH2 0x62F SWAP1 PUSH2 0x9A1 JUMP JUMPDEST SWAP1 PUSH1 0x0 MSTORE PUSH1 0x20 PUSH1 0x0 KECCAK256 SWAP1 PUSH1 0x1F ADD PUSH1 0x20 SWAP1 DIV DUP2 ADD SWAP3 DUP3 PUSH2 0x651 JUMPI PUSH1 0x0 DUP6 SSTORE PUSH2 0x698 JUMP JUMPDEST DUP3 PUSH1 0x1F LT PUSH2 0x66A JUMPI DUP1 MLOAD PUSH1 0xFF NOT AND DUP4 DUP1 ADD OR DUP6 SSTORE PUSH2 0x698 JUMP JUMPDEST DUP3 DUP1 ADD PUSH1 0x1 ADD DUP6 SSTORE DUP3 ISZERO PUSH2 0x698 JUMPI SWAP2 DUP3 ADD JUMPDEST DUP3 DUP2 GT ISZERO PUSH2 0x697 JUMPI DUP3 MLOAD DUP3 SSTORE SWAP2 PUSH1 0x20 ADD SWAP2 SWAP1 PUSH1 0x1 ADD SWAP1 PUSH2 0x67C JUMP JUMPDEST JUMPDEST POP SWAP1 POP PUSH2 0x6A5 SWAP2 SWAP1 PUSH2 0x6A9 JUMP JUMPDEST POP SWAP1 JUMP JUMPDEST JUMPDEST DUP1 DUP3 GT ISZERO PUSH2 0x6C2 JUMPI PUSH1 0x0 DUP2 PUSH1 0x0 SWAP1 SSTORE POP PUSH1 0x1 ADD PUSH2 0x6AA JUMP JUMPDEST POP SWAP1 JUMP JUMPDEST PUSH1 0x0 DUP1 DUP4 PUSH1 0x1F DUP5 ADD SLT PUSH2 0x6DC JUMPI PUSH2 0x6DB PUSH2 0xADD JUMP JUMPDEST JUMPDEST DUP3 CALLDATALOAD SWAP1 POP PUSH8 0xFFFFFFFFFFFFFFFF DUP2 GT ISZERO PUSH2 0x6F9 JUMPI PUSH2 0x6F8 PUSH2 0xAD8 JUMP JUMPDEST JUMPDEST PUSH1 0x20 DUP4 ADD SWAP2 POP DUP4 PUSH1 0x1 DUP3 MUL DUP4 ADD GT ISZERO PUSH2 0x715 JUMPI PUSH2 0x714 PUSH2 0xAE2 JUMP JUMPDEST JUMPDEST SWAP3 POP SWAP3 SWAP1 POP JUMP JUMPDEST PUSH1 0x0 DUP2 CALLDATALOAD SWAP1 POP PUSH2 0x72B DUP2 PUSH2 0xB02 JUMP JUMPDEST SWAP3 SWAP2 POP POP JUMP JUMPDEST PUSH1 0x0 DUP1 PUSH1 0x20 DUP4 DUP6 SUB SLT ISZERO PUSH2 0x748 JUMPI PUSH2 0x747 PUSH2 0xAEC JUMP JUMPDEST JUMPDEST PUSH1 0x0 DUP4 ADD CALLDATALOAD PUSH8 0xFFFFFFFFFFFFFFFF DUP2 GT ISZERO PUSH2 0x766 JUMPI PUSH2 0x765 PUSH2 0xAE7 JUMP JUMPDEST JUMPDEST PUSH2 0x772 DUP6 DUP3 DUP7 ADD PUSH2 0x6C6 JUMP JUMPDEST SWAP3 POP SWAP3 POP POP SWAP3 POP SWAP3 SWAP1 POP JUMP JUMPDEST PUSH1 0x0 PUSH1 0x20 DUP3 DUP5 SUB SLT ISZERO PUSH2 0x794 JUMPI PUSH2 0x793 PUSH2 0xAEC JUMP JUMPDEST JUMPDEST PUSH1 0x0 PUSH2 0x7A2 DUP5 DUP3 DUP6 ADD PUSH2 0x71C JUMP JUMPDEST SWAP2 POP POP SWAP3 SWAP2 POP POP JUMP JUMPDEST PUSH1 0x0 DUP1 PUSH1 0x0 PUSH1 0x40 DUP5 DUP7 SUB SLT ISZERO PUSH2 0x7C4 JUMPI PUSH2 0x7C3 PUSH2 0xAEC JUMP JUMPDEST JUMPDEST PUSH1 0x0 PUSH2 0x7D2 DUP7 DUP3 DUP8 ADD PUSH2 0x71C JUMP JUMPDEST SWAP4 POP POP PUSH1 0x20 DUP5 ADD CALLDATALOAD PUSH8 0xFFFFFFFFFFFFFFFF DUP2 GT ISZERO PUSH2 0x7F3 JUMPI PUSH2 0x7F2 PUSH2 0xAE7 JUMP JUMPDEST JUMPDEST PUSH2 0x7FF DUP7 DUP3 DUP8 ADD PUSH2 0x6C6 JUMP JUMPDEST SWAP3 POP SWAP3 POP POP SWAP3 POP SWAP3 POP SWAP3 JUMP JUMPDEST PUSH2 0x814 DUP2 PUSH2 0x958 JUMP JUMPDEST DUP3 MSTORE POP POP JUMP JUMPDEST PUSH1 0x0 PUSH2 0x825 DUP3 PUSH2 0x8B2 JUMP JUMPDEST PUSH2 0x82F DUP2 DUP6 PUSH2 0x8BD JUMP JUMPDEST SWAP4 POP PUSH2 0x83F DUP2 DUP6 PUSH1 0x20 DUP7 ADD PUSH2 0x96E JUMP JUMPDEST PUSH2 0x848 DUP2 PUSH2 0xAF1 JUMP JUMPDEST DUP5 ADD SWAP2 POP POP SWAP3 SWAP2 POP POP JUMP JUMPDEST PUSH1 0x0 PUSH1 0x40 DUP4 ADD PUSH1 0x0 DUP4 ADD MLOAD DUP5 DUP3 SUB PUSH1 0x0 DUP7 ADD MSTORE PUSH2 0x870 DUP3 DUP3 PUSH2 0x81A JUMP JUMPDEST SWAP2 POP POP PUSH1 0x20 DUP4 ADD MLOAD PUSH2 0x885 PUSH1 0x20 DUP7 ADD DUP3 PUSH2 0x80B JUMP JUMPDEST POP DUP1 SWAP2 POP POP SWAP3 SWAP2 POP POP JUMP JUMPDEST PUSH1 0x0 PUSH1 0x20 DUP3 ADD SWAP1 POP DUP2 DUP2 SUB PUSH1 0x0 DUP4 ADD MSTORE PUSH2 0x8AA DUP2 DUP5 PUSH2 0x853 JUMP JUMPDEST SWAP1 POP SWAP3 SWAP2 POP POP JUMP JUMPDEST PUSH1 0x0 DUP2 MLOAD SWAP1 POP SWAP2 SWAP1 POP JUMP JUMPDEST PUSH1 0x0 DUP3 DUP3 MSTORE PUSH1 0x20 DUP3 ADD SWAP1 POP SWAP3 SWAP2 POP POP JUMP JUMPDEST PUSH1 0x0 PUSH2 0x8D9 DUP3 PUSH2 0x964 JUMP JUMPDEST SWAP2 POP PUSH2 0x8E4 DUP4 PUSH2 0x964 JUMP JUMPDEST SWAP3 POP DUP3 PUSH32 0xFFFFFFFFFFFFFFFFFFFFFFFFFFFFFFFFFFFFFFFFFFFFFFFFFFFFFFFFFFFFFFFF SUB DUP3 GT ISZERO PUSH2 0x919 JUMPI PUSH2 0x918 PUSH2 0xA1C JUMP JUMPDEST JUMPDEST DUP3 DUP3 ADD SWAP1 POP SWAP3 SWAP2 POP POP JUMP JUMPDEST PUSH1 0x0 PUSH2 0x92F DUP3 PUSH2 0x964 JUMP JUMPDEST SWAP2 POP PUSH2 0x93A DUP4 PUSH2 0x964 JUMP JUMPDEST SWAP3 POP DUP3 DUP3 LT ISZERO PUSH2 0x94D JUMPI PUSH2 0x94C PUSH2 0xA1C JUMP JUMPDEST JUMPDEST DUP3 DUP3 SUB SWAP1 POP SWAP3 SWAP2 POP POP JUMP JUMPDEST PUSH1 0x0 DUP2 ISZERO ISZERO SWAP1 POP SWAP2 SWAP1 POP JUMP JUMPDEST PUSH1 0x0 DUP2 SWAP1 POP SWAP2 SWAP1 POP JUMP JUMPDEST PUSH1 0x0 JUMPDEST DUP4 DUP2 LT ISZERO PUSH2 0x98C JUMPI DUP1 DUP3 ADD MLOAD DUP2 DUP5 ADD MSTORE PUSH1 0x20 DUP2 ADD SWAP1 POP PUSH2 0x971 JUMP JUMPDEST DUP4 DUP2 GT ISZERO PUSH2 0x99B JUMPI PUSH1 0x0 DUP5 DUP5 ADD MSTORE JUMPDEST POP POP POP POP JUMP JUMPDEST PUSH1 0x0 PUSH1 0x2 DUP3 DIV SWAP1 POP PUSH1 0x1 DUP3 AND DUP1 PUSH2 0x9B9 JUMPI PUSH1 0x7F DUP3 AND SWAP2 POP JUMPDEST PUSH1 0x20 DUP3 LT DUP2 EQ ISZERO PUSH2 0x9CD JUMPI PUSH2 0x9CC PUSH2 0xA4B JUMP JUMPDEST JUMPDEST POP SWAP2 SWAP1 POP JUMP JUMPDEST PUSH1 0x0 PUSH2 0x9DE DUP3 PUSH2 0x964 JUMP JUMPDEST SWAP2 POP PUSH32 0xFFFFFFFFFFFFFFFFFFFFFFFFFFFFFFFFFFFFFFFFFFFFFFFFFFFFFFFFFFFFFFFF DUP3 EQ ISZERO PUSH2 0xA11 JUMPI PUSH2 0xA10 PUSH2 0xA1C JUMP JUMPDEST JUMPDEST PUSH1 0x1 DUP3 ADD SWAP1 POP SWAP2 SWAP1 POP JUMP JUMPDEST PUSH32 0x4E487B7100000000000000000000000000000000000000000000000000000000 PUSH1 0x0 MSTORE PUSH1 0x11 PUSH1 0x4 MSTORE PUSH1 0x24 PUSH1 0x0 REVERT JUMPDEST PUSH32 0x4E487B7100000000000000000000000000000000000000000000000000000000 PUSH1 0x0 MSTORE PUSH1 0x22 PUSH1 0x4 MSTORE PUSH1 0x24 PUSH1 0x0 REVERT JUMPDEST PUSH32 0x4E487B7100000000000000000000000000000000000000000000000000000000 PUSH1 0x0 MSTORE PUSH1 0x31 PUSH1 0x4 MSTORE PUSH1 0x24 PUSH1 0x0 REVERT JUMPDEST PUSH32 0x4E487B7100000000000000000000000000000000000000000000000000000000 PUSH1 0x0 MSTORE PUSH1 0x32 PUSH1 0x4 MSTORE PUSH1 0x24 PUSH1 0x0 REVERT JUMPDEST PUSH1 0x0 DUP1 REVERT JUMPDEST PUSH1 0x0 DUP1 REVERT JUMPDEST PUSH1 0x0 DUP1 REVERT JUMPDEST PUSH1 0x0 DUP1 REVERT JUMPDEST PUSH1 0x0 DUP1 REVERT JUMPDEST PUSH1 0x0 PUSH1 0x1F NOT PUSH1 0x1F DUP4 ADD AND SWAP1 POP SWAP2 SWAP1 POP JUMP JUMPDEST PUSH2 0xB0B DUP2 PUSH2 0x964 JUMP JUMPDEST DUP2 EQ PUSH2 0xB16 JUMPI PUSH1 0x0 DUP1 REVERT JUMPDEST POP JUMP INVALID LOG2 PUSH5 0x6970667358 0x22 SLT KECCAK256 CALLCODE 0xE2 0xD1 DUP7 0xF7 0x29 GASLIMIT 0xAA DUP11 0xD8 COINBASE EQ 0x24 PUSH22 0x2AE483E1EA6E34F5740B5A180A66EB1BDFEE64736F6C PUSH4 0x43000807 STOP CALLER "
		},
		"gasEstimates": {
			"creation": {
				"codeDepositCost": "579000",
				"executionCost": "613",
				"totalCost": "579613"
			},
			"external": {
				"createTodo(string)": "infinite",
				"deleteTodo(uint256)": "infinite",
				"getTodo(uint256)": "infinite",
				"toggleTodo(uint256)": "33359",
				"updateTodo(uint256,string)": "infinite"
			}
		},
		"methodIdentifiers": {
			"createTodo(string)": "e34f1221",
			"deleteTodo(uint256)": "6e3c6738",
			"getTodo(uint256)": "dd68afb6",
			"toggleTodo(uint256)": "dc00282c",
			"updateTodo(uint256,string)": "d534ee88"
		}
	},
	"abi": [
		{
			"inputs": [
				{
					"internalType": "string",
					"name": "_text",
					"type": "string"
				}
			],
			"name": "createTodo",
			"outputs": [],
			"stateMutability": "nonpayable",
			"type": "function"
		},
		{
			"inputs": [
				{
					"internalType": "uint256",
					"name": "_index",
					"type": "uint256"
				}
			],
			"name": "deleteTodo",
			"outputs": [],
			"stateMutability": "nonpayable",
			"type": "function"
		},
		{
			"inputs": [
				{
					"internalType": "uint256",
					"name": "_index",
					"type": "uint256"
				}
			],
			"name": "getTodo",
			"outputs": [
				{
					"components": [
						{
							"internalType": "string",
							"name": "text",
							"type": "string"
						},
						{
							"internalType": "bool",
							"name": "isCheck",
							"type": "bool"
						}
					],
					"internalType": "struct TodoList.Todo",
					"name": "",
					"type": "tuple"
				}
			],
			"stateMutability": "view",
			"type": "function"
		},
		{
			"inputs": [
				{
					"internalType": "uint256",
					"name": "_index",
					"type": "uint256"
				}
			],
			"name": "toggleTodo",
			"outputs": [],
			"stateMutability": "nonpayable",
			"type": "function"
		},
		{
			"inputs": [
				{
					"internalType": "uint256",
					"name": "_index",
					"type": "uint256"
				},
				{
					"internalType": "string",
					"name": "_text",
					"type": "string"
				}
			],
			"name": "updateTodo",
			"outputs": [],
			"stateMutability": "nonpayable",
			"type": "function"
		}
	]
}