{
	"Counter.sol": {
		"Counter": {
			"abi": [
				{
					"inputs": [],
					"name": "dec",
					"outputs": [],
					"stateMutability": "nonpayable",
					"type": "function"
				},
				{
					"inputs": [],
					"name": "getCount",
					"outputs": [
						{
							"internalType": "uint256",
							"name": "",
							"type": "uint256"
						}
					],
					"stateMutability": "view",
					"type": "function"
				},
				{
					"inputs": [],
					"name": "inc",
					"outputs": [],
					"stateMutability": "nonpayable",
					"type": "function"
				}
			],
			"devdoc": {
				"kind": "dev",
				"methods": {},
				"version": 1
			},
			"evm": {
				"assembly": "    /* \"Counter.sol\":63:298  contract Counter {... */\n  mstore(0x40, 0x80)\n  callvalue\n  dup1\n  iszero\n  tag_1\n  jumpi\n  0x00\n  dup1\n  revert\ntag_1:\n  pop\n  dataSize(sub_0)\n  dup1\n  dataOffset(sub_0)\n  0x00\n  codecopy\n  0x00\n  return\nstop\n\nsub_0: assembly {\n        /* \"Counter.sol\":63:298  contract Counter {... */\n      mstore(0x40, 0x80)\n      callvalue\n      dup1\n      iszero\n      tag_1\n      jumpi\n      0x00\n      dup1\n      revert\n    tag_1:\n      pop\n      jumpi(tag_2, lt(calldatasize, 0x04))\n      shr(0xe0, calldataload(0x00))\n      dup1\n      0x371303c0\n      eq\n      tag_3\n      jumpi\n      dup1\n      0xa87d942c\n      eq\n      tag_4\n      jumpi\n      dup1\n      0xb3bcfa82\n      eq\n      tag_5\n      jumpi\n    tag_2:\n      0x00\n      dup1\n      revert\n        /* \"Counter.sol\":105:155  function inc() external {... */\n    tag_3:\n      tag_6\n      tag_7\n      jump\t// in\n    tag_6:\n      stop\n        /* \"Counter.sol\":217:296  function getCount() external view returns(uint) {... */\n    tag_4:\n        /* \"Counter.sol\":259:263  uint */\n      0x00\n        /* \"Counter.sol\":282:289  counter */\n      sload\n        /* \"Counter.sol\":217:296  function getCount() external view returns(uint) {... */\n      mload(0x40)\n        /* \"#utility.yul\":160:185   */\n      swap1\n      dup2\n      mstore\n        /* \"#utility.yul\":148:150   */\n      0x20\n        /* \"#utility.yul\":133:151   */\n      add\n        /* \"Counter.sol\":217:296  function getCount() external view returns(uint) {... */\n      mload(0x40)\n      dup1\n      swap2\n      sub\n      swap1\n      return\n        /* \"Counter.sol\":161:211  function dec() external {... */\n    tag_5:\n      tag_6\n      tag_13\n      jump\t// in\n        /* \"Counter.sol\":105:155  function inc() external {... */\n    tag_7:\n        /* \"Counter.sol\":139:146  counter */\n      0x00\n        /* \"Counter.sol\":139:148  counter++ */\n      dup1\n      sload\n      swap1\n        /* \"Counter.sol\":139:146  counter */\n      dup1\n        /* \"Counter.sol\":139:148  counter++ */\n      tag_15\n      dup4\n      tag_16\n      jump\t// in\n    tag_15:\n      swap2\n      swap1\n      pop\n      sstore\n      pop\n        /* \"Counter.sol\":105:155  function inc() external {... */\n      jump\t// out\n        /* \"Counter.sol\":161:211  function dec() external {... */\n    tag_13:\n        /* \"Counter.sol\":195:202  counter */\n      0x00\n        /* \"Counter.sol\":195:204  counter-- */\n      dup1\n      sload\n      swap1\n        /* \"Counter.sol\":195:202  counter */\n      dup1\n        /* \"Counter.sol\":195:204  counter-- */\n      tag_15\n      dup4\n      tag_20\n      jump\t// in\n        /* \"#utility.yul\":196:323   */\n    tag_21:\n        /* \"#utility.yul\":257:267   */\n      0x4e487b71\n        /* \"#utility.yul\":252:255   */\n      0xe0\n        /* \"#utility.yul\":248:268   */\n      shl\n        /* \"#utility.yul\":245:246   */\n      0x00\n        /* \"#utility.yul\":238:269   */\n      mstore\n        /* \"#utility.yul\":288:292   */\n      0x11\n        /* \"#utility.yul\":285:286   */\n      0x04\n        /* \"#utility.yul\":278:293   */\n      mstore\n        /* \"#utility.yul\":312:316   */\n      0x24\n        /* \"#utility.yul\":309:310   */\n      0x00\n        /* \"#utility.yul\":302:317   */\n      revert\n        /* \"#utility.yul\":328:463   */\n    tag_16:\n        /* \"#utility.yul\":367:370   */\n      0x00\n        /* \"#utility.yul\":388:405   */\n      0x01\n      dup3\n      add\n        /* \"#utility.yul\":385:428   */\n      tag_27\n      jumpi\n        /* \"#utility.yul\":408:426   */\n      tag_27\n      tag_21\n      jump\t// in\n    tag_27:\n      pop\n        /* \"#utility.yul\":455:456   */\n      0x01\n        /* \"#utility.yul\":444:457   */\n      add\n      swap1\n        /* \"#utility.yul\":328:463   */\n      jump\t// out\n        /* \"#utility.yul\":468:604   */\n    tag_20:\n        /* \"#utility.yul\":507:510   */\n      0x00\n        /* \"#utility.yul\":535:540   */\n      dup2\n        /* \"#utility.yul\":525:564   */\n      tag_30\n      jumpi\n        /* \"#utility.yul\":544:562   */\n      tag_30\n      tag_21\n      jump\t// in\n    tag_30:\n      pop\n      not(0x00)\n        /* \"#utility.yul\":580:598   */\n      add\n      swap1\n        /* \"#utility.yul\":468:604   */\n      jump\t// out\n\n    auxdata: 0xa2646970667358221220b8cbae77b664b4e072012435213b382b2bc817f643807e95eb7bb5a0d7143f7164736f6c63430008100033\n}\n",
				"bytecode": {
					"linkReferences": {},
					"object": "608060405234801561001057600080fd5b5060fb8061001f6000396000f3fe6080604052348015600f57600080fd5b5060043610603c5760003560e01c8063371303c0146041578063a87d942c146049578063b3bcfa8214605e575b600080fd5b60476064565b005b60005460405190815260200160405180910390f35b60476078565b600080549080607183609b565b9190505550565b60008054908060718360b1565b634e487b7160e01b600052601160045260246000fd5b60006001820160aa5760aa6085565b5060010190565b60008160bd5760bd6085565b50600019019056fea2646970667358221220b8cbae77b664b4e072012435213b382b2bc817f643807e95eb7bb5a0d7143f7164736f6c63430008100033",
					"opcodes": "PUSH1 0x80 PUSH1 0x40 MSTORE CALLVALUE DUP1 ISZERO PUSH2 0x10 JUMPI PUSH1 0x0 DUP1 REVERT JUMPDEST POP PUSH1 0xFB DUP1 PUSH2 0x1F PUSH1 0x0 CODECOPY PUSH1 0x0 RETURN INVALID PUSH1 0x80 PUSH1 0x40 MSTORE CALLVALUE DUP1 ISZERO PUSH1 0xF JUMPI PUSH1 0x0 DUP1 REVERT JUMPDEST POP PUSH1 0x4 CALLDATASIZE LT PUSH1 0x3C JUMPI PUSH1 0x0 CALLDATALOAD PUSH1 0xE0 SHR DUP1 PUSH4 0x371303C0 EQ PUSH1 0x41 JUMPI DUP1 PUSH4 0xA87D942C EQ PUSH1 0x49 JUMPI DUP1 PUSH4 0xB3BCFA82 EQ PUSH1 0x5E JUMPI JUMPDEST PUSH1 0x0 DUP1 REVERT JUMPDEST PUSH1 0x47 PUSH1 0x64 JUMP JUMPDEST STOP JUMPDEST PUSH1 0x0 SLOAD PUSH1 0x40 MLOAD SWAP1 DUP2 MSTORE PUSH1 0x20 ADD PUSH1 0x40 MLOAD DUP1 SWAP2 SUB SWAP1 RETURN JUMPDEST PUSH1 0x47 PUSH1 0x78 JUMP JUMPDEST PUSH1 0x0 DUP1 SLOAD SWAP1 DUP1 PUSH1 0x71 DUP4 PUSH1 0x9B JUMP JUMPDEST SWAP2 SWAP1 POP SSTORE POP JUMP JUMPDEST PUSH1 0x0 DUP1 SLOAD SWAP1 DUP1 PUSH1 0x71 DUP4 PUSH1 0xB1 JUMP JUMPDEST PUSH4 0x4E487B71 PUSH1 0xE0 SHL PUSH1 0x0 MSTORE PUSH1 0x11 PUSH1 0x4 MSTORE PUSH1 0x24 PUSH1 0x0 REVERT JUMPDEST PUSH1 0x0 PUSH1 0x1 DUP3 ADD PUSH1 0xAA JUMPI PUSH1 0xAA PUSH1 0x85 JUMP JUMPDEST POP PUSH1 0x1 ADD SWAP1 JUMP JUMPDEST PUSH1 0x0 DUP2 PUSH1 0xBD JUMPI PUSH1 0xBD PUSH1 0x85 JUMP JUMPDEST POP PUSH1 0x0 NOT ADD SWAP1 JUMP INVALID LOG2 PUSH5 0x6970667358 0x22 SLT KECCAK256 0xB8 0xCB 0xAE PUSH24 0xB664B4E072012435213B382B2BC817F643807E95EB7BB5A0 0xD7 EQ EXTCODEHASH PUSH18 0x64736F6C6343000810003300000000000000 "
				},
				"gasEstimates": {
					"creation": {
						"codeDepositCost": "50200",
						"executionCost": "99",
						"totalCost": "50299"
					},
					"external": {
						"dec()": "24449",
						"getCount()": "2268",
						"inc()": "24408"
					}
				},
				"methodIdentifiers": {
					"dec()": "b3bcfa82",
					"getCount()": "a87d942c",
					"inc()": "371303c0"
				}
			},
			"storageLayout": {
				"storage": [
					{
						"astId": 3,
						"contract": "Counter.sol:Counter",
						"label": "counter",
						"offset": 0,
						"slot": "0",
						"type": "t_uint256"
					}
				],
				"types": {
					"t_uint256": {
						"encoding": "inplace",
						"label": "uint256",
						"numberOfBytes": "32"
					}
				}
			},
			"userdoc": {
				"kind": "user",
				"methods": {},
				"version": 1
			}
		}
	}
}