{
	"MappingIteration.sol": {
		"MappingIteration": {
			"abi": [
				{
					"inputs": [],
					"name": "getKeys",
					"outputs": [
						{
							"internalType": "address[]",
							"name": "",
							"type": "address[]"
						}
					],
					"stateMutability": "view",
					"type": "function"
				},
				{
					"inputs": [],
					"name": "length",
					"outputs": [
						{
							"internalType": "uint256",
							"name": "",
							"type": "uint256"
						}
					],
					"stateMutability": "view",
					"type": "function"
				},
				{
					"inputs": [
						{
							"internalType": "address",
							"name": "_key",
							"type": "address"
						},
						{
							"internalType": "uint256",
							"name": "_value",
							"type": "uint256"
						}
					],
					"name": "set",
					"outputs": [],
					"stateMutability": "nonpayable",
					"type": "function"
				}
			],
			"devdoc": {
				"kind": "dev",
				"methods": {},
				"version": 1
			},
			"evm": {
				"assembly": "    /* \"MappingIteration.sol\":63:564  contract MappingIteration {... */\n  mstore(0x40, 0x80)\n  callvalue\n  dup1\n  iszero\n  tag_1\n  jumpi\n  0x00\n  dup1\n  revert\ntag_1:\n  pop\n  dataSize(sub_0)\n  dup1\n  dataOffset(sub_0)\n  0x00\n  codecopy\n  0x00\n  return\nstop\n\nsub_0: assembly {\n        /* \"MappingIteration.sol\":63:564  contract MappingIteration {... */\n      mstore(0x40, 0x80)\n      callvalue\n      dup1\n      iszero\n      tag_1\n      jumpi\n      0x00\n      dup1\n      revert\n    tag_1:\n      pop\n      jumpi(tag_2, lt(calldatasize, 0x04))\n      shr(0xe0, calldataload(0x00))\n      dup1\n      0x1f7b6d32\n      eq\n      tag_3\n      jumpi\n      dup1\n      0x2150c518\n      eq\n      tag_4\n      jumpi\n      dup1\n      0x3825d828\n      eq\n      tag_5\n      jumpi\n    tag_2:\n      0x00\n      dup1\n      revert\n        /* \"MappingIteration.sol\":388:469  function length() external view returns(uint) {... */\n    tag_3:\n        /* \"MappingIteration.sol\":451:455  keys */\n      0x02\n        /* \"MappingIteration.sol\":451:462  keys.length */\n      sload\n        /* \"MappingIteration.sol\":388:469  function length() external view returns(uint) {... */\n      mload(0x40)\n        /* \"#utility.yul\":160:185   */\n      swap1\n      dup2\n      mstore\n        /* \"#utility.yul\":148:150   */\n      0x20\n        /* \"#utility.yul\":133:151   */\n      add\n        /* \"MappingIteration.sol\":388:469  function length() external view returns(uint) {... */\n    tag_8:\n      mload(0x40)\n      dup1\n      swap2\n      sub\n      swap1\n      return\n        /* \"MappingIteration.sol\":475:562  function getKeys() external view returns(address[] memory) {... */\n    tag_4:\n      tag_10\n      tag_11\n      jump\t// in\n    tag_10:\n      mload(0x40)\n      tag_8\n      swap2\n      swap1\n      tag_13\n      jump\t// in\n        /* \"MappingIteration.sol\":192:382  function set(address _key, uint _value) external {... */\n    tag_5:\n      tag_14\n      tag_15\n      calldatasize\n      0x04\n      tag_16\n      jump\t// in\n    tag_15:\n      tag_17\n      jump\t// in\n    tag_14:\n      stop\n        /* \"MappingIteration.sol\":475:562  function getKeys() external view returns(address[] memory) {... */\n    tag_11:\n        /* \"MappingIteration.sol\":516:532  address[] memory */\n      0x60\n        /* \"MappingIteration.sol\":551:555  keys */\n      0x02\n        /* \"MappingIteration.sol\":544:555  return keys */\n      dup1\n      sload\n      dup1\n      0x20\n      mul\n      0x20\n      add\n      mload(0x40)\n      swap1\n      dup2\n      add\n      0x40\n      mstore\n      dup1\n      swap3\n      swap2\n      swap1\n      dup2\n      dup2\n      mstore\n      0x20\n      add\n      dup3\n      dup1\n      sload\n      dup1\n      iszero\n      tag_20\n      jumpi\n      0x20\n      mul\n      dup3\n      add\n      swap2\n      swap1\n      0x00\n      mstore\n      keccak256(0x00, 0x20)\n      swap1\n    tag_21:\n      dup2\n      sload\n      sub(shl(0xa0, 0x01), 0x01)\n      and\n      dup2\n      mstore\n      0x01\n      swap1\n      swap2\n      add\n      swap1\n      0x20\n      add\n      dup1\n      dup4\n      gt\n      tag_21\n      jumpi\n    tag_20:\n      pop\n      pop\n      pop\n      pop\n      pop\n      swap1\n      pop\n        /* \"MappingIteration.sol\":475:562  function getKeys() external view returns(address[] memory) {... */\n      swap1\n      jump\t// out\n        /* \"MappingIteration.sol\":192:382  function set(address _key, uint _value) external {... */\n    tag_17:\n      sub(shl(0xa0, 0x01), 0x01)\n        /* \"MappingIteration.sol\":251:265  balances[_key] */\n      dup3\n      and\n        /* \"MappingIteration.sol\":251:259  balances */\n      0x00\n        /* \"MappingIteration.sol\":251:265  balances[_key] */\n      swap1\n      dup2\n      mstore\n      0x20\n      dup2\n      dup2\n      mstore\n      0x40\n      dup1\n      dup4\n      keccak256\n        /* \"MappingIteration.sol\":251:274  balances[_key] = _value */\n      dup5\n      swap1\n      sstore\n        /* \"MappingIteration.sol\":289:295  exists */\n      0x01\n        /* \"MappingIteration.sol\":289:301  exists[_key] */\n      swap1\n      swap2\n      mstore\n      swap1\n      keccak256\n      sload\n      0xff\n      and\n        /* \"MappingIteration.sol\":284:376  if (!exists[_key]) {... */\n      tag_23\n      jumpi\n        /* \"MappingIteration.sol\":317:321  keys */\n      0x02\n        /* \"MappingIteration.sol\":317:332  keys.push(_key) */\n      dup1\n      sload\n      0x01\n      dup1\n      dup3\n      add\n      swap1\n      swap3\n      sstore\n      0x405787fa12a823e0f2b7631cc41b3ba8828b3321ca811111fa75cd3aa3bb5ace\n      add\n      dup1\n      sload\n      not(sub(shl(0xa0, 0x01), 0x01))\n      and\n      sub(shl(0xa0, 0x01), 0x01)\n      dup6\n      and\n      swap1\n      dup2\n      or\n      swap1\n      swap2\n      sstore\n      0x00\n        /* \"MappingIteration.sol\":346:358  exists[_key] */\n      swap1\n      dup2\n      mstore\n        /* \"MappingIteration.sol\":317:332  keys.push(_key) */\n      0x20\n        /* \"MappingIteration.sol\":346:358  exists[_key] */\n      dup3\n      swap1\n      mstore\n      0x40\n      swap1\n      keccak256\n        /* \"MappingIteration.sol\":346:365  exists[_key] = true */\n      dup1\n      sload\n      not(0xff)\n      and\n      swap1\n      swap2\n      or\n      swap1\n      sstore\n        /* \"MappingIteration.sol\":284:376  if (!exists[_key]) {... */\n    tag_23:\n        /* \"MappingIteration.sol\":192:382  function set(address _key, uint _value) external {... */\n      pop\n      pop\n      jump\t// out\n        /* \"#utility.yul\":196:854   */\n    tag_13:\n        /* \"#utility.yul\":367:369   */\n      0x20\n        /* \"#utility.yul\":419:440   */\n      dup1\n      dup3\n      mstore\n        /* \"#utility.yul\":489:502   */\n      dup3\n      mload\n        /* \"#utility.yul\":392:410   */\n      dup3\n      dup3\n      add\n        /* \"#utility.yul\":511:533   */\n      dup2\n      swap1\n      mstore\n        /* \"#utility.yul\":338:342   */\n      0x00\n      swap2\n        /* \"#utility.yul\":367:369   */\n      swap1\n        /* \"#utility.yul\":590:605   */\n      dup5\n      dup3\n      add\n      swap1\n        /* \"#utility.yul\":564:566   */\n      0x40\n        /* \"#utility.yul\":549:567   */\n      dup6\n      add\n      swap1\n        /* \"#utility.yul\":338:342   */\n      dup5\n        /* \"#utility.yul\":633:828   */\n    tag_28:\n        /* \"#utility.yul\":647:653   */\n      dup2\n        /* \"#utility.yul\":644:645   */\n      dup2\n        /* \"#utility.yul\":641:654   */\n      lt\n        /* \"#utility.yul\":633:828   */\n      iszero\n      tag_30\n      jumpi\n        /* \"#utility.yul\":712:725   */\n      dup4\n      mload\n      sub(shl(0xa0, 0x01), 0x01)\n        /* \"#utility.yul\":708:747   */\n      and\n        /* \"#utility.yul\":696:748   */\n      dup4\n      mstore\n        /* \"#utility.yul\":803:818   */\n      swap3\n      dup5\n      add\n      swap3\n        /* \"#utility.yul\":768:780   */\n      swap2\n      dup5\n      add\n      swap2\n        /* \"#utility.yul\":744:745   */\n      0x01\n        /* \"#utility.yul\":662:671   */\n      add\n        /* \"#utility.yul\":633:828   */\n      jump(tag_28)\n    tag_30:\n      pop\n        /* \"#utility.yul\":845:848   */\n      swap1\n      swap7\n        /* \"#utility.yul\":196:854   */\n      swap6\n      pop\n      pop\n      pop\n      pop\n      pop\n      pop\n      jump\t// out\n        /* \"#utility.yul\":859:1213   */\n    tag_16:\n        /* \"#utility.yul\":927:933   */\n      0x00\n        /* \"#utility.yul\":935:941   */\n      dup1\n        /* \"#utility.yul\":988:990   */\n      0x40\n        /* \"#utility.yul\":976:985   */\n      dup4\n        /* \"#utility.yul\":967:974   */\n      dup6\n        /* \"#utility.yul\":963:986   */\n      sub\n        /* \"#utility.yul\":959:991   */\n      slt\n        /* \"#utility.yul\":956:1008   */\n      iszero\n      tag_32\n      jumpi\n        /* \"#utility.yul\":1004:1005   */\n      0x00\n        /* \"#utility.yul\":1001:1002   */\n      dup1\n        /* \"#utility.yul\":994:1006   */\n      revert\n        /* \"#utility.yul\":956:1008   */\n    tag_32:\n        /* \"#utility.yul\":1030:1053   */\n      dup3\n      calldataload\n      sub(shl(0xa0, 0x01), 0x01)\n        /* \"#utility.yul\":1082:1113   */\n      dup2\n      and\n        /* \"#utility.yul\":1072:1114   */\n      dup2\n      eq\n        /* \"#utility.yul\":1062:1132   */\n      tag_33\n      jumpi\n        /* \"#utility.yul\":1128:1129   */\n      0x00\n        /* \"#utility.yul\":1125:1126   */\n      dup1\n        /* \"#utility.yul\":1118:1130   */\n      revert\n        /* \"#utility.yul\":1062:1132   */\n    tag_33:\n        /* \"#utility.yul\":1151:1156   */\n      swap5\n        /* \"#utility.yul\":1203:1205   */\n      0x20\n        /* \"#utility.yul\":1188:1206   */\n      swap4\n      swap1\n      swap4\n      add\n        /* \"#utility.yul\":1175:1207   */\n      calldataload\n      swap4\n      pop\n      pop\n      pop\n        /* \"#utility.yul\":859:1213   */\n      jump\t// out\n\n    auxdata: 0xa2646970667358221220a1dac6a1e10f4d9798efea9d3d6c4795095bb623a42edd17580b1c071bea10ae64736f6c63430008100033\n}\n",
				"bytecode": {
					"linkReferences": {},
					"object": "608060405234801561001057600080fd5b50610236806100206000396000f3fe608060405234801561001057600080fd5b50600436106100415760003560e01c80631f7b6d32146100465780632150c5181461005c5780633825d82814610071575b600080fd5b6002546040519081526020015b60405180910390f35b610064610086565b604051610053919061017b565b61008461007f3660046101c8565b6100e8565b005b606060028054806020026020016040519081016040528092919081815260200182805480156100de57602002820191906000526020600020905b81546001600160a01b031681526001909101906020018083116100c0575b5050505050905090565b6001600160a01b038216600090815260208181526040808320849055600190915290205460ff16610177576002805460018082019092557f405787fa12a823e0f2b7631cc41b3ba8828b3321ca811111fa75cd3aa3bb5ace0180546001600160a01b0319166001600160a01b0385169081179091556000908152602082905260409020805460ff191690911790555b5050565b6020808252825182820181905260009190848201906040850190845b818110156101bc5783516001600160a01b031683529284019291840191600101610197565b50909695505050505050565b600080604083850312156101db57600080fd5b82356001600160a01b03811681146101f257600080fd5b94602093909301359350505056fea2646970667358221220a1dac6a1e10f4d9798efea9d3d6c4795095bb623a42edd17580b1c071bea10ae64736f6c63430008100033",
					"opcodes": "PUSH1 0x80 PUSH1 0x40 MSTORE CALLVALUE DUP1 ISZERO PUSH2 0x10 JUMPI PUSH1 0x0 DUP1 REVERT JUMPDEST POP PUSH2 0x236 DUP1 PUSH2 0x20 PUSH1 0x0 CODECOPY PUSH1 0x0 RETURN INVALID PUSH1 0x80 PUSH1 0x40 MSTORE CALLVALUE DUP1 ISZERO PUSH2 0x10 JUMPI PUSH1 0x0 DUP1 REVERT JUMPDEST POP PUSH1 0x4 CALLDATASIZE LT PUSH2 0x41 JUMPI PUSH1 0x0 CALLDATALOAD PUSH1 0xE0 SHR DUP1 PUSH4 0x1F7B6D32 EQ PUSH2 0x46 JUMPI DUP1 PUSH4 0x2150C518 EQ PUSH2 0x5C JUMPI DUP1 PUSH4 0x3825D828 EQ PUSH2 0x71 JUMPI JUMPDEST PUSH1 0x0 DUP1 REVERT JUMPDEST PUSH1 0x2 SLOAD PUSH1 0x40 MLOAD SWAP1 DUP2 MSTORE PUSH1 0x20 ADD JUMPDEST PUSH1 0x40 MLOAD DUP1 SWAP2 SUB SWAP1 RETURN JUMPDEST PUSH2 0x64 PUSH2 0x86 JUMP JUMPDEST PUSH1 0x40 MLOAD PUSH2 0x53 SWAP2 SWAP1 PUSH2 0x17B JUMP JUMPDEST PUSH2 0x84 PUSH2 0x7F CALLDATASIZE PUSH1 0x4 PUSH2 0x1C8 JUMP JUMPDEST PUSH2 0xE8 JUMP JUMPDEST STOP JUMPDEST PUSH1 0x60 PUSH1 0x2 DUP1 SLOAD DUP1 PUSH1 0x20 MUL PUSH1 0x20 ADD PUSH1 0x40 MLOAD SWAP1 DUP2 ADD PUSH1 0x40 MSTORE DUP1 SWAP3 SWAP2 SWAP1 DUP2 DUP2 MSTORE PUSH1 0x20 ADD DUP3 DUP1 SLOAD DUP1 ISZERO PUSH2 0xDE JUMPI PUSH1 0x20 MUL DUP3 ADD SWAP2 SWAP1 PUSH1 0x0 MSTORE PUSH1 0x20 PUSH1 0x0 KECCAK256 SWAP1 JUMPDEST DUP2 SLOAD PUSH1 0x1 PUSH1 0x1 PUSH1 0xA0 SHL SUB AND DUP2 MSTORE PUSH1 0x1 SWAP1 SWAP2 ADD SWAP1 PUSH1 0x20 ADD DUP1 DUP4 GT PUSH2 0xC0 JUMPI JUMPDEST POP POP POP POP POP SWAP1 POP SWAP1 JUMP JUMPDEST PUSH1 0x1 PUSH1 0x1 PUSH1 0xA0 SHL SUB DUP3 AND PUSH1 0x0 SWAP1 DUP2 MSTORE PUSH1 0x20 DUP2 DUP2 MSTORE PUSH1 0x40 DUP1 DUP4 KECCAK256 DUP5 SWAP1 SSTORE PUSH1 0x1 SWAP1 SWAP2 MSTORE SWAP1 KECCAK256 SLOAD PUSH1 0xFF AND PUSH2 0x177 JUMPI PUSH1 0x2 DUP1 SLOAD PUSH1 0x1 DUP1 DUP3 ADD SWAP1 SWAP3 SSTORE PUSH32 0x405787FA12A823E0F2B7631CC41B3BA8828B3321CA811111FA75CD3AA3BB5ACE ADD DUP1 SLOAD PUSH1 0x1 PUSH1 0x1 PUSH1 0xA0 SHL SUB NOT AND PUSH1 0x1 PUSH1 0x1 PUSH1 0xA0 SHL SUB DUP6 AND SWAP1 DUP2 OR SWAP1 SWAP2 SSTORE PUSH1 0x0 SWAP1 DUP2 MSTORE PUSH1 0x20 DUP3 SWAP1 MSTORE PUSH1 0x40 SWAP1 KECCAK256 DUP1 SLOAD PUSH1 0xFF NOT AND SWAP1 SWAP2 OR SWAP1 SSTORE JUMPDEST POP POP JUMP JUMPDEST PUSH1 0x20 DUP1 DUP3 MSTORE DUP3 MLOAD DUP3 DUP3 ADD DUP2 SWAP1 MSTORE PUSH1 0x0 SWAP2 SWAP1 DUP5 DUP3 ADD SWAP1 PUSH1 0x40 DUP6 ADD SWAP1 DUP5 JUMPDEST DUP2 DUP2 LT ISZERO PUSH2 0x1BC JUMPI DUP4 MLOAD PUSH1 0x1 PUSH1 0x1 PUSH1 0xA0 SHL SUB AND DUP4 MSTORE SWAP3 DUP5 ADD SWAP3 SWAP2 DUP5 ADD SWAP2 PUSH1 0x1 ADD PUSH2 0x197 JUMP JUMPDEST POP SWAP1 SWAP7 SWAP6 POP POP POP POP POP POP JUMP JUMPDEST PUSH1 0x0 DUP1 PUSH1 0x40 DUP4 DUP6 SUB SLT ISZERO PUSH2 0x1DB JUMPI PUSH1 0x0 DUP1 REVERT JUMPDEST DUP3 CALLDATALOAD PUSH1 0x1 PUSH1 0x1 PUSH1 0xA0 SHL SUB DUP2 AND DUP2 EQ PUSH2 0x1F2 JUMPI PUSH1 0x0 DUP1 REVERT JUMPDEST SWAP5 PUSH1 0x20 SWAP4 SWAP1 SWAP4 ADD CALLDATALOAD SWAP4 POP POP POP JUMP INVALID LOG2 PUSH5 0x6970667358 0x22 SLT KECCAK256 LOG1 0xDA 0xC6 LOG1 0xE1 0xF 0x4D SWAP8 SWAP9 0xEF 0xEA SWAP14 RETURNDATASIZE PUSH13 0x4795095BB623A42EDD17580B1C SMOD SHL 0xEA LT 0xAE PUSH5 0x736F6C6343 STOP ADDMOD LT STOP CALLER "
				},
				"gasEstimates": {
					"creation": {
						"codeDepositCost": "113200",
						"executionCost": "159",
						"totalCost": "113359"
					},
					"external": {
						"getKeys()": "infinite",
						"length()": "2247",
						"set(address,uint256)": "97479"
					}
				},
				"methodIdentifiers": {
					"getKeys()": "2150c518",
					"length()": "1f7b6d32",
					"set(address,uint256)": "3825d828"
				}
			},
			"storageLayout": {
				"storage": [
					{
						"astId": 5,
						"contract": "MappingIteration.sol:MappingIteration",
						"label": "balances",
						"offset": 0,
						"slot": "0",
						"type": "t_mapping(t_address,t_uint256)"
					},
					{
						"astId": 9,
						"contract": "MappingIteration.sol:MappingIteration",
						"label": "exists",
						"offset": 0,
						"slot": "1",
						"type": "t_mapping(t_address,t_bool)"
					},
					{
						"astId": 12,
						"contract": "MappingIteration.sol:MappingIteration",
						"label": "keys",
						"offset": 0,
						"slot": "2",
						"type": "t_array(t_address)dyn_storage"
					}
				],
				"types": {
					"t_address": {
						"encoding": "inplace",
						"label": "address",
						"numberOfBytes": "20"
					},
					"t_array(t_address)dyn_storage": {
						"base": "t_address",
						"encoding": "dynamic_array",
						"label": "address[]",
						"numberOfBytes": "32"
					},
					"t_bool": {
						"encoding": "inplace",
						"label": "bool",
						"numberOfBytes": "1"
					},
					"t_mapping(t_address,t_bool)": {
						"encoding": "mapping",
						"key": "t_address",
						"label": "mapping(address => bool)",
						"numberOfBytes": "32",
						"value": "t_bool"
					},
					"t_mapping(t_address,t_uint256)": {
						"encoding": "mapping",
						"key": "t_address",
						"label": "mapping(address => uint256)",
						"numberOfBytes": "32",
						"value": "t_uint256"
					},
					"t_uint256": {
						"encoding": "inplace",
						"label": "uint256",
						"numberOfBytes": "32"
					}
				}
			},
			"userdoc": {
				"kind": "user",
				"methods": {},
				"version": 1
			}
		}
	}
}