{
	"SimpleStorage.sol": {
		"MappingIteration": {
			"abi": [
				{
					"inputs": [],
					"name": "get",
					"outputs": [
						{
							"internalType": "string",
							"name": "",
							"type": "string"
						}
					],
					"stateMutability": "view",
					"type": "function"
				},
				{
					"inputs": [
						{
							"internalType": "string",
							"name": "_text",
							"type": "string"
						}
					],
					"name": "set",
					"outputs": [],
					"stateMutability": "nonpayable",
					"type": "function"
				}
			],
			"devdoc": {
				"kind": "dev",
				"methods": {},
				"version": 1
			},
			"evm": {
				"assembly": "    /* \"SimpleStorage.sol\":63:275  contract MappingIteration {... */\n  mstore(0x40, 0x80)\n  callvalue\n  dup1\n  iszero\n  tag_1\n  jumpi\n  0x00\n  dup1\n  revert\ntag_1:\n  pop\n  dataSize(sub_0)\n  dup1\n  dataOffset(sub_0)\n  0x00\n  codecopy\n  0x00\n  return\nstop\n\nsub_0: assembly {\n        /* \"SimpleStorage.sol\":63:275  contract MappingIteration {... */\n      mstore(0x40, 0x80)\n      callvalue\n      dup1\n      iszero\n      tag_1\n      jumpi\n      0x00\n      dup1\n      revert\n    tag_1:\n      pop\n      jumpi(tag_2, lt(calldatasize, 0x04))\n      shr(0xe0, calldataload(0x00))\n      dup1\n      0x4ed3885e\n      eq\n      tag_3\n      jumpi\n      dup1\n      0x6d4ce63c\n      eq\n      tag_4\n      jumpi\n    tag_2:\n      0x00\n      dup1\n      revert\n        /* \"SimpleStorage.sol\":113:187  function set(string calldata _text) external {... */\n    tag_3:\n      tag_5\n      tag_6\n      calldatasize\n      0x04\n      tag_7\n      jump\t// in\n    tag_6:\n      tag_8\n      jump\t// in\n    tag_5:\n      stop\n        /* \"SimpleStorage.sol\":193:273  function get() external view returns(string memory) {... */\n    tag_4:\n      tag_9\n      tag_10\n      jump\t// in\n    tag_9:\n      mload(0x40)\n      tag_11\n      swap2\n      swap1\n      tag_12\n      jump\t// in\n    tag_11:\n      mload(0x40)\n      dup1\n      swap2\n      sub\n      swap1\n      return\n        /* \"SimpleStorage.sol\":113:187  function set(string calldata _text) external {... */\n    tag_8:\n        /* \"SimpleStorage.sol\":168:172  text */\n      0x00\n        /* \"SimpleStorage.sol\":168:180  text = _text */\n      tag_14\n        /* \"SimpleStorage.sol\":175:180  _text */\n      dup3\n      dup5\n        /* \"SimpleStorage.sol\":168:172  text */\n      dup4\n        /* \"SimpleStorage.sol\":168:180  text = _text */\n      tag_15\n      jump\t// in\n    tag_14:\n      pop\n        /* \"SimpleStorage.sol\":113:187  function set(string calldata _text) external {... */\n      pop\n      pop\n      jump\t// out\n        /* \"SimpleStorage.sol\":193:273  function get() external view returns(string memory) {... */\n    tag_10:\n        /* \"SimpleStorage.sol\":230:243  string memory */\n      0x60\n        /* \"SimpleStorage.sol\":262:266  text */\n      0x00\n        /* \"SimpleStorage.sol\":255:266  return text */\n      dup1\n      sload\n      tag_17\n      swap1\n      tag_18\n      jump\t// in\n    tag_17:\n      dup1\n      0x1f\n      add\n      0x20\n      dup1\n      swap2\n      div\n      mul\n      0x20\n      add\n      mload(0x40)\n      swap1\n      dup2\n      add\n      0x40\n      mstore\n      dup1\n      swap3\n      swap2\n      swap1\n      dup2\n      dup2\n      mstore\n      0x20\n      add\n      dup3\n      dup1\n      sload\n      tag_19\n      swap1\n      tag_18\n      jump\t// in\n    tag_19:\n      dup1\n      iszero\n      tag_20\n      jumpi\n      dup1\n      0x1f\n      lt\n      tag_21\n      jumpi\n      0x0100\n      dup1\n      dup4\n      sload\n      div\n      mul\n      dup4\n      mstore\n      swap2\n      0x20\n      add\n      swap2\n      jump(tag_20)\n    tag_21:\n      dup3\n      add\n      swap2\n      swap1\n      0x00\n      mstore\n      keccak256(0x00, 0x20)\n      swap1\n    tag_22:\n      dup2\n      sload\n      dup2\n      mstore\n      swap1\n      0x01\n      add\n      swap1\n      0x20\n      add\n      dup1\n      dup4\n      gt\n      tag_22\n      jumpi\n      dup3\n      swap1\n      sub\n      0x1f\n      and\n      dup3\n      add\n      swap2\n    tag_20:\n      pop\n      pop\n      pop\n      pop\n      pop\n      swap1\n      pop\n        /* \"SimpleStorage.sol\":193:273  function get() external view returns(string memory) {... */\n      swap1\n      jump\t// out\n        /* \"#utility.yul\":14:606   */\n    tag_7:\n        /* \"#utility.yul\":85:91   */\n      0x00\n        /* \"#utility.yul\":93:99   */\n      dup1\n        /* \"#utility.yul\":146:148   */\n      0x20\n        /* \"#utility.yul\":134:143   */\n      dup4\n        /* \"#utility.yul\":125:132   */\n      dup6\n        /* \"#utility.yul\":121:144   */\n      sub\n        /* \"#utility.yul\":117:149   */\n      slt\n        /* \"#utility.yul\":114:166   */\n      iszero\n      tag_29\n      jumpi\n        /* \"#utility.yul\":162:163   */\n      0x00\n        /* \"#utility.yul\":159:160   */\n      dup1\n        /* \"#utility.yul\":152:164   */\n      revert\n        /* \"#utility.yul\":114:166   */\n    tag_29:\n        /* \"#utility.yul\":202:211   */\n      dup3\n        /* \"#utility.yul\":189:212   */\n      calldataload\n        /* \"#utility.yul\":231:249   */\n      0xffffffffffffffff\n        /* \"#utility.yul\":272:274   */\n      dup1\n        /* \"#utility.yul\":264:270   */\n      dup3\n        /* \"#utility.yul\":261:275   */\n      gt\n        /* \"#utility.yul\":258:292   */\n      iszero\n      tag_30\n      jumpi\n        /* \"#utility.yul\":288:289   */\n      0x00\n        /* \"#utility.yul\":285:286   */\n      dup1\n        /* \"#utility.yul\":278:290   */\n      revert\n        /* \"#utility.yul\":258:292   */\n    tag_30:\n        /* \"#utility.yul\":326:332   */\n      dup2\n        /* \"#utility.yul\":315:324   */\n      dup6\n        /* \"#utility.yul\":311:333   */\n      add\n        /* \"#utility.yul\":301:333   */\n      swap2\n      pop\n        /* \"#utility.yul\":371:378   */\n      dup6\n        /* \"#utility.yul\":364:368   */\n      0x1f\n        /* \"#utility.yul\":360:362   */\n      dup4\n        /* \"#utility.yul\":356:369   */\n      add\n        /* \"#utility.yul\":352:379   */\n      slt\n        /* \"#utility.yul\":342:397   */\n      tag_31\n      jumpi\n        /* \"#utility.yul\":393:394   */\n      0x00\n        /* \"#utility.yul\":390:391   */\n      dup1\n        /* \"#utility.yul\":383:395   */\n      revert\n        /* \"#utility.yul\":342:397   */\n    tag_31:\n        /* \"#utility.yul\":433:435   */\n      dup2\n        /* \"#utility.yul\":420:436   */\n      calldataload\n        /* \"#utility.yul\":459:461   */\n      dup2\n        /* \"#utility.yul\":451:457   */\n      dup2\n        /* \"#utility.yul\":448:462   */\n      gt\n        /* \"#utility.yul\":445:479   */\n      iszero\n      tag_32\n      jumpi\n        /* \"#utility.yul\":475:476   */\n      0x00\n        /* \"#utility.yul\":472:473   */\n      dup1\n        /* \"#utility.yul\":465:477   */\n      revert\n        /* \"#utility.yul\":445:479   */\n    tag_32:\n        /* \"#utility.yul\":520:527   */\n      dup7\n        /* \"#utility.yul\":515:517   */\n      0x20\n        /* \"#utility.yul\":506:512   */\n      dup3\n        /* \"#utility.yul\":502:504   */\n      dup6\n        /* \"#utility.yul\":498:513   */\n      add\n        /* \"#utility.yul\":494:518   */\n      add\n        /* \"#utility.yul\":491:528   */\n      gt\n        /* \"#utility.yul\":488:545   */\n      iszero\n      tag_33\n      jumpi\n        /* \"#utility.yul\":541:542   */\n      0x00\n        /* \"#utility.yul\":538:539   */\n      dup1\n        /* \"#utility.yul\":531:543   */\n      revert\n        /* \"#utility.yul\":488:545   */\n    tag_33:\n        /* \"#utility.yul\":572:574   */\n      0x20\n        /* \"#utility.yul\":564:575   */\n      swap3\n      swap1\n      swap3\n      add\n      swap7\n        /* \"#utility.yul\":594:600   */\n      swap2\n      swap6\n      pop\n        /* \"#utility.yul\":14:606   */\n      swap1\n      swap4\n      pop\n      pop\n      pop\n      pop\n      jump\t// out\n        /* \"#utility.yul\":611:1159   */\n    tag_12:\n        /* \"#utility.yul\":723:727   */\n      0x00\n        /* \"#utility.yul\":752:754   */\n      0x20\n        /* \"#utility.yul\":781:783   */\n      dup1\n        /* \"#utility.yul\":770:779   */\n      dup4\n        /* \"#utility.yul\":763:784   */\n      mstore\n        /* \"#utility.yul\":813:819   */\n      dup4\n        /* \"#utility.yul\":807:820   */\n      mload\n        /* \"#utility.yul\":856:862   */\n      dup1\n        /* \"#utility.yul\":851:853   */\n      dup3\n        /* \"#utility.yul\":840:849   */\n      dup6\n        /* \"#utility.yul\":836:854   */\n      add\n        /* \"#utility.yul\":829:863   */\n      mstore\n        /* \"#utility.yul\":881:882   */\n      0x00\n        /* \"#utility.yul\":891:1031   */\n    tag_35:\n        /* \"#utility.yul\":905:911   */\n      dup2\n        /* \"#utility.yul\":902:903   */\n      dup2\n        /* \"#utility.yul\":899:912   */\n      lt\n        /* \"#utility.yul\":891:1031   */\n      iszero\n      tag_37\n      jumpi\n        /* \"#utility.yul\":1000:1014   */\n      dup6\n      dup2\n      add\n        /* \"#utility.yul\":996:1019   */\n      dup4\n      add\n        /* \"#utility.yul\":990:1020   */\n      mload\n        /* \"#utility.yul\":966:983   */\n      dup6\n      dup3\n      add\n        /* \"#utility.yul\":985:987   */\n      0x40\n        /* \"#utility.yul\":962:988   */\n      add\n        /* \"#utility.yul\":955:1021   */\n      mstore\n        /* \"#utility.yul\":920:930   */\n      dup3\n      add\n        /* \"#utility.yul\":891:1031   */\n      jump(tag_35)\n    tag_37:\n        /* \"#utility.yul\":895:898   */\n      pop\n        /* \"#utility.yul\":1080:1081   */\n      0x00\n        /* \"#utility.yul\":1075:1077   */\n      0x40\n        /* \"#utility.yul\":1066:1072   */\n      dup3\n        /* \"#utility.yul\":1055:1064   */\n      dup7\n        /* \"#utility.yul\":1051:1073   */\n      add\n        /* \"#utility.yul\":1047:1078   */\n      add\n        /* \"#utility.yul\":1040:1082   */\n      mstore\n        /* \"#utility.yul\":1150:1152   */\n      0x40\n        /* \"#utility.yul\":1143:1145   */\n      0x1f\n        /* \"#utility.yul\":1139:1146   */\n      not\n        /* \"#utility.yul\":1134:1136   */\n      0x1f\n        /* \"#utility.yul\":1126:1132   */\n      dup4\n        /* \"#utility.yul\":1122:1137   */\n      add\n        /* \"#utility.yul\":1118:1147   */\n      and\n        /* \"#utility.yul\":1107:1116   */\n      dup6\n        /* \"#utility.yul\":1103:1148   */\n      add\n        /* \"#utility.yul\":1099:1153   */\n      add\n        /* \"#utility.yul\":1091:1153   */\n      swap3\n      pop\n      pop\n      pop\n        /* \"#utility.yul\":611:1159   */\n      swap3\n      swap2\n      pop\n      pop\n      jump\t// out\n        /* \"#utility.yul\":1164:1291   */\n    tag_23:\n        /* \"#utility.yul\":1225:1235   */\n      0x4e487b71\n        /* \"#utility.yul\":1220:1223   */\n      0xe0\n        /* \"#utility.yul\":1216:1236   */\n      shl\n        /* \"#utility.yul\":1213:1214   */\n      0x00\n        /* \"#utility.yul\":1206:1237   */\n      mstore\n        /* \"#utility.yul\":1256:1260   */\n      0x41\n        /* \"#utility.yul\":1253:1254   */\n      0x04\n        /* \"#utility.yul\":1246:1261   */\n      mstore\n        /* \"#utility.yul\":1280:1284   */\n      0x24\n        /* \"#utility.yul\":1277:1278   */\n      0x00\n        /* \"#utility.yul\":1270:1285   */\n      revert\n        /* \"#utility.yul\":1296:1676   */\n    tag_18:\n        /* \"#utility.yul\":1375:1376   */\n      0x01\n        /* \"#utility.yul\":1371:1383   */\n      dup2\n      dup2\n      shr\n      swap1\n        /* \"#utility.yul\":1418:1430   */\n      dup3\n      and\n      dup1\n        /* \"#utility.yul\":1439:1500   */\n      tag_40\n      jumpi\n        /* \"#utility.yul\":1493:1497   */\n      0x7f\n        /* \"#utility.yul\":1485:1491   */\n      dup3\n        /* \"#utility.yul\":1481:1498   */\n      and\n        /* \"#utility.yul\":1471:1498   */\n      swap2\n      pop\n        /* \"#utility.yul\":1439:1500   */\n    tag_40:\n        /* \"#utility.yul\":1546:1548   */\n      0x20\n        /* \"#utility.yul\":1538:1544   */\n      dup3\n        /* \"#utility.yul\":1535:1549   */\n      lt\n        /* \"#utility.yul\":1515:1533   */\n      dup2\n        /* \"#utility.yul\":1512:1550   */\n      sub\n        /* \"#utility.yul\":1509:1670   */\n      tag_41\n      jumpi\n        /* \"#utility.yul\":1592:1602   */\n      0x4e487b71\n        /* \"#utility.yul\":1587:1590   */\n      0xe0\n        /* \"#utility.yul\":1583:1603   */\n      shl\n        /* \"#utility.yul\":1580:1581   */\n      0x00\n        /* \"#utility.yul\":1573:1604   */\n      mstore\n        /* \"#utility.yul\":1627:1631   */\n      0x22\n        /* \"#utility.yul\":1624:1625   */\n      0x04\n        /* \"#utility.yul\":1617:1632   */\n      mstore\n        /* \"#utility.yul\":1655:1659   */\n      0x24\n        /* \"#utility.yul\":1652:1653   */\n      0x00\n        /* \"#utility.yul\":1645:1660   */\n      revert\n        /* \"#utility.yul\":1509:1670   */\n    tag_41:\n      pop\n        /* \"#utility.yul\":1296:1676   */\n      swap2\n      swap1\n      pop\n      jump\t// out\n        /* \"#utility.yul\":1807:2352   */\n    tag_25:\n        /* \"#utility.yul\":1909:1911   */\n      0x1f\n        /* \"#utility.yul\":1904:1907   */\n      dup3\n        /* \"#utility.yul\":1901:1912   */\n      gt\n        /* \"#utility.yul\":1898:2346   */\n      iszero\n      tag_14\n      jumpi\n        /* \"#utility.yul\":1945:1946   */\n      0x00\n        /* \"#utility.yul\":1970:1975   */\n      dup2\n        /* \"#utility.yul\":1966:1968   */\n      dup2\n        /* \"#utility.yul\":1959:1976   */\n      mstore\n        /* \"#utility.yul\":2015:2019   */\n      0x20\n        /* \"#utility.yul\":2011:2013   */\n      dup2\n        /* \"#utility.yul\":2001:2020   */\n      keccak256\n        /* \"#utility.yul\":2085:2087   */\n      0x1f\n        /* \"#utility.yul\":2073:2083   */\n      dup6\n        /* \"#utility.yul\":2069:2088   */\n      add\n        /* \"#utility.yul\":2066:2067   */\n      0x05\n        /* \"#utility.yul\":2062:2089   */\n      shr\n        /* \"#utility.yul\":2056:2060   */\n      dup2\n        /* \"#utility.yul\":2052:2090   */\n      add\n        /* \"#utility.yul\":2121:2125   */\n      0x20\n        /* \"#utility.yul\":2109:2119   */\n      dup7\n        /* \"#utility.yul\":2106:2126   */\n      lt\n        /* \"#utility.yul\":2103:2150   */\n      iszero\n      tag_45\n      jumpi\n      pop\n        /* \"#utility.yul\":2144:2148   */\n      dup1\n        /* \"#utility.yul\":2103:2150   */\n    tag_45:\n        /* \"#utility.yul\":2199:2201   */\n      0x1f\n        /* \"#utility.yul\":2194:2197   */\n      dup6\n        /* \"#utility.yul\":2190:2202   */\n      add\n        /* \"#utility.yul\":2187:2188   */\n      0x05\n        /* \"#utility.yul\":2183:2203   */\n      shr\n        /* \"#utility.yul\":2177:2181   */\n      dup3\n        /* \"#utility.yul\":2173:2204   */\n      add\n        /* \"#utility.yul\":2163:2204   */\n      swap2\n      pop\n        /* \"#utility.yul\":2254:2336   */\n    tag_46:\n        /* \"#utility.yul\":2272:2274   */\n      dup2\n        /* \"#utility.yul\":2265:2270   */\n      dup2\n        /* \"#utility.yul\":2262:2275   */\n      lt\n        /* \"#utility.yul\":2254:2336   */\n      iszero\n      tag_48\n      jumpi\n        /* \"#utility.yul\":2317:2334   */\n      dup3\n      dup2\n      sstore\n        /* \"#utility.yul\":2298:2299   */\n      0x01\n        /* \"#utility.yul\":2287:2300   */\n      add\n        /* \"#utility.yul\":2254:2336   */\n      jump(tag_46)\n    tag_48:\n        /* \"#utility.yul\":2258:2261   */\n      pop\n      pop\n      pop\n        /* \"#utility.yul\":1807:2352   */\n      pop\n      pop\n      pop\n      jump\t// out\n        /* \"#utility.yul\":2528:3734   */\n    tag_15:\n        /* \"#utility.yul\":2652:2670   */\n      0xffffffffffffffff\n        /* \"#utility.yul\":2647:2650   */\n      dup4\n        /* \"#utility.yul\":2644:2671   */\n      gt\n        /* \"#utility.yul\":2641:2694   */\n      iszero\n      tag_52\n      jumpi\n        /* \"#utility.yul\":2674:2692   */\n      tag_52\n      tag_23\n      jump\t// in\n    tag_52:\n        /* \"#utility.yul\":2703:2797   */\n      tag_53\n        /* \"#utility.yul\":2793:2796   */\n      dup4\n        /* \"#utility.yul\":2753:2791   */\n      tag_54\n        /* \"#utility.yul\":2785:2789   */\n      dup4\n        /* \"#utility.yul\":2779:2790   */\n      sload\n        /* \"#utility.yul\":2753:2791   */\n      tag_18\n      jump\t// in\n    tag_54:\n        /* \"#utility.yul\":2747:2751   */\n      dup4\n        /* \"#utility.yul\":2703:2797   */\n      tag_25\n      jump\t// in\n    tag_53:\n        /* \"#utility.yul\":2823:2824   */\n      0x00\n        /* \"#utility.yul\":2848:2850   */\n      0x1f\n        /* \"#utility.yul\":2843:2846   */\n      dup5\n        /* \"#utility.yul\":2840:2851   */\n      gt\n        /* \"#utility.yul\":2865:2866   */\n      0x01\n        /* \"#utility.yul\":2860:3476   */\n      dup2\n      eq\n      tag_56\n      jumpi\n        /* \"#utility.yul\":3520:3521   */\n      0x00\n        /* \"#utility.yul\":3537:3540   */\n      dup6\n        /* \"#utility.yul\":3534:3627   */\n      iszero\n      tag_57\n      jumpi\n      pop\n        /* \"#utility.yul\":3593:3612   */\n      dup4\n      dup3\n      add\n        /* \"#utility.yul\":3580:3613   */\n      calldataload\n        /* \"#utility.yul\":3534:3627   */\n    tag_57:\n      not(0x00)\n        /* \"#utility.yul\":2485:2486   */\n      0x03\n        /* \"#utility.yul\":2481:2492   */\n      dup8\n      swap1\n      shl\n        /* \"#utility.yul\":2477:2501   */\n      shr\n        /* \"#utility.yul\":2473:2502   */\n      not\n        /* \"#utility.yul\":2463:2503   */\n      and\n        /* \"#utility.yul\":2509:2510   */\n      0x01\n        /* \"#utility.yul\":2505:2516   */\n      dup7\n      swap1\n      shl\n        /* \"#utility.yul\":2460:2517   */\n      or\n        /* \"#utility.yul\":3640:3718   */\n      dup4\n      sstore\n        /* \"#utility.yul\":2833:3728   */\n      jump(tag_55)\n        /* \"#utility.yul\":2860:3476   */\n    tag_56:\n        /* \"#utility.yul\":1754:1755   */\n      0x00\n        /* \"#utility.yul\":1747:1761   */\n      dup4\n      dup2\n      mstore\n        /* \"#utility.yul\":1791:1795   */\n      0x20\n        /* \"#utility.yul\":1778:1796   */\n      swap1\n      keccak256\n      not(0x1f)\n        /* \"#utility.yul\":2896:2913   */\n      dup7\n      and\n      swap1\n        /* \"#utility.yul\":2997:3006   */\n      dup4\n        /* \"#utility.yul\":3019:3248   */\n    tag_60:\n        /* \"#utility.yul\":3033:3040   */\n      dup3\n        /* \"#utility.yul\":3030:3031   */\n      dup2\n        /* \"#utility.yul\":3027:3041   */\n      lt\n        /* \"#utility.yul\":3019:3248   */\n      iszero\n      tag_62\n      jumpi\n        /* \"#utility.yul\":3122:3141   */\n      dup7\n      dup6\n      add\n        /* \"#utility.yul\":3109:3142   */\n      calldataload\n        /* \"#utility.yul\":3094:3143   */\n      dup3\n      sstore\n        /* \"#utility.yul\":3229:3233   */\n      0x20\n        /* \"#utility.yul\":3214:3234   */\n      swap5\n      dup6\n      add\n      swap5\n        /* \"#utility.yul\":3182:3183   */\n      0x01\n        /* \"#utility.yul\":3170:3184   */\n      swap1\n      swap3\n      add\n      swap2\n        /* \"#utility.yul\":3049:3061   */\n      add\n        /* \"#utility.yul\":3019:3248   */\n      jump(tag_60)\n    tag_62:\n        /* \"#utility.yul\":3023:3026   */\n      pop\n        /* \"#utility.yul\":3276:3279   */\n      dup7\n        /* \"#utility.yul\":3267:3274   */\n      dup3\n        /* \"#utility.yul\":3264:3280   */\n      lt\n        /* \"#utility.yul\":3261:3420   */\n      iszero\n      tag_63\n      jumpi\n        /* \"#utility.yul\":3400:3401   */\n      0x00\n        /* \"#utility.yul\":3396:3402   */\n      not\n        /* \"#utility.yul\":3390:3393   */\n      0xf8\n        /* \"#utility.yul\":3384:3387   */\n      dup9\n        /* \"#utility.yul\":3381:3382   */\n      0x03\n        /* \"#utility.yul\":3377:3388   */\n      shl\n        /* \"#utility.yul\":3373:3394   */\n      and\n        /* \"#utility.yul\":3369:3403   */\n      shr\n        /* \"#utility.yul\":3365:3404   */\n      not\n        /* \"#utility.yul\":3352:3361   */\n      dup5\n        /* \"#utility.yul\":3347:3350   */\n      dup8\n        /* \"#utility.yul\":3343:3362   */\n      add\n        /* \"#utility.yul\":3330:3363   */\n      calldataload\n        /* \"#utility.yul\":3326:3405   */\n      and\n        /* \"#utility.yul\":3318:3324   */\n      dup2\n        /* \"#utility.yul\":3311:3406   */\n      sstore\n        /* \"#utility.yul\":3261:3420   */\n    tag_63:\n      pop\n      pop\n        /* \"#utility.yul\":3463:3464   */\n      0x01\n        /* \"#utility.yul\":3457:3460   */\n      dup6\n        /* \"#utility.yul\":3454:3455   */\n      0x01\n        /* \"#utility.yul\":3450:3461   */\n      shl\n        /* \"#utility.yul\":3446:3465   */\n      add\n        /* \"#utility.yul\":3440:3444   */\n      dup4\n        /* \"#utility.yul\":3433:3466   */\n      sstore\n        /* \"#utility.yul\":2833:3728   */\n    tag_55:\n      pop\n      pop\n        /* \"#utility.yul\":2528:3734   */\n      pop\n      pop\n      pop\n      jump\t// out\n\n    auxdata: 0xa264697066735822122053725edf74fc7fcda8e513f6d1acdd46dfc7211ad5bbe551c2e56bfe99266fc464736f6c63430008100033\n}\n",
				"bytecode": {
					"linkReferences": {},
					"object": "608060405234801561001057600080fd5b50610367806100206000396000f3fe608060405234801561001057600080fd5b50600436106100365760003560e01c80634ed3885e1461003b5780636d4ce63c14610050575b600080fd5b61004e610049366004610112565b61006e565b005b610058610080565b6040516100659190610184565b60405180910390f35b600061007b828483610270565b505050565b60606000805461008f906101e8565b80601f01602080910402602001604051908101604052809291908181526020018280546100bb906101e8565b80156101085780601f106100dd57610100808354040283529160200191610108565b820191906000526020600020905b8154815290600101906020018083116100eb57829003601f168201915b5050505050905090565b6000806020838503121561012557600080fd5b823567ffffffffffffffff8082111561013d57600080fd5b818501915085601f83011261015157600080fd5b81358181111561016057600080fd5b86602082850101111561017257600080fd5b60209290920196919550909350505050565b600060208083528351808285015260005b818110156101b157858101830151858201604001528201610195565b506000604082860101526040601f19601f8301168501019250505092915050565b634e487b7160e01b600052604160045260246000fd5b600181811c908216806101fc57607f821691505b60208210810361021c57634e487b7160e01b600052602260045260246000fd5b50919050565b601f82111561007b57600081815260208120601f850160051c810160208610156102495750805b601f850160051c820191505b8181101561026857828155600101610255565b505050505050565b67ffffffffffffffff831115610288576102886101d2565b61029c8361029683546101e8565b83610222565b6000601f8411600181146102d057600085156102b85750838201355b600019600387901b1c1916600186901b17835561032a565b600083815260209020601f19861690835b8281101561030157868501358255602094850194600190920191016102e1565b508682101561031e5760001960f88860031b161c19848701351681555b505060018560011b0183555b505050505056fea264697066735822122053725edf74fc7fcda8e513f6d1acdd46dfc7211ad5bbe551c2e56bfe99266fc464736f6c63430008100033",
					"opcodes": "PUSH1 0x80 PUSH1 0x40 MSTORE CALLVALUE DUP1 ISZERO PUSH2 0x10 JUMPI PUSH1 0x0 DUP1 REVERT JUMPDEST POP PUSH2 0x367 DUP1 PUSH2 0x20 PUSH1 0x0 CODECOPY PUSH1 0x0 RETURN INVALID PUSH1 0x80 PUSH1 0x40 MSTORE CALLVALUE DUP1 ISZERO PUSH2 0x10 JUMPI PUSH1 0x0 DUP1 REVERT JUMPDEST POP PUSH1 0x4 CALLDATASIZE LT PUSH2 0x36 JUMPI PUSH1 0x0 CALLDATALOAD PUSH1 0xE0 SHR DUP1 PUSH4 0x4ED3885E EQ PUSH2 0x3B JUMPI DUP1 PUSH4 0x6D4CE63C EQ PUSH2 0x50 JUMPI JUMPDEST PUSH1 0x0 DUP1 REVERT JUMPDEST PUSH2 0x4E PUSH2 0x49 CALLDATASIZE PUSH1 0x4 PUSH2 0x112 JUMP JUMPDEST PUSH2 0x6E JUMP JUMPDEST STOP JUMPDEST PUSH2 0x58 PUSH2 0x80 JUMP JUMPDEST PUSH1 0x40 MLOAD PUSH2 0x65 SWAP2 SWAP1 PUSH2 0x184 JUMP JUMPDEST PUSH1 0x40 MLOAD DUP1 SWAP2 SUB SWAP1 RETURN JUMPDEST PUSH1 0x0 PUSH2 0x7B DUP3 DUP5 DUP4 PUSH2 0x270 JUMP JUMPDEST POP POP POP JUMP JUMPDEST PUSH1 0x60 PUSH1 0x0 DUP1 SLOAD PUSH2 0x8F SWAP1 PUSH2 0x1E8 JUMP JUMPDEST DUP1 PUSH1 0x1F ADD PUSH1 0x20 DUP1 SWAP2 DIV MUL PUSH1 0x20 ADD PUSH1 0x40 MLOAD SWAP1 DUP2 ADD PUSH1 0x40 MSTORE DUP1 SWAP3 SWAP2 SWAP1 DUP2 DUP2 MSTORE PUSH1 0x20 ADD DUP3 DUP1 SLOAD PUSH2 0xBB SWAP1 PUSH2 0x1E8 JUMP JUMPDEST DUP1 ISZERO PUSH2 0x108 JUMPI DUP1 PUSH1 0x1F LT PUSH2 0xDD JUMPI PUSH2 0x100 DUP1 DUP4 SLOAD DIV MUL DUP4 MSTORE SWAP2 PUSH1 0x20 ADD SWAP2 PUSH2 0x108 JUMP JUMPDEST DUP3 ADD SWAP2 SWAP1 PUSH1 0x0 MSTORE PUSH1 0x20 PUSH1 0x0 KECCAK256 SWAP1 JUMPDEST DUP2 SLOAD DUP2 MSTORE SWAP1 PUSH1 0x1 ADD SWAP1 PUSH1 0x20 ADD DUP1 DUP4 GT PUSH2 0xEB JUMPI DUP3 SWAP1 SUB PUSH1 0x1F AND DUP3 ADD SWAP2 JUMPDEST POP POP POP POP POP SWAP1 POP SWAP1 JUMP JUMPDEST PUSH1 0x0 DUP1 PUSH1 0x20 DUP4 DUP6 SUB SLT ISZERO PUSH2 0x125 JUMPI PUSH1 0x0 DUP1 REVERT JUMPDEST DUP3 CALLDATALOAD PUSH8 0xFFFFFFFFFFFFFFFF DUP1 DUP3 GT ISZERO PUSH2 0x13D JUMPI PUSH1 0x0 DUP1 REVERT JUMPDEST DUP2 DUP6 ADD SWAP2 POP DUP6 PUSH1 0x1F DUP4 ADD SLT PUSH2 0x151 JUMPI PUSH1 0x0 DUP1 REVERT JUMPDEST DUP2 CALLDATALOAD DUP2 DUP2 GT ISZERO PUSH2 0x160 JUMPI PUSH1 0x0 DUP1 REVERT JUMPDEST DUP7 PUSH1 0x20 DUP3 DUP6 ADD ADD GT ISZERO PUSH2 0x172 JUMPI PUSH1 0x0 DUP1 REVERT JUMPDEST PUSH1 0x20 SWAP3 SWAP1 SWAP3 ADD SWAP7 SWAP2 SWAP6 POP SWAP1 SWAP4 POP POP POP POP JUMP JUMPDEST PUSH1 0x0 PUSH1 0x20 DUP1 DUP4 MSTORE DUP4 MLOAD DUP1 DUP3 DUP6 ADD MSTORE PUSH1 0x0 JUMPDEST DUP2 DUP2 LT ISZERO PUSH2 0x1B1 JUMPI DUP6 DUP2 ADD DUP4 ADD MLOAD DUP6 DUP3 ADD PUSH1 0x40 ADD MSTORE DUP3 ADD PUSH2 0x195 JUMP JUMPDEST POP PUSH1 0x0 PUSH1 0x40 DUP3 DUP7 ADD ADD MSTORE PUSH1 0x40 PUSH1 0x1F NOT PUSH1 0x1F DUP4 ADD AND DUP6 ADD ADD SWAP3 POP POP POP SWAP3 SWAP2 POP POP JUMP JUMPDEST PUSH4 0x4E487B71 PUSH1 0xE0 SHL PUSH1 0x0 MSTORE PUSH1 0x41 PUSH1 0x4 MSTORE PUSH1 0x24 PUSH1 0x0 REVERT JUMPDEST PUSH1 0x1 DUP2 DUP2 SHR SWAP1 DUP3 AND DUP1 PUSH2 0x1FC JUMPI PUSH1 0x7F DUP3 AND SWAP2 POP JUMPDEST PUSH1 0x20 DUP3 LT DUP2 SUB PUSH2 0x21C JUMPI PUSH4 0x4E487B71 PUSH1 0xE0 SHL PUSH1 0x0 MSTORE PUSH1 0x22 PUSH1 0x4 MSTORE PUSH1 0x24 PUSH1 0x0 REVERT JUMPDEST POP SWAP2 SWAP1 POP JUMP JUMPDEST PUSH1 0x1F DUP3 GT ISZERO PUSH2 0x7B JUMPI PUSH1 0x0 DUP2 DUP2 MSTORE PUSH1 0x20 DUP2 KECCAK256 PUSH1 0x1F DUP6 ADD PUSH1 0x5 SHR DUP2 ADD PUSH1 0x20 DUP7 LT ISZERO PUSH2 0x249 JUMPI POP DUP1 JUMPDEST PUSH1 0x1F DUP6 ADD PUSH1 0x5 SHR DUP3 ADD SWAP2 POP JUMPDEST DUP2 DUP2 LT ISZERO PUSH2 0x268 JUMPI DUP3 DUP2 SSTORE PUSH1 0x1 ADD PUSH2 0x255 JUMP JUMPDEST POP POP POP POP POP POP JUMP JUMPDEST PUSH8 0xFFFFFFFFFFFFFFFF DUP4 GT ISZERO PUSH2 0x288 JUMPI PUSH2 0x288 PUSH2 0x1D2 JUMP JUMPDEST PUSH2 0x29C DUP4 PUSH2 0x296 DUP4 SLOAD PUSH2 0x1E8 JUMP JUMPDEST DUP4 PUSH2 0x222 JUMP JUMPDEST PUSH1 0x0 PUSH1 0x1F DUP5 GT PUSH1 0x1 DUP2 EQ PUSH2 0x2D0 JUMPI PUSH1 0x0 DUP6 ISZERO PUSH2 0x2B8 JUMPI POP DUP4 DUP3 ADD CALLDATALOAD JUMPDEST PUSH1 0x0 NOT PUSH1 0x3 DUP8 SWAP1 SHL SHR NOT AND PUSH1 0x1 DUP7 SWAP1 SHL OR DUP4 SSTORE PUSH2 0x32A JUMP JUMPDEST PUSH1 0x0 DUP4 DUP2 MSTORE PUSH1 0x20 SWAP1 KECCAK256 PUSH1 0x1F NOT DUP7 AND SWAP1 DUP4 JUMPDEST DUP3 DUP2 LT ISZERO PUSH2 0x301 JUMPI DUP7 DUP6 ADD CALLDATALOAD DUP3 SSTORE PUSH1 0x20 SWAP5 DUP6 ADD SWAP5 PUSH1 0x1 SWAP1 SWAP3 ADD SWAP2 ADD PUSH2 0x2E1 JUMP JUMPDEST POP DUP7 DUP3 LT ISZERO PUSH2 0x31E JUMPI PUSH1 0x0 NOT PUSH1 0xF8 DUP9 PUSH1 0x3 SHL AND SHR NOT DUP5 DUP8 ADD CALLDATALOAD AND DUP2 SSTORE JUMPDEST POP POP PUSH1 0x1 DUP6 PUSH1 0x1 SHL ADD DUP4 SSTORE JUMPDEST POP POP POP POP POP JUMP INVALID LOG2 PUSH5 0x6970667358 0x22 SLT KECCAK256 MSTORE8 PUSH19 0x5EDF74FC7FCDA8E513F6D1ACDD46DFC7211AD5 0xBB 0xE5 MLOAD 0xC2 0xE5 PUSH12 0xFE99266FC464736F6C634300 ADDMOD LT STOP CALLER "
				},
				"gasEstimates": {
					"creation": {
						"codeDepositCost": "174200",
						"executionCost": "220",
						"totalCost": "174420"
					},
					"external": {
						"get()": "infinite",
						"set(string)": "infinite"
					}
				},
				"methodIdentifiers": {
					"get()": "6d4ce63c",
					"set(string)": "4ed3885e"
				}
			},
			"storageLayout": {
				"storage": [
					{
						"astId": 3,
						"contract": "SimpleStorage.sol:MappingIteration",
						"label": "text",
						"offset": 0,
						"slot": "0",
						"type": "t_string_storage"
					}
				],
				"types": {
					"t_string_storage": {
						"encoding": "bytes",
						"label": "string",
						"numberOfBytes": "32"
					}
				}
			},
			"userdoc": {
				"kind": "user",
				"methods": {},
				"version": 1
			}
		}
	}
}