{
	"SendETH.sol": {
		"SendETH": {
			"abi": [
				{
					"inputs": [],
					"stateMutability": "payable",
					"type": "constructor"
				},
				{
					"inputs": [],
					"name": "CallFailed",
					"type": "error"
				},
				{
					"stateMutability": "payable",
					"type": "fallback"
				},
				{
					"inputs": [
						{
							"internalType": "address payable",
							"name": "_to",
							"type": "address"
						},
						{
							"internalType": "uint256",
							"name": "amount",
							"type": "uint256"
						}
					],
					"name": "callETH",
					"outputs": [],
					"stateMutability": "payable",
					"type": "function"
				}
			],
			"devdoc": {
				"kind": "dev",
				"methods": {},
				"version": 1
			},
			"evm": {
				"assembly": "    /* \"SendETH.sol\":296:801  contract SendETH {... */\n  mstore(0x40, 0x80)\n  dataSize(sub_0)\n  dup1\n  dataOffset(sub_0)\n  0x00\n  codecopy\n  0x00\n  return\nstop\n\nsub_0: assembly {\n        /* \"SendETH.sol\":296:801  contract SendETH {... */\n      mstore(0x40, 0x80)\n      jumpi(tag_1, lt(calldatasize, 0x04))\n      shr(0xe0, calldataload(0x00))\n      dup1\n      0x8419cf50\n      eq\n      tag_3\n      jumpi\n    tag_1:\n      stop\n        /* \"SendETH.sol\":520:799  function callETH(address payable _to, uint256 amount) external payable {... */\n    tag_3:\n      tag_1\n      tag_7\n      calldatasize\n      0x04\n      tag_8\n      jump\t// in\n    tag_7:\n        /* \"SendETH.sol\":683:695  bool success */\n      0x00\n        /* \"SendETH.sol\":700:703  _to */\n      dup3\n      sub(shl(0xa0, 0x01), 0x01)\n        /* \"SendETH.sol\":700:708  _to.call */\n      and\n        /* \"SendETH.sol\":716:722  amount */\n      dup3\n        /* \"SendETH.sol\":700:727  _to.call{value: amount}(\"\") */\n      mload(0x40)\n      0x00\n      mload(0x40)\n      dup1\n      dup4\n      sub\n      dup2\n      dup6\n      dup8\n      gas\n      call\n      swap3\n      pop\n      pop\n      pop\n      returndatasize\n      dup1\n      0x00\n      dup2\n      eq\n      tag_15\n      jumpi\n      mload(0x40)\n      swap2\n      pop\n      and(add(returndatasize, 0x3f), not(0x1f))\n      dup3\n      add\n      0x40\n      mstore\n      returndatasize\n      dup3\n      mstore\n      returndatasize\n      0x00\n      0x20\n      dup5\n      add\n      returndatacopy\n      jump(tag_14)\n    tag_15:\n      0x60\n      swap2\n      pop\n    tag_14:\n      pop\n        /* \"SendETH.sol\":682:727  (bool success,) = _to.call{value: amount}(\"\") */\n      pop\n      swap1\n      pop\n        /* \"SendETH.sol\":741:748  success */\n      dup1\n        /* \"SendETH.sol\":737:793  if(!success){... */\n      tag_16\n      jumpi\n        /* \"SendETH.sol\":770:782  CallFailed() */\n      mload(0x40)\n      shl(0xe0, 0x3204506f)\n      dup2\n      mstore\n      0x04\n      add\n      mload(0x40)\n      dup1\n      swap2\n      sub\n      swap1\n      revert\n        /* \"SendETH.sol\":737:793  if(!success){... */\n    tag_16:\n        /* \"SendETH.sol\":591:799  {... */\n      pop\n        /* \"SendETH.sol\":520:799  function callETH(address payable _to, uint256 amount) external payable {... */\n      pop\n      pop\n      jump\t// out\n        /* \"#utility.yul\":14:376   */\n    tag_8:\n        /* \"#utility.yul\":90:96   */\n      0x00\n        /* \"#utility.yul\":98:104   */\n      dup1\n        /* \"#utility.yul\":151:153   */\n      0x40\n        /* \"#utility.yul\":139:148   */\n      dup4\n        /* \"#utility.yul\":130:137   */\n      dup6\n        /* \"#utility.yul\":126:149   */\n      sub\n        /* \"#utility.yul\":122:154   */\n      slt\n        /* \"#utility.yul\":119:171   */\n      iszero\n      tag_19\n      jumpi\n        /* \"#utility.yul\":167:168   */\n      0x00\n        /* \"#utility.yul\":164:165   */\n      dup1\n        /* \"#utility.yul\":157:169   */\n      revert\n        /* \"#utility.yul\":119:171   */\n    tag_19:\n        /* \"#utility.yul\":193:216   */\n      dup3\n      calldataload\n      sub(shl(0xa0, 0x01), 0x01)\n        /* \"#utility.yul\":245:276   */\n      dup2\n      and\n        /* \"#utility.yul\":235:277   */\n      dup2\n      eq\n        /* \"#utility.yul\":225:295   */\n      tag_20\n      jumpi\n        /* \"#utility.yul\":291:292   */\n      0x00\n        /* \"#utility.yul\":288:289   */\n      dup1\n        /* \"#utility.yul\":281:293   */\n      revert\n        /* \"#utility.yul\":225:295   */\n    tag_20:\n        /* \"#utility.yul\":314:319   */\n      swap5\n        /* \"#utility.yul\":366:368   */\n      0x20\n        /* \"#utility.yul\":351:369   */\n      swap4\n      swap1\n      swap4\n      add\n        /* \"#utility.yul\":338:370   */\n      calldataload\n      swap4\n      pop\n      pop\n      pop\n        /* \"#utility.yul\":14:376   */\n      jump\t// out\n\n    auxdata: 0xa2646970667358221220e98176129add9b92df146b701478755cec90cce03b59ea7c2f16c124f424f91c64736f6c63430008100033\n}\n",
				"bytecode": {
					"linkReferences": {},
					"object": "608060405261010b806100136000396000f3fe608060405260043610601c5760003560e01c80638419cf5014601e575b005b601c6029366004609f565b6000826001600160a01b03168260405160006040518083038185875af1925050503d80600081146074576040519150601f19603f3d011682016040523d82523d6000602084013e6079565b606091505b5050905080609a57604051633204506f60e01b815260040160405180910390fd5b505050565b6000806040838503121560b157600080fd5b82356001600160a01b038116811460c757600080fd5b94602093909301359350505056fea2646970667358221220e98176129add9b92df146b701478755cec90cce03b59ea7c2f16c124f424f91c64736f6c63430008100033",
					"opcodes": "PUSH1 0x80 PUSH1 0x40 MSTORE PUSH2 0x10B DUP1 PUSH2 0x13 PUSH1 0x0 CODECOPY PUSH1 0x0 RETURN INVALID PUSH1 0x80 PUSH1 0x40 MSTORE PUSH1 0x4 CALLDATASIZE LT PUSH1 0x1C JUMPI PUSH1 0x0 CALLDATALOAD PUSH1 0xE0 SHR DUP1 PUSH4 0x8419CF50 EQ PUSH1 0x1E JUMPI JUMPDEST STOP JUMPDEST PUSH1 0x1C PUSH1 0x29 CALLDATASIZE PUSH1 0x4 PUSH1 0x9F JUMP JUMPDEST PUSH1 0x0 DUP3 PUSH1 0x1 PUSH1 0x1 PUSH1 0xA0 SHL SUB AND DUP3 PUSH1 0x40 MLOAD PUSH1 0x0 PUSH1 0x40 MLOAD DUP1 DUP4 SUB DUP2 DUP6 DUP8 GAS CALL SWAP3 POP POP POP RETURNDATASIZE DUP1 PUSH1 0x0 DUP2 EQ PUSH1 0x74 JUMPI PUSH1 0x40 MLOAD SWAP2 POP PUSH1 0x1F NOT PUSH1 0x3F RETURNDATASIZE ADD AND DUP3 ADD PUSH1 0x40 MSTORE RETURNDATASIZE DUP3 MSTORE RETURNDATASIZE PUSH1 0x0 PUSH1 0x20 DUP5 ADD RETURNDATACOPY PUSH1 0x79 JUMP JUMPDEST PUSH1 0x60 SWAP2 POP JUMPDEST POP POP SWAP1 POP DUP1 PUSH1 0x9A JUMPI PUSH1 0x40 MLOAD PUSH4 0x3204506F PUSH1 0xE0 SHL DUP2 MSTORE PUSH1 0x4 ADD PUSH1 0x40 MLOAD DUP1 SWAP2 SUB SWAP1 REVERT JUMPDEST POP POP POP JUMP JUMPDEST PUSH1 0x0 DUP1 PUSH1 0x40 DUP4 DUP6 SUB SLT ISZERO PUSH1 0xB1 JUMPI PUSH1 0x0 DUP1 REVERT JUMPDEST DUP3 CALLDATALOAD PUSH1 0x1 PUSH1 0x1 PUSH1 0xA0 SHL SUB DUP2 AND DUP2 EQ PUSH1 0xC7 JUMPI PUSH1 0x0 DUP1 REVERT JUMPDEST SWAP5 PUSH1 0x20 SWAP4 SWAP1 SWAP4 ADD CALLDATALOAD SWAP4 POP POP POP JUMP INVALID LOG2 PUSH5 0x6970667358 0x22 SLT KECCAK256 0xE9 DUP2 PUSH23 0x129ADD9B92DF146B701478755CEC90CCE03B59EA7C2F16 0xC1 0x24 DELEGATECALL 0x24 0xF9 SHR PUSH5 0x736F6C6343 STOP ADDMOD LT STOP CALLER "
				},
				"gasEstimates": {
					"creation": {
						"codeDepositCost": "53400",
						"executionCost": "81",
						"totalCost": "53481"
					},
					"external": {
						"": "74",
						"callETH(address,uint256)": "infinite"
					}
				},
				"methodIdentifiers": {
					"callETH(address,uint256)": "8419cf50"
				}
			},
			"storageLayout": {
				"storage": [],
				"types": null
			},
			"userdoc": {
				"kind": "user",
				"methods": {},
				"version": 1
			}
		}
	}
}