{
	"GetBack.sol": {
		"Caller": {
			"abi": [
				{
					"inputs": [],
					"name": "clain",
					"outputs": [],
					"stateMutability": "nonpayable",
					"type": "function"
				},
				{
					"inputs": [],
					"name": "send",
					"outputs": [],
					"stateMutability": "nonpayable",
					"type": "function"
				},
				{
					"stateMutability": "payable",
					"type": "receive"
				}
			],
			"devdoc": {
				"kind": "dev",
				"methods": {},
				"version": 1
			},
			"evm": {
				"assembly": "    /* \"GetBack.sol\":195:575  contract Caller {... */\n  mstore(0x40, 0x80)\n  callvalue\n  dup1\n  iszero\n  tag_1\n  jumpi\n  0x00\n  dup1\n  revert\ntag_1:\n  pop\n  dataSize(sub_0)\n  dup1\n  dataOffset(sub_0)\n  0x00\n  codecopy\n  0x00\n  return\nstop\n\nsub_0: assembly {\n        /* \"GetBack.sol\":195:575  contract Caller {... */\n      mstore(0x40, 0x80)\n      jumpi(tag_1, lt(calldatasize, 0x04))\n      shr(0xe0, calldataload(0x00))\n      dup1\n      0x4e411054\n      eq\n      tag_3\n      jumpi\n      dup1\n      0xb46300ec\n      eq\n      tag_4\n      jumpi\n      0x00\n      dup1\n      revert\n    tag_1:\n      jumpi(tag_2, calldatasize)\n      stop\n    tag_2:\n      0x00\n      dup1\n      revert\n        /* \"GetBack.sol\":429:573  function clain() external {... */\n    tag_3:\n      callvalue\n      dup1\n      iszero\n      tag_7\n      jumpi\n      0x00\n      dup1\n      revert\n    tag_7:\n      pop\n      tag_8\n      tag_9\n      jump\t// in\n    tag_8:\n      stop\n        /* \"GetBack.sol\":294:379  function send() external {... */\n    tag_4:\n      callvalue\n      dup1\n      iszero\n      tag_10\n      jumpi\n      0x00\n      dup1\n      revert\n    tag_10:\n      pop\n      tag_8\n      tag_12\n      jump\t// in\n        /* \"GetBack.sol\":429:573  function clain() external {... */\n    tag_9:\n        /* \"GetBack.sol\":521:565  abi.encodeWithSignature(\"clain(uint256)\", 0) */\n      mload(0x40)\n        /* \"GetBack.sol\":466:478  bool success */\n      0x00\n        /* \"GetBack.sol\":521:565  abi.encodeWithSignature(\"clain(uint256)\", 0) */\n      0x24\n      dup3\n      add\n        /* \"#utility.yul\":166:202   */\n      dup2\n      swap1\n      mstore\n        /* \"GetBack.sol\":466:478  bool success */\n      swap1\n      dup2\n      swap1\n        /* \"GetBack.sol\":245:287  0xd33C69361e00f01C3085ac77ab2fA13bE10376E8 */\n      0xd33c69361e00f01c3085ac77ab2fa13be10376e8\n      swap1\n        /* \"#utility.yul\":139:157   */\n      0x44\n      add\n        /* \"GetBack.sol\":521:565  abi.encodeWithSignature(\"clain(uint256)\", 0) */\n      0x40\n      dup1\n      mload\n      not(0x1f)\n      dup2\n      dup5\n      sub\n      add\n      dup2\n      mstore\n      swap2\n      dup2\n      mstore\n      0x20\n      dup3\n      add\n      dup1\n      mload\n      sub(shl(0xe0, 0x01), 0x01)\n      and\n      shl(0xe1, 0x4d0cb33d)\n      or\n      swap1\n      mstore\n        /* \"GetBack.sol\":498:566  address(CONTRACT).call(abi.encodeWithSignature(\"clain(uint256)\", 0)) */\n      mload\n      tag_16\n      swap2\n        /* \"GetBack.sol\":521:565  abi.encodeWithSignature(\"clain(uint256)\", 0) */\n      swap1\n        /* \"GetBack.sol\":498:566  address(CONTRACT).call(abi.encodeWithSignature(\"clain(uint256)\", 0)) */\n      tag_17\n      jump\t// in\n    tag_16:\n      0x00\n      mload(0x40)\n      dup1\n      dup4\n      sub\n      dup2\n      0x00\n      dup7\n      gas\n      call\n      swap2\n      pop\n      pop\n      returndatasize\n      dup1\n      0x00\n      dup2\n      eq\n      tag_20\n      jumpi\n      mload(0x40)\n      swap2\n      pop\n      and(add(returndatasize, 0x3f), not(0x1f))\n      dup3\n      add\n      0x40\n      mstore\n      returndatasize\n      dup3\n      mstore\n      returndatasize\n      0x00\n      0x20\n      dup5\n      add\n      returndatacopy\n      jump(tag_19)\n    tag_20:\n      0x60\n      swap2\n      pop\n    tag_19:\n      pop\n      pop\n      pop\n      pop\n      pop\n        /* \"GetBack.sol\":429:573  function clain() external {... */\n      jump\t// out\n        /* \"GetBack.sol\":294:379  function send() external {... */\n    tag_12:\n        /* \"GetBack.sol\":329:372  payable(CONTRACT).transfer(0.001 * 1 ether) */\n      mload(0x40)\n        /* \"GetBack.sol\":245:287  0xd33C69361e00f01C3085ac77ab2fA13bE10376E8 */\n      0xd33c69361e00f01c3085ac77ab2fa13be10376e8\n      swap1\n        /* \"GetBack.sol\":329:372  payable(CONTRACT).transfer(0.001 * 1 ether) */\n      0x00\n      swap1\n        /* \"GetBack.sol\":356:371  0.001 * 1 ether */\n      0x038d7ea4c68000\n      swap1\n        /* \"GetBack.sol\":329:372  payable(CONTRACT).transfer(0.001 * 1 ether) */\n      dup3\n      dup2\n      dup2\n      dup2\n        /* \"GetBack.sol\":356:371  0.001 * 1 ether */\n      dup6\n        /* \"GetBack.sol\":245:287  0xd33C69361e00f01C3085ac77ab2fA13bE10376E8 */\n      dup9\n        /* \"GetBack.sol\":329:372  payable(CONTRACT).transfer(0.001 * 1 ether) */\n      dup4\n      call\n      swap4\n      pop\n      pop\n      pop\n      pop\n      iszero\n      dup1\n      iszero\n      tag_23\n      jumpi\n      returndatasize\n      0x00\n      dup1\n      returndatacopy\n      revert(0x00, returndatasize)\n    tag_23:\n      pop\n        /* \"GetBack.sol\":294:379  function send() external {... */\n      jump\t// out\n        /* \"#utility.yul\":213:625   */\n    tag_17:\n        /* \"#utility.yul\":342:345   */\n      0x00\n        /* \"#utility.yul\":380:386   */\n      dup3\n        /* \"#utility.yul\":374:387   */\n      mload\n        /* \"#utility.yul\":405:406   */\n      0x00\n        /* \"#utility.yul\":415:544   */\n    tag_27:\n        /* \"#utility.yul\":429:435   */\n      dup2\n        /* \"#utility.yul\":426:427   */\n      dup2\n        /* \"#utility.yul\":423:436   */\n      lt\n        /* \"#utility.yul\":415:544   */\n      iszero\n      tag_29\n      jumpi\n        /* \"#utility.yul\":527:531   */\n      0x20\n        /* \"#utility.yul\":511:525   */\n      dup2\n      dup7\n      add\n        /* \"#utility.yul\":507:532   */\n      dup2\n      add\n        /* \"#utility.yul\":501:533   */\n      mload\n        /* \"#utility.yul\":488:499   */\n      dup6\n      dup4\n      add\n        /* \"#utility.yul\":481:534   */\n      mstore\n        /* \"#utility.yul\":444:456   */\n      add\n        /* \"#utility.yul\":415:544   */\n      jump(tag_27)\n    tag_29:\n      pop\n        /* \"#utility.yul\":599:600   */\n      0x00\n        /* \"#utility.yul\":563:579   */\n      swap3\n      add\n        /* \"#utility.yul\":588:601   */\n      swap2\n      dup3\n      mstore\n      pop\n        /* \"#utility.yul\":563:579   */\n      swap2\n        /* \"#utility.yul\":213:625   */\n      swap1\n      pop\n      jump\t// out\n\n    auxdata: 0xa2646970667358221220c1627b5e38674e6b51d11a22a0e2b3fd669f437f387d68fe5e191317081d683464736f6c63430008100033\n}\n",
				"bytecode": {
					"linkReferences": {},
					"object": "608060405234801561001057600080fd5b506101b6806100206000396000f3fe60806040526004361061002d5760003560e01c80634e41105414610039578063b46300ec1461005057600080fd5b3661003457005b600080fd5b34801561004557600080fd5b5061004e610065565b005b34801561005c57600080fd5b5061004e61010b565b60405160006024820181905290819073d33c69361e00f01c3085ac77ab2fa13be10376e89060440160408051601f198184030181529181526020820180516001600160e01b0316634d0cb33d60e11b179052516100c29190610151565b6000604051808303816000865af19150503d80600081146100ff576040519150601f19603f3d011682016040523d82523d6000602084013e610104565b606091505b5050505050565b60405173d33c69361e00f01c3085ac77ab2fa13be10376e89060009066038d7ea4c680009082818181858883f1935050505015801561014e573d6000803e3d6000fd5b50565b6000825160005b818110156101725760208186018101518583015201610158565b50600092019182525091905056fea2646970667358221220c1627b5e38674e6b51d11a22a0e2b3fd669f437f387d68fe5e191317081d683464736f6c63430008100033",
					"opcodes": "PUSH1 0x80 PUSH1 0x40 MSTORE CALLVALUE DUP1 ISZERO PUSH2 0x10 JUMPI PUSH1 0x0 DUP1 REVERT JUMPDEST POP PUSH2 0x1B6 DUP1 PUSH2 0x20 PUSH1 0x0 CODECOPY PUSH1 0x0 RETURN INVALID PUSH1 0x80 PUSH1 0x40 MSTORE PUSH1 0x4 CALLDATASIZE LT PUSH2 0x2D JUMPI PUSH1 0x0 CALLDATALOAD PUSH1 0xE0 SHR DUP1 PUSH4 0x4E411054 EQ PUSH2 0x39 JUMPI DUP1 PUSH4 0xB46300EC EQ PUSH2 0x50 JUMPI PUSH1 0x0 DUP1 REVERT JUMPDEST CALLDATASIZE PUSH2 0x34 JUMPI STOP JUMPDEST PUSH1 0x0 DUP1 REVERT JUMPDEST CALLVALUE DUP1 ISZERO PUSH2 0x45 JUMPI PUSH1 0x0 DUP1 REVERT JUMPDEST POP PUSH2 0x4E PUSH2 0x65 JUMP JUMPDEST STOP JUMPDEST CALLVALUE DUP1 ISZERO PUSH2 0x5C JUMPI PUSH1 0x0 DUP1 REVERT JUMPDEST POP PUSH2 0x4E PUSH2 0x10B JUMP JUMPDEST PUSH1 0x40 MLOAD PUSH1 0x0 PUSH1 0x24 DUP3 ADD DUP2 SWAP1 MSTORE SWAP1 DUP2 SWAP1 PUSH20 0xD33C69361E00F01C3085AC77AB2FA13BE10376E8 SWAP1 PUSH1 0x44 ADD PUSH1 0x40 DUP1 MLOAD PUSH1 0x1F NOT DUP2 DUP5 SUB ADD DUP2 MSTORE SWAP2 DUP2 MSTORE PUSH1 0x20 DUP3 ADD DUP1 MLOAD PUSH1 0x1 PUSH1 0x1 PUSH1 0xE0 SHL SUB AND PUSH4 0x4D0CB33D PUSH1 0xE1 SHL OR SWAP1 MSTORE MLOAD PUSH2 0xC2 SWAP2 SWAP1 PUSH2 0x151 JUMP JUMPDEST PUSH1 0x0 PUSH1 0x40 MLOAD DUP1 DUP4 SUB DUP2 PUSH1 0x0 DUP7 GAS CALL SWAP2 POP POP RETURNDATASIZE DUP1 PUSH1 0x0 DUP2 EQ PUSH2 0xFF JUMPI PUSH1 0x40 MLOAD SWAP2 POP PUSH1 0x1F NOT PUSH1 0x3F RETURNDATASIZE ADD AND DUP3 ADD PUSH1 0x40 MSTORE RETURNDATASIZE DUP3 MSTORE RETURNDATASIZE PUSH1 0x0 PUSH1 0x20 DUP5 ADD RETURNDATACOPY PUSH2 0x104 JUMP JUMPDEST PUSH1 0x60 SWAP2 POP JUMPDEST POP POP POP POP POP JUMP JUMPDEST PUSH1 0x40 MLOAD PUSH20 0xD33C69361E00F01C3085AC77AB2FA13BE10376E8 SWAP1 PUSH1 0x0 SWAP1 PUSH7 0x38D7EA4C68000 SWAP1 DUP3 DUP2 DUP2 DUP2 DUP6 DUP9 DUP4 CALL SWAP4 POP POP POP POP ISZERO DUP1 ISZERO PUSH2 0x14E JUMPI RETURNDATASIZE PUSH1 0x0 DUP1 RETURNDATACOPY RETURNDATASIZE PUSH1 0x0 REVERT JUMPDEST POP JUMP JUMPDEST PUSH1 0x0 DUP3 MLOAD PUSH1 0x0 JUMPDEST DUP2 DUP2 LT ISZERO PUSH2 0x172 JUMPI PUSH1 0x20 DUP2 DUP7 ADD DUP2 ADD MLOAD DUP6 DUP4 ADD MSTORE ADD PUSH2 0x158 JUMP JUMPDEST POP PUSH1 0x0 SWAP3 ADD SWAP2 DUP3 MSTORE POP SWAP2 SWAP1 POP JUMP INVALID LOG2 PUSH5 0x6970667358 0x22 SLT KECCAK256 0xC1 PUSH3 0x7B5E38 PUSH8 0x4E6B51D11A22A0E2 0xB3 REVERT PUSH7 0x9F437F387D68FE 0x5E NOT SGT OR ADDMOD SAR PUSH9 0x3464736F6C63430008 LT STOP CALLER "
				},
				"gasEstimates": {
					"creation": {
						"codeDepositCost": "87600",
						"executionCost": "135",
						"totalCost": "87735"
					},
					"external": {
						"clain()": "infinite",
						"send()": "infinite"
					}
				},
				"methodIdentifiers": {
					"clain()": "4e411054",
					"send()": "b46300ec"
				}
			},
			"storageLayout": {
				"storage": [],
				"types": null
			},
			"userdoc": {
				"kind": "user",
				"methods": {},
				"version": 1
			}
		}
	}
}