{
	"MappingIteration.sol": {
		"MappingIteration": {
			"abi": [
				{
					"inputs": [
						{
							"internalType": "uint256",
							"name": "index",
							"type": "uint256"
						}
					],
					"name": "get",
					"outputs": [
						{
							"internalType": "address",
							"name": "",
							"type": "address"
						}
					],
					"stateMutability": "view",
					"type": "function"
				},
				{
					"inputs": [],
					"name": "length",
					"outputs": [
						{
							"internalType": "uint256",
							"name": "",
							"type": "uint256"
						}
					],
					"stateMutability": "view",
					"type": "function"
				},
				{
					"inputs": [
						{
							"internalType": "address",
							"name": "_key",
							"type": "address"
						},
						{
							"internalType": "uint256",
							"name": "_value",
							"type": "uint256"
						}
					],
					"name": "set",
					"outputs": [],
					"stateMutability": "nonpayable",
					"type": "function"
				}
			],
			"devdoc": {
				"kind": "dev",
				"methods": {},
				"version": 1
			},
			"evm": {
				"assembly": "    /* \"MappingIteration.sol\":63:568  contract MappingIteration {... */\n  mstore(0x40, 0x80)\n  callvalue\n  dup1\n  iszero\n  tag_1\n  jumpi\n  0x00\n  dup1\n  revert\ntag_1:\n  pop\n  dataSize(sub_0)\n  dup1\n  dataOffset(sub_0)\n  0x00\n  codecopy\n  0x00\n  return\nstop\n\nsub_0: assembly {\n        /* \"MappingIteration.sol\":63:568  contract MappingIteration {... */\n      mstore(0x40, 0x80)\n      callvalue\n      dup1\n      iszero\n      tag_1\n      jumpi\n      0x00\n      dup1\n      revert\n    tag_1:\n      pop\n      jumpi(tag_2, lt(calldatasize, 0x04))\n      shr(0xe0, calldataload(0x00))\n      dup1\n      0x1f7b6d32\n      eq\n      tag_3\n      jumpi\n      dup1\n      0x3825d828\n      eq\n      tag_4\n      jumpi\n      dup1\n      0x9507d39a\n      eq\n      tag_5\n      jumpi\n    tag_2:\n      0x00\n      dup1\n      revert\n        /* \"MappingIteration.sol\":388:469  function length() external view returns(uint) {... */\n    tag_3:\n        /* \"MappingIteration.sol\":451:455  keys */\n      0x02\n        /* \"MappingIteration.sol\":451:462  keys.length */\n      sload\n        /* \"MappingIteration.sol\":388:469  function length() external view returns(uint) {... */\n      mload(0x40)\n        /* \"#utility.yul\":160:185   */\n      swap1\n      dup2\n      mstore\n        /* \"#utility.yul\":148:150   */\n      0x20\n        /* \"#utility.yul\":133:151   */\n      add\n        /* \"MappingIteration.sol\":388:469  function length() external view returns(uint) {... */\n    tag_8:\n      mload(0x40)\n      dup1\n      swap2\n      sub\n      swap1\n      return\n        /* \"MappingIteration.sol\":192:382  function set(address _key, uint _value) external {... */\n    tag_4:\n      tag_10\n      tag_11\n      calldatasize\n      0x04\n      tag_12\n      jump\t// in\n    tag_11:\n      tag_13\n      jump\t// in\n    tag_10:\n      stop\n        /* \"MappingIteration.sol\":475:566  function get(uint index) external view returns(address) {... */\n    tag_5:\n      tag_14\n      tag_15\n      calldatasize\n      0x04\n      tag_16\n      jump\t// in\n    tag_15:\n      tag_17\n      jump\t// in\n    tag_14:\n      mload(0x40)\n      sub(shl(0xa0, 0x01), 0x01)\n        /* \"#utility.yul\":904:936   */\n      swap1\n      swap2\n      and\n        /* \"#utility.yul\":886:937   */\n      dup2\n      mstore\n        /* \"#utility.yul\":874:876   */\n      0x20\n        /* \"#utility.yul\":859:877   */\n      add\n        /* \"MappingIteration.sol\":475:566  function get(uint index) external view returns(address) {... */\n      tag_8\n        /* \"#utility.yul\":740:943   */\n      jump\n        /* \"MappingIteration.sol\":192:382  function set(address _key, uint _value) external {... */\n    tag_13:\n      sub(shl(0xa0, 0x01), 0x01)\n        /* \"MappingIteration.sol\":251:265  balances[_key] */\n      dup3\n      and\n        /* \"MappingIteration.sol\":251:259  balances */\n      0x00\n        /* \"MappingIteration.sol\":251:265  balances[_key] */\n      swap1\n      dup2\n      mstore\n      0x20\n      dup2\n      dup2\n      mstore\n      0x40\n      dup1\n      dup4\n      keccak256\n        /* \"MappingIteration.sol\":251:274  balances[_key] = _value */\n      dup5\n      swap1\n      sstore\n        /* \"MappingIteration.sol\":289:295  exists */\n      0x01\n        /* \"MappingIteration.sol\":289:301  exists[_key] */\n      swap1\n      swap2\n      mstore\n      swap1\n      keccak256\n      sload\n      0xff\n      and\n        /* \"MappingIteration.sol\":284:376  if (!exists[_key]) {... */\n      tag_22\n      jumpi\n        /* \"MappingIteration.sol\":317:321  keys */\n      0x02\n        /* \"MappingIteration.sol\":317:332  keys.push(_key) */\n      dup1\n      sload\n      0x01\n      dup1\n      dup3\n      add\n      swap1\n      swap3\n      sstore\n      0x405787fa12a823e0f2b7631cc41b3ba8828b3321ca811111fa75cd3aa3bb5ace\n      add\n      dup1\n      sload\n      not(sub(shl(0xa0, 0x01), 0x01))\n      and\n      sub(shl(0xa0, 0x01), 0x01)\n      dup6\n      and\n      swap1\n      dup2\n      or\n      swap1\n      swap2\n      sstore\n      0x00\n        /* \"MappingIteration.sol\":346:358  exists[_key] */\n      swap1\n      dup2\n      mstore\n        /* \"MappingIteration.sol\":317:332  keys.push(_key) */\n      0x20\n        /* \"MappingIteration.sol\":346:358  exists[_key] */\n      dup3\n      swap1\n      mstore\n      0x40\n      swap1\n      keccak256\n        /* \"MappingIteration.sol\":346:365  exists[_key] = true */\n      dup1\n      sload\n      not(0xff)\n      and\n      swap1\n      swap2\n      or\n      swap1\n      sstore\n        /* \"MappingIteration.sol\":284:376  if (!exists[_key]) {... */\n    tag_22:\n        /* \"MappingIteration.sol\":192:382  function set(address _key, uint _value) external {... */\n      pop\n      pop\n      jump\t// out\n        /* \"MappingIteration.sol\":475:566  function get(uint index) external view returns(address) {... */\n    tag_17:\n        /* \"MappingIteration.sol\":522:529  address */\n      0x00\n        /* \"MappingIteration.sol\":548:552  keys */\n      0x02\n        /* \"MappingIteration.sol\":553:558  index */\n      dup3\n        /* \"MappingIteration.sol\":548:559  keys[index] */\n      dup2\n      sload\n      dup2\n      lt\n      tag_26\n      jumpi\n      tag_26\n      tag_27\n      jump\t// in\n    tag_26:\n      0x00\n      swap2\n      dup3\n      mstore\n      0x20\n      swap1\n      swap2\n      keccak256\n      add\n      sload\n      sub(shl(0xa0, 0x01), 0x01)\n      and\n      swap3\n        /* \"MappingIteration.sol\":475:566  function get(uint index) external view returns(address) {... */\n      swap2\n      pop\n      pop\n      jump\t// out\n        /* \"#utility.yul\":196:550   */\n    tag_12:\n        /* \"#utility.yul\":264:270   */\n      0x00\n        /* \"#utility.yul\":272:278   */\n      dup1\n        /* \"#utility.yul\":325:327   */\n      0x40\n        /* \"#utility.yul\":313:322   */\n      dup4\n        /* \"#utility.yul\":304:311   */\n      dup6\n        /* \"#utility.yul\":300:323   */\n      sub\n        /* \"#utility.yul\":296:328   */\n      slt\n        /* \"#utility.yul\":293:345   */\n      iszero\n      tag_32\n      jumpi\n        /* \"#utility.yul\":341:342   */\n      0x00\n        /* \"#utility.yul\":338:339   */\n      dup1\n        /* \"#utility.yul\":331:343   */\n      revert\n        /* \"#utility.yul\":293:345   */\n    tag_32:\n        /* \"#utility.yul\":367:390   */\n      dup3\n      calldataload\n      sub(shl(0xa0, 0x01), 0x01)\n        /* \"#utility.yul\":419:450   */\n      dup2\n      and\n        /* \"#utility.yul\":409:451   */\n      dup2\n      eq\n        /* \"#utility.yul\":399:469   */\n      tag_33\n      jumpi\n        /* \"#utility.yul\":465:466   */\n      0x00\n        /* \"#utility.yul\":462:463   */\n      dup1\n        /* \"#utility.yul\":455:467   */\n      revert\n        /* \"#utility.yul\":399:469   */\n    tag_33:\n        /* \"#utility.yul\":488:493   */\n      swap5\n        /* \"#utility.yul\":540:542   */\n      0x20\n        /* \"#utility.yul\":525:543   */\n      swap4\n      swap1\n      swap4\n      add\n        /* \"#utility.yul\":512:544   */\n      calldataload\n      swap4\n      pop\n      pop\n      pop\n        /* \"#utility.yul\":196:550   */\n      jump\t// out\n        /* \"#utility.yul\":555:735   */\n    tag_16:\n        /* \"#utility.yul\":614:620   */\n      0x00\n        /* \"#utility.yul\":667:669   */\n      0x20\n        /* \"#utility.yul\":655:664   */\n      dup3\n        /* \"#utility.yul\":646:653   */\n      dup5\n        /* \"#utility.yul\":642:665   */\n      sub\n        /* \"#utility.yul\":638:670   */\n      slt\n        /* \"#utility.yul\":635:687   */\n      iszero\n      tag_35\n      jumpi\n        /* \"#utility.yul\":683:684   */\n      0x00\n        /* \"#utility.yul\":680:681   */\n      dup1\n        /* \"#utility.yul\":673:685   */\n      revert\n        /* \"#utility.yul\":635:687   */\n    tag_35:\n      pop\n        /* \"#utility.yul\":706:729   */\n      calldataload\n      swap2\n        /* \"#utility.yul\":555:735   */\n      swap1\n      pop\n      jump\t// out\n        /* \"#utility.yul\":948:1075   */\n    tag_27:\n        /* \"#utility.yul\":1009:1019   */\n      0x4e487b71\n        /* \"#utility.yul\":1004:1007   */\n      0xe0\n        /* \"#utility.yul\":1000:1020   */\n      shl\n        /* \"#utility.yul\":997:998   */\n      0x00\n        /* \"#utility.yul\":990:1021   */\n      mstore\n        /* \"#utility.yul\":1040:1044   */\n      0x32\n        /* \"#utility.yul\":1037:1038   */\n      0x04\n        /* \"#utility.yul\":1030:1045   */\n      mstore\n        /* \"#utility.yul\":1064:1068   */\n      0x24\n        /* \"#utility.yul\":1061:1062   */\n      0x00\n        /* \"#utility.yul\":1054:1069   */\n      revert\n\n    auxdata: 0xa2646970667358221220f08a5bcf8116ff0c2c5dd55f70627e1013c6d9e2038b4408709cef10eab8259764736f6c63430008100033\n}\n",
				"bytecode": {
					"linkReferences": {},
					"object": "608060405234801561001057600080fd5b506101fc806100206000396000f3fe608060405234801561001057600080fd5b50600436106100415760003560e01c80631f7b6d32146100465780633825d8281461005c5780639507d39a14610071575b600080fd5b6002546040519081526020015b60405180910390f35b61006f61006a36600461015f565b61009c565b005b61008461007f366004610197565b61012f565b6040516001600160a01b039091168152602001610053565b6001600160a01b038216600090815260208181526040808320849055600190915290205460ff1661012b576002805460018082019092557f405787fa12a823e0f2b7631cc41b3ba8828b3321ca811111fa75cd3aa3bb5ace0180546001600160a01b0319166001600160a01b0385169081179091556000908152602082905260409020805460ff191690911790555b5050565b600060028281548110610144576101446101b0565b6000918252602090912001546001600160a01b031692915050565b6000806040838503121561017257600080fd5b82356001600160a01b038116811461018957600080fd5b946020939093013593505050565b6000602082840312156101a957600080fd5b5035919050565b634e487b7160e01b600052603260045260246000fdfea2646970667358221220f08a5bcf8116ff0c2c5dd55f70627e1013c6d9e2038b4408709cef10eab8259764736f6c63430008100033",
					"opcodes": "PUSH1 0x80 PUSH1 0x40 MSTORE CALLVALUE DUP1 ISZERO PUSH2 0x10 JUMPI PUSH1 0x0 DUP1 REVERT JUMPDEST POP PUSH2 0x1FC DUP1 PUSH2 0x20 PUSH1 0x0 CODECOPY PUSH1 0x0 RETURN INVALID PUSH1 0x80 PUSH1 0x40 MSTORE CALLVALUE DUP1 ISZERO PUSH2 0x10 JUMPI PUSH1 0x0 DUP1 REVERT JUMPDEST POP PUSH1 0x4 CALLDATASIZE LT PUSH2 0x41 JUMPI PUSH1 0x0 CALLDATALOAD PUSH1 0xE0 SHR DUP1 PUSH4 0x1F7B6D32 EQ PUSH2 0x46 JUMPI DUP1 PUSH4 0x3825D828 EQ PUSH2 0x5C JUMPI DUP1 PUSH4 0x9507D39A EQ PUSH2 0x71 JUMPI JUMPDEST PUSH1 0x0 DUP1 REVERT JUMPDEST PUSH1 0x2 SLOAD PUSH1 0x40 MLOAD SWAP1 DUP2 MSTORE PUSH1 0x20 ADD JUMPDEST PUSH1 0x40 MLOAD DUP1 SWAP2 SUB SWAP1 RETURN JUMPDEST PUSH2 0x6F PUSH2 0x6A CALLDATASIZE PUSH1 0x4 PUSH2 0x15F JUMP JUMPDEST PUSH2 0x9C JUMP JUMPDEST STOP JUMPDEST PUSH2 0x84 PUSH2 0x7F CALLDATASIZE PUSH1 0x4 PUSH2 0x197 JUMP JUMPDEST PUSH2 0x12F JUMP JUMPDEST PUSH1 0x40 MLOAD PUSH1 0x1 PUSH1 0x1 PUSH1 0xA0 SHL SUB SWAP1 SWAP2 AND DUP2 MSTORE PUSH1 0x20 ADD PUSH2 0x53 JUMP JUMPDEST PUSH1 0x1 PUSH1 0x1 PUSH1 0xA0 SHL SUB DUP3 AND PUSH1 0x0 SWAP1 DUP2 MSTORE PUSH1 0x20 DUP2 DUP2 MSTORE PUSH1 0x40 DUP1 DUP4 KECCAK256 DUP5 SWAP1 SSTORE PUSH1 0x1 SWAP1 SWAP2 MSTORE SWAP1 KECCAK256 SLOAD PUSH1 0xFF AND PUSH2 0x12B JUMPI PUSH1 0x2 DUP1 SLOAD PUSH1 0x1 DUP1 DUP3 ADD SWAP1 SWAP3 SSTORE PUSH32 0x405787FA12A823E0F2B7631CC41B3BA8828B3321CA811111FA75CD3AA3BB5ACE ADD DUP1 SLOAD PUSH1 0x1 PUSH1 0x1 PUSH1 0xA0 SHL SUB NOT AND PUSH1 0x1 PUSH1 0x1 PUSH1 0xA0 SHL SUB DUP6 AND SWAP1 DUP2 OR SWAP1 SWAP2 SSTORE PUSH1 0x0 SWAP1 DUP2 MSTORE PUSH1 0x20 DUP3 SWAP1 MSTORE PUSH1 0x40 SWAP1 KECCAK256 DUP1 SLOAD PUSH1 0xFF NOT AND SWAP1 SWAP2 OR SWAP1 SSTORE JUMPDEST POP POP JUMP JUMPDEST PUSH1 0x0 PUSH1 0x2 DUP3 DUP2 SLOAD DUP2 LT PUSH2 0x144 JUMPI PUSH2 0x144 PUSH2 0x1B0 JUMP JUMPDEST PUSH1 0x0 SWAP2 DUP3 MSTORE PUSH1 0x20 SWAP1 SWAP2 KECCAK256 ADD SLOAD PUSH1 0x1 PUSH1 0x1 PUSH1 0xA0 SHL SUB AND SWAP3 SWAP2 POP POP JUMP JUMPDEST PUSH1 0x0 DUP1 PUSH1 0x40 DUP4 DUP6 SUB SLT ISZERO PUSH2 0x172 JUMPI PUSH1 0x0 DUP1 REVERT JUMPDEST DUP3 CALLDATALOAD PUSH1 0x1 PUSH1 0x1 PUSH1 0xA0 SHL SUB DUP2 AND DUP2 EQ PUSH2 0x189 JUMPI PUSH1 0x0 DUP1 REVERT JUMPDEST SWAP5 PUSH1 0x20 SWAP4 SWAP1 SWAP4 ADD CALLDATALOAD SWAP4 POP POP POP JUMP JUMPDEST PUSH1 0x0 PUSH1 0x20 DUP3 DUP5 SUB SLT ISZERO PUSH2 0x1A9 JUMPI PUSH1 0x0 DUP1 REVERT JUMPDEST POP CALLDATALOAD SWAP2 SWAP1 POP JUMP JUMPDEST PUSH4 0x4E487B71 PUSH1 0xE0 SHL PUSH1 0x0 MSTORE PUSH1 0x32 PUSH1 0x4 MSTORE PUSH1 0x24 PUSH1 0x0 REVERT INVALID LOG2 PUSH5 0x6970667358 0x22 SLT KECCAK256 CREATE DUP11 JUMPDEST 0xCF DUP2 AND SELFDESTRUCT 0xC 0x2C 0x5D 0xD5 0x5F PUSH17 0x627E1013C6D9E2038B4408709CEF10EAB8 0x25 SWAP8 PUSH5 0x736F6C6343 STOP ADDMOD LT STOP CALLER "
				},
				"gasEstimates": {
					"creation": {
						"codeDepositCost": "101600",
						"executionCost": "147",
						"totalCost": "101747"
					},
					"external": {
						"get(uint256)": "4641",
						"length()": "2247",
						"set(address,uint256)": "97457"
					}
				},
				"methodIdentifiers": {
					"get(uint256)": "9507d39a",
					"length()": "1f7b6d32",
					"set(address,uint256)": "3825d828"
				}
			},
			"storageLayout": {
				"storage": [
					{
						"astId": 5,
						"contract": "MappingIteration.sol:MappingIteration",
						"label": "balances",
						"offset": 0,
						"slot": "0",
						"type": "t_mapping(t_address,t_uint256)"
					},
					{
						"astId": 9,
						"contract": "MappingIteration.sol:MappingIteration",
						"label": "exists",
						"offset": 0,
						"slot": "1",
						"type": "t_mapping(t_address,t_bool)"
					},
					{
						"astId": 12,
						"contract": "MappingIteration.sol:MappingIteration",
						"label": "keys",
						"offset": 0,
						"slot": "2",
						"type": "t_array(t_address)dyn_storage"
					}
				],
				"types": {
					"t_address": {
						"encoding": "inplace",
						"label": "address",
						"numberOfBytes": "20"
					},
					"t_array(t_address)dyn_storage": {
						"base": "t_address",
						"encoding": "dynamic_array",
						"label": "address[]",
						"numberOfBytes": "32"
					},
					"t_bool": {
						"encoding": "inplace",
						"label": "bool",
						"numberOfBytes": "1"
					},
					"t_mapping(t_address,t_bool)": {
						"encoding": "mapping",
						"key": "t_address",
						"label": "mapping(address => bool)",
						"numberOfBytes": "32",
						"value": "t_bool"
					},
					"t_mapping(t_address,t_uint256)": {
						"encoding": "mapping",
						"key": "t_address",
						"label": "mapping(address => uint256)",
						"numberOfBytes": "32",
						"value": "t_uint256"
					},
					"t_uint256": {
						"encoding": "inplace",
						"label": "uint256",
						"numberOfBytes": "32"
					}
				}
			},
			"userdoc": {
				"kind": "user",
				"methods": {},
				"version": 1
			}
		}
	}
}