{
	"MappingIteration.sol": {
		"MappingIteration": {
			"abi": [
				{
					"inputs": [],
					"name": "get",
					"outputs": [
						{
							"internalType": "address[]",
							"name": "",
							"type": "address[]"
						}
					],
					"stateMutability": "view",
					"type": "function"
				},
				{
					"inputs": [],
					"name": "length",
					"outputs": [
						{
							"internalType": "uint256",
							"name": "",
							"type": "uint256"
						}
					],
					"stateMutability": "view",
					"type": "function"
				},
				{
					"inputs": [
						{
							"internalType": "address",
							"name": "_key",
							"type": "address"
						},
						{
							"internalType": "uint256",
							"name": "_value",
							"type": "uint256"
						}
					],
					"name": "set",
					"outputs": [],
					"stateMutability": "nonpayable",
					"type": "function"
				}
			],
			"devdoc": {
				"kind": "dev",
				"methods": {},
				"version": 1
			},
			"evm": {
				"assembly": "    /* \"MappingIteration.sol\":63:560  contract MappingIteration {... */\n  mstore(0x40, 0x80)\n  callvalue\n  dup1\n  iszero\n  tag_1\n  jumpi\n  0x00\n  dup1\n  revert\ntag_1:\n  pop\n  dataSize(sub_0)\n  dup1\n  dataOffset(sub_0)\n  0x00\n  codecopy\n  0x00\n  return\nstop\n\nsub_0: assembly {\n        /* \"MappingIteration.sol\":63:560  contract MappingIteration {... */\n      mstore(0x40, 0x80)\n      callvalue\n      dup1\n      iszero\n      tag_1\n      jumpi\n      0x00\n      dup1\n      revert\n    tag_1:\n      pop\n      jumpi(tag_2, lt(calldatasize, 0x04))\n      shr(0xe0, calldataload(0x00))\n      dup1\n      0x1f7b6d32\n      eq\n      tag_3\n      jumpi\n      dup1\n      0x3825d828\n      eq\n      tag_4\n      jumpi\n      dup1\n      0x6d4ce63c\n      eq\n      tag_5\n      jumpi\n    tag_2:\n      0x00\n      dup1\n      revert\n        /* \"MappingIteration.sol\":388:469  function length() external view returns(uint) {... */\n    tag_3:\n        /* \"MappingIteration.sol\":451:455  keys */\n      0x02\n        /* \"MappingIteration.sol\":451:462  keys.length */\n      sload\n        /* \"MappingIteration.sol\":388:469  function length() external view returns(uint) {... */\n      mload(0x40)\n        /* \"#utility.yul\":160:185   */\n      swap1\n      dup2\n      mstore\n        /* \"#utility.yul\":148:150   */\n      0x20\n        /* \"#utility.yul\":133:151   */\n      add\n        /* \"MappingIteration.sol\":388:469  function length() external view returns(uint) {... */\n    tag_8:\n      mload(0x40)\n      dup1\n      swap2\n      sub\n      swap1\n      return\n        /* \"MappingIteration.sol\":192:382  function set(address _key, uint _value) external {... */\n    tag_4:\n      tag_10\n      tag_11\n      calldatasize\n      0x04\n      tag_12\n      jump\t// in\n    tag_11:\n      tag_13\n      jump\t// in\n    tag_10:\n      stop\n        /* \"MappingIteration.sol\":475:558  function get() external view returns(address[] memory) {... */\n    tag_5:\n      tag_14\n      tag_15\n      jump\t// in\n    tag_14:\n      mload(0x40)\n      tag_8\n      swap2\n      swap1\n      tag_17\n      jump\t// in\n        /* \"MappingIteration.sol\":192:382  function set(address _key, uint _value) external {... */\n    tag_13:\n      sub(shl(0xa0, 0x01), 0x01)\n        /* \"MappingIteration.sol\":251:265  balances[_key] */\n      dup3\n      and\n        /* \"MappingIteration.sol\":251:259  balances */\n      0x00\n        /* \"MappingIteration.sol\":251:265  balances[_key] */\n      swap1\n      dup2\n      mstore\n      0x20\n      dup2\n      dup2\n      mstore\n      0x40\n      dup1\n      dup4\n      keccak256\n        /* \"MappingIteration.sol\":251:274  balances[_key] = _value */\n      dup5\n      swap1\n      sstore\n        /* \"MappingIteration.sol\":289:295  exists */\n      0x01\n        /* \"MappingIteration.sol\":289:301  exists[_key] */\n      swap1\n      swap2\n      mstore\n      swap1\n      keccak256\n      sload\n      0xff\n      and\n        /* \"MappingIteration.sol\":284:376  if (!exists[_key]) {... */\n      tag_20\n      jumpi\n        /* \"MappingIteration.sol\":317:321  keys */\n      0x02\n        /* \"MappingIteration.sol\":317:332  keys.push(_key) */\n      dup1\n      sload\n      0x01\n      dup1\n      dup3\n      add\n      swap1\n      swap3\n      sstore\n      0x405787fa12a823e0f2b7631cc41b3ba8828b3321ca811111fa75cd3aa3bb5ace\n      add\n      dup1\n      sload\n      not(sub(shl(0xa0, 0x01), 0x01))\n      and\n      sub(shl(0xa0, 0x01), 0x01)\n      dup6\n      and\n      swap1\n      dup2\n      or\n      swap1\n      swap2\n      sstore\n      0x00\n        /* \"MappingIteration.sol\":346:358  exists[_key] */\n      swap1\n      dup2\n      mstore\n        /* \"MappingIteration.sol\":317:332  keys.push(_key) */\n      0x20\n        /* \"MappingIteration.sol\":346:358  exists[_key] */\n      dup3\n      swap1\n      mstore\n      0x40\n      swap1\n      keccak256\n        /* \"MappingIteration.sol\":346:365  exists[_key] = true */\n      dup1\n      sload\n      not(0xff)\n      and\n      swap1\n      swap2\n      or\n      swap1\n      sstore\n        /* \"MappingIteration.sol\":284:376  if (!exists[_key]) {... */\n    tag_20:\n        /* \"MappingIteration.sol\":192:382  function set(address _key, uint _value) external {... */\n      pop\n      pop\n      jump\t// out\n        /* \"MappingIteration.sol\":475:558  function get() external view returns(address[] memory) {... */\n    tag_15:\n        /* \"MappingIteration.sol\":512:528  address[] memory */\n      0x60\n        /* \"MappingIteration.sol\":547:551  keys */\n      0x02\n        /* \"MappingIteration.sol\":540:551  return keys */\n      dup1\n      sload\n      dup1\n      0x20\n      mul\n      0x20\n      add\n      mload(0x40)\n      swap1\n      dup2\n      add\n      0x40\n      mstore\n      dup1\n      swap3\n      swap2\n      swap1\n      dup2\n      dup2\n      mstore\n      0x20\n      add\n      dup3\n      dup1\n      sload\n      dup1\n      iszero\n      tag_23\n      jumpi\n      0x20\n      mul\n      dup3\n      add\n      swap2\n      swap1\n      0x00\n      mstore\n      keccak256(0x00, 0x20)\n      swap1\n    tag_24:\n      dup2\n      sload\n      sub(shl(0xa0, 0x01), 0x01)\n      and\n      dup2\n      mstore\n      0x01\n      swap1\n      swap2\n      add\n      swap1\n      0x20\n      add\n      dup1\n      dup4\n      gt\n      tag_24\n      jumpi\n    tag_23:\n      pop\n      pop\n      pop\n      pop\n      pop\n      swap1\n      pop\n        /* \"MappingIteration.sol\":475:558  function get() external view returns(address[] memory) {... */\n      swap1\n      jump\t// out\n        /* \"#utility.yul\":196:550   */\n    tag_12:\n        /* \"#utility.yul\":264:270   */\n      0x00\n        /* \"#utility.yul\":272:278   */\n      dup1\n        /* \"#utility.yul\":325:327   */\n      0x40\n        /* \"#utility.yul\":313:322   */\n      dup4\n        /* \"#utility.yul\":304:311   */\n      dup6\n        /* \"#utility.yul\":300:323   */\n      sub\n        /* \"#utility.yul\":296:328   */\n      slt\n        /* \"#utility.yul\":293:345   */\n      iszero\n      tag_28\n      jumpi\n        /* \"#utility.yul\":341:342   */\n      0x00\n        /* \"#utility.yul\":338:339   */\n      dup1\n        /* \"#utility.yul\":331:343   */\n      revert\n        /* \"#utility.yul\":293:345   */\n    tag_28:\n        /* \"#utility.yul\":367:390   */\n      dup3\n      calldataload\n      sub(shl(0xa0, 0x01), 0x01)\n        /* \"#utility.yul\":419:450   */\n      dup2\n      and\n        /* \"#utility.yul\":409:451   */\n      dup2\n      eq\n        /* \"#utility.yul\":399:469   */\n      tag_29\n      jumpi\n        /* \"#utility.yul\":465:466   */\n      0x00\n        /* \"#utility.yul\":462:463   */\n      dup1\n        /* \"#utility.yul\":455:467   */\n      revert\n        /* \"#utility.yul\":399:469   */\n    tag_29:\n        /* \"#utility.yul\":488:493   */\n      swap5\n        /* \"#utility.yul\":540:542   */\n      0x20\n        /* \"#utility.yul\":525:543   */\n      swap4\n      swap1\n      swap4\n      add\n        /* \"#utility.yul\":512:544   */\n      calldataload\n      swap4\n      pop\n      pop\n      pop\n        /* \"#utility.yul\":196:550   */\n      jump\t// out\n        /* \"#utility.yul\":555:1213   */\n    tag_17:\n        /* \"#utility.yul\":726:728   */\n      0x20\n        /* \"#utility.yul\":778:799   */\n      dup1\n      dup3\n      mstore\n        /* \"#utility.yul\":848:861   */\n      dup3\n      mload\n        /* \"#utility.yul\":751:769   */\n      dup3\n      dup3\n      add\n        /* \"#utility.yul\":870:892   */\n      dup2\n      swap1\n      mstore\n        /* \"#utility.yul\":697:701   */\n      0x00\n      swap2\n        /* \"#utility.yul\":726:728   */\n      swap1\n        /* \"#utility.yul\":949:964   */\n      dup5\n      dup3\n      add\n      swap1\n        /* \"#utility.yul\":923:925   */\n      0x40\n        /* \"#utility.yul\":908:926   */\n      dup6\n      add\n      swap1\n        /* \"#utility.yul\":697:701   */\n      dup5\n        /* \"#utility.yul\":992:1187   */\n    tag_31:\n        /* \"#utility.yul\":1006:1012   */\n      dup2\n        /* \"#utility.yul\":1003:1004   */\n      dup2\n        /* \"#utility.yul\":1000:1013   */\n      lt\n        /* \"#utility.yul\":992:1187   */\n      iszero\n      tag_33\n      jumpi\n        /* \"#utility.yul\":1071:1084   */\n      dup4\n      mload\n      sub(shl(0xa0, 0x01), 0x01)\n        /* \"#utility.yul\":1067:1106   */\n      and\n        /* \"#utility.yul\":1055:1107   */\n      dup4\n      mstore\n        /* \"#utility.yul\":1162:1177   */\n      swap3\n      dup5\n      add\n      swap3\n        /* \"#utility.yul\":1127:1139   */\n      swap2\n      dup5\n      add\n      swap2\n        /* \"#utility.yul\":1103:1104   */\n      0x01\n        /* \"#utility.yul\":1021:1030   */\n      add\n        /* \"#utility.yul\":992:1187   */\n      jump(tag_31)\n    tag_33:\n      pop\n        /* \"#utility.yul\":1204:1207   */\n      swap1\n      swap7\n        /* \"#utility.yul\":555:1213   */\n      swap6\n      pop\n      pop\n      pop\n      pop\n      pop\n      pop\n      jump\t// out\n\n    auxdata: 0xa26469706673582212200a6fa43f9bd8238b0f4b1baf7f31c56663512181d09d95f419e5d4697ad2add264736f6c63430008100033\n}\n",
				"bytecode": {
					"linkReferences": {},
					"object": "608060405234801561001057600080fd5b50610236806100206000396000f3fe608060405234801561001057600080fd5b50600436106100415760003560e01c80631f7b6d32146100465780633825d8281461005c5780636d4ce63c14610071575b600080fd5b6002546040519081526020015b60405180910390f35b61006f61006a36600461017b565b610086565b005b610079610119565b60405161005391906101b3565b6001600160a01b038216600090815260208181526040808320849055600190915290205460ff16610115576002805460018082019092557f405787fa12a823e0f2b7631cc41b3ba8828b3321ca811111fa75cd3aa3bb5ace0180546001600160a01b0319166001600160a01b0385169081179091556000908152602082905260409020805460ff191690911790555b5050565b6060600280548060200260200160405190810160405280929190818152602001828054801561017157602002820191906000526020600020905b81546001600160a01b03168152600190910190602001808311610153575b5050505050905090565b6000806040838503121561018e57600080fd5b82356001600160a01b03811681146101a557600080fd5b946020939093013593505050565b6020808252825182820181905260009190848201906040850190845b818110156101f45783516001600160a01b0316835292840192918401916001016101cf565b5090969550505050505056fea26469706673582212200a6fa43f9bd8238b0f4b1baf7f31c56663512181d09d95f419e5d4697ad2add264736f6c63430008100033",
					"opcodes": "PUSH1 0x80 PUSH1 0x40 MSTORE CALLVALUE DUP1 ISZERO PUSH2 0x10 JUMPI PUSH1 0x0 DUP1 REVERT JUMPDEST POP PUSH2 0x236 DUP1 PUSH2 0x20 PUSH1 0x0 CODECOPY PUSH1 0x0 RETURN INVALID PUSH1 0x80 PUSH1 0x40 MSTORE CALLVALUE DUP1 ISZERO PUSH2 0x10 JUMPI PUSH1 0x0 DUP1 REVERT JUMPDEST POP PUSH1 0x4 CALLDATASIZE LT PUSH2 0x41 JUMPI PUSH1 0x0 CALLDATALOAD PUSH1 0xE0 SHR DUP1 PUSH4 0x1F7B6D32 EQ PUSH2 0x46 JUMPI DUP1 PUSH4 0x3825D828 EQ PUSH2 0x5C JUMPI DUP1 PUSH4 0x6D4CE63C EQ PUSH2 0x71 JUMPI JUMPDEST PUSH1 0x0 DUP1 REVERT JUMPDEST PUSH1 0x2 SLOAD PUSH1 0x40 MLOAD SWAP1 DUP2 MSTORE PUSH1 0x20 ADD JUMPDEST PUSH1 0x40 MLOAD DUP1 SWAP2 SUB SWAP1 RETURN JUMPDEST PUSH2 0x6F PUSH2 0x6A CALLDATASIZE PUSH1 0x4 PUSH2 0x17B JUMP JUMPDEST PUSH2 0x86 JUMP JUMPDEST STOP JUMPDEST PUSH2 0x79 PUSH2 0x119 JUMP JUMPDEST PUSH1 0x40 MLOAD PUSH2 0x53 SWAP2 SWAP1 PUSH2 0x1B3 JUMP JUMPDEST PUSH1 0x1 PUSH1 0x1 PUSH1 0xA0 SHL SUB DUP3 AND PUSH1 0x0 SWAP1 DUP2 MSTORE PUSH1 0x20 DUP2 DUP2 MSTORE PUSH1 0x40 DUP1 DUP4 KECCAK256 DUP5 SWAP1 SSTORE PUSH1 0x1 SWAP1 SWAP2 MSTORE SWAP1 KECCAK256 SLOAD PUSH1 0xFF AND PUSH2 0x115 JUMPI PUSH1 0x2 DUP1 SLOAD PUSH1 0x1 DUP1 DUP3 ADD SWAP1 SWAP3 SSTORE PUSH32 0x405787FA12A823E0F2B7631CC41B3BA8828B3321CA811111FA75CD3AA3BB5ACE ADD DUP1 SLOAD PUSH1 0x1 PUSH1 0x1 PUSH1 0xA0 SHL SUB NOT AND PUSH1 0x1 PUSH1 0x1 PUSH1 0xA0 SHL SUB DUP6 AND SWAP1 DUP2 OR SWAP1 SWAP2 SSTORE PUSH1 0x0 SWAP1 DUP2 MSTORE PUSH1 0x20 DUP3 SWAP1 MSTORE PUSH1 0x40 SWAP1 KECCAK256 DUP1 SLOAD PUSH1 0xFF NOT AND SWAP1 SWAP2 OR SWAP1 SSTORE JUMPDEST POP POP JUMP JUMPDEST PUSH1 0x60 PUSH1 0x2 DUP1 SLOAD DUP1 PUSH1 0x20 MUL PUSH1 0x20 ADD PUSH1 0x40 MLOAD SWAP1 DUP2 ADD PUSH1 0x40 MSTORE DUP1 SWAP3 SWAP2 SWAP1 DUP2 DUP2 MSTORE PUSH1 0x20 ADD DUP3 DUP1 SLOAD DUP1 ISZERO PUSH2 0x171 JUMPI PUSH1 0x20 MUL DUP3 ADD SWAP2 SWAP1 PUSH1 0x0 MSTORE PUSH1 0x20 PUSH1 0x0 KECCAK256 SWAP1 JUMPDEST DUP2 SLOAD PUSH1 0x1 PUSH1 0x1 PUSH1 0xA0 SHL SUB AND DUP2 MSTORE PUSH1 0x1 SWAP1 SWAP2 ADD SWAP1 PUSH1 0x20 ADD DUP1 DUP4 GT PUSH2 0x153 JUMPI JUMPDEST POP POP POP POP POP SWAP1 POP SWAP1 JUMP JUMPDEST PUSH1 0x0 DUP1 PUSH1 0x40 DUP4 DUP6 SUB SLT ISZERO PUSH2 0x18E JUMPI PUSH1 0x0 DUP1 REVERT JUMPDEST DUP3 CALLDATALOAD PUSH1 0x1 PUSH1 0x1 PUSH1 0xA0 SHL SUB DUP2 AND DUP2 EQ PUSH2 0x1A5 JUMPI PUSH1 0x0 DUP1 REVERT JUMPDEST SWAP5 PUSH1 0x20 SWAP4 SWAP1 SWAP4 ADD CALLDATALOAD SWAP4 POP POP POP JUMP JUMPDEST PUSH1 0x20 DUP1 DUP3 MSTORE DUP3 MLOAD DUP3 DUP3 ADD DUP2 SWAP1 MSTORE PUSH1 0x0 SWAP2 SWAP1 DUP5 DUP3 ADD SWAP1 PUSH1 0x40 DUP6 ADD SWAP1 DUP5 JUMPDEST DUP2 DUP2 LT ISZERO PUSH2 0x1F4 JUMPI DUP4 MLOAD PUSH1 0x1 PUSH1 0x1 PUSH1 0xA0 SHL SUB AND DUP4 MSTORE SWAP3 DUP5 ADD SWAP3 SWAP2 DUP5 ADD SWAP2 PUSH1 0x1 ADD PUSH2 0x1CF JUMP JUMPDEST POP SWAP1 SWAP7 SWAP6 POP POP POP POP POP POP JUMP INVALID LOG2 PUSH5 0x6970667358 0x22 SLT KECCAK256 EXP PUSH16 0xA43F9BD8238B0F4B1BAF7F31C5666351 0x21 DUP2 0xD0 SWAP14 SWAP6 DELEGATECALL NOT 0xE5 0xD4 PUSH10 0x7AD2ADD264736F6C6343 STOP ADDMOD LT STOP CALLER "
				},
				"gasEstimates": {
					"creation": {
						"codeDepositCost": "113200",
						"executionCost": "159",
						"totalCost": "113359"
					},
					"external": {
						"get()": "infinite",
						"length()": "2247",
						"set(address,uint256)": "97457"
					}
				},
				"methodIdentifiers": {
					"get()": "6d4ce63c",
					"length()": "1f7b6d32",
					"set(address,uint256)": "3825d828"
				}
			},
			"storageLayout": {
				"storage": [
					{
						"astId": 5,
						"contract": "MappingIteration.sol:MappingIteration",
						"label": "balances",
						"offset": 0,
						"slot": "0",
						"type": "t_mapping(t_address,t_uint256)"
					},
					{
						"astId": 9,
						"contract": "MappingIteration.sol:MappingIteration",
						"label": "exists",
						"offset": 0,
						"slot": "1",
						"type": "t_mapping(t_address,t_bool)"
					},
					{
						"astId": 12,
						"contract": "MappingIteration.sol:MappingIteration",
						"label": "keys",
						"offset": 0,
						"slot": "2",
						"type": "t_array(t_address)dyn_storage"
					}
				],
				"types": {
					"t_address": {
						"encoding": "inplace",
						"label": "address",
						"numberOfBytes": "20"
					},
					"t_array(t_address)dyn_storage": {
						"base": "t_address",
						"encoding": "dynamic_array",
						"label": "address[]",
						"numberOfBytes": "32"
					},
					"t_bool": {
						"encoding": "inplace",
						"label": "bool",
						"numberOfBytes": "1"
					},
					"t_mapping(t_address,t_bool)": {
						"encoding": "mapping",
						"key": "t_address",
						"label": "mapping(address => bool)",
						"numberOfBytes": "32",
						"value": "t_bool"
					},
					"t_mapping(t_address,t_uint256)": {
						"encoding": "mapping",
						"key": "t_address",
						"label": "mapping(address => uint256)",
						"numberOfBytes": "32",
						"value": "t_uint256"
					},
					"t_uint256": {
						"encoding": "inplace",
						"label": "uint256",
						"numberOfBytes": "32"
					}
				}
			},
			"userdoc": {
				"kind": "user",
				"methods": {},
				"version": 1
			}
		}
	}
}