{
	"SimpleStorage.sol": {
		"MappingIteration": {
			"abi": [
				{
					"inputs": [
						{
							"internalType": "string",
							"name": "_text",
							"type": "string"
						}
					],
					"name": "set",
					"outputs": [],
					"stateMutability": "nonpayable",
					"type": "function"
				}
			],
			"devdoc": {
				"kind": "dev",
				"methods": {},
				"version": 1
			},
			"evm": {
				"assembly": "    /* \"SimpleStorage.sol\":63:189  contract MappingIteration {... */\n  mstore(0x40, 0x80)\n  callvalue\n  dup1\n  iszero\n  tag_1\n  jumpi\n  0x00\n  dup1\n  revert\ntag_1:\n  pop\n  dataSize(sub_0)\n  dup1\n  dataOffset(sub_0)\n  0x00\n  codecopy\n  0x00\n  return\nstop\n\nsub_0: assembly {\n        /* \"SimpleStorage.sol\":63:189  contract MappingIteration {... */\n      mstore(0x40, 0x80)\n      callvalue\n      dup1\n      iszero\n      tag_1\n      jumpi\n      0x00\n      dup1\n      revert\n    tag_1:\n      pop\n      jumpi(tag_2, lt(calldatasize, 0x04))\n      shr(0xe0, calldataload(0x00))\n      dup1\n      0x4ed3885e\n      eq\n      tag_3\n      jumpi\n    tag_2:\n      0x00\n      dup1\n      revert\n        /* \"SimpleStorage.sol\":113:187  function set(string calldata _text) external {... */\n    tag_3:\n      tag_4\n      tag_5\n      calldatasize\n      0x04\n      tag_6\n      jump\t// in\n    tag_5:\n      tag_7\n      jump\t// in\n    tag_4:\n      stop\n    tag_7:\n        /* \"SimpleStorage.sol\":168:172  text */\n      0x00\n        /* \"SimpleStorage.sol\":168:180  text = _text */\n      tag_9\n        /* \"SimpleStorage.sol\":175:180  _text */\n      dup3\n      dup5\n        /* \"SimpleStorage.sol\":168:172  text */\n      dup4\n        /* \"SimpleStorage.sol\":168:180  text = _text */\n      tag_10\n      jump\t// in\n    tag_9:\n      pop\n        /* \"SimpleStorage.sol\":113:187  function set(string calldata _text) external {... */\n      pop\n      pop\n      jump\t// out\n        /* \"#utility.yul\":14:606   */\n    tag_6:\n        /* \"#utility.yul\":85:91   */\n      0x00\n        /* \"#utility.yul\":93:99   */\n      dup1\n        /* \"#utility.yul\":146:148   */\n      0x20\n        /* \"#utility.yul\":134:143   */\n      dup4\n        /* \"#utility.yul\":125:132   */\n      dup6\n        /* \"#utility.yul\":121:144   */\n      sub\n        /* \"#utility.yul\":117:149   */\n      slt\n        /* \"#utility.yul\":114:166   */\n      iszero\n      tag_18\n      jumpi\n        /* \"#utility.yul\":162:163   */\n      0x00\n        /* \"#utility.yul\":159:160   */\n      dup1\n        /* \"#utility.yul\":152:164   */\n      revert\n        /* \"#utility.yul\":114:166   */\n    tag_18:\n        /* \"#utility.yul\":202:211   */\n      dup3\n        /* \"#utility.yul\":189:212   */\n      calldataload\n        /* \"#utility.yul\":231:249   */\n      0xffffffffffffffff\n        /* \"#utility.yul\":272:274   */\n      dup1\n        /* \"#utility.yul\":264:270   */\n      dup3\n        /* \"#utility.yul\":261:275   */\n      gt\n        /* \"#utility.yul\":258:292   */\n      iszero\n      tag_19\n      jumpi\n        /* \"#utility.yul\":288:289   */\n      0x00\n        /* \"#utility.yul\":285:286   */\n      dup1\n        /* \"#utility.yul\":278:290   */\n      revert\n        /* \"#utility.yul\":258:292   */\n    tag_19:\n        /* \"#utility.yul\":326:332   */\n      dup2\n        /* \"#utility.yul\":315:324   */\n      dup6\n        /* \"#utility.yul\":311:333   */\n      add\n        /* \"#utility.yul\":301:333   */\n      swap2\n      pop\n        /* \"#utility.yul\":371:378   */\n      dup6\n        /* \"#utility.yul\":364:368   */\n      0x1f\n        /* \"#utility.yul\":360:362   */\n      dup4\n        /* \"#utility.yul\":356:369   */\n      add\n        /* \"#utility.yul\":352:379   */\n      slt\n        /* \"#utility.yul\":342:397   */\n      tag_20\n      jumpi\n        /* \"#utility.yul\":393:394   */\n      0x00\n        /* \"#utility.yul\":390:391   */\n      dup1\n        /* \"#utility.yul\":383:395   */\n      revert\n        /* \"#utility.yul\":342:397   */\n    tag_20:\n        /* \"#utility.yul\":433:435   */\n      dup2\n        /* \"#utility.yul\":420:436   */\n      calldataload\n        /* \"#utility.yul\":459:461   */\n      dup2\n        /* \"#utility.yul\":451:457   */\n      dup2\n        /* \"#utility.yul\":448:462   */\n      gt\n        /* \"#utility.yul\":445:479   */\n      iszero\n      tag_21\n      jumpi\n        /* \"#utility.yul\":475:476   */\n      0x00\n        /* \"#utility.yul\":472:473   */\n      dup1\n        /* \"#utility.yul\":465:477   */\n      revert\n        /* \"#utility.yul\":445:479   */\n    tag_21:\n        /* \"#utility.yul\":520:527   */\n      dup7\n        /* \"#utility.yul\":515:517   */\n      0x20\n        /* \"#utility.yul\":506:512   */\n      dup3\n        /* \"#utility.yul\":502:504   */\n      dup6\n        /* \"#utility.yul\":498:513   */\n      add\n        /* \"#utility.yul\":494:518   */\n      add\n        /* \"#utility.yul\":491:528   */\n      gt\n        /* \"#utility.yul\":488:545   */\n      iszero\n      tag_22\n      jumpi\n        /* \"#utility.yul\":541:542   */\n      0x00\n        /* \"#utility.yul\":538:539   */\n      dup1\n        /* \"#utility.yul\":531:543   */\n      revert\n        /* \"#utility.yul\":488:545   */\n    tag_22:\n        /* \"#utility.yul\":572:574   */\n      0x20\n        /* \"#utility.yul\":564:575   */\n      swap3\n      swap1\n      swap3\n      add\n      swap7\n        /* \"#utility.yul\":594:600   */\n      swap2\n      swap6\n      pop\n        /* \"#utility.yul\":14:606   */\n      swap1\n      swap4\n      pop\n      pop\n      pop\n      pop\n      jump\t// out\n        /* \"#utility.yul\":611:738   */\n    tag_11:\n        /* \"#utility.yul\":672:682   */\n      0x4e487b71\n        /* \"#utility.yul\":667:670   */\n      0xe0\n        /* \"#utility.yul\":663:683   */\n      shl\n        /* \"#utility.yul\":660:661   */\n      0x00\n        /* \"#utility.yul\":653:684   */\n      mstore\n        /* \"#utility.yul\":703:707   */\n      0x41\n        /* \"#utility.yul\":700:701   */\n      0x04\n        /* \"#utility.yul\":693:708   */\n      mstore\n        /* \"#utility.yul\":727:731   */\n      0x24\n        /* \"#utility.yul\":724:725   */\n      0x00\n        /* \"#utility.yul\":717:732   */\n      revert\n        /* \"#utility.yul\":743:1123   */\n    tag_12:\n        /* \"#utility.yul\":822:823   */\n      0x01\n        /* \"#utility.yul\":818:830   */\n      dup2\n      dup2\n      shr\n      swap1\n        /* \"#utility.yul\":865:877   */\n      dup3\n      and\n      dup1\n        /* \"#utility.yul\":886:947   */\n      tag_25\n      jumpi\n        /* \"#utility.yul\":940:944   */\n      0x7f\n        /* \"#utility.yul\":932:938   */\n      dup3\n        /* \"#utility.yul\":928:945   */\n      and\n        /* \"#utility.yul\":918:945   */\n      swap2\n      pop\n        /* \"#utility.yul\":886:947   */\n    tag_25:\n        /* \"#utility.yul\":993:995   */\n      0x20\n        /* \"#utility.yul\":985:991   */\n      dup3\n        /* \"#utility.yul\":982:996   */\n      lt\n        /* \"#utility.yul\":962:980   */\n      dup2\n        /* \"#utility.yul\":959:997   */\n      sub\n        /* \"#utility.yul\":956:1117   */\n      tag_26\n      jumpi\n        /* \"#utility.yul\":1039:1049   */\n      0x4e487b71\n        /* \"#utility.yul\":1034:1037   */\n      0xe0\n        /* \"#utility.yul\":1030:1050   */\n      shl\n        /* \"#utility.yul\":1027:1028   */\n      0x00\n        /* \"#utility.yul\":1020:1051   */\n      mstore\n        /* \"#utility.yul\":1074:1078   */\n      0x22\n        /* \"#utility.yul\":1071:1072   */\n      0x04\n        /* \"#utility.yul\":1064:1079   */\n      mstore\n        /* \"#utility.yul\":1102:1106   */\n      0x24\n        /* \"#utility.yul\":1099:1100   */\n      0x00\n        /* \"#utility.yul\":1092:1107   */\n      revert\n        /* \"#utility.yul\":956:1117   */\n    tag_26:\n      pop\n        /* \"#utility.yul\":743:1123   */\n      swap2\n      swap1\n      pop\n      jump\t// out\n        /* \"#utility.yul\":1254:1799   */\n    tag_14:\n        /* \"#utility.yul\":1356:1358   */\n      0x1f\n        /* \"#utility.yul\":1351:1354   */\n      dup3\n        /* \"#utility.yul\":1348:1359   */\n      gt\n        /* \"#utility.yul\":1345:1793   */\n      iszero\n      tag_9\n      jumpi\n        /* \"#utility.yul\":1392:1393   */\n      0x00\n        /* \"#utility.yul\":1417:1422   */\n      dup2\n        /* \"#utility.yul\":1413:1415   */\n      dup2\n        /* \"#utility.yul\":1406:1423   */\n      mstore\n        /* \"#utility.yul\":1462:1466   */\n      0x20\n        /* \"#utility.yul\":1458:1460   */\n      dup2\n        /* \"#utility.yul\":1448:1467   */\n      keccak256\n        /* \"#utility.yul\":1532:1534   */\n      0x1f\n        /* \"#utility.yul\":1520:1530   */\n      dup6\n        /* \"#utility.yul\":1516:1535   */\n      add\n        /* \"#utility.yul\":1513:1514   */\n      0x05\n        /* \"#utility.yul\":1509:1536   */\n      shr\n        /* \"#utility.yul\":1503:1507   */\n      dup2\n        /* \"#utility.yul\":1499:1537   */\n      add\n        /* \"#utility.yul\":1568:1572   */\n      0x20\n        /* \"#utility.yul\":1556:1566   */\n      dup7\n        /* \"#utility.yul\":1553:1573   */\n      lt\n        /* \"#utility.yul\":1550:1597   */\n      iszero\n      tag_30\n      jumpi\n      pop\n        /* \"#utility.yul\":1591:1595   */\n      dup1\n        /* \"#utility.yul\":1550:1597   */\n    tag_30:\n        /* \"#utility.yul\":1646:1648   */\n      0x1f\n        /* \"#utility.yul\":1641:1644   */\n      dup6\n        /* \"#utility.yul\":1637:1649   */\n      add\n        /* \"#utility.yul\":1634:1635   */\n      0x05\n        /* \"#utility.yul\":1630:1650   */\n      shr\n        /* \"#utility.yul\":1624:1628   */\n      dup3\n        /* \"#utility.yul\":1620:1651   */\n      add\n        /* \"#utility.yul\":1610:1651   */\n      swap2\n      pop\n        /* \"#utility.yul\":1701:1783   */\n    tag_31:\n        /* \"#utility.yul\":1719:1721   */\n      dup2\n        /* \"#utility.yul\":1712:1717   */\n      dup2\n        /* \"#utility.yul\":1709:1722   */\n      lt\n        /* \"#utility.yul\":1701:1783   */\n      iszero\n      tag_33\n      jumpi\n        /* \"#utility.yul\":1764:1781   */\n      dup3\n      dup2\n      sstore\n        /* \"#utility.yul\":1745:1746   */\n      0x01\n        /* \"#utility.yul\":1734:1747   */\n      add\n        /* \"#utility.yul\":1701:1783   */\n      jump(tag_31)\n    tag_33:\n        /* \"#utility.yul\":1705:1708   */\n      pop\n      pop\n      pop\n        /* \"#utility.yul\":1254:1799   */\n      pop\n      pop\n      pop\n      jump\t// out\n        /* \"#utility.yul\":1975:3181   */\n    tag_10:\n        /* \"#utility.yul\":2099:2117   */\n      0xffffffffffffffff\n        /* \"#utility.yul\":2094:2097   */\n      dup4\n        /* \"#utility.yul\":2091:2118   */\n      gt\n        /* \"#utility.yul\":2088:2141   */\n      iszero\n      tag_37\n      jumpi\n        /* \"#utility.yul\":2121:2139   */\n      tag_37\n      tag_11\n      jump\t// in\n    tag_37:\n        /* \"#utility.yul\":2150:2244   */\n      tag_38\n        /* \"#utility.yul\":2240:2243   */\n      dup4\n        /* \"#utility.yul\":2200:2238   */\n      tag_39\n        /* \"#utility.yul\":2232:2236   */\n      dup4\n        /* \"#utility.yul\":2226:2237   */\n      sload\n        /* \"#utility.yul\":2200:2238   */\n      tag_12\n      jump\t// in\n    tag_39:\n        /* \"#utility.yul\":2194:2198   */\n      dup4\n        /* \"#utility.yul\":2150:2244   */\n      tag_14\n      jump\t// in\n    tag_38:\n        /* \"#utility.yul\":2270:2271   */\n      0x00\n        /* \"#utility.yul\":2295:2297   */\n      0x1f\n        /* \"#utility.yul\":2290:2293   */\n      dup5\n        /* \"#utility.yul\":2287:2298   */\n      gt\n        /* \"#utility.yul\":2312:2313   */\n      0x01\n        /* \"#utility.yul\":2307:2923   */\n      dup2\n      eq\n      tag_41\n      jumpi\n        /* \"#utility.yul\":2967:2968   */\n      0x00\n        /* \"#utility.yul\":2984:2987   */\n      dup6\n        /* \"#utility.yul\":2981:3074   */\n      iszero\n      tag_42\n      jumpi\n      pop\n        /* \"#utility.yul\":3040:3059   */\n      dup4\n      dup3\n      add\n        /* \"#utility.yul\":3027:3060   */\n      calldataload\n        /* \"#utility.yul\":2981:3074   */\n    tag_42:\n      not(0x00)\n        /* \"#utility.yul\":1932:1933   */\n      0x03\n        /* \"#utility.yul\":1928:1939   */\n      dup8\n      swap1\n      shl\n        /* \"#utility.yul\":1924:1948   */\n      shr\n        /* \"#utility.yul\":1920:1949   */\n      not\n        /* \"#utility.yul\":1910:1950   */\n      and\n        /* \"#utility.yul\":1956:1957   */\n      0x01\n        /* \"#utility.yul\":1952:1963   */\n      dup7\n      swap1\n      shl\n        /* \"#utility.yul\":1907:1964   */\n      or\n        /* \"#utility.yul\":3087:3165   */\n      dup4\n      sstore\n        /* \"#utility.yul\":2280:3175   */\n      jump(tag_40)\n        /* \"#utility.yul\":2307:2923   */\n    tag_41:\n        /* \"#utility.yul\":1201:1202   */\n      0x00\n        /* \"#utility.yul\":1194:1208   */\n      dup4\n      dup2\n      mstore\n        /* \"#utility.yul\":1238:1242   */\n      0x20\n        /* \"#utility.yul\":1225:1243   */\n      swap1\n      keccak256\n      not(0x1f)\n        /* \"#utility.yul\":2343:2360   */\n      dup7\n      and\n      swap1\n        /* \"#utility.yul\":2444:2453   */\n      dup4\n        /* \"#utility.yul\":2466:2695   */\n    tag_45:\n        /* \"#utility.yul\":2480:2487   */\n      dup3\n        /* \"#utility.yul\":2477:2478   */\n      dup2\n        /* \"#utility.yul\":2474:2488   */\n      lt\n        /* \"#utility.yul\":2466:2695   */\n      iszero\n      tag_47\n      jumpi\n        /* \"#utility.yul\":2569:2588   */\n      dup7\n      dup6\n      add\n        /* \"#utility.yul\":2556:2589   */\n      calldataload\n        /* \"#utility.yul\":2541:2590   */\n      dup3\n      sstore\n        /* \"#utility.yul\":2676:2680   */\n      0x20\n        /* \"#utility.yul\":2661:2681   */\n      swap5\n      dup6\n      add\n      swap5\n        /* \"#utility.yul\":2629:2630   */\n      0x01\n        /* \"#utility.yul\":2617:2631   */\n      swap1\n      swap3\n      add\n      swap2\n        /* \"#utility.yul\":2496:2508   */\n      add\n        /* \"#utility.yul\":2466:2695   */\n      jump(tag_45)\n    tag_47:\n        /* \"#utility.yul\":2470:2473   */\n      pop\n        /* \"#utility.yul\":2723:2726   */\n      dup7\n        /* \"#utility.yul\":2714:2721   */\n      dup3\n        /* \"#utility.yul\":2711:2727   */\n      lt\n        /* \"#utility.yul\":2708:2867   */\n      iszero\n      tag_48\n      jumpi\n        /* \"#utility.yul\":2847:2848   */\n      0x00\n        /* \"#utility.yul\":2843:2849   */\n      not\n        /* \"#utility.yul\":2837:2840   */\n      0xf8\n        /* \"#utility.yul\":2831:2834   */\n      dup9\n        /* \"#utility.yul\":2828:2829   */\n      0x03\n        /* \"#utility.yul\":2824:2835   */\n      shl\n        /* \"#utility.yul\":2820:2841   */\n      and\n        /* \"#utility.yul\":2816:2850   */\n      shr\n        /* \"#utility.yul\":2812:2851   */\n      not\n        /* \"#utility.yul\":2799:2808   */\n      dup5\n        /* \"#utility.yul\":2794:2797   */\n      dup8\n        /* \"#utility.yul\":2790:2809   */\n      add\n        /* \"#utility.yul\":2777:2810   */\n      calldataload\n        /* \"#utility.yul\":2773:2852   */\n      and\n        /* \"#utility.yul\":2765:2771   */\n      dup2\n        /* \"#utility.yul\":2758:2853   */\n      sstore\n        /* \"#utility.yul\":2708:2867   */\n    tag_48:\n      pop\n      pop\n        /* \"#utility.yul\":2910:2911   */\n      0x01\n        /* \"#utility.yul\":2904:2907   */\n      dup6\n        /* \"#utility.yul\":2901:2902   */\n      0x01\n        /* \"#utility.yul\":2897:2908   */\n      shl\n        /* \"#utility.yul\":2893:2912   */\n      add\n        /* \"#utility.yul\":2887:2891   */\n      dup4\n        /* \"#utility.yul\":2880:2913   */\n      sstore\n        /* \"#utility.yul\":2280:3175   */\n    tag_40:\n      pop\n      pop\n        /* \"#utility.yul\":1975:3181   */\n      pop\n      pop\n      pop\n      jump\t// out\n\n    auxdata: 0xa2646970667358221220f11df3dd0cc344586be05cb5308ab8cd7eaa5201527e0b6e2fa5dadcffb115ce64736f6c63430008100033\n}\n",
				"bytecode": {
					"linkReferences": {},
					"object": "608060405234801561001057600080fd5b5061025e806100206000396000f3fe608060405234801561001057600080fd5b506004361061002b5760003560e01c80634ed3885e14610030575b600080fd5b61004361003e366004610057565b610045565b005b6000610052828483610167565b505050565b6000806020838503121561006a57600080fd5b823567ffffffffffffffff8082111561008257600080fd5b818501915085601f83011261009657600080fd5b8135818111156100a557600080fd5b8660208285010111156100b757600080fd5b60209290920196919550909350505050565b634e487b7160e01b600052604160045260246000fd5b600181811c908216806100f357607f821691505b60208210810361011357634e487b7160e01b600052602260045260246000fd5b50919050565b601f82111561005257600081815260208120601f850160051c810160208610156101405750805b601f850160051c820191505b8181101561015f5782815560010161014c565b505050505050565b67ffffffffffffffff83111561017f5761017f6100c9565b6101938361018d83546100df565b83610119565b6000601f8411600181146101c757600085156101af5750838201355b600019600387901b1c1916600186901b178355610221565b600083815260209020601f19861690835b828110156101f857868501358255602094850194600190920191016101d8565b50868210156102155760001960f88860031b161c19848701351681555b505060018560011b0183555b505050505056fea2646970667358221220f11df3dd0cc344586be05cb5308ab8cd7eaa5201527e0b6e2fa5dadcffb115ce64736f6c63430008100033",
					"opcodes": "PUSH1 0x80 PUSH1 0x40 MSTORE CALLVALUE DUP1 ISZERO PUSH2 0x10 JUMPI PUSH1 0x0 DUP1 REVERT JUMPDEST POP PUSH2 0x25E DUP1 PUSH2 0x20 PUSH1 0x0 CODECOPY PUSH1 0x0 RETURN INVALID PUSH1 0x80 PUSH1 0x40 MSTORE CALLVALUE DUP1 ISZERO PUSH2 0x10 JUMPI PUSH1 0x0 DUP1 REVERT JUMPDEST POP PUSH1 0x4 CALLDATASIZE LT PUSH2 0x2B JUMPI PUSH1 0x0 CALLDATALOAD PUSH1 0xE0 SHR DUP1 PUSH4 0x4ED3885E EQ PUSH2 0x30 JUMPI JUMPDEST PUSH1 0x0 DUP1 REVERT JUMPDEST PUSH2 0x43 PUSH2 0x3E CALLDATASIZE PUSH1 0x4 PUSH2 0x57 JUMP JUMPDEST PUSH2 0x45 JUMP JUMPDEST STOP JUMPDEST PUSH1 0x0 PUSH2 0x52 DUP3 DUP5 DUP4 PUSH2 0x167 JUMP JUMPDEST POP POP POP JUMP JUMPDEST PUSH1 0x0 DUP1 PUSH1 0x20 DUP4 DUP6 SUB SLT ISZERO PUSH2 0x6A JUMPI PUSH1 0x0 DUP1 REVERT JUMPDEST DUP3 CALLDATALOAD PUSH8 0xFFFFFFFFFFFFFFFF DUP1 DUP3 GT ISZERO PUSH2 0x82 JUMPI PUSH1 0x0 DUP1 REVERT JUMPDEST DUP2 DUP6 ADD SWAP2 POP DUP6 PUSH1 0x1F DUP4 ADD SLT PUSH2 0x96 JUMPI PUSH1 0x0 DUP1 REVERT JUMPDEST DUP2 CALLDATALOAD DUP2 DUP2 GT ISZERO PUSH2 0xA5 JUMPI PUSH1 0x0 DUP1 REVERT JUMPDEST DUP7 PUSH1 0x20 DUP3 DUP6 ADD ADD GT ISZERO PUSH2 0xB7 JUMPI PUSH1 0x0 DUP1 REVERT JUMPDEST PUSH1 0x20 SWAP3 SWAP1 SWAP3 ADD SWAP7 SWAP2 SWAP6 POP SWAP1 SWAP4 POP POP POP POP JUMP JUMPDEST PUSH4 0x4E487B71 PUSH1 0xE0 SHL PUSH1 0x0 MSTORE PUSH1 0x41 PUSH1 0x4 MSTORE PUSH1 0x24 PUSH1 0x0 REVERT JUMPDEST PUSH1 0x1 DUP2 DUP2 SHR SWAP1 DUP3 AND DUP1 PUSH2 0xF3 JUMPI PUSH1 0x7F DUP3 AND SWAP2 POP JUMPDEST PUSH1 0x20 DUP3 LT DUP2 SUB PUSH2 0x113 JUMPI PUSH4 0x4E487B71 PUSH1 0xE0 SHL PUSH1 0x0 MSTORE PUSH1 0x22 PUSH1 0x4 MSTORE PUSH1 0x24 PUSH1 0x0 REVERT JUMPDEST POP SWAP2 SWAP1 POP JUMP JUMPDEST PUSH1 0x1F DUP3 GT ISZERO PUSH2 0x52 JUMPI PUSH1 0x0 DUP2 DUP2 MSTORE PUSH1 0x20 DUP2 KECCAK256 PUSH1 0x1F DUP6 ADD PUSH1 0x5 SHR DUP2 ADD PUSH1 0x20 DUP7 LT ISZERO PUSH2 0x140 JUMPI POP DUP1 JUMPDEST PUSH1 0x1F DUP6 ADD PUSH1 0x5 SHR DUP3 ADD SWAP2 POP JUMPDEST DUP2 DUP2 LT ISZERO PUSH2 0x15F JUMPI DUP3 DUP2 SSTORE PUSH1 0x1 ADD PUSH2 0x14C JUMP JUMPDEST POP POP POP POP POP POP JUMP JUMPDEST PUSH8 0xFFFFFFFFFFFFFFFF DUP4 GT ISZERO PUSH2 0x17F JUMPI PUSH2 0x17F PUSH2 0xC9 JUMP JUMPDEST PUSH2 0x193 DUP4 PUSH2 0x18D DUP4 SLOAD PUSH2 0xDF JUMP JUMPDEST DUP4 PUSH2 0x119 JUMP JUMPDEST PUSH1 0x0 PUSH1 0x1F DUP5 GT PUSH1 0x1 DUP2 EQ PUSH2 0x1C7 JUMPI PUSH1 0x0 DUP6 ISZERO PUSH2 0x1AF JUMPI POP DUP4 DUP3 ADD CALLDATALOAD JUMPDEST PUSH1 0x0 NOT PUSH1 0x3 DUP8 SWAP1 SHL SHR NOT AND PUSH1 0x1 DUP7 SWAP1 SHL OR DUP4 SSTORE PUSH2 0x221 JUMP JUMPDEST PUSH1 0x0 DUP4 DUP2 MSTORE PUSH1 0x20 SWAP1 KECCAK256 PUSH1 0x1F NOT DUP7 AND SWAP1 DUP4 JUMPDEST DUP3 DUP2 LT ISZERO PUSH2 0x1F8 JUMPI DUP7 DUP6 ADD CALLDATALOAD DUP3 SSTORE PUSH1 0x20 SWAP5 DUP6 ADD SWAP5 PUSH1 0x1 SWAP1 SWAP3 ADD SWAP2 ADD PUSH2 0x1D8 JUMP JUMPDEST POP DUP7 DUP3 LT ISZERO PUSH2 0x215 JUMPI PUSH1 0x0 NOT PUSH1 0xF8 DUP9 PUSH1 0x3 SHL AND SHR NOT DUP5 DUP8 ADD CALLDATALOAD AND DUP2 SSTORE JUMPDEST POP POP PUSH1 0x1 DUP6 PUSH1 0x1 SHL ADD DUP4 SSTORE JUMPDEST POP POP POP POP POP JUMP INVALID LOG2 PUSH5 0x6970667358 0x22 SLT KECCAK256 CALL SAR RETURN 0xDD 0xC 0xC3 DIFFICULTY PC PUSH12 0xE05CB5308AB8CD7EAA520152 PUSH31 0xB6E2FA5DADCFFB115CE64736F6C6343000810003300000000000000000000 "
				},
				"gasEstimates": {
					"creation": {
						"codeDepositCost": "121200",
						"executionCost": "165",
						"totalCost": "121365"
					},
					"external": {
						"set(string)": "infinite"
					}
				},
				"methodIdentifiers": {
					"set(string)": "4ed3885e"
				}
			},
			"storageLayout": {
				"storage": [
					{
						"astId": 3,
						"contract": "SimpleStorage.sol:MappingIteration",
						"label": "text",
						"offset": 0,
						"slot": "0",
						"type": "t_string_storage"
					}
				],
				"types": {
					"t_string_storage": {
						"encoding": "bytes",
						"label": "string",
						"numberOfBytes": "32"
					}
				}
			},
			"userdoc": {
				"kind": "user",
				"methods": {},
				"version": 1
			}
		}
	}
}