{
	"GetBack.sol": {
		"Caller": {
			"abi": [
				{
					"inputs": [],
					"name": "send",
					"outputs": [],
					"stateMutability": "nonpayable",
					"type": "function"
				}
			],
			"devdoc": {
				"kind": "dev",
				"methods": {},
				"version": 1
			},
			"evm": {
				"assembly": "    /* \"GetBack.sol\":195:344  contract Caller {... */\n  mstore(0x40, 0x80)\n  callvalue\n  dup1\n  iszero\n  tag_1\n  jumpi\n  0x00\n  dup1\n  revert\ntag_1:\n  pop\n  dataSize(sub_0)\n  dup1\n  dataOffset(sub_0)\n  0x00\n  codecopy\n  0x00\n  return\nstop\n\nsub_0: assembly {\n        /* \"GetBack.sol\":195:344  contract Caller {... */\n      mstore(0x40, 0x80)\n      callvalue\n      dup1\n      iszero\n      tag_1\n      jumpi\n      0x00\n      dup1\n      revert\n    tag_1:\n      pop\n      jumpi(tag_2, lt(calldatasize, 0x04))\n      shr(0xe0, calldataload(0x00))\n      dup1\n      0xb46300ec\n      eq\n      tag_3\n      jumpi\n    tag_2:\n      0x00\n      dup1\n      revert\n        /* \"GetBack.sol\":217:336  function send() external {... */\n    tag_3:\n      tag_4\n      tag_5\n      jump\t// in\n    tag_4:\n      stop\n    tag_5:\n        /* \"GetBack.sol\":252:329  payable(0xd33C69361e00f01C3085ac77ab2fA13bE10376E8).transfer(0.001 * 1 ether) */\n      mload(0x40)\n        /* \"GetBack.sol\":260:302  0xd33C69361e00f01C3085ac77ab2fA13bE10376E8 */\n      0xd33c69361e00f01c3085ac77ab2fa13be10376e8\n      swap1\n        /* \"GetBack.sol\":252:329  payable(0xd33C69361e00f01C3085ac77ab2fA13bE10376E8).transfer(0.001 * 1 ether) */\n      0x00\n      swap1\n        /* \"GetBack.sol\":313:328  0.001 * 1 ether */\n      0x038d7ea4c68000\n      swap1\n        /* \"GetBack.sol\":252:329  payable(0xd33C69361e00f01C3085ac77ab2fA13bE10376E8).transfer(0.001 * 1 ether) */\n      dup3\n      dup2\n      dup2\n      dup2\n        /* \"GetBack.sol\":313:328  0.001 * 1 ether */\n      dup6\n        /* \"GetBack.sol\":260:302  0xd33C69361e00f01C3085ac77ab2fA13bE10376E8 */\n      dup9\n        /* \"GetBack.sol\":252:329  payable(0xd33C69361e00f01C3085ac77ab2fA13bE10376E8).transfer(0.001 * 1 ether) */\n      dup4\n      call\n      swap4\n      pop\n      pop\n      pop\n      pop\n      iszero\n      dup1\n      iszero\n      tag_8\n      jumpi\n      returndatasize\n      0x00\n      dup1\n      returndatacopy\n      revert(0x00, returndatasize)\n    tag_8:\n      pop\n        /* \"GetBack.sol\":217:336  function send() external {... */\n      jump\t// out\n\n    auxdata: 0xa26469706673582212204bce3b1e2d9796b6bc48af98cbb0c09d8cc6da7c57c952ed512ee4bfc09c6a6464736f6c63430008100033\n}\n",
				"bytecode": {
					"linkReferences": {},
					"object": "608060405234801561001057600080fd5b5060b08061001f6000396000f3fe6080604052348015600f57600080fd5b506004361060285760003560e01c8063b46300ec14602d575b600080fd5b60336035565b005b60405173d33c69361e00f01c3085ac77ab2fa13be10376e89060009066038d7ea4c680009082818181858883f193505050501580156077573d6000803e3d6000fd5b5056fea26469706673582212204bce3b1e2d9796b6bc48af98cbb0c09d8cc6da7c57c952ed512ee4bfc09c6a6464736f6c63430008100033",
					"opcodes": "PUSH1 0x80 PUSH1 0x40 MSTORE CALLVALUE DUP1 ISZERO PUSH2 0x10 JUMPI PUSH1 0x0 DUP1 REVERT JUMPDEST POP PUSH1 0xB0 DUP1 PUSH2 0x1F PUSH1 0x0 CODECOPY PUSH1 0x0 RETURN INVALID PUSH1 0x80 PUSH1 0x40 MSTORE CALLVALUE DUP1 ISZERO PUSH1 0xF JUMPI PUSH1 0x0 DUP1 REVERT JUMPDEST POP PUSH1 0x4 CALLDATASIZE LT PUSH1 0x28 JUMPI PUSH1 0x0 CALLDATALOAD PUSH1 0xE0 SHR DUP1 PUSH4 0xB46300EC EQ PUSH1 0x2D JUMPI JUMPDEST PUSH1 0x0 DUP1 REVERT JUMPDEST PUSH1 0x33 PUSH1 0x35 JUMP JUMPDEST STOP JUMPDEST PUSH1 0x40 MLOAD PUSH20 0xD33C69361E00F01C3085AC77AB2FA13BE10376E8 SWAP1 PUSH1 0x0 SWAP1 PUSH7 0x38D7EA4C68000 SWAP1 DUP3 DUP2 DUP2 DUP2 DUP6 DUP9 DUP4 CALL SWAP4 POP POP POP POP ISZERO DUP1 ISZERO PUSH1 0x77 JUMPI RETURNDATASIZE PUSH1 0x0 DUP1 RETURNDATACOPY RETURNDATASIZE PUSH1 0x0 REVERT JUMPDEST POP JUMP INVALID LOG2 PUSH5 0x6970667358 0x22 SLT KECCAK256 0x4B 0xCE EXTCODESIZE 0x1E 0x2D SWAP8 SWAP7 0xB6 0xBC BASEFEE 0xAF SWAP9 0xCB 0xB0 0xC0 SWAP14 DUP13 0xC6 0xDA PUSH29 0x57C952ED512EE4BFC09C6A6464736F6C63430008100033000000000000 "
				},
				"gasEstimates": {
					"creation": {
						"codeDepositCost": "35200",
						"executionCost": "87",
						"totalCost": "35287"
					},
					"external": {
						"send()": "infinite"
					}
				},
				"methodIdentifiers": {
					"send()": "b46300ec"
				}
			},
			"storageLayout": {
				"storage": [],
				"types": null
			},
			"userdoc": {
				"kind": "user",
				"methods": {},
				"version": 1
			}
		}
	}
}