{
	"SendETH.sol": {
		"SendETH": {
			"abi": [
				{
					"inputs": [],
					"stateMutability": "payable",
					"type": "constructor"
				},
				{
					"inputs": [],
					"name": "CallFailed",
					"type": "error"
				},
				{
					"inputs": [],
					"name": "SendFailed",
					"type": "error"
				},
				{
					"inputs": [
						{
							"internalType": "address payable",
							"name": "_to",
							"type": "address"
						},
						{
							"internalType": "uint256",
							"name": "amount",
							"type": "uint256"
						}
					],
					"name": "callETH",
					"outputs": [],
					"stateMutability": "payable",
					"type": "function"
				},
				{
					"inputs": [
						{
							"internalType": "address payable",
							"name": "_to",
							"type": "address"
						},
						{
							"internalType": "uint256",
							"name": "amount",
							"type": "uint256"
						}
					],
					"name": "sendETH",
					"outputs": [],
					"stateMutability": "payable",
					"type": "function"
				},
				{
					"inputs": [
						{
							"internalType": "address payable",
							"name": "_to",
							"type": "address"
						},
						{
							"internalType": "uint256",
							"name": "amount",
							"type": "uint256"
						}
					],
					"name": "transferETH",
					"outputs": [],
					"stateMutability": "payable",
					"type": "function"
				},
				{
					"stateMutability": "payable",
					"type": "receive"
				}
			],
			"devdoc": {
				"kind": "dev",
				"methods": {},
				"version": 1
			},
			"evm": {
				"assembly": "    /* \"SendETH.sol\":296:1241  contract SendETH {... */\n  mstore(0x40, 0x80)\n  dataSize(sub_0)\n  dup1\n  dataOffset(sub_0)\n  0x00\n  codecopy\n  0x00\n  return\nstop\n\nsub_0: assembly {\n        /* \"SendETH.sol\":296:1241  contract SendETH {... */\n      mstore(0x40, 0x80)\n      jumpi(tag_1, lt(calldatasize, 0x04))\n      shr(0xe0, calldataload(0x00))\n      dup1\n      0x64a197f3\n      eq\n      tag_3\n      jumpi\n      dup1\n      0x7b1a4909\n      eq\n      tag_4\n      jumpi\n      dup1\n      0x8419cf50\n      eq\n      tag_5\n      jumpi\n      0x00\n      dup1\n      revert\n    tag_1:\n      jumpi(tag_2, calldatasize)\n      stop\n    tag_2:\n      0x00\n      dup1\n      revert\n        /* \"SendETH.sol\":666:931  function sendETH(address payable _to, uint256 amount) external payable {... */\n    tag_3:\n      tag_8\n      tag_9\n      calldatasize\n      0x04\n      tag_10\n      jump\t// in\n    tag_9:\n      tag_11\n      jump\t// in\n    tag_8:\n      stop\n        /* \"SendETH.sol\":525:637  function transferETH(address payable _to, uint256 amount) external payable{ ... */\n    tag_4:\n      tag_8\n      tag_13\n      calldatasize\n      0x04\n      tag_10\n      jump\t// in\n    tag_13:\n      tag_14\n      jump\t// in\n        /* \"SendETH.sol\":960:1239  function callETH(address payable _to, uint256 amount) external payable {... */\n    tag_5:\n      tag_8\n      tag_16\n      calldatasize\n      0x04\n      tag_10\n      jump\t// in\n    tag_16:\n      tag_17\n      jump\t// in\n        /* \"SendETH.sol\":666:931  function sendETH(address payable _to, uint256 amount) external payable {... */\n    tag_11:\n        /* \"SendETH.sol\":843:859  _to.send(amount) */\n      mload(0x40)\n        /* \"SendETH.sol\":828:840  bool success */\n      0x00\n      swap1\n      sub(shl(0xa0, 0x01), 0x01)\n        /* \"SendETH.sol\":843:851  _to.send */\n      dup5\n      and\n      swap1\n        /* \"SendETH.sol\":843:859  _to.send(amount) */\n      dup4\n      iszero\n      0x08fc\n      mul\n      swap1\n        /* \"SendETH.sol\":852:858  amount */\n      dup5\n      swap1\n        /* \"SendETH.sol\":828:840  bool success */\n      dup5\n        /* \"SendETH.sol\":843:859  _to.send(amount) */\n      dup2\n        /* \"SendETH.sol\":828:840  bool success */\n      dup2\n        /* \"SendETH.sol\":843:859  _to.send(amount) */\n      dup2\n        /* \"SendETH.sol\":852:858  amount */\n      dup6\n        /* \"SendETH.sol\":843:851  _to.send */\n      dup9\n        /* \"SendETH.sol\":843:859  _to.send(amount) */\n      dup9\n      call\n      swap4\n      pop\n      pop\n      pop\n      pop\n        /* \"SendETH.sol\":828:859  bool success = _to.send(amount) */\n      swap1\n      pop\n        /* \"SendETH.sol\":873:880  success */\n      dup1\n        /* \"SendETH.sol\":869:925  if(!success){... */\n      tag_20\n      jumpi\n        /* \"SendETH.sol\":902:914  SendFailed() */\n      mload(0x40)\n      shl(0xe0, 0x81063e51)\n      dup2\n      mstore\n      0x04\n      add\n      mload(0x40)\n      dup1\n      swap2\n      sub\n      swap1\n      revert\n        /* \"SendETH.sol\":869:925  if(!success){... */\n    tag_20:\n        /* \"SendETH.sol\":737:931  {... */\n      pop\n        /* \"SendETH.sol\":666:931  function sendETH(address payable _to, uint256 amount) external payable {... */\n      pop\n      pop\n      jump\t// out\n        /* \"SendETH.sol\":525:637  function transferETH(address payable _to, uint256 amount) external payable{ ... */\n    tag_14:\n        /* \"SendETH.sol\":610:630  _to.transfer(amount) */\n      mload(0x40)\n      sub(shl(0xa0, 0x01), 0x01)\n        /* \"SendETH.sol\":610:622  _to.transfer */\n      dup4\n      and\n      swap1\n        /* \"SendETH.sol\":610:630  _to.transfer(amount) */\n      dup3\n      iszero\n      0x08fc\n      mul\n      swap1\n        /* \"SendETH.sol\":623:629  amount */\n      dup4\n      swap1\n        /* \"SendETH.sol\":610:630  _to.transfer(amount) */\n      0x00\n      dup2\n      dup2\n      dup2\n        /* \"SendETH.sol\":623:629  amount */\n      dup6\n        /* \"SendETH.sol\":610:622  _to.transfer */\n      dup9\n        /* \"SendETH.sol\":610:630  _to.transfer(amount) */\n      dup9\n      call\n      swap4\n      pop\n      pop\n      pop\n      pop\n      iszero\n      dup1\n      iszero\n      tag_20\n      jumpi\n      returndatasize\n      0x00\n      dup1\n      returndatacopy\n      revert(0x00, returndatasize)\n        /* \"SendETH.sol\":960:1239  function callETH(address payable _to, uint256 amount) external payable {... */\n    tag_17:\n        /* \"SendETH.sol\":1123:1135  bool success */\n      0x00\n        /* \"SendETH.sol\":1140:1143  _to */\n      dup3\n      sub(shl(0xa0, 0x01), 0x01)\n        /* \"SendETH.sol\":1140:1148  _to.call */\n      and\n        /* \"SendETH.sol\":1156:1162  amount */\n      dup3\n        /* \"SendETH.sol\":1140:1167  _to.call{value: amount}(\"\") */\n      mload(0x40)\n      0x00\n      mload(0x40)\n      dup1\n      dup4\n      sub\n      dup2\n      dup6\n      dup8\n      gas\n      call\n      swap3\n      pop\n      pop\n      pop\n      returndatasize\n      dup1\n      0x00\n      dup2\n      eq\n      tag_29\n      jumpi\n      mload(0x40)\n      swap2\n      pop\n      and(add(returndatasize, 0x3f), not(0x1f))\n      dup3\n      add\n      0x40\n      mstore\n      returndatasize\n      dup3\n      mstore\n      returndatasize\n      0x00\n      0x20\n      dup5\n      add\n      returndatacopy\n      jump(tag_28)\n    tag_29:\n      0x60\n      swap2\n      pop\n    tag_28:\n      pop\n        /* \"SendETH.sol\":1122:1167  (bool success,) = _to.call{value: amount}(\"\") */\n      pop\n      swap1\n      pop\n        /* \"SendETH.sol\":1181:1188  success */\n      dup1\n        /* \"SendETH.sol\":1177:1233  if(!success){... */\n      tag_20\n      jumpi\n        /* \"SendETH.sol\":1210:1222  CallFailed() */\n      mload(0x40)\n      shl(0xe0, 0x3204506f)\n      dup2\n      mstore\n      0x04\n      add\n      mload(0x40)\n      dup1\n      swap2\n      sub\n      swap1\n      revert\n        /* \"#utility.yul\":14:376   */\n    tag_10:\n        /* \"#utility.yul\":90:96   */\n      0x00\n        /* \"#utility.yul\":98:104   */\n      dup1\n        /* \"#utility.yul\":151:153   */\n      0x40\n        /* \"#utility.yul\":139:148   */\n      dup4\n        /* \"#utility.yul\":130:137   */\n      dup6\n        /* \"#utility.yul\":126:149   */\n      sub\n        /* \"#utility.yul\":122:154   */\n      slt\n        /* \"#utility.yul\":119:171   */\n      iszero\n      tag_33\n      jumpi\n        /* \"#utility.yul\":167:168   */\n      0x00\n        /* \"#utility.yul\":164:165   */\n      dup1\n        /* \"#utility.yul\":157:169   */\n      revert\n        /* \"#utility.yul\":119:171   */\n    tag_33:\n        /* \"#utility.yul\":193:216   */\n      dup3\n      calldataload\n      sub(shl(0xa0, 0x01), 0x01)\n        /* \"#utility.yul\":245:276   */\n      dup2\n      and\n        /* \"#utility.yul\":235:277   */\n      dup2\n      eq\n        /* \"#utility.yul\":225:295   */\n      tag_34\n      jumpi\n        /* \"#utility.yul\":291:292   */\n      0x00\n        /* \"#utility.yul\":288:289   */\n      dup1\n        /* \"#utility.yul\":281:293   */\n      revert\n        /* \"#utility.yul\":225:295   */\n    tag_34:\n        /* \"#utility.yul\":314:319   */\n      swap5\n        /* \"#utility.yul\":366:368   */\n      0x20\n        /* \"#utility.yul\":351:369   */\n      swap4\n      swap1\n      swap4\n      add\n        /* \"#utility.yul\":338:370   */\n      calldataload\n      swap4\n      pop\n      pop\n      pop\n        /* \"#utility.yul\":14:376   */\n      jump\t// out\n\n    auxdata: 0xa2646970667358221220e5e31f0708a304d448739ff92442605b5ed22fce4f924e116d5f9c01d565873164736f6c63430008100033\n}\n",
				"bytecode": {
					"linkReferences": {},
					"object": "60806040526101e3806100136000396000f3fe6080604052600436106100385760003560e01c806364a197f3146100445780637b1a4909146100595780638419cf501461006c57600080fd5b3661003f57005b600080fd5b610057610052366004610175565b61007f565b005b610057610067366004610175565b6100cb565b61005761007a366004610175565b610101565b6040516000906001600160a01b0384169083156108fc0290849084818181858888f193505050509050806100c6576040516381063e5160e01b815260040160405180910390fd5b505050565b6040516001600160a01b0383169082156108fc029083906000818181858888f193505050501580156100c6573d6000803e3d6000fd5b6000826001600160a01b03168260405160006040518083038185875af1925050503d806000811461014e576040519150601f19603f3d011682016040523d82523d6000602084013e610153565b606091505b50509050806100c657604051633204506f60e01b815260040160405180910390fd5b6000806040838503121561018857600080fd5b82356001600160a01b038116811461019f57600080fd5b94602093909301359350505056fea2646970667358221220e5e31f0708a304d448739ff92442605b5ed22fce4f924e116d5f9c01d565873164736f6c63430008100033",
					"opcodes": "PUSH1 0x80 PUSH1 0x40 MSTORE PUSH2 0x1E3 DUP1 PUSH2 0x13 PUSH1 0x0 CODECOPY PUSH1 0x0 RETURN INVALID PUSH1 0x80 PUSH1 0x40 MSTORE PUSH1 0x4 CALLDATASIZE LT PUSH2 0x38 JUMPI PUSH1 0x0 CALLDATALOAD PUSH1 0xE0 SHR DUP1 PUSH4 0x64A197F3 EQ PUSH2 0x44 JUMPI DUP1 PUSH4 0x7B1A4909 EQ PUSH2 0x59 JUMPI DUP1 PUSH4 0x8419CF50 EQ PUSH2 0x6C JUMPI PUSH1 0x0 DUP1 REVERT JUMPDEST CALLDATASIZE PUSH2 0x3F JUMPI STOP JUMPDEST PUSH1 0x0 DUP1 REVERT JUMPDEST PUSH2 0x57 PUSH2 0x52 CALLDATASIZE PUSH1 0x4 PUSH2 0x175 JUMP JUMPDEST PUSH2 0x7F JUMP JUMPDEST STOP JUMPDEST PUSH2 0x57 PUSH2 0x67 CALLDATASIZE PUSH1 0x4 PUSH2 0x175 JUMP JUMPDEST PUSH2 0xCB JUMP JUMPDEST PUSH2 0x57 PUSH2 0x7A CALLDATASIZE PUSH1 0x4 PUSH2 0x175 JUMP JUMPDEST PUSH2 0x101 JUMP JUMPDEST PUSH1 0x40 MLOAD PUSH1 0x0 SWAP1 PUSH1 0x1 PUSH1 0x1 PUSH1 0xA0 SHL SUB DUP5 AND SWAP1 DUP4 ISZERO PUSH2 0x8FC MUL SWAP1 DUP5 SWAP1 DUP5 DUP2 DUP2 DUP2 DUP6 DUP9 DUP9 CALL SWAP4 POP POP POP POP SWAP1 POP DUP1 PUSH2 0xC6 JUMPI PUSH1 0x40 MLOAD PUSH4 0x81063E51 PUSH1 0xE0 SHL DUP2 MSTORE PUSH1 0x4 ADD PUSH1 0x40 MLOAD DUP1 SWAP2 SUB SWAP1 REVERT JUMPDEST POP POP POP JUMP JUMPDEST PUSH1 0x40 MLOAD PUSH1 0x1 PUSH1 0x1 PUSH1 0xA0 SHL SUB DUP4 AND SWAP1 DUP3 ISZERO PUSH2 0x8FC MUL SWAP1 DUP4 SWAP1 PUSH1 0x0 DUP2 DUP2 DUP2 DUP6 DUP9 DUP9 CALL SWAP4 POP POP POP POP ISZERO DUP1 ISZERO PUSH2 0xC6 JUMPI RETURNDATASIZE PUSH1 0x0 DUP1 RETURNDATACOPY RETURNDATASIZE PUSH1 0x0 REVERT JUMPDEST PUSH1 0x0 DUP3 PUSH1 0x1 PUSH1 0x1 PUSH1 0xA0 SHL SUB AND DUP3 PUSH1 0x40 MLOAD PUSH1 0x0 PUSH1 0x40 MLOAD DUP1 DUP4 SUB DUP2 DUP6 DUP8 GAS CALL SWAP3 POP POP POP RETURNDATASIZE DUP1 PUSH1 0x0 DUP2 EQ PUSH2 0x14E JUMPI PUSH1 0x40 MLOAD SWAP2 POP PUSH1 0x1F NOT PUSH1 0x3F RETURNDATASIZE ADD AND DUP3 ADD PUSH1 0x40 MSTORE RETURNDATASIZE DUP3 MSTORE RETURNDATASIZE PUSH1 0x0 PUSH1 0x20 DUP5 ADD RETURNDATACOPY PUSH2 0x153 JUMP JUMPDEST PUSH1 0x60 SWAP2 POP JUMPDEST POP POP SWAP1 POP DUP1 PUSH2 0xC6 JUMPI PUSH1 0x40 MLOAD PUSH4 0x3204506F PUSH1 0xE0 SHL DUP2 MSTORE PUSH1 0x4 ADD PUSH1 0x40 MLOAD DUP1 SWAP2 SUB SWAP1 REVERT JUMPDEST PUSH1 0x0 DUP1 PUSH1 0x40 DUP4 DUP6 SUB SLT ISZERO PUSH2 0x188 JUMPI PUSH1 0x0 DUP1 REVERT JUMPDEST DUP3 CALLDATALOAD PUSH1 0x1 PUSH1 0x1 PUSH1 0xA0 SHL SUB DUP2 AND DUP2 EQ PUSH2 0x19F JUMPI PUSH1 0x0 DUP1 REVERT JUMPDEST SWAP5 PUSH1 0x20 SWAP4 SWAP1 SWAP4 ADD CALLDATALOAD SWAP4 POP POP POP JUMP INVALID LOG2 PUSH5 0x6970667358 0x22 SLT KECCAK256 0xE5 0xE3 0x1F SMOD ADDMOD LOG3 DIV 0xD4 BASEFEE PUSH20 0x9FF92442605B5ED22FCE4F924E116D5F9C01D565 DUP8 BALANCE PUSH5 0x736F6C6343 STOP ADDMOD LT STOP CALLER "
				},
				"gasEstimates": {
					"creation": {
						"codeDepositCost": "96600",
						"executionCost": "123",
						"totalCost": "96723"
					},
					"external": {
						"callETH(address,uint256)": "infinite",
						"sendETH(address,uint256)": "infinite",
						"transferETH(address,uint256)": "infinite"
					}
				},
				"methodIdentifiers": {
					"callETH(address,uint256)": "8419cf50",
					"sendETH(address,uint256)": "64a197f3",
					"transferETH(address,uint256)": "7b1a4909"
				}
			},
			"storageLayout": {
				"storage": [],
				"types": null
			},
			"userdoc": {
				"kind": "user",
				"methods": {},
				"version": 1
			}
		}
	}
}