{
	"MappingIteration.sol": {
		"MappingIteration": {
			"abi": [
				{
					"inputs": [],
					"name": "first",
					"outputs": [
						{
							"internalType": "uint256",
							"name": "",
							"type": "uint256"
						}
					],
					"stateMutability": "view",
					"type": "function"
				},
				{
					"inputs": [
						{
							"internalType": "uint256",
							"name": "_index",
							"type": "uint256"
						}
					],
					"name": "get",
					"outputs": [
						{
							"internalType": "uint256",
							"name": "",
							"type": "uint256"
						}
					],
					"stateMutability": "view",
					"type": "function"
				},
				{
					"inputs": [],
					"name": "last",
					"outputs": [
						{
							"internalType": "uint256",
							"name": "",
							"type": "uint256"
						}
					],
					"stateMutability": "view",
					"type": "function"
				},
				{
					"inputs": [],
					"name": "length",
					"outputs": [
						{
							"internalType": "uint256",
							"name": "",
							"type": "uint256"
						}
					],
					"stateMutability": "view",
					"type": "function"
				},
				{
					"inputs": [
						{
							"internalType": "address",
							"name": "_key",
							"type": "address"
						},
						{
							"internalType": "uint256",
							"name": "_value",
							"type": "uint256"
						}
					],
					"name": "set",
					"outputs": [],
					"stateMutability": "nonpayable",
					"type": "function"
				}
			],
			"devdoc": {
				"kind": "dev",
				"methods": {},
				"version": 1
			},
			"evm": {
				"assembly": "    /* \"MappingIteration.sol\":63:872  contract MappingIteration {... */\n  mstore(0x40, 0x80)\n  callvalue\n  dup1\n  iszero\n  tag_1\n  jumpi\n  0x00\n  dup1\n  revert\ntag_1:\n  pop\n  dataSize(sub_0)\n  dup1\n  dataOffset(sub_0)\n  0x00\n  codecopy\n  0x00\n  return\nstop\n\nsub_0: assembly {\n        /* \"MappingIteration.sol\":63:872  contract MappingIteration {... */\n      mstore(0x40, 0x80)\n      callvalue\n      dup1\n      iszero\n      tag_1\n      jumpi\n      0x00\n      dup1\n      revert\n    tag_1:\n      pop\n      jumpi(tag_2, lt(calldatasize, 0x04))\n      shr(0xe0, calldataload(0x00))\n      dup1\n      0x1f7b6d32\n      eq\n      tag_3\n      jumpi\n      dup1\n      0x3825d828\n      eq\n      tag_4\n      jumpi\n      dup1\n      0x3df4ddf4\n      eq\n      tag_5\n      jumpi\n      dup1\n      0x47799da8\n      eq\n      tag_6\n      jumpi\n      dup1\n      0x9507d39a\n      eq\n      tag_7\n      jumpi\n    tag_2:\n      0x00\n      dup1\n      revert\n        /* \"MappingIteration.sol\":388:469  function length() external view returns(uint) {... */\n    tag_3:\n        /* \"MappingIteration.sol\":451:455  keys */\n      0x02\n        /* \"MappingIteration.sol\":451:462  keys.length */\n      sload\n        /* \"MappingIteration.sol\":388:469  function length() external view returns(uint) {... */\n    tag_8:\n      mload(0x40)\n        /* \"#utility.yul\":160:185   */\n      swap1\n      dup2\n      mstore\n        /* \"#utility.yul\":148:150   */\n      0x20\n        /* \"#utility.yul\":133:151   */\n      add\n        /* \"MappingIteration.sol\":388:469  function length() external view returns(uint) {... */\n      mload(0x40)\n      dup1\n      swap2\n      sub\n      swap1\n      return\n        /* \"MappingIteration.sol\":192:382  function set(address _key, uint _value) external {... */\n    tag_4:\n      tag_12\n      tag_13\n      calldatasize\n      0x04\n      tag_14\n      jump\t// in\n    tag_13:\n      tag_15\n      jump\t// in\n    tag_12:\n      stop\n        /* \"MappingIteration.sol\":475:595  function first() external view returns(uint) {... */\n    tag_5:\n      tag_8\n      tag_17\n      jump\t// in\n        /* \"MappingIteration.sol\":601:764  function last() external view returns(uint) {... */\n    tag_6:\n      tag_8\n      tag_20\n      jump\t// in\n        /* \"MappingIteration.sol\":770:870  function get(uint _index) external view returns(uint) {... */\n    tag_7:\n      tag_8\n      tag_23\n      calldatasize\n      0x04\n      tag_24\n      jump\t// in\n    tag_23:\n      tag_25\n      jump\t// in\n        /* \"MappingIteration.sol\":192:382  function set(address _key, uint _value) external {... */\n    tag_15:\n      sub(shl(0xa0, 0x01), 0x01)\n        /* \"MappingIteration.sol\":251:265  balances[_key] */\n      dup3\n      and\n        /* \"MappingIteration.sol\":251:259  balances */\n      0x00\n        /* \"MappingIteration.sol\":251:265  balances[_key] */\n      swap1\n      dup2\n      mstore\n      0x20\n      dup2\n      dup2\n      mstore\n      0x40\n      dup1\n      dup4\n      keccak256\n        /* \"MappingIteration.sol\":251:274  balances[_key] = _value */\n      dup5\n      swap1\n      sstore\n        /* \"MappingIteration.sol\":289:295  exists */\n      0x01\n        /* \"MappingIteration.sol\":289:301  exists[_key] */\n      swap1\n      swap2\n      mstore\n      swap1\n      keccak256\n      sload\n      0xff\n      and\n        /* \"MappingIteration.sol\":284:376  if (!exists[_key]) {... */\n      tag_29\n      jumpi\n        /* \"MappingIteration.sol\":317:321  keys */\n      0x02\n        /* \"MappingIteration.sol\":317:332  keys.push(_key) */\n      dup1\n      sload\n      0x01\n      dup1\n      dup3\n      add\n      swap1\n      swap3\n      sstore\n      0x405787fa12a823e0f2b7631cc41b3ba8828b3321ca811111fa75cd3aa3bb5ace\n      add\n      dup1\n      sload\n      not(sub(shl(0xa0, 0x01), 0x01))\n      and\n      sub(shl(0xa0, 0x01), 0x01)\n      dup6\n      and\n      swap1\n      dup2\n      or\n      swap1\n      swap2\n      sstore\n      0x00\n        /* \"MappingIteration.sol\":346:358  exists[_key] */\n      swap1\n      dup2\n      mstore\n        /* \"MappingIteration.sol\":317:332  keys.push(_key) */\n      0x20\n        /* \"MappingIteration.sol\":346:358  exists[_key] */\n      dup3\n      swap1\n      mstore\n      0x40\n      swap1\n      keccak256\n        /* \"MappingIteration.sol\":346:365  exists[_key] = true */\n      dup1\n      sload\n      not(0xff)\n      and\n      swap1\n      swap2\n      or\n      swap1\n      sstore\n        /* \"MappingIteration.sol\":284:376  if (!exists[_key]) {... */\n    tag_29:\n        /* \"MappingIteration.sol\":192:382  function set(address _key, uint _value) external {... */\n      pop\n      pop\n      jump\t// out\n        /* \"MappingIteration.sol\":475:595  function first() external view returns(uint) {... */\n    tag_17:\n        /* \"MappingIteration.sol\":538:542  keys */\n      0x02\n        /* \"MappingIteration.sol\":538:549  keys.length */\n      sload\n        /* \"MappingIteration.sol\":514:518  uint */\n      0x00\n      swap1\n        /* \"MappingIteration.sol\":530:554  require(keys.length > 0) */\n      tag_32\n      jumpi\n      0x00\n      dup1\n      revert\n    tag_32:\n        /* \"MappingIteration.sol\":571:579  balances */\n      0x00\n        /* \"MappingIteration.sol\":571:588  balances[keys[0]] */\n      dup1\n        /* \"MappingIteration.sol\":580:584  keys */\n      0x02\n        /* \"MappingIteration.sol\":585:586  0 */\n      0x00\n        /* \"MappingIteration.sol\":580:587  keys[0] */\n      dup2\n      sload\n      dup2\n      lt\n      tag_34\n      jumpi\n      tag_34\n      tag_35\n      jump\t// in\n    tag_34:\n      0x00\n      swap2\n      dup3\n      mstore\n      0x20\n      dup1\n      dup4\n      keccak256\n      swap1\n      swap2\n      add\n      sload\n      sub(shl(0xa0, 0x01), 0x01)\n      and\n        /* \"MappingIteration.sol\":571:588  balances[keys[0]] */\n      dup4\n      mstore\n      dup3\n      add\n      swap3\n      swap1\n      swap3\n      mstore\n      0x40\n      add\n      swap1\n      keccak256\n      sload\n      swap2\n        /* \"MappingIteration.sol\":475:595  function first() external view returns(uint) {... */\n      swap1\n      pop\n      jump\t// out\n        /* \"MappingIteration.sol\":601:764  function last() external view returns(uint) {... */\n    tag_20:\n        /* \"MappingIteration.sol\":659:663  keys */\n      0x02\n        /* \"MappingIteration.sol\":659:670  keys.length */\n      sload\n        /* \"MappingIteration.sol\":639:643  uint */\n      0x00\n      swap1\n        /* \"MappingIteration.sol\":659:675  keys.length == 0 */\n      dup2\n      sub\n        /* \"MappingIteration.sol\":655:710  if (keys.length == 0) {... */\n      tag_38\n      jumpi\n      pop\n        /* \"MappingIteration.sol\":698:699  0 */\n      0x00\n      swap1\n        /* \"MappingIteration.sol\":601:764  function last() external view returns(uint) {... */\n      jump\t// out\n        /* \"MappingIteration.sol\":655:710  if (keys.length == 0) {... */\n    tag_38:\n        /* \"MappingIteration.sol\":735:739  keys */\n      0x02\n        /* \"MappingIteration.sol\":740:751  keys.length */\n      dup1\n      sload\n        /* \"MappingIteration.sol\":726:734  balances */\n      0x00\n      swap2\n      dup3\n      swap2\n        /* \"MappingIteration.sol\":740:755  keys.length - 1 */\n      tag_39\n      swap1\n        /* \"MappingIteration.sol\":754:755  1 */\n      0x01\n      swap1\n        /* \"MappingIteration.sol\":740:755  keys.length - 1 */\n      tag_40\n      jump\t// in\n    tag_39:\n        /* \"MappingIteration.sol\":735:756  keys[keys.length - 1] */\n      dup2\n      sload\n      dup2\n      lt\n      tag_34\n      jumpi\n      tag_34\n      tag_35\n      jump\t// in\n        /* \"MappingIteration.sol\":770:870  function get(uint _index) external view returns(uint) {... */\n    tag_25:\n        /* \"MappingIteration.sol\":818:822  uint */\n      0x00\n        /* \"MappingIteration.sol\":841:849  balances */\n      dup1\n        /* \"MappingIteration.sol\":841:863  balances[keys[_index]] */\n      0x00\n        /* \"MappingIteration.sol\":850:854  keys */\n      0x02\n        /* \"MappingIteration.sol\":855:861  _index */\n      dup5\n        /* \"MappingIteration.sol\":850:862  keys[_index] */\n      dup2\n      sload\n      dup2\n      lt\n      tag_46\n      jumpi\n      tag_46\n      tag_35\n      jump\t// in\n    tag_46:\n      0x00\n      swap2\n      dup3\n      mstore\n      0x20\n      dup1\n      dup4\n      keccak256\n      swap1\n      swap2\n      add\n      sload\n      sub(shl(0xa0, 0x01), 0x01)\n      and\n        /* \"MappingIteration.sol\":841:863  balances[keys[_index]] */\n      dup4\n      mstore\n      dup3\n      add\n      swap3\n      swap1\n      swap3\n      mstore\n      0x40\n      add\n      swap1\n      keccak256\n      sload\n      swap3\n        /* \"MappingIteration.sol\":770:870  function get(uint _index) external view returns(uint) {... */\n      swap2\n      pop\n      pop\n      jump\t// out\n        /* \"#utility.yul\":196:550   */\n    tag_14:\n        /* \"#utility.yul\":264:270   */\n      0x00\n        /* \"#utility.yul\":272:278   */\n      dup1\n        /* \"#utility.yul\":325:327   */\n      0x40\n        /* \"#utility.yul\":313:322   */\n      dup4\n        /* \"#utility.yul\":304:311   */\n      dup6\n        /* \"#utility.yul\":300:323   */\n      sub\n        /* \"#utility.yul\":296:328   */\n      slt\n        /* \"#utility.yul\":293:345   */\n      iszero\n      tag_51\n      jumpi\n        /* \"#utility.yul\":341:342   */\n      0x00\n        /* \"#utility.yul\":338:339   */\n      dup1\n        /* \"#utility.yul\":331:343   */\n      revert\n        /* \"#utility.yul\":293:345   */\n    tag_51:\n        /* \"#utility.yul\":367:390   */\n      dup3\n      calldataload\n      sub(shl(0xa0, 0x01), 0x01)\n        /* \"#utility.yul\":419:450   */\n      dup2\n      and\n        /* \"#utility.yul\":409:451   */\n      dup2\n      eq\n        /* \"#utility.yul\":399:469   */\n      tag_52\n      jumpi\n        /* \"#utility.yul\":465:466   */\n      0x00\n        /* \"#utility.yul\":462:463   */\n      dup1\n        /* \"#utility.yul\":455:467   */\n      revert\n        /* \"#utility.yul\":399:469   */\n    tag_52:\n        /* \"#utility.yul\":488:493   */\n      swap5\n        /* \"#utility.yul\":540:542   */\n      0x20\n        /* \"#utility.yul\":525:543   */\n      swap4\n      swap1\n      swap4\n      add\n        /* \"#utility.yul\":512:544   */\n      calldataload\n      swap4\n      pop\n      pop\n      pop\n        /* \"#utility.yul\":196:550   */\n      jump\t// out\n        /* \"#utility.yul\":555:735   */\n    tag_24:\n        /* \"#utility.yul\":614:620   */\n      0x00\n        /* \"#utility.yul\":667:669   */\n      0x20\n        /* \"#utility.yul\":655:664   */\n      dup3\n        /* \"#utility.yul\":646:653   */\n      dup5\n        /* \"#utility.yul\":642:665   */\n      sub\n        /* \"#utility.yul\":638:670   */\n      slt\n        /* \"#utility.yul\":635:687   */\n      iszero\n      tag_54\n      jumpi\n        /* \"#utility.yul\":683:684   */\n      0x00\n        /* \"#utility.yul\":680:681   */\n      dup1\n        /* \"#utility.yul\":673:685   */\n      revert\n        /* \"#utility.yul\":635:687   */\n    tag_54:\n      pop\n        /* \"#utility.yul\":706:729   */\n      calldataload\n      swap2\n        /* \"#utility.yul\":555:735   */\n      swap1\n      pop\n      jump\t// out\n        /* \"#utility.yul\":740:867   */\n    tag_35:\n        /* \"#utility.yul\":801:811   */\n      0x4e487b71\n        /* \"#utility.yul\":796:799   */\n      0xe0\n        /* \"#utility.yul\":792:812   */\n      shl\n        /* \"#utility.yul\":789:790   */\n      0x00\n        /* \"#utility.yul\":782:813   */\n      mstore\n        /* \"#utility.yul\":832:836   */\n      0x32\n        /* \"#utility.yul\":829:830   */\n      0x04\n        /* \"#utility.yul\":822:837   */\n      mstore\n        /* \"#utility.yul\":856:860   */\n      0x24\n        /* \"#utility.yul\":853:854   */\n      0x00\n        /* \"#utility.yul\":846:861   */\n      revert\n        /* \"#utility.yul\":872:1097   */\n    tag_40:\n        /* \"#utility.yul\":939:948   */\n      dup2\n      dup2\n      sub\n        /* \"#utility.yul\":960:971   */\n      dup2\n      dup2\n      gt\n        /* \"#utility.yul\":957:1091   */\n      iszero\n      tag_57\n      jumpi\n        /* \"#utility.yul\":1013:1023   */\n      0x4e487b71\n        /* \"#utility.yul\":1008:1011   */\n      0xe0\n        /* \"#utility.yul\":1004:1024   */\n      shl\n        /* \"#utility.yul\":1001:1002   */\n      0x00\n        /* \"#utility.yul\":994:1025   */\n      mstore\n        /* \"#utility.yul\":1048:1052   */\n      0x11\n        /* \"#utility.yul\":1045:1046   */\n      0x04\n        /* \"#utility.yul\":1038:1053   */\n      mstore\n        /* \"#utility.yul\":1076:1080   */\n      0x24\n        /* \"#utility.yul\":1073:1074   */\n      0x00\n        /* \"#utility.yul\":1066:1081   */\n      revert\n        /* \"#utility.yul\":957:1091   */\n    tag_57:\n        /* \"#utility.yul\":872:1097   */\n      swap3\n      swap2\n      pop\n      pop\n      jump\t// out\n\n    auxdata: 0xa26469706673582212204947bd9788bddb02854dc2b7e8e06ba40a2f5478e46d9afec0e635357c636b2664736f6c63430008100033\n}\n",
				"bytecode": {
					"linkReferences": {},
					"object": "608060405234801561001057600080fd5b506102cb806100206000396000f3fe608060405234801561001057600080fd5b50600436106100575760003560e01c80631f7b6d321461005c5780633825d828146100725780633df4ddf41461008757806347799da81461008f5780639507d39a14610097575b600080fd5b6002545b60405190815260200160405180910390f35b610085610080366004610207565b6100aa565b005b61006061013d565b61006061018d565b6100606100a536600461023f565b6101c4565b6001600160a01b038216600090815260208181526040808320849055600190915290205460ff16610139576002805460018082019092557f405787fa12a823e0f2b7631cc41b3ba8828b3321ca811111fa75cd3aa3bb5ace0180546001600160a01b0319166001600160a01b0385169081179091556000908152602082905260409020805460ff191690911790555b5050565b60025460009061014c57600080fd5b600080600260008154811061016357610163610258565b60009182526020808320909101546001600160a01b03168352820192909252604001902054919050565b600254600090810361019f5750600090565b6002805460009182916101b49060019061026e565b8154811061016357610163610258565b6000806000600284815481106101dc576101dc610258565b60009182526020808320909101546001600160a01b0316835282019290925260400190205492915050565b6000806040838503121561021a57600080fd5b82356001600160a01b038116811461023157600080fd5b946020939093013593505050565b60006020828403121561025157600080fd5b5035919050565b634e487b7160e01b600052603260045260246000fd5b8181038181111561028f57634e487b7160e01b600052601160045260246000fd5b9291505056fea26469706673582212204947bd9788bddb02854dc2b7e8e06ba40a2f5478e46d9afec0e635357c636b2664736f6c63430008100033",
					"opcodes": "PUSH1 0x80 PUSH1 0x40 MSTORE CALLVALUE DUP1 ISZERO PUSH2 0x10 JUMPI PUSH1 0x0 DUP1 REVERT JUMPDEST POP PUSH2 0x2CB DUP1 PUSH2 0x20 PUSH1 0x0 CODECOPY PUSH1 0x0 RETURN INVALID PUSH1 0x80 PUSH1 0x40 MSTORE CALLVALUE DUP1 ISZERO PUSH2 0x10 JUMPI PUSH1 0x0 DUP1 REVERT JUMPDEST POP PUSH1 0x4 CALLDATASIZE LT PUSH2 0x57 JUMPI PUSH1 0x0 CALLDATALOAD PUSH1 0xE0 SHR DUP1 PUSH4 0x1F7B6D32 EQ PUSH2 0x5C JUMPI DUP1 PUSH4 0x3825D828 EQ PUSH2 0x72 JUMPI DUP1 PUSH4 0x3DF4DDF4 EQ PUSH2 0x87 JUMPI DUP1 PUSH4 0x47799DA8 EQ PUSH2 0x8F JUMPI DUP1 PUSH4 0x9507D39A EQ PUSH2 0x97 JUMPI JUMPDEST PUSH1 0x0 DUP1 REVERT JUMPDEST PUSH1 0x2 SLOAD JUMPDEST PUSH1 0x40 MLOAD SWAP1 DUP2 MSTORE PUSH1 0x20 ADD PUSH1 0x40 MLOAD DUP1 SWAP2 SUB SWAP1 RETURN JUMPDEST PUSH2 0x85 PUSH2 0x80 CALLDATASIZE PUSH1 0x4 PUSH2 0x207 JUMP JUMPDEST PUSH2 0xAA JUMP JUMPDEST STOP JUMPDEST PUSH2 0x60 PUSH2 0x13D JUMP JUMPDEST PUSH2 0x60 PUSH2 0x18D JUMP JUMPDEST PUSH2 0x60 PUSH2 0xA5 CALLDATASIZE PUSH1 0x4 PUSH2 0x23F JUMP JUMPDEST PUSH2 0x1C4 JUMP JUMPDEST PUSH1 0x1 PUSH1 0x1 PUSH1 0xA0 SHL SUB DUP3 AND PUSH1 0x0 SWAP1 DUP2 MSTORE PUSH1 0x20 DUP2 DUP2 MSTORE PUSH1 0x40 DUP1 DUP4 KECCAK256 DUP5 SWAP1 SSTORE PUSH1 0x1 SWAP1 SWAP2 MSTORE SWAP1 KECCAK256 SLOAD PUSH1 0xFF AND PUSH2 0x139 JUMPI PUSH1 0x2 DUP1 SLOAD PUSH1 0x1 DUP1 DUP3 ADD SWAP1 SWAP3 SSTORE PUSH32 0x405787FA12A823E0F2B7631CC41B3BA8828B3321CA811111FA75CD3AA3BB5ACE ADD DUP1 SLOAD PUSH1 0x1 PUSH1 0x1 PUSH1 0xA0 SHL SUB NOT AND PUSH1 0x1 PUSH1 0x1 PUSH1 0xA0 SHL SUB DUP6 AND SWAP1 DUP2 OR SWAP1 SWAP2 SSTORE PUSH1 0x0 SWAP1 DUP2 MSTORE PUSH1 0x20 DUP3 SWAP1 MSTORE PUSH1 0x40 SWAP1 KECCAK256 DUP1 SLOAD PUSH1 0xFF NOT AND SWAP1 SWAP2 OR SWAP1 SSTORE JUMPDEST POP POP JUMP JUMPDEST PUSH1 0x2 SLOAD PUSH1 0x0 SWAP1 PUSH2 0x14C JUMPI PUSH1 0x0 DUP1 REVERT JUMPDEST PUSH1 0x0 DUP1 PUSH1 0x2 PUSH1 0x0 DUP2 SLOAD DUP2 LT PUSH2 0x163 JUMPI PUSH2 0x163 PUSH2 0x258 JUMP JUMPDEST PUSH1 0x0 SWAP2 DUP3 MSTORE PUSH1 0x20 DUP1 DUP4 KECCAK256 SWAP1 SWAP2 ADD SLOAD PUSH1 0x1 PUSH1 0x1 PUSH1 0xA0 SHL SUB AND DUP4 MSTORE DUP3 ADD SWAP3 SWAP1 SWAP3 MSTORE PUSH1 0x40 ADD SWAP1 KECCAK256 SLOAD SWAP2 SWAP1 POP JUMP JUMPDEST PUSH1 0x2 SLOAD PUSH1 0x0 SWAP1 DUP2 SUB PUSH2 0x19F JUMPI POP PUSH1 0x0 SWAP1 JUMP JUMPDEST PUSH1 0x2 DUP1 SLOAD PUSH1 0x0 SWAP2 DUP3 SWAP2 PUSH2 0x1B4 SWAP1 PUSH1 0x1 SWAP1 PUSH2 0x26E JUMP JUMPDEST DUP2 SLOAD DUP2 LT PUSH2 0x163 JUMPI PUSH2 0x163 PUSH2 0x258 JUMP JUMPDEST PUSH1 0x0 DUP1 PUSH1 0x0 PUSH1 0x2 DUP5 DUP2 SLOAD DUP2 LT PUSH2 0x1DC JUMPI PUSH2 0x1DC PUSH2 0x258 JUMP JUMPDEST PUSH1 0x0 SWAP2 DUP3 MSTORE PUSH1 0x20 DUP1 DUP4 KECCAK256 SWAP1 SWAP2 ADD SLOAD PUSH1 0x1 PUSH1 0x1 PUSH1 0xA0 SHL SUB AND DUP4 MSTORE DUP3 ADD SWAP3 SWAP1 SWAP3 MSTORE PUSH1 0x40 ADD SWAP1 KECCAK256 SLOAD SWAP3 SWAP2 POP POP JUMP JUMPDEST PUSH1 0x0 DUP1 PUSH1 0x40 DUP4 DUP6 SUB SLT ISZERO PUSH2 0x21A JUMPI PUSH1 0x0 DUP1 REVERT JUMPDEST DUP3 CALLDATALOAD PUSH1 0x1 PUSH1 0x1 PUSH1 0xA0 SHL SUB DUP2 AND DUP2 EQ PUSH2 0x231 JUMPI PUSH1 0x0 DUP1 REVERT JUMPDEST SWAP5 PUSH1 0x20 SWAP4 SWAP1 SWAP4 ADD CALLDATALOAD SWAP4 POP POP POP JUMP JUMPDEST PUSH1 0x0 PUSH1 0x20 DUP3 DUP5 SUB SLT ISZERO PUSH2 0x251 JUMPI PUSH1 0x0 DUP1 REVERT JUMPDEST POP CALLDATALOAD SWAP2 SWAP1 POP JUMP JUMPDEST PUSH4 0x4E487B71 PUSH1 0xE0 SHL PUSH1 0x0 MSTORE PUSH1 0x32 PUSH1 0x4 MSTORE PUSH1 0x24 PUSH1 0x0 REVERT JUMPDEST DUP2 DUP2 SUB DUP2 DUP2 GT ISZERO PUSH2 0x28F JUMPI PUSH4 0x4E487B71 PUSH1 0xE0 SHL PUSH1 0x0 MSTORE PUSH1 0x11 PUSH1 0x4 MSTORE PUSH1 0x24 PUSH1 0x0 REVERT JUMPDEST SWAP3 SWAP2 POP POP JUMP INVALID LOG2 PUSH5 0x6970667358 0x22 SLT KECCAK256 0x49 SELFBALANCE 0xBD SWAP8 DUP9 0xBD 0xDB MUL DUP6 0x4D 0xC2 0xB7 0xE8 0xE0 PUSH12 0xA40A2F5478E46D9AFEC0E635 CALLDATALOAD PUSH29 0x636B2664736F6C63430008100033000000000000000000000000000000 "
				},
				"gasEstimates": {
					"creation": {
						"codeDepositCost": "143000",
						"executionCost": "190",
						"totalCost": "143190"
					},
					"external": {
						"first()": "8836",
						"get(uint256)": "6839",
						"last()": "11048",
						"length()": "2247",
						"set(address,uint256)": "97457"
					}
				},
				"methodIdentifiers": {
					"first()": "3df4ddf4",
					"get(uint256)": "9507d39a",
					"last()": "47799da8",
					"length()": "1f7b6d32",
					"set(address,uint256)": "3825d828"
				}
			},
			"storageLayout": {
				"storage": [
					{
						"astId": 5,
						"contract": "MappingIteration.sol:MappingIteration",
						"label": "balances",
						"offset": 0,
						"slot": "0",
						"type": "t_mapping(t_address,t_uint256)"
					},
					{
						"astId": 9,
						"contract": "MappingIteration.sol:MappingIteration",
						"label": "exists",
						"offset": 0,
						"slot": "1",
						"type": "t_mapping(t_address,t_bool)"
					},
					{
						"astId": 12,
						"contract": "MappingIteration.sol:MappingIteration",
						"label": "keys",
						"offset": 0,
						"slot": "2",
						"type": "t_array(t_address)dyn_storage"
					}
				],
				"types": {
					"t_address": {
						"encoding": "inplace",
						"label": "address",
						"numberOfBytes": "20"
					},
					"t_array(t_address)dyn_storage": {
						"base": "t_address",
						"encoding": "dynamic_array",
						"label": "address[]",
						"numberOfBytes": "32"
					},
					"t_bool": {
						"encoding": "inplace",
						"label": "bool",
						"numberOfBytes": "1"
					},
					"t_mapping(t_address,t_bool)": {
						"encoding": "mapping",
						"key": "t_address",
						"label": "mapping(address => bool)",
						"numberOfBytes": "32",
						"value": "t_bool"
					},
					"t_mapping(t_address,t_uint256)": {
						"encoding": "mapping",
						"key": "t_address",
						"label": "mapping(address => uint256)",
						"numberOfBytes": "32",
						"value": "t_uint256"
					},
					"t_uint256": {
						"encoding": "inplace",
						"label": "uint256",
						"numberOfBytes": "32"
					}
				}
			},
			"userdoc": {
				"kind": "user",
				"methods": {},
				"version": 1
			}
		}
	}
}