{
	"GetBack.sol": {
		"Caller": {
			"abi": [
				{
					"inputs": [],
					"name": "clain",
					"outputs": [],
					"stateMutability": "nonpayable",
					"type": "function"
				},
				{
					"inputs": [],
					"name": "send",
					"outputs": [],
					"stateMutability": "nonpayable",
					"type": "function"
				},
				{
					"stateMutability": "payable",
					"type": "receive"
				}
			],
			"devdoc": {
				"kind": "dev",
				"methods": {},
				"version": 1
			},
			"evm": {
				"assembly": "    /* \"GetBack.sol\":195:423  contract Caller {... */\n  mstore(0x40, 0x80)\n  callvalue\n  dup1\n  iszero\n  tag_1\n  jumpi\n  0x00\n  dup1\n  revert\ntag_1:\n  pop\n  dataSize(sub_0)\n  dup1\n  dataOffset(sub_0)\n  0x00\n  codecopy\n  0x00\n  return\nstop\n\nsub_0: assembly {\n        /* \"GetBack.sol\":195:423  contract Caller {... */\n      mstore(0x40, 0x80)\n      jumpi(tag_1, lt(calldatasize, 0x04))\n      shr(0xe0, calldataload(0x00))\n      dup1\n      0x4e411054\n      eq\n      tag_3\n      jumpi\n      dup1\n      0xb46300ec\n      eq\n      tag_4\n      jumpi\n      0x00\n      dup1\n      revert\n    tag_1:\n      jumpi(tag_2, calldatasize)\n      stop\n    tag_2:\n      0x00\n      dup1\n      revert\n        /* \"GetBack.sol\":386:421  function clain() external  {... */\n    tag_3:\n      callvalue\n      dup1\n      iszero\n      tag_7\n      jumpi\n      0x00\n      dup1\n      revert\n    tag_7:\n      pop\n    tag_8:\n      stop\n        /* \"GetBack.sol\":217:336  function send() external {... */\n    tag_4:\n      callvalue\n      dup1\n      iszero\n      tag_10\n      jumpi\n      0x00\n      dup1\n      revert\n    tag_10:\n      pop\n      tag_8\n        /* \"GetBack.sol\":252:329  payable(0xd33C69361e00f01C3085ac77ab2fA13bE10376E8).transfer(0.001 * 1 ether) */\n      mload(0x40)\n        /* \"GetBack.sol\":260:302  0xd33C69361e00f01C3085ac77ab2fA13bE10376E8 */\n      0xd33c69361e00f01c3085ac77ab2fa13be10376e8\n      swap1\n        /* \"GetBack.sol\":252:329  payable(0xd33C69361e00f01C3085ac77ab2fA13bE10376E8).transfer(0.001 * 1 ether) */\n      0x00\n      swap1\n        /* \"GetBack.sol\":313:328  0.001 * 1 ether */\n      0x038d7ea4c68000\n      swap1\n        /* \"GetBack.sol\":252:329  payable(0xd33C69361e00f01C3085ac77ab2fA13bE10376E8).transfer(0.001 * 1 ether) */\n      dup3\n      dup2\n      dup2\n      dup2\n        /* \"GetBack.sol\":313:328  0.001 * 1 ether */\n      dup6\n        /* \"GetBack.sol\":260:302  0xd33C69361e00f01C3085ac77ab2fA13bE10376E8 */\n      dup9\n        /* \"GetBack.sol\":252:329  payable(0xd33C69361e00f01C3085ac77ab2fA13bE10376E8).transfer(0.001 * 1 ether) */\n      dup4\n      call\n      swap4\n      pop\n      pop\n      pop\n      pop\n      iszero\n      dup1\n      iszero\n      tag_16\n      jumpi\n      returndatasize\n      0x00\n      dup1\n      returndatacopy\n      revert(0x00, returndatasize)\n    tag_16:\n      pop\n        /* \"GetBack.sol\":217:336  function send() external {... */\n      jump\t// out\n\n    auxdata: 0xa2646970667358221220881792f89d2d431c6152a9ef3222030f7e0322b8eee6014e35cf1a2c474ad58364736f6c63430008100033\n}\n",
				"bytecode": {
					"linkReferences": {},
					"object": "608060405234801561001057600080fd5b5060cd8061001f6000396000f3fe608060405260043610602a5760003560e01c80634e411054146035578063b46300ec14604457600080fd5b36603057005b600080fd5b348015604057600080fd5b505b005b348015604f57600080fd5b50604260405173d33c69361e00f01c3085ac77ab2fa13be10376e89060009066038d7ea4c680009082818181858883f193505050501580156094573d6000803e3d6000fd5b5056fea2646970667358221220881792f89d2d431c6152a9ef3222030f7e0322b8eee6014e35cf1a2c474ad58364736f6c63430008100033",
					"opcodes": "PUSH1 0x80 PUSH1 0x40 MSTORE CALLVALUE DUP1 ISZERO PUSH2 0x10 JUMPI PUSH1 0x0 DUP1 REVERT JUMPDEST POP PUSH1 0xCD DUP1 PUSH2 0x1F PUSH1 0x0 CODECOPY PUSH1 0x0 RETURN INVALID PUSH1 0x80 PUSH1 0x40 MSTORE PUSH1 0x4 CALLDATASIZE LT PUSH1 0x2A JUMPI PUSH1 0x0 CALLDATALOAD PUSH1 0xE0 SHR DUP1 PUSH4 0x4E411054 EQ PUSH1 0x35 JUMPI DUP1 PUSH4 0xB46300EC EQ PUSH1 0x44 JUMPI PUSH1 0x0 DUP1 REVERT JUMPDEST CALLDATASIZE PUSH1 0x30 JUMPI STOP JUMPDEST PUSH1 0x0 DUP1 REVERT JUMPDEST CALLVALUE DUP1 ISZERO PUSH1 0x40 JUMPI PUSH1 0x0 DUP1 REVERT JUMPDEST POP JUMPDEST STOP JUMPDEST CALLVALUE DUP1 ISZERO PUSH1 0x4F JUMPI PUSH1 0x0 DUP1 REVERT JUMPDEST POP PUSH1 0x42 PUSH1 0x40 MLOAD PUSH20 0xD33C69361E00F01C3085AC77AB2FA13BE10376E8 SWAP1 PUSH1 0x0 SWAP1 PUSH7 0x38D7EA4C68000 SWAP1 DUP3 DUP2 DUP2 DUP2 DUP6 DUP9 DUP4 CALL SWAP4 POP POP POP POP ISZERO DUP1 ISZERO PUSH1 0x94 JUMPI RETURNDATASIZE PUSH1 0x0 DUP1 RETURNDATACOPY RETURNDATASIZE PUSH1 0x0 REVERT JUMPDEST POP JUMP INVALID LOG2 PUSH5 0x6970667358 0x22 SLT KECCAK256 DUP9 OR SWAP3 0xF8 SWAP14 0x2D NUMBER SHR PUSH2 0x52A9 0xEF ORIGIN 0x22 SUB 0xF PUSH31 0x322B8EEE6014E35CF1A2C474AD58364736F6C634300081000330000000000 "
				},
				"gasEstimates": {
					"creation": {
						"codeDepositCost": "41000",
						"executionCost": "93",
						"totalCost": "41093"
					},
					"external": {
						"clain()": "101",
						"send()": "infinite"
					}
				},
				"methodIdentifiers": {
					"clain()": "4e411054",
					"send()": "b46300ec"
				}
			},
			"storageLayout": {
				"storage": [],
				"types": null
			},
			"userdoc": {
				"kind": "user",
				"methods": {},
				"version": 1
			}
		}
	}
}