{
	"Caller.sol": {
		"Caller": {
			"abi": [
				{
					"inputs": [],
					"name": "CallFailed",
					"type": "error"
				},
				{
					"inputs": [
						{
							"internalType": "address",
							"name": "_to",
							"type": "address"
						},
						{
							"internalType": "uint256",
							"name": "a",
							"type": "uint256"
						},
						{
							"internalType": "uint256",
							"name": "b",
							"type": "uint256"
						}
					],
					"name": "call",
					"outputs": [],
					"stateMutability": "nonpayable",
					"type": "function"
				}
			],
			"devdoc": {
				"kind": "dev",
				"methods": {},
				"version": 1
			},
			"evm": {
				"assembly": "    /* \"Caller.sol\":91:365  contract Caller {... */\n  mstore(0x40, 0x80)\n  callvalue\n  dup1\n  iszero\n  tag_1\n  jumpi\n  0x00\n  dup1\n  revert\ntag_1:\n  pop\n  dataSize(sub_0)\n  dup1\n  dataOffset(sub_0)\n  0x00\n  codecopy\n  0x00\n  return\nstop\n\nsub_0: assembly {\n        /* \"Caller.sol\":91:365  contract Caller {... */\n      mstore(0x40, 0x80)\n      callvalue\n      dup1\n      iszero\n      tag_1\n      jumpi\n      0x00\n      dup1\n      revert\n    tag_1:\n      pop\n      jumpi(tag_2, lt(calldatasize, 0x04))\n      shr(0xe0, calldataload(0x00))\n      dup1\n      0x5064d83a\n      eq\n      tag_3\n      jumpi\n    tag_2:\n      0x00\n      dup1\n      revert\n        /* \"Caller.sol\":136:363  function call(address _to, uint a, uint b) external {... */\n    tag_3:\n      tag_4\n      tag_5\n      calldatasize\n      0x04\n      tag_6\n      jump\t// in\n    tag_5:\n      tag_7\n      jump\t// in\n    tag_4:\n      stop\n    tag_7:\n        /* \"Caller.sol\":199:211  bool success */\n      0x00\n        /* \"Caller.sol\":213:230  bytes memory data */\n      dup1\n        /* \"Caller.sol\":234:237  _to */\n      dup5\n      sub(shl(0xa0, 0x01), 0x01)\n        /* \"Caller.sol\":234:242  _to.call */\n      and\n        /* \"Caller.sol\":285:286  a */\n      dup5\n        /* \"Caller.sol\":288:289  b */\n      dup5\n        /* \"Caller.sol\":243:290  abi.encodeWithSignature(\"sum(uint,uint)\", a, b) */\n      add(0x24, mload(0x40))\n      tag_9\n      swap3\n      swap2\n      swap1\n        /* \"#utility.yul\":615:640   */\n      swap2\n      dup3\n      mstore\n        /* \"#utility.yul\":671:673   */\n      0x20\n        /* \"#utility.yul\":656:674   */\n      dup3\n      add\n        /* \"#utility.yul\":649:683   */\n      mstore\n        /* \"#utility.yul\":603:605   */\n      0x40\n        /* \"#utility.yul\":588:606   */\n      add\n      swap1\n        /* \"#utility.yul\":441:689   */\n      jump\n        /* \"Caller.sol\":243:290  abi.encodeWithSignature(\"sum(uint,uint)\", a, b) */\n    tag_9:\n      0x40\n      dup1\n      mload\n      not(0x1f)\n      dup2\n      dup5\n      sub\n      add\n      dup2\n      mstore\n      swap2\n      dup2\n      mstore\n      0x20\n      dup3\n      add\n      dup1\n      mload\n      sub(shl(0xe0, 0x01), 0x01)\n      and\n      shl(0xe1, 0x7654c1cf)\n      or\n      swap1\n      mstore\n        /* \"Caller.sol\":234:291  _to.call(abi.encodeWithSignature(\"sum(uint,uint)\", a, b)) */\n      mload\n      tag_11\n      swap2\n        /* \"Caller.sol\":243:290  abi.encodeWithSignature(\"sum(uint,uint)\", a, b) */\n      swap1\n        /* \"Caller.sol\":234:291  _to.call(abi.encodeWithSignature(\"sum(uint,uint)\", a, b)) */\n      tag_12\n      jump\t// in\n    tag_11:\n      0x00\n      mload(0x40)\n      dup1\n      dup4\n      sub\n      dup2\n      0x00\n      dup7\n      gas\n      call\n      swap2\n      pop\n      pop\n      returndatasize\n      dup1\n      0x00\n      dup2\n      eq\n      tag_15\n      jumpi\n      mload(0x40)\n      swap2\n      pop\n      and(add(returndatasize, 0x3f), not(0x1f))\n      dup3\n      add\n      0x40\n      mstore\n      returndatasize\n      dup3\n      mstore\n      returndatasize\n      0x00\n      0x20\n      dup5\n      add\n      returndatacopy\n      jump(tag_14)\n    tag_15:\n      0x60\n      swap2\n      pop\n    tag_14:\n      pop\n        /* \"Caller.sol\":198:291  (bool success, bytes memory data) = _to.call(abi.encodeWithSignature(\"sum(uint,uint)\", a, b)) */\n      swap2\n      pop\n      swap2\n      pop\n        /* \"Caller.sol\":305:312  success */\n      dup2\n        /* \"Caller.sol\":301:357  if(!success){... */\n      tag_16\n      jumpi\n        /* \"Caller.sol\":334:346  CallFailed() */\n      mload(0x40)\n      shl(0xe0, 0x3204506f)\n      dup2\n      mstore\n      0x04\n      add\n      mload(0x40)\n      dup1\n      swap2\n      sub\n      swap1\n      revert\n        /* \"Caller.sol\":301:357  if(!success){... */\n    tag_16:\n        /* \"Caller.sol\":188:363  {... */\n      pop\n      pop\n        /* \"Caller.sol\":136:363  function call(address _to, uint a, uint b) external {... */\n      pop\n      pop\n      pop\n      jump\t// out\n        /* \"#utility.yul\":14:436   */\n    tag_6:\n        /* \"#utility.yul\":91:97   */\n      0x00\n        /* \"#utility.yul\":99:105   */\n      dup1\n        /* \"#utility.yul\":107:113   */\n      0x00\n        /* \"#utility.yul\":160:162   */\n      0x60\n        /* \"#utility.yul\":148:157   */\n      dup5\n        /* \"#utility.yul\":139:146   */\n      dup7\n        /* \"#utility.yul\":135:158   */\n      sub\n        /* \"#utility.yul\":131:163   */\n      slt\n        /* \"#utility.yul\":128:180   */\n      iszero\n      tag_19\n      jumpi\n        /* \"#utility.yul\":176:177   */\n      0x00\n        /* \"#utility.yul\":173:174   */\n      dup1\n        /* \"#utility.yul\":166:178   */\n      revert\n        /* \"#utility.yul\":128:180   */\n    tag_19:\n        /* \"#utility.yul\":202:225   */\n      dup4\n      calldataload\n      sub(shl(0xa0, 0x01), 0x01)\n        /* \"#utility.yul\":254:285   */\n      dup2\n      and\n        /* \"#utility.yul\":244:286   */\n      dup2\n      eq\n        /* \"#utility.yul\":234:304   */\n      tag_20\n      jumpi\n        /* \"#utility.yul\":300:301   */\n      0x00\n        /* \"#utility.yul\":297:298   */\n      dup1\n        /* \"#utility.yul\":290:302   */\n      revert\n        /* \"#utility.yul\":234:304   */\n    tag_20:\n        /* \"#utility.yul\":323:328   */\n      swap6\n        /* \"#utility.yul\":375:377   */\n      0x20\n        /* \"#utility.yul\":360:378   */\n      dup6\n      add\n        /* \"#utility.yul\":347:379   */\n      calldataload\n      swap6\n      pop\n        /* \"#utility.yul\":426:428   */\n      0x40\n        /* \"#utility.yul\":411:429   */\n      swap1\n      swap5\n      add\n        /* \"#utility.yul\":398:430   */\n      calldataload\n      swap4\n        /* \"#utility.yul\":14:436   */\n      swap3\n      pop\n      pop\n      pop\n      jump\t// out\n        /* \"#utility.yul\":694:1106   */\n    tag_12:\n        /* \"#utility.yul\":823:826   */\n      0x00\n        /* \"#utility.yul\":861:867   */\n      dup3\n        /* \"#utility.yul\":855:868   */\n      mload\n        /* \"#utility.yul\":886:887   */\n      0x00\n        /* \"#utility.yul\":896:1025   */\n    tag_23:\n        /* \"#utility.yul\":910:916   */\n      dup2\n        /* \"#utility.yul\":907:908   */\n      dup2\n        /* \"#utility.yul\":904:917   */\n      lt\n        /* \"#utility.yul\":896:1025   */\n      iszero\n      tag_25\n      jumpi\n        /* \"#utility.yul\":1008:1012   */\n      0x20\n        /* \"#utility.yul\":992:1006   */\n      dup2\n      dup7\n      add\n        /* \"#utility.yul\":988:1013   */\n      dup2\n      add\n        /* \"#utility.yul\":982:1014   */\n      mload\n        /* \"#utility.yul\":969:980   */\n      dup6\n      dup4\n      add\n        /* \"#utility.yul\":962:1015   */\n      mstore\n        /* \"#utility.yul\":925:937   */\n      add\n        /* \"#utility.yul\":896:1025   */\n      jump(tag_23)\n    tag_25:\n      pop\n        /* \"#utility.yul\":1080:1081   */\n      0x00\n        /* \"#utility.yul\":1044:1060   */\n      swap3\n      add\n        /* \"#utility.yul\":1069:1082   */\n      swap2\n      dup3\n      mstore\n      pop\n        /* \"#utility.yul\":1044:1060   */\n      swap2\n        /* \"#utility.yul\":694:1106   */\n      swap1\n      pop\n      jump\t// out\n\n    auxdata: 0xa2646970667358221220a403b9d9765925eea6d05e6de646dce333fa7f77ae011f54de8235f38035b69364736f6c63430008100033\n}\n",
				"bytecode": {
					"linkReferences": {},
					"object": "608060405234801561001057600080fd5b506101b5806100206000396000f3fe608060405234801561001057600080fd5b506004361061002b5760003560e01c80635064d83a14610030575b600080fd5b61004361003e36600461010f565b610045565b005b600080846001600160a01b0316848460405160240161006e929190918252602082015260400190565b60408051601f198184030181529181526020820180516001600160e01b0316637654c1cf60e11b179052516100a39190610150565b6000604051808303816000865af19150503d80600081146100e0576040519150601f19603f3d011682016040523d82523d6000602084013e6100e5565b606091505b50915091508161010857604051633204506f60e01b815260040160405180910390fd5b5050505050565b60008060006060848603121561012457600080fd5b83356001600160a01b038116811461013b57600080fd5b95602085013595506040909401359392505050565b6000825160005b818110156101715760208186018101518583015201610157565b50600092019182525091905056fea2646970667358221220a403b9d9765925eea6d05e6de646dce333fa7f77ae011f54de8235f38035b69364736f6c63430008100033",
					"opcodes": "PUSH1 0x80 PUSH1 0x40 MSTORE CALLVALUE DUP1 ISZERO PUSH2 0x10 JUMPI PUSH1 0x0 DUP1 REVERT JUMPDEST POP PUSH2 0x1B5 DUP1 PUSH2 0x20 PUSH1 0x0 CODECOPY PUSH1 0x0 RETURN INVALID PUSH1 0x80 PUSH1 0x40 MSTORE CALLVALUE DUP1 ISZERO PUSH2 0x10 JUMPI PUSH1 0x0 DUP1 REVERT JUMPDEST POP PUSH1 0x4 CALLDATASIZE LT PUSH2 0x2B JUMPI PUSH1 0x0 CALLDATALOAD PUSH1 0xE0 SHR DUP1 PUSH4 0x5064D83A EQ PUSH2 0x30 JUMPI JUMPDEST PUSH1 0x0 DUP1 REVERT JUMPDEST PUSH2 0x43 PUSH2 0x3E CALLDATASIZE PUSH1 0x4 PUSH2 0x10F JUMP JUMPDEST PUSH2 0x45 JUMP JUMPDEST STOP JUMPDEST PUSH1 0x0 DUP1 DUP5 PUSH1 0x1 PUSH1 0x1 PUSH1 0xA0 SHL SUB AND DUP5 DUP5 PUSH1 0x40 MLOAD PUSH1 0x24 ADD PUSH2 0x6E SWAP3 SWAP2 SWAP1 SWAP2 DUP3 MSTORE PUSH1 0x20 DUP3 ADD MSTORE PUSH1 0x40 ADD SWAP1 JUMP JUMPDEST PUSH1 0x40 DUP1 MLOAD PUSH1 0x1F NOT DUP2 DUP5 SUB ADD DUP2 MSTORE SWAP2 DUP2 MSTORE PUSH1 0x20 DUP3 ADD DUP1 MLOAD PUSH1 0x1 PUSH1 0x1 PUSH1 0xE0 SHL SUB AND PUSH4 0x7654C1CF PUSH1 0xE1 SHL OR SWAP1 MSTORE MLOAD PUSH2 0xA3 SWAP2 SWAP1 PUSH2 0x150 JUMP JUMPDEST PUSH1 0x0 PUSH1 0x40 MLOAD DUP1 DUP4 SUB DUP2 PUSH1 0x0 DUP7 GAS CALL SWAP2 POP POP RETURNDATASIZE DUP1 PUSH1 0x0 DUP2 EQ PUSH2 0xE0 JUMPI PUSH1 0x40 MLOAD SWAP2 POP PUSH1 0x1F NOT PUSH1 0x3F RETURNDATASIZE ADD AND DUP3 ADD PUSH1 0x40 MSTORE RETURNDATASIZE DUP3 MSTORE RETURNDATASIZE PUSH1 0x0 PUSH1 0x20 DUP5 ADD RETURNDATACOPY PUSH2 0xE5 JUMP JUMPDEST PUSH1 0x60 SWAP2 POP JUMPDEST POP SWAP2 POP SWAP2 POP DUP2 PUSH2 0x108 JUMPI PUSH1 0x40 MLOAD PUSH4 0x3204506F PUSH1 0xE0 SHL DUP2 MSTORE PUSH1 0x4 ADD PUSH1 0x40 MLOAD DUP1 SWAP2 SUB SWAP1 REVERT JUMPDEST POP POP POP POP POP JUMP JUMPDEST PUSH1 0x0 DUP1 PUSH1 0x0 PUSH1 0x60 DUP5 DUP7 SUB SLT ISZERO PUSH2 0x124 JUMPI PUSH1 0x0 DUP1 REVERT JUMPDEST DUP4 CALLDATALOAD PUSH1 0x1 PUSH1 0x1 PUSH1 0xA0 SHL SUB DUP2 AND DUP2 EQ PUSH2 0x13B JUMPI PUSH1 0x0 DUP1 REVERT JUMPDEST SWAP6 PUSH1 0x20 DUP6 ADD CALLDATALOAD SWAP6 POP PUSH1 0x40 SWAP1 SWAP5 ADD CALLDATALOAD SWAP4 SWAP3 POP POP POP JUMP JUMPDEST PUSH1 0x0 DUP3 MLOAD PUSH1 0x0 JUMPDEST DUP2 DUP2 LT ISZERO PUSH2 0x171 JUMPI PUSH1 0x20 DUP2 DUP7 ADD DUP2 ADD MLOAD DUP6 DUP4 ADD MSTORE ADD PUSH2 0x157 JUMP JUMPDEST POP PUSH1 0x0 SWAP3 ADD SWAP2 DUP3 MSTORE POP SWAP2 SWAP1 POP JUMP INVALID LOG2 PUSH5 0x6970667358 0x22 SLT KECCAK256 LOG4 SUB 0xB9 0xD9 PUSH23 0x5925EEA6D05E6DE646DCE333FA7F77AE011F54DE8235F3 DUP1 CALLDATALOAD 0xB6 SWAP4 PUSH5 0x736F6C6343 STOP ADDMOD LT STOP CALLER "
				},
				"gasEstimates": {
					"creation": {
						"codeDepositCost": "87400",
						"executionCost": "135",
						"totalCost": "87535"
					},
					"external": {
						"call(address,uint256,uint256)": "infinite"
					}
				},
				"methodIdentifiers": {
					"call(address,uint256,uint256)": "5064d83a"
				}
			},
			"storageLayout": {
				"storage": [],
				"types": null
			},
			"userdoc": {
				"kind": "user",
				"methods": {},
				"version": 1
			}
		}
	}
}