{
	"Week5/Array1.sol": {
		"Array1": {
			"abi": [
				{
					"inputs": [
						{
							"internalType": "uint256",
							"name": "",
							"type": "uint256"
						}
					],
					"name": "array",
					"outputs": [
						{
							"internalType": "uint256",
							"name": "",
							"type": "uint256"
						}
					],
					"stateMutability": "view",
					"type": "function"
				},
				{
					"inputs": [],
					"name": "get",
					"outputs": [
						{
							"internalType": "uint256[]",
							"name": "",
							"type": "uint256[]"
						}
					],
					"stateMutability": "nonpayable",
					"type": "function"
				},
				{
					"inputs": [
						{
							"internalType": "uint256",
							"name": "_index",
							"type": "uint256"
						}
					],
					"name": "remove",
					"outputs": [],
					"stateMutability": "nonpayable",
					"type": "function"
				}
			],
			"devdoc": {
				"kind": "dev",
				"methods": {},
				"version": 1
			},
			"evm": {
				"assembly": "    /* \"Week5/Array1.sol\":92:129  uint[] public array = [1, 2, 3, 4, 5] */\n  0x0120\n    /* \"Week5/Array1.sol\":70:409  contract Array1 {... */\n  0x40\n    /* \"Week5/Array1.sol\":92:129  uint[] public array = [1, 2, 3, 4, 5] */\n  mstore\n    /* \"Week5/Array1.sol\":115:116  1 */\n  0x01\n    /* \"Week5/Array1.sol\":70:409  contract Array1 {... */\n  0x80\n    /* \"Week5/Array1.sol\":92:129  uint[] public array = [1, 2, 3, 4, 5] */\n  swap1\n  dup2\n  mstore\n    /* \"Week5/Array1.sol\":118:119  2 */\n  0x02\n    /* \"Week5/Array1.sol\":92:129  uint[] public array = [1, 2, 3, 4, 5] */\n  0xa0\n  mstore\n    /* \"Week5/Array1.sol\":121:122  3 */\n  0x03\n    /* \"Week5/Array1.sol\":92:129  uint[] public array = [1, 2, 3, 4, 5] */\n  0xc0\n  mstore\n    /* \"Week5/Array1.sol\":124:125  4 */\n  0x04\n    /* \"Week5/Array1.sol\":92:129  uint[] public array = [1, 2, 3, 4, 5] */\n  0xe0\n  mstore\n    /* \"Week5/Array1.sol\":127:128  5 */\n  0x05\n    /* \"Week5/Array1.sol\":92:129  uint[] public array = [1, 2, 3, 4, 5] */\n  0x0100\n  dup2\n  swap1\n  mstore\n  tag_1\n  swap2\n  0x00\n  swap2\n  tag_2\n  jump\t// in\ntag_1:\n  pop\n    /* \"Week5/Array1.sol\":70:409  contract Array1 {... */\n  callvalue\n  dup1\n  iszero\n  tag_3\n  jumpi\n  0x00\n  dup1\n  revert\ntag_3:\n  pop\n  jump(tag_4)\ntag_2:\n  dup3\n  dup1\n  sload\n  dup3\n  dup3\n  sstore\n  swap1\n  0x00\n  mstore\n  keccak256(0x00, 0x20)\n  swap1\n  dup2\n  add\n  swap3\n  dup3\n  iszero\n  tag_7\n  jumpi\n  swap2\n  0x20\n  mul\n  dup3\n  add\ntag_6:\n  dup3\n  dup2\n  gt\n  iszero\n  tag_7\n  jumpi\n  dup3\n  mload\n  dup3\n  swap1\n  0xff\n  and\n  swap1\n  sstore\n  swap2\n  0x20\n  add\n  swap2\n  swap1\n  0x01\n  add\n  swap1\n  jump(tag_6)\ntag_7:\n  pop\n  tag_8\n  swap3\n  swap2\n  pop\n  tag_9\n  jump\t// in\ntag_8:\n  pop\n  swap1\n  jump\t// out\ntag_9:\ntag_10:\n  dup1\n  dup3\n  gt\n  iszero\n  tag_8\n  jumpi\n  0x00\n  dup2\n  sstore\n  0x01\n  add\n  jump(tag_10)\ntag_4:\n  dataSize(sub_0)\n  dup1\n  dataOffset(sub_0)\n  0x00\n  codecopy\n  0x00\n  return\nstop\n\nsub_0: assembly {\n        /* \"Week5/Array1.sol\":70:409  contract Array1 {... */\n      mstore(0x40, 0x80)\n      callvalue\n      dup1\n      iszero\n      tag_1\n      jumpi\n      0x00\n      dup1\n      revert\n    tag_1:\n      pop\n      jumpi(tag_2, lt(calldatasize, 0x04))\n      shr(0xe0, calldataload(0x00))\n      dup1\n      0x38d94193\n      eq\n      tag_3\n      jumpi\n      dup1\n      0x4cc82215\n      eq\n      tag_4\n      jumpi\n      dup1\n      0x6d4ce63c\n      eq\n      tag_5\n      jumpi\n    tag_2:\n      0x00\n      dup1\n      revert\n        /* \"Week5/Array1.sol\":92:129  uint[] public array = [1, 2, 3, 4, 5] */\n    tag_3:\n      tag_6\n      tag_7\n      calldatasize\n      0x04\n      tag_8\n      jump\t// in\n    tag_7:\n      tag_9\n      jump\t// in\n    tag_6:\n      mload(0x40)\n        /* \"#utility.yul\":345:370   */\n      swap1\n      dup2\n      mstore\n        /* \"#utility.yul\":333:335   */\n      0x20\n        /* \"#utility.yul\":318:336   */\n      add\n        /* \"Week5/Array1.sol\":92:129  uint[] public array = [1, 2, 3, 4, 5] */\n    tag_10:\n      mload(0x40)\n      dup1\n      swap2\n      sub\n      swap1\n      return\n        /* \"Week5/Array1.sol\":197:407  function remove(uint _index) external {... */\n    tag_4:\n      tag_12\n      tag_13\n      calldatasize\n      0x04\n      tag_8\n      jump\t// in\n    tag_13:\n      tag_14\n      jump\t// in\n    tag_12:\n      stop\n        /* \"Week5/Array1.sol\":136:191  function get() external returns(uint[] memory) {... */\n    tag_5:\n        /* \"Week5/Array1.sol\":168:181  uint[] memory */\n      0x60\n        /* \"Week5/Array1.sol\":136:191  function get() external returns(uint[] memory) {... */\n      mload(0x40)\n      tag_10\n      swap2\n      swap1\n      tag_18\n      jump\t// in\n        /* \"Week5/Array1.sol\":92:129  uint[] public array = [1, 2, 3, 4, 5] */\n    tag_9:\n      0x00\n      dup2\n      dup2\n      sload\n      dup2\n      lt\n      tag_19\n      jumpi\n      0x00\n      dup1\n      revert\n    tag_19:\n      0x00\n      swap2\n      dup3\n      mstore\n      0x20\n      swap1\n      swap2\n      keccak256\n      add\n      sload\n      swap1\n      pop\n      dup2\n      jump\t// out\n        /* \"Week5/Array1.sol\":197:407  function remove(uint _index) external {... */\n    tag_14:\n        /* \"Week5/Array1.sol\":262:267  array */\n      0x00\n        /* \"Week5/Array1.sol\":262:274  array.length */\n      sload\n        /* \"Week5/Array1.sol\":253:274  _index < array.length */\n      dup2\n      lt\n        /* \"Week5/Array1.sol\":245:275  require(_index < array.length) */\n      tag_22\n      jumpi\n      0x00\n      dup1\n      revert\n    tag_22:\n        /* \"Week5/Array1.sol\":299:305  _index */\n      dup1\n        /* \"Week5/Array1.sol\":285:380  for (uint i = _index; i < array.length - 1; i++) {... */\n    tag_23:\n        /* \"Week5/Array1.sol\":311:316  array */\n      0x00\n        /* \"Week5/Array1.sol\":311:323  array.length */\n      sload\n        /* \"Week5/Array1.sol\":311:327  array.length - 1 */\n      tag_26\n      swap1\n        /* \"Week5/Array1.sol\":326:327  1 */\n      0x01\n      swap1\n        /* \"Week5/Array1.sol\":311:327  array.length - 1 */\n      tag_27\n      jump\t// in\n    tag_26:\n        /* \"Week5/Array1.sol\":307:308  i */\n      dup2\n        /* \"Week5/Array1.sol\":307:327  i < array.length - 1 */\n      lt\n        /* \"Week5/Array1.sol\":285:380  for (uint i = _index; i < array.length - 1; i++) {... */\n      iszero\n      tag_24\n      jumpi\n        /* \"Week5/Array1.sol\":359:364  array */\n      0x00\n        /* \"Week5/Array1.sol\":365:368  i+1 */\n      tag_28\n        /* \"Week5/Array1.sol\":365:366  i */\n      dup3\n        /* \"Week5/Array1.sol\":367:368  1 */\n      0x01\n        /* \"Week5/Array1.sol\":365:368  i+1 */\n      tag_29\n      jump\t// in\n    tag_28:\n        /* \"Week5/Array1.sol\":359:369  array[i+1] */\n      dup2\n      sload\n      dup2\n      lt\n      tag_31\n      jumpi\n      tag_31\n      tag_32\n      jump\t// in\n    tag_31:\n      swap1\n      0x00\n      mstore\n      keccak256(0x00, 0x20)\n      add\n      sload\n        /* \"Week5/Array1.sol\":348:353  array */\n      0x00\n        /* \"Week5/Array1.sol\":354:355  i */\n      dup3\n        /* \"Week5/Array1.sol\":348:356  array[i] */\n      dup2\n      sload\n      dup2\n      lt\n      tag_35\n      jumpi\n      tag_35\n      tag_32\n      jump\t// in\n    tag_35:\n      0x00\n      swap2\n      dup3\n      mstore\n      0x20\n      swap1\n      swap2\n      keccak256\n      add\n        /* \"Week5/Array1.sol\":348:369  array[i] = array[i+1] */\n      sstore\n        /* \"Week5/Array1.sol\":329:332  i++ */\n      dup1\n      tag_37\n      dup2\n      tag_38\n      jump\t// in\n    tag_37:\n      swap2\n      pop\n      pop\n        /* \"Week5/Array1.sol\":285:380  for (uint i = _index; i < array.length - 1; i++) {... */\n      jump(tag_23)\n    tag_24:\n      pop\n        /* \"Week5/Array1.sol\":389:394  array */\n      0x00\n        /* \"Week5/Array1.sol\":389:400  array.pop() */\n      dup1\n      sload\n      dup1\n      tag_40\n      jumpi\n      tag_40\n      tag_41\n      jump\t// in\n    tag_40:\n      0x01\n      swap1\n      sub\n      dup2\n      dup2\n      swap1\n      0x00\n      mstore\n      keccak256(0x00, 0x20)\n      add\n      0x00\n      swap1\n      sstore\n      swap1\n      sstore\n        /* \"Week5/Array1.sol\":197:407  function remove(uint _index) external {... */\n      pop\n      jump\t// out\n        /* \"#utility.yul\":14:194   */\n    tag_8:\n        /* \"#utility.yul\":73:79   */\n      0x00\n        /* \"#utility.yul\":126:128   */\n      0x20\n        /* \"#utility.yul\":114:123   */\n      dup3\n        /* \"#utility.yul\":105:112   */\n      dup5\n        /* \"#utility.yul\":101:124   */\n      sub\n        /* \"#utility.yul\":97:129   */\n      slt\n        /* \"#utility.yul\":94:146   */\n      iszero\n      tag_47\n      jumpi\n        /* \"#utility.yul\":142:143   */\n      0x00\n        /* \"#utility.yul\":139:140   */\n      dup1\n        /* \"#utility.yul\":132:144   */\n      revert\n        /* \"#utility.yul\":94:146   */\n    tag_47:\n      pop\n        /* \"#utility.yul\":165:188   */\n      calldataload\n      swap2\n        /* \"#utility.yul\":14:194   */\n      swap1\n      pop\n      jump\t// out\n        /* \"#utility.yul\":381:1013   */\n    tag_18:\n        /* \"#utility.yul\":552:554   */\n      0x20\n        /* \"#utility.yul\":604:625   */\n      dup1\n      dup3\n      mstore\n        /* \"#utility.yul\":674:687   */\n      dup3\n      mload\n        /* \"#utility.yul\":577:595   */\n      dup3\n      dup3\n      add\n        /* \"#utility.yul\":696:718   */\n      dup2\n      swap1\n      mstore\n        /* \"#utility.yul\":523:527   */\n      0x00\n      swap2\n        /* \"#utility.yul\":552:554   */\n      swap1\n        /* \"#utility.yul\":775:790   */\n      dup5\n      dup3\n      add\n      swap1\n        /* \"#utility.yul\":749:751   */\n      0x40\n        /* \"#utility.yul\":734:752   */\n      dup6\n      add\n      swap1\n        /* \"#utility.yul\":523:527   */\n      dup5\n        /* \"#utility.yul\":818:987   */\n    tag_50:\n        /* \"#utility.yul\":832:838   */\n      dup2\n        /* \"#utility.yul\":829:830   */\n      dup2\n        /* \"#utility.yul\":826:839   */\n      lt\n        /* \"#utility.yul\":818:987   */\n      iszero\n      tag_52\n      jumpi\n        /* \"#utility.yul\":893:906   */\n      dup4\n      mload\n        /* \"#utility.yul\":881:907   */\n      dup4\n      mstore\n        /* \"#utility.yul\":962:977   */\n      swap3\n      dup5\n      add\n      swap3\n        /* \"#utility.yul\":927:939   */\n      swap2\n      dup5\n      add\n      swap2\n        /* \"#utility.yul\":854:855   */\n      0x01\n        /* \"#utility.yul\":847:856   */\n      add\n        /* \"#utility.yul\":818:987   */\n      jump(tag_50)\n    tag_52:\n      pop\n        /* \"#utility.yul\":1004:1007   */\n      swap1\n      swap7\n        /* \"#utility.yul\":381:1013   */\n      swap6\n      pop\n      pop\n      pop\n      pop\n      pop\n      pop\n      jump\t// out\n        /* \"#utility.yul\":1018:1145   */\n    tag_44:\n        /* \"#utility.yul\":1079:1089   */\n      0x4e487b71\n        /* \"#utility.yul\":1074:1077   */\n      0xe0\n        /* \"#utility.yul\":1070:1090   */\n      shl\n        /* \"#utility.yul\":1067:1068   */\n      0x00\n        /* \"#utility.yul\":1060:1091   */\n      mstore\n        /* \"#utility.yul\":1110:1114   */\n      0x11\n        /* \"#utility.yul\":1107:1108   */\n      0x04\n        /* \"#utility.yul\":1100:1115   */\n      mstore\n        /* \"#utility.yul\":1134:1138   */\n      0x24\n        /* \"#utility.yul\":1131:1132   */\n      0x00\n        /* \"#utility.yul\":1124:1139   */\n      revert\n        /* \"#utility.yul\":1150:1278   */\n    tag_27:\n        /* \"#utility.yul\":1217:1226   */\n      dup2\n      dup2\n      sub\n        /* \"#utility.yul\":1238:1249   */\n      dup2\n      dup2\n      gt\n        /* \"#utility.yul\":1235:1272   */\n      iszero\n      tag_56\n      jumpi\n        /* \"#utility.yul\":1252:1270   */\n      tag_56\n      tag_44\n      jump\t// in\n    tag_56:\n        /* \"#utility.yul\":1150:1278   */\n      swap3\n      swap2\n      pop\n      pop\n      jump\t// out\n        /* \"#utility.yul\":1283:1408   */\n    tag_29:\n        /* \"#utility.yul\":1348:1357   */\n      dup1\n      dup3\n      add\n        /* \"#utility.yul\":1369:1379   */\n      dup1\n      dup3\n      gt\n        /* \"#utility.yul\":1366:1402   */\n      iszero\n      tag_56\n      jumpi\n        /* \"#utility.yul\":1382:1400   */\n      tag_56\n      tag_44\n      jump\t// in\n        /* \"#utility.yul\":1413:1540   */\n    tag_32:\n        /* \"#utility.yul\":1474:1484   */\n      0x4e487b71\n        /* \"#utility.yul\":1469:1472   */\n      0xe0\n        /* \"#utility.yul\":1465:1485   */\n      shl\n        /* \"#utility.yul\":1462:1463   */\n      0x00\n        /* \"#utility.yul\":1455:1486   */\n      mstore\n        /* \"#utility.yul\":1505:1509   */\n      0x32\n        /* \"#utility.yul\":1502:1503   */\n      0x04\n        /* \"#utility.yul\":1495:1510   */\n      mstore\n        /* \"#utility.yul\":1529:1533   */\n      0x24\n        /* \"#utility.yul\":1526:1527   */\n      0x00\n        /* \"#utility.yul\":1519:1534   */\n      revert\n        /* \"#utility.yul\":1545:1680   */\n    tag_38:\n        /* \"#utility.yul\":1584:1587   */\n      0x00\n        /* \"#utility.yul\":1605:1622   */\n      0x01\n      dup3\n      add\n        /* \"#utility.yul\":1602:1645   */\n      tag_63\n      jumpi\n        /* \"#utility.yul\":1625:1643   */\n      tag_63\n      tag_44\n      jump\t// in\n    tag_63:\n      pop\n        /* \"#utility.yul\":1672:1673   */\n      0x01\n        /* \"#utility.yul\":1661:1674   */\n      add\n      swap1\n        /* \"#utility.yul\":1545:1680   */\n      jump\t// out\n        /* \"#utility.yul\":1685:1812   */\n    tag_41:\n        /* \"#utility.yul\":1746:1756   */\n      0x4e487b71\n        /* \"#utility.yul\":1741:1744   */\n      0xe0\n        /* \"#utility.yul\":1737:1757   */\n      shl\n        /* \"#utility.yul\":1734:1735   */\n      0x00\n        /* \"#utility.yul\":1727:1758   */\n      mstore\n        /* \"#utility.yul\":1777:1781   */\n      0x31\n        /* \"#utility.yul\":1774:1775   */\n      0x04\n        /* \"#utility.yul\":1767:1782   */\n      mstore\n        /* \"#utility.yul\":1801:1805   */\n      0x24\n        /* \"#utility.yul\":1798:1799   */\n      0x00\n        /* \"#utility.yul\":1791:1806   */\n      revert\n\n    auxdata: 0xa2646970667358221220e21413096a1452ac9da77d7c814ff29fd541aff4cb5231ad29bae2c825d1721e64736f6c63430008100033\n}\n",
				"bytecode": {
					"linkReferences": {},
					"object": "61012060405260016080908152600260a052600360c052600460e052600561010081905261002f91600091610042565b5034801561003c57600080fd5b506100a7565b828054828255906000526020600020908101928215610082579160200282015b82811115610082578251829060ff16905591602001919060010190610062565b5061008e929150610092565b5090565b5b8082111561008e5760008155600101610093565b610275806100b66000396000f3fe608060405234801561001057600080fd5b50600436106100415760003560e01c806338d94193146100465780634cc822151461006c5780636d4ce63c14610081575b600080fd5b61005961005436600461015b565b610090565b6040519081526020015b60405180910390f35b61007f61007a36600461015b565b6100b1565b005b60606040516100639190610174565b600081815481106100a057600080fd5b600091825260209091200154905081565b60005481106100bf57600080fd5b805b6000546100d0906001906101ce565b8110156101305760006100e48260016101e7565b815481106100f4576100f46101fa565b906000526020600020015460008281548110610112576101126101fa565b6000918252602090912001558061012881610210565b9150506100c1565b50600080548061014257610142610229565b6001900381819060005260206000200160009055905550565b60006020828403121561016d57600080fd5b5035919050565b6020808252825182820181905260009190848201906040850190845b818110156101ac57835183529284019291840191600101610190565b50909695505050505050565b634e487b7160e01b600052601160045260246000fd5b818103818111156101e1576101e16101b8565b92915050565b808201808211156101e1576101e16101b8565b634e487b7160e01b600052603260045260246000fd5b600060018201610222576102226101b8565b5060010190565b634e487b7160e01b600052603160045260246000fdfea2646970667358221220e21413096a1452ac9da77d7c814ff29fd541aff4cb5231ad29bae2c825d1721e64736f6c63430008100033",
					"opcodes": "PUSH2 0x120 PUSH1 0x40 MSTORE PUSH1 0x1 PUSH1 0x80 SWAP1 DUP2 MSTORE PUSH1 0x2 PUSH1 0xA0 MSTORE PUSH1 0x3 PUSH1 0xC0 MSTORE PUSH1 0x4 PUSH1 0xE0 MSTORE PUSH1 0x5 PUSH2 0x100 DUP2 SWAP1 MSTORE PUSH2 0x2F SWAP2 PUSH1 0x0 SWAP2 PUSH2 0x42 JUMP JUMPDEST POP CALLVALUE DUP1 ISZERO PUSH2 0x3C JUMPI PUSH1 0x0 DUP1 REVERT JUMPDEST POP PUSH2 0xA7 JUMP JUMPDEST DUP3 DUP1 SLOAD DUP3 DUP3 SSTORE SWAP1 PUSH1 0x0 MSTORE PUSH1 0x20 PUSH1 0x0 KECCAK256 SWAP1 DUP2 ADD SWAP3 DUP3 ISZERO PUSH2 0x82 JUMPI SWAP2 PUSH1 0x20 MUL DUP3 ADD JUMPDEST DUP3 DUP2 GT ISZERO PUSH2 0x82 JUMPI DUP3 MLOAD DUP3 SWAP1 PUSH1 0xFF AND SWAP1 SSTORE SWAP2 PUSH1 0x20 ADD SWAP2 SWAP1 PUSH1 0x1 ADD SWAP1 PUSH2 0x62 JUMP JUMPDEST POP PUSH2 0x8E SWAP3 SWAP2 POP PUSH2 0x92 JUMP JUMPDEST POP SWAP1 JUMP JUMPDEST JUMPDEST DUP1 DUP3 GT ISZERO PUSH2 0x8E JUMPI PUSH1 0x0 DUP2 SSTORE PUSH1 0x1 ADD PUSH2 0x93 JUMP JUMPDEST PUSH2 0x275 DUP1 PUSH2 0xB6 PUSH1 0x0 CODECOPY PUSH1 0x0 RETURN INVALID PUSH1 0x80 PUSH1 0x40 MSTORE CALLVALUE DUP1 ISZERO PUSH2 0x10 JUMPI PUSH1 0x0 DUP1 REVERT JUMPDEST POP PUSH1 0x4 CALLDATASIZE LT PUSH2 0x41 JUMPI PUSH1 0x0 CALLDATALOAD PUSH1 0xE0 SHR DUP1 PUSH4 0x38D94193 EQ PUSH2 0x46 JUMPI DUP1 PUSH4 0x4CC82215 EQ PUSH2 0x6C JUMPI DUP1 PUSH4 0x6D4CE63C EQ PUSH2 0x81 JUMPI JUMPDEST PUSH1 0x0 DUP1 REVERT JUMPDEST PUSH2 0x59 PUSH2 0x54 CALLDATASIZE PUSH1 0x4 PUSH2 0x15B JUMP JUMPDEST PUSH2 0x90 JUMP JUMPDEST PUSH1 0x40 MLOAD SWAP1 DUP2 MSTORE PUSH1 0x20 ADD JUMPDEST PUSH1 0x40 MLOAD DUP1 SWAP2 SUB SWAP1 RETURN JUMPDEST PUSH2 0x7F PUSH2 0x7A CALLDATASIZE PUSH1 0x4 PUSH2 0x15B JUMP JUMPDEST PUSH2 0xB1 JUMP JUMPDEST STOP JUMPDEST PUSH1 0x60 PUSH1 0x40 MLOAD PUSH2 0x63 SWAP2 SWAP1 PUSH2 0x174 JUMP JUMPDEST PUSH1 0x0 DUP2 DUP2 SLOAD DUP2 LT PUSH2 0xA0 JUMPI PUSH1 0x0 DUP1 REVERT JUMPDEST PUSH1 0x0 SWAP2 DUP3 MSTORE PUSH1 0x20 SWAP1 SWAP2 KECCAK256 ADD SLOAD SWAP1 POP DUP2 JUMP JUMPDEST PUSH1 0x0 SLOAD DUP2 LT PUSH2 0xBF JUMPI PUSH1 0x0 DUP1 REVERT JUMPDEST DUP1 JUMPDEST PUSH1 0x0 SLOAD PUSH2 0xD0 SWAP1 PUSH1 0x1 SWAP1 PUSH2 0x1CE JUMP JUMPDEST DUP2 LT ISZERO PUSH2 0x130 JUMPI PUSH1 0x0 PUSH2 0xE4 DUP3 PUSH1 0x1 PUSH2 0x1E7 JUMP JUMPDEST DUP2 SLOAD DUP2 LT PUSH2 0xF4 JUMPI PUSH2 0xF4 PUSH2 0x1FA JUMP JUMPDEST SWAP1 PUSH1 0x0 MSTORE PUSH1 0x20 PUSH1 0x0 KECCAK256 ADD SLOAD PUSH1 0x0 DUP3 DUP2 SLOAD DUP2 LT PUSH2 0x112 JUMPI PUSH2 0x112 PUSH2 0x1FA JUMP JUMPDEST PUSH1 0x0 SWAP2 DUP3 MSTORE PUSH1 0x20 SWAP1 SWAP2 KECCAK256 ADD SSTORE DUP1 PUSH2 0x128 DUP2 PUSH2 0x210 JUMP JUMPDEST SWAP2 POP POP PUSH2 0xC1 JUMP JUMPDEST POP PUSH1 0x0 DUP1 SLOAD DUP1 PUSH2 0x142 JUMPI PUSH2 0x142 PUSH2 0x229 JUMP JUMPDEST PUSH1 0x1 SWAP1 SUB DUP2 DUP2 SWAP1 PUSH1 0x0 MSTORE PUSH1 0x20 PUSH1 0x0 KECCAK256 ADD PUSH1 0x0 SWAP1 SSTORE SWAP1 SSTORE POP JUMP JUMPDEST PUSH1 0x0 PUSH1 0x20 DUP3 DUP5 SUB SLT ISZERO PUSH2 0x16D JUMPI PUSH1 0x0 DUP1 REVERT JUMPDEST POP CALLDATALOAD SWAP2 SWAP1 POP JUMP JUMPDEST PUSH1 0x20 DUP1 DUP3 MSTORE DUP3 MLOAD DUP3 DUP3 ADD DUP2 SWAP1 MSTORE PUSH1 0x0 SWAP2 SWAP1 DUP5 DUP3 ADD SWAP1 PUSH1 0x40 DUP6 ADD SWAP1 DUP5 JUMPDEST DUP2 DUP2 LT ISZERO PUSH2 0x1AC JUMPI DUP4 MLOAD DUP4 MSTORE SWAP3 DUP5 ADD SWAP3 SWAP2 DUP5 ADD SWAP2 PUSH1 0x1 ADD PUSH2 0x190 JUMP JUMPDEST POP SWAP1 SWAP7 SWAP6 POP POP POP POP POP POP JUMP JUMPDEST PUSH4 0x4E487B71 PUSH1 0xE0 SHL PUSH1 0x0 MSTORE PUSH1 0x11 PUSH1 0x4 MSTORE PUSH1 0x24 PUSH1 0x0 REVERT JUMPDEST DUP2 DUP2 SUB DUP2 DUP2 GT ISZERO PUSH2 0x1E1 JUMPI PUSH2 0x1E1 PUSH2 0x1B8 JUMP JUMPDEST SWAP3 SWAP2 POP POP JUMP JUMPDEST DUP1 DUP3 ADD DUP1 DUP3 GT ISZERO PUSH2 0x1E1 JUMPI PUSH2 0x1E1 PUSH2 0x1B8 JUMP JUMPDEST PUSH4 0x4E487B71 PUSH1 0xE0 SHL PUSH1 0x0 MSTORE PUSH1 0x32 PUSH1 0x4 MSTORE PUSH1 0x24 PUSH1 0x0 REVERT JUMPDEST PUSH1 0x0 PUSH1 0x1 DUP3 ADD PUSH2 0x222 JUMPI PUSH2 0x222 PUSH2 0x1B8 JUMP JUMPDEST POP PUSH1 0x1 ADD SWAP1 JUMP JUMPDEST PUSH4 0x4E487B71 PUSH1 0xE0 SHL PUSH1 0x0 MSTORE PUSH1 0x31 PUSH1 0x4 MSTORE PUSH1 0x24 PUSH1 0x0 REVERT INVALID LOG2 PUSH5 0x6970667358 0x22 SLT KECCAK256 0xE2 EQ SGT MULMOD PUSH11 0x1452AC9DA77D7C814FF29F 0xD5 COINBASE 0xAF DELEGATECALL 0xCB MSTORE BALANCE 0xAD 0x29 0xBA 0xE2 0xC8 0x25 0xD1 PUSH19 0x1E64736F6C6343000810003300000000000000 "
				},
				"gasEstimates": {
					"creation": {
						"codeDepositCost": "125800",
						"executionCost": "infinite",
						"totalCost": "infinite"
					},
					"external": {
						"array(uint256)": "4542",
						"get()": "infinite",
						"remove(uint256)": "infinite"
					}
				},
				"methodIdentifiers": {
					"array(uint256)": "38d94193",
					"get()": "6d4ce63c",
					"remove(uint256)": "4cc82215"
				}
			},
			"storageLayout": {
				"storage": [
					{
						"astId": 10,
						"contract": "Week5/Array1.sol:Array1",
						"label": "array",
						"offset": 0,
						"slot": "0",
						"type": "t_array(t_uint256)dyn_storage"
					}
				],
				"types": {
					"t_array(t_uint256)dyn_storage": {
						"base": "t_uint256",
						"encoding": "dynamic_array",
						"label": "uint256[]",
						"numberOfBytes": "32"
					},
					"t_uint256": {
						"encoding": "inplace",
						"label": "uint256",
						"numberOfBytes": "32"
					}
				}
			},
			"userdoc": {
				"kind": "user",
				"methods": {},
				"version": 1
			}
		}
	}
}