{
	"Week5/TodoList.sol": {
		"TodoList": {
			"abi": [
				{
					"inputs": [
						{
							"internalType": "string",
							"name": "_text",
							"type": "string"
						}
					],
					"name": "createTodo",
					"outputs": [],
					"stateMutability": "nonpayable",
					"type": "function"
				},
				{
					"inputs": [
						{
							"internalType": "uint256",
							"name": "_index",
							"type": "uint256"
						}
					],
					"name": "toggleTodo",
					"outputs": [],
					"stateMutability": "nonpayable",
					"type": "function"
				},
				{
					"inputs": [
						{
							"internalType": "uint256",
							"name": "_index",
							"type": "uint256"
						},
						{
							"internalType": "string",
							"name": "_text",
							"type": "string"
						}
					],
					"name": "updateTodo",
					"outputs": [],
					"stateMutability": "nonpayable",
					"type": "function"
				}
			],
			"devdoc": {
				"kind": "dev",
				"methods": {},
				"version": 1
			},
			"evm": {
				"assembly": "    /* \"Week5/TodoList.sol\":70:609  contract TodoList {... */\n  mstore(0x40, 0x80)\n  callvalue\n  dup1\n  iszero\n  tag_1\n  jumpi\n  0x00\n  dup1\n  revert\ntag_1:\n  pop\n  dataSize(sub_0)\n  dup1\n  dataOffset(sub_0)\n  0x00\n  codecopy\n  0x00\n  return\nstop\n\nsub_0: assembly {\n        /* \"Week5/TodoList.sol\":70:609  contract TodoList {... */\n      mstore(0x40, 0x80)\n      callvalue\n      dup1\n      iszero\n      tag_1\n      jumpi\n      0x00\n      dup1\n      revert\n    tag_1:\n      pop\n      jumpi(tag_2, lt(calldatasize, 0x04))\n      shr(0xe0, calldataload(0x00))\n      dup1\n      0xd534ee88\n      eq\n      tag_3\n      jumpi\n      dup1\n      0xdc00282c\n      eq\n      tag_4\n      jumpi\n      dup1\n      0xe34f1221\n      eq\n      tag_5\n      jumpi\n    tag_2:\n      0x00\n      dup1\n      revert\n        /* \"Week5/TodoList.sol\":291:446  function updateTodo(uint _index, string calldata _text) external  {... */\n    tag_3:\n      tag_6\n      tag_7\n      calldatasize\n      0x04\n      tag_8\n      jump\t// in\n    tag_7:\n      tag_9\n      jump\t// in\n    tag_6:\n      stop\n        /* \"Week5/TodoList.sol\":452:607  function toggleTodo(uint _index) external  {... */\n    tag_4:\n      tag_6\n      tag_11\n      calldatasize\n      0x04\n      tag_12\n      jump\t// in\n    tag_11:\n      tag_13\n      jump\t// in\n        /* \"Week5/TodoList.sol\":183:285  function createTodo(string calldata _text) external {... */\n    tag_5:\n      tag_6\n      tag_15\n      calldatasize\n      0x04\n      tag_16\n      jump\t// in\n    tag_15:\n      tag_17\n      jump\t// in\n        /* \"Week5/TodoList.sol\":291:446  function updateTodo(uint _index, string calldata _text) external  {... */\n    tag_9:\n        /* \"Week5/TodoList.sol\":384:392  todoList */\n      0x00\n        /* \"Week5/TodoList.sol\":384:399  todoList.length */\n      sload\n        /* \"Week5/TodoList.sol\":375:399  _index < todoList.length */\n      dup4\n      lt\n        /* \"Week5/TodoList.sol\":367:400  require(_index < todoList.length) */\n      tag_19\n      jumpi\n      0x00\n      dup1\n      revert\n    tag_19:\n        /* \"Week5/TodoList.sol\":434:439  _text */\n      dup2\n      dup2\n        /* \"Week5/TodoList.sol\":410:418  todoList */\n      0x00\n        /* \"Week5/TodoList.sol\":419:425  _index */\n      dup6\n        /* \"Week5/TodoList.sol\":410:426  todoList[_index] */\n      dup2\n      sload\n      dup2\n      lt\n      tag_21\n      jumpi\n      tag_21\n      tag_22\n      jump\t// in\n    tag_21:\n      swap1\n      0x00\n      mstore\n      keccak256(0x00, 0x20)\n      swap1\n      0x02\n      mul\n      add\n        /* \"Week5/TodoList.sol\":410:431  todoList[_index].text */\n      0x00\n      add\n        /* \"Week5/TodoList.sol\":410:439  todoList[_index].text = _text */\n      swap2\n      dup3\n      tag_24\n      swap3\n      swap2\n      swap1\n      tag_25\n      jump\t// in\n    tag_24:\n      pop\n        /* \"Week5/TodoList.sol\":291:446  function updateTodo(uint _index, string calldata _text) external  {... */\n      pop\n      pop\n      pop\n      jump\t// out\n        /* \"Week5/TodoList.sol\":452:607  function toggleTodo(uint _index) external  {... */\n    tag_13:\n        /* \"Week5/TodoList.sol\":522:530  todoList */\n      0x00\n        /* \"Week5/TodoList.sol\":522:537  todoList.length */\n      sload\n        /* \"Week5/TodoList.sol\":513:537  _index < todoList.length */\n      dup2\n      lt\n        /* \"Week5/TodoList.sol\":505:538  require(_index < todoList.length) */\n      tag_27\n      jumpi\n      0x00\n      dup1\n      revert\n    tag_27:\n        /* \"Week5/TodoList.sol\":576:584  todoList */\n      0x00\n        /* \"Week5/TodoList.sol\":585:591  _index */\n      dup2\n        /* \"Week5/TodoList.sol\":576:592  todoList[_index] */\n      dup2\n      sload\n      dup2\n      lt\n      tag_29\n      jumpi\n      tag_29\n      tag_22\n      jump\t// in\n    tag_29:\n      0x00\n      swap2\n      dup3\n      mstore\n      0x20\n      dup3\n      keccak256\n        /* \"Week5/TodoList.sol\":576:600  todoList[_index].isCheck */\n      0x01\n        /* \"Week5/TodoList.sol\":576:592  todoList[_index] */\n      0x02\n      swap1\n      swap3\n      mul\n      add\n        /* \"Week5/TodoList.sol\":576:600  todoList[_index].isCheck */\n      add\n      sload\n        /* \"Week5/TodoList.sol\":548:564  todoList[_index] */\n      dup2\n      sload\n        /* \"Week5/TodoList.sol\":576:600  todoList[_index].isCheck */\n      0xff\n      swap1\n      swap2\n      and\n        /* \"Week5/TodoList.sol\":575:600  !todoList[_index].isCheck */\n      iszero\n      swap2\n        /* \"Week5/TodoList.sol\":576:592  todoList[_index] */\n      swap1\n        /* \"Week5/TodoList.sol\":557:563  _index */\n      dup4\n      swap1\n        /* \"Week5/TodoList.sol\":548:564  todoList[_index] */\n      dup2\n      lt\n      tag_32\n      jumpi\n      tag_32\n      tag_22\n      jump\t// in\n    tag_32:\n      0x00\n      swap2\n      dup3\n      mstore\n      0x20\n      swap1\n      swap2\n      keccak256\n      0x02\n      swap1\n      swap2\n      mul\n      add\n        /* \"Week5/TodoList.sol\":548:572  todoList[_index].isCheck */\n      0x01\n      add\n        /* \"Week5/TodoList.sol\":548:600  todoList[_index].isCheck = !todoList[_index].isCheck */\n      dup1\n      sload\n      not(0xff)\n      and\n      swap2\n      iszero\n      iszero\n      swap2\n      swap1\n      swap2\n      or\n      swap1\n      sstore\n      pop\n        /* \"Week5/TodoList.sol\":452:607  function toggleTodo(uint _index) external  {... */\n      jump\t// out\n        /* \"Week5/TodoList.sol\":183:285  function createTodo(string calldata _text) external {... */\n    tag_17:\n        /* \"Week5/TodoList.sol\":259:277  Todo(_text, false) */\n      0x40\n      dup1\n      mload\n      0x60\n      0x20\n      0x1f\n      dup6\n      add\n      dup2\n      swap1\n      div\n      mul\n      dup3\n      add\n      dup2\n      add\n      dup4\n      mstore\n      swap2\n      dup2\n      add\n      dup4\n      dup2\n      mstore\n        /* \"Week5/TodoList.sol\":245:253  todoList */\n      0x00\n      swap3\n        /* \"Week5/TodoList.sol\":259:277  Todo(_text, false) */\n      dup3\n      swap2\n      swap1\n        /* \"Week5/TodoList.sol\":264:269  _text */\n      dup7\n      swap1\n      dup7\n      swap1\n      dup2\n      swap1\n        /* \"Week5/TodoList.sol\":259:277  Todo(_text, false) */\n      dup6\n      add\n        /* \"Week5/TodoList.sol\":264:269  _text */\n      dup4\n      dup3\n      dup1\n      dup3\n        /* \"Week5/TodoList.sol\":259:277  Todo(_text, false) */\n      dup5\n      calldatacopy\n      0x00\n      swap3\n      add\n      dup3\n      swap1\n      mstore\n      pop\n      swap4\n      dup6\n      mstore\n      pop\n      pop\n      pop\n      0x20\n      swap2\n      dup3\n      add\n      dup2\n      swap1\n      mstore\n        /* \"Week5/TodoList.sol\":245:278  todoList.push(Todo(_text, false)) */\n      dup4\n      sload\n        /* \"Week5/TodoList.sol\":259:277  Todo(_text, false) */\n      0x01\n        /* \"Week5/TodoList.sol\":245:278  todoList.push(Todo(_text, false)) */\n      dup2\n      add\n      dup6\n      sstore\n      swap4\n      dup2\n      mstore\n      keccak256\n      dup2\n      mload\n      swap2\n      swap3\n      0x02\n      mul\n      add\n      swap1\n      dup2\n      swap1\n      tag_36\n      swap1\n      dup3\n      tag_37\n      jump\t// in\n    tag_36:\n      pop\n      0x20\n      swap2\n      swap1\n      swap2\n      add\n      mload\n      0x01\n      swap1\n      swap2\n      add\n      dup1\n      sload\n      not(0xff)\n      and\n      swap2\n      iszero\n      iszero\n      swap2\n      swap1\n      swap2\n      or\n      swap1\n      sstore\n      pop\n      pop\n        /* \"Week5/TodoList.sol\":183:285  function createTodo(string calldata _text) external {... */\n      jump\t// out\n        /* \"#utility.yul\":14:362   */\n    tag_38:\n        /* \"#utility.yul\":66:74   */\n      0x00\n        /* \"#utility.yul\":76:82   */\n      dup1\n        /* \"#utility.yul\":130:133   */\n      dup4\n        /* \"#utility.yul\":123:127   */\n      0x1f\n        /* \"#utility.yul\":115:121   */\n      dup5\n        /* \"#utility.yul\":111:128   */\n      add\n        /* \"#utility.yul\":107:134   */\n      slt\n        /* \"#utility.yul\":97:152   */\n      tag_46\n      jumpi\n        /* \"#utility.yul\":148:149   */\n      0x00\n        /* \"#utility.yul\":145:146   */\n      dup1\n        /* \"#utility.yul\":138:150   */\n      revert\n        /* \"#utility.yul\":97:152   */\n    tag_46:\n      pop\n        /* \"#utility.yul\":171:191   */\n      dup2\n      calldataload\n        /* \"#utility.yul\":214:232   */\n      0xffffffffffffffff\n        /* \"#utility.yul\":203:233   */\n      dup2\n      gt\n        /* \"#utility.yul\":200:250   */\n      iszero\n      tag_47\n      jumpi\n        /* \"#utility.yul\":246:247   */\n      0x00\n        /* \"#utility.yul\":243:244   */\n      dup1\n        /* \"#utility.yul\":236:248   */\n      revert\n        /* \"#utility.yul\":200:250   */\n    tag_47:\n        /* \"#utility.yul\":283:287   */\n      0x20\n        /* \"#utility.yul\":275:281   */\n      dup4\n        /* \"#utility.yul\":271:288   */\n      add\n        /* \"#utility.yul\":259:288   */\n      swap2\n      pop\n        /* \"#utility.yul\":335:338   */\n      dup4\n        /* \"#utility.yul\":328:332   */\n      0x20\n        /* \"#utility.yul\":319:325   */\n      dup3\n        /* \"#utility.yul\":311:317   */\n      dup6\n        /* \"#utility.yul\":307:326   */\n      add\n        /* \"#utility.yul\":303:333   */\n      add\n        /* \"#utility.yul\":300:339   */\n      gt\n        /* \"#utility.yul\":297:356   */\n      iszero\n      tag_48\n      jumpi\n        /* \"#utility.yul\":352:353   */\n      0x00\n        /* \"#utility.yul\":349:350   */\n      dup1\n        /* \"#utility.yul\":342:354   */\n      revert\n        /* \"#utility.yul\":297:356   */\n    tag_48:\n        /* \"#utility.yul\":14:362   */\n      swap3\n      pop\n      swap3\n      swap1\n      pop\n      jump\t// out\n        /* \"#utility.yul\":367:846   */\n    tag_8:\n        /* \"#utility.yul\":447:453   */\n      0x00\n        /* \"#utility.yul\":455:461   */\n      dup1\n        /* \"#utility.yul\":463:469   */\n      0x00\n        /* \"#utility.yul\":516:518   */\n      0x40\n        /* \"#utility.yul\":504:513   */\n      dup5\n        /* \"#utility.yul\":495:502   */\n      dup7\n        /* \"#utility.yul\":491:514   */\n      sub\n        /* \"#utility.yul\":487:519   */\n      slt\n        /* \"#utility.yul\":484:536   */\n      iszero\n      tag_50\n      jumpi\n        /* \"#utility.yul\":532:533   */\n      0x00\n        /* \"#utility.yul\":529:530   */\n      dup1\n        /* \"#utility.yul\":522:534   */\n      revert\n        /* \"#utility.yul\":484:536   */\n    tag_50:\n        /* \"#utility.yul\":568:577   */\n      dup4\n        /* \"#utility.yul\":555:578   */\n      calldataload\n        /* \"#utility.yul\":545:578   */\n      swap3\n      pop\n        /* \"#utility.yul\":629:631   */\n      0x20\n        /* \"#utility.yul\":618:627   */\n      dup5\n        /* \"#utility.yul\":614:632   */\n      add\n        /* \"#utility.yul\":601:633   */\n      calldataload\n        /* \"#utility.yul\":656:674   */\n      0xffffffffffffffff\n        /* \"#utility.yul\":648:654   */\n      dup2\n        /* \"#utility.yul\":645:675   */\n      gt\n        /* \"#utility.yul\":642:692   */\n      iszero\n      tag_51\n      jumpi\n        /* \"#utility.yul\":688:689   */\n      0x00\n        /* \"#utility.yul\":685:686   */\n      dup1\n        /* \"#utility.yul\":678:690   */\n      revert\n        /* \"#utility.yul\":642:692   */\n    tag_51:\n        /* \"#utility.yul\":727:786   */\n      tag_52\n        /* \"#utility.yul\":778:785   */\n      dup7\n        /* \"#utility.yul\":769:775   */\n      dup3\n        /* \"#utility.yul\":758:767   */\n      dup8\n        /* \"#utility.yul\":754:776   */\n      add\n        /* \"#utility.yul\":727:786   */\n      tag_38\n      jump\t// in\n    tag_52:\n        /* \"#utility.yul\":367:846   */\n      swap5\n      swap8\n        /* \"#utility.yul\":805:813   */\n      swap1\n      swap7\n      pop\n        /* \"#utility.yul\":701:786   */\n      swap4\n      swap5\n      pop\n      pop\n      pop\n      pop\n        /* \"#utility.yul\":367:846   */\n      jump\t// out\n        /* \"#utility.yul\":851:1031   */\n    tag_12:\n        /* \"#utility.yul\":910:916   */\n      0x00\n        /* \"#utility.yul\":963:965   */\n      0x20\n        /* \"#utility.yul\":951:960   */\n      dup3\n        /* \"#utility.yul\":942:949   */\n      dup5\n        /* \"#utility.yul\":938:961   */\n      sub\n        /* \"#utility.yul\":934:966   */\n      slt\n        /* \"#utility.yul\":931:983   */\n      iszero\n      tag_54\n      jumpi\n        /* \"#utility.yul\":979:980   */\n      0x00\n        /* \"#utility.yul\":976:977   */\n      dup1\n        /* \"#utility.yul\":969:981   */\n      revert\n        /* \"#utility.yul\":931:983   */\n    tag_54:\n      pop\n        /* \"#utility.yul\":1002:1025   */\n      calldataload\n      swap2\n        /* \"#utility.yul\":851:1031   */\n      swap1\n      pop\n      jump\t// out\n        /* \"#utility.yul\":1036:1447   */\n    tag_16:\n        /* \"#utility.yul\":1107:1113   */\n      0x00\n        /* \"#utility.yul\":1115:1121   */\n      dup1\n        /* \"#utility.yul\":1168:1170   */\n      0x20\n        /* \"#utility.yul\":1156:1165   */\n      dup4\n        /* \"#utility.yul\":1147:1154   */\n      dup6\n        /* \"#utility.yul\":1143:1166   */\n      sub\n        /* \"#utility.yul\":1139:1171   */\n      slt\n        /* \"#utility.yul\":1136:1188   */\n      iszero\n      tag_56\n      jumpi\n        /* \"#utility.yul\":1184:1185   */\n      0x00\n        /* \"#utility.yul\":1181:1182   */\n      dup1\n        /* \"#utility.yul\":1174:1186   */\n      revert\n        /* \"#utility.yul\":1136:1188   */\n    tag_56:\n        /* \"#utility.yul\":1224:1233   */\n      dup3\n        /* \"#utility.yul\":1211:1234   */\n      calldataload\n        /* \"#utility.yul\":1257:1275   */\n      0xffffffffffffffff\n        /* \"#utility.yul\":1249:1255   */\n      dup2\n        /* \"#utility.yul\":1246:1276   */\n      gt\n        /* \"#utility.yul\":1243:1293   */\n      iszero\n      tag_57\n      jumpi\n        /* \"#utility.yul\":1289:1290   */\n      0x00\n        /* \"#utility.yul\":1286:1287   */\n      dup1\n        /* \"#utility.yul\":1279:1291   */\n      revert\n        /* \"#utility.yul\":1243:1293   */\n    tag_57:\n        /* \"#utility.yul\":1328:1387   */\n      tag_58\n        /* \"#utility.yul\":1379:1386   */\n      dup6\n        /* \"#utility.yul\":1370:1376   */\n      dup3\n        /* \"#utility.yul\":1359:1368   */\n      dup7\n        /* \"#utility.yul\":1355:1377   */\n      add\n        /* \"#utility.yul\":1328:1387   */\n      tag_38\n      jump\t// in\n    tag_58:\n        /* \"#utility.yul\":1406:1414   */\n      swap1\n      swap7\n        /* \"#utility.yul\":1302:1387   */\n      swap1\n      swap6\n      pop\n        /* \"#utility.yul\":1036:1447   */\n      swap4\n      pop\n      pop\n      pop\n      pop\n      jump\t// out\n        /* \"#utility.yul\":1452:1579   */\n    tag_22:\n        /* \"#utility.yul\":1513:1523   */\n      0x4e487b71\n        /* \"#utility.yul\":1508:1511   */\n      0xe0\n        /* \"#utility.yul\":1504:1524   */\n      shl\n        /* \"#utility.yul\":1501:1502   */\n      0x00\n        /* \"#utility.yul\":1494:1525   */\n      mstore\n        /* \"#utility.yul\":1544:1548   */\n      0x32\n        /* \"#utility.yul\":1541:1542   */\n      0x04\n        /* \"#utility.yul\":1534:1549   */\n      mstore\n        /* \"#utility.yul\":1568:1572   */\n      0x24\n        /* \"#utility.yul\":1565:1566   */\n      0x00\n        /* \"#utility.yul\":1558:1573   */\n      revert\n        /* \"#utility.yul\":1584:1711   */\n    tag_39:\n        /* \"#utility.yul\":1645:1655   */\n      0x4e487b71\n        /* \"#utility.yul\":1640:1643   */\n      0xe0\n        /* \"#utility.yul\":1636:1656   */\n      shl\n        /* \"#utility.yul\":1633:1634   */\n      0x00\n        /* \"#utility.yul\":1626:1657   */\n      mstore\n        /* \"#utility.yul\":1676:1680   */\n      0x41\n        /* \"#utility.yul\":1673:1674   */\n      0x04\n        /* \"#utility.yul\":1666:1681   */\n      mstore\n        /* \"#utility.yul\":1700:1704   */\n      0x24\n        /* \"#utility.yul\":1697:1698   */\n      0x00\n        /* \"#utility.yul\":1690:1705   */\n      revert\n        /* \"#utility.yul\":1716:2096   */\n    tag_40:\n        /* \"#utility.yul\":1795:1796   */\n      0x01\n        /* \"#utility.yul\":1791:1803   */\n      dup2\n      dup2\n      shr\n      swap1\n        /* \"#utility.yul\":1838:1850   */\n      dup3\n      and\n      dup1\n        /* \"#utility.yul\":1859:1920   */\n      tag_62\n      jumpi\n        /* \"#utility.yul\":1913:1917   */\n      0x7f\n        /* \"#utility.yul\":1905:1911   */\n      dup3\n        /* \"#utility.yul\":1901:1918   */\n      and\n        /* \"#utility.yul\":1891:1918   */\n      swap2\n      pop\n        /* \"#utility.yul\":1859:1920   */\n    tag_62:\n        /* \"#utility.yul\":1966:1968   */\n      0x20\n        /* \"#utility.yul\":1958:1964   */\n      dup3\n        /* \"#utility.yul\":1955:1969   */\n      lt\n        /* \"#utility.yul\":1935:1953   */\n      dup2\n        /* \"#utility.yul\":1932:1970   */\n      sub\n        /* \"#utility.yul\":1929:2090   */\n      tag_63\n      jumpi\n        /* \"#utility.yul\":2012:2022   */\n      0x4e487b71\n        /* \"#utility.yul\":2007:2010   */\n      0xe0\n        /* \"#utility.yul\":2003:2023   */\n      shl\n        /* \"#utility.yul\":2000:2001   */\n      0x00\n        /* \"#utility.yul\":1993:2024   */\n      mstore\n        /* \"#utility.yul\":2047:2051   */\n      0x22\n        /* \"#utility.yul\":2044:2045   */\n      0x04\n        /* \"#utility.yul\":2037:2052   */\n      mstore\n        /* \"#utility.yul\":2075:2079   */\n      0x24\n        /* \"#utility.yul\":2072:2073   */\n      0x00\n        /* \"#utility.yul\":2065:2080   */\n      revert\n        /* \"#utility.yul\":1929:2090   */\n    tag_63:\n      pop\n        /* \"#utility.yul\":1716:2096   */\n      swap2\n      swap1\n      pop\n      jump\t// out\n        /* \"#utility.yul\":2227:2772   */\n    tag_42:\n        /* \"#utility.yul\":2329:2331   */\n      0x1f\n        /* \"#utility.yul\":2324:2327   */\n      dup3\n        /* \"#utility.yul\":2321:2332   */\n      gt\n        /* \"#utility.yul\":2318:2766   */\n      iszero\n      tag_66\n      jumpi\n        /* \"#utility.yul\":2365:2366   */\n      0x00\n        /* \"#utility.yul\":2390:2395   */\n      dup2\n        /* \"#utility.yul\":2386:2388   */\n      dup2\n        /* \"#utility.yul\":2379:2396   */\n      mstore\n        /* \"#utility.yul\":2435:2439   */\n      0x20\n        /* \"#utility.yul\":2431:2433   */\n      dup2\n        /* \"#utility.yul\":2421:2440   */\n      keccak256\n        /* \"#utility.yul\":2505:2507   */\n      0x1f\n        /* \"#utility.yul\":2493:2503   */\n      dup6\n        /* \"#utility.yul\":2489:2508   */\n      add\n        /* \"#utility.yul\":2486:2487   */\n      0x05\n        /* \"#utility.yul\":2482:2509   */\n      shr\n        /* \"#utility.yul\":2476:2480   */\n      dup2\n        /* \"#utility.yul\":2472:2510   */\n      add\n        /* \"#utility.yul\":2541:2545   */\n      0x20\n        /* \"#utility.yul\":2529:2539   */\n      dup7\n        /* \"#utility.yul\":2526:2546   */\n      lt\n        /* \"#utility.yul\":2523:2570   */\n      iszero\n      tag_67\n      jumpi\n      pop\n        /* \"#utility.yul\":2564:2568   */\n      dup1\n        /* \"#utility.yul\":2523:2570   */\n    tag_67:\n        /* \"#utility.yul\":2619:2621   */\n      0x1f\n        /* \"#utility.yul\":2614:2617   */\n      dup6\n        /* \"#utility.yul\":2610:2622   */\n      add\n        /* \"#utility.yul\":2607:2608   */\n      0x05\n        /* \"#utility.yul\":2603:2623   */\n      shr\n        /* \"#utility.yul\":2597:2601   */\n      dup3\n        /* \"#utility.yul\":2593:2624   */\n      add\n        /* \"#utility.yul\":2583:2624   */\n      swap2\n      pop\n        /* \"#utility.yul\":2674:2756   */\n    tag_68:\n        /* \"#utility.yul\":2692:2694   */\n      dup2\n        /* \"#utility.yul\":2685:2690   */\n      dup2\n        /* \"#utility.yul\":2682:2695   */\n      lt\n        /* \"#utility.yul\":2674:2756   */\n      iszero\n      tag_70\n      jumpi\n        /* \"#utility.yul\":2737:2754   */\n      dup3\n      dup2\n      sstore\n        /* \"#utility.yul\":2718:2719   */\n      0x01\n        /* \"#utility.yul\":2707:2720   */\n      add\n        /* \"#utility.yul\":2674:2756   */\n      jump(tag_68)\n    tag_70:\n        /* \"#utility.yul\":2678:2681   */\n      pop\n      pop\n      pop\n        /* \"#utility.yul\":2318:2766   */\n    tag_66:\n        /* \"#utility.yul\":2227:2772   */\n      pop\n      pop\n      pop\n      jump\t// out\n        /* \"#utility.yul\":2948:4154   */\n    tag_25:\n        /* \"#utility.yul\":3072:3090   */\n      0xffffffffffffffff\n        /* \"#utility.yul\":3067:3070   */\n      dup4\n        /* \"#utility.yul\":3064:3091   */\n      gt\n        /* \"#utility.yul\":3061:3114   */\n      iszero\n      tag_74\n      jumpi\n        /* \"#utility.yul\":3094:3112   */\n      tag_74\n      tag_39\n      jump\t// in\n    tag_74:\n        /* \"#utility.yul\":3123:3217   */\n      tag_75\n        /* \"#utility.yul\":3213:3216   */\n      dup4\n        /* \"#utility.yul\":3173:3211   */\n      tag_76\n        /* \"#utility.yul\":3205:3209   */\n      dup4\n        /* \"#utility.yul\":3199:3210   */\n      sload\n        /* \"#utility.yul\":3173:3211   */\n      tag_40\n      jump\t// in\n    tag_76:\n        /* \"#utility.yul\":3167:3171   */\n      dup4\n        /* \"#utility.yul\":3123:3217   */\n      tag_42\n      jump\t// in\n    tag_75:\n        /* \"#utility.yul\":3243:3244   */\n      0x00\n        /* \"#utility.yul\":3268:3270   */\n      0x1f\n        /* \"#utility.yul\":3263:3266   */\n      dup5\n        /* \"#utility.yul\":3260:3271   */\n      gt\n        /* \"#utility.yul\":3285:3286   */\n      0x01\n        /* \"#utility.yul\":3280:3896   */\n      dup2\n      eq\n      tag_78\n      jumpi\n        /* \"#utility.yul\":3940:3941   */\n      0x00\n        /* \"#utility.yul\":3957:3960   */\n      dup6\n        /* \"#utility.yul\":3954:4047   */\n      iszero\n      tag_79\n      jumpi\n      pop\n        /* \"#utility.yul\":4013:4032   */\n      dup4\n      dup3\n      add\n        /* \"#utility.yul\":4000:4033   */\n      calldataload\n        /* \"#utility.yul\":3954:4047   */\n    tag_79:\n      not(0x00)\n        /* \"#utility.yul\":2905:2906   */\n      0x03\n        /* \"#utility.yul\":2901:2912   */\n      dup8\n      swap1\n      shl\n        /* \"#utility.yul\":2897:2921   */\n      shr\n        /* \"#utility.yul\":2893:2922   */\n      not\n        /* \"#utility.yul\":2883:2923   */\n      and\n        /* \"#utility.yul\":2929:2930   */\n      0x01\n        /* \"#utility.yul\":2925:2936   */\n      dup7\n      swap1\n      shl\n        /* \"#utility.yul\":2880:2937   */\n      or\n        /* \"#utility.yul\":4060:4138   */\n      dup4\n      sstore\n        /* \"#utility.yul\":3253:4148   */\n      jump(tag_77)\n        /* \"#utility.yul\":3280:3896   */\n    tag_78:\n        /* \"#utility.yul\":2174:2175   */\n      0x00\n        /* \"#utility.yul\":2167:2181   */\n      dup4\n      dup2\n      mstore\n        /* \"#utility.yul\":2211:2215   */\n      0x20\n        /* \"#utility.yul\":2198:2216   */\n      swap1\n      keccak256\n      not(0x1f)\n        /* \"#utility.yul\":3316:3333   */\n      dup7\n      and\n      swap1\n        /* \"#utility.yul\":3417:3426   */\n      dup4\n        /* \"#utility.yul\":3439:3668   */\n    tag_82:\n        /* \"#utility.yul\":3453:3460   */\n      dup3\n        /* \"#utility.yul\":3450:3451   */\n      dup2\n        /* \"#utility.yul\":3447:3461   */\n      lt\n        /* \"#utility.yul\":3439:3668   */\n      iszero\n      tag_84\n      jumpi\n        /* \"#utility.yul\":3542:3561   */\n      dup7\n      dup6\n      add\n        /* \"#utility.yul\":3529:3562   */\n      calldataload\n        /* \"#utility.yul\":3514:3563   */\n      dup3\n      sstore\n        /* \"#utility.yul\":3649:3653   */\n      0x20\n        /* \"#utility.yul\":3634:3654   */\n      swap5\n      dup6\n      add\n      swap5\n        /* \"#utility.yul\":3602:3603   */\n      0x01\n        /* \"#utility.yul\":3590:3604   */\n      swap1\n      swap3\n      add\n      swap2\n        /* \"#utility.yul\":3469:3481   */\n      add\n        /* \"#utility.yul\":3439:3668   */\n      jump(tag_82)\n    tag_84:\n        /* \"#utility.yul\":3443:3446   */\n      pop\n        /* \"#utility.yul\":3696:3699   */\n      dup7\n        /* \"#utility.yul\":3687:3694   */\n      dup3\n        /* \"#utility.yul\":3684:3700   */\n      lt\n        /* \"#utility.yul\":3681:3840   */\n      iszero\n      tag_85\n      jumpi\n        /* \"#utility.yul\":3820:3821   */\n      0x00\n        /* \"#utility.yul\":3816:3822   */\n      not\n        /* \"#utility.yul\":3810:3813   */\n      0xf8\n        /* \"#utility.yul\":3804:3807   */\n      dup9\n        /* \"#utility.yul\":3801:3802   */\n      0x03\n        /* \"#utility.yul\":3797:3808   */\n      shl\n        /* \"#utility.yul\":3793:3814   */\n      and\n        /* \"#utility.yul\":3789:3823   */\n      shr\n        /* \"#utility.yul\":3785:3824   */\n      not\n        /* \"#utility.yul\":3772:3781   */\n      dup5\n        /* \"#utility.yul\":3767:3770   */\n      dup8\n        /* \"#utility.yul\":3763:3782   */\n      add\n        /* \"#utility.yul\":3750:3783   */\n      calldataload\n        /* \"#utility.yul\":3746:3825   */\n      and\n        /* \"#utility.yul\":3738:3744   */\n      dup2\n        /* \"#utility.yul\":3731:3826   */\n      sstore\n        /* \"#utility.yul\":3681:3840   */\n    tag_85:\n      pop\n      pop\n        /* \"#utility.yul\":3883:3884   */\n      0x01\n        /* \"#utility.yul\":3877:3880   */\n      dup6\n        /* \"#utility.yul\":3874:3875   */\n      0x01\n        /* \"#utility.yul\":3870:3881   */\n      shl\n        /* \"#utility.yul\":3866:3885   */\n      add\n        /* \"#utility.yul\":3860:3864   */\n      dup4\n        /* \"#utility.yul\":3853:3886   */\n      sstore\n        /* \"#utility.yul\":3253:4148   */\n    tag_77:\n      pop\n      pop\n        /* \"#utility.yul\":2948:4154   */\n      pop\n      pop\n      pop\n      jump\t// out\n        /* \"#utility.yul\":4159:5511   */\n    tag_37:\n        /* \"#utility.yul\":4285:4288   */\n      dup2\n        /* \"#utility.yul\":4279:4289   */\n      mload\n        /* \"#utility.yul\":4312:4330   */\n      0xffffffffffffffff\n        /* \"#utility.yul\":4304:4310   */\n      dup2\n        /* \"#utility.yul\":4301:4331   */\n      gt\n        /* \"#utility.yul\":4298:4354   */\n      iszero\n      tag_88\n      jumpi\n        /* \"#utility.yul\":4334:4352   */\n      tag_88\n      tag_39\n      jump\t// in\n    tag_88:\n        /* \"#utility.yul\":4363:4460   */\n      tag_89\n        /* \"#utility.yul\":4453:4459   */\n      dup2\n        /* \"#utility.yul\":4413:4451   */\n      tag_90\n        /* \"#utility.yul\":4445:4449   */\n      dup5\n        /* \"#utility.yul\":4439:4450   */\n      sload\n        /* \"#utility.yul\":4413:4451   */\n      tag_40\n      jump\t// in\n    tag_90:\n        /* \"#utility.yul\":4407:4411   */\n      dup5\n        /* \"#utility.yul\":4363:4460   */\n      tag_42\n      jump\t// in\n    tag_89:\n        /* \"#utility.yul\":4515:4519   */\n      0x20\n      dup1\n        /* \"#utility.yul\":4579:4581   */\n      0x1f\n        /* \"#utility.yul\":4568:4582   */\n      dup4\n      gt\n        /* \"#utility.yul\":4596:4597   */\n      0x01\n        /* \"#utility.yul\":4591:5254   */\n      dup2\n      eq\n      tag_92\n      jumpi\n        /* \"#utility.yul\":5298:5299   */\n      0x00\n        /* \"#utility.yul\":5315:5321   */\n      dup5\n        /* \"#utility.yul\":5312:5401   */\n      iszero\n      tag_93\n      jumpi\n      pop\n        /* \"#utility.yul\":5367:5386   */\n      dup6\n      dup4\n      add\n        /* \"#utility.yul\":5361:5387   */\n      mload\n        /* \"#utility.yul\":5312:5401   */\n    tag_93:\n      not(0x00)\n        /* \"#utility.yul\":2905:2906   */\n      0x03\n        /* \"#utility.yul\":2901:2912   */\n      dup7\n      swap1\n      shl\n        /* \"#utility.yul\":2897:2921   */\n      shr\n        /* \"#utility.yul\":2893:2922   */\n      not\n        /* \"#utility.yul\":2883:2923   */\n      and\n        /* \"#utility.yul\":2929:2930   */\n      0x01\n        /* \"#utility.yul\":2925:2936   */\n      dup6\n      swap1\n      shl\n        /* \"#utility.yul\":2880:2937   */\n      or\n        /* \"#utility.yul\":5414:5495   */\n      dup6\n      sstore\n        /* \"#utility.yul\":4561:5505   */\n      jump(tag_70)\n        /* \"#utility.yul\":4591:5254   */\n    tag_92:\n        /* \"#utility.yul\":2174:2175   */\n      0x00\n        /* \"#utility.yul\":2167:2181   */\n      dup6\n      dup2\n      mstore\n        /* \"#utility.yul\":2211:2215   */\n      0x20\n        /* \"#utility.yul\":2198:2216   */\n      dup2\n      keccak256\n      not(0x1f)\n        /* \"#utility.yul\":4627:4647   */\n      dup7\n      and\n      swap2\n        /* \"#utility.yul\":4745:4981   */\n    tag_96:\n        /* \"#utility.yul\":4759:4766   */\n      dup3\n        /* \"#utility.yul\":4756:4757   */\n      dup2\n        /* \"#utility.yul\":4753:4767   */\n      lt\n        /* \"#utility.yul\":4745:4981   */\n      iszero\n      tag_98\n      jumpi\n        /* \"#utility.yul\":4848:4867   */\n      dup9\n      dup7\n      add\n        /* \"#utility.yul\":4842:4868   */\n      mload\n        /* \"#utility.yul\":4827:4869   */\n      dup3\n      sstore\n        /* \"#utility.yul\":4940:4967   */\n      swap5\n      dup5\n      add\n      swap5\n        /* \"#utility.yul\":4908:4909   */\n      0x01\n        /* \"#utility.yul\":4896:4910   */\n      swap1\n      swap2\n      add\n      swap1\n        /* \"#utility.yul\":4775:4794   */\n      dup5\n      add\n        /* \"#utility.yul\":4745:4981   */\n      jump(tag_96)\n    tag_98:\n        /* \"#utility.yul\":4749:4752   */\n      pop\n        /* \"#utility.yul\":5009:5015   */\n      dup6\n        /* \"#utility.yul\":5000:5007   */\n      dup3\n        /* \"#utility.yul\":4997:5016   */\n      lt\n        /* \"#utility.yul\":4994:5195   */\n      iszero\n      tag_99\n      jumpi\n        /* \"#utility.yul\":5070:5089   */\n      dup8\n      dup6\n      add\n        /* \"#utility.yul\":5064:5090   */\n      mload\n      not(0x00)\n        /* \"#utility.yul\":5153:5154   */\n      0x03\n        /* \"#utility.yul\":5149:5163   */\n      dup9\n      swap1\n      shl\n        /* \"#utility.yul\":5165:5168   */\n      0xf8\n        /* \"#utility.yul\":5145:5169   */\n      and\n        /* \"#utility.yul\":5141:5178   */\n      shr\n        /* \"#utility.yul\":5137:5179   */\n      not\n        /* \"#utility.yul\":5122:5180   */\n      and\n        /* \"#utility.yul\":5107:5181   */\n      dup2\n      sstore\n        /* \"#utility.yul\":4994:5195   */\n    tag_99:\n      pop\n      pop\n      pop\n      pop\n      pop\n        /* \"#utility.yul\":5241:5242   */\n      0x01\n        /* \"#utility.yul\":5225:5239   */\n      swap1\n      dup2\n      shl\n        /* \"#utility.yul\":5221:5243   */\n      add\n        /* \"#utility.yul\":5208:5244   */\n      swap1\n      sstore\n      pop\n        /* \"#utility.yul\":4159:5511   */\n      jump\t// out\n\n    auxdata: 0xa2646970667358221220493cb1aa925fa16404450b92959b5ab11c4ec7c0d990a726a40cecdea41dccdc64736f6c63430008100033\n}\n",
				"bytecode": {
					"linkReferences": {},
					"object": "608060405234801561001057600080fd5b5061051e806100206000396000f3fe608060405234801561001057600080fd5b50600436106100415760003560e01c8063d534ee8814610046578063dc00282c1461005b578063e34f12211461006e575b600080fd5b61005961005436600461020b565b610081565b005b610059610069366004610257565b6100c8565b61005961007c366004610270565b61013b565b600054831061008f57600080fd5b8181600085815481106100a4576100a46102b2565b906000526020600020906002020160000191826100c2929190610367565b50505050565b60005481106100d657600080fd5b600081815481106100e9576100e96102b2565b60009182526020822060016002909202010154815460ff90911615919083908110610116576101166102b2565b60009182526020909120600290910201600101805460ff191691151591909117905550565b6040805160606020601f85018190040282018101835291810183815260009282919086908690819085018382808284376000920182905250938552505050602091820181905283546001810185559381522081519192600202019081906101a29082610428565b50602091909101516001909101805460ff19169115159190911790555050565b60008083601f8401126101d457600080fd5b50813567ffffffffffffffff8111156101ec57600080fd5b60208301915083602082850101111561020457600080fd5b9250929050565b60008060006040848603121561022057600080fd5b83359250602084013567ffffffffffffffff81111561023e57600080fd5b61024a868287016101c2565b9497909650939450505050565b60006020828403121561026957600080fd5b5035919050565b6000806020838503121561028357600080fd5b823567ffffffffffffffff81111561029a57600080fd5b6102a6858286016101c2565b90969095509350505050565b634e487b7160e01b600052603260045260246000fd5b634e487b7160e01b600052604160045260246000fd5b600181811c908216806102f257607f821691505b60208210810361031257634e487b7160e01b600052602260045260246000fd5b50919050565b601f82111561036257600081815260208120601f850160051c8101602086101561033f5750805b601f850160051c820191505b8181101561035e5782815560010161034b565b5050505b505050565b67ffffffffffffffff83111561037f5761037f6102c8565b6103938361038d83546102de565b83610318565b6000601f8411600181146103c757600085156103af5750838201355b600019600387901b1c1916600186901b178355610421565b600083815260209020601f19861690835b828110156103f857868501358255602094850194600190920191016103d8565b50868210156104155760001960f88860031b161c19848701351681555b505060018560011b0183555b5050505050565b815167ffffffffffffffff811115610442576104426102c8565b6104568161045084546102de565b84610318565b602080601f83116001811461048b57600084156104735750858301515b600019600386901b1c1916600185901b17855561035e565b600085815260208120601f198616915b828110156104ba5788860151825594840194600190910190840161049b565b50858210156104d85787850151600019600388901b60f8161c191681555b5050505050600190811b0190555056fea2646970667358221220493cb1aa925fa16404450b92959b5ab11c4ec7c0d990a726a40cecdea41dccdc64736f6c63430008100033",
					"opcodes": "PUSH1 0x80 PUSH1 0x40 MSTORE CALLVALUE DUP1 ISZERO PUSH2 0x10 JUMPI PUSH1 0x0 DUP1 REVERT JUMPDEST POP PUSH2 0x51E DUP1 PUSH2 0x20 PUSH1 0x0 CODECOPY PUSH1 0x0 RETURN INVALID PUSH1 0x80 PUSH1 0x40 MSTORE CALLVALUE DUP1 ISZERO PUSH2 0x10 JUMPI PUSH1 0x0 DUP1 REVERT JUMPDEST POP PUSH1 0x4 CALLDATASIZE LT PUSH2 0x41 JUMPI PUSH1 0x0 CALLDATALOAD PUSH1 0xE0 SHR DUP1 PUSH4 0xD534EE88 EQ PUSH2 0x46 JUMPI DUP1 PUSH4 0xDC00282C EQ PUSH2 0x5B JUMPI DUP1 PUSH4 0xE34F1221 EQ PUSH2 0x6E JUMPI JUMPDEST PUSH1 0x0 DUP1 REVERT JUMPDEST PUSH2 0x59 PUSH2 0x54 CALLDATASIZE PUSH1 0x4 PUSH2 0x20B JUMP JUMPDEST PUSH2 0x81 JUMP JUMPDEST STOP JUMPDEST PUSH2 0x59 PUSH2 0x69 CALLDATASIZE PUSH1 0x4 PUSH2 0x257 JUMP JUMPDEST PUSH2 0xC8 JUMP JUMPDEST PUSH2 0x59 PUSH2 0x7C CALLDATASIZE PUSH1 0x4 PUSH2 0x270 JUMP JUMPDEST PUSH2 0x13B JUMP JUMPDEST PUSH1 0x0 SLOAD DUP4 LT PUSH2 0x8F JUMPI PUSH1 0x0 DUP1 REVERT JUMPDEST DUP2 DUP2 PUSH1 0x0 DUP6 DUP2 SLOAD DUP2 LT PUSH2 0xA4 JUMPI PUSH2 0xA4 PUSH2 0x2B2 JUMP JUMPDEST SWAP1 PUSH1 0x0 MSTORE PUSH1 0x20 PUSH1 0x0 KECCAK256 SWAP1 PUSH1 0x2 MUL ADD PUSH1 0x0 ADD SWAP2 DUP3 PUSH2 0xC2 SWAP3 SWAP2 SWAP1 PUSH2 0x367 JUMP JUMPDEST POP POP POP POP JUMP JUMPDEST PUSH1 0x0 SLOAD DUP2 LT PUSH2 0xD6 JUMPI PUSH1 0x0 DUP1 REVERT JUMPDEST PUSH1 0x0 DUP2 DUP2 SLOAD DUP2 LT PUSH2 0xE9 JUMPI PUSH2 0xE9 PUSH2 0x2B2 JUMP JUMPDEST PUSH1 0x0 SWAP2 DUP3 MSTORE PUSH1 0x20 DUP3 KECCAK256 PUSH1 0x1 PUSH1 0x2 SWAP1 SWAP3 MUL ADD ADD SLOAD DUP2 SLOAD PUSH1 0xFF SWAP1 SWAP2 AND ISZERO SWAP2 SWAP1 DUP4 SWAP1 DUP2 LT PUSH2 0x116 JUMPI PUSH2 0x116 PUSH2 0x2B2 JUMP JUMPDEST PUSH1 0x0 SWAP2 DUP3 MSTORE PUSH1 0x20 SWAP1 SWAP2 KECCAK256 PUSH1 0x2 SWAP1 SWAP2 MUL ADD PUSH1 0x1 ADD DUP1 SLOAD PUSH1 0xFF NOT AND SWAP2 ISZERO ISZERO SWAP2 SWAP1 SWAP2 OR SWAP1 SSTORE POP JUMP JUMPDEST PUSH1 0x40 DUP1 MLOAD PUSH1 0x60 PUSH1 0x20 PUSH1 0x1F DUP6 ADD DUP2 SWAP1 DIV MUL DUP3 ADD DUP2 ADD DUP4 MSTORE SWAP2 DUP2 ADD DUP4 DUP2 MSTORE PUSH1 0x0 SWAP3 DUP3 SWAP2 SWAP1 DUP7 SWAP1 DUP7 SWAP1 DUP2 SWAP1 DUP6 ADD DUP4 DUP3 DUP1 DUP3 DUP5 CALLDATACOPY PUSH1 0x0 SWAP3 ADD DUP3 SWAP1 MSTORE POP SWAP4 DUP6 MSTORE POP POP POP PUSH1 0x20 SWAP2 DUP3 ADD DUP2 SWAP1 MSTORE DUP4 SLOAD PUSH1 0x1 DUP2 ADD DUP6 SSTORE SWAP4 DUP2 MSTORE KECCAK256 DUP2 MLOAD SWAP2 SWAP3 PUSH1 0x2 MUL ADD SWAP1 DUP2 SWAP1 PUSH2 0x1A2 SWAP1 DUP3 PUSH2 0x428 JUMP JUMPDEST POP PUSH1 0x20 SWAP2 SWAP1 SWAP2 ADD MLOAD PUSH1 0x1 SWAP1 SWAP2 ADD DUP1 SLOAD PUSH1 0xFF NOT AND SWAP2 ISZERO ISZERO SWAP2 SWAP1 SWAP2 OR SWAP1 SSTORE POP POP JUMP JUMPDEST PUSH1 0x0 DUP1 DUP4 PUSH1 0x1F DUP5 ADD SLT PUSH2 0x1D4 JUMPI PUSH1 0x0 DUP1 REVERT JUMPDEST POP DUP2 CALLDATALOAD PUSH8 0xFFFFFFFFFFFFFFFF DUP2 GT ISZERO PUSH2 0x1EC JUMPI PUSH1 0x0 DUP1 REVERT JUMPDEST PUSH1 0x20 DUP4 ADD SWAP2 POP DUP4 PUSH1 0x20 DUP3 DUP6 ADD ADD GT ISZERO PUSH2 0x204 JUMPI PUSH1 0x0 DUP1 REVERT JUMPDEST SWAP3 POP SWAP3 SWAP1 POP JUMP JUMPDEST PUSH1 0x0 DUP1 PUSH1 0x0 PUSH1 0x40 DUP5 DUP7 SUB SLT ISZERO PUSH2 0x220 JUMPI PUSH1 0x0 DUP1 REVERT JUMPDEST DUP4 CALLDATALOAD SWAP3 POP PUSH1 0x20 DUP5 ADD CALLDATALOAD PUSH8 0xFFFFFFFFFFFFFFFF DUP2 GT ISZERO PUSH2 0x23E JUMPI PUSH1 0x0 DUP1 REVERT JUMPDEST PUSH2 0x24A DUP7 DUP3 DUP8 ADD PUSH2 0x1C2 JUMP JUMPDEST SWAP5 SWAP8 SWAP1 SWAP7 POP SWAP4 SWAP5 POP POP POP POP JUMP JUMPDEST PUSH1 0x0 PUSH1 0x20 DUP3 DUP5 SUB SLT ISZERO PUSH2 0x269 JUMPI PUSH1 0x0 DUP1 REVERT JUMPDEST POP CALLDATALOAD SWAP2 SWAP1 POP JUMP JUMPDEST PUSH1 0x0 DUP1 PUSH1 0x20 DUP4 DUP6 SUB SLT ISZERO PUSH2 0x283 JUMPI PUSH1 0x0 DUP1 REVERT JUMPDEST DUP3 CALLDATALOAD PUSH8 0xFFFFFFFFFFFFFFFF DUP2 GT ISZERO PUSH2 0x29A JUMPI PUSH1 0x0 DUP1 REVERT JUMPDEST PUSH2 0x2A6 DUP6 DUP3 DUP7 ADD PUSH2 0x1C2 JUMP JUMPDEST SWAP1 SWAP7 SWAP1 SWAP6 POP SWAP4 POP POP POP POP JUMP JUMPDEST PUSH4 0x4E487B71 PUSH1 0xE0 SHL PUSH1 0x0 MSTORE PUSH1 0x32 PUSH1 0x4 MSTORE PUSH1 0x24 PUSH1 0x0 REVERT JUMPDEST PUSH4 0x4E487B71 PUSH1 0xE0 SHL PUSH1 0x0 MSTORE PUSH1 0x41 PUSH1 0x4 MSTORE PUSH1 0x24 PUSH1 0x0 REVERT JUMPDEST PUSH1 0x1 DUP2 DUP2 SHR SWAP1 DUP3 AND DUP1 PUSH2 0x2F2 JUMPI PUSH1 0x7F DUP3 AND SWAP2 POP JUMPDEST PUSH1 0x20 DUP3 LT DUP2 SUB PUSH2 0x312 JUMPI PUSH4 0x4E487B71 PUSH1 0xE0 SHL PUSH1 0x0 MSTORE PUSH1 0x22 PUSH1 0x4 MSTORE PUSH1 0x24 PUSH1 0x0 REVERT JUMPDEST POP SWAP2 SWAP1 POP JUMP JUMPDEST PUSH1 0x1F DUP3 GT ISZERO PUSH2 0x362 JUMPI PUSH1 0x0 DUP2 DUP2 MSTORE PUSH1 0x20 DUP2 KECCAK256 PUSH1 0x1F DUP6 ADD PUSH1 0x5 SHR DUP2 ADD PUSH1 0x20 DUP7 LT ISZERO PUSH2 0x33F JUMPI POP DUP1 JUMPDEST PUSH1 0x1F DUP6 ADD PUSH1 0x5 SHR DUP3 ADD SWAP2 POP JUMPDEST DUP2 DUP2 LT ISZERO PUSH2 0x35E JUMPI DUP3 DUP2 SSTORE PUSH1 0x1 ADD PUSH2 0x34B JUMP JUMPDEST POP POP POP JUMPDEST POP POP POP JUMP JUMPDEST PUSH8 0xFFFFFFFFFFFFFFFF DUP4 GT ISZERO PUSH2 0x37F JUMPI PUSH2 0x37F PUSH2 0x2C8 JUMP JUMPDEST PUSH2 0x393 DUP4 PUSH2 0x38D DUP4 SLOAD PUSH2 0x2DE JUMP JUMPDEST DUP4 PUSH2 0x318 JUMP JUMPDEST PUSH1 0x0 PUSH1 0x1F DUP5 GT PUSH1 0x1 DUP2 EQ PUSH2 0x3C7 JUMPI PUSH1 0x0 DUP6 ISZERO PUSH2 0x3AF JUMPI POP DUP4 DUP3 ADD CALLDATALOAD JUMPDEST PUSH1 0x0 NOT PUSH1 0x3 DUP8 SWAP1 SHL SHR NOT AND PUSH1 0x1 DUP7 SWAP1 SHL OR DUP4 SSTORE PUSH2 0x421 JUMP JUMPDEST PUSH1 0x0 DUP4 DUP2 MSTORE PUSH1 0x20 SWAP1 KECCAK256 PUSH1 0x1F NOT DUP7 AND SWAP1 DUP4 JUMPDEST DUP3 DUP2 LT ISZERO PUSH2 0x3F8 JUMPI DUP7 DUP6 ADD CALLDATALOAD DUP3 SSTORE PUSH1 0x20 SWAP5 DUP6 ADD SWAP5 PUSH1 0x1 SWAP1 SWAP3 ADD SWAP2 ADD PUSH2 0x3D8 JUMP JUMPDEST POP DUP7 DUP3 LT ISZERO PUSH2 0x415 JUMPI PUSH1 0x0 NOT PUSH1 0xF8 DUP9 PUSH1 0x3 SHL AND SHR NOT DUP5 DUP8 ADD CALLDATALOAD AND DUP2 SSTORE JUMPDEST POP POP PUSH1 0x1 DUP6 PUSH1 0x1 SHL ADD DUP4 SSTORE JUMPDEST POP POP POP POP POP JUMP JUMPDEST DUP2 MLOAD PUSH8 0xFFFFFFFFFFFFFFFF DUP2 GT ISZERO PUSH2 0x442 JUMPI PUSH2 0x442 PUSH2 0x2C8 JUMP JUMPDEST PUSH2 0x456 DUP2 PUSH2 0x450 DUP5 SLOAD PUSH2 0x2DE JUMP JUMPDEST DUP5 PUSH2 0x318 JUMP JUMPDEST PUSH1 0x20 DUP1 PUSH1 0x1F DUP4 GT PUSH1 0x1 DUP2 EQ PUSH2 0x48B JUMPI PUSH1 0x0 DUP5 ISZERO PUSH2 0x473 JUMPI POP DUP6 DUP4 ADD MLOAD JUMPDEST PUSH1 0x0 NOT PUSH1 0x3 DUP7 SWAP1 SHL SHR NOT AND PUSH1 0x1 DUP6 SWAP1 SHL OR DUP6 SSTORE PUSH2 0x35E JUMP JUMPDEST PUSH1 0x0 DUP6 DUP2 MSTORE PUSH1 0x20 DUP2 KECCAK256 PUSH1 0x1F NOT DUP7 AND SWAP2 JUMPDEST DUP3 DUP2 LT ISZERO PUSH2 0x4BA JUMPI DUP9 DUP7 ADD MLOAD DUP3 SSTORE SWAP5 DUP5 ADD SWAP5 PUSH1 0x1 SWAP1 SWAP2 ADD SWAP1 DUP5 ADD PUSH2 0x49B JUMP JUMPDEST POP DUP6 DUP3 LT ISZERO PUSH2 0x4D8 JUMPI DUP8 DUP6 ADD MLOAD PUSH1 0x0 NOT PUSH1 0x3 DUP9 SWAP1 SHL PUSH1 0xF8 AND SHR NOT AND DUP2 SSTORE JUMPDEST POP POP POP POP POP PUSH1 0x1 SWAP1 DUP2 SHL ADD SWAP1 SSTORE POP JUMP INVALID LOG2 PUSH5 0x6970667358 0x22 SLT KECCAK256 0x49 EXTCODECOPY 0xB1 0xAA SWAP3 0x5F LOG1 PUSH5 0x4450B9295 SWAP12 GAS 0xB1 SHR 0x4E 0xC7 0xC0 0xD9 SWAP1 0xA7 0x26 LOG4 0xC 0xEC 0xDE LOG4 SAR 0xCC 0xDC PUSH5 0x736F6C6343 STOP ADDMOD LT STOP CALLER "
				},
				"gasEstimates": {
					"creation": {
						"codeDepositCost": "262000",
						"executionCost": "300",
						"totalCost": "262300"
					},
					"external": {
						"createTodo(string)": "infinite",
						"toggleTodo(uint256)": "33118",
						"updateTodo(uint256,string)": "infinite"
					}
				},
				"methodIdentifiers": {
					"createTodo(string)": "e34f1221",
					"toggleTodo(uint256)": "dc00282c",
					"updateTodo(uint256,string)": "d534ee88"
				}
			},
			"storageLayout": {
				"storage": [
					{
						"astId": 10,
						"contract": "Week5/TodoList.sol:TodoList",
						"label": "todoList",
						"offset": 0,
						"slot": "0",
						"type": "t_array(t_struct(Todo)6_storage)dyn_storage"
					}
				],
				"types": {
					"t_array(t_struct(Todo)6_storage)dyn_storage": {
						"base": "t_struct(Todo)6_storage",
						"encoding": "dynamic_array",
						"label": "struct TodoList.Todo[]",
						"numberOfBytes": "32"
					},
					"t_bool": {
						"encoding": "inplace",
						"label": "bool",
						"numberOfBytes": "1"
					},
					"t_string_storage": {
						"encoding": "bytes",
						"label": "string",
						"numberOfBytes": "32"
					},
					"t_struct(Todo)6_storage": {
						"encoding": "inplace",
						"label": "struct TodoList.Todo",
						"members": [
							{
								"astId": 3,
								"contract": "Week5/TodoList.sol:TodoList",
								"label": "text",
								"offset": 0,
								"slot": "0",
								"type": "t_string_storage"
							},
							{
								"astId": 5,
								"contract": "Week5/TodoList.sol:TodoList",
								"label": "isCheck",
								"offset": 0,
								"slot": "1",
								"type": "t_bool"
							}
						],
						"numberOfBytes": "64"
					}
				}
			},
			"userdoc": {
				"kind": "user",
				"methods": {},
				"version": 1
			}
		}
	}
}