{
	"Week5/Keccak256.sol": {
		"Keccak256": {
			"abi": [
				{
					"anonymous": false,
					"inputs": [
						{
							"indexed": false,
							"internalType": "bytes32",
							"name": "data",
							"type": "bytes32"
						}
					],
					"name": "Log",
					"type": "event"
				},
				{
					"inputs": [
						{
							"internalType": "string",
							"name": "s1",
							"type": "string"
						},
						{
							"internalType": "string",
							"name": "s2",
							"type": "string"
						}
					],
					"name": "encode",
					"outputs": [],
					"stateMutability": "nonpayable",
					"type": "function"
				}
			],
			"devdoc": {
				"kind": "dev",
				"methods": {},
				"version": 1
			},
			"evm": {
				"assembly": "    /* \"Week5/Keccak256.sol\":70:244  contract Keccak256 {... */\n  mstore(0x40, 0x80)\n  callvalue\n  dup1\n  iszero\n  tag_1\n  jumpi\n  0x00\n  dup1\n  revert\ntag_1:\n  pop\n  dataSize(sub_0)\n  dup1\n  dataOffset(sub_0)\n  0x00\n  codecopy\n  0x00\n  return\nstop\n\nsub_0: assembly {\n        /* \"Week5/Keccak256.sol\":70:244  contract Keccak256 {... */\n      mstore(0x40, 0x80)\n      callvalue\n      dup1\n      iszero\n      tag_1\n      jumpi\n      0x00\n      dup1\n      revert\n    tag_1:\n      pop\n      jumpi(tag_2, lt(calldatasize, 0x04))\n      shr(0xe0, calldataload(0x00))\n      dup1\n      0x17fe2da2\n      eq\n      tag_3\n      jumpi\n    tag_2:\n      0x00\n      dup1\n      revert\n        /* \"Week5/Keccak256.sol\":125:242  function encode(string memory s1, string memory s2) external {... */\n    tag_3:\n      tag_4\n      0x04\n      dup1\n      calldatasize\n      sub\n      dup2\n      add\n      swap1\n      tag_5\n      swap2\n      swap1\n      tag_6\n      jump\t// in\n    tag_5:\n      tag_7\n      jump\t// in\n    tag_4:\n      stop\n    tag_7:\n        /* \"Week5/Keccak256.sol\":201:235  Log(keccak256(abi.encode(s1, s2))) */\n      0x32d5ab96f608074ecb7a2188938a6154ca0cb72029f98b277aa9284b9d47f5c3\n        /* \"Week5/Keccak256.sol\":226:228  s1 */\n      dup3\n        /* \"Week5/Keccak256.sol\":230:232  s2 */\n      dup3\n        /* \"Week5/Keccak256.sol\":215:233  abi.encode(s1, s2) */\n      add(0x20, mload(0x40))\n      tag_9\n      swap3\n      swap2\n      swap1\n      tag_10\n      jump\t// in\n    tag_9:\n      mload(0x40)\n      0x20\n      dup2\n      dup4\n      sub\n      sub\n      dup2\n      mstore\n      swap1\n      0x40\n      mstore\n        /* \"Week5/Keccak256.sol\":205:234  keccak256(abi.encode(s1, s2)) */\n      dup1\n      mload\n      swap1\n      0x20\n      add\n      keccak256\n        /* \"Week5/Keccak256.sol\":201:235  Log(keccak256(abi.encode(s1, s2))) */\n      mload(0x40)\n      tag_11\n      swap2\n      swap1\n      tag_12\n      jump\t// in\n    tag_11:\n      mload(0x40)\n      dup1\n      swap2\n      sub\n      swap1\n      log1\n        /* \"Week5/Keccak256.sol\":125:242  function encode(string memory s1, string memory s2) external {... */\n      pop\n      pop\n      jump\t// out\n        /* \"#utility.yul\":7:419   */\n    tag_14:\n        /* \"#utility.yul\":85:90   */\n      0x00\n        /* \"#utility.yul\":110:176   */\n      tag_16\n        /* \"#utility.yul\":126:175   */\n      tag_17\n        /* \"#utility.yul\":168:174   */\n      dup5\n        /* \"#utility.yul\":126:175   */\n      tag_18\n      jump\t// in\n    tag_17:\n        /* \"#utility.yul\":110:176   */\n      tag_19\n      jump\t// in\n    tag_16:\n        /* \"#utility.yul\":101:176   */\n      swap1\n      pop\n        /* \"#utility.yul\":199:205   */\n      dup3\n        /* \"#utility.yul\":192:197   */\n      dup2\n        /* \"#utility.yul\":185:206   */\n      mstore\n        /* \"#utility.yul\":237:241   */\n      0x20\n        /* \"#utility.yul\":230:235   */\n      dup2\n        /* \"#utility.yul\":226:242   */\n      add\n        /* \"#utility.yul\":275:278   */\n      dup5\n        /* \"#utility.yul\":266:272   */\n      dup5\n        /* \"#utility.yul\":261:264   */\n      dup5\n        /* \"#utility.yul\":257:273   */\n      add\n        /* \"#utility.yul\":254:279   */\n      gt\n        /* \"#utility.yul\":251:363   */\n      iszero\n      tag_20\n      jumpi\n        /* \"#utility.yul\":282:361   */\n      tag_21\n      tag_22\n      jump\t// in\n    tag_21:\n        /* \"#utility.yul\":251:363   */\n    tag_20:\n        /* \"#utility.yul\":372:413   */\n      tag_23\n        /* \"#utility.yul\":406:412   */\n      dup5\n        /* \"#utility.yul\":401:404   */\n      dup3\n        /* \"#utility.yul\":396:399   */\n      dup6\n        /* \"#utility.yul\":372:413   */\n      tag_24\n      jump\t// in\n    tag_23:\n        /* \"#utility.yul\":91:419   */\n      pop\n        /* \"#utility.yul\":7:419   */\n      swap4\n      swap3\n      pop\n      pop\n      pop\n      jump\t// out\n        /* \"#utility.yul\":439:779   */\n    tag_25:\n        /* \"#utility.yul\":495:500   */\n      0x00\n        /* \"#utility.yul\":544:547   */\n      dup3\n        /* \"#utility.yul\":537:541   */\n      0x1f\n        /* \"#utility.yul\":529:535   */\n      dup4\n        /* \"#utility.yul\":525:542   */\n      add\n        /* \"#utility.yul\":521:548   */\n      slt\n        /* \"#utility.yul\":511:633   */\n      tag_27\n      jumpi\n        /* \"#utility.yul\":552:631   */\n      tag_28\n      tag_29\n      jump\t// in\n    tag_28:\n        /* \"#utility.yul\":511:633   */\n    tag_27:\n        /* \"#utility.yul\":669:675   */\n      dup2\n        /* \"#utility.yul\":656:676   */\n      calldataload\n        /* \"#utility.yul\":694:773   */\n      tag_30\n        /* \"#utility.yul\":769:772   */\n      dup5\n        /* \"#utility.yul\":761:767   */\n      dup3\n        /* \"#utility.yul\":754:758   */\n      0x20\n        /* \"#utility.yul\":746:752   */\n      dup7\n        /* \"#utility.yul\":742:759   */\n      add\n        /* \"#utility.yul\":694:773   */\n      tag_14\n      jump\t// in\n    tag_30:\n        /* \"#utility.yul\":685:773   */\n      swap2\n      pop\n        /* \"#utility.yul\":501:779   */\n      pop\n        /* \"#utility.yul\":439:779   */\n      swap3\n      swap2\n      pop\n      pop\n      jump\t// out\n        /* \"#utility.yul\":785:1619   */\n    tag_6:\n        /* \"#utility.yul\":873:879   */\n      0x00\n        /* \"#utility.yul\":881:887   */\n      dup1\n        /* \"#utility.yul\":930:932   */\n      0x40\n        /* \"#utility.yul\":918:927   */\n      dup4\n        /* \"#utility.yul\":909:916   */\n      dup6\n        /* \"#utility.yul\":905:928   */\n      sub\n        /* \"#utility.yul\":901:933   */\n      slt\n        /* \"#utility.yul\":898:1017   */\n      iszero\n      tag_32\n      jumpi\n        /* \"#utility.yul\":936:1015   */\n      tag_33\n      tag_34\n      jump\t// in\n    tag_33:\n        /* \"#utility.yul\":898:1017   */\n    tag_32:\n        /* \"#utility.yul\":1084:1085   */\n      0x00\n        /* \"#utility.yul\":1073:1082   */\n      dup4\n        /* \"#utility.yul\":1069:1086   */\n      add\n        /* \"#utility.yul\":1056:1087   */\n      calldataload\n        /* \"#utility.yul\":1114:1132   */\n      0xffffffffffffffff\n        /* \"#utility.yul\":1106:1112   */\n      dup2\n        /* \"#utility.yul\":1103:1133   */\n      gt\n        /* \"#utility.yul\":1100:1217   */\n      iszero\n      tag_35\n      jumpi\n        /* \"#utility.yul\":1136:1215   */\n      tag_36\n      tag_37\n      jump\t// in\n    tag_36:\n        /* \"#utility.yul\":1100:1217   */\n    tag_35:\n        /* \"#utility.yul\":1241:1304   */\n      tag_38\n        /* \"#utility.yul\":1296:1303   */\n      dup6\n        /* \"#utility.yul\":1287:1293   */\n      dup3\n        /* \"#utility.yul\":1276:1285   */\n      dup7\n        /* \"#utility.yul\":1272:1294   */\n      add\n        /* \"#utility.yul\":1241:1304   */\n      tag_25\n      jump\t// in\n    tag_38:\n        /* \"#utility.yul\":1231:1304   */\n      swap3\n      pop\n        /* \"#utility.yul\":1027:1314   */\n      pop\n        /* \"#utility.yul\":1381:1383   */\n      0x20\n        /* \"#utility.yul\":1370:1379   */\n      dup4\n        /* \"#utility.yul\":1366:1384   */\n      add\n        /* \"#utility.yul\":1353:1385   */\n      calldataload\n        /* \"#utility.yul\":1412:1430   */\n      0xffffffffffffffff\n        /* \"#utility.yul\":1404:1410   */\n      dup2\n        /* \"#utility.yul\":1401:1431   */\n      gt\n        /* \"#utility.yul\":1398:1515   */\n      iszero\n      tag_39\n      jumpi\n        /* \"#utility.yul\":1434:1513   */\n      tag_40\n      tag_37\n      jump\t// in\n    tag_40:\n        /* \"#utility.yul\":1398:1515   */\n    tag_39:\n        /* \"#utility.yul\":1539:1602   */\n      tag_41\n        /* \"#utility.yul\":1594:1601   */\n      dup6\n        /* \"#utility.yul\":1585:1591   */\n      dup3\n        /* \"#utility.yul\":1574:1583   */\n      dup7\n        /* \"#utility.yul\":1570:1592   */\n      add\n        /* \"#utility.yul\":1539:1602   */\n      tag_25\n      jump\t// in\n    tag_41:\n        /* \"#utility.yul\":1529:1602   */\n      swap2\n      pop\n        /* \"#utility.yul\":1324:1612   */\n      pop\n        /* \"#utility.yul\":785:1619   */\n      swap3\n      pop\n      swap3\n      swap1\n      pop\n      jump\t// out\n        /* \"#utility.yul\":1625:1743   */\n    tag_42:\n        /* \"#utility.yul\":1712:1736   */\n      tag_44\n        /* \"#utility.yul\":1730:1735   */\n      dup2\n        /* \"#utility.yul\":1712:1736   */\n      tag_45\n      jump\t// in\n    tag_44:\n        /* \"#utility.yul\":1707:1710   */\n      dup3\n        /* \"#utility.yul\":1700:1737   */\n      mstore\n        /* \"#utility.yul\":1625:1743   */\n      pop\n      pop\n      jump\t// out\n        /* \"#utility.yul\":1749:2113   */\n    tag_46:\n        /* \"#utility.yul\":1837:1840   */\n      0x00\n        /* \"#utility.yul\":1865:1904   */\n      tag_48\n        /* \"#utility.yul\":1898:1903   */\n      dup3\n        /* \"#utility.yul\":1865:1904   */\n      tag_49\n      jump\t// in\n    tag_48:\n        /* \"#utility.yul\":1920:1991   */\n      tag_50\n        /* \"#utility.yul\":1984:1990   */\n      dup2\n        /* \"#utility.yul\":1979:1982   */\n      dup6\n        /* \"#utility.yul\":1920:1991   */\n      tag_51\n      jump\t// in\n    tag_50:\n        /* \"#utility.yul\":1913:1991   */\n      swap4\n      pop\n        /* \"#utility.yul\":2000:2052   */\n      tag_52\n        /* \"#utility.yul\":2045:2051   */\n      dup2\n        /* \"#utility.yul\":2040:2043   */\n      dup6\n        /* \"#utility.yul\":2033:2037   */\n      0x20\n        /* \"#utility.yul\":2026:2031   */\n      dup7\n        /* \"#utility.yul\":2022:2038   */\n      add\n        /* \"#utility.yul\":2000:2052   */\n      tag_53\n      jump\t// in\n    tag_52:\n        /* \"#utility.yul\":2077:2106   */\n      tag_54\n        /* \"#utility.yul\":2099:2105   */\n      dup2\n        /* \"#utility.yul\":2077:2106   */\n      tag_55\n      jump\t// in\n    tag_54:\n        /* \"#utility.yul\":2072:2075   */\n      dup5\n        /* \"#utility.yul\":2068:2107   */\n      add\n        /* \"#utility.yul\":2061:2107   */\n      swap2\n      pop\n        /* \"#utility.yul\":1841:2113   */\n      pop\n        /* \"#utility.yul\":1749:2113   */\n      swap3\n      swap2\n      pop\n      pop\n      jump\t// out\n        /* \"#utility.yul\":2119:2341   */\n    tag_12:\n        /* \"#utility.yul\":2212:2216   */\n      0x00\n        /* \"#utility.yul\":2250:2252   */\n      0x20\n        /* \"#utility.yul\":2239:2248   */\n      dup3\n        /* \"#utility.yul\":2235:2253   */\n      add\n        /* \"#utility.yul\":2227:2253   */\n      swap1\n      pop\n        /* \"#utility.yul\":2263:2334   */\n      tag_57\n        /* \"#utility.yul\":2331:2332   */\n      0x00\n        /* \"#utility.yul\":2320:2329   */\n      dup4\n        /* \"#utility.yul\":2316:2333   */\n      add\n        /* \"#utility.yul\":2307:2313   */\n      dup5\n        /* \"#utility.yul\":2263:2334   */\n      tag_42\n      jump\t// in\n    tag_57:\n        /* \"#utility.yul\":2119:2341   */\n      swap3\n      swap2\n      pop\n      pop\n      jump\t// out\n        /* \"#utility.yul\":2347:2861   */\n    tag_10:\n        /* \"#utility.yul\":2508:2512   */\n      0x00\n        /* \"#utility.yul\":2546:2548   */\n      0x40\n        /* \"#utility.yul\":2535:2544   */\n      dup3\n        /* \"#utility.yul\":2531:2549   */\n      add\n        /* \"#utility.yul\":2523:2549   */\n      swap1\n      pop\n        /* \"#utility.yul\":2595:2604   */\n      dup2\n        /* \"#utility.yul\":2589:2593   */\n      dup2\n        /* \"#utility.yul\":2585:2605   */\n      sub\n        /* \"#utility.yul\":2581:2582   */\n      0x00\n        /* \"#utility.yul\":2570:2579   */\n      dup4\n        /* \"#utility.yul\":2566:2583   */\n      add\n        /* \"#utility.yul\":2559:2606   */\n      mstore\n        /* \"#utility.yul\":2623:2701   */\n      tag_59\n        /* \"#utility.yul\":2696:2700   */\n      dup2\n        /* \"#utility.yul\":2687:2693   */\n      dup6\n        /* \"#utility.yul\":2623:2701   */\n      tag_46\n      jump\t// in\n    tag_59:\n        /* \"#utility.yul\":2615:2701   */\n      swap1\n      pop\n        /* \"#utility.yul\":2748:2757   */\n      dup2\n        /* \"#utility.yul\":2742:2746   */\n      dup2\n        /* \"#utility.yul\":2738:2758   */\n      sub\n        /* \"#utility.yul\":2733:2735   */\n      0x20\n        /* \"#utility.yul\":2722:2731   */\n      dup4\n        /* \"#utility.yul\":2718:2736   */\n      add\n        /* \"#utility.yul\":2711:2759   */\n      mstore\n        /* \"#utility.yul\":2776:2854   */\n      tag_60\n        /* \"#utility.yul\":2849:2853   */\n      dup2\n        /* \"#utility.yul\":2840:2846   */\n      dup5\n        /* \"#utility.yul\":2776:2854   */\n      tag_46\n      jump\t// in\n    tag_60:\n        /* \"#utility.yul\":2768:2854   */\n      swap1\n      pop\n        /* \"#utility.yul\":2347:2861   */\n      swap4\n      swap3\n      pop\n      pop\n      pop\n      jump\t// out\n        /* \"#utility.yul\":2867:2996   */\n    tag_19:\n        /* \"#utility.yul\":2901:2907   */\n      0x00\n        /* \"#utility.yul\":2928:2948   */\n      tag_62\n      tag_63\n      jump\t// in\n    tag_62:\n        /* \"#utility.yul\":2918:2948   */\n      swap1\n      pop\n        /* \"#utility.yul\":2957:2990   */\n      tag_64\n        /* \"#utility.yul\":2985:2989   */\n      dup3\n        /* \"#utility.yul\":2977:2983   */\n      dup3\n        /* \"#utility.yul\":2957:2990   */\n      tag_65\n      jump\t// in\n    tag_64:\n        /* \"#utility.yul\":2867:2996   */\n      swap2\n      swap1\n      pop\n      jump\t// out\n        /* \"#utility.yul\":3002:3077   */\n    tag_63:\n        /* \"#utility.yul\":3035:3041   */\n      0x00\n        /* \"#utility.yul\":3068:3070   */\n      0x40\n        /* \"#utility.yul\":3062:3071   */\n      mload\n        /* \"#utility.yul\":3052:3071   */\n      swap1\n      pop\n        /* \"#utility.yul\":3002:3077   */\n      swap1\n      jump\t// out\n        /* \"#utility.yul\":3083:3391   */\n    tag_18:\n        /* \"#utility.yul\":3145:3149   */\n      0x00\n        /* \"#utility.yul\":3235:3253   */\n      0xffffffffffffffff\n        /* \"#utility.yul\":3227:3233   */\n      dup3\n        /* \"#utility.yul\":3224:3254   */\n      gt\n        /* \"#utility.yul\":3221:3277   */\n      iszero\n      tag_68\n      jumpi\n        /* \"#utility.yul\":3257:3275   */\n      tag_69\n      tag_70\n      jump\t// in\n    tag_69:\n        /* \"#utility.yul\":3221:3277   */\n    tag_68:\n        /* \"#utility.yul\":3295:3324   */\n      tag_71\n        /* \"#utility.yul\":3317:3323   */\n      dup3\n        /* \"#utility.yul\":3295:3324   */\n      tag_55\n      jump\t// in\n    tag_71:\n        /* \"#utility.yul\":3287:3324   */\n      swap1\n      pop\n        /* \"#utility.yul\":3379:3383   */\n      0x20\n        /* \"#utility.yul\":3373:3377   */\n      dup2\n        /* \"#utility.yul\":3369:3384   */\n      add\n        /* \"#utility.yul\":3361:3384   */\n      swap1\n      pop\n        /* \"#utility.yul\":3083:3391   */\n      swap2\n      swap1\n      pop\n      jump\t// out\n        /* \"#utility.yul\":3397:3496   */\n    tag_49:\n        /* \"#utility.yul\":3449:3455   */\n      0x00\n        /* \"#utility.yul\":3483:3488   */\n      dup2\n        /* \"#utility.yul\":3477:3489   */\n      mload\n        /* \"#utility.yul\":3467:3489   */\n      swap1\n      pop\n        /* \"#utility.yul\":3397:3496   */\n      swap2\n      swap1\n      pop\n      jump\t// out\n        /* \"#utility.yul\":3502:3671   */\n    tag_51:\n        /* \"#utility.yul\":3586:3597   */\n      0x00\n        /* \"#utility.yul\":3620:3626   */\n      dup3\n        /* \"#utility.yul\":3615:3618   */\n      dup3\n        /* \"#utility.yul\":3608:3627   */\n      mstore\n        /* \"#utility.yul\":3660:3664   */\n      0x20\n        /* \"#utility.yul\":3655:3658   */\n      dup3\n        /* \"#utility.yul\":3651:3665   */\n      add\n        /* \"#utility.yul\":3636:3665   */\n      swap1\n      pop\n        /* \"#utility.yul\":3502:3671   */\n      swap3\n      swap2\n      pop\n      pop\n      jump\t// out\n        /* \"#utility.yul\":3677:3754   */\n    tag_45:\n        /* \"#utility.yul\":3714:3721   */\n      0x00\n        /* \"#utility.yul\":3743:3748   */\n      dup2\n        /* \"#utility.yul\":3732:3748   */\n      swap1\n      pop\n        /* \"#utility.yul\":3677:3754   */\n      swap2\n      swap1\n      pop\n      jump\t// out\n        /* \"#utility.yul\":3760:3914   */\n    tag_24:\n        /* \"#utility.yul\":3844:3850   */\n      dup3\n        /* \"#utility.yul\":3839:3842   */\n      dup2\n        /* \"#utility.yul\":3834:3837   */\n      dup4\n        /* \"#utility.yul\":3821:3851   */\n      calldatacopy\n        /* \"#utility.yul\":3906:3907   */\n      0x00\n        /* \"#utility.yul\":3897:3903   */\n      dup4\n        /* \"#utility.yul\":3892:3895   */\n      dup4\n        /* \"#utility.yul\":3888:3904   */\n      add\n        /* \"#utility.yul\":3881:3908   */\n      mstore\n        /* \"#utility.yul\":3760:3914   */\n      pop\n      pop\n      pop\n      jump\t// out\n        /* \"#utility.yul\":3920:4227   */\n    tag_53:\n        /* \"#utility.yul\":3988:3989   */\n      0x00\n        /* \"#utility.yul\":3998:4111   */\n    tag_77:\n        /* \"#utility.yul\":4012:4018   */\n      dup4\n        /* \"#utility.yul\":4009:4010   */\n      dup2\n        /* \"#utility.yul\":4006:4019   */\n      lt\n        /* \"#utility.yul\":3998:4111   */\n      iszero\n      tag_79\n      jumpi\n        /* \"#utility.yul\":4097:4098   */\n      dup1\n        /* \"#utility.yul\":4092:4095   */\n      dup3\n        /* \"#utility.yul\":4088:4099   */\n      add\n        /* \"#utility.yul\":4082:4100   */\n      mload\n        /* \"#utility.yul\":4078:4079   */\n      dup2\n        /* \"#utility.yul\":4073:4076   */\n      dup5\n        /* \"#utility.yul\":4069:4080   */\n      add\n        /* \"#utility.yul\":4062:4101   */\n      mstore\n        /* \"#utility.yul\":4034:4036   */\n      0x20\n        /* \"#utility.yul\":4031:4032   */\n      dup2\n        /* \"#utility.yul\":4027:4037   */\n      add\n        /* \"#utility.yul\":4022:4037   */\n      swap1\n      pop\n        /* \"#utility.yul\":3998:4111   */\n      jump(tag_77)\n    tag_79:\n        /* \"#utility.yul\":4129:4135   */\n      dup4\n        /* \"#utility.yul\":4126:4127   */\n      dup2\n        /* \"#utility.yul\":4123:4136   */\n      gt\n        /* \"#utility.yul\":4120:4221   */\n      iszero\n      tag_80\n      jumpi\n        /* \"#utility.yul\":4209:4210   */\n      0x00\n        /* \"#utility.yul\":4200:4206   */\n      dup5\n        /* \"#utility.yul\":4195:4198   */\n      dup5\n        /* \"#utility.yul\":4191:4207   */\n      add\n        /* \"#utility.yul\":4184:4211   */\n      mstore\n        /* \"#utility.yul\":4120:4221   */\n    tag_80:\n        /* \"#utility.yul\":3969:4227   */\n      pop\n        /* \"#utility.yul\":3920:4227   */\n      pop\n      pop\n      pop\n      jump\t// out\n        /* \"#utility.yul\":4233:4514   */\n    tag_65:\n        /* \"#utility.yul\":4316:4343   */\n      tag_82\n        /* \"#utility.yul\":4338:4342   */\n      dup3\n        /* \"#utility.yul\":4316:4343   */\n      tag_55\n      jump\t// in\n    tag_82:\n        /* \"#utility.yul\":4308:4314   */\n      dup2\n        /* \"#utility.yul\":4304:4344   */\n      add\n        /* \"#utility.yul\":4446:4452   */\n      dup2\n        /* \"#utility.yul\":4434:4444   */\n      dup2\n        /* \"#utility.yul\":4431:4453   */\n      lt\n        /* \"#utility.yul\":4410:4428   */\n      0xffffffffffffffff\n        /* \"#utility.yul\":4398:4408   */\n      dup3\n        /* \"#utility.yul\":4395:4429   */\n      gt\n        /* \"#utility.yul\":4392:4454   */\n      or\n        /* \"#utility.yul\":4389:4477   */\n      iszero\n      tag_83\n      jumpi\n        /* \"#utility.yul\":4457:4475   */\n      tag_84\n      tag_70\n      jump\t// in\n    tag_84:\n        /* \"#utility.yul\":4389:4477   */\n    tag_83:\n        /* \"#utility.yul\":4497:4507   */\n      dup1\n        /* \"#utility.yul\":4493:4495   */\n      0x40\n        /* \"#utility.yul\":4486:4508   */\n      mstore\n        /* \"#utility.yul\":4276:4514   */\n      pop\n        /* \"#utility.yul\":4233:4514   */\n      pop\n      pop\n      jump\t// out\n        /* \"#utility.yul\":4520:4700   */\n    tag_70:\n        /* \"#utility.yul\":4568:4645   */\n      0x4e487b7100000000000000000000000000000000000000000000000000000000\n        /* \"#utility.yul\":4565:4566   */\n      0x00\n        /* \"#utility.yul\":4558:4646   */\n      mstore\n        /* \"#utility.yul\":4665:4669   */\n      0x41\n        /* \"#utility.yul\":4662:4663   */\n      0x04\n        /* \"#utility.yul\":4655:4670   */\n      mstore\n        /* \"#utility.yul\":4689:4693   */\n      0x24\n        /* \"#utility.yul\":4686:4687   */\n      0x00\n        /* \"#utility.yul\":4679:4694   */\n      revert\n        /* \"#utility.yul\":4706:4823   */\n    tag_29:\n        /* \"#utility.yul\":4815:4816   */\n      0x00\n        /* \"#utility.yul\":4812:4813   */\n      dup1\n        /* \"#utility.yul\":4805:4817   */\n      revert\n        /* \"#utility.yul\":4829:4946   */\n    tag_22:\n        /* \"#utility.yul\":4938:4939   */\n      0x00\n        /* \"#utility.yul\":4935:4936   */\n      dup1\n        /* \"#utility.yul\":4928:4940   */\n      revert\n        /* \"#utility.yul\":4952:5069   */\n    tag_37:\n        /* \"#utility.yul\":5061:5062   */\n      0x00\n        /* \"#utility.yul\":5058:5059   */\n      dup1\n        /* \"#utility.yul\":5051:5063   */\n      revert\n        /* \"#utility.yul\":5075:5192   */\n    tag_34:\n        /* \"#utility.yul\":5184:5185   */\n      0x00\n        /* \"#utility.yul\":5181:5182   */\n      dup1\n        /* \"#utility.yul\":5174:5186   */\n      revert\n        /* \"#utility.yul\":5198:5300   */\n    tag_55:\n        /* \"#utility.yul\":5239:5245   */\n      0x00\n        /* \"#utility.yul\":5290:5292   */\n      0x1f\n        /* \"#utility.yul\":5286:5293   */\n      not\n        /* \"#utility.yul\":5281:5283   */\n      0x1f\n        /* \"#utility.yul\":5274:5279   */\n      dup4\n        /* \"#utility.yul\":5270:5284   */\n      add\n        /* \"#utility.yul\":5266:5294   */\n      and\n        /* \"#utility.yul\":5256:5294   */\n      swap1\n      pop\n        /* \"#utility.yul\":5198:5300   */\n      swap2\n      swap1\n      pop\n      jump\t// out\n\n    auxdata: 0xa2646970667358221220e1613b5ad905cd2e4c0763e07e7409a452909b53c326c72e76a9451ff7ee4e1764736f6c63430008070033\n}\n",
				"bytecode": {
					"linkReferences": {},
					"object": "608060405234801561001057600080fd5b506103aa806100206000396000f3fe608060405234801561001057600080fd5b506004361061002b5760003560e01c806317fe2da214610030575b600080fd5b61004a6004803603810190610045919061011f565b61004c565b005b7f32d5ab96f608074ecb7a2188938a6154ca0cb72029f98b277aa9284b9d47f5c382826040516020016100809291906101fa565b604051602081830303815290604052805190602001206040516100a391906101df565b60405180910390a15050565b60006100c26100bd84610256565b610231565b9050828152602081018484840111156100de576100dd610354565b5b6100e98482856102ad565b509392505050565b600082601f8301126101065761010561034f565b5b81356101168482602086016100af565b91505092915050565b600080604083850312156101365761013561035e565b5b600083013567ffffffffffffffff81111561015457610153610359565b5b610160858286016100f1565b925050602083013567ffffffffffffffff81111561018157610180610359565b5b61018d858286016100f1565b9150509250929050565b6101a0816102a3565b82525050565b60006101b182610287565b6101bb8185610292565b93506101cb8185602086016102bc565b6101d481610363565b840191505092915050565b60006020820190506101f46000830184610197565b92915050565b6000604082019050818103600083015261021481856101a6565b9050818103602083015261022881846101a6565b90509392505050565b600061023b61024c565b905061024782826102ef565b919050565b6000604051905090565b600067ffffffffffffffff82111561027157610270610320565b5b61027a82610363565b9050602081019050919050565b600081519050919050565b600082825260208201905092915050565b6000819050919050565b82818337600083830152505050565b60005b838110156102da5780820151818401526020810190506102bf565b838111156102e9576000848401525b50505050565b6102f882610363565b810181811067ffffffffffffffff8211171561031757610316610320565b5b80604052505050565b7f4e487b7100000000000000000000000000000000000000000000000000000000600052604160045260246000fd5b600080fd5b600080fd5b600080fd5b600080fd5b6000601f19601f830116905091905056fea2646970667358221220e1613b5ad905cd2e4c0763e07e7409a452909b53c326c72e76a9451ff7ee4e1764736f6c63430008070033",
					"opcodes": "PUSH1 0x80 PUSH1 0x40 MSTORE CALLVALUE DUP1 ISZERO PUSH2 0x10 JUMPI PUSH1 0x0 DUP1 REVERT JUMPDEST POP PUSH2 0x3AA DUP1 PUSH2 0x20 PUSH1 0x0 CODECOPY PUSH1 0x0 RETURN INVALID PUSH1 0x80 PUSH1 0x40 MSTORE CALLVALUE DUP1 ISZERO PUSH2 0x10 JUMPI PUSH1 0x0 DUP1 REVERT JUMPDEST POP PUSH1 0x4 CALLDATASIZE LT PUSH2 0x2B JUMPI PUSH1 0x0 CALLDATALOAD PUSH1 0xE0 SHR DUP1 PUSH4 0x17FE2DA2 EQ PUSH2 0x30 JUMPI JUMPDEST PUSH1 0x0 DUP1 REVERT JUMPDEST PUSH2 0x4A PUSH1 0x4 DUP1 CALLDATASIZE SUB DUP2 ADD SWAP1 PUSH2 0x45 SWAP2 SWAP1 PUSH2 0x11F JUMP JUMPDEST PUSH2 0x4C JUMP JUMPDEST STOP JUMPDEST PUSH32 0x32D5AB96F608074ECB7A2188938A6154CA0CB72029F98B277AA9284B9D47F5C3 DUP3 DUP3 PUSH1 0x40 MLOAD PUSH1 0x20 ADD PUSH2 0x80 SWAP3 SWAP2 SWAP1 PUSH2 0x1FA JUMP JUMPDEST PUSH1 0x40 MLOAD PUSH1 0x20 DUP2 DUP4 SUB SUB DUP2 MSTORE SWAP1 PUSH1 0x40 MSTORE DUP1 MLOAD SWAP1 PUSH1 0x20 ADD KECCAK256 PUSH1 0x40 MLOAD PUSH2 0xA3 SWAP2 SWAP1 PUSH2 0x1DF JUMP JUMPDEST PUSH1 0x40 MLOAD DUP1 SWAP2 SUB SWAP1 LOG1 POP POP JUMP JUMPDEST PUSH1 0x0 PUSH2 0xC2 PUSH2 0xBD DUP5 PUSH2 0x256 JUMP JUMPDEST PUSH2 0x231 JUMP JUMPDEST SWAP1 POP DUP3 DUP2 MSTORE PUSH1 0x20 DUP2 ADD DUP5 DUP5 DUP5 ADD GT ISZERO PUSH2 0xDE JUMPI PUSH2 0xDD PUSH2 0x354 JUMP JUMPDEST JUMPDEST PUSH2 0xE9 DUP5 DUP3 DUP6 PUSH2 0x2AD JUMP JUMPDEST POP SWAP4 SWAP3 POP POP POP JUMP JUMPDEST PUSH1 0x0 DUP3 PUSH1 0x1F DUP4 ADD SLT PUSH2 0x106 JUMPI PUSH2 0x105 PUSH2 0x34F JUMP JUMPDEST JUMPDEST DUP2 CALLDATALOAD PUSH2 0x116 DUP5 DUP3 PUSH1 0x20 DUP7 ADD PUSH2 0xAF JUMP JUMPDEST SWAP2 POP POP SWAP3 SWAP2 POP POP JUMP JUMPDEST PUSH1 0x0 DUP1 PUSH1 0x40 DUP4 DUP6 SUB SLT ISZERO PUSH2 0x136 JUMPI PUSH2 0x135 PUSH2 0x35E JUMP JUMPDEST JUMPDEST PUSH1 0x0 DUP4 ADD CALLDATALOAD PUSH8 0xFFFFFFFFFFFFFFFF DUP2 GT ISZERO PUSH2 0x154 JUMPI PUSH2 0x153 PUSH2 0x359 JUMP JUMPDEST JUMPDEST PUSH2 0x160 DUP6 DUP3 DUP7 ADD PUSH2 0xF1 JUMP JUMPDEST SWAP3 POP POP PUSH1 0x20 DUP4 ADD CALLDATALOAD PUSH8 0xFFFFFFFFFFFFFFFF DUP2 GT ISZERO PUSH2 0x181 JUMPI PUSH2 0x180 PUSH2 0x359 JUMP JUMPDEST JUMPDEST PUSH2 0x18D DUP6 DUP3 DUP7 ADD PUSH2 0xF1 JUMP JUMPDEST SWAP2 POP POP SWAP3 POP SWAP3 SWAP1 POP JUMP JUMPDEST PUSH2 0x1A0 DUP2 PUSH2 0x2A3 JUMP JUMPDEST DUP3 MSTORE POP POP JUMP JUMPDEST PUSH1 0x0 PUSH2 0x1B1 DUP3 PUSH2 0x287 JUMP JUMPDEST PUSH2 0x1BB DUP2 DUP6 PUSH2 0x292 JUMP JUMPDEST SWAP4 POP PUSH2 0x1CB DUP2 DUP6 PUSH1 0x20 DUP7 ADD PUSH2 0x2BC JUMP JUMPDEST PUSH2 0x1D4 DUP2 PUSH2 0x363 JUMP JUMPDEST DUP5 ADD SWAP2 POP POP SWAP3 SWAP2 POP POP JUMP JUMPDEST PUSH1 0x0 PUSH1 0x20 DUP3 ADD SWAP1 POP PUSH2 0x1F4 PUSH1 0x0 DUP4 ADD DUP5 PUSH2 0x197 JUMP JUMPDEST SWAP3 SWAP2 POP POP JUMP JUMPDEST PUSH1 0x0 PUSH1 0x40 DUP3 ADD SWAP1 POP DUP2 DUP2 SUB PUSH1 0x0 DUP4 ADD MSTORE PUSH2 0x214 DUP2 DUP6 PUSH2 0x1A6 JUMP JUMPDEST SWAP1 POP DUP2 DUP2 SUB PUSH1 0x20 DUP4 ADD MSTORE PUSH2 0x228 DUP2 DUP5 PUSH2 0x1A6 JUMP JUMPDEST SWAP1 POP SWAP4 SWAP3 POP POP POP JUMP JUMPDEST PUSH1 0x0 PUSH2 0x23B PUSH2 0x24C JUMP JUMPDEST SWAP1 POP PUSH2 0x247 DUP3 DUP3 PUSH2 0x2EF JUMP JUMPDEST SWAP2 SWAP1 POP JUMP JUMPDEST PUSH1 0x0 PUSH1 0x40 MLOAD SWAP1 POP SWAP1 JUMP JUMPDEST PUSH1 0x0 PUSH8 0xFFFFFFFFFFFFFFFF DUP3 GT ISZERO PUSH2 0x271 JUMPI PUSH2 0x270 PUSH2 0x320 JUMP JUMPDEST JUMPDEST PUSH2 0x27A DUP3 PUSH2 0x363 JUMP JUMPDEST SWAP1 POP PUSH1 0x20 DUP2 ADD SWAP1 POP SWAP2 SWAP1 POP JUMP JUMPDEST PUSH1 0x0 DUP2 MLOAD SWAP1 POP SWAP2 SWAP1 POP JUMP JUMPDEST PUSH1 0x0 DUP3 DUP3 MSTORE PUSH1 0x20 DUP3 ADD SWAP1 POP SWAP3 SWAP2 POP POP JUMP JUMPDEST PUSH1 0x0 DUP2 SWAP1 POP SWAP2 SWAP1 POP JUMP JUMPDEST DUP3 DUP2 DUP4 CALLDATACOPY PUSH1 0x0 DUP4 DUP4 ADD MSTORE POP POP POP JUMP JUMPDEST PUSH1 0x0 JUMPDEST DUP4 DUP2 LT ISZERO PUSH2 0x2DA JUMPI DUP1 DUP3 ADD MLOAD DUP2 DUP5 ADD MSTORE PUSH1 0x20 DUP2 ADD SWAP1 POP PUSH2 0x2BF JUMP JUMPDEST DUP4 DUP2 GT ISZERO PUSH2 0x2E9 JUMPI PUSH1 0x0 DUP5 DUP5 ADD MSTORE JUMPDEST POP POP POP POP JUMP JUMPDEST PUSH2 0x2F8 DUP3 PUSH2 0x363 JUMP JUMPDEST DUP2 ADD DUP2 DUP2 LT PUSH8 0xFFFFFFFFFFFFFFFF DUP3 GT OR ISZERO PUSH2 0x317 JUMPI PUSH2 0x316 PUSH2 0x320 JUMP JUMPDEST JUMPDEST DUP1 PUSH1 0x40 MSTORE POP POP POP JUMP JUMPDEST PUSH32 0x4E487B7100000000000000000000000000000000000000000000000000000000 PUSH1 0x0 MSTORE PUSH1 0x41 PUSH1 0x4 MSTORE PUSH1 0x24 PUSH1 0x0 REVERT JUMPDEST PUSH1 0x0 DUP1 REVERT JUMPDEST PUSH1 0x0 DUP1 REVERT JUMPDEST PUSH1 0x0 DUP1 REVERT JUMPDEST PUSH1 0x0 DUP1 REVERT JUMPDEST PUSH1 0x0 PUSH1 0x1F NOT PUSH1 0x1F DUP4 ADD AND SWAP1 POP SWAP2 SWAP1 POP JUMP INVALID LOG2 PUSH5 0x6970667358 0x22 SLT KECCAK256 0xE1 PUSH2 0x3B5A 0xD9 SDIV 0xCD 0x2E 0x4C SMOD PUSH4 0xE07E7409 LOG4 MSTORE SWAP1 SWAP12 MSTORE8 0xC3 0x26 0xC7 0x2E PUSH23 0xA9451FF7EE4E1764736F6C634300080700330000000000 "
				},
				"gasEstimates": {
					"creation": {
						"codeDepositCost": "187600",
						"executionCost": "232",
						"totalCost": "187832"
					},
					"external": {
						"encode(string,string)": "infinite"
					}
				},
				"methodIdentifiers": {
					"encode(string,string)": "17fe2da2"
				}
			},
			"storageLayout": {
				"storage": [],
				"types": null
			},
			"userdoc": {
				"kind": "user",
				"methods": {},
				"version": 1
			}
		}
	}
}