{
	"Week5/FunctionSelector.sol": {
		"FunctionSelector": {
			"abi": [
				{
					"inputs": [
						{
							"internalType": "string",
							"name": "s1",
							"type": "string"
						},
						{
							"internalType": "string",
							"name": "s2",
							"type": "string"
						}
					],
					"name": "encode",
					"outputs": [
						{
							"internalType": "bytes",
							"name": "",
							"type": "bytes"
						}
					],
					"stateMutability": "pure",
					"type": "function"
				},
				{
					"inputs": [
						{
							"internalType": "bytes",
							"name": "b",
							"type": "bytes"
						}
					],
					"name": "encodeBytes",
					"outputs": [
						{
							"internalType": "bytes",
							"name": "",
							"type": "bytes"
						}
					],
					"stateMutability": "pure",
					"type": "function"
				},
				{
					"inputs": [
						{
							"internalType": "string",
							"name": "s1",
							"type": "string"
						},
						{
							"internalType": "string",
							"name": "s2",
							"type": "string"
						}
					],
					"name": "encodePacked",
					"outputs": [
						{
							"internalType": "bytes",
							"name": "",
							"type": "bytes"
						}
					],
					"stateMutability": "pure",
					"type": "function"
				},
				{
					"inputs": [],
					"name": "encodeWithSignature",
					"outputs": [
						{
							"internalType": "bytes",
							"name": "",
							"type": "bytes"
						}
					],
					"stateMutability": "pure",
					"type": "function"
				},
				{
					"inputs": [],
					"name": "encodeWithSignatureManual",
					"outputs": [
						{
							"internalType": "bytes32",
							"name": "",
							"type": "bytes32"
						}
					],
					"stateMutability": "pure",
					"type": "function"
				}
			],
			"devdoc": {
				"kind": "dev",
				"methods": {},
				"version": 1
			},
			"evm": {
				"assembly": "    /* \"Week5/FunctionSelector.sol\":70:788  contract FunctionSelector {... */\n  mstore(0x40, 0x80)\n  callvalue\n  dup1\n  iszero\n  tag_1\n  jumpi\n  0x00\n  dup1\n  revert\ntag_1:\n  pop\n  dataSize(sub_0)\n  dup1\n  dataOffset(sub_0)\n  0x00\n  codecopy\n  0x00\n  return\nstop\n\nsub_0: assembly {\n        /* \"Week5/FunctionSelector.sol\":70:788  contract FunctionSelector {... */\n      mstore(0x40, 0x80)\n      callvalue\n      dup1\n      iszero\n      tag_1\n      jumpi\n      0x00\n      dup1\n      revert\n    tag_1:\n      pop\n      jumpi(tag_2, lt(calldatasize, 0x04))\n      shr(0xe0, calldataload(0x00))\n      dup1\n      0x17fe2da2\n      eq\n      tag_3\n      jumpi\n      dup1\n      0x72d9353c\n      eq\n      tag_4\n      jumpi\n      dup1\n      0x892e5d01\n      eq\n      tag_5\n      jumpi\n      dup1\n      0xe3ac07f5\n      eq\n      tag_6\n      jumpi\n      dup1\n      0xe4f2a84a\n      eq\n      tag_7\n      jumpi\n    tag_2:\n      0x00\n      dup1\n      revert\n        /* \"Week5/FunctionSelector.sol\":102:232  function encode(string memory s1, string memory s2) external pure returns(bytes memory) {... */\n    tag_3:\n      tag_8\n      0x04\n      dup1\n      calldatasize\n      sub\n      dup2\n      add\n      swap1\n      tag_9\n      swap2\n      swap1\n      tag_10\n      jump\t// in\n    tag_9:\n      tag_11\n      jump\t// in\n    tag_8:\n      mload(0x40)\n      tag_12\n      swap2\n      swap1\n      tag_13\n      jump\t// in\n    tag_12:\n      mload(0x40)\n      dup1\n      swap2\n      sub\n      swap1\n      return\n        /* \"Week5/FunctionSelector.sol\":646:786  function encodeWithSignatureManual() external pure returns(bytes32) {... */\n    tag_4:\n      tag_14\n      tag_15\n      jump\t// in\n    tag_14:\n      mload(0x40)\n      tag_16\n      swap2\n      swap1\n      tag_17\n      jump\t// in\n    tag_16:\n      mload(0x40)\n      dup1\n      swap2\n      sub\n      swap1\n      return\n        /* \"Week5/FunctionSelector.sol\":354:496  function encodePacked(string memory s1, string memory s2) external pure returns(bytes memory) {... */\n    tag_5:\n      tag_18\n      0x04\n      dup1\n      calldatasize\n      sub\n      dup2\n      add\n      swap1\n      tag_19\n      swap2\n      swap1\n      tag_10\n      jump\t// in\n    tag_19:\n      tag_20\n      jump\t// in\n    tag_18:\n      mload(0x40)\n      tag_21\n      swap2\n      swap1\n      tag_13\n      jump\t// in\n    tag_21:\n      mload(0x40)\n      dup1\n      swap2\n      sub\n      swap1\n      return\n        /* \"Week5/FunctionSelector.sol\":238:348  function encodeBytes(bytes memory b) external pure returns(bytes memory) {... */\n    tag_6:\n      tag_22\n      0x04\n      dup1\n      calldatasize\n      sub\n      dup2\n      add\n      swap1\n      tag_23\n      swap2\n      swap1\n      tag_24\n      jump\t// in\n    tag_23:\n      tag_25\n      jump\t// in\n    tag_22:\n      mload(0x40)\n      tag_26\n      swap2\n      swap1\n      tag_13\n      jump\t// in\n    tag_26:\n      mload(0x40)\n      dup1\n      swap2\n      sub\n      swap1\n      return\n        /* \"Week5/FunctionSelector.sol\":502:640  function encodeWithSignature() external pure returns(bytes memory) {... */\n    tag_7:\n      tag_27\n      tag_28\n      jump\t// in\n    tag_27:\n      mload(0x40)\n      tag_29\n      swap2\n      swap1\n      tag_13\n      jump\t// in\n    tag_29:\n      mload(0x40)\n      dup1\n      swap2\n      sub\n      swap1\n      return\n        /* \"Week5/FunctionSelector.sol\":102:232  function encode(string memory s1, string memory s2) external pure returns(bytes memory) {... */\n    tag_11:\n        /* \"Week5/FunctionSelector.sol\":176:188  bytes memory */\n      0x60\n        /* \"Week5/FunctionSelector.sol\":218:220  s1 */\n      dup3\n        /* \"Week5/FunctionSelector.sol\":222:224  s2 */\n      dup3\n        /* \"Week5/FunctionSelector.sol\":207:225  abi.encode(s1, s2) */\n      add(0x20, mload(0x40))\n      tag_31\n      swap3\n      swap2\n      swap1\n      tag_32\n      jump\t// in\n    tag_31:\n      mload(0x40)\n      0x20\n      dup2\n      dup4\n      sub\n      sub\n      dup2\n      mstore\n      swap1\n      0x40\n      mstore\n        /* \"Week5/FunctionSelector.sol\":200:225  return abi.encode(s1, s2) */\n      swap1\n      pop\n        /* \"Week5/FunctionSelector.sol\":102:232  function encode(string memory s1, string memory s2) external pure returns(bytes memory) {... */\n      swap3\n      swap2\n      pop\n      pop\n      jump\t// out\n        /* \"Week5/FunctionSelector.sol\":646:786  function encodeWithSignatureManual() external pure returns(bytes32) {... */\n    tag_15:\n        /* \"Week5/FunctionSelector.sol\":705:712  bytes32 */\n      0x00\n        /* \"Week5/FunctionSelector.sol\":748:777  bytes(\"sum(uint256,uint256)\") */\n      mload(0x40)\n      dup1\n      0x40\n      add\n      0x40\n      mstore\n      dup1\n      0x14\n      dup2\n      mstore\n      0x20\n      add\n      0x73756d2875696e743235362c75696e7432353629000000000000000000000000\n      dup2\n      mstore\n      pop\n        /* \"Week5/FunctionSelector.sol\":738:778  keccak256(bytes(\"sum(uint256,uint256)\")) */\n      dup1\n      mload\n      swap1\n      0x20\n      add\n      keccak256\n        /* \"Week5/FunctionSelector.sol\":724:779  return bytes4(keccak256(bytes(\"sum(uint256,uint256)\"))) */\n      not(0xffffffffffffffffffffffffffffffffffffffffffffffffffffffff)\n      and\n      swap1\n      pop\n        /* \"Week5/FunctionSelector.sol\":646:786  function encodeWithSignatureManual() external pure returns(bytes32) {... */\n      swap1\n      jump\t// out\n        /* \"Week5/FunctionSelector.sol\":354:496  function encodePacked(string memory s1, string memory s2) external pure returns(bytes memory) {... */\n    tag_20:\n        /* \"Week5/FunctionSelector.sol\":434:446  bytes memory */\n      0x60\n        /* \"Week5/FunctionSelector.sol\":482:484  s1 */\n      dup3\n        /* \"Week5/FunctionSelector.sol\":486:488  s2 */\n      dup3\n        /* \"Week5/FunctionSelector.sol\":465:489  abi.encodePacked(s1, s2) */\n      add(0x20, mload(0x40))\n      tag_35\n      swap3\n      swap2\n      swap1\n      tag_36\n      jump\t// in\n    tag_35:\n      mload(0x40)\n      0x20\n      dup2\n      dup4\n      sub\n      sub\n      dup2\n      mstore\n      swap1\n      0x40\n      mstore\n        /* \"Week5/FunctionSelector.sol\":458:489  return abi.encodePacked(s1, s2) */\n      swap1\n      pop\n        /* \"Week5/FunctionSelector.sol\":354:496  function encodePacked(string memory s1, string memory s2) external pure returns(bytes memory) {... */\n      swap3\n      swap2\n      pop\n      pop\n      jump\t// out\n        /* \"Week5/FunctionSelector.sol\":238:348  function encodeBytes(bytes memory b) external pure returns(bytes memory) {... */\n    tag_25:\n        /* \"Week5/FunctionSelector.sol\":297:309  bytes memory */\n      0x60\n        /* \"Week5/FunctionSelector.sol\":339:340  b */\n      dup2\n        /* \"Week5/FunctionSelector.sol\":328:341  abi.encode(b) */\n      add(0x20, mload(0x40))\n      tag_38\n      swap2\n      swap1\n      tag_13\n      jump\t// in\n    tag_38:\n      mload(0x40)\n      0x20\n      dup2\n      dup4\n      sub\n      sub\n      dup2\n      mstore\n      swap1\n      0x40\n      mstore\n        /* \"Week5/FunctionSelector.sol\":321:341  return abi.encode(b) */\n      swap1\n      pop\n        /* \"Week5/FunctionSelector.sol\":238:348  function encodeBytes(bytes memory b) external pure returns(bytes memory) {... */\n      swap2\n      swap1\n      pop\n      jump\t// out\n        /* \"Week5/FunctionSelector.sol\":502:640  function encodeWithSignature() external pure returns(bytes memory) {... */\n    tag_28:\n        /* \"Week5/FunctionSelector.sol\":555:567  bytes memory */\n      0x60\n        /* \"Week5/FunctionSelector.sol\":586:633  abi.encodeWithSignature(\"sum(uint256,uint256)\") */\n      add(0x24, mload(0x40))\n      mload(0x40)\n      0x20\n      dup2\n      dup4\n      sub\n      sub\n      dup2\n      mstore\n      swap1\n      0x40\n      mstore\n      and(not(0xffffffffffffffffffffffffffffffffffffffffffffffffffffffff), 0xcad0899b00000000000000000000000000000000000000000000000000000000)\n      0x20\n      dup3\n      add\n      dup1\n      mload\n      0xffffffffffffffffffffffffffffffffffffffffffffffffffffffff\n      dup4\n      dup2\n      dup4\n      and\n      or\n      dup4\n      mstore\n      pop\n      pop\n      pop\n      pop\n        /* \"Week5/FunctionSelector.sol\":579:633  return abi.encodeWithSignature(\"sum(uint256,uint256)\") */\n      swap1\n      pop\n        /* \"Week5/FunctionSelector.sol\":502:640  function encodeWithSignature() external pure returns(bytes memory) {... */\n      swap1\n      jump\t// out\n        /* \"#utility.yul\":7:417   */\n    tag_41:\n        /* \"#utility.yul\":84:89   */\n      0x00\n        /* \"#utility.yul\":109:174   */\n      tag_43\n        /* \"#utility.yul\":125:173   */\n      tag_44\n        /* \"#utility.yul\":166:172   */\n      dup5\n        /* \"#utility.yul\":125:173   */\n      tag_45\n      jump\t// in\n    tag_44:\n        /* \"#utility.yul\":109:174   */\n      tag_46\n      jump\t// in\n    tag_43:\n        /* \"#utility.yul\":100:174   */\n      swap1\n      pop\n        /* \"#utility.yul\":197:203   */\n      dup3\n        /* \"#utility.yul\":190:195   */\n      dup2\n        /* \"#utility.yul\":183:204   */\n      mstore\n        /* \"#utility.yul\":235:239   */\n      0x20\n        /* \"#utility.yul\":228:233   */\n      dup2\n        /* \"#utility.yul\":224:240   */\n      add\n        /* \"#utility.yul\":273:276   */\n      dup5\n        /* \"#utility.yul\":264:270   */\n      dup5\n        /* \"#utility.yul\":259:262   */\n      dup5\n        /* \"#utility.yul\":255:271   */\n      add\n        /* \"#utility.yul\":252:277   */\n      gt\n        /* \"#utility.yul\":249:361   */\n      iszero\n      tag_47\n      jumpi\n        /* \"#utility.yul\":280:359   */\n      tag_48\n      tag_49\n      jump\t// in\n    tag_48:\n        /* \"#utility.yul\":249:361   */\n    tag_47:\n        /* \"#utility.yul\":370:411   */\n      tag_50\n        /* \"#utility.yul\":404:410   */\n      dup5\n        /* \"#utility.yul\":399:402   */\n      dup3\n        /* \"#utility.yul\":394:397   */\n      dup6\n        /* \"#utility.yul\":370:411   */\n      tag_51\n      jump\t// in\n    tag_50:\n        /* \"#utility.yul\":90:417   */\n      pop\n        /* \"#utility.yul\":7:417   */\n      swap4\n      swap3\n      pop\n      pop\n      pop\n      jump\t// out\n        /* \"#utility.yul\":423:835   */\n    tag_52:\n        /* \"#utility.yul\":501:506   */\n      0x00\n        /* \"#utility.yul\":526:592   */\n      tag_54\n        /* \"#utility.yul\":542:591   */\n      tag_55\n        /* \"#utility.yul\":584:590   */\n      dup5\n        /* \"#utility.yul\":542:591   */\n      tag_56\n      jump\t// in\n    tag_55:\n        /* \"#utility.yul\":526:592   */\n      tag_46\n      jump\t// in\n    tag_54:\n        /* \"#utility.yul\":517:592   */\n      swap1\n      pop\n        /* \"#utility.yul\":615:621   */\n      dup3\n        /* \"#utility.yul\":608:613   */\n      dup2\n        /* \"#utility.yul\":601:622   */\n      mstore\n        /* \"#utility.yul\":653:657   */\n      0x20\n        /* \"#utility.yul\":646:651   */\n      dup2\n        /* \"#utility.yul\":642:658   */\n      add\n        /* \"#utility.yul\":691:694   */\n      dup5\n        /* \"#utility.yul\":682:688   */\n      dup5\n        /* \"#utility.yul\":677:680   */\n      dup5\n        /* \"#utility.yul\":673:689   */\n      add\n        /* \"#utility.yul\":670:695   */\n      gt\n        /* \"#utility.yul\":667:779   */\n      iszero\n      tag_57\n      jumpi\n        /* \"#utility.yul\":698:777   */\n      tag_58\n      tag_49\n      jump\t// in\n    tag_58:\n        /* \"#utility.yul\":667:779   */\n    tag_57:\n        /* \"#utility.yul\":788:829   */\n      tag_59\n        /* \"#utility.yul\":822:828   */\n      dup5\n        /* \"#utility.yul\":817:820   */\n      dup3\n        /* \"#utility.yul\":812:815   */\n      dup6\n        /* \"#utility.yul\":788:829   */\n      tag_51\n      jump\t// in\n    tag_59:\n        /* \"#utility.yul\":507:835   */\n      pop\n        /* \"#utility.yul\":423:835   */\n      swap4\n      swap3\n      pop\n      pop\n      pop\n      jump\t// out\n        /* \"#utility.yul\":854:1192   */\n    tag_60:\n        /* \"#utility.yul\":909:914   */\n      0x00\n        /* \"#utility.yul\":958:961   */\n      dup3\n        /* \"#utility.yul\":951:955   */\n      0x1f\n        /* \"#utility.yul\":943:949   */\n      dup4\n        /* \"#utility.yul\":939:956   */\n      add\n        /* \"#utility.yul\":935:962   */\n      slt\n        /* \"#utility.yul\":925:1047   */\n      tag_62\n      jumpi\n        /* \"#utility.yul\":966:1045   */\n      tag_63\n      tag_64\n      jump\t// in\n    tag_63:\n        /* \"#utility.yul\":925:1047   */\n    tag_62:\n        /* \"#utility.yul\":1083:1089   */\n      dup2\n        /* \"#utility.yul\":1070:1090   */\n      calldataload\n        /* \"#utility.yul\":1108:1186   */\n      tag_65\n        /* \"#utility.yul\":1182:1185   */\n      dup5\n        /* \"#utility.yul\":1174:1180   */\n      dup3\n        /* \"#utility.yul\":1167:1171   */\n      0x20\n        /* \"#utility.yul\":1159:1165   */\n      dup7\n        /* \"#utility.yul\":1155:1172   */\n      add\n        /* \"#utility.yul\":1108:1186   */\n      tag_41\n      jump\t// in\n    tag_65:\n        /* \"#utility.yul\":1099:1186   */\n      swap2\n      pop\n        /* \"#utility.yul\":915:1192   */\n      pop\n        /* \"#utility.yul\":854:1192   */\n      swap3\n      swap2\n      pop\n      pop\n      jump\t// out\n        /* \"#utility.yul\":1212:1552   */\n    tag_66:\n        /* \"#utility.yul\":1268:1273   */\n      0x00\n        /* \"#utility.yul\":1317:1320   */\n      dup3\n        /* \"#utility.yul\":1310:1314   */\n      0x1f\n        /* \"#utility.yul\":1302:1308   */\n      dup4\n        /* \"#utility.yul\":1298:1315   */\n      add\n        /* \"#utility.yul\":1294:1321   */\n      slt\n        /* \"#utility.yul\":1284:1406   */\n      tag_68\n      jumpi\n        /* \"#utility.yul\":1325:1404   */\n      tag_69\n      tag_64\n      jump\t// in\n    tag_69:\n        /* \"#utility.yul\":1284:1406   */\n    tag_68:\n        /* \"#utility.yul\":1442:1448   */\n      dup2\n        /* \"#utility.yul\":1429:1449   */\n      calldataload\n        /* \"#utility.yul\":1467:1546   */\n      tag_70\n        /* \"#utility.yul\":1542:1545   */\n      dup5\n        /* \"#utility.yul\":1534:1540   */\n      dup3\n        /* \"#utility.yul\":1527:1531   */\n      0x20\n        /* \"#utility.yul\":1519:1525   */\n      dup7\n        /* \"#utility.yul\":1515:1532   */\n      add\n        /* \"#utility.yul\":1467:1546   */\n      tag_52\n      jump\t// in\n    tag_70:\n        /* \"#utility.yul\":1458:1546   */\n      swap2\n      pop\n        /* \"#utility.yul\":1274:1552   */\n      pop\n        /* \"#utility.yul\":1212:1552   */\n      swap3\n      swap2\n      pop\n      pop\n      jump\t// out\n        /* \"#utility.yul\":1558:2065   */\n    tag_24:\n        /* \"#utility.yul\":1626:1632   */\n      0x00\n        /* \"#utility.yul\":1675:1677   */\n      0x20\n        /* \"#utility.yul\":1663:1672   */\n      dup3\n        /* \"#utility.yul\":1654:1661   */\n      dup5\n        /* \"#utility.yul\":1650:1673   */\n      sub\n        /* \"#utility.yul\":1646:1678   */\n      slt\n        /* \"#utility.yul\":1643:1762   */\n      iszero\n      tag_72\n      jumpi\n        /* \"#utility.yul\":1681:1760   */\n      tag_73\n      tag_74\n      jump\t// in\n    tag_73:\n        /* \"#utility.yul\":1643:1762   */\n    tag_72:\n        /* \"#utility.yul\":1829:1830   */\n      0x00\n        /* \"#utility.yul\":1818:1827   */\n      dup3\n        /* \"#utility.yul\":1814:1831   */\n      add\n        /* \"#utility.yul\":1801:1832   */\n      calldataload\n        /* \"#utility.yul\":1859:1877   */\n      0xffffffffffffffff\n        /* \"#utility.yul\":1851:1857   */\n      dup2\n        /* \"#utility.yul\":1848:1878   */\n      gt\n        /* \"#utility.yul\":1845:1962   */\n      iszero\n      tag_75\n      jumpi\n        /* \"#utility.yul\":1881:1960   */\n      tag_76\n      tag_77\n      jump\t// in\n    tag_76:\n        /* \"#utility.yul\":1845:1962   */\n    tag_75:\n        /* \"#utility.yul\":1986:2048   */\n      tag_78\n        /* \"#utility.yul\":2040:2047   */\n      dup5\n        /* \"#utility.yul\":2031:2037   */\n      dup3\n        /* \"#utility.yul\":2020:2029   */\n      dup6\n        /* \"#utility.yul\":2016:2038   */\n      add\n        /* \"#utility.yul\":1986:2048   */\n      tag_60\n      jump\t// in\n    tag_78:\n        /* \"#utility.yul\":1976:2048   */\n      swap2\n      pop\n        /* \"#utility.yul\":1772:2058   */\n      pop\n        /* \"#utility.yul\":1558:2065   */\n      swap3\n      swap2\n      pop\n      pop\n      jump\t// out\n        /* \"#utility.yul\":2071:2905   */\n    tag_10:\n        /* \"#utility.yul\":2159:2165   */\n      0x00\n        /* \"#utility.yul\":2167:2173   */\n      dup1\n        /* \"#utility.yul\":2216:2218   */\n      0x40\n        /* \"#utility.yul\":2204:2213   */\n      dup4\n        /* \"#utility.yul\":2195:2202   */\n      dup6\n        /* \"#utility.yul\":2191:2214   */\n      sub\n        /* \"#utility.yul\":2187:2219   */\n      slt\n        /* \"#utility.yul\":2184:2303   */\n      iszero\n      tag_80\n      jumpi\n        /* \"#utility.yul\":2222:2301   */\n      tag_81\n      tag_74\n      jump\t// in\n    tag_81:\n        /* \"#utility.yul\":2184:2303   */\n    tag_80:\n        /* \"#utility.yul\":2370:2371   */\n      0x00\n        /* \"#utility.yul\":2359:2368   */\n      dup4\n        /* \"#utility.yul\":2355:2372   */\n      add\n        /* \"#utility.yul\":2342:2373   */\n      calldataload\n        /* \"#utility.yul\":2400:2418   */\n      0xffffffffffffffff\n        /* \"#utility.yul\":2392:2398   */\n      dup2\n        /* \"#utility.yul\":2389:2419   */\n      gt\n        /* \"#utility.yul\":2386:2503   */\n      iszero\n      tag_82\n      jumpi\n        /* \"#utility.yul\":2422:2501   */\n      tag_83\n      tag_77\n      jump\t// in\n    tag_83:\n        /* \"#utility.yul\":2386:2503   */\n    tag_82:\n        /* \"#utility.yul\":2527:2590   */\n      tag_84\n        /* \"#utility.yul\":2582:2589   */\n      dup6\n        /* \"#utility.yul\":2573:2579   */\n      dup3\n        /* \"#utility.yul\":2562:2571   */\n      dup7\n        /* \"#utility.yul\":2558:2580   */\n      add\n        /* \"#utility.yul\":2527:2590   */\n      tag_66\n      jump\t// in\n    tag_84:\n        /* \"#utility.yul\":2517:2590   */\n      swap3\n      pop\n        /* \"#utility.yul\":2313:2600   */\n      pop\n        /* \"#utility.yul\":2667:2669   */\n      0x20\n        /* \"#utility.yul\":2656:2665   */\n      dup4\n        /* \"#utility.yul\":2652:2670   */\n      add\n        /* \"#utility.yul\":2639:2671   */\n      calldataload\n        /* \"#utility.yul\":2698:2716   */\n      0xffffffffffffffff\n        /* \"#utility.yul\":2690:2696   */\n      dup2\n        /* \"#utility.yul\":2687:2717   */\n      gt\n        /* \"#utility.yul\":2684:2801   */\n      iszero\n      tag_85\n      jumpi\n        /* \"#utility.yul\":2720:2799   */\n      tag_86\n      tag_77\n      jump\t// in\n    tag_86:\n        /* \"#utility.yul\":2684:2801   */\n    tag_85:\n        /* \"#utility.yul\":2825:2888   */\n      tag_87\n        /* \"#utility.yul\":2880:2887   */\n      dup6\n        /* \"#utility.yul\":2871:2877   */\n      dup3\n        /* \"#utility.yul\":2860:2869   */\n      dup7\n        /* \"#utility.yul\":2856:2878   */\n      add\n        /* \"#utility.yul\":2825:2888   */\n      tag_66\n      jump\t// in\n    tag_87:\n        /* \"#utility.yul\":2815:2888   */\n      swap2\n      pop\n        /* \"#utility.yul\":2610:2898   */\n      pop\n        /* \"#utility.yul\":2071:2905   */\n      swap3\n      pop\n      swap3\n      swap1\n      pop\n      jump\t// out\n        /* \"#utility.yul\":2911:3029   */\n    tag_88:\n        /* \"#utility.yul\":2998:3022   */\n      tag_90\n        /* \"#utility.yul\":3016:3021   */\n      dup2\n        /* \"#utility.yul\":2998:3022   */\n      tag_91\n      jump\t// in\n    tag_90:\n        /* \"#utility.yul\":2993:2996   */\n      dup3\n        /* \"#utility.yul\":2986:3023   */\n      mstore\n        /* \"#utility.yul\":2911:3029   */\n      pop\n      pop\n      jump\t// out\n        /* \"#utility.yul\":3035:3395   */\n    tag_92:\n        /* \"#utility.yul\":3121:3124   */\n      0x00\n        /* \"#utility.yul\":3149:3187   */\n      tag_94\n        /* \"#utility.yul\":3181:3186   */\n      dup3\n        /* \"#utility.yul\":3149:3187   */\n      tag_95\n      jump\t// in\n    tag_94:\n        /* \"#utility.yul\":3203:3273   */\n      tag_96\n        /* \"#utility.yul\":3266:3272   */\n      dup2\n        /* \"#utility.yul\":3261:3264   */\n      dup6\n        /* \"#utility.yul\":3203:3273   */\n      tag_97\n      jump\t// in\n    tag_96:\n        /* \"#utility.yul\":3196:3273   */\n      swap4\n      pop\n        /* \"#utility.yul\":3282:3334   */\n      tag_98\n        /* \"#utility.yul\":3327:3333   */\n      dup2\n        /* \"#utility.yul\":3322:3325   */\n      dup6\n        /* \"#utility.yul\":3315:3319   */\n      0x20\n        /* \"#utility.yul\":3308:3313   */\n      dup7\n        /* \"#utility.yul\":3304:3320   */\n      add\n        /* \"#utility.yul\":3282:3334   */\n      tag_99\n      jump\t// in\n    tag_98:\n        /* \"#utility.yul\":3359:3388   */\n      tag_100\n        /* \"#utility.yul\":3381:3387   */\n      dup2\n        /* \"#utility.yul\":3359:3388   */\n      tag_101\n      jump\t// in\n    tag_100:\n        /* \"#utility.yul\":3354:3357   */\n      dup5\n        /* \"#utility.yul\":3350:3389   */\n      add\n        /* \"#utility.yul\":3343:3389   */\n      swap2\n      pop\n        /* \"#utility.yul\":3125:3395   */\n      pop\n        /* \"#utility.yul\":3035:3395   */\n      swap3\n      swap2\n      pop\n      pop\n      jump\t// out\n        /* \"#utility.yul\":3401:3765   */\n    tag_102:\n        /* \"#utility.yul\":3489:3492   */\n      0x00\n        /* \"#utility.yul\":3517:3556   */\n      tag_104\n        /* \"#utility.yul\":3550:3555   */\n      dup3\n        /* \"#utility.yul\":3517:3556   */\n      tag_105\n      jump\t// in\n    tag_104:\n        /* \"#utility.yul\":3572:3643   */\n      tag_106\n        /* \"#utility.yul\":3636:3642   */\n      dup2\n        /* \"#utility.yul\":3631:3634   */\n      dup6\n        /* \"#utility.yul\":3572:3643   */\n      tag_107\n      jump\t// in\n    tag_106:\n        /* \"#utility.yul\":3565:3643   */\n      swap4\n      pop\n        /* \"#utility.yul\":3652:3704   */\n      tag_108\n        /* \"#utility.yul\":3697:3703   */\n      dup2\n        /* \"#utility.yul\":3692:3695   */\n      dup6\n        /* \"#utility.yul\":3685:3689   */\n      0x20\n        /* \"#utility.yul\":3678:3683   */\n      dup7\n        /* \"#utility.yul\":3674:3690   */\n      add\n        /* \"#utility.yul\":3652:3704   */\n      tag_99\n      jump\t// in\n    tag_108:\n        /* \"#utility.yul\":3729:3758   */\n      tag_109\n        /* \"#utility.yul\":3751:3757   */\n      dup2\n        /* \"#utility.yul\":3729:3758   */\n      tag_101\n      jump\t// in\n    tag_109:\n        /* \"#utility.yul\":3724:3727   */\n      dup5\n        /* \"#utility.yul\":3720:3759   */\n      add\n        /* \"#utility.yul\":3713:3759   */\n      swap2\n      pop\n        /* \"#utility.yul\":3493:3765   */\n      pop\n        /* \"#utility.yul\":3401:3765   */\n      swap3\n      swap2\n      pop\n      pop\n      jump\t// out\n        /* \"#utility.yul\":3771:4148   */\n    tag_110:\n        /* \"#utility.yul\":3877:3880   */\n      0x00\n        /* \"#utility.yul\":3905:3944   */\n      tag_112\n        /* \"#utility.yul\":3938:3943   */\n      dup3\n        /* \"#utility.yul\":3905:3944   */\n      tag_105\n      jump\t// in\n    tag_112:\n        /* \"#utility.yul\":3960:4049   */\n      tag_113\n        /* \"#utility.yul\":4042:4048   */\n      dup2\n        /* \"#utility.yul\":4037:4040   */\n      dup6\n        /* \"#utility.yul\":3960:4049   */\n      tag_114\n      jump\t// in\n    tag_113:\n        /* \"#utility.yul\":3953:4049   */\n      swap4\n      pop\n        /* \"#utility.yul\":4058:4110   */\n      tag_115\n        /* \"#utility.yul\":4103:4109   */\n      dup2\n        /* \"#utility.yul\":4098:4101   */\n      dup6\n        /* \"#utility.yul\":4091:4095   */\n      0x20\n        /* \"#utility.yul\":4084:4089   */\n      dup7\n        /* \"#utility.yul\":4080:4096   */\n      add\n        /* \"#utility.yul\":4058:4110   */\n      tag_99\n      jump\t// in\n    tag_115:\n        /* \"#utility.yul\":4135:4141   */\n      dup1\n        /* \"#utility.yul\":4130:4133   */\n      dup5\n        /* \"#utility.yul\":4126:4142   */\n      add\n        /* \"#utility.yul\":4119:4142   */\n      swap2\n      pop\n        /* \"#utility.yul\":3881:4148   */\n      pop\n        /* \"#utility.yul\":3771:4148   */\n      swap3\n      swap2\n      pop\n      pop\n      jump\t// out\n        /* \"#utility.yul\":4154:4589   */\n    tag_36:\n        /* \"#utility.yul\":4334:4337   */\n      0x00\n        /* \"#utility.yul\":4356:4451   */\n      tag_117\n        /* \"#utility.yul\":4447:4450   */\n      dup3\n        /* \"#utility.yul\":4438:4444   */\n      dup6\n        /* \"#utility.yul\":4356:4451   */\n      tag_110\n      jump\t// in\n    tag_117:\n        /* \"#utility.yul\":4349:4451   */\n      swap2\n      pop\n        /* \"#utility.yul\":4468:4563   */\n      tag_118\n        /* \"#utility.yul\":4559:4562   */\n      dup3\n        /* \"#utility.yul\":4550:4556   */\n      dup5\n        /* \"#utility.yul\":4468:4563   */\n      tag_110\n      jump\t// in\n    tag_118:\n        /* \"#utility.yul\":4461:4563   */\n      swap2\n      pop\n        /* \"#utility.yul\":4580:4583   */\n      dup2\n        /* \"#utility.yul\":4573:4583   */\n      swap1\n      pop\n        /* \"#utility.yul\":4154:4589   */\n      swap4\n      swap3\n      pop\n      pop\n      pop\n      jump\t// out\n        /* \"#utility.yul\":4595:4817   */\n    tag_17:\n        /* \"#utility.yul\":4688:4692   */\n      0x00\n        /* \"#utility.yul\":4726:4728   */\n      0x20\n        /* \"#utility.yul\":4715:4724   */\n      dup3\n        /* \"#utility.yul\":4711:4729   */\n      add\n        /* \"#utility.yul\":4703:4729   */\n      swap1\n      pop\n        /* \"#utility.yul\":4739:4810   */\n      tag_120\n        /* \"#utility.yul\":4807:4808   */\n      0x00\n        /* \"#utility.yul\":4796:4805   */\n      dup4\n        /* \"#utility.yul\":4792:4809   */\n      add\n        /* \"#utility.yul\":4783:4789   */\n      dup5\n        /* \"#utility.yul\":4739:4810   */\n      tag_88\n      jump\t// in\n    tag_120:\n        /* \"#utility.yul\":4595:4817   */\n      swap3\n      swap2\n      pop\n      pop\n      jump\t// out\n        /* \"#utility.yul\":4823:5132   */\n    tag_13:\n        /* \"#utility.yul\":4934:4938   */\n      0x00\n        /* \"#utility.yul\":4972:4974   */\n      0x20\n        /* \"#utility.yul\":4961:4970   */\n      dup3\n        /* \"#utility.yul\":4957:4975   */\n      add\n        /* \"#utility.yul\":4949:4975   */\n      swap1\n      pop\n        /* \"#utility.yul\":5021:5030   */\n      dup2\n        /* \"#utility.yul\":5015:5019   */\n      dup2\n        /* \"#utility.yul\":5011:5031   */\n      sub\n        /* \"#utility.yul\":5007:5008   */\n      0x00\n        /* \"#utility.yul\":4996:5005   */\n      dup4\n        /* \"#utility.yul\":4992:5009   */\n      add\n        /* \"#utility.yul\":4985:5032   */\n      mstore\n        /* \"#utility.yul\":5049:5125   */\n      tag_122\n        /* \"#utility.yul\":5120:5124   */\n      dup2\n        /* \"#utility.yul\":5111:5117   */\n      dup5\n        /* \"#utility.yul\":5049:5125   */\n      tag_92\n      jump\t// in\n    tag_122:\n        /* \"#utility.yul\":5041:5125   */\n      swap1\n      pop\n        /* \"#utility.yul\":4823:5132   */\n      swap3\n      swap2\n      pop\n      pop\n      jump\t// out\n        /* \"#utility.yul\":5138:5652   */\n    tag_32:\n        /* \"#utility.yul\":5299:5303   */\n      0x00\n        /* \"#utility.yul\":5337:5339   */\n      0x40\n        /* \"#utility.yul\":5326:5335   */\n      dup3\n        /* \"#utility.yul\":5322:5340   */\n      add\n        /* \"#utility.yul\":5314:5340   */\n      swap1\n      pop\n        /* \"#utility.yul\":5386:5395   */\n      dup2\n        /* \"#utility.yul\":5380:5384   */\n      dup2\n        /* \"#utility.yul\":5376:5396   */\n      sub\n        /* \"#utility.yul\":5372:5373   */\n      0x00\n        /* \"#utility.yul\":5361:5370   */\n      dup4\n        /* \"#utility.yul\":5357:5374   */\n      add\n        /* \"#utility.yul\":5350:5397   */\n      mstore\n        /* \"#utility.yul\":5414:5492   */\n      tag_124\n        /* \"#utility.yul\":5487:5491   */\n      dup2\n        /* \"#utility.yul\":5478:5484   */\n      dup6\n        /* \"#utility.yul\":5414:5492   */\n      tag_102\n      jump\t// in\n    tag_124:\n        /* \"#utility.yul\":5406:5492   */\n      swap1\n      pop\n        /* \"#utility.yul\":5539:5548   */\n      dup2\n        /* \"#utility.yul\":5533:5537   */\n      dup2\n        /* \"#utility.yul\":5529:5549   */\n      sub\n        /* \"#utility.yul\":5524:5526   */\n      0x20\n        /* \"#utility.yul\":5513:5522   */\n      dup4\n        /* \"#utility.yul\":5509:5527   */\n      add\n        /* \"#utility.yul\":5502:5550   */\n      mstore\n        /* \"#utility.yul\":5567:5645   */\n      tag_125\n        /* \"#utility.yul\":5640:5644   */\n      dup2\n        /* \"#utility.yul\":5631:5637   */\n      dup5\n        /* \"#utility.yul\":5567:5645   */\n      tag_102\n      jump\t// in\n    tag_125:\n        /* \"#utility.yul\":5559:5645   */\n      swap1\n      pop\n        /* \"#utility.yul\":5138:5652   */\n      swap4\n      swap3\n      pop\n      pop\n      pop\n      jump\t// out\n        /* \"#utility.yul\":5658:5787   */\n    tag_46:\n        /* \"#utility.yul\":5692:5698   */\n      0x00\n        /* \"#utility.yul\":5719:5739   */\n      tag_127\n      tag_128\n      jump\t// in\n    tag_127:\n        /* \"#utility.yul\":5709:5739   */\n      swap1\n      pop\n        /* \"#utility.yul\":5748:5781   */\n      tag_129\n        /* \"#utility.yul\":5776:5780   */\n      dup3\n        /* \"#utility.yul\":5768:5774   */\n      dup3\n        /* \"#utility.yul\":5748:5781   */\n      tag_130\n      jump\t// in\n    tag_129:\n        /* \"#utility.yul\":5658:5787   */\n      swap2\n      swap1\n      pop\n      jump\t// out\n        /* \"#utility.yul\":5793:5868   */\n    tag_128:\n        /* \"#utility.yul\":5826:5832   */\n      0x00\n        /* \"#utility.yul\":5859:5861   */\n      0x40\n        /* \"#utility.yul\":5853:5862   */\n      mload\n        /* \"#utility.yul\":5843:5862   */\n      swap1\n      pop\n        /* \"#utility.yul\":5793:5868   */\n      swap1\n      jump\t// out\n        /* \"#utility.yul\":5874:6181   */\n    tag_45:\n        /* \"#utility.yul\":5935:5939   */\n      0x00\n        /* \"#utility.yul\":6025:6043   */\n      0xffffffffffffffff\n        /* \"#utility.yul\":6017:6023   */\n      dup3\n        /* \"#utility.yul\":6014:6044   */\n      gt\n        /* \"#utility.yul\":6011:6067   */\n      iszero\n      tag_133\n      jumpi\n        /* \"#utility.yul\":6047:6065   */\n      tag_134\n      tag_135\n      jump\t// in\n    tag_134:\n        /* \"#utility.yul\":6011:6067   */\n    tag_133:\n        /* \"#utility.yul\":6085:6114   */\n      tag_136\n        /* \"#utility.yul\":6107:6113   */\n      dup3\n        /* \"#utility.yul\":6085:6114   */\n      tag_101\n      jump\t// in\n    tag_136:\n        /* \"#utility.yul\":6077:6114   */\n      swap1\n      pop\n        /* \"#utility.yul\":6169:6173   */\n      0x20\n        /* \"#utility.yul\":6163:6167   */\n      dup2\n        /* \"#utility.yul\":6159:6174   */\n      add\n        /* \"#utility.yul\":6151:6174   */\n      swap1\n      pop\n        /* \"#utility.yul\":5874:6181   */\n      swap2\n      swap1\n      pop\n      jump\t// out\n        /* \"#utility.yul\":6187:6495   */\n    tag_56:\n        /* \"#utility.yul\":6249:6253   */\n      0x00\n        /* \"#utility.yul\":6339:6357   */\n      0xffffffffffffffff\n        /* \"#utility.yul\":6331:6337   */\n      dup3\n        /* \"#utility.yul\":6328:6358   */\n      gt\n        /* \"#utility.yul\":6325:6381   */\n      iszero\n      tag_138\n      jumpi\n        /* \"#utility.yul\":6361:6379   */\n      tag_139\n      tag_135\n      jump\t// in\n    tag_139:\n        /* \"#utility.yul\":6325:6381   */\n    tag_138:\n        /* \"#utility.yul\":6399:6428   */\n      tag_140\n        /* \"#utility.yul\":6421:6427   */\n      dup3\n        /* \"#utility.yul\":6399:6428   */\n      tag_101\n      jump\t// in\n    tag_140:\n        /* \"#utility.yul\":6391:6428   */\n      swap1\n      pop\n        /* \"#utility.yul\":6483:6487   */\n      0x20\n        /* \"#utility.yul\":6477:6481   */\n      dup2\n        /* \"#utility.yul\":6473:6488   */\n      add\n        /* \"#utility.yul\":6465:6488   */\n      swap1\n      pop\n        /* \"#utility.yul\":6187:6495   */\n      swap2\n      swap1\n      pop\n      jump\t// out\n        /* \"#utility.yul\":6501:6599   */\n    tag_95:\n        /* \"#utility.yul\":6552:6558   */\n      0x00\n        /* \"#utility.yul\":6586:6591   */\n      dup2\n        /* \"#utility.yul\":6580:6592   */\n      mload\n        /* \"#utility.yul\":6570:6592   */\n      swap1\n      pop\n        /* \"#utility.yul\":6501:6599   */\n      swap2\n      swap1\n      pop\n      jump\t// out\n        /* \"#utility.yul\":6605:6704   */\n    tag_105:\n        /* \"#utility.yul\":6657:6663   */\n      0x00\n        /* \"#utility.yul\":6691:6696   */\n      dup2\n        /* \"#utility.yul\":6685:6697   */\n      mload\n        /* \"#utility.yul\":6675:6697   */\n      swap1\n      pop\n        /* \"#utility.yul\":6605:6704   */\n      swap2\n      swap1\n      pop\n      jump\t// out\n        /* \"#utility.yul\":6710:6878   */\n    tag_97:\n        /* \"#utility.yul\":6793:6804   */\n      0x00\n        /* \"#utility.yul\":6827:6833   */\n      dup3\n        /* \"#utility.yul\":6822:6825   */\n      dup3\n        /* \"#utility.yul\":6815:6834   */\n      mstore\n        /* \"#utility.yul\":6867:6871   */\n      0x20\n        /* \"#utility.yul\":6862:6865   */\n      dup3\n        /* \"#utility.yul\":6858:6872   */\n      add\n        /* \"#utility.yul\":6843:6872   */\n      swap1\n      pop\n        /* \"#utility.yul\":6710:6878   */\n      swap3\n      swap2\n      pop\n      pop\n      jump\t// out\n        /* \"#utility.yul\":6884:7053   */\n    tag_107:\n        /* \"#utility.yul\":6968:6979   */\n      0x00\n        /* \"#utility.yul\":7002:7008   */\n      dup3\n        /* \"#utility.yul\":6997:7000   */\n      dup3\n        /* \"#utility.yul\":6990:7009   */\n      mstore\n        /* \"#utility.yul\":7042:7046   */\n      0x20\n        /* \"#utility.yul\":7037:7040   */\n      dup3\n        /* \"#utility.yul\":7033:7047   */\n      add\n        /* \"#utility.yul\":7018:7047   */\n      swap1\n      pop\n        /* \"#utility.yul\":6884:7053   */\n      swap3\n      swap2\n      pop\n      pop\n      jump\t// out\n        /* \"#utility.yul\":7059:7207   */\n    tag_114:\n        /* \"#utility.yul\":7161:7172   */\n      0x00\n        /* \"#utility.yul\":7198:7201   */\n      dup2\n        /* \"#utility.yul\":7183:7201   */\n      swap1\n      pop\n        /* \"#utility.yul\":7059:7207   */\n      swap3\n      swap2\n      pop\n      pop\n      jump\t// out\n        /* \"#utility.yul\":7213:7290   */\n    tag_91:\n        /* \"#utility.yul\":7250:7257   */\n      0x00\n        /* \"#utility.yul\":7279:7284   */\n      dup2\n        /* \"#utility.yul\":7268:7284   */\n      swap1\n      pop\n        /* \"#utility.yul\":7213:7290   */\n      swap2\n      swap1\n      pop\n      jump\t// out\n        /* \"#utility.yul\":7296:7450   */\n    tag_51:\n        /* \"#utility.yul\":7380:7386   */\n      dup3\n        /* \"#utility.yul\":7375:7378   */\n      dup2\n        /* \"#utility.yul\":7370:7373   */\n      dup4\n        /* \"#utility.yul\":7357:7387   */\n      calldatacopy\n        /* \"#utility.yul\":7442:7443   */\n      0x00\n        /* \"#utility.yul\":7433:7439   */\n      dup4\n        /* \"#utility.yul\":7428:7431   */\n      dup4\n        /* \"#utility.yul\":7424:7440   */\n      add\n        /* \"#utility.yul\":7417:7444   */\n      mstore\n        /* \"#utility.yul\":7296:7450   */\n      pop\n      pop\n      pop\n      jump\t// out\n        /* \"#utility.yul\":7456:7763   */\n    tag_99:\n        /* \"#utility.yul\":7524:7525   */\n      0x00\n        /* \"#utility.yul\":7534:7647   */\n    tag_149:\n        /* \"#utility.yul\":7548:7554   */\n      dup4\n        /* \"#utility.yul\":7545:7546   */\n      dup2\n        /* \"#utility.yul\":7542:7555   */\n      lt\n        /* \"#utility.yul\":7534:7647   */\n      iszero\n      tag_151\n      jumpi\n        /* \"#utility.yul\":7633:7634   */\n      dup1\n        /* \"#utility.yul\":7628:7631   */\n      dup3\n        /* \"#utility.yul\":7624:7635   */\n      add\n        /* \"#utility.yul\":7618:7636   */\n      mload\n        /* \"#utility.yul\":7614:7615   */\n      dup2\n        /* \"#utility.yul\":7609:7612   */\n      dup5\n        /* \"#utility.yul\":7605:7616   */\n      add\n        /* \"#utility.yul\":7598:7637   */\n      mstore\n        /* \"#utility.yul\":7570:7572   */\n      0x20\n        /* \"#utility.yul\":7567:7568   */\n      dup2\n        /* \"#utility.yul\":7563:7573   */\n      add\n        /* \"#utility.yul\":7558:7573   */\n      swap1\n      pop\n        /* \"#utility.yul\":7534:7647   */\n      jump(tag_149)\n    tag_151:\n        /* \"#utility.yul\":7665:7671   */\n      dup4\n        /* \"#utility.yul\":7662:7663   */\n      dup2\n        /* \"#utility.yul\":7659:7672   */\n      gt\n        /* \"#utility.yul\":7656:7757   */\n      iszero\n      tag_152\n      jumpi\n        /* \"#utility.yul\":7745:7746   */\n      0x00\n        /* \"#utility.yul\":7736:7742   */\n      dup5\n        /* \"#utility.yul\":7731:7734   */\n      dup5\n        /* \"#utility.yul\":7727:7743   */\n      add\n        /* \"#utility.yul\":7720:7747   */\n      mstore\n        /* \"#utility.yul\":7656:7757   */\n    tag_152:\n        /* \"#utility.yul\":7505:7763   */\n      pop\n        /* \"#utility.yul\":7456:7763   */\n      pop\n      pop\n      pop\n      jump\t// out\n        /* \"#utility.yul\":7769:8050   */\n    tag_130:\n        /* \"#utility.yul\":7852:7879   */\n      tag_154\n        /* \"#utility.yul\":7874:7878   */\n      dup3\n        /* \"#utility.yul\":7852:7879   */\n      tag_101\n      jump\t// in\n    tag_154:\n        /* \"#utility.yul\":7844:7850   */\n      dup2\n        /* \"#utility.yul\":7840:7880   */\n      add\n        /* \"#utility.yul\":7982:7988   */\n      dup2\n        /* \"#utility.yul\":7970:7980   */\n      dup2\n        /* \"#utility.yul\":7967:7989   */\n      lt\n        /* \"#utility.yul\":7946:7964   */\n      0xffffffffffffffff\n        /* \"#utility.yul\":7934:7944   */\n      dup3\n        /* \"#utility.yul\":7931:7965   */\n      gt\n        /* \"#utility.yul\":7928:7990   */\n      or\n        /* \"#utility.yul\":7925:8013   */\n      iszero\n      tag_155\n      jumpi\n        /* \"#utility.yul\":7993:8011   */\n      tag_156\n      tag_135\n      jump\t// in\n    tag_156:\n        /* \"#utility.yul\":7925:8013   */\n    tag_155:\n        /* \"#utility.yul\":8033:8043   */\n      dup1\n        /* \"#utility.yul\":8029:8031   */\n      0x40\n        /* \"#utility.yul\":8022:8044   */\n      mstore\n        /* \"#utility.yul\":7812:8050   */\n      pop\n        /* \"#utility.yul\":7769:8050   */\n      pop\n      pop\n      jump\t// out\n        /* \"#utility.yul\":8056:8236   */\n    tag_135:\n        /* \"#utility.yul\":8104:8181   */\n      0x4e487b7100000000000000000000000000000000000000000000000000000000\n        /* \"#utility.yul\":8101:8102   */\n      0x00\n        /* \"#utility.yul\":8094:8182   */\n      mstore\n        /* \"#utility.yul\":8201:8205   */\n      0x41\n        /* \"#utility.yul\":8198:8199   */\n      0x04\n        /* \"#utility.yul\":8191:8206   */\n      mstore\n        /* \"#utility.yul\":8225:8229   */\n      0x24\n        /* \"#utility.yul\":8222:8223   */\n      0x00\n        /* \"#utility.yul\":8215:8230   */\n      revert\n        /* \"#utility.yul\":8242:8359   */\n    tag_64:\n        /* \"#utility.yul\":8351:8352   */\n      0x00\n        /* \"#utility.yul\":8348:8349   */\n      dup1\n        /* \"#utility.yul\":8341:8353   */\n      revert\n        /* \"#utility.yul\":8365:8482   */\n    tag_49:\n        /* \"#utility.yul\":8474:8475   */\n      0x00\n        /* \"#utility.yul\":8471:8472   */\n      dup1\n        /* \"#utility.yul\":8464:8476   */\n      revert\n        /* \"#utility.yul\":8488:8605   */\n    tag_77:\n        /* \"#utility.yul\":8597:8598   */\n      0x00\n        /* \"#utility.yul\":8594:8595   */\n      dup1\n        /* \"#utility.yul\":8587:8599   */\n      revert\n        /* \"#utility.yul\":8611:8728   */\n    tag_74:\n        /* \"#utility.yul\":8720:8721   */\n      0x00\n        /* \"#utility.yul\":8717:8718   */\n      dup1\n        /* \"#utility.yul\":8710:8722   */\n      revert\n        /* \"#utility.yul\":8734:8836   */\n    tag_101:\n        /* \"#utility.yul\":8775:8781   */\n      0x00\n        /* \"#utility.yul\":8826:8828   */\n      0x1f\n        /* \"#utility.yul\":8822:8829   */\n      not\n        /* \"#utility.yul\":8817:8819   */\n      0x1f\n        /* \"#utility.yul\":8810:8815   */\n      dup4\n        /* \"#utility.yul\":8806:8820   */\n      add\n        /* \"#utility.yul\":8802:8830   */\n      and\n        /* \"#utility.yul\":8792:8830   */\n      swap1\n      pop\n        /* \"#utility.yul\":8734:8836   */\n      swap2\n      swap1\n      pop\n      jump\t// out\n\n    auxdata: 0xa2646970667358221220a05e89c044c654c27c4f9475619f08ee02519d4274e29d35b70448979ef4a60164736f6c63430008070033\n}\n",
				"bytecode": {
					"linkReferences": {},
					"object": "608060405234801561001057600080fd5b50610752806100206000396000f3fe608060405234801561001057600080fd5b50600436106100575760003560e01c806317fe2da21461005c57806372d9353c1461008c578063892e5d01146100aa578063e3ac07f5146100da578063e4f2a84a1461010a575b600080fd5b610076600480360381019061007191906103bf565b610128565b6040516100839190610528565b60405180910390f35b610094610154565b6040516100a1919061050d565b60405180910390f35b6100c460048036038101906100bf91906103bf565b6101b7565b6040516100d19190610528565b60405180910390f35b6100f460048036038101906100ef9190610376565b6101e3565b6040516101019190610528565b60405180910390f35b61011261020c565b60405161011f9190610528565b60405180910390f35b6060828260405160200161013d92919061054a565b604051602081830303815290604052905092915050565b60006040518060400160405280601481526020017f73756d2875696e743235362c75696e7432353629000000000000000000000000815250805190602001207bffffffffffffffffffffffffffffffffffffffffffffffffffffffff1916905090565b606082826040516020016101cc9291906104e9565b604051602081830303815290604052905092915050565b6060816040516020016101f69190610528565b6040516020818303038152906040529050919050565b60606040516024016040516020818303038152906040527fcad0899b000000000000000000000000000000000000000000000000000000007bffffffffffffffffffffffffffffffffffffffffffffffffffffffff19166020820180517bffffffffffffffffffffffffffffffffffffffffffffffffffffffff8381831617835250505050905090565b60006102a96102a4846105a6565b610581565b9050828152602081018484840111156102c5576102c46106fc565b5b6102d0848285610655565b509392505050565b60006102eb6102e6846105d7565b610581565b905082815260208101848484011115610307576103066106fc565b5b610312848285610655565b509392505050565b600082601f83011261032f5761032e6106f7565b5b813561033f848260208601610296565b91505092915050565b600082601f83011261035d5761035c6106f7565b5b813561036d8482602086016102d8565b91505092915050565b60006020828403121561038c5761038b610706565b5b600082013567ffffffffffffffff8111156103aa576103a9610701565b5b6103b68482850161031a565b91505092915050565b600080604083850312156103d6576103d5610706565b5b600083013567ffffffffffffffff8111156103f4576103f3610701565b5b61040085828601610348565b925050602083013567ffffffffffffffff81111561042157610420610701565b5b61042d85828601610348565b9150509250929050565b6104408161064b565b82525050565b600061045182610608565b61045b818561061e565b935061046b818560208601610664565b6104748161070b565b840191505092915050565b600061048a82610613565b610494818561062f565b93506104a4818560208601610664565b6104ad8161070b565b840191505092915050565b60006104c382610613565b6104cd8185610640565b93506104dd818560208601610664565b80840191505092915050565b60006104f582856104b8565b915061050182846104b8565b91508190509392505050565b60006020820190506105226000830184610437565b92915050565b600060208201905081810360008301526105428184610446565b905092915050565b60006040820190508181036000830152610564818561047f565b90508181036020830152610578818461047f565b90509392505050565b600061058b61059c565b90506105978282610697565b919050565b6000604051905090565b600067ffffffffffffffff8211156105c1576105c06106c8565b5b6105ca8261070b565b9050602081019050919050565b600067ffffffffffffffff8211156105f2576105f16106c8565b5b6105fb8261070b565b9050602081019050919050565b600081519050919050565b600081519050919050565b600082825260208201905092915050565b600082825260208201905092915050565b600081905092915050565b6000819050919050565b82818337600083830152505050565b60005b83811015610682578082015181840152602081019050610667565b83811115610691576000848401525b50505050565b6106a08261070b565b810181811067ffffffffffffffff821117156106bf576106be6106c8565b5b80604052505050565b7f4e487b7100000000000000000000000000000000000000000000000000000000600052604160045260246000fd5b600080fd5b600080fd5b600080fd5b600080fd5b6000601f19601f830116905091905056fea2646970667358221220a05e89c044c654c27c4f9475619f08ee02519d4274e29d35b70448979ef4a60164736f6c63430008070033",
					"opcodes": "PUSH1 0x80 PUSH1 0x40 MSTORE CALLVALUE DUP1 ISZERO PUSH2 0x10 JUMPI PUSH1 0x0 DUP1 REVERT JUMPDEST POP PUSH2 0x752 DUP1 PUSH2 0x20 PUSH1 0x0 CODECOPY PUSH1 0x0 RETURN INVALID PUSH1 0x80 PUSH1 0x40 MSTORE CALLVALUE DUP1 ISZERO PUSH2 0x10 JUMPI PUSH1 0x0 DUP1 REVERT JUMPDEST POP PUSH1 0x4 CALLDATASIZE LT PUSH2 0x57 JUMPI PUSH1 0x0 CALLDATALOAD PUSH1 0xE0 SHR DUP1 PUSH4 0x17FE2DA2 EQ PUSH2 0x5C JUMPI DUP1 PUSH4 0x72D9353C EQ PUSH2 0x8C JUMPI DUP1 PUSH4 0x892E5D01 EQ PUSH2 0xAA JUMPI DUP1 PUSH4 0xE3AC07F5 EQ PUSH2 0xDA JUMPI DUP1 PUSH4 0xE4F2A84A EQ PUSH2 0x10A JUMPI JUMPDEST PUSH1 0x0 DUP1 REVERT JUMPDEST PUSH2 0x76 PUSH1 0x4 DUP1 CALLDATASIZE SUB DUP2 ADD SWAP1 PUSH2 0x71 SWAP2 SWAP1 PUSH2 0x3BF JUMP JUMPDEST PUSH2 0x128 JUMP JUMPDEST PUSH1 0x40 MLOAD PUSH2 0x83 SWAP2 SWAP1 PUSH2 0x528 JUMP JUMPDEST PUSH1 0x40 MLOAD DUP1 SWAP2 SUB SWAP1 RETURN JUMPDEST PUSH2 0x94 PUSH2 0x154 JUMP JUMPDEST PUSH1 0x40 MLOAD PUSH2 0xA1 SWAP2 SWAP1 PUSH2 0x50D JUMP JUMPDEST PUSH1 0x40 MLOAD DUP1 SWAP2 SUB SWAP1 RETURN JUMPDEST PUSH2 0xC4 PUSH1 0x4 DUP1 CALLDATASIZE SUB DUP2 ADD SWAP1 PUSH2 0xBF SWAP2 SWAP1 PUSH2 0x3BF JUMP JUMPDEST PUSH2 0x1B7 JUMP JUMPDEST PUSH1 0x40 MLOAD PUSH2 0xD1 SWAP2 SWAP1 PUSH2 0x528 JUMP JUMPDEST PUSH1 0x40 MLOAD DUP1 SWAP2 SUB SWAP1 RETURN JUMPDEST PUSH2 0xF4 PUSH1 0x4 DUP1 CALLDATASIZE SUB DUP2 ADD SWAP1 PUSH2 0xEF SWAP2 SWAP1 PUSH2 0x376 JUMP JUMPDEST PUSH2 0x1E3 JUMP JUMPDEST PUSH1 0x40 MLOAD PUSH2 0x101 SWAP2 SWAP1 PUSH2 0x528 JUMP JUMPDEST PUSH1 0x40 MLOAD DUP1 SWAP2 SUB SWAP1 RETURN JUMPDEST PUSH2 0x112 PUSH2 0x20C JUMP JUMPDEST PUSH1 0x40 MLOAD PUSH2 0x11F SWAP2 SWAP1 PUSH2 0x528 JUMP JUMPDEST PUSH1 0x40 MLOAD DUP1 SWAP2 SUB SWAP1 RETURN JUMPDEST PUSH1 0x60 DUP3 DUP3 PUSH1 0x40 MLOAD PUSH1 0x20 ADD PUSH2 0x13D SWAP3 SWAP2 SWAP1 PUSH2 0x54A JUMP JUMPDEST PUSH1 0x40 MLOAD PUSH1 0x20 DUP2 DUP4 SUB SUB DUP2 MSTORE SWAP1 PUSH1 0x40 MSTORE SWAP1 POP SWAP3 SWAP2 POP POP JUMP JUMPDEST PUSH1 0x0 PUSH1 0x40 MLOAD DUP1 PUSH1 0x40 ADD PUSH1 0x40 MSTORE DUP1 PUSH1 0x14 DUP2 MSTORE PUSH1 0x20 ADD PUSH32 0x73756D2875696E743235362C75696E7432353629000000000000000000000000 DUP2 MSTORE POP DUP1 MLOAD SWAP1 PUSH1 0x20 ADD KECCAK256 PUSH28 0xFFFFFFFFFFFFFFFFFFFFFFFFFFFFFFFFFFFFFFFFFFFFFFFFFFFFFFFF NOT AND SWAP1 POP SWAP1 JUMP JUMPDEST PUSH1 0x60 DUP3 DUP3 PUSH1 0x40 MLOAD PUSH1 0x20 ADD PUSH2 0x1CC SWAP3 SWAP2 SWAP1 PUSH2 0x4E9 JUMP JUMPDEST PUSH1 0x40 MLOAD PUSH1 0x20 DUP2 DUP4 SUB SUB DUP2 MSTORE SWAP1 PUSH1 0x40 MSTORE SWAP1 POP SWAP3 SWAP2 POP POP JUMP JUMPDEST PUSH1 0x60 DUP2 PUSH1 0x40 MLOAD PUSH1 0x20 ADD PUSH2 0x1F6 SWAP2 SWAP1 PUSH2 0x528 JUMP JUMPDEST PUSH1 0x40 MLOAD PUSH1 0x20 DUP2 DUP4 SUB SUB DUP2 MSTORE SWAP1 PUSH1 0x40 MSTORE SWAP1 POP SWAP2 SWAP1 POP JUMP JUMPDEST PUSH1 0x60 PUSH1 0x40 MLOAD PUSH1 0x24 ADD PUSH1 0x40 MLOAD PUSH1 0x20 DUP2 DUP4 SUB SUB DUP2 MSTORE SWAP1 PUSH1 0x40 MSTORE PUSH32 0xCAD0899B00000000000000000000000000000000000000000000000000000000 PUSH28 0xFFFFFFFFFFFFFFFFFFFFFFFFFFFFFFFFFFFFFFFFFFFFFFFFFFFFFFFF NOT AND PUSH1 0x20 DUP3 ADD DUP1 MLOAD PUSH28 0xFFFFFFFFFFFFFFFFFFFFFFFFFFFFFFFFFFFFFFFFFFFFFFFFFFFFFFFF DUP4 DUP2 DUP4 AND OR DUP4 MSTORE POP POP POP POP SWAP1 POP SWAP1 JUMP JUMPDEST PUSH1 0x0 PUSH2 0x2A9 PUSH2 0x2A4 DUP5 PUSH2 0x5A6 JUMP JUMPDEST PUSH2 0x581 JUMP JUMPDEST SWAP1 POP DUP3 DUP2 MSTORE PUSH1 0x20 DUP2 ADD DUP5 DUP5 DUP5 ADD GT ISZERO PUSH2 0x2C5 JUMPI PUSH2 0x2C4 PUSH2 0x6FC JUMP JUMPDEST JUMPDEST PUSH2 0x2D0 DUP5 DUP3 DUP6 PUSH2 0x655 JUMP JUMPDEST POP SWAP4 SWAP3 POP POP POP JUMP JUMPDEST PUSH1 0x0 PUSH2 0x2EB PUSH2 0x2E6 DUP5 PUSH2 0x5D7 JUMP JUMPDEST PUSH2 0x581 JUMP JUMPDEST SWAP1 POP DUP3 DUP2 MSTORE PUSH1 0x20 DUP2 ADD DUP5 DUP5 DUP5 ADD GT ISZERO PUSH2 0x307 JUMPI PUSH2 0x306 PUSH2 0x6FC JUMP JUMPDEST JUMPDEST PUSH2 0x312 DUP5 DUP3 DUP6 PUSH2 0x655 JUMP JUMPDEST POP SWAP4 SWAP3 POP POP POP JUMP JUMPDEST PUSH1 0x0 DUP3 PUSH1 0x1F DUP4 ADD SLT PUSH2 0x32F JUMPI PUSH2 0x32E PUSH2 0x6F7 JUMP JUMPDEST JUMPDEST DUP2 CALLDATALOAD PUSH2 0x33F DUP5 DUP3 PUSH1 0x20 DUP7 ADD PUSH2 0x296 JUMP JUMPDEST SWAP2 POP POP SWAP3 SWAP2 POP POP JUMP JUMPDEST PUSH1 0x0 DUP3 PUSH1 0x1F DUP4 ADD SLT PUSH2 0x35D JUMPI PUSH2 0x35C PUSH2 0x6F7 JUMP JUMPDEST JUMPDEST DUP2 CALLDATALOAD PUSH2 0x36D DUP5 DUP3 PUSH1 0x20 DUP7 ADD PUSH2 0x2D8 JUMP JUMPDEST SWAP2 POP POP SWAP3 SWAP2 POP POP JUMP JUMPDEST PUSH1 0x0 PUSH1 0x20 DUP3 DUP5 SUB SLT ISZERO PUSH2 0x38C JUMPI PUSH2 0x38B PUSH2 0x706 JUMP JUMPDEST JUMPDEST PUSH1 0x0 DUP3 ADD CALLDATALOAD PUSH8 0xFFFFFFFFFFFFFFFF DUP2 GT ISZERO PUSH2 0x3AA JUMPI PUSH2 0x3A9 PUSH2 0x701 JUMP JUMPDEST JUMPDEST PUSH2 0x3B6 DUP5 DUP3 DUP6 ADD PUSH2 0x31A JUMP JUMPDEST SWAP2 POP POP SWAP3 SWAP2 POP POP JUMP JUMPDEST PUSH1 0x0 DUP1 PUSH1 0x40 DUP4 DUP6 SUB SLT ISZERO PUSH2 0x3D6 JUMPI PUSH2 0x3D5 PUSH2 0x706 JUMP JUMPDEST JUMPDEST PUSH1 0x0 DUP4 ADD CALLDATALOAD PUSH8 0xFFFFFFFFFFFFFFFF DUP2 GT ISZERO PUSH2 0x3F4 JUMPI PUSH2 0x3F3 PUSH2 0x701 JUMP JUMPDEST JUMPDEST PUSH2 0x400 DUP6 DUP3 DUP7 ADD PUSH2 0x348 JUMP JUMPDEST SWAP3 POP POP PUSH1 0x20 DUP4 ADD CALLDATALOAD PUSH8 0xFFFFFFFFFFFFFFFF DUP2 GT ISZERO PUSH2 0x421 JUMPI PUSH2 0x420 PUSH2 0x701 JUMP JUMPDEST JUMPDEST PUSH2 0x42D DUP6 DUP3 DUP7 ADD PUSH2 0x348 JUMP JUMPDEST SWAP2 POP POP SWAP3 POP SWAP3 SWAP1 POP JUMP JUMPDEST PUSH2 0x440 DUP2 PUSH2 0x64B JUMP JUMPDEST DUP3 MSTORE POP POP JUMP JUMPDEST PUSH1 0x0 PUSH2 0x451 DUP3 PUSH2 0x608 JUMP JUMPDEST PUSH2 0x45B DUP2 DUP6 PUSH2 0x61E JUMP JUMPDEST SWAP4 POP PUSH2 0x46B DUP2 DUP6 PUSH1 0x20 DUP7 ADD PUSH2 0x664 JUMP JUMPDEST PUSH2 0x474 DUP2 PUSH2 0x70B JUMP JUMPDEST DUP5 ADD SWAP2 POP POP SWAP3 SWAP2 POP POP JUMP JUMPDEST PUSH1 0x0 PUSH2 0x48A DUP3 PUSH2 0x613 JUMP JUMPDEST PUSH2 0x494 DUP2 DUP6 PUSH2 0x62F JUMP JUMPDEST SWAP4 POP PUSH2 0x4A4 DUP2 DUP6 PUSH1 0x20 DUP7 ADD PUSH2 0x664 JUMP JUMPDEST PUSH2 0x4AD DUP2 PUSH2 0x70B JUMP JUMPDEST DUP5 ADD SWAP2 POP POP SWAP3 SWAP2 POP POP JUMP JUMPDEST PUSH1 0x0 PUSH2 0x4C3 DUP3 PUSH2 0x613 JUMP JUMPDEST PUSH2 0x4CD DUP2 DUP6 PUSH2 0x640 JUMP JUMPDEST SWAP4 POP PUSH2 0x4DD DUP2 DUP6 PUSH1 0x20 DUP7 ADD PUSH2 0x664 JUMP JUMPDEST DUP1 DUP5 ADD SWAP2 POP POP SWAP3 SWAP2 POP POP JUMP JUMPDEST PUSH1 0x0 PUSH2 0x4F5 DUP3 DUP6 PUSH2 0x4B8 JUMP JUMPDEST SWAP2 POP PUSH2 0x501 DUP3 DUP5 PUSH2 0x4B8 JUMP JUMPDEST SWAP2 POP DUP2 SWAP1 POP SWAP4 SWAP3 POP POP POP JUMP JUMPDEST PUSH1 0x0 PUSH1 0x20 DUP3 ADD SWAP1 POP PUSH2 0x522 PUSH1 0x0 DUP4 ADD DUP5 PUSH2 0x437 JUMP JUMPDEST SWAP3 SWAP2 POP POP JUMP JUMPDEST PUSH1 0x0 PUSH1 0x20 DUP3 ADD SWAP1 POP DUP2 DUP2 SUB PUSH1 0x0 DUP4 ADD MSTORE PUSH2 0x542 DUP2 DUP5 PUSH2 0x446 JUMP JUMPDEST SWAP1 POP SWAP3 SWAP2 POP POP JUMP JUMPDEST PUSH1 0x0 PUSH1 0x40 DUP3 ADD SWAP1 POP DUP2 DUP2 SUB PUSH1 0x0 DUP4 ADD MSTORE PUSH2 0x564 DUP2 DUP6 PUSH2 0x47F JUMP JUMPDEST SWAP1 POP DUP2 DUP2 SUB PUSH1 0x20 DUP4 ADD MSTORE PUSH2 0x578 DUP2 DUP5 PUSH2 0x47F JUMP JUMPDEST SWAP1 POP SWAP4 SWAP3 POP POP POP JUMP JUMPDEST PUSH1 0x0 PUSH2 0x58B PUSH2 0x59C JUMP JUMPDEST SWAP1 POP PUSH2 0x597 DUP3 DUP3 PUSH2 0x697 JUMP JUMPDEST SWAP2 SWAP1 POP JUMP JUMPDEST PUSH1 0x0 PUSH1 0x40 MLOAD SWAP1 POP SWAP1 JUMP JUMPDEST PUSH1 0x0 PUSH8 0xFFFFFFFFFFFFFFFF DUP3 GT ISZERO PUSH2 0x5C1 JUMPI PUSH2 0x5C0 PUSH2 0x6C8 JUMP JUMPDEST JUMPDEST PUSH2 0x5CA DUP3 PUSH2 0x70B JUMP JUMPDEST SWAP1 POP PUSH1 0x20 DUP2 ADD SWAP1 POP SWAP2 SWAP1 POP JUMP JUMPDEST PUSH1 0x0 PUSH8 0xFFFFFFFFFFFFFFFF DUP3 GT ISZERO PUSH2 0x5F2 JUMPI PUSH2 0x5F1 PUSH2 0x6C8 JUMP JUMPDEST JUMPDEST PUSH2 0x5FB DUP3 PUSH2 0x70B JUMP JUMPDEST SWAP1 POP PUSH1 0x20 DUP2 ADD SWAP1 POP SWAP2 SWAP1 POP JUMP JUMPDEST PUSH1 0x0 DUP2 MLOAD SWAP1 POP SWAP2 SWAP1 POP JUMP JUMPDEST PUSH1 0x0 DUP2 MLOAD SWAP1 POP SWAP2 SWAP1 POP JUMP JUMPDEST PUSH1 0x0 DUP3 DUP3 MSTORE PUSH1 0x20 DUP3 ADD SWAP1 POP SWAP3 SWAP2 POP POP JUMP JUMPDEST PUSH1 0x0 DUP3 DUP3 MSTORE PUSH1 0x20 DUP3 ADD SWAP1 POP SWAP3 SWAP2 POP POP JUMP JUMPDEST PUSH1 0x0 DUP2 SWAP1 POP SWAP3 SWAP2 POP POP JUMP JUMPDEST PUSH1 0x0 DUP2 SWAP1 POP SWAP2 SWAP1 POP JUMP JUMPDEST DUP3 DUP2 DUP4 CALLDATACOPY PUSH1 0x0 DUP4 DUP4 ADD MSTORE POP POP POP JUMP JUMPDEST PUSH1 0x0 JUMPDEST DUP4 DUP2 LT ISZERO PUSH2 0x682 JUMPI DUP1 DUP3 ADD MLOAD DUP2 DUP5 ADD MSTORE PUSH1 0x20 DUP2 ADD SWAP1 POP PUSH2 0x667 JUMP JUMPDEST DUP4 DUP2 GT ISZERO PUSH2 0x691 JUMPI PUSH1 0x0 DUP5 DUP5 ADD MSTORE JUMPDEST POP POP POP POP JUMP JUMPDEST PUSH2 0x6A0 DUP3 PUSH2 0x70B JUMP JUMPDEST DUP2 ADD DUP2 DUP2 LT PUSH8 0xFFFFFFFFFFFFFFFF DUP3 GT OR ISZERO PUSH2 0x6BF JUMPI PUSH2 0x6BE PUSH2 0x6C8 JUMP JUMPDEST JUMPDEST DUP1 PUSH1 0x40 MSTORE POP POP POP JUMP JUMPDEST PUSH32 0x4E487B7100000000000000000000000000000000000000000000000000000000 PUSH1 0x0 MSTORE PUSH1 0x41 PUSH1 0x4 MSTORE PUSH1 0x24 PUSH1 0x0 REVERT JUMPDEST PUSH1 0x0 DUP1 REVERT JUMPDEST PUSH1 0x0 DUP1 REVERT JUMPDEST PUSH1 0x0 DUP1 REVERT JUMPDEST PUSH1 0x0 DUP1 REVERT JUMPDEST PUSH1 0x0 PUSH1 0x1F NOT PUSH1 0x1F DUP4 ADD AND SWAP1 POP SWAP2 SWAP1 POP JUMP INVALID LOG2 PUSH5 0x6970667358 0x22 SLT KECCAK256 LOG0 0x5E DUP10 0xC0 DIFFICULTY 0xC6 SLOAD 0xC2 PUSH29 0x4F9475619F08EE02519D4274E29D35B70448979EF4A60164736F6C6343 STOP ADDMOD SMOD STOP CALLER "
				},
				"gasEstimates": {
					"creation": {
						"codeDepositCost": "374800",
						"executionCost": "411",
						"totalCost": "375211"
					},
					"external": {
						"encode(string,string)": "infinite",
						"encodeBytes(bytes)": "infinite",
						"encodePacked(string,string)": "infinite",
						"encodeWithSignature()": "infinite",
						"encodeWithSignatureManual()": "450"
					}
				},
				"methodIdentifiers": {
					"encode(string,string)": "17fe2da2",
					"encodeBytes(bytes)": "e3ac07f5",
					"encodePacked(string,string)": "892e5d01",
					"encodeWithSignature()": "e4f2a84a",
					"encodeWithSignatureManual()": "72d9353c"
				}
			},
			"storageLayout": {
				"storage": [],
				"types": null
			},
			"userdoc": {
				"kind": "user",
				"methods": {},
				"version": 1
			}
		}
	}
}