{
	"Week5/Keccak256.sol": {
		"Keccak256": {
			"abi": [
				{
					"inputs": [
						{
							"internalType": "string",
							"name": "s1",
							"type": "string"
						},
						{
							"internalType": "string",
							"name": "s2",
							"type": "string"
						}
					],
					"name": "encode",
					"outputs": [
						{
							"internalType": "bytes",
							"name": "",
							"type": "bytes"
						}
					],
					"stateMutability": "pure",
					"type": "function"
				},
				{
					"inputs": [
						{
							"internalType": "bytes",
							"name": "b",
							"type": "bytes"
						}
					],
					"name": "encodeBytes",
					"outputs": [
						{
							"internalType": "bytes",
							"name": "",
							"type": "bytes"
						}
					],
					"stateMutability": "pure",
					"type": "function"
				},
				{
					"inputs": [
						{
							"internalType": "string",
							"name": "s1",
							"type": "string"
						},
						{
							"internalType": "string",
							"name": "s2",
							"type": "string"
						}
					],
					"name": "encodePacked",
					"outputs": [
						{
							"internalType": "bytes",
							"name": "",
							"type": "bytes"
						}
					],
					"stateMutability": "pure",
					"type": "function"
				},
				{
					"inputs": [
						{
							"internalType": "string",
							"name": "s1",
							"type": "string"
						},
						{
							"internalType": "string",
							"name": "s2",
							"type": "string"
						}
					],
					"name": "encodeWith",
					"outputs": [
						{
							"internalType": "bytes",
							"name": "",
							"type": "bytes"
						}
					],
					"stateMutability": "pure",
					"type": "function"
				}
			],
			"devdoc": {
				"kind": "dev",
				"methods": {},
				"version": 1
			},
			"evm": {
				"assembly": "    /* \"Week5/Keccak256.sol\":70:640  contract Keccak256 {... */\n  mstore(0x40, 0x80)\n  callvalue\n  dup1\n  iszero\n  tag_1\n  jumpi\n  0x00\n  dup1\n  revert\ntag_1:\n  pop\n  dataSize(sub_0)\n  dup1\n  dataOffset(sub_0)\n  0x00\n  codecopy\n  0x00\n  return\nstop\n\nsub_0: assembly {\n        /* \"Week5/Keccak256.sol\":70:640  contract Keccak256 {... */\n      mstore(0x40, 0x80)\n      callvalue\n      dup1\n      iszero\n      tag_1\n      jumpi\n      0x00\n      dup1\n      revert\n    tag_1:\n      pop\n      jumpi(tag_2, lt(calldatasize, 0x04))\n      shr(0xe0, calldataload(0x00))\n      dup1\n      0x17fe2da2\n      eq\n      tag_3\n      jumpi\n      dup1\n      0x892e5d01\n      eq\n      tag_4\n      jumpi\n      dup1\n      0xe3ac07f5\n      eq\n      tag_5\n      jumpi\n      dup1\n      0xf482b729\n      eq\n      tag_6\n      jumpi\n    tag_2:\n      0x00\n      dup1\n      revert\n        /* \"Week5/Keccak256.sol\":95:225  function encode(string memory s1, string memory s2) external pure returns(bytes memory) {... */\n    tag_3:\n      tag_7\n      0x04\n      dup1\n      calldatasize\n      sub\n      dup2\n      add\n      swap1\n      tag_8\n      swap2\n      swap1\n      tag_9\n      jump\t// in\n    tag_8:\n      tag_10\n      jump\t// in\n    tag_7:\n      mload(0x40)\n      tag_11\n      swap2\n      swap1\n      tag_12\n      jump\t// in\n    tag_11:\n      mload(0x40)\n      dup1\n      swap2\n      sub\n      swap1\n      return\n        /* \"Week5/Keccak256.sol\":347:489  function encodePacked(string memory s1, string memory s2) external pure returns(bytes memory) {... */\n    tag_4:\n      tag_13\n      0x04\n      dup1\n      calldatasize\n      sub\n      dup2\n      add\n      swap1\n      tag_14\n      swap2\n      swap1\n      tag_9\n      jump\t// in\n    tag_14:\n      tag_15\n      jump\t// in\n    tag_13:\n      mload(0x40)\n      tag_16\n      swap2\n      swap1\n      tag_12\n      jump\t// in\n    tag_16:\n      mload(0x40)\n      dup1\n      swap2\n      sub\n      swap1\n      return\n        /* \"Week5/Keccak256.sol\":231:341  function encodeBytes(bytes memory b) external pure returns(bytes memory) {... */\n    tag_5:\n      tag_17\n      0x04\n      dup1\n      calldatasize\n      sub\n      dup2\n      add\n      swap1\n      tag_18\n      swap2\n      swap1\n      tag_19\n      jump\t// in\n    tag_18:\n      tag_20\n      jump\t// in\n    tag_17:\n      mload(0x40)\n      tag_21\n      swap2\n      swap1\n      tag_12\n      jump\t// in\n    tag_21:\n      mload(0x40)\n      dup1\n      swap2\n      sub\n      swap1\n      return\n        /* \"Week5/Keccak256.sol\":495:638  function encodeWith(string memory s1, string memory s2) external pure returns(bytes memory) {... */\n    tag_6:\n      tag_22\n      0x04\n      dup1\n      calldatasize\n      sub\n      dup2\n      add\n      swap1\n      tag_23\n      swap2\n      swap1\n      tag_9\n      jump\t// in\n    tag_23:\n      tag_24\n      jump\t// in\n    tag_22:\n      mload(0x40)\n      tag_25\n      swap2\n      swap1\n      tag_12\n      jump\t// in\n    tag_25:\n      mload(0x40)\n      dup1\n      swap2\n      sub\n      swap1\n      return\n        /* \"Week5/Keccak256.sol\":95:225  function encode(string memory s1, string memory s2) external pure returns(bytes memory) {... */\n    tag_10:\n        /* \"Week5/Keccak256.sol\":169:181  bytes memory */\n      0x60\n        /* \"Week5/Keccak256.sol\":211:213  s1 */\n      dup3\n        /* \"Week5/Keccak256.sol\":215:217  s2 */\n      dup3\n        /* \"Week5/Keccak256.sol\":200:218  abi.encode(s1, s2) */\n      add(0x20, mload(0x40))\n      tag_27\n      swap3\n      swap2\n      swap1\n      tag_28\n      jump\t// in\n    tag_27:\n      mload(0x40)\n      0x20\n      dup2\n      dup4\n      sub\n      sub\n      dup2\n      mstore\n      swap1\n      0x40\n      mstore\n        /* \"Week5/Keccak256.sol\":193:218  return abi.encode(s1, s2) */\n      swap1\n      pop\n        /* \"Week5/Keccak256.sol\":95:225  function encode(string memory s1, string memory s2) external pure returns(bytes memory) {... */\n      swap3\n      swap2\n      pop\n      pop\n      jump\t// out\n        /* \"Week5/Keccak256.sol\":347:489  function encodePacked(string memory s1, string memory s2) external pure returns(bytes memory) {... */\n    tag_15:\n        /* \"Week5/Keccak256.sol\":427:439  bytes memory */\n      0x60\n        /* \"Week5/Keccak256.sol\":475:477  s1 */\n      dup3\n        /* \"Week5/Keccak256.sol\":479:481  s2 */\n      dup3\n        /* \"Week5/Keccak256.sol\":458:482  abi.encodePacked(s1, s2) */\n      add(0x20, mload(0x40))\n      tag_30\n      swap3\n      swap2\n      swap1\n      tag_31\n      jump\t// in\n    tag_30:\n      mload(0x40)\n      0x20\n      dup2\n      dup4\n      sub\n      sub\n      dup2\n      mstore\n      swap1\n      0x40\n      mstore\n        /* \"Week5/Keccak256.sol\":451:482  return abi.encodePacked(s1, s2) */\n      swap1\n      pop\n        /* \"Week5/Keccak256.sol\":347:489  function encodePacked(string memory s1, string memory s2) external pure returns(bytes memory) {... */\n      swap3\n      swap2\n      pop\n      pop\n      jump\t// out\n        /* \"Week5/Keccak256.sol\":231:341  function encodeBytes(bytes memory b) external pure returns(bytes memory) {... */\n    tag_20:\n        /* \"Week5/Keccak256.sol\":290:302  bytes memory */\n      0x60\n        /* \"Week5/Keccak256.sol\":332:333  b */\n      dup2\n        /* \"Week5/Keccak256.sol\":321:334  abi.encode(b) */\n      add(0x20, mload(0x40))\n      tag_33\n      swap2\n      swap1\n      tag_12\n      jump\t// in\n    tag_33:\n      mload(0x40)\n      0x20\n      dup2\n      dup4\n      sub\n      sub\n      dup2\n      mstore\n      swap1\n      0x40\n      mstore\n        /* \"Week5/Keccak256.sol\":314:334  return abi.encode(b) */\n      swap1\n      pop\n        /* \"Week5/Keccak256.sol\":231:341  function encodeBytes(bytes memory b) external pure returns(bytes memory) {... */\n      swap2\n      swap1\n      pop\n      jump\t// out\n        /* \"Week5/Keccak256.sol\":495:638  function encodeWith(string memory s1, string memory s2) external pure returns(bytes memory) {... */\n    tag_24:\n        /* \"Week5/Keccak256.sol\":573:585  bytes memory */\n      0x60\n        /* \"Week5/Keccak256.sol\":604:631  abi.encodeWithSignature(\"\") */\n      add(0x24, mload(0x40))\n      mload(0x40)\n      0x20\n      dup2\n      dup4\n      sub\n      sub\n      dup2\n      mstore\n      swap1\n      0x40\n      mstore\n      and(not(0xffffffffffffffffffffffffffffffffffffffffffffffffffffffff), 0xc5d2460100000000000000000000000000000000000000000000000000000000)\n      0x20\n      dup3\n      add\n      dup1\n      mload\n      0xffffffffffffffffffffffffffffffffffffffffffffffffffffffff\n      dup4\n      dup2\n      dup4\n      and\n      or\n      dup4\n      mstore\n      pop\n      pop\n      pop\n      pop\n        /* \"Week5/Keccak256.sol\":597:631  return abi.encodeWithSignature(\"\") */\n      swap1\n      pop\n        /* \"Week5/Keccak256.sol\":495:638  function encodeWith(string memory s1, string memory s2) external pure returns(bytes memory) {... */\n      swap3\n      swap2\n      pop\n      pop\n      jump\t// out\n        /* \"#utility.yul\":7:417   */\n    tag_36:\n        /* \"#utility.yul\":84:89   */\n      0x00\n        /* \"#utility.yul\":109:174   */\n      tag_38\n        /* \"#utility.yul\":125:173   */\n      tag_39\n        /* \"#utility.yul\":166:172   */\n      dup5\n        /* \"#utility.yul\":125:173   */\n      tag_40\n      jump\t// in\n    tag_39:\n        /* \"#utility.yul\":109:174   */\n      tag_41\n      jump\t// in\n    tag_38:\n        /* \"#utility.yul\":100:174   */\n      swap1\n      pop\n        /* \"#utility.yul\":197:203   */\n      dup3\n        /* \"#utility.yul\":190:195   */\n      dup2\n        /* \"#utility.yul\":183:204   */\n      mstore\n        /* \"#utility.yul\":235:239   */\n      0x20\n        /* \"#utility.yul\":228:233   */\n      dup2\n        /* \"#utility.yul\":224:240   */\n      add\n        /* \"#utility.yul\":273:276   */\n      dup5\n        /* \"#utility.yul\":264:270   */\n      dup5\n        /* \"#utility.yul\":259:262   */\n      dup5\n        /* \"#utility.yul\":255:271   */\n      add\n        /* \"#utility.yul\":252:277   */\n      gt\n        /* \"#utility.yul\":249:361   */\n      iszero\n      tag_42\n      jumpi\n        /* \"#utility.yul\":280:359   */\n      tag_43\n      tag_44\n      jump\t// in\n    tag_43:\n        /* \"#utility.yul\":249:361   */\n    tag_42:\n        /* \"#utility.yul\":370:411   */\n      tag_45\n        /* \"#utility.yul\":404:410   */\n      dup5\n        /* \"#utility.yul\":399:402   */\n      dup3\n        /* \"#utility.yul\":394:397   */\n      dup6\n        /* \"#utility.yul\":370:411   */\n      tag_46\n      jump\t// in\n    tag_45:\n        /* \"#utility.yul\":90:417   */\n      pop\n        /* \"#utility.yul\":7:417   */\n      swap4\n      swap3\n      pop\n      pop\n      pop\n      jump\t// out\n        /* \"#utility.yul\":423:835   */\n    tag_47:\n        /* \"#utility.yul\":501:506   */\n      0x00\n        /* \"#utility.yul\":526:592   */\n      tag_49\n        /* \"#utility.yul\":542:591   */\n      tag_50\n        /* \"#utility.yul\":584:590   */\n      dup5\n        /* \"#utility.yul\":542:591   */\n      tag_51\n      jump\t// in\n    tag_50:\n        /* \"#utility.yul\":526:592   */\n      tag_41\n      jump\t// in\n    tag_49:\n        /* \"#utility.yul\":517:592   */\n      swap1\n      pop\n        /* \"#utility.yul\":615:621   */\n      dup3\n        /* \"#utility.yul\":608:613   */\n      dup2\n        /* \"#utility.yul\":601:622   */\n      mstore\n        /* \"#utility.yul\":653:657   */\n      0x20\n        /* \"#utility.yul\":646:651   */\n      dup2\n        /* \"#utility.yul\":642:658   */\n      add\n        /* \"#utility.yul\":691:694   */\n      dup5\n        /* \"#utility.yul\":682:688   */\n      dup5\n        /* \"#utility.yul\":677:680   */\n      dup5\n        /* \"#utility.yul\":673:689   */\n      add\n        /* \"#utility.yul\":670:695   */\n      gt\n        /* \"#utility.yul\":667:779   */\n      iszero\n      tag_52\n      jumpi\n        /* \"#utility.yul\":698:777   */\n      tag_53\n      tag_44\n      jump\t// in\n    tag_53:\n        /* \"#utility.yul\":667:779   */\n    tag_52:\n        /* \"#utility.yul\":788:829   */\n      tag_54\n        /* \"#utility.yul\":822:828   */\n      dup5\n        /* \"#utility.yul\":817:820   */\n      dup3\n        /* \"#utility.yul\":812:815   */\n      dup6\n        /* \"#utility.yul\":788:829   */\n      tag_46\n      jump\t// in\n    tag_54:\n        /* \"#utility.yul\":507:835   */\n      pop\n        /* \"#utility.yul\":423:835   */\n      swap4\n      swap3\n      pop\n      pop\n      pop\n      jump\t// out\n        /* \"#utility.yul\":854:1192   */\n    tag_55:\n        /* \"#utility.yul\":909:914   */\n      0x00\n        /* \"#utility.yul\":958:961   */\n      dup3\n        /* \"#utility.yul\":951:955   */\n      0x1f\n        /* \"#utility.yul\":943:949   */\n      dup4\n        /* \"#utility.yul\":939:956   */\n      add\n        /* \"#utility.yul\":935:962   */\n      slt\n        /* \"#utility.yul\":925:1047   */\n      tag_57\n      jumpi\n        /* \"#utility.yul\":966:1045   */\n      tag_58\n      tag_59\n      jump\t// in\n    tag_58:\n        /* \"#utility.yul\":925:1047   */\n    tag_57:\n        /* \"#utility.yul\":1083:1089   */\n      dup2\n        /* \"#utility.yul\":1070:1090   */\n      calldataload\n        /* \"#utility.yul\":1108:1186   */\n      tag_60\n        /* \"#utility.yul\":1182:1185   */\n      dup5\n        /* \"#utility.yul\":1174:1180   */\n      dup3\n        /* \"#utility.yul\":1167:1171   */\n      0x20\n        /* \"#utility.yul\":1159:1165   */\n      dup7\n        /* \"#utility.yul\":1155:1172   */\n      add\n        /* \"#utility.yul\":1108:1186   */\n      tag_36\n      jump\t// in\n    tag_60:\n        /* \"#utility.yul\":1099:1186   */\n      swap2\n      pop\n        /* \"#utility.yul\":915:1192   */\n      pop\n        /* \"#utility.yul\":854:1192   */\n      swap3\n      swap2\n      pop\n      pop\n      jump\t// out\n        /* \"#utility.yul\":1212:1552   */\n    tag_61:\n        /* \"#utility.yul\":1268:1273   */\n      0x00\n        /* \"#utility.yul\":1317:1320   */\n      dup3\n        /* \"#utility.yul\":1310:1314   */\n      0x1f\n        /* \"#utility.yul\":1302:1308   */\n      dup4\n        /* \"#utility.yul\":1298:1315   */\n      add\n        /* \"#utility.yul\":1294:1321   */\n      slt\n        /* \"#utility.yul\":1284:1406   */\n      tag_63\n      jumpi\n        /* \"#utility.yul\":1325:1404   */\n      tag_64\n      tag_59\n      jump\t// in\n    tag_64:\n        /* \"#utility.yul\":1284:1406   */\n    tag_63:\n        /* \"#utility.yul\":1442:1448   */\n      dup2\n        /* \"#utility.yul\":1429:1449   */\n      calldataload\n        /* \"#utility.yul\":1467:1546   */\n      tag_65\n        /* \"#utility.yul\":1542:1545   */\n      dup5\n        /* \"#utility.yul\":1534:1540   */\n      dup3\n        /* \"#utility.yul\":1527:1531   */\n      0x20\n        /* \"#utility.yul\":1519:1525   */\n      dup7\n        /* \"#utility.yul\":1515:1532   */\n      add\n        /* \"#utility.yul\":1467:1546   */\n      tag_47\n      jump\t// in\n    tag_65:\n        /* \"#utility.yul\":1458:1546   */\n      swap2\n      pop\n        /* \"#utility.yul\":1274:1552   */\n      pop\n        /* \"#utility.yul\":1212:1552   */\n      swap3\n      swap2\n      pop\n      pop\n      jump\t// out\n        /* \"#utility.yul\":1558:2065   */\n    tag_19:\n        /* \"#utility.yul\":1626:1632   */\n      0x00\n        /* \"#utility.yul\":1675:1677   */\n      0x20\n        /* \"#utility.yul\":1663:1672   */\n      dup3\n        /* \"#utility.yul\":1654:1661   */\n      dup5\n        /* \"#utility.yul\":1650:1673   */\n      sub\n        /* \"#utility.yul\":1646:1678   */\n      slt\n        /* \"#utility.yul\":1643:1762   */\n      iszero\n      tag_67\n      jumpi\n        /* \"#utility.yul\":1681:1760   */\n      tag_68\n      tag_69\n      jump\t// in\n    tag_68:\n        /* \"#utility.yul\":1643:1762   */\n    tag_67:\n        /* \"#utility.yul\":1829:1830   */\n      0x00\n        /* \"#utility.yul\":1818:1827   */\n      dup3\n        /* \"#utility.yul\":1814:1831   */\n      add\n        /* \"#utility.yul\":1801:1832   */\n      calldataload\n        /* \"#utility.yul\":1859:1877   */\n      0xffffffffffffffff\n        /* \"#utility.yul\":1851:1857   */\n      dup2\n        /* \"#utility.yul\":1848:1878   */\n      gt\n        /* \"#utility.yul\":1845:1962   */\n      iszero\n      tag_70\n      jumpi\n        /* \"#utility.yul\":1881:1960   */\n      tag_71\n      tag_72\n      jump\t// in\n    tag_71:\n        /* \"#utility.yul\":1845:1962   */\n    tag_70:\n        /* \"#utility.yul\":1986:2048   */\n      tag_73\n        /* \"#utility.yul\":2040:2047   */\n      dup5\n        /* \"#utility.yul\":2031:2037   */\n      dup3\n        /* \"#utility.yul\":2020:2029   */\n      dup6\n        /* \"#utility.yul\":2016:2038   */\n      add\n        /* \"#utility.yul\":1986:2048   */\n      tag_55\n      jump\t// in\n    tag_73:\n        /* \"#utility.yul\":1976:2048   */\n      swap2\n      pop\n        /* \"#utility.yul\":1772:2058   */\n      pop\n        /* \"#utility.yul\":1558:2065   */\n      swap3\n      swap2\n      pop\n      pop\n      jump\t// out\n        /* \"#utility.yul\":2071:2905   */\n    tag_9:\n        /* \"#utility.yul\":2159:2165   */\n      0x00\n        /* \"#utility.yul\":2167:2173   */\n      dup1\n        /* \"#utility.yul\":2216:2218   */\n      0x40\n        /* \"#utility.yul\":2204:2213   */\n      dup4\n        /* \"#utility.yul\":2195:2202   */\n      dup6\n        /* \"#utility.yul\":2191:2214   */\n      sub\n        /* \"#utility.yul\":2187:2219   */\n      slt\n        /* \"#utility.yul\":2184:2303   */\n      iszero\n      tag_75\n      jumpi\n        /* \"#utility.yul\":2222:2301   */\n      tag_76\n      tag_69\n      jump\t// in\n    tag_76:\n        /* \"#utility.yul\":2184:2303   */\n    tag_75:\n        /* \"#utility.yul\":2370:2371   */\n      0x00\n        /* \"#utility.yul\":2359:2368   */\n      dup4\n        /* \"#utility.yul\":2355:2372   */\n      add\n        /* \"#utility.yul\":2342:2373   */\n      calldataload\n        /* \"#utility.yul\":2400:2418   */\n      0xffffffffffffffff\n        /* \"#utility.yul\":2392:2398   */\n      dup2\n        /* \"#utility.yul\":2389:2419   */\n      gt\n        /* \"#utility.yul\":2386:2503   */\n      iszero\n      tag_77\n      jumpi\n        /* \"#utility.yul\":2422:2501   */\n      tag_78\n      tag_72\n      jump\t// in\n    tag_78:\n        /* \"#utility.yul\":2386:2503   */\n    tag_77:\n        /* \"#utility.yul\":2527:2590   */\n      tag_79\n        /* \"#utility.yul\":2582:2589   */\n      dup6\n        /* \"#utility.yul\":2573:2579   */\n      dup3\n        /* \"#utility.yul\":2562:2571   */\n      dup7\n        /* \"#utility.yul\":2558:2580   */\n      add\n        /* \"#utility.yul\":2527:2590   */\n      tag_61\n      jump\t// in\n    tag_79:\n        /* \"#utility.yul\":2517:2590   */\n      swap3\n      pop\n        /* \"#utility.yul\":2313:2600   */\n      pop\n        /* \"#utility.yul\":2667:2669   */\n      0x20\n        /* \"#utility.yul\":2656:2665   */\n      dup4\n        /* \"#utility.yul\":2652:2670   */\n      add\n        /* \"#utility.yul\":2639:2671   */\n      calldataload\n        /* \"#utility.yul\":2698:2716   */\n      0xffffffffffffffff\n        /* \"#utility.yul\":2690:2696   */\n      dup2\n        /* \"#utility.yul\":2687:2717   */\n      gt\n        /* \"#utility.yul\":2684:2801   */\n      iszero\n      tag_80\n      jumpi\n        /* \"#utility.yul\":2720:2799   */\n      tag_81\n      tag_72\n      jump\t// in\n    tag_81:\n        /* \"#utility.yul\":2684:2801   */\n    tag_80:\n        /* \"#utility.yul\":2825:2888   */\n      tag_82\n        /* \"#utility.yul\":2880:2887   */\n      dup6\n        /* \"#utility.yul\":2871:2877   */\n      dup3\n        /* \"#utility.yul\":2860:2869   */\n      dup7\n        /* \"#utility.yul\":2856:2878   */\n      add\n        /* \"#utility.yul\":2825:2888   */\n      tag_61\n      jump\t// in\n    tag_82:\n        /* \"#utility.yul\":2815:2888   */\n      swap2\n      pop\n        /* \"#utility.yul\":2610:2898   */\n      pop\n        /* \"#utility.yul\":2071:2905   */\n      swap3\n      pop\n      swap3\n      swap1\n      pop\n      jump\t// out\n        /* \"#utility.yul\":2911:3271   */\n    tag_83:\n        /* \"#utility.yul\":2997:3000   */\n      0x00\n        /* \"#utility.yul\":3025:3063   */\n      tag_85\n        /* \"#utility.yul\":3057:3062   */\n      dup3\n        /* \"#utility.yul\":3025:3063   */\n      tag_86\n      jump\t// in\n    tag_85:\n        /* \"#utility.yul\":3079:3149   */\n      tag_87\n        /* \"#utility.yul\":3142:3148   */\n      dup2\n        /* \"#utility.yul\":3137:3140   */\n      dup6\n        /* \"#utility.yul\":3079:3149   */\n      tag_88\n      jump\t// in\n    tag_87:\n        /* \"#utility.yul\":3072:3149   */\n      swap4\n      pop\n        /* \"#utility.yul\":3158:3210   */\n      tag_89\n        /* \"#utility.yul\":3203:3209   */\n      dup2\n        /* \"#utility.yul\":3198:3201   */\n      dup6\n        /* \"#utility.yul\":3191:3195   */\n      0x20\n        /* \"#utility.yul\":3184:3189   */\n      dup7\n        /* \"#utility.yul\":3180:3196   */\n      add\n        /* \"#utility.yul\":3158:3210   */\n      tag_90\n      jump\t// in\n    tag_89:\n        /* \"#utility.yul\":3235:3264   */\n      tag_91\n        /* \"#utility.yul\":3257:3263   */\n      dup2\n        /* \"#utility.yul\":3235:3264   */\n      tag_92\n      jump\t// in\n    tag_91:\n        /* \"#utility.yul\":3230:3233   */\n      dup5\n        /* \"#utility.yul\":3226:3265   */\n      add\n        /* \"#utility.yul\":3219:3265   */\n      swap2\n      pop\n        /* \"#utility.yul\":3001:3271   */\n      pop\n        /* \"#utility.yul\":2911:3271   */\n      swap3\n      swap2\n      pop\n      pop\n      jump\t// out\n        /* \"#utility.yul\":3277:3641   */\n    tag_93:\n        /* \"#utility.yul\":3365:3368   */\n      0x00\n        /* \"#utility.yul\":3393:3432   */\n      tag_95\n        /* \"#utility.yul\":3426:3431   */\n      dup3\n        /* \"#utility.yul\":3393:3432   */\n      tag_96\n      jump\t// in\n    tag_95:\n        /* \"#utility.yul\":3448:3519   */\n      tag_97\n        /* \"#utility.yul\":3512:3518   */\n      dup2\n        /* \"#utility.yul\":3507:3510   */\n      dup6\n        /* \"#utility.yul\":3448:3519   */\n      tag_98\n      jump\t// in\n    tag_97:\n        /* \"#utility.yul\":3441:3519   */\n      swap4\n      pop\n        /* \"#utility.yul\":3528:3580   */\n      tag_99\n        /* \"#utility.yul\":3573:3579   */\n      dup2\n        /* \"#utility.yul\":3568:3571   */\n      dup6\n        /* \"#utility.yul\":3561:3565   */\n      0x20\n        /* \"#utility.yul\":3554:3559   */\n      dup7\n        /* \"#utility.yul\":3550:3566   */\n      add\n        /* \"#utility.yul\":3528:3580   */\n      tag_90\n      jump\t// in\n    tag_99:\n        /* \"#utility.yul\":3605:3634   */\n      tag_100\n        /* \"#utility.yul\":3627:3633   */\n      dup2\n        /* \"#utility.yul\":3605:3634   */\n      tag_92\n      jump\t// in\n    tag_100:\n        /* \"#utility.yul\":3600:3603   */\n      dup5\n        /* \"#utility.yul\":3596:3635   */\n      add\n        /* \"#utility.yul\":3589:3635   */\n      swap2\n      pop\n        /* \"#utility.yul\":3369:3641   */\n      pop\n        /* \"#utility.yul\":3277:3641   */\n      swap3\n      swap2\n      pop\n      pop\n      jump\t// out\n        /* \"#utility.yul\":3647:4024   */\n    tag_101:\n        /* \"#utility.yul\":3753:3756   */\n      0x00\n        /* \"#utility.yul\":3781:3820   */\n      tag_103\n        /* \"#utility.yul\":3814:3819   */\n      dup3\n        /* \"#utility.yul\":3781:3820   */\n      tag_96\n      jump\t// in\n    tag_103:\n        /* \"#utility.yul\":3836:3925   */\n      tag_104\n        /* \"#utility.yul\":3918:3924   */\n      dup2\n        /* \"#utility.yul\":3913:3916   */\n      dup6\n        /* \"#utility.yul\":3836:3925   */\n      tag_105\n      jump\t// in\n    tag_104:\n        /* \"#utility.yul\":3829:3925   */\n      swap4\n      pop\n        /* \"#utility.yul\":3934:3986   */\n      tag_106\n        /* \"#utility.yul\":3979:3985   */\n      dup2\n        /* \"#utility.yul\":3974:3977   */\n      dup6\n        /* \"#utility.yul\":3967:3971   */\n      0x20\n        /* \"#utility.yul\":3960:3965   */\n      dup7\n        /* \"#utility.yul\":3956:3972   */\n      add\n        /* \"#utility.yul\":3934:3986   */\n      tag_90\n      jump\t// in\n    tag_106:\n        /* \"#utility.yul\":4011:4017   */\n      dup1\n        /* \"#utility.yul\":4006:4009   */\n      dup5\n        /* \"#utility.yul\":4002:4018   */\n      add\n        /* \"#utility.yul\":3995:4018   */\n      swap2\n      pop\n        /* \"#utility.yul\":3757:4024   */\n      pop\n        /* \"#utility.yul\":3647:4024   */\n      swap3\n      swap2\n      pop\n      pop\n      jump\t// out\n        /* \"#utility.yul\":4030:4465   */\n    tag_31:\n        /* \"#utility.yul\":4210:4213   */\n      0x00\n        /* \"#utility.yul\":4232:4327   */\n      tag_108\n        /* \"#utility.yul\":4323:4326   */\n      dup3\n        /* \"#utility.yul\":4314:4320   */\n      dup6\n        /* \"#utility.yul\":4232:4327   */\n      tag_101\n      jump\t// in\n    tag_108:\n        /* \"#utility.yul\":4225:4327   */\n      swap2\n      pop\n        /* \"#utility.yul\":4344:4439   */\n      tag_109\n        /* \"#utility.yul\":4435:4438   */\n      dup3\n        /* \"#utility.yul\":4426:4432   */\n      dup5\n        /* \"#utility.yul\":4344:4439   */\n      tag_101\n      jump\t// in\n    tag_109:\n        /* \"#utility.yul\":4337:4439   */\n      swap2\n      pop\n        /* \"#utility.yul\":4456:4459   */\n      dup2\n        /* \"#utility.yul\":4449:4459   */\n      swap1\n      pop\n        /* \"#utility.yul\":4030:4465   */\n      swap4\n      swap3\n      pop\n      pop\n      pop\n      jump\t// out\n        /* \"#utility.yul\":4471:4780   */\n    tag_12:\n        /* \"#utility.yul\":4582:4586   */\n      0x00\n        /* \"#utility.yul\":4620:4622   */\n      0x20\n        /* \"#utility.yul\":4609:4618   */\n      dup3\n        /* \"#utility.yul\":4605:4623   */\n      add\n        /* \"#utility.yul\":4597:4623   */\n      swap1\n      pop\n        /* \"#utility.yul\":4669:4678   */\n      dup2\n        /* \"#utility.yul\":4663:4667   */\n      dup2\n        /* \"#utility.yul\":4659:4679   */\n      sub\n        /* \"#utility.yul\":4655:4656   */\n      0x00\n        /* \"#utility.yul\":4644:4653   */\n      dup4\n        /* \"#utility.yul\":4640:4657   */\n      add\n        /* \"#utility.yul\":4633:4680   */\n      mstore\n        /* \"#utility.yul\":4697:4773   */\n      tag_111\n        /* \"#utility.yul\":4768:4772   */\n      dup2\n        /* \"#utility.yul\":4759:4765   */\n      dup5\n        /* \"#utility.yul\":4697:4773   */\n      tag_83\n      jump\t// in\n    tag_111:\n        /* \"#utility.yul\":4689:4773   */\n      swap1\n      pop\n        /* \"#utility.yul\":4471:4780   */\n      swap3\n      swap2\n      pop\n      pop\n      jump\t// out\n        /* \"#utility.yul\":4786:5300   */\n    tag_28:\n        /* \"#utility.yul\":4947:4951   */\n      0x00\n        /* \"#utility.yul\":4985:4987   */\n      0x40\n        /* \"#utility.yul\":4974:4983   */\n      dup3\n        /* \"#utility.yul\":4970:4988   */\n      add\n        /* \"#utility.yul\":4962:4988   */\n      swap1\n      pop\n        /* \"#utility.yul\":5034:5043   */\n      dup2\n        /* \"#utility.yul\":5028:5032   */\n      dup2\n        /* \"#utility.yul\":5024:5044   */\n      sub\n        /* \"#utility.yul\":5020:5021   */\n      0x00\n        /* \"#utility.yul\":5009:5018   */\n      dup4\n        /* \"#utility.yul\":5005:5022   */\n      add\n        /* \"#utility.yul\":4998:5045   */\n      mstore\n        /* \"#utility.yul\":5062:5140   */\n      tag_113\n        /* \"#utility.yul\":5135:5139   */\n      dup2\n        /* \"#utility.yul\":5126:5132   */\n      dup6\n        /* \"#utility.yul\":5062:5140   */\n      tag_93\n      jump\t// in\n    tag_113:\n        /* \"#utility.yul\":5054:5140   */\n      swap1\n      pop\n        /* \"#utility.yul\":5187:5196   */\n      dup2\n        /* \"#utility.yul\":5181:5185   */\n      dup2\n        /* \"#utility.yul\":5177:5197   */\n      sub\n        /* \"#utility.yul\":5172:5174   */\n      0x20\n        /* \"#utility.yul\":5161:5170   */\n      dup4\n        /* \"#utility.yul\":5157:5175   */\n      add\n        /* \"#utility.yul\":5150:5198   */\n      mstore\n        /* \"#utility.yul\":5215:5293   */\n      tag_114\n        /* \"#utility.yul\":5288:5292   */\n      dup2\n        /* \"#utility.yul\":5279:5285   */\n      dup5\n        /* \"#utility.yul\":5215:5293   */\n      tag_93\n      jump\t// in\n    tag_114:\n        /* \"#utility.yul\":5207:5293   */\n      swap1\n      pop\n        /* \"#utility.yul\":4786:5300   */\n      swap4\n      swap3\n      pop\n      pop\n      pop\n      jump\t// out\n        /* \"#utility.yul\":5306:5435   */\n    tag_41:\n        /* \"#utility.yul\":5340:5346   */\n      0x00\n        /* \"#utility.yul\":5367:5387   */\n      tag_116\n      tag_117\n      jump\t// in\n    tag_116:\n        /* \"#utility.yul\":5357:5387   */\n      swap1\n      pop\n        /* \"#utility.yul\":5396:5429   */\n      tag_118\n        /* \"#utility.yul\":5424:5428   */\n      dup3\n        /* \"#utility.yul\":5416:5422   */\n      dup3\n        /* \"#utility.yul\":5396:5429   */\n      tag_119\n      jump\t// in\n    tag_118:\n        /* \"#utility.yul\":5306:5435   */\n      swap2\n      swap1\n      pop\n      jump\t// out\n        /* \"#utility.yul\":5441:5516   */\n    tag_117:\n        /* \"#utility.yul\":5474:5480   */\n      0x00\n        /* \"#utility.yul\":5507:5509   */\n      0x40\n        /* \"#utility.yul\":5501:5510   */\n      mload\n        /* \"#utility.yul\":5491:5510   */\n      swap1\n      pop\n        /* \"#utility.yul\":5441:5516   */\n      swap1\n      jump\t// out\n        /* \"#utility.yul\":5522:5829   */\n    tag_40:\n        /* \"#utility.yul\":5583:5587   */\n      0x00\n        /* \"#utility.yul\":5673:5691   */\n      0xffffffffffffffff\n        /* \"#utility.yul\":5665:5671   */\n      dup3\n        /* \"#utility.yul\":5662:5692   */\n      gt\n        /* \"#utility.yul\":5659:5715   */\n      iszero\n      tag_122\n      jumpi\n        /* \"#utility.yul\":5695:5713   */\n      tag_123\n      tag_124\n      jump\t// in\n    tag_123:\n        /* \"#utility.yul\":5659:5715   */\n    tag_122:\n        /* \"#utility.yul\":5733:5762   */\n      tag_125\n        /* \"#utility.yul\":5755:5761   */\n      dup3\n        /* \"#utility.yul\":5733:5762   */\n      tag_92\n      jump\t// in\n    tag_125:\n        /* \"#utility.yul\":5725:5762   */\n      swap1\n      pop\n        /* \"#utility.yul\":5817:5821   */\n      0x20\n        /* \"#utility.yul\":5811:5815   */\n      dup2\n        /* \"#utility.yul\":5807:5822   */\n      add\n        /* \"#utility.yul\":5799:5822   */\n      swap1\n      pop\n        /* \"#utility.yul\":5522:5829   */\n      swap2\n      swap1\n      pop\n      jump\t// out\n        /* \"#utility.yul\":5835:6143   */\n    tag_51:\n        /* \"#utility.yul\":5897:5901   */\n      0x00\n        /* \"#utility.yul\":5987:6005   */\n      0xffffffffffffffff\n        /* \"#utility.yul\":5979:5985   */\n      dup3\n        /* \"#utility.yul\":5976:6006   */\n      gt\n        /* \"#utility.yul\":5973:6029   */\n      iszero\n      tag_127\n      jumpi\n        /* \"#utility.yul\":6009:6027   */\n      tag_128\n      tag_124\n      jump\t// in\n    tag_128:\n        /* \"#utility.yul\":5973:6029   */\n    tag_127:\n        /* \"#utility.yul\":6047:6076   */\n      tag_129\n        /* \"#utility.yul\":6069:6075   */\n      dup3\n        /* \"#utility.yul\":6047:6076   */\n      tag_92\n      jump\t// in\n    tag_129:\n        /* \"#utility.yul\":6039:6076   */\n      swap1\n      pop\n        /* \"#utility.yul\":6131:6135   */\n      0x20\n        /* \"#utility.yul\":6125:6129   */\n      dup2\n        /* \"#utility.yul\":6121:6136   */\n      add\n        /* \"#utility.yul\":6113:6136   */\n      swap1\n      pop\n        /* \"#utility.yul\":5835:6143   */\n      swap2\n      swap1\n      pop\n      jump\t// out\n        /* \"#utility.yul\":6149:6247   */\n    tag_86:\n        /* \"#utility.yul\":6200:6206   */\n      0x00\n        /* \"#utility.yul\":6234:6239   */\n      dup2\n        /* \"#utility.yul\":6228:6240   */\n      mload\n        /* \"#utility.yul\":6218:6240   */\n      swap1\n      pop\n        /* \"#utility.yul\":6149:6247   */\n      swap2\n      swap1\n      pop\n      jump\t// out\n        /* \"#utility.yul\":6253:6352   */\n    tag_96:\n        /* \"#utility.yul\":6305:6311   */\n      0x00\n        /* \"#utility.yul\":6339:6344   */\n      dup2\n        /* \"#utility.yul\":6333:6345   */\n      mload\n        /* \"#utility.yul\":6323:6345   */\n      swap1\n      pop\n        /* \"#utility.yul\":6253:6352   */\n      swap2\n      swap1\n      pop\n      jump\t// out\n        /* \"#utility.yul\":6358:6526   */\n    tag_88:\n        /* \"#utility.yul\":6441:6452   */\n      0x00\n        /* \"#utility.yul\":6475:6481   */\n      dup3\n        /* \"#utility.yul\":6470:6473   */\n      dup3\n        /* \"#utility.yul\":6463:6482   */\n      mstore\n        /* \"#utility.yul\":6515:6519   */\n      0x20\n        /* \"#utility.yul\":6510:6513   */\n      dup3\n        /* \"#utility.yul\":6506:6520   */\n      add\n        /* \"#utility.yul\":6491:6520   */\n      swap1\n      pop\n        /* \"#utility.yul\":6358:6526   */\n      swap3\n      swap2\n      pop\n      pop\n      jump\t// out\n        /* \"#utility.yul\":6532:6701   */\n    tag_98:\n        /* \"#utility.yul\":6616:6627   */\n      0x00\n        /* \"#utility.yul\":6650:6656   */\n      dup3\n        /* \"#utility.yul\":6645:6648   */\n      dup3\n        /* \"#utility.yul\":6638:6657   */\n      mstore\n        /* \"#utility.yul\":6690:6694   */\n      0x20\n        /* \"#utility.yul\":6685:6688   */\n      dup3\n        /* \"#utility.yul\":6681:6695   */\n      add\n        /* \"#utility.yul\":6666:6695   */\n      swap1\n      pop\n        /* \"#utility.yul\":6532:6701   */\n      swap3\n      swap2\n      pop\n      pop\n      jump\t// out\n        /* \"#utility.yul\":6707:6855   */\n    tag_105:\n        /* \"#utility.yul\":6809:6820   */\n      0x00\n        /* \"#utility.yul\":6846:6849   */\n      dup2\n        /* \"#utility.yul\":6831:6849   */\n      swap1\n      pop\n        /* \"#utility.yul\":6707:6855   */\n      swap3\n      swap2\n      pop\n      pop\n      jump\t// out\n        /* \"#utility.yul\":6861:7015   */\n    tag_46:\n        /* \"#utility.yul\":6945:6951   */\n      dup3\n        /* \"#utility.yul\":6940:6943   */\n      dup2\n        /* \"#utility.yul\":6935:6938   */\n      dup4\n        /* \"#utility.yul\":6922:6952   */\n      calldatacopy\n        /* \"#utility.yul\":7007:7008   */\n      0x00\n        /* \"#utility.yul\":6998:7004   */\n      dup4\n        /* \"#utility.yul\":6993:6996   */\n      dup4\n        /* \"#utility.yul\":6989:7005   */\n      add\n        /* \"#utility.yul\":6982:7009   */\n      mstore\n        /* \"#utility.yul\":6861:7015   */\n      pop\n      pop\n      pop\n      jump\t// out\n        /* \"#utility.yul\":7021:7328   */\n    tag_90:\n        /* \"#utility.yul\":7089:7090   */\n      0x00\n        /* \"#utility.yul\":7099:7212   */\n    tag_137:\n        /* \"#utility.yul\":7113:7119   */\n      dup4\n        /* \"#utility.yul\":7110:7111   */\n      dup2\n        /* \"#utility.yul\":7107:7120   */\n      lt\n        /* \"#utility.yul\":7099:7212   */\n      iszero\n      tag_139\n      jumpi\n        /* \"#utility.yul\":7198:7199   */\n      dup1\n        /* \"#utility.yul\":7193:7196   */\n      dup3\n        /* \"#utility.yul\":7189:7200   */\n      add\n        /* \"#utility.yul\":7183:7201   */\n      mload\n        /* \"#utility.yul\":7179:7180   */\n      dup2\n        /* \"#utility.yul\":7174:7177   */\n      dup5\n        /* \"#utility.yul\":7170:7181   */\n      add\n        /* \"#utility.yul\":7163:7202   */\n      mstore\n        /* \"#utility.yul\":7135:7137   */\n      0x20\n        /* \"#utility.yul\":7132:7133   */\n      dup2\n        /* \"#utility.yul\":7128:7138   */\n      add\n        /* \"#utility.yul\":7123:7138   */\n      swap1\n      pop\n        /* \"#utility.yul\":7099:7212   */\n      jump(tag_137)\n    tag_139:\n        /* \"#utility.yul\":7230:7236   */\n      dup4\n        /* \"#utility.yul\":7227:7228   */\n      dup2\n        /* \"#utility.yul\":7224:7237   */\n      gt\n        /* \"#utility.yul\":7221:7322   */\n      iszero\n      tag_140\n      jumpi\n        /* \"#utility.yul\":7310:7311   */\n      0x00\n        /* \"#utility.yul\":7301:7307   */\n      dup5\n        /* \"#utility.yul\":7296:7299   */\n      dup5\n        /* \"#utility.yul\":7292:7308   */\n      add\n        /* \"#utility.yul\":7285:7312   */\n      mstore\n        /* \"#utility.yul\":7221:7322   */\n    tag_140:\n        /* \"#utility.yul\":7070:7328   */\n      pop\n        /* \"#utility.yul\":7021:7328   */\n      pop\n      pop\n      pop\n      jump\t// out\n        /* \"#utility.yul\":7334:7615   */\n    tag_119:\n        /* \"#utility.yul\":7417:7444   */\n      tag_142\n        /* \"#utility.yul\":7439:7443   */\n      dup3\n        /* \"#utility.yul\":7417:7444   */\n      tag_92\n      jump\t// in\n    tag_142:\n        /* \"#utility.yul\":7409:7415   */\n      dup2\n        /* \"#utility.yul\":7405:7445   */\n      add\n        /* \"#utility.yul\":7547:7553   */\n      dup2\n        /* \"#utility.yul\":7535:7545   */\n      dup2\n        /* \"#utility.yul\":7532:7554   */\n      lt\n        /* \"#utility.yul\":7511:7529   */\n      0xffffffffffffffff\n        /* \"#utility.yul\":7499:7509   */\n      dup3\n        /* \"#utility.yul\":7496:7530   */\n      gt\n        /* \"#utility.yul\":7493:7555   */\n      or\n        /* \"#utility.yul\":7490:7578   */\n      iszero\n      tag_143\n      jumpi\n        /* \"#utility.yul\":7558:7576   */\n      tag_144\n      tag_124\n      jump\t// in\n    tag_144:\n        /* \"#utility.yul\":7490:7578   */\n    tag_143:\n        /* \"#utility.yul\":7598:7608   */\n      dup1\n        /* \"#utility.yul\":7594:7596   */\n      0x40\n        /* \"#utility.yul\":7587:7609   */\n      mstore\n        /* \"#utility.yul\":7377:7615   */\n      pop\n        /* \"#utility.yul\":7334:7615   */\n      pop\n      pop\n      jump\t// out\n        /* \"#utility.yul\":7621:7801   */\n    tag_124:\n        /* \"#utility.yul\":7669:7746   */\n      0x4e487b7100000000000000000000000000000000000000000000000000000000\n        /* \"#utility.yul\":7666:7667   */\n      0x00\n        /* \"#utility.yul\":7659:7747   */\n      mstore\n        /* \"#utility.yul\":7766:7770   */\n      0x41\n        /* \"#utility.yul\":7763:7764   */\n      0x04\n        /* \"#utility.yul\":7756:7771   */\n      mstore\n        /* \"#utility.yul\":7790:7794   */\n      0x24\n        /* \"#utility.yul\":7787:7788   */\n      0x00\n        /* \"#utility.yul\":7780:7795   */\n      revert\n        /* \"#utility.yul\":7807:7924   */\n    tag_59:\n        /* \"#utility.yul\":7916:7917   */\n      0x00\n        /* \"#utility.yul\":7913:7914   */\n      dup1\n        /* \"#utility.yul\":7906:7918   */\n      revert\n        /* \"#utility.yul\":7930:8047   */\n    tag_44:\n        /* \"#utility.yul\":8039:8040   */\n      0x00\n        /* \"#utility.yul\":8036:8037   */\n      dup1\n        /* \"#utility.yul\":8029:8041   */\n      revert\n        /* \"#utility.yul\":8053:8170   */\n    tag_72:\n        /* \"#utility.yul\":8162:8163   */\n      0x00\n        /* \"#utility.yul\":8159:8160   */\n      dup1\n        /* \"#utility.yul\":8152:8164   */\n      revert\n        /* \"#utility.yul\":8176:8293   */\n    tag_69:\n        /* \"#utility.yul\":8285:8286   */\n      0x00\n        /* \"#utility.yul\":8282:8283   */\n      dup1\n        /* \"#utility.yul\":8275:8287   */\n      revert\n        /* \"#utility.yul\":8299:8401   */\n    tag_92:\n        /* \"#utility.yul\":8340:8346   */\n      0x00\n        /* \"#utility.yul\":8391:8393   */\n      0x1f\n        /* \"#utility.yul\":8387:8394   */\n      not\n        /* \"#utility.yul\":8382:8384   */\n      0x1f\n        /* \"#utility.yul\":8375:8380   */\n      dup4\n        /* \"#utility.yul\":8371:8385   */\n      add\n        /* \"#utility.yul\":8367:8395   */\n      and\n        /* \"#utility.yul\":8357:8395   */\n      swap1\n      pop\n        /* \"#utility.yul\":8299:8401   */\n      swap2\n      swap1\n      pop\n      jump\t// out\n\n    auxdata: 0xa26469706673582212203c481a6a97850585d5af80055f5effd44620d7c415ef3c95aa7f1b0b99cfbd6964736f6c63430008070033\n}\n",
				"bytecode": {
					"linkReferences": {},
					"object": "608060405234801561001057600080fd5b506106a7806100206000396000f3fe608060405234801561001057600080fd5b506004361061004c5760003560e01c806317fe2da214610051578063892e5d0114610081578063e3ac07f5146100b1578063f482b729146100e1575b600080fd5b61006b60048036038101906100669190610348565b610111565b6040516100789190610487565b60405180910390f35b61009b60048036038101906100969190610348565b61013d565b6040516100a89190610487565b60405180910390f35b6100cb60048036038101906100c691906102ff565b610169565b6040516100d89190610487565b60405180910390f35b6100fb60048036038101906100f69190610348565b610192565b6040516101089190610487565b60405180910390f35b606082826040516020016101269291906104a9565b604051602081830303815290604052905092915050565b60608282604051602001610152929190610463565b604051602081830303815290604052905092915050565b60608160405160200161017c9190610487565b6040516020818303038152906040529050919050565b60606040516024016040516020818303038152906040527fc5d24601000000000000000000000000000000000000000000000000000000007bffffffffffffffffffffffffffffffffffffffffffffffffffffffff19166020820180517bffffffffffffffffffffffffffffffffffffffffffffffffffffffff8381831617835250505050905092915050565b600061023261022d84610505565b6104e0565b90508281526020810184848401111561024e5761024d610651565b5b6102598482856105aa565b509392505050565b600061027461026f84610536565b6104e0565b9050828152602081018484840111156102905761028f610651565b5b61029b8482856105aa565b509392505050565b600082601f8301126102b8576102b761064c565b5b81356102c884826020860161021f565b91505092915050565b600082601f8301126102e6576102e561064c565b5b81356102f6848260208601610261565b91505092915050565b6000602082840312156103155761031461065b565b5b600082013567ffffffffffffffff81111561033357610332610656565b5b61033f848285016102a3565b91505092915050565b6000806040838503121561035f5761035e61065b565b5b600083013567ffffffffffffffff81111561037d5761037c610656565b5b610389858286016102d1565b925050602083013567ffffffffffffffff8111156103aa576103a9610656565b5b6103b6858286016102d1565b9150509250929050565b60006103cb82610567565b6103d5818561057d565b93506103e58185602086016105b9565b6103ee81610660565b840191505092915050565b600061040482610572565b61040e818561058e565b935061041e8185602086016105b9565b61042781610660565b840191505092915050565b600061043d82610572565b610447818561059f565b93506104578185602086016105b9565b80840191505092915050565b600061046f8285610432565b915061047b8284610432565b91508190509392505050565b600060208201905081810360008301526104a181846103c0565b905092915050565b600060408201905081810360008301526104c381856103f9565b905081810360208301526104d781846103f9565b90509392505050565b60006104ea6104fb565b90506104f682826105ec565b919050565b6000604051905090565b600067ffffffffffffffff8211156105205761051f61061d565b5b61052982610660565b9050602081019050919050565b600067ffffffffffffffff8211156105515761055061061d565b5b61055a82610660565b9050602081019050919050565b600081519050919050565b600081519050919050565b600082825260208201905092915050565b600082825260208201905092915050565b600081905092915050565b82818337600083830152505050565b60005b838110156105d75780820151818401526020810190506105bc565b838111156105e6576000848401525b50505050565b6105f582610660565b810181811067ffffffffffffffff821117156106145761061361061d565b5b80604052505050565b7f4e487b7100000000000000000000000000000000000000000000000000000000600052604160045260246000fd5b600080fd5b600080fd5b600080fd5b600080fd5b6000601f19601f830116905091905056fea26469706673582212203c481a6a97850585d5af80055f5effd44620d7c415ef3c95aa7f1b0b99cfbd6964736f6c63430008070033",
					"opcodes": "PUSH1 0x80 PUSH1 0x40 MSTORE CALLVALUE DUP1 ISZERO PUSH2 0x10 JUMPI PUSH1 0x0 DUP1 REVERT JUMPDEST POP PUSH2 0x6A7 DUP1 PUSH2 0x20 PUSH1 0x0 CODECOPY PUSH1 0x0 RETURN INVALID PUSH1 0x80 PUSH1 0x40 MSTORE CALLVALUE DUP1 ISZERO PUSH2 0x10 JUMPI PUSH1 0x0 DUP1 REVERT JUMPDEST POP PUSH1 0x4 CALLDATASIZE LT PUSH2 0x4C JUMPI PUSH1 0x0 CALLDATALOAD PUSH1 0xE0 SHR DUP1 PUSH4 0x17FE2DA2 EQ PUSH2 0x51 JUMPI DUP1 PUSH4 0x892E5D01 EQ PUSH2 0x81 JUMPI DUP1 PUSH4 0xE3AC07F5 EQ PUSH2 0xB1 JUMPI DUP1 PUSH4 0xF482B729 EQ PUSH2 0xE1 JUMPI JUMPDEST PUSH1 0x0 DUP1 REVERT JUMPDEST PUSH2 0x6B PUSH1 0x4 DUP1 CALLDATASIZE SUB DUP2 ADD SWAP1 PUSH2 0x66 SWAP2 SWAP1 PUSH2 0x348 JUMP JUMPDEST PUSH2 0x111 JUMP JUMPDEST PUSH1 0x40 MLOAD PUSH2 0x78 SWAP2 SWAP1 PUSH2 0x487 JUMP JUMPDEST PUSH1 0x40 MLOAD DUP1 SWAP2 SUB SWAP1 RETURN JUMPDEST PUSH2 0x9B PUSH1 0x4 DUP1 CALLDATASIZE SUB DUP2 ADD SWAP1 PUSH2 0x96 SWAP2 SWAP1 PUSH2 0x348 JUMP JUMPDEST PUSH2 0x13D JUMP JUMPDEST PUSH1 0x40 MLOAD PUSH2 0xA8 SWAP2 SWAP1 PUSH2 0x487 JUMP JUMPDEST PUSH1 0x40 MLOAD DUP1 SWAP2 SUB SWAP1 RETURN JUMPDEST PUSH2 0xCB PUSH1 0x4 DUP1 CALLDATASIZE SUB DUP2 ADD SWAP1 PUSH2 0xC6 SWAP2 SWAP1 PUSH2 0x2FF JUMP JUMPDEST PUSH2 0x169 JUMP JUMPDEST PUSH1 0x40 MLOAD PUSH2 0xD8 SWAP2 SWAP1 PUSH2 0x487 JUMP JUMPDEST PUSH1 0x40 MLOAD DUP1 SWAP2 SUB SWAP1 RETURN JUMPDEST PUSH2 0xFB PUSH1 0x4 DUP1 CALLDATASIZE SUB DUP2 ADD SWAP1 PUSH2 0xF6 SWAP2 SWAP1 PUSH2 0x348 JUMP JUMPDEST PUSH2 0x192 JUMP JUMPDEST PUSH1 0x40 MLOAD PUSH2 0x108 SWAP2 SWAP1 PUSH2 0x487 JUMP JUMPDEST PUSH1 0x40 MLOAD DUP1 SWAP2 SUB SWAP1 RETURN JUMPDEST PUSH1 0x60 DUP3 DUP3 PUSH1 0x40 MLOAD PUSH1 0x20 ADD PUSH2 0x126 SWAP3 SWAP2 SWAP1 PUSH2 0x4A9 JUMP JUMPDEST PUSH1 0x40 MLOAD PUSH1 0x20 DUP2 DUP4 SUB SUB DUP2 MSTORE SWAP1 PUSH1 0x40 MSTORE SWAP1 POP SWAP3 SWAP2 POP POP JUMP JUMPDEST PUSH1 0x60 DUP3 DUP3 PUSH1 0x40 MLOAD PUSH1 0x20 ADD PUSH2 0x152 SWAP3 SWAP2 SWAP1 PUSH2 0x463 JUMP JUMPDEST PUSH1 0x40 MLOAD PUSH1 0x20 DUP2 DUP4 SUB SUB DUP2 MSTORE SWAP1 PUSH1 0x40 MSTORE SWAP1 POP SWAP3 SWAP2 POP POP JUMP JUMPDEST PUSH1 0x60 DUP2 PUSH1 0x40 MLOAD PUSH1 0x20 ADD PUSH2 0x17C SWAP2 SWAP1 PUSH2 0x487 JUMP JUMPDEST PUSH1 0x40 MLOAD PUSH1 0x20 DUP2 DUP4 SUB SUB DUP2 MSTORE SWAP1 PUSH1 0x40 MSTORE SWAP1 POP SWAP2 SWAP1 POP JUMP JUMPDEST PUSH1 0x60 PUSH1 0x40 MLOAD PUSH1 0x24 ADD PUSH1 0x40 MLOAD PUSH1 0x20 DUP2 DUP4 SUB SUB DUP2 MSTORE SWAP1 PUSH1 0x40 MSTORE PUSH32 0xC5D2460100000000000000000000000000000000000000000000000000000000 PUSH28 0xFFFFFFFFFFFFFFFFFFFFFFFFFFFFFFFFFFFFFFFFFFFFFFFFFFFFFFFF NOT AND PUSH1 0x20 DUP3 ADD DUP1 MLOAD PUSH28 0xFFFFFFFFFFFFFFFFFFFFFFFFFFFFFFFFFFFFFFFFFFFFFFFFFFFFFFFF DUP4 DUP2 DUP4 AND OR DUP4 MSTORE POP POP POP POP SWAP1 POP SWAP3 SWAP2 POP POP JUMP JUMPDEST PUSH1 0x0 PUSH2 0x232 PUSH2 0x22D DUP5 PUSH2 0x505 JUMP JUMPDEST PUSH2 0x4E0 JUMP JUMPDEST SWAP1 POP DUP3 DUP2 MSTORE PUSH1 0x20 DUP2 ADD DUP5 DUP5 DUP5 ADD GT ISZERO PUSH2 0x24E JUMPI PUSH2 0x24D PUSH2 0x651 JUMP JUMPDEST JUMPDEST PUSH2 0x259 DUP5 DUP3 DUP6 PUSH2 0x5AA JUMP JUMPDEST POP SWAP4 SWAP3 POP POP POP JUMP JUMPDEST PUSH1 0x0 PUSH2 0x274 PUSH2 0x26F DUP5 PUSH2 0x536 JUMP JUMPDEST PUSH2 0x4E0 JUMP JUMPDEST SWAP1 POP DUP3 DUP2 MSTORE PUSH1 0x20 DUP2 ADD DUP5 DUP5 DUP5 ADD GT ISZERO PUSH2 0x290 JUMPI PUSH2 0x28F PUSH2 0x651 JUMP JUMPDEST JUMPDEST PUSH2 0x29B DUP5 DUP3 DUP6 PUSH2 0x5AA JUMP JUMPDEST POP SWAP4 SWAP3 POP POP POP JUMP JUMPDEST PUSH1 0x0 DUP3 PUSH1 0x1F DUP4 ADD SLT PUSH2 0x2B8 JUMPI PUSH2 0x2B7 PUSH2 0x64C JUMP JUMPDEST JUMPDEST DUP2 CALLDATALOAD PUSH2 0x2C8 DUP5 DUP3 PUSH1 0x20 DUP7 ADD PUSH2 0x21F JUMP JUMPDEST SWAP2 POP POP SWAP3 SWAP2 POP POP JUMP JUMPDEST PUSH1 0x0 DUP3 PUSH1 0x1F DUP4 ADD SLT PUSH2 0x2E6 JUMPI PUSH2 0x2E5 PUSH2 0x64C JUMP JUMPDEST JUMPDEST DUP2 CALLDATALOAD PUSH2 0x2F6 DUP5 DUP3 PUSH1 0x20 DUP7 ADD PUSH2 0x261 JUMP JUMPDEST SWAP2 POP POP SWAP3 SWAP2 POP POP JUMP JUMPDEST PUSH1 0x0 PUSH1 0x20 DUP3 DUP5 SUB SLT ISZERO PUSH2 0x315 JUMPI PUSH2 0x314 PUSH2 0x65B JUMP JUMPDEST JUMPDEST PUSH1 0x0 DUP3 ADD CALLDATALOAD PUSH8 0xFFFFFFFFFFFFFFFF DUP2 GT ISZERO PUSH2 0x333 JUMPI PUSH2 0x332 PUSH2 0x656 JUMP JUMPDEST JUMPDEST PUSH2 0x33F DUP5 DUP3 DUP6 ADD PUSH2 0x2A3 JUMP JUMPDEST SWAP2 POP POP SWAP3 SWAP2 POP POP JUMP JUMPDEST PUSH1 0x0 DUP1 PUSH1 0x40 DUP4 DUP6 SUB SLT ISZERO PUSH2 0x35F JUMPI PUSH2 0x35E PUSH2 0x65B JUMP JUMPDEST JUMPDEST PUSH1 0x0 DUP4 ADD CALLDATALOAD PUSH8 0xFFFFFFFFFFFFFFFF DUP2 GT ISZERO PUSH2 0x37D JUMPI PUSH2 0x37C PUSH2 0x656 JUMP JUMPDEST JUMPDEST PUSH2 0x389 DUP6 DUP3 DUP7 ADD PUSH2 0x2D1 JUMP JUMPDEST SWAP3 POP POP PUSH1 0x20 DUP4 ADD CALLDATALOAD PUSH8 0xFFFFFFFFFFFFFFFF DUP2 GT ISZERO PUSH2 0x3AA JUMPI PUSH2 0x3A9 PUSH2 0x656 JUMP JUMPDEST JUMPDEST PUSH2 0x3B6 DUP6 DUP3 DUP7 ADD PUSH2 0x2D1 JUMP JUMPDEST SWAP2 POP POP SWAP3 POP SWAP3 SWAP1 POP JUMP JUMPDEST PUSH1 0x0 PUSH2 0x3CB DUP3 PUSH2 0x567 JUMP JUMPDEST PUSH2 0x3D5 DUP2 DUP6 PUSH2 0x57D JUMP JUMPDEST SWAP4 POP PUSH2 0x3E5 DUP2 DUP6 PUSH1 0x20 DUP7 ADD PUSH2 0x5B9 JUMP JUMPDEST PUSH2 0x3EE DUP2 PUSH2 0x660 JUMP JUMPDEST DUP5 ADD SWAP2 POP POP SWAP3 SWAP2 POP POP JUMP JUMPDEST PUSH1 0x0 PUSH2 0x404 DUP3 PUSH2 0x572 JUMP JUMPDEST PUSH2 0x40E DUP2 DUP6 PUSH2 0x58E JUMP JUMPDEST SWAP4 POP PUSH2 0x41E DUP2 DUP6 PUSH1 0x20 DUP7 ADD PUSH2 0x5B9 JUMP JUMPDEST PUSH2 0x427 DUP2 PUSH2 0x660 JUMP JUMPDEST DUP5 ADD SWAP2 POP POP SWAP3 SWAP2 POP POP JUMP JUMPDEST PUSH1 0x0 PUSH2 0x43D DUP3 PUSH2 0x572 JUMP JUMPDEST PUSH2 0x447 DUP2 DUP6 PUSH2 0x59F JUMP JUMPDEST SWAP4 POP PUSH2 0x457 DUP2 DUP6 PUSH1 0x20 DUP7 ADD PUSH2 0x5B9 JUMP JUMPDEST DUP1 DUP5 ADD SWAP2 POP POP SWAP3 SWAP2 POP POP JUMP JUMPDEST PUSH1 0x0 PUSH2 0x46F DUP3 DUP6 PUSH2 0x432 JUMP JUMPDEST SWAP2 POP PUSH2 0x47B DUP3 DUP5 PUSH2 0x432 JUMP JUMPDEST SWAP2 POP DUP2 SWAP1 POP SWAP4 SWAP3 POP POP POP JUMP JUMPDEST PUSH1 0x0 PUSH1 0x20 DUP3 ADD SWAP1 POP DUP2 DUP2 SUB PUSH1 0x0 DUP4 ADD MSTORE PUSH2 0x4A1 DUP2 DUP5 PUSH2 0x3C0 JUMP JUMPDEST SWAP1 POP SWAP3 SWAP2 POP POP JUMP JUMPDEST PUSH1 0x0 PUSH1 0x40 DUP3 ADD SWAP1 POP DUP2 DUP2 SUB PUSH1 0x0 DUP4 ADD MSTORE PUSH2 0x4C3 DUP2 DUP6 PUSH2 0x3F9 JUMP JUMPDEST SWAP1 POP DUP2 DUP2 SUB PUSH1 0x20 DUP4 ADD MSTORE PUSH2 0x4D7 DUP2 DUP5 PUSH2 0x3F9 JUMP JUMPDEST SWAP1 POP SWAP4 SWAP3 POP POP POP JUMP JUMPDEST PUSH1 0x0 PUSH2 0x4EA PUSH2 0x4FB JUMP JUMPDEST SWAP1 POP PUSH2 0x4F6 DUP3 DUP3 PUSH2 0x5EC JUMP JUMPDEST SWAP2 SWAP1 POP JUMP JUMPDEST PUSH1 0x0 PUSH1 0x40 MLOAD SWAP1 POP SWAP1 JUMP JUMPDEST PUSH1 0x0 PUSH8 0xFFFFFFFFFFFFFFFF DUP3 GT ISZERO PUSH2 0x520 JUMPI PUSH2 0x51F PUSH2 0x61D JUMP JUMPDEST JUMPDEST PUSH2 0x529 DUP3 PUSH2 0x660 JUMP JUMPDEST SWAP1 POP PUSH1 0x20 DUP2 ADD SWAP1 POP SWAP2 SWAP1 POP JUMP JUMPDEST PUSH1 0x0 PUSH8 0xFFFFFFFFFFFFFFFF DUP3 GT ISZERO PUSH2 0x551 JUMPI PUSH2 0x550 PUSH2 0x61D JUMP JUMPDEST JUMPDEST PUSH2 0x55A DUP3 PUSH2 0x660 JUMP JUMPDEST SWAP1 POP PUSH1 0x20 DUP2 ADD SWAP1 POP SWAP2 SWAP1 POP JUMP JUMPDEST PUSH1 0x0 DUP2 MLOAD SWAP1 POP SWAP2 SWAP1 POP JUMP JUMPDEST PUSH1 0x0 DUP2 MLOAD SWAP1 POP SWAP2 SWAP1 POP JUMP JUMPDEST PUSH1 0x0 DUP3 DUP3 MSTORE PUSH1 0x20 DUP3 ADD SWAP1 POP SWAP3 SWAP2 POP POP JUMP JUMPDEST PUSH1 0x0 DUP3 DUP3 MSTORE PUSH1 0x20 DUP3 ADD SWAP1 POP SWAP3 SWAP2 POP POP JUMP JUMPDEST PUSH1 0x0 DUP2 SWAP1 POP SWAP3 SWAP2 POP POP JUMP JUMPDEST DUP3 DUP2 DUP4 CALLDATACOPY PUSH1 0x0 DUP4 DUP4 ADD MSTORE POP POP POP JUMP JUMPDEST PUSH1 0x0 JUMPDEST DUP4 DUP2 LT ISZERO PUSH2 0x5D7 JUMPI DUP1 DUP3 ADD MLOAD DUP2 DUP5 ADD MSTORE PUSH1 0x20 DUP2 ADD SWAP1 POP PUSH2 0x5BC JUMP JUMPDEST DUP4 DUP2 GT ISZERO PUSH2 0x5E6 JUMPI PUSH1 0x0 DUP5 DUP5 ADD MSTORE JUMPDEST POP POP POP POP JUMP JUMPDEST PUSH2 0x5F5 DUP3 PUSH2 0x660 JUMP JUMPDEST DUP2 ADD DUP2 DUP2 LT PUSH8 0xFFFFFFFFFFFFFFFF DUP3 GT OR ISZERO PUSH2 0x614 JUMPI PUSH2 0x613 PUSH2 0x61D JUMP JUMPDEST JUMPDEST DUP1 PUSH1 0x40 MSTORE POP POP POP JUMP JUMPDEST PUSH32 0x4E487B7100000000000000000000000000000000000000000000000000000000 PUSH1 0x0 MSTORE PUSH1 0x41 PUSH1 0x4 MSTORE PUSH1 0x24 PUSH1 0x0 REVERT JUMPDEST PUSH1 0x0 DUP1 REVERT JUMPDEST PUSH1 0x0 DUP1 REVERT JUMPDEST PUSH1 0x0 DUP1 REVERT JUMPDEST PUSH1 0x0 DUP1 REVERT JUMPDEST PUSH1 0x0 PUSH1 0x1F NOT PUSH1 0x1F DUP4 ADD AND SWAP1 POP SWAP2 SWAP1 POP JUMP INVALID LOG2 PUSH5 0x6970667358 0x22 SLT KECCAK256 EXTCODECOPY BASEFEE BYTE PUSH11 0x97850585D5AF80055F5EFF 0xD4 CHAINID KECCAK256 0xD7 0xC4 ISZERO 0xEF EXTCODECOPY SWAP6 0xAA PUSH32 0x1B0B99CFBD6964736F6C63430008070033000000000000000000000000000000 "
				},
				"gasEstimates": {
					"creation": {
						"codeDepositCost": "340600",
						"executionCost": "380",
						"totalCost": "340980"
					},
					"external": {
						"encode(string,string)": "infinite",
						"encodeBytes(bytes)": "infinite",
						"encodePacked(string,string)": "infinite",
						"encodeWith(string,string)": "infinite"
					}
				},
				"methodIdentifiers": {
					"encode(string,string)": "17fe2da2",
					"encodeBytes(bytes)": "e3ac07f5",
					"encodePacked(string,string)": "892e5d01",
					"encodeWith(string,string)": "f482b729"
				}
			},
			"storageLayout": {
				"storage": [],
				"types": null
			},
			"userdoc": {
				"kind": "user",
				"methods": {},
				"version": 1
			}
		}
	}
}