{
	"Week5/TodoList.sol": {
		"TodoList": {
			"abi": [
				{
					"inputs": [
						{
							"internalType": "string",
							"name": "text",
							"type": "string"
						}
					],
					"name": "createTodo",
					"outputs": [],
					"stateMutability": "nonpayable",
					"type": "function"
				}
			],
			"devdoc": {
				"kind": "dev",
				"methods": {},
				"version": 1
			},
			"evm": {
				"assembly": "    /* \"Week5/TodoList.sol\":70:285  contract TodoList {... */\n  mstore(0x40, 0x80)\n  callvalue\n  dup1\n  iszero\n  tag_1\n  jumpi\n  0x00\n  dup1\n  revert\ntag_1:\n  pop\n  dataSize(sub_0)\n  dup1\n  dataOffset(sub_0)\n  0x00\n  codecopy\n  0x00\n  return\nstop\n\nsub_0: assembly {\n        /* \"Week5/TodoList.sol\":70:285  contract TodoList {... */\n      mstore(0x40, 0x80)\n      callvalue\n      dup1\n      iszero\n      tag_1\n      jumpi\n      0x00\n      dup1\n      revert\n    tag_1:\n      pop\n      jumpi(tag_2, lt(calldatasize, 0x04))\n      shr(0xe0, calldataload(0x00))\n      dup1\n      0xe34f1221\n      eq\n      tag_3\n      jumpi\n    tag_2:\n      0x00\n      dup1\n      revert\n        /* \"Week5/TodoList.sol\":183:283  function createTodo(string calldata text) external {... */\n    tag_3:\n      tag_4\n      tag_5\n      calldatasize\n      0x04\n      tag_6\n      jump\t// in\n    tag_5:\n      tag_7\n      jump\t// in\n    tag_4:\n      stop\n    tag_7:\n        /* \"Week5/TodoList.sol\":258:275  Todo(text, false) */\n      0x40\n      dup1\n      mload\n      0x60\n      0x20\n      0x1f\n      dup6\n      add\n      dup2\n      swap1\n      div\n      mul\n      dup3\n      add\n      dup2\n      add\n      dup4\n      mstore\n      swap2\n      dup2\n      add\n      dup4\n      dup2\n      mstore\n        /* \"Week5/TodoList.sol\":244:252  todoList */\n      0x00\n      swap3\n        /* \"Week5/TodoList.sol\":258:275  Todo(text, false) */\n      dup3\n      swap2\n      swap1\n        /* \"Week5/TodoList.sol\":263:267  text */\n      dup7\n      swap1\n      dup7\n      swap1\n      dup2\n      swap1\n        /* \"Week5/TodoList.sol\":258:275  Todo(text, false) */\n      dup6\n      add\n        /* \"Week5/TodoList.sol\":263:267  text */\n      dup4\n      dup3\n      dup1\n      dup3\n        /* \"Week5/TodoList.sol\":258:275  Todo(text, false) */\n      dup5\n      calldatacopy\n      0x00\n      swap3\n      add\n      dup3\n      swap1\n      mstore\n      pop\n      swap4\n      dup6\n      mstore\n      pop\n      pop\n      pop\n      0x20\n      swap2\n      dup3\n      add\n      dup2\n      swap1\n      mstore\n        /* \"Week5/TodoList.sol\":244:276  todoList.push(Todo(text, false)) */\n      dup4\n      sload\n        /* \"Week5/TodoList.sol\":258:275  Todo(text, false) */\n      0x01\n        /* \"Week5/TodoList.sol\":244:276  todoList.push(Todo(text, false)) */\n      dup2\n      add\n      dup6\n      sstore\n      swap4\n      dup2\n      mstore\n      keccak256\n      dup2\n      mload\n      swap2\n      swap3\n      0x02\n      mul\n      add\n      swap1\n      dup2\n      swap1\n      tag_10\n      swap1\n      dup3\n      tag_11\n      jump\t// in\n    tag_10:\n      pop\n      0x20\n      swap2\n      swap1\n      swap2\n      add\n      mload\n      0x01\n      swap1\n      swap2\n      add\n      dup1\n      sload\n      not(0xff)\n      and\n      swap2\n      iszero\n      iszero\n      swap2\n      swap1\n      swap2\n      or\n      swap1\n      sstore\n      pop\n      pop\n        /* \"Week5/TodoList.sol\":183:283  function createTodo(string calldata text) external {... */\n      jump\t// out\n        /* \"#utility.yul\":14:606   */\n    tag_6:\n        /* \"#utility.yul\":85:91   */\n      0x00\n        /* \"#utility.yul\":93:99   */\n      dup1\n        /* \"#utility.yul\":146:148   */\n      0x20\n        /* \"#utility.yul\":134:143   */\n      dup4\n        /* \"#utility.yul\":125:132   */\n      dup6\n        /* \"#utility.yul\":121:144   */\n      sub\n        /* \"#utility.yul\":117:149   */\n      slt\n        /* \"#utility.yul\":114:166   */\n      iszero\n      tag_19\n      jumpi\n        /* \"#utility.yul\":162:163   */\n      0x00\n        /* \"#utility.yul\":159:160   */\n      dup1\n        /* \"#utility.yul\":152:164   */\n      revert\n        /* \"#utility.yul\":114:166   */\n    tag_19:\n        /* \"#utility.yul\":202:211   */\n      dup3\n        /* \"#utility.yul\":189:212   */\n      calldataload\n        /* \"#utility.yul\":231:249   */\n      0xffffffffffffffff\n        /* \"#utility.yul\":272:274   */\n      dup1\n        /* \"#utility.yul\":264:270   */\n      dup3\n        /* \"#utility.yul\":261:275   */\n      gt\n        /* \"#utility.yul\":258:292   */\n      iszero\n      tag_20\n      jumpi\n        /* \"#utility.yul\":288:289   */\n      0x00\n        /* \"#utility.yul\":285:286   */\n      dup1\n        /* \"#utility.yul\":278:290   */\n      revert\n        /* \"#utility.yul\":258:292   */\n    tag_20:\n        /* \"#utility.yul\":326:332   */\n      dup2\n        /* \"#utility.yul\":315:324   */\n      dup6\n        /* \"#utility.yul\":311:333   */\n      add\n        /* \"#utility.yul\":301:333   */\n      swap2\n      pop\n        /* \"#utility.yul\":371:378   */\n      dup6\n        /* \"#utility.yul\":364:368   */\n      0x1f\n        /* \"#utility.yul\":360:362   */\n      dup4\n        /* \"#utility.yul\":356:369   */\n      add\n        /* \"#utility.yul\":352:379   */\n      slt\n        /* \"#utility.yul\":342:397   */\n      tag_21\n      jumpi\n        /* \"#utility.yul\":393:394   */\n      0x00\n        /* \"#utility.yul\":390:391   */\n      dup1\n        /* \"#utility.yul\":383:395   */\n      revert\n        /* \"#utility.yul\":342:397   */\n    tag_21:\n        /* \"#utility.yul\":433:435   */\n      dup2\n        /* \"#utility.yul\":420:436   */\n      calldataload\n        /* \"#utility.yul\":459:461   */\n      dup2\n        /* \"#utility.yul\":451:457   */\n      dup2\n        /* \"#utility.yul\":448:462   */\n      gt\n        /* \"#utility.yul\":445:479   */\n      iszero\n      tag_22\n      jumpi\n        /* \"#utility.yul\":475:476   */\n      0x00\n        /* \"#utility.yul\":472:473   */\n      dup1\n        /* \"#utility.yul\":465:477   */\n      revert\n        /* \"#utility.yul\":445:479   */\n    tag_22:\n        /* \"#utility.yul\":520:527   */\n      dup7\n        /* \"#utility.yul\":515:517   */\n      0x20\n        /* \"#utility.yul\":506:512   */\n      dup3\n        /* \"#utility.yul\":502:504   */\n      dup6\n        /* \"#utility.yul\":498:513   */\n      add\n        /* \"#utility.yul\":494:518   */\n      add\n        /* \"#utility.yul\":491:528   */\n      gt\n        /* \"#utility.yul\":488:545   */\n      iszero\n      tag_23\n      jumpi\n        /* \"#utility.yul\":541:542   */\n      0x00\n        /* \"#utility.yul\":538:539   */\n      dup1\n        /* \"#utility.yul\":531:543   */\n      revert\n        /* \"#utility.yul\":488:545   */\n    tag_23:\n        /* \"#utility.yul\":572:574   */\n      0x20\n        /* \"#utility.yul\":564:575   */\n      swap3\n      swap1\n      swap3\n      add\n      swap7\n        /* \"#utility.yul\":594:600   */\n      swap2\n      swap6\n      pop\n        /* \"#utility.yul\":14:606   */\n      swap1\n      swap4\n      pop\n      pop\n      pop\n      pop\n      jump\t// out\n        /* \"#utility.yul\":611:738   */\n    tag_12:\n        /* \"#utility.yul\":672:682   */\n      0x4e487b71\n        /* \"#utility.yul\":667:670   */\n      0xe0\n        /* \"#utility.yul\":663:683   */\n      shl\n        /* \"#utility.yul\":660:661   */\n      0x00\n        /* \"#utility.yul\":653:684   */\n      mstore\n        /* \"#utility.yul\":703:707   */\n      0x41\n        /* \"#utility.yul\":700:701   */\n      0x04\n        /* \"#utility.yul\":693:708   */\n      mstore\n        /* \"#utility.yul\":727:731   */\n      0x24\n        /* \"#utility.yul\":724:725   */\n      0x00\n        /* \"#utility.yul\":717:732   */\n      revert\n        /* \"#utility.yul\":743:1123   */\n    tag_13:\n        /* \"#utility.yul\":822:823   */\n      0x01\n        /* \"#utility.yul\":818:830   */\n      dup2\n      dup2\n      shr\n      swap1\n        /* \"#utility.yul\":865:877   */\n      dup3\n      and\n      dup1\n        /* \"#utility.yul\":886:947   */\n      tag_26\n      jumpi\n        /* \"#utility.yul\":940:944   */\n      0x7f\n        /* \"#utility.yul\":932:938   */\n      dup3\n        /* \"#utility.yul\":928:945   */\n      and\n        /* \"#utility.yul\":918:945   */\n      swap2\n      pop\n        /* \"#utility.yul\":886:947   */\n    tag_26:\n        /* \"#utility.yul\":993:995   */\n      0x20\n        /* \"#utility.yul\":985:991   */\n      dup3\n        /* \"#utility.yul\":982:996   */\n      lt\n        /* \"#utility.yul\":962:980   */\n      dup2\n        /* \"#utility.yul\":959:997   */\n      sub\n        /* \"#utility.yul\":956:1117   */\n      tag_27\n      jumpi\n        /* \"#utility.yul\":1039:1049   */\n      0x4e487b71\n        /* \"#utility.yul\":1034:1037   */\n      0xe0\n        /* \"#utility.yul\":1030:1050   */\n      shl\n        /* \"#utility.yul\":1027:1028   */\n      0x00\n        /* \"#utility.yul\":1020:1051   */\n      mstore\n        /* \"#utility.yul\":1074:1078   */\n      0x22\n        /* \"#utility.yul\":1071:1072   */\n      0x04\n        /* \"#utility.yul\":1064:1079   */\n      mstore\n        /* \"#utility.yul\":1102:1106   */\n      0x24\n        /* \"#utility.yul\":1099:1100   */\n      0x00\n        /* \"#utility.yul\":1092:1107   */\n      revert\n        /* \"#utility.yul\":956:1117   */\n    tag_27:\n      pop\n        /* \"#utility.yul\":743:1123   */\n      swap2\n      swap1\n      pop\n      jump\t// out\n        /* \"#utility.yul\":1254:1799   */\n    tag_15:\n        /* \"#utility.yul\":1356:1358   */\n      0x1f\n        /* \"#utility.yul\":1351:1354   */\n      dup3\n        /* \"#utility.yul\":1348:1359   */\n      gt\n        /* \"#utility.yul\":1345:1793   */\n      iszero\n      tag_30\n      jumpi\n        /* \"#utility.yul\":1392:1393   */\n      0x00\n        /* \"#utility.yul\":1417:1422   */\n      dup2\n        /* \"#utility.yul\":1413:1415   */\n      dup2\n        /* \"#utility.yul\":1406:1423   */\n      mstore\n        /* \"#utility.yul\":1462:1466   */\n      0x20\n        /* \"#utility.yul\":1458:1460   */\n      dup2\n        /* \"#utility.yul\":1448:1467   */\n      keccak256\n        /* \"#utility.yul\":1532:1534   */\n      0x1f\n        /* \"#utility.yul\":1520:1530   */\n      dup6\n        /* \"#utility.yul\":1516:1535   */\n      add\n        /* \"#utility.yul\":1513:1514   */\n      0x05\n        /* \"#utility.yul\":1509:1536   */\n      shr\n        /* \"#utility.yul\":1503:1507   */\n      dup2\n        /* \"#utility.yul\":1499:1537   */\n      add\n        /* \"#utility.yul\":1568:1572   */\n      0x20\n        /* \"#utility.yul\":1556:1566   */\n      dup7\n        /* \"#utility.yul\":1553:1573   */\n      lt\n        /* \"#utility.yul\":1550:1597   */\n      iszero\n      tag_31\n      jumpi\n      pop\n        /* \"#utility.yul\":1591:1595   */\n      dup1\n        /* \"#utility.yul\":1550:1597   */\n    tag_31:\n        /* \"#utility.yul\":1646:1648   */\n      0x1f\n        /* \"#utility.yul\":1641:1644   */\n      dup6\n        /* \"#utility.yul\":1637:1649   */\n      add\n        /* \"#utility.yul\":1634:1635   */\n      0x05\n        /* \"#utility.yul\":1630:1650   */\n      shr\n        /* \"#utility.yul\":1624:1628   */\n      dup3\n        /* \"#utility.yul\":1620:1651   */\n      add\n        /* \"#utility.yul\":1610:1651   */\n      swap2\n      pop\n        /* \"#utility.yul\":1701:1783   */\n    tag_32:\n        /* \"#utility.yul\":1719:1721   */\n      dup2\n        /* \"#utility.yul\":1712:1717   */\n      dup2\n        /* \"#utility.yul\":1709:1722   */\n      lt\n        /* \"#utility.yul\":1701:1783   */\n      iszero\n      tag_34\n      jumpi\n        /* \"#utility.yul\":1764:1781   */\n      dup3\n      dup2\n      sstore\n        /* \"#utility.yul\":1745:1746   */\n      0x01\n        /* \"#utility.yul\":1734:1747   */\n      add\n        /* \"#utility.yul\":1701:1783   */\n      jump(tag_32)\n    tag_34:\n        /* \"#utility.yul\":1705:1708   */\n      pop\n      pop\n      pop\n        /* \"#utility.yul\":1345:1793   */\n    tag_30:\n        /* \"#utility.yul\":1254:1799   */\n      pop\n      pop\n      pop\n      jump\t// out\n        /* \"#utility.yul\":1975:3327   */\n    tag_11:\n        /* \"#utility.yul\":2101:2104   */\n      dup2\n        /* \"#utility.yul\":2095:2105   */\n      mload\n        /* \"#utility.yul\":2128:2146   */\n      0xffffffffffffffff\n        /* \"#utility.yul\":2120:2126   */\n      dup2\n        /* \"#utility.yul\":2117:2147   */\n      gt\n        /* \"#utility.yul\":2114:2170   */\n      iszero\n      tag_38\n      jumpi\n        /* \"#utility.yul\":2150:2168   */\n      tag_38\n      tag_12\n      jump\t// in\n    tag_38:\n        /* \"#utility.yul\":2179:2276   */\n      tag_39\n        /* \"#utility.yul\":2269:2275   */\n      dup2\n        /* \"#utility.yul\":2229:2267   */\n      tag_40\n        /* \"#utility.yul\":2261:2265   */\n      dup5\n        /* \"#utility.yul\":2255:2266   */\n      sload\n        /* \"#utility.yul\":2229:2267   */\n      tag_13\n      jump\t// in\n    tag_40:\n        /* \"#utility.yul\":2223:2227   */\n      dup5\n        /* \"#utility.yul\":2179:2276   */\n      tag_15\n      jump\t// in\n    tag_39:\n        /* \"#utility.yul\":2331:2335   */\n      0x20\n      dup1\n        /* \"#utility.yul\":2395:2397   */\n      0x1f\n        /* \"#utility.yul\":2384:2398   */\n      dup4\n      gt\n        /* \"#utility.yul\":2412:2413   */\n      0x01\n        /* \"#utility.yul\":2407:3070   */\n      dup2\n      eq\n      tag_42\n      jumpi\n        /* \"#utility.yul\":3114:3115   */\n      0x00\n        /* \"#utility.yul\":3131:3137   */\n      dup5\n        /* \"#utility.yul\":3128:3217   */\n      iszero\n      tag_43\n      jumpi\n      pop\n        /* \"#utility.yul\":3183:3202   */\n      dup6\n      dup4\n      add\n        /* \"#utility.yul\":3177:3203   */\n      mload\n        /* \"#utility.yul\":3128:3217   */\n    tag_43:\n      not(0x00)\n        /* \"#utility.yul\":1932:1933   */\n      0x03\n        /* \"#utility.yul\":1928:1939   */\n      dup7\n      swap1\n      shl\n        /* \"#utility.yul\":1924:1948   */\n      shr\n        /* \"#utility.yul\":1920:1949   */\n      not\n        /* \"#utility.yul\":1910:1950   */\n      and\n        /* \"#utility.yul\":1956:1957   */\n      0x01\n        /* \"#utility.yul\":1952:1963   */\n      dup6\n      swap1\n      shl\n        /* \"#utility.yul\":1907:1964   */\n      or\n        /* \"#utility.yul\":3230:3311   */\n      dup6\n      sstore\n        /* \"#utility.yul\":2377:3321   */\n      jump(tag_34)\n        /* \"#utility.yul\":2407:3070   */\n    tag_42:\n        /* \"#utility.yul\":1201:1202   */\n      0x00\n        /* \"#utility.yul\":1194:1208   */\n      dup6\n      dup2\n      mstore\n        /* \"#utility.yul\":1238:1242   */\n      0x20\n        /* \"#utility.yul\":1225:1243   */\n      dup2\n      keccak256\n      not(0x1f)\n        /* \"#utility.yul\":2443:2463   */\n      dup7\n      and\n      swap2\n        /* \"#utility.yul\":2561:2797   */\n    tag_46:\n        /* \"#utility.yul\":2575:2582   */\n      dup3\n        /* \"#utility.yul\":2572:2573   */\n      dup2\n        /* \"#utility.yul\":2569:2583   */\n      lt\n        /* \"#utility.yul\":2561:2797   */\n      iszero\n      tag_48\n      jumpi\n        /* \"#utility.yul\":2664:2683   */\n      dup9\n      dup7\n      add\n        /* \"#utility.yul\":2658:2684   */\n      mload\n        /* \"#utility.yul\":2643:2685   */\n      dup3\n      sstore\n        /* \"#utility.yul\":2756:2783   */\n      swap5\n      dup5\n      add\n      swap5\n        /* \"#utility.yul\":2724:2725   */\n      0x01\n        /* \"#utility.yul\":2712:2726   */\n      swap1\n      swap2\n      add\n      swap1\n        /* \"#utility.yul\":2591:2610   */\n      dup5\n      add\n        /* \"#utility.yul\":2561:2797   */\n      jump(tag_46)\n    tag_48:\n        /* \"#utility.yul\":2565:2568   */\n      pop\n        /* \"#utility.yul\":2825:2831   */\n      dup6\n        /* \"#utility.yul\":2816:2823   */\n      dup3\n        /* \"#utility.yul\":2813:2832   */\n      lt\n        /* \"#utility.yul\":2810:3011   */\n      iszero\n      tag_49\n      jumpi\n        /* \"#utility.yul\":2886:2905   */\n      dup8\n      dup6\n      add\n        /* \"#utility.yul\":2880:2906   */\n      mload\n      not(0x00)\n        /* \"#utility.yul\":2969:2970   */\n      0x03\n        /* \"#utility.yul\":2965:2979   */\n      dup9\n      swap1\n      shl\n        /* \"#utility.yul\":2981:2984   */\n      0xf8\n        /* \"#utility.yul\":2961:2985   */\n      and\n        /* \"#utility.yul\":2957:2994   */\n      shr\n        /* \"#utility.yul\":2953:2995   */\n      not\n        /* \"#utility.yul\":2938:2996   */\n      and\n        /* \"#utility.yul\":2923:2997   */\n      dup2\n      sstore\n        /* \"#utility.yul\":2810:3011   */\n    tag_49:\n      pop\n      pop\n      pop\n      pop\n      pop\n        /* \"#utility.yul\":3057:3058   */\n      0x01\n        /* \"#utility.yul\":3041:3055   */\n      swap1\n      dup2\n      shl\n        /* \"#utility.yul\":3037:3059   */\n      add\n        /* \"#utility.yul\":3024:3060   */\n      swap1\n      sstore\n      pop\n        /* \"#utility.yul\":1975:3327   */\n      jump\t// out\n\n    auxdata: 0xa264697066735822122033b6dbc5f146d464ab06e605822b968c0023abc53df29e27e7df4480187c45b864736f6c63430008100033\n}\n",
				"bytecode": {
					"linkReferences": {},
					"object": "608060405234801561001057600080fd5b506102d3806100206000396000f3fe608060405234801561001057600080fd5b506004361061002b5760003560e01c8063e34f122114610030575b600080fd5b61004361003e3660046100cc565b610045565b005b6040805160606020601f85018190040282018101835291810183815260009282919086908690819085018382808284376000920182905250938552505050602091820181905283546001810185559381522081519192600202019081906100ac90826101dd565b50602091909101516001909101805460ff19169115159190911790555050565b600080602083850312156100df57600080fd5b823567ffffffffffffffff808211156100f757600080fd5b818501915085601f83011261010b57600080fd5b81358181111561011a57600080fd5b86602082850101111561012c57600080fd5b60209290920196919550909350505050565b634e487b7160e01b600052604160045260246000fd5b600181811c9082168061016857607f821691505b60208210810361018857634e487b7160e01b600052602260045260246000fd5b50919050565b601f8211156101d857600081815260208120601f850160051c810160208610156101b55750805b601f850160051c820191505b818110156101d4578281556001016101c1565b5050505b505050565b815167ffffffffffffffff8111156101f7576101f761013e565b61020b816102058454610154565b8461018e565b602080601f83116001811461024057600084156102285750858301515b600019600386901b1c1916600185901b1785556101d4565b600085815260208120601f198616915b8281101561026f57888601518255948401946001909101908401610250565b508582101561028d5787850151600019600388901b60f8161c191681555b5050505050600190811b0190555056fea264697066735822122033b6dbc5f146d464ab06e605822b968c0023abc53df29e27e7df4480187c45b864736f6c63430008100033",
					"opcodes": "PUSH1 0x80 PUSH1 0x40 MSTORE CALLVALUE DUP1 ISZERO PUSH2 0x10 JUMPI PUSH1 0x0 DUP1 REVERT JUMPDEST POP PUSH2 0x2D3 DUP1 PUSH2 0x20 PUSH1 0x0 CODECOPY PUSH1 0x0 RETURN INVALID PUSH1 0x80 PUSH1 0x40 MSTORE CALLVALUE DUP1 ISZERO PUSH2 0x10 JUMPI PUSH1 0x0 DUP1 REVERT JUMPDEST POP PUSH1 0x4 CALLDATASIZE LT PUSH2 0x2B JUMPI PUSH1 0x0 CALLDATALOAD PUSH1 0xE0 SHR DUP1 PUSH4 0xE34F1221 EQ PUSH2 0x30 JUMPI JUMPDEST PUSH1 0x0 DUP1 REVERT JUMPDEST PUSH2 0x43 PUSH2 0x3E CALLDATASIZE PUSH1 0x4 PUSH2 0xCC JUMP JUMPDEST PUSH2 0x45 JUMP JUMPDEST STOP JUMPDEST PUSH1 0x40 DUP1 MLOAD PUSH1 0x60 PUSH1 0x20 PUSH1 0x1F DUP6 ADD DUP2 SWAP1 DIV MUL DUP3 ADD DUP2 ADD DUP4 MSTORE SWAP2 DUP2 ADD DUP4 DUP2 MSTORE PUSH1 0x0 SWAP3 DUP3 SWAP2 SWAP1 DUP7 SWAP1 DUP7 SWAP1 DUP2 SWAP1 DUP6 ADD DUP4 DUP3 DUP1 DUP3 DUP5 CALLDATACOPY PUSH1 0x0 SWAP3 ADD DUP3 SWAP1 MSTORE POP SWAP4 DUP6 MSTORE POP POP POP PUSH1 0x20 SWAP2 DUP3 ADD DUP2 SWAP1 MSTORE DUP4 SLOAD PUSH1 0x1 DUP2 ADD DUP6 SSTORE SWAP4 DUP2 MSTORE KECCAK256 DUP2 MLOAD SWAP2 SWAP3 PUSH1 0x2 MUL ADD SWAP1 DUP2 SWAP1 PUSH2 0xAC SWAP1 DUP3 PUSH2 0x1DD JUMP JUMPDEST POP PUSH1 0x20 SWAP2 SWAP1 SWAP2 ADD MLOAD PUSH1 0x1 SWAP1 SWAP2 ADD DUP1 SLOAD PUSH1 0xFF NOT AND SWAP2 ISZERO ISZERO SWAP2 SWAP1 SWAP2 OR SWAP1 SSTORE POP POP JUMP JUMPDEST PUSH1 0x0 DUP1 PUSH1 0x20 DUP4 DUP6 SUB SLT ISZERO PUSH2 0xDF JUMPI PUSH1 0x0 DUP1 REVERT JUMPDEST DUP3 CALLDATALOAD PUSH8 0xFFFFFFFFFFFFFFFF DUP1 DUP3 GT ISZERO PUSH2 0xF7 JUMPI PUSH1 0x0 DUP1 REVERT JUMPDEST DUP2 DUP6 ADD SWAP2 POP DUP6 PUSH1 0x1F DUP4 ADD SLT PUSH2 0x10B JUMPI PUSH1 0x0 DUP1 REVERT JUMPDEST DUP2 CALLDATALOAD DUP2 DUP2 GT ISZERO PUSH2 0x11A JUMPI PUSH1 0x0 DUP1 REVERT JUMPDEST DUP7 PUSH1 0x20 DUP3 DUP6 ADD ADD GT ISZERO PUSH2 0x12C JUMPI PUSH1 0x0 DUP1 REVERT JUMPDEST PUSH1 0x20 SWAP3 SWAP1 SWAP3 ADD SWAP7 SWAP2 SWAP6 POP SWAP1 SWAP4 POP POP POP POP JUMP JUMPDEST PUSH4 0x4E487B71 PUSH1 0xE0 SHL PUSH1 0x0 MSTORE PUSH1 0x41 PUSH1 0x4 MSTORE PUSH1 0x24 PUSH1 0x0 REVERT JUMPDEST PUSH1 0x1 DUP2 DUP2 SHR SWAP1 DUP3 AND DUP1 PUSH2 0x168 JUMPI PUSH1 0x7F DUP3 AND SWAP2 POP JUMPDEST PUSH1 0x20 DUP3 LT DUP2 SUB PUSH2 0x188 JUMPI PUSH4 0x4E487B71 PUSH1 0xE0 SHL PUSH1 0x0 MSTORE PUSH1 0x22 PUSH1 0x4 MSTORE PUSH1 0x24 PUSH1 0x0 REVERT JUMPDEST POP SWAP2 SWAP1 POP JUMP JUMPDEST PUSH1 0x1F DUP3 GT ISZERO PUSH2 0x1D8 JUMPI PUSH1 0x0 DUP2 DUP2 MSTORE PUSH1 0x20 DUP2 KECCAK256 PUSH1 0x1F DUP6 ADD PUSH1 0x5 SHR DUP2 ADD PUSH1 0x20 DUP7 LT ISZERO PUSH2 0x1B5 JUMPI POP DUP1 JUMPDEST PUSH1 0x1F DUP6 ADD PUSH1 0x5 SHR DUP3 ADD SWAP2 POP JUMPDEST DUP2 DUP2 LT ISZERO PUSH2 0x1D4 JUMPI DUP3 DUP2 SSTORE PUSH1 0x1 ADD PUSH2 0x1C1 JUMP JUMPDEST POP POP POP JUMPDEST POP POP POP JUMP JUMPDEST DUP2 MLOAD PUSH8 0xFFFFFFFFFFFFFFFF DUP2 GT ISZERO PUSH2 0x1F7 JUMPI PUSH2 0x1F7 PUSH2 0x13E JUMP JUMPDEST PUSH2 0x20B DUP2 PUSH2 0x205 DUP5 SLOAD PUSH2 0x154 JUMP JUMPDEST DUP5 PUSH2 0x18E JUMP JUMPDEST PUSH1 0x20 DUP1 PUSH1 0x1F DUP4 GT PUSH1 0x1 DUP2 EQ PUSH2 0x240 JUMPI PUSH1 0x0 DUP5 ISZERO PUSH2 0x228 JUMPI POP DUP6 DUP4 ADD MLOAD JUMPDEST PUSH1 0x0 NOT PUSH1 0x3 DUP7 SWAP1 SHL SHR NOT AND PUSH1 0x1 DUP6 SWAP1 SHL OR DUP6 SSTORE PUSH2 0x1D4 JUMP JUMPDEST PUSH1 0x0 DUP6 DUP2 MSTORE PUSH1 0x20 DUP2 KECCAK256 PUSH1 0x1F NOT DUP7 AND SWAP2 JUMPDEST DUP3 DUP2 LT ISZERO PUSH2 0x26F JUMPI DUP9 DUP7 ADD MLOAD DUP3 SSTORE SWAP5 DUP5 ADD SWAP5 PUSH1 0x1 SWAP1 SWAP2 ADD SWAP1 DUP5 ADD PUSH2 0x250 JUMP JUMPDEST POP DUP6 DUP3 LT ISZERO PUSH2 0x28D JUMPI DUP8 DUP6 ADD MLOAD PUSH1 0x0 NOT PUSH1 0x3 DUP9 SWAP1 SHL PUSH1 0xF8 AND SHR NOT AND DUP2 SSTORE JUMPDEST POP POP POP POP POP PUSH1 0x1 SWAP1 DUP2 SHL ADD SWAP1 SSTORE POP JUMP INVALID LOG2 PUSH5 0x6970667358 0x22 SLT KECCAK256 CALLER 0xB6 0xDB 0xC5 CALL CHAINID 0xD4 PUSH5 0xAB06E60582 0x2B SWAP7 DUP13 STOP 0x23 0xAB 0xC5 RETURNDATASIZE CALLCODE SWAP15 0x27 0xE7 0xDF DIFFICULTY DUP1 XOR PUSH29 0x45B864736F6C6343000810003300000000000000000000000000000000 "
				},
				"gasEstimates": {
					"creation": {
						"codeDepositCost": "144600",
						"executionCost": "190",
						"totalCost": "144790"
					},
					"external": {
						"createTodo(string)": "infinite"
					}
				},
				"methodIdentifiers": {
					"createTodo(string)": "e34f1221"
				}
			},
			"storageLayout": {
				"storage": [
					{
						"astId": 10,
						"contract": "Week5/TodoList.sol:TodoList",
						"label": "todoList",
						"offset": 0,
						"slot": "0",
						"type": "t_array(t_struct(Todo)6_storage)dyn_storage"
					}
				],
				"types": {
					"t_array(t_struct(Todo)6_storage)dyn_storage": {
						"base": "t_struct(Todo)6_storage",
						"encoding": "dynamic_array",
						"label": "struct TodoList.Todo[]",
						"numberOfBytes": "32"
					},
					"t_bool": {
						"encoding": "inplace",
						"label": "bool",
						"numberOfBytes": "1"
					},
					"t_string_storage": {
						"encoding": "bytes",
						"label": "string",
						"numberOfBytes": "32"
					},
					"t_struct(Todo)6_storage": {
						"encoding": "inplace",
						"label": "struct TodoList.Todo",
						"members": [
							{
								"astId": 3,
								"contract": "Week5/TodoList.sol:TodoList",
								"label": "text",
								"offset": 0,
								"slot": "0",
								"type": "t_string_storage"
							},
							{
								"astId": 5,
								"contract": "Week5/TodoList.sol:TodoList",
								"label": "isCheck",
								"offset": 0,
								"slot": "1",
								"type": "t_bool"
							}
						],
						"numberOfBytes": "64"
					}
				}
			},
			"userdoc": {
				"kind": "user",
				"methods": {},
				"version": 1
			}
		}
	}
}