{
	"Week5/TodoList.sol": {
		"TodoList": {
			"abi": [
				{
					"inputs": [
						{
							"internalType": "string",
							"name": "_text",
							"type": "string"
						}
					],
					"name": "createTodo",
					"outputs": [],
					"stateMutability": "nonpayable",
					"type": "function"
				},
				{
					"inputs": [],
					"name": "deleteTodo",
					"outputs": [],
					"stateMutability": "nonpayable",
					"type": "function"
				},
				{
					"inputs": [
						{
							"internalType": "uint256",
							"name": "_index",
							"type": "uint256"
						}
					],
					"name": "getTodo",
					"outputs": [
						{
							"components": [
								{
									"internalType": "string",
									"name": "text",
									"type": "string"
								},
								{
									"internalType": "bool",
									"name": "isCheck",
									"type": "bool"
								}
							],
							"internalType": "struct TodoList.Todo",
							"name": "",
							"type": "tuple"
						}
					],
					"stateMutability": "view",
					"type": "function"
				},
				{
					"inputs": [
						{
							"internalType": "uint256",
							"name": "_index",
							"type": "uint256"
						}
					],
					"name": "toggleTodo",
					"outputs": [],
					"stateMutability": "nonpayable",
					"type": "function"
				},
				{
					"inputs": [
						{
							"internalType": "uint256",
							"name": "_index",
							"type": "uint256"
						},
						{
							"internalType": "string",
							"name": "_text",
							"type": "string"
						}
					],
					"name": "updateTodo",
					"outputs": [],
					"stateMutability": "nonpayable",
					"type": "function"
				}
			],
			"devdoc": {
				"kind": "dev",
				"methods": {},
				"version": 1
			},
			"evm": {
				"assembly": "    /* \"Week5/TodoList.sol\":70:923  contract TodoList {... */\n  mstore(0x40, 0x80)\n  callvalue\n  dup1\n  iszero\n  tag_1\n  jumpi\n  0x00\n  dup1\n  revert\ntag_1:\n  pop\n  dataSize(sub_0)\n  dup1\n  dataOffset(sub_0)\n  0x00\n  codecopy\n  0x00\n  return\nstop\n\nsub_0: assembly {\n        /* \"Week5/TodoList.sol\":70:923  contract TodoList {... */\n      mstore(0x40, 0x80)\n      callvalue\n      dup1\n      iszero\n      tag_1\n      jumpi\n      0x00\n      dup1\n      revert\n    tag_1:\n      pop\n      jumpi(tag_2, lt(calldatasize, 0x04))\n      shr(0xe0, calldataload(0x00))\n      dup1\n      0xd534ee88\n      eq\n      tag_3\n      jumpi\n      dup1\n      0xdc00282c\n      eq\n      tag_4\n      jumpi\n      dup1\n      0xdd68afb6\n      eq\n      tag_5\n      jumpi\n      dup1\n      0xe34f1221\n      eq\n      tag_6\n      jumpi\n      dup1\n      0xf11fe10a\n      eq\n      tag_7\n      jumpi\n    tag_2:\n      0x00\n      dup1\n      revert\n        /* \"Week5/TodoList.sol\":345:499  function updateTodo(uint _index, string calldata _text) external {... */\n    tag_3:\n      tag_8\n      0x04\n      dup1\n      calldatasize\n      sub\n      dup2\n      add\n      swap1\n      tag_9\n      swap2\n      swap1\n      tag_10\n      jump\t// in\n    tag_9:\n      tag_11\n      jump\t// in\n    tag_8:\n      stop\n        /* \"Week5/TodoList.sol\":636:791  function toggleTodo(uint _index) external  {... */\n    tag_4:\n      tag_12\n      0x04\n      dup1\n      calldatasize\n      sub\n      dup2\n      add\n      swap1\n      tag_13\n      swap2\n      swap1\n      tag_14\n      jump\t// in\n    tag_13:\n      tag_15\n      jump\t// in\n    tag_12:\n      stop\n        /* \"Week5/TodoList.sol\":816:921  function getTodo(uint _index) external view returns(Todo memory) {... */\n    tag_5:\n      tag_16\n      0x04\n      dup1\n      calldatasize\n      sub\n      dup2\n      add\n      swap1\n      tag_17\n      swap2\n      swap1\n      tag_14\n      jump\t// in\n    tag_17:\n      tag_18\n      jump\t// in\n    tag_16:\n      mload(0x40)\n      tag_19\n      swap2\n      swap1\n      tag_20\n      jump\t// in\n    tag_19:\n      mload(0x40)\n      dup1\n      swap2\n      sub\n      swap1\n      return\n        /* \"Week5/TodoList.sol\":208:310  function createTodo(string calldata _text) external {... */\n    tag_6:\n      tag_21\n      0x04\n      dup1\n      calldatasize\n      sub\n      dup2\n      add\n      swap1\n      tag_22\n      swap2\n      swap1\n      tag_23\n      jump\t// in\n    tag_22:\n      tag_24\n      jump\t// in\n    tag_21:\n      stop\n        /* \"Week5/TodoList.sol\":560:599  function deleteTodo() external {... */\n    tag_7:\n      tag_25\n      tag_26\n      jump\t// in\n    tag_25:\n      stop\n        /* \"Week5/TodoList.sol\":345:499  function updateTodo(uint _index, string calldata _text) external {... */\n    tag_11:\n        /* \"Week5/TodoList.sol\":437:445  todoList */\n      0x00\n        /* \"Week5/TodoList.sol\":437:452  todoList.length */\n      dup1\n      sload\n      swap1\n      pop\n        /* \"Week5/TodoList.sol\":428:434  _index */\n      dup4\n        /* \"Week5/TodoList.sol\":428:452  _index < todoList.length */\n      lt\n        /* \"Week5/TodoList.sol\":420:453  require(_index < todoList.length) */\n      tag_28\n      jumpi\n      0x00\n      dup1\n      revert\n    tag_28:\n        /* \"Week5/TodoList.sol\":487:492  _text */\n      dup2\n      dup2\n        /* \"Week5/TodoList.sol\":463:471  todoList */\n      0x00\n        /* \"Week5/TodoList.sol\":472:478  _index */\n      dup6\n        /* \"Week5/TodoList.sol\":463:479  todoList[_index] */\n      dup2\n      sload\n      dup2\n      lt\n      tag_29\n      jumpi\n      tag_30\n      tag_31\n      jump\t// in\n    tag_30:\n    tag_29:\n      swap1\n      0x00\n      mstore\n      keccak256(0x00, 0x20)\n      swap1\n      0x02\n      mul\n      add\n        /* \"Week5/TodoList.sol\":463:484  todoList[_index].text */\n      0x00\n      add\n        /* \"Week5/TodoList.sol\":463:492  todoList[_index].text = _text */\n      swap2\n      swap1\n      tag_33\n      swap3\n      swap2\n      swap1\n      tag_34\n      jump\t// in\n    tag_33:\n      pop\n        /* \"Week5/TodoList.sol\":345:499  function updateTodo(uint _index, string calldata _text) external {... */\n      pop\n      pop\n      pop\n      jump\t// out\n        /* \"Week5/TodoList.sol\":636:791  function toggleTodo(uint _index) external  {... */\n    tag_15:\n        /* \"Week5/TodoList.sol\":706:714  todoList */\n      0x00\n        /* \"Week5/TodoList.sol\":706:721  todoList.length */\n      dup1\n      sload\n      swap1\n      pop\n        /* \"Week5/TodoList.sol\":697:703  _index */\n      dup2\n        /* \"Week5/TodoList.sol\":697:721  _index < todoList.length */\n      lt\n        /* \"Week5/TodoList.sol\":689:722  require(_index < todoList.length) */\n      tag_36\n      jumpi\n      0x00\n      dup1\n      revert\n    tag_36:\n        /* \"Week5/TodoList.sol\":760:768  todoList */\n      0x00\n        /* \"Week5/TodoList.sol\":769:775  _index */\n      dup2\n        /* \"Week5/TodoList.sol\":760:776  todoList[_index] */\n      dup2\n      sload\n      dup2\n      lt\n      tag_37\n      jumpi\n      tag_38\n      tag_31\n      jump\t// in\n    tag_38:\n    tag_37:\n      swap1\n      0x00\n      mstore\n      keccak256(0x00, 0x20)\n      swap1\n      0x02\n      mul\n      add\n        /* \"Week5/TodoList.sol\":760:784  todoList[_index].isCheck */\n      0x01\n      add\n      0x00\n      swap1\n      sload\n      swap1\n      0x0100\n      exp\n      swap1\n      div\n      0xff\n      and\n        /* \"Week5/TodoList.sol\":759:784  !todoList[_index].isCheck */\n      iszero\n        /* \"Week5/TodoList.sol\":732:740  todoList */\n      0x00\n        /* \"Week5/TodoList.sol\":741:747  _index */\n      dup3\n        /* \"Week5/TodoList.sol\":732:748  todoList[_index] */\n      dup2\n      sload\n      dup2\n      lt\n      tag_40\n      jumpi\n      tag_41\n      tag_31\n      jump\t// in\n    tag_41:\n    tag_40:\n      swap1\n      0x00\n      mstore\n      keccak256(0x00, 0x20)\n      swap1\n      0x02\n      mul\n      add\n        /* \"Week5/TodoList.sol\":732:756  todoList[_index].isCheck */\n      0x01\n      add\n      0x00\n        /* \"Week5/TodoList.sol\":732:784  todoList[_index].isCheck = !todoList[_index].isCheck */\n      0x0100\n      exp\n      dup2\n      sload\n      dup2\n      0xff\n      mul\n      not\n      and\n      swap1\n      dup4\n      iszero\n      iszero\n      mul\n      or\n      swap1\n      sstore\n      pop\n        /* \"Week5/TodoList.sol\":636:791  function toggleTodo(uint _index) external  {... */\n      pop\n      jump\t// out\n        /* \"Week5/TodoList.sol\":816:921  function getTodo(uint _index) external view returns(Todo memory) {... */\n    tag_18:\n        /* \"Week5/TodoList.sol\":868:879  Todo memory */\n      tag_43\n      tag_44\n      jump\t// in\n    tag_43:\n        /* \"Week5/TodoList.sol\":898:906  todoList */\n      0x00\n        /* \"Week5/TodoList.sol\":907:913  _index */\n      dup3\n        /* \"Week5/TodoList.sol\":898:914  todoList[_index] */\n      dup2\n      sload\n      dup2\n      lt\n      tag_46\n      jumpi\n      tag_47\n      tag_31\n      jump\t// in\n    tag_47:\n    tag_46:\n      swap1\n      0x00\n      mstore\n      keccak256(0x00, 0x20)\n      swap1\n      0x02\n      mul\n      add\n        /* \"Week5/TodoList.sol\":891:914  return todoList[_index] */\n      mload(0x40)\n      dup1\n      0x40\n      add\n      0x40\n      mstore\n      swap1\n      dup2\n      0x00\n      dup3\n      add\n      dup1\n      sload\n      tag_49\n      swap1\n      tag_50\n      jump\t// in\n    tag_49:\n      dup1\n      0x1f\n      add\n      0x20\n      dup1\n      swap2\n      div\n      mul\n      0x20\n      add\n      mload(0x40)\n      swap1\n      dup2\n      add\n      0x40\n      mstore\n      dup1\n      swap3\n      swap2\n      swap1\n      dup2\n      dup2\n      mstore\n      0x20\n      add\n      dup3\n      dup1\n      sload\n      tag_51\n      swap1\n      tag_50\n      jump\t// in\n    tag_51:\n      dup1\n      iszero\n      tag_52\n      jumpi\n      dup1\n      0x1f\n      lt\n      tag_53\n      jumpi\n      0x0100\n      dup1\n      dup4\n      sload\n      div\n      mul\n      dup4\n      mstore\n      swap2\n      0x20\n      add\n      swap2\n      jump(tag_52)\n    tag_53:\n      dup3\n      add\n      swap2\n      swap1\n      0x00\n      mstore\n      keccak256(0x00, 0x20)\n      swap1\n    tag_54:\n      dup2\n      sload\n      dup2\n      mstore\n      swap1\n      0x01\n      add\n      swap1\n      0x20\n      add\n      dup1\n      dup4\n      gt\n      tag_54\n      jumpi\n      dup3\n      swap1\n      sub\n      0x1f\n      and\n      dup3\n      add\n      swap2\n    tag_52:\n      pop\n      pop\n      pop\n      pop\n      pop\n      dup2\n      mstore\n      0x20\n      add\n      0x01\n      dup3\n      add\n      0x00\n      swap1\n      sload\n      swap1\n      0x0100\n      exp\n      swap1\n      div\n      0xff\n      and\n      iszero\n      iszero\n      iszero\n      iszero\n      dup2\n      mstore\n      pop\n      pop\n      swap1\n      pop\n        /* \"Week5/TodoList.sol\":816:921  function getTodo(uint _index) external view returns(Todo memory) {... */\n      swap2\n      swap1\n      pop\n      jump\t// out\n        /* \"Week5/TodoList.sol\":208:310  function createTodo(string calldata _text) external {... */\n    tag_24:\n        /* \"Week5/TodoList.sol\":270:278  todoList */\n      0x00\n        /* \"Week5/TodoList.sol\":284:302  Todo(_text, false) */\n      mload(0x40)\n      dup1\n      0x40\n      add\n      0x40\n      mstore\n      dup1\n        /* \"Week5/TodoList.sol\":289:294  _text */\n      dup5\n      dup5\n        /* \"Week5/TodoList.sol\":284:302  Todo(_text, false) */\n      dup1\n      dup1\n      0x1f\n      add\n      0x20\n      dup1\n      swap2\n      div\n      mul\n      0x20\n      add\n      mload(0x40)\n      swap1\n      dup2\n      add\n      0x40\n      mstore\n      dup1\n      swap4\n      swap3\n      swap2\n      swap1\n      dup2\n      dup2\n      mstore\n      0x20\n      add\n      dup4\n      dup4\n      dup1\n      dup3\n      dup5\n      calldatacopy\n      0x00\n      dup2\n      dup5\n      add\n      mstore\n      not(0x1f)\n      0x1f\n      dup3\n      add\n      and\n      swap1\n      pop\n      dup1\n      dup4\n      add\n      swap3\n      pop\n      pop\n      pop\n      pop\n      pop\n      pop\n      pop\n      dup2\n      mstore\n      0x20\n      add\n        /* \"Week5/TodoList.sol\":296:301  false */\n      0x00\n        /* \"Week5/TodoList.sol\":284:302  Todo(_text, false) */\n      iszero\n      iszero\n      dup2\n      mstore\n      pop\n        /* \"Week5/TodoList.sol\":270:303  todoList.push(Todo(_text, false)) */\n      swap1\n      dup1\n      0x01\n      dup2\n      sload\n      add\n      dup1\n      dup3\n      sstore\n      dup1\n      swap2\n      pop\n      pop\n      0x01\n      swap1\n      sub\n      swap1\n      0x00\n      mstore\n      keccak256(0x00, 0x20)\n      swap1\n      0x02\n      mul\n      add\n      0x00\n      swap1\n      swap2\n      swap1\n      swap2\n      swap1\n      swap2\n      pop\n      0x00\n      dup3\n      add\n      mload\n      dup2\n      0x00\n      add\n      swap1\n      dup1\n      mload\n      swap1\n      0x20\n      add\n      swap1\n      tag_57\n      swap3\n      swap2\n      swap1\n      tag_58\n      jump\t// in\n    tag_57:\n      pop\n      0x20\n      dup3\n      add\n      mload\n      dup2\n      0x01\n      add\n      exp(0x0100, 0x00)\n      dup2\n      sload\n      dup2\n      0xff\n      mul\n      not\n      and\n      swap1\n      dup4\n      iszero\n      iszero\n      mul\n      or\n      swap1\n      sstore\n      pop\n      pop\n      pop\n        /* \"Week5/TodoList.sol\":208:310  function createTodo(string calldata _text) external {... */\n      pop\n      pop\n      jump\t// out\n        /* \"Week5/TodoList.sol\":560:599  function deleteTodo() external {... */\n    tag_26:\n      jump\t// out\n    tag_34:\n      dup3\n      dup1\n      sload\n      tag_60\n      swap1\n      tag_50\n      jump\t// in\n    tag_60:\n      swap1\n      0x00\n      mstore\n      keccak256(0x00, 0x20)\n      swap1\n      0x1f\n      add\n      0x20\n      swap1\n      div\n      dup2\n      add\n      swap3\n      dup3\n      tag_62\n      jumpi\n      0x00\n      dup6\n      sstore\n      jump(tag_61)\n    tag_62:\n      dup3\n      0x1f\n      lt\n      tag_63\n      jumpi\n      dup1\n      calldataload\n      not(0xff)\n      and\n      dup4\n      dup1\n      add\n      or\n      dup6\n      sstore\n      jump(tag_61)\n    tag_63:\n      dup3\n      dup1\n      add\n      0x01\n      add\n      dup6\n      sstore\n      dup3\n      iszero\n      tag_61\n      jumpi\n      swap2\n      dup3\n      add\n    tag_64:\n      dup3\n      dup2\n      gt\n      iszero\n      tag_65\n      jumpi\n      dup3\n      calldataload\n      dup3\n      sstore\n      swap2\n      0x20\n      add\n      swap2\n      swap1\n      0x01\n      add\n      swap1\n      jump(tag_64)\n    tag_65:\n    tag_61:\n      pop\n      swap1\n      pop\n      tag_66\n      swap2\n      swap1\n      tag_67\n      jump\t// in\n    tag_66:\n      pop\n      swap1\n      jump\t// out\n    tag_44:\n      mload(0x40)\n      dup1\n      0x40\n      add\n      0x40\n      mstore\n      dup1\n      0x60\n      dup2\n      mstore\n      0x20\n      add\n      iszero(iszero(0x00))\n      dup2\n      mstore\n      pop\n      swap1\n      jump\t// out\n    tag_58:\n      dup3\n      dup1\n      sload\n      tag_68\n      swap1\n      tag_50\n      jump\t// in\n    tag_68:\n      swap1\n      0x00\n      mstore\n      keccak256(0x00, 0x20)\n      swap1\n      0x1f\n      add\n      0x20\n      swap1\n      div\n      dup2\n      add\n      swap3\n      dup3\n      tag_70\n      jumpi\n      0x00\n      dup6\n      sstore\n      jump(tag_69)\n    tag_70:\n      dup3\n      0x1f\n      lt\n      tag_71\n      jumpi\n      dup1\n      mload\n      not(0xff)\n      and\n      dup4\n      dup1\n      add\n      or\n      dup6\n      sstore\n      jump(tag_69)\n    tag_71:\n      dup3\n      dup1\n      add\n      0x01\n      add\n      dup6\n      sstore\n      dup3\n      iszero\n      tag_69\n      jumpi\n      swap2\n      dup3\n      add\n    tag_72:\n      dup3\n      dup2\n      gt\n      iszero\n      tag_73\n      jumpi\n      dup3\n      mload\n      dup3\n      sstore\n      swap2\n      0x20\n      add\n      swap2\n      swap1\n      0x01\n      add\n      swap1\n      jump(tag_72)\n    tag_73:\n    tag_69:\n      pop\n      swap1\n      pop\n      tag_74\n      swap2\n      swap1\n      tag_67\n      jump\t// in\n    tag_74:\n      pop\n      swap1\n      jump\t// out\n    tag_67:\n    tag_75:\n      dup1\n      dup3\n      gt\n      iszero\n      tag_76\n      jumpi\n      0x00\n      dup2\n      0x00\n      swap1\n      sstore\n      pop\n      0x01\n      add\n      jump(tag_75)\n    tag_76:\n      pop\n      swap1\n      jump\t// out\n        /* \"#utility.yul\":21:574   */\n    tag_78:\n        /* \"#utility.yul\":79:87   */\n      0x00\n        /* \"#utility.yul\":89:95   */\n      dup1\n        /* \"#utility.yul\":139:142   */\n      dup4\n        /* \"#utility.yul\":132:136   */\n      0x1f\n        /* \"#utility.yul\":124:130   */\n      dup5\n        /* \"#utility.yul\":120:137   */\n      add\n        /* \"#utility.yul\":116:143   */\n      slt\n        /* \"#utility.yul\":106:228   */\n      tag_80\n      jumpi\n        /* \"#utility.yul\":147:226   */\n      tag_81\n      tag_82\n      jump\t// in\n    tag_81:\n        /* \"#utility.yul\":106:228   */\n    tag_80:\n        /* \"#utility.yul\":260:266   */\n      dup3\n        /* \"#utility.yul\":247:267   */\n      calldataload\n        /* \"#utility.yul\":237:267   */\n      swap1\n      pop\n        /* \"#utility.yul\":290:308   */\n      0xffffffffffffffff\n        /* \"#utility.yul\":282:288   */\n      dup2\n        /* \"#utility.yul\":279:309   */\n      gt\n        /* \"#utility.yul\":276:393   */\n      iszero\n      tag_83\n      jumpi\n        /* \"#utility.yul\":312:391   */\n      tag_84\n      tag_85\n      jump\t// in\n    tag_84:\n        /* \"#utility.yul\":276:393   */\n    tag_83:\n        /* \"#utility.yul\":426:430   */\n      0x20\n        /* \"#utility.yul\":418:424   */\n      dup4\n        /* \"#utility.yul\":414:431   */\n      add\n        /* \"#utility.yul\":402:431   */\n      swap2\n      pop\n        /* \"#utility.yul\":480:483   */\n      dup4\n        /* \"#utility.yul\":472:476   */\n      0x01\n        /* \"#utility.yul\":464:470   */\n      dup3\n        /* \"#utility.yul\":460:477   */\n      mul\n        /* \"#utility.yul\":450:458   */\n      dup4\n        /* \"#utility.yul\":446:478   */\n      add\n        /* \"#utility.yul\":443:484   */\n      gt\n        /* \"#utility.yul\":440:568   */\n      iszero\n      tag_86\n      jumpi\n        /* \"#utility.yul\":487:566   */\n      tag_87\n      tag_88\n      jump\t// in\n    tag_87:\n        /* \"#utility.yul\":440:568   */\n    tag_86:\n        /* \"#utility.yul\":21:574   */\n      swap3\n      pop\n      swap3\n      swap1\n      pop\n      jump\t// out\n        /* \"#utility.yul\":580:719   */\n    tag_89:\n        /* \"#utility.yul\":626:631   */\n      0x00\n        /* \"#utility.yul\":664:670   */\n      dup2\n        /* \"#utility.yul\":651:671   */\n      calldataload\n        /* \"#utility.yul\":642:671   */\n      swap1\n      pop\n        /* \"#utility.yul\":680:713   */\n      tag_91\n        /* \"#utility.yul\":707:712   */\n      dup2\n        /* \"#utility.yul\":680:713   */\n      tag_92\n      jump\t// in\n    tag_91:\n        /* \"#utility.yul\":580:719   */\n      swap3\n      swap2\n      pop\n      pop\n      jump\t// out\n        /* \"#utility.yul\":725:1254   */\n    tag_23:\n        /* \"#utility.yul\":796:802   */\n      0x00\n        /* \"#utility.yul\":804:810   */\n      dup1\n        /* \"#utility.yul\":853:855   */\n      0x20\n        /* \"#utility.yul\":841:850   */\n      dup4\n        /* \"#utility.yul\":832:839   */\n      dup6\n        /* \"#utility.yul\":828:851   */\n      sub\n        /* \"#utility.yul\":824:856   */\n      slt\n        /* \"#utility.yul\":821:940   */\n      iszero\n      tag_94\n      jumpi\n        /* \"#utility.yul\":859:938   */\n      tag_95\n      tag_96\n      jump\t// in\n    tag_95:\n        /* \"#utility.yul\":821:940   */\n    tag_94:\n        /* \"#utility.yul\":1007:1008   */\n      0x00\n        /* \"#utility.yul\":996:1005   */\n      dup4\n        /* \"#utility.yul\":992:1009   */\n      add\n        /* \"#utility.yul\":979:1010   */\n      calldataload\n        /* \"#utility.yul\":1037:1055   */\n      0xffffffffffffffff\n        /* \"#utility.yul\":1029:1035   */\n      dup2\n        /* \"#utility.yul\":1026:1056   */\n      gt\n        /* \"#utility.yul\":1023:1140   */\n      iszero\n      tag_97\n      jumpi\n        /* \"#utility.yul\":1059:1138   */\n      tag_98\n      tag_99\n      jump\t// in\n    tag_98:\n        /* \"#utility.yul\":1023:1140   */\n    tag_97:\n        /* \"#utility.yul\":1172:1237   */\n      tag_100\n        /* \"#utility.yul\":1229:1236   */\n      dup6\n        /* \"#utility.yul\":1220:1226   */\n      dup3\n        /* \"#utility.yul\":1209:1218   */\n      dup7\n        /* \"#utility.yul\":1205:1227   */\n      add\n        /* \"#utility.yul\":1172:1237   */\n      tag_78\n      jump\t// in\n    tag_100:\n        /* \"#utility.yul\":1154:1237   */\n      swap3\n      pop\n      swap3\n      pop\n        /* \"#utility.yul\":950:1247   */\n      pop\n        /* \"#utility.yul\":725:1254   */\n      swap3\n      pop\n      swap3\n      swap1\n      pop\n      jump\t// out\n        /* \"#utility.yul\":1260:1589   */\n    tag_14:\n        /* \"#utility.yul\":1319:1325   */\n      0x00\n        /* \"#utility.yul\":1368:1370   */\n      0x20\n        /* \"#utility.yul\":1356:1365   */\n      dup3\n        /* \"#utility.yul\":1347:1354   */\n      dup5\n        /* \"#utility.yul\":1343:1366   */\n      sub\n        /* \"#utility.yul\":1339:1371   */\n      slt\n        /* \"#utility.yul\":1336:1455   */\n      iszero\n      tag_102\n      jumpi\n        /* \"#utility.yul\":1374:1453   */\n      tag_103\n      tag_96\n      jump\t// in\n    tag_103:\n        /* \"#utility.yul\":1336:1455   */\n    tag_102:\n        /* \"#utility.yul\":1494:1495   */\n      0x00\n        /* \"#utility.yul\":1519:1572   */\n      tag_104\n        /* \"#utility.yul\":1564:1571   */\n      dup5\n        /* \"#utility.yul\":1555:1561   */\n      dup3\n        /* \"#utility.yul\":1544:1553   */\n      dup6\n        /* \"#utility.yul\":1540:1562   */\n      add\n        /* \"#utility.yul\":1519:1572   */\n      tag_89\n      jump\t// in\n    tag_104:\n        /* \"#utility.yul\":1509:1572   */\n      swap2\n      pop\n        /* \"#utility.yul\":1465:1582   */\n      pop\n        /* \"#utility.yul\":1260:1589   */\n      swap3\n      swap2\n      pop\n      pop\n      jump\t// out\n        /* \"#utility.yul\":1595:2269   */\n    tag_10:\n        /* \"#utility.yul\":1675:1681   */\n      0x00\n        /* \"#utility.yul\":1683:1689   */\n      dup1\n        /* \"#utility.yul\":1691:1697   */\n      0x00\n        /* \"#utility.yul\":1740:1742   */\n      0x40\n        /* \"#utility.yul\":1728:1737   */\n      dup5\n        /* \"#utility.yul\":1719:1726   */\n      dup7\n        /* \"#utility.yul\":1715:1738   */\n      sub\n        /* \"#utility.yul\":1711:1743   */\n      slt\n        /* \"#utility.yul\":1708:1827   */\n      iszero\n      tag_106\n      jumpi\n        /* \"#utility.yul\":1746:1825   */\n      tag_107\n      tag_96\n      jump\t// in\n    tag_107:\n        /* \"#utility.yul\":1708:1827   */\n    tag_106:\n        /* \"#utility.yul\":1866:1867   */\n      0x00\n        /* \"#utility.yul\":1891:1944   */\n      tag_108\n        /* \"#utility.yul\":1936:1943   */\n      dup7\n        /* \"#utility.yul\":1927:1933   */\n      dup3\n        /* \"#utility.yul\":1916:1925   */\n      dup8\n        /* \"#utility.yul\":1912:1934   */\n      add\n        /* \"#utility.yul\":1891:1944   */\n      tag_89\n      jump\t// in\n    tag_108:\n        /* \"#utility.yul\":1881:1944   */\n      swap4\n      pop\n        /* \"#utility.yul\":1837:1954   */\n      pop\n        /* \"#utility.yul\":2021:2023   */\n      0x20\n        /* \"#utility.yul\":2010:2019   */\n      dup5\n        /* \"#utility.yul\":2006:2024   */\n      add\n        /* \"#utility.yul\":1993:2025   */\n      calldataload\n        /* \"#utility.yul\":2052:2070   */\n      0xffffffffffffffff\n        /* \"#utility.yul\":2044:2050   */\n      dup2\n        /* \"#utility.yul\":2041:2071   */\n      gt\n        /* \"#utility.yul\":2038:2155   */\n      iszero\n      tag_109\n      jumpi\n        /* \"#utility.yul\":2074:2153   */\n      tag_110\n      tag_99\n      jump\t// in\n    tag_110:\n        /* \"#utility.yul\":2038:2155   */\n    tag_109:\n        /* \"#utility.yul\":2187:2252   */\n      tag_111\n        /* \"#utility.yul\":2244:2251   */\n      dup7\n        /* \"#utility.yul\":2235:2241   */\n      dup3\n        /* \"#utility.yul\":2224:2233   */\n      dup8\n        /* \"#utility.yul\":2220:2242   */\n      add\n        /* \"#utility.yul\":2187:2252   */\n      tag_78\n      jump\t// in\n    tag_111:\n        /* \"#utility.yul\":2169:2252   */\n      swap3\n      pop\n      swap3\n      pop\n        /* \"#utility.yul\":1964:2262   */\n      pop\n        /* \"#utility.yul\":1595:2269   */\n      swap3\n      pop\n      swap3\n      pop\n      swap3\n      jump\t// out\n        /* \"#utility.yul\":2275:2374   */\n    tag_112:\n        /* \"#utility.yul\":2346:2367   */\n      tag_114\n        /* \"#utility.yul\":2361:2366   */\n      dup2\n        /* \"#utility.yul\":2346:2367   */\n      tag_115\n      jump\t// in\n    tag_114:\n        /* \"#utility.yul\":2341:2344   */\n      dup3\n        /* \"#utility.yul\":2334:2368   */\n      mstore\n        /* \"#utility.yul\":2275:2374   */\n      pop\n      pop\n      jump\t// out\n        /* \"#utility.yul\":2380:2724   */\n    tag_116:\n        /* \"#utility.yul\":2458:2461   */\n      0x00\n        /* \"#utility.yul\":2486:2525   */\n      tag_118\n        /* \"#utility.yul\":2519:2524   */\n      dup3\n        /* \"#utility.yul\":2486:2525   */\n      tag_119\n      jump\t// in\n    tag_118:\n        /* \"#utility.yul\":2541:2602   */\n      tag_120\n        /* \"#utility.yul\":2595:2601   */\n      dup2\n        /* \"#utility.yul\":2590:2593   */\n      dup6\n        /* \"#utility.yul\":2541:2602   */\n      tag_121\n      jump\t// in\n    tag_120:\n        /* \"#utility.yul\":2534:2602   */\n      swap4\n      pop\n        /* \"#utility.yul\":2611:2663   */\n      tag_122\n        /* \"#utility.yul\":2656:2662   */\n      dup2\n        /* \"#utility.yul\":2651:2654   */\n      dup6\n        /* \"#utility.yul\":2644:2648   */\n      0x20\n        /* \"#utility.yul\":2637:2642   */\n      dup7\n        /* \"#utility.yul\":2633:2649   */\n      add\n        /* \"#utility.yul\":2611:2663   */\n      tag_123\n      jump\t// in\n    tag_122:\n        /* \"#utility.yul\":2688:2717   */\n      tag_124\n        /* \"#utility.yul\":2710:2716   */\n      dup2\n        /* \"#utility.yul\":2688:2717   */\n      tag_125\n      jump\t// in\n    tag_124:\n        /* \"#utility.yul\":2683:2686   */\n      dup5\n        /* \"#utility.yul\":2679:2718   */\n      add\n        /* \"#utility.yul\":2672:2718   */\n      swap2\n      pop\n        /* \"#utility.yul\":2462:2724   */\n      pop\n        /* \"#utility.yul\":2380:2724   */\n      swap3\n      swap2\n      pop\n      pop\n      jump\t// out\n        /* \"#utility.yul\":2782:3373   */\n    tag_126:\n        /* \"#utility.yul\":2889:2892   */\n      0x00\n        /* \"#utility.yul\":2925:2929   */\n      0x40\n        /* \"#utility.yul\":2920:2923   */\n      dup4\n        /* \"#utility.yul\":2916:2930   */\n      add\n        /* \"#utility.yul\":3012:3016   */\n      0x00\n        /* \"#utility.yul\":3005:3010   */\n      dup4\n        /* \"#utility.yul\":3001:3017   */\n      add\n        /* \"#utility.yul\":2995:3018   */\n      mload\n        /* \"#utility.yul\":3065:3068   */\n      dup5\n        /* \"#utility.yul\":3059:3063   */\n      dup3\n        /* \"#utility.yul\":3055:3069   */\n      sub\n        /* \"#utility.yul\":3048:3052   */\n      0x00\n        /* \"#utility.yul\":3043:3046   */\n      dup7\n        /* \"#utility.yul\":3039:3053   */\n      add\n        /* \"#utility.yul\":3032:3070   */\n      mstore\n        /* \"#utility.yul\":3091:3164   */\n      tag_128\n        /* \"#utility.yul\":3159:3163   */\n      dup3\n        /* \"#utility.yul\":3145:3157   */\n      dup3\n        /* \"#utility.yul\":3091:3164   */\n      tag_116\n      jump\t// in\n    tag_128:\n        /* \"#utility.yul\":3083:3164   */\n      swap2\n      pop\n        /* \"#utility.yul\":2940:3175   */\n      pop\n        /* \"#utility.yul\":3260:3264   */\n      0x20\n        /* \"#utility.yul\":3253:3258   */\n      dup4\n        /* \"#utility.yul\":3249:3265   */\n      add\n        /* \"#utility.yul\":3243:3266   */\n      mload\n        /* \"#utility.yul\":3279:3336   */\n      tag_129\n        /* \"#utility.yul\":3330:3334   */\n      0x20\n        /* \"#utility.yul\":3325:3328   */\n      dup7\n        /* \"#utility.yul\":3321:3335   */\n      add\n        /* \"#utility.yul\":3307:3319   */\n      dup3\n        /* \"#utility.yul\":3279:3336   */\n      tag_112\n      jump\t// in\n    tag_129:\n        /* \"#utility.yul\":3185:3346   */\n      pop\n        /* \"#utility.yul\":3363:3367   */\n      dup1\n        /* \"#utility.yul\":3356:3367   */\n      swap2\n      pop\n        /* \"#utility.yul\":2894:3373   */\n      pop\n        /* \"#utility.yul\":2782:3373   */\n      swap3\n      swap2\n      pop\n      pop\n      jump\t// out\n        /* \"#utility.yul\":3379:3728   */\n    tag_20:\n        /* \"#utility.yul\":3510:3514   */\n      0x00\n        /* \"#utility.yul\":3548:3550   */\n      0x20\n        /* \"#utility.yul\":3537:3546   */\n      dup3\n        /* \"#utility.yul\":3533:3551   */\n      add\n        /* \"#utility.yul\":3525:3551   */\n      swap1\n      pop\n        /* \"#utility.yul\":3597:3606   */\n      dup2\n        /* \"#utility.yul\":3591:3595   */\n      dup2\n        /* \"#utility.yul\":3587:3607   */\n      sub\n        /* \"#utility.yul\":3583:3584   */\n      0x00\n        /* \"#utility.yul\":3572:3581   */\n      dup4\n        /* \"#utility.yul\":3568:3585   */\n      add\n        /* \"#utility.yul\":3561:3608   */\n      mstore\n        /* \"#utility.yul\":3625:3721   */\n      tag_131\n        /* \"#utility.yul\":3716:3720   */\n      dup2\n        /* \"#utility.yul\":3707:3713   */\n      dup5\n        /* \"#utility.yul\":3625:3721   */\n      tag_126\n      jump\t// in\n    tag_131:\n        /* \"#utility.yul\":3617:3721   */\n      swap1\n      pop\n        /* \"#utility.yul\":3379:3728   */\n      swap3\n      swap2\n      pop\n      pop\n      jump\t// out\n        /* \"#utility.yul\":3815:3914   */\n    tag_119:\n        /* \"#utility.yul\":3867:3873   */\n      0x00\n        /* \"#utility.yul\":3901:3906   */\n      dup2\n        /* \"#utility.yul\":3895:3907   */\n      mload\n        /* \"#utility.yul\":3885:3907   */\n      swap1\n      pop\n        /* \"#utility.yul\":3815:3914   */\n      swap2\n      swap1\n      pop\n      jump\t// out\n        /* \"#utility.yul\":3920:4079   */\n    tag_121:\n        /* \"#utility.yul\":3994:4005   */\n      0x00\n        /* \"#utility.yul\":4028:4034   */\n      dup3\n        /* \"#utility.yul\":4023:4026   */\n      dup3\n        /* \"#utility.yul\":4016:4035   */\n      mstore\n        /* \"#utility.yul\":4068:4072   */\n      0x20\n        /* \"#utility.yul\":4063:4066   */\n      dup3\n        /* \"#utility.yul\":4059:4073   */\n      add\n        /* \"#utility.yul\":4044:4073   */\n      swap1\n      pop\n        /* \"#utility.yul\":3920:4079   */\n      swap3\n      swap2\n      pop\n      pop\n      jump\t// out\n        /* \"#utility.yul\":4085:4175   */\n    tag_115:\n        /* \"#utility.yul\":4119:4126   */\n      0x00\n        /* \"#utility.yul\":4162:4167   */\n      dup2\n        /* \"#utility.yul\":4155:4168   */\n      iszero\n        /* \"#utility.yul\":4148:4169   */\n      iszero\n        /* \"#utility.yul\":4137:4169   */\n      swap1\n      pop\n        /* \"#utility.yul\":4085:4175   */\n      swap2\n      swap1\n      pop\n      jump\t// out\n        /* \"#utility.yul\":4181:4258   */\n    tag_137:\n        /* \"#utility.yul\":4218:4225   */\n      0x00\n        /* \"#utility.yul\":4247:4252   */\n      dup2\n        /* \"#utility.yul\":4236:4252   */\n      swap1\n      pop\n        /* \"#utility.yul\":4181:4258   */\n      swap2\n      swap1\n      pop\n      jump\t// out\n        /* \"#utility.yul\":4264:4571   */\n    tag_123:\n        /* \"#utility.yul\":4332:4333   */\n      0x00\n        /* \"#utility.yul\":4342:4455   */\n    tag_140:\n        /* \"#utility.yul\":4356:4362   */\n      dup4\n        /* \"#utility.yul\":4353:4354   */\n      dup2\n        /* \"#utility.yul\":4350:4363   */\n      lt\n        /* \"#utility.yul\":4342:4455   */\n      iszero\n      tag_142\n      jumpi\n        /* \"#utility.yul\":4441:4442   */\n      dup1\n        /* \"#utility.yul\":4436:4439   */\n      dup3\n        /* \"#utility.yul\":4432:4443   */\n      add\n        /* \"#utility.yul\":4426:4444   */\n      mload\n        /* \"#utility.yul\":4422:4423   */\n      dup2\n        /* \"#utility.yul\":4417:4420   */\n      dup5\n        /* \"#utility.yul\":4413:4424   */\n      add\n        /* \"#utility.yul\":4406:4445   */\n      mstore\n        /* \"#utility.yul\":4378:4380   */\n      0x20\n        /* \"#utility.yul\":4375:4376   */\n      dup2\n        /* \"#utility.yul\":4371:4381   */\n      add\n        /* \"#utility.yul\":4366:4381   */\n      swap1\n      pop\n        /* \"#utility.yul\":4342:4455   */\n      jump(tag_140)\n    tag_142:\n        /* \"#utility.yul\":4473:4479   */\n      dup4\n        /* \"#utility.yul\":4470:4471   */\n      dup2\n        /* \"#utility.yul\":4467:4480   */\n      gt\n        /* \"#utility.yul\":4464:4565   */\n      iszero\n      tag_143\n      jumpi\n        /* \"#utility.yul\":4553:4554   */\n      0x00\n        /* \"#utility.yul\":4544:4550   */\n      dup5\n        /* \"#utility.yul\":4539:4542   */\n      dup5\n        /* \"#utility.yul\":4535:4551   */\n      add\n        /* \"#utility.yul\":4528:4555   */\n      mstore\n        /* \"#utility.yul\":4464:4565   */\n    tag_143:\n        /* \"#utility.yul\":4313:4571   */\n      pop\n        /* \"#utility.yul\":4264:4571   */\n      pop\n      pop\n      pop\n      jump\t// out\n        /* \"#utility.yul\":4577:4897   */\n    tag_50:\n        /* \"#utility.yul\":4621:4627   */\n      0x00\n        /* \"#utility.yul\":4658:4659   */\n      0x02\n        /* \"#utility.yul\":4652:4656   */\n      dup3\n        /* \"#utility.yul\":4648:4660   */\n      div\n        /* \"#utility.yul\":4638:4660   */\n      swap1\n      pop\n        /* \"#utility.yul\":4705:4706   */\n      0x01\n        /* \"#utility.yul\":4699:4703   */\n      dup3\n        /* \"#utility.yul\":4695:4707   */\n      and\n        /* \"#utility.yul\":4726:4744   */\n      dup1\n        /* \"#utility.yul\":4716:4797   */\n      tag_145\n      jumpi\n        /* \"#utility.yul\":4782:4786   */\n      0x7f\n        /* \"#utility.yul\":4774:4780   */\n      dup3\n        /* \"#utility.yul\":4770:4787   */\n      and\n        /* \"#utility.yul\":4760:4787   */\n      swap2\n      pop\n        /* \"#utility.yul\":4716:4797   */\n    tag_145:\n        /* \"#utility.yul\":4844:4846   */\n      0x20\n        /* \"#utility.yul\":4836:4842   */\n      dup3\n        /* \"#utility.yul\":4833:4847   */\n      lt\n        /* \"#utility.yul\":4813:4831   */\n      dup2\n        /* \"#utility.yul\":4810:4848   */\n      eq\n        /* \"#utility.yul\":4807:4891   */\n      iszero\n      tag_146\n      jumpi\n        /* \"#utility.yul\":4863:4881   */\n      tag_147\n      tag_148\n      jump\t// in\n    tag_147:\n        /* \"#utility.yul\":4807:4891   */\n    tag_146:\n        /* \"#utility.yul\":4628:4897   */\n      pop\n        /* \"#utility.yul\":4577:4897   */\n      swap2\n      swap1\n      pop\n      jump\t// out\n        /* \"#utility.yul\":4903:5083   */\n    tag_148:\n        /* \"#utility.yul\":4951:5028   */\n      0x4e487b7100000000000000000000000000000000000000000000000000000000\n        /* \"#utility.yul\":4948:4949   */\n      0x00\n        /* \"#utility.yul\":4941:5029   */\n      mstore\n        /* \"#utility.yul\":5048:5052   */\n      0x22\n        /* \"#utility.yul\":5045:5046   */\n      0x04\n        /* \"#utility.yul\":5038:5053   */\n      mstore\n        /* \"#utility.yul\":5072:5076   */\n      0x24\n        /* \"#utility.yul\":5069:5070   */\n      0x00\n        /* \"#utility.yul\":5062:5077   */\n      revert\n        /* \"#utility.yul\":5089:5269   */\n    tag_31:\n        /* \"#utility.yul\":5137:5214   */\n      0x4e487b7100000000000000000000000000000000000000000000000000000000\n        /* \"#utility.yul\":5134:5135   */\n      0x00\n        /* \"#utility.yul\":5127:5215   */\n      mstore\n        /* \"#utility.yul\":5234:5238   */\n      0x32\n        /* \"#utility.yul\":5231:5232   */\n      0x04\n        /* \"#utility.yul\":5224:5239   */\n      mstore\n        /* \"#utility.yul\":5258:5262   */\n      0x24\n        /* \"#utility.yul\":5255:5256   */\n      0x00\n        /* \"#utility.yul\":5248:5263   */\n      revert\n        /* \"#utility.yul\":5275:5392   */\n    tag_85:\n        /* \"#utility.yul\":5384:5385   */\n      0x00\n        /* \"#utility.yul\":5381:5382   */\n      dup1\n        /* \"#utility.yul\":5374:5386   */\n      revert\n        /* \"#utility.yul\":5398:5515   */\n    tag_82:\n        /* \"#utility.yul\":5507:5508   */\n      0x00\n        /* \"#utility.yul\":5504:5505   */\n      dup1\n        /* \"#utility.yul\":5497:5509   */\n      revert\n        /* \"#utility.yul\":5521:5638   */\n    tag_88:\n        /* \"#utility.yul\":5630:5631   */\n      0x00\n        /* \"#utility.yul\":5627:5628   */\n      dup1\n        /* \"#utility.yul\":5620:5632   */\n      revert\n        /* \"#utility.yul\":5644:5761   */\n    tag_99:\n        /* \"#utility.yul\":5753:5754   */\n      0x00\n        /* \"#utility.yul\":5750:5751   */\n      dup1\n        /* \"#utility.yul\":5743:5755   */\n      revert\n        /* \"#utility.yul\":5767:5884   */\n    tag_96:\n        /* \"#utility.yul\":5876:5877   */\n      0x00\n        /* \"#utility.yul\":5873:5874   */\n      dup1\n        /* \"#utility.yul\":5866:5878   */\n      revert\n        /* \"#utility.yul\":5890:5992   */\n    tag_125:\n        /* \"#utility.yul\":5931:5937   */\n      0x00\n        /* \"#utility.yul\":5982:5984   */\n      0x1f\n        /* \"#utility.yul\":5978:5985   */\n      not\n        /* \"#utility.yul\":5973:5975   */\n      0x1f\n        /* \"#utility.yul\":5966:5971   */\n      dup4\n        /* \"#utility.yul\":5962:5976   */\n      add\n        /* \"#utility.yul\":5958:5986   */\n      and\n        /* \"#utility.yul\":5948:5986   */\n      swap1\n      pop\n        /* \"#utility.yul\":5890:5992   */\n      swap2\n      swap1\n      pop\n      jump\t// out\n        /* \"#utility.yul\":5998:6120   */\n    tag_92:\n        /* \"#utility.yul\":6071:6095   */\n      tag_158\n        /* \"#utility.yul\":6089:6094   */\n      dup2\n        /* \"#utility.yul\":6071:6095   */\n      tag_137\n      jump\t// in\n    tag_158:\n        /* \"#utility.yul\":6064:6069   */\n      dup2\n        /* \"#utility.yul\":6061:6096   */\n      eq\n        /* \"#utility.yul\":6051:6114   */\n      tag_159\n      jumpi\n        /* \"#utility.yul\":6110:6111   */\n      0x00\n        /* \"#utility.yul\":6107:6108   */\n      dup1\n        /* \"#utility.yul\":6100:6112   */\n      revert\n        /* \"#utility.yul\":6051:6114   */\n    tag_159:\n        /* \"#utility.yul\":5998:6120   */\n      pop\n      jump\t// out\n\n    auxdata: 0xa26469706673582212206ddf1f5d743775f5117dcad4d814cef4c135122f95c6b415e94b58236f06c02364736f6c63430008070033\n}\n",
				"bytecode": {
					"linkReferences": {},
					"object": "608060405234801561001057600080fd5b5061080b806100206000396000f3fe608060405234801561001057600080fd5b50600436106100575760003560e01c8063d534ee881461005c578063dc00282c14610078578063dd68afb614610094578063e34f1221146100c4578063f11fe10a146100e0575b600080fd5b61007660048036038101906100719190610598565b6100ea565b005b610092600480360381019061008d919061056b565b610135565b005b6100ae60048036038101906100a9919061056b565b6101b9565b6040516100bb919061067d565b60405180910390f35b6100de60048036038101906100d9919061051e565b6102a2565b005b6100e861036c565b005b60008054905083106100fb57600080fd5b81816000858154811061011157610110610765565b5b9060005260206000209060020201600001919061012f92919061036e565b50505050565b600080549050811061014657600080fd5b6000818154811061015a57610159610765565b5b906000526020600020906002020160010160009054906101000a900460ff16156000828154811061018e5761018d610765565b5b906000526020600020906002020160010160006101000a81548160ff02191690831515021790555050565b6101c16103f4565b600082815481106101d5576101d4610765565b5b90600052602060002090600202016040518060400160405290816000820180546101fe90610704565b80601f016020809104026020016040519081016040528092919081815260200182805461022a90610704565b80156102775780601f1061024c57610100808354040283529160200191610277565b820191906000526020600020905b81548152906001019060200180831161025a57829003601f168201915b505050505081526020016001820160009054906101000a900460ff1615151515815250509050919050565b6000604051806040016040528084848080601f016020809104026020016040519081016040528093929190818152602001838380828437600081840152601f19601f8201169050808301925050505050505081526020016000151581525090806001815401808255809150506001900390600052602060002090600202016000909190919091506000820151816000019080519060200190610345929190610410565b5060208201518160010160006101000a81548160ff02191690831515021790555050505050565b565b82805461037a90610704565b90600052602060002090601f01602090048101928261039c57600085556103e3565b82601f106103b557803560ff19168380011785556103e3565b828001600101855582156103e3579182015b828111156103e25782358255916020019190600101906103c7565b5b5090506103f09190610496565b5090565b6040518060400160405280606081526020016000151581525090565b82805461041c90610704565b90600052602060002090601f01602090048101928261043e5760008555610485565b82601f1061045757805160ff1916838001178555610485565b82800160010185558215610485579182015b82811115610484578251825591602001919060010190610469565b5b5090506104929190610496565b5090565b5b808211156104af576000816000905550600101610497565b5090565b60008083601f8401126104c9576104c8610799565b5b8235905067ffffffffffffffff8111156104e6576104e5610794565b5b6020830191508360018202830111156105025761050161079e565b5b9250929050565b600081359050610518816107be565b92915050565b60008060208385031215610535576105346107a8565b5b600083013567ffffffffffffffff811115610553576105526107a3565b5b61055f858286016104b3565b92509250509250929050565b600060208284031215610581576105806107a8565b5b600061058f84828501610509565b91505092915050565b6000806000604084860312156105b1576105b06107a8565b5b60006105bf86828701610509565b935050602084013567ffffffffffffffff8111156105e0576105df6107a3565b5b6105ec868287016104b3565b92509250509250925092565b610601816106bb565b82525050565b60006106128261069f565b61061c81856106aa565b935061062c8185602086016106d1565b610635816107ad565b840191505092915050565b6000604083016000830151848203600086015261065d8282610607565b915050602083015161067260208601826105f8565b508091505092915050565b600060208201905081810360008301526106978184610640565b905092915050565b600081519050919050565b600082825260208201905092915050565b60008115159050919050565b6000819050919050565b60005b838110156106ef5780820151818401526020810190506106d4565b838111156106fe576000848401525b50505050565b6000600282049050600182168061071c57607f821691505b602082108114156107305761072f610736565b5b50919050565b7f4e487b7100000000000000000000000000000000000000000000000000000000600052602260045260246000fd5b7f4e487b7100000000000000000000000000000000000000000000000000000000600052603260045260246000fd5b600080fd5b600080fd5b600080fd5b600080fd5b600080fd5b6000601f19601f8301169050919050565b6107c7816106c7565b81146107d257600080fd5b5056fea26469706673582212206ddf1f5d743775f5117dcad4d814cef4c135122f95c6b415e94b58236f06c02364736f6c63430008070033",
					"opcodes": "PUSH1 0x80 PUSH1 0x40 MSTORE CALLVALUE DUP1 ISZERO PUSH2 0x10 JUMPI PUSH1 0x0 DUP1 REVERT JUMPDEST POP PUSH2 0x80B DUP1 PUSH2 0x20 PUSH1 0x0 CODECOPY PUSH1 0x0 RETURN INVALID PUSH1 0x80 PUSH1 0x40 MSTORE CALLVALUE DUP1 ISZERO PUSH2 0x10 JUMPI PUSH1 0x0 DUP1 REVERT JUMPDEST POP PUSH1 0x4 CALLDATASIZE LT PUSH2 0x57 JUMPI PUSH1 0x0 CALLDATALOAD PUSH1 0xE0 SHR DUP1 PUSH4 0xD534EE88 EQ PUSH2 0x5C JUMPI DUP1 PUSH4 0xDC00282C EQ PUSH2 0x78 JUMPI DUP1 PUSH4 0xDD68AFB6 EQ PUSH2 0x94 JUMPI DUP1 PUSH4 0xE34F1221 EQ PUSH2 0xC4 JUMPI DUP1 PUSH4 0xF11FE10A EQ PUSH2 0xE0 JUMPI JUMPDEST PUSH1 0x0 DUP1 REVERT JUMPDEST PUSH2 0x76 PUSH1 0x4 DUP1 CALLDATASIZE SUB DUP2 ADD SWAP1 PUSH2 0x71 SWAP2 SWAP1 PUSH2 0x598 JUMP JUMPDEST PUSH2 0xEA JUMP JUMPDEST STOP JUMPDEST PUSH2 0x92 PUSH1 0x4 DUP1 CALLDATASIZE SUB DUP2 ADD SWAP1 PUSH2 0x8D SWAP2 SWAP1 PUSH2 0x56B JUMP JUMPDEST PUSH2 0x135 JUMP JUMPDEST STOP JUMPDEST PUSH2 0xAE PUSH1 0x4 DUP1 CALLDATASIZE SUB DUP2 ADD SWAP1 PUSH2 0xA9 SWAP2 SWAP1 PUSH2 0x56B JUMP JUMPDEST PUSH2 0x1B9 JUMP JUMPDEST PUSH1 0x40 MLOAD PUSH2 0xBB SWAP2 SWAP1 PUSH2 0x67D JUMP JUMPDEST PUSH1 0x40 MLOAD DUP1 SWAP2 SUB SWAP1 RETURN JUMPDEST PUSH2 0xDE PUSH1 0x4 DUP1 CALLDATASIZE SUB DUP2 ADD SWAP1 PUSH2 0xD9 SWAP2 SWAP1 PUSH2 0x51E JUMP JUMPDEST PUSH2 0x2A2 JUMP JUMPDEST STOP JUMPDEST PUSH2 0xE8 PUSH2 0x36C JUMP JUMPDEST STOP JUMPDEST PUSH1 0x0 DUP1 SLOAD SWAP1 POP DUP4 LT PUSH2 0xFB JUMPI PUSH1 0x0 DUP1 REVERT JUMPDEST DUP2 DUP2 PUSH1 0x0 DUP6 DUP2 SLOAD DUP2 LT PUSH2 0x111 JUMPI PUSH2 0x110 PUSH2 0x765 JUMP JUMPDEST JUMPDEST SWAP1 PUSH1 0x0 MSTORE PUSH1 0x20 PUSH1 0x0 KECCAK256 SWAP1 PUSH1 0x2 MUL ADD PUSH1 0x0 ADD SWAP2 SWAP1 PUSH2 0x12F SWAP3 SWAP2 SWAP1 PUSH2 0x36E JUMP JUMPDEST POP POP POP POP JUMP JUMPDEST PUSH1 0x0 DUP1 SLOAD SWAP1 POP DUP2 LT PUSH2 0x146 JUMPI PUSH1 0x0 DUP1 REVERT JUMPDEST PUSH1 0x0 DUP2 DUP2 SLOAD DUP2 LT PUSH2 0x15A JUMPI PUSH2 0x159 PUSH2 0x765 JUMP JUMPDEST JUMPDEST SWAP1 PUSH1 0x0 MSTORE PUSH1 0x20 PUSH1 0x0 KECCAK256 SWAP1 PUSH1 0x2 MUL ADD PUSH1 0x1 ADD PUSH1 0x0 SWAP1 SLOAD SWAP1 PUSH2 0x100 EXP SWAP1 DIV PUSH1 0xFF AND ISZERO PUSH1 0x0 DUP3 DUP2 SLOAD DUP2 LT PUSH2 0x18E JUMPI PUSH2 0x18D PUSH2 0x765 JUMP JUMPDEST JUMPDEST SWAP1 PUSH1 0x0 MSTORE PUSH1 0x20 PUSH1 0x0 KECCAK256 SWAP1 PUSH1 0x2 MUL ADD PUSH1 0x1 ADD PUSH1 0x0 PUSH2 0x100 EXP DUP2 SLOAD DUP2 PUSH1 0xFF MUL NOT AND SWAP1 DUP4 ISZERO ISZERO MUL OR SWAP1 SSTORE POP POP JUMP JUMPDEST PUSH2 0x1C1 PUSH2 0x3F4 JUMP JUMPDEST PUSH1 0x0 DUP3 DUP2 SLOAD DUP2 LT PUSH2 0x1D5 JUMPI PUSH2 0x1D4 PUSH2 0x765 JUMP JUMPDEST JUMPDEST SWAP1 PUSH1 0x0 MSTORE PUSH1 0x20 PUSH1 0x0 KECCAK256 SWAP1 PUSH1 0x2 MUL ADD PUSH1 0x40 MLOAD DUP1 PUSH1 0x40 ADD PUSH1 0x40 MSTORE SWAP1 DUP2 PUSH1 0x0 DUP3 ADD DUP1 SLOAD PUSH2 0x1FE SWAP1 PUSH2 0x704 JUMP JUMPDEST DUP1 PUSH1 0x1F ADD PUSH1 0x20 DUP1 SWAP2 DIV MUL PUSH1 0x20 ADD PUSH1 0x40 MLOAD SWAP1 DUP2 ADD PUSH1 0x40 MSTORE DUP1 SWAP3 SWAP2 SWAP1 DUP2 DUP2 MSTORE PUSH1 0x20 ADD DUP3 DUP1 SLOAD PUSH2 0x22A SWAP1 PUSH2 0x704 JUMP JUMPDEST DUP1 ISZERO PUSH2 0x277 JUMPI DUP1 PUSH1 0x1F LT PUSH2 0x24C JUMPI PUSH2 0x100 DUP1 DUP4 SLOAD DIV MUL DUP4 MSTORE SWAP2 PUSH1 0x20 ADD SWAP2 PUSH2 0x277 JUMP JUMPDEST DUP3 ADD SWAP2 SWAP1 PUSH1 0x0 MSTORE PUSH1 0x20 PUSH1 0x0 KECCAK256 SWAP1 JUMPDEST DUP2 SLOAD DUP2 MSTORE SWAP1 PUSH1 0x1 ADD SWAP1 PUSH1 0x20 ADD DUP1 DUP4 GT PUSH2 0x25A JUMPI DUP3 SWAP1 SUB PUSH1 0x1F AND DUP3 ADD SWAP2 JUMPDEST POP POP POP POP POP DUP2 MSTORE PUSH1 0x20 ADD PUSH1 0x1 DUP3 ADD PUSH1 0x0 SWAP1 SLOAD SWAP1 PUSH2 0x100 EXP SWAP1 DIV PUSH1 0xFF AND ISZERO ISZERO ISZERO ISZERO DUP2 MSTORE POP POP SWAP1 POP SWAP2 SWAP1 POP JUMP JUMPDEST PUSH1 0x0 PUSH1 0x40 MLOAD DUP1 PUSH1 0x40 ADD PUSH1 0x40 MSTORE DUP1 DUP5 DUP5 DUP1 DUP1 PUSH1 0x1F ADD PUSH1 0x20 DUP1 SWAP2 DIV MUL PUSH1 0x20 ADD PUSH1 0x40 MLOAD SWAP1 DUP2 ADD PUSH1 0x40 MSTORE DUP1 SWAP4 SWAP3 SWAP2 SWAP1 DUP2 DUP2 MSTORE PUSH1 0x20 ADD DUP4 DUP4 DUP1 DUP3 DUP5 CALLDATACOPY PUSH1 0x0 DUP2 DUP5 ADD MSTORE PUSH1 0x1F NOT PUSH1 0x1F DUP3 ADD AND SWAP1 POP DUP1 DUP4 ADD SWAP3 POP POP POP POP POP POP POP DUP2 MSTORE PUSH1 0x20 ADD PUSH1 0x0 ISZERO ISZERO DUP2 MSTORE POP SWAP1 DUP1 PUSH1 0x1 DUP2 SLOAD ADD DUP1 DUP3 SSTORE DUP1 SWAP2 POP POP PUSH1 0x1 SWAP1 SUB SWAP1 PUSH1 0x0 MSTORE PUSH1 0x20 PUSH1 0x0 KECCAK256 SWAP1 PUSH1 0x2 MUL ADD PUSH1 0x0 SWAP1 SWAP2 SWAP1 SWAP2 SWAP1 SWAP2 POP PUSH1 0x0 DUP3 ADD MLOAD DUP2 PUSH1 0x0 ADD SWAP1 DUP1 MLOAD SWAP1 PUSH1 0x20 ADD SWAP1 PUSH2 0x345 SWAP3 SWAP2 SWAP1 PUSH2 0x410 JUMP JUMPDEST POP PUSH1 0x20 DUP3 ADD MLOAD DUP2 PUSH1 0x1 ADD PUSH1 0x0 PUSH2 0x100 EXP DUP2 SLOAD DUP2 PUSH1 0xFF MUL NOT AND SWAP1 DUP4 ISZERO ISZERO MUL OR SWAP1 SSTORE POP POP POP POP POP JUMP JUMPDEST JUMP JUMPDEST DUP3 DUP1 SLOAD PUSH2 0x37A SWAP1 PUSH2 0x704 JUMP JUMPDEST SWAP1 PUSH1 0x0 MSTORE PUSH1 0x20 PUSH1 0x0 KECCAK256 SWAP1 PUSH1 0x1F ADD PUSH1 0x20 SWAP1 DIV DUP2 ADD SWAP3 DUP3 PUSH2 0x39C JUMPI PUSH1 0x0 DUP6 SSTORE PUSH2 0x3E3 JUMP JUMPDEST DUP3 PUSH1 0x1F LT PUSH2 0x3B5 JUMPI DUP1 CALLDATALOAD PUSH1 0xFF NOT AND DUP4 DUP1 ADD OR DUP6 SSTORE PUSH2 0x3E3 JUMP JUMPDEST DUP3 DUP1 ADD PUSH1 0x1 ADD DUP6 SSTORE DUP3 ISZERO PUSH2 0x3E3 JUMPI SWAP2 DUP3 ADD JUMPDEST DUP3 DUP2 GT ISZERO PUSH2 0x3E2 JUMPI DUP3 CALLDATALOAD DUP3 SSTORE SWAP2 PUSH1 0x20 ADD SWAP2 SWAP1 PUSH1 0x1 ADD SWAP1 PUSH2 0x3C7 JUMP JUMPDEST JUMPDEST POP SWAP1 POP PUSH2 0x3F0 SWAP2 SWAP1 PUSH2 0x496 JUMP JUMPDEST POP SWAP1 JUMP JUMPDEST PUSH1 0x40 MLOAD DUP1 PUSH1 0x40 ADD PUSH1 0x40 MSTORE DUP1 PUSH1 0x60 DUP2 MSTORE PUSH1 0x20 ADD PUSH1 0x0 ISZERO ISZERO DUP2 MSTORE POP SWAP1 JUMP JUMPDEST DUP3 DUP1 SLOAD PUSH2 0x41C SWAP1 PUSH2 0x704 JUMP JUMPDEST SWAP1 PUSH1 0x0 MSTORE PUSH1 0x20 PUSH1 0x0 KECCAK256 SWAP1 PUSH1 0x1F ADD PUSH1 0x20 SWAP1 DIV DUP2 ADD SWAP3 DUP3 PUSH2 0x43E JUMPI PUSH1 0x0 DUP6 SSTORE PUSH2 0x485 JUMP JUMPDEST DUP3 PUSH1 0x1F LT PUSH2 0x457 JUMPI DUP1 MLOAD PUSH1 0xFF NOT AND DUP4 DUP1 ADD OR DUP6 SSTORE PUSH2 0x485 JUMP JUMPDEST DUP3 DUP1 ADD PUSH1 0x1 ADD DUP6 SSTORE DUP3 ISZERO PUSH2 0x485 JUMPI SWAP2 DUP3 ADD JUMPDEST DUP3 DUP2 GT ISZERO PUSH2 0x484 JUMPI DUP3 MLOAD DUP3 SSTORE SWAP2 PUSH1 0x20 ADD SWAP2 SWAP1 PUSH1 0x1 ADD SWAP1 PUSH2 0x469 JUMP JUMPDEST JUMPDEST POP SWAP1 POP PUSH2 0x492 SWAP2 SWAP1 PUSH2 0x496 JUMP JUMPDEST POP SWAP1 JUMP JUMPDEST JUMPDEST DUP1 DUP3 GT ISZERO PUSH2 0x4AF JUMPI PUSH1 0x0 DUP2 PUSH1 0x0 SWAP1 SSTORE POP PUSH1 0x1 ADD PUSH2 0x497 JUMP JUMPDEST POP SWAP1 JUMP JUMPDEST PUSH1 0x0 DUP1 DUP4 PUSH1 0x1F DUP5 ADD SLT PUSH2 0x4C9 JUMPI PUSH2 0x4C8 PUSH2 0x799 JUMP JUMPDEST JUMPDEST DUP3 CALLDATALOAD SWAP1 POP PUSH8 0xFFFFFFFFFFFFFFFF DUP2 GT ISZERO PUSH2 0x4E6 JUMPI PUSH2 0x4E5 PUSH2 0x794 JUMP JUMPDEST JUMPDEST PUSH1 0x20 DUP4 ADD SWAP2 POP DUP4 PUSH1 0x1 DUP3 MUL DUP4 ADD GT ISZERO PUSH2 0x502 JUMPI PUSH2 0x501 PUSH2 0x79E JUMP JUMPDEST JUMPDEST SWAP3 POP SWAP3 SWAP1 POP JUMP JUMPDEST PUSH1 0x0 DUP2 CALLDATALOAD SWAP1 POP PUSH2 0x518 DUP2 PUSH2 0x7BE JUMP JUMPDEST SWAP3 SWAP2 POP POP JUMP JUMPDEST PUSH1 0x0 DUP1 PUSH1 0x20 DUP4 DUP6 SUB SLT ISZERO PUSH2 0x535 JUMPI PUSH2 0x534 PUSH2 0x7A8 JUMP JUMPDEST JUMPDEST PUSH1 0x0 DUP4 ADD CALLDATALOAD PUSH8 0xFFFFFFFFFFFFFFFF DUP2 GT ISZERO PUSH2 0x553 JUMPI PUSH2 0x552 PUSH2 0x7A3 JUMP JUMPDEST JUMPDEST PUSH2 0x55F DUP6 DUP3 DUP7 ADD PUSH2 0x4B3 JUMP JUMPDEST SWAP3 POP SWAP3 POP POP SWAP3 POP SWAP3 SWAP1 POP JUMP JUMPDEST PUSH1 0x0 PUSH1 0x20 DUP3 DUP5 SUB SLT ISZERO PUSH2 0x581 JUMPI PUSH2 0x580 PUSH2 0x7A8 JUMP JUMPDEST JUMPDEST PUSH1 0x0 PUSH2 0x58F DUP5 DUP3 DUP6 ADD PUSH2 0x509 JUMP JUMPDEST SWAP2 POP POP SWAP3 SWAP2 POP POP JUMP JUMPDEST PUSH1 0x0 DUP1 PUSH1 0x0 PUSH1 0x40 DUP5 DUP7 SUB SLT ISZERO PUSH2 0x5B1 JUMPI PUSH2 0x5B0 PUSH2 0x7A8 JUMP JUMPDEST JUMPDEST PUSH1 0x0 PUSH2 0x5BF DUP7 DUP3 DUP8 ADD PUSH2 0x509 JUMP JUMPDEST SWAP4 POP POP PUSH1 0x20 DUP5 ADD CALLDATALOAD PUSH8 0xFFFFFFFFFFFFFFFF DUP2 GT ISZERO PUSH2 0x5E0 JUMPI PUSH2 0x5DF PUSH2 0x7A3 JUMP JUMPDEST JUMPDEST PUSH2 0x5EC DUP7 DUP3 DUP8 ADD PUSH2 0x4B3 JUMP JUMPDEST SWAP3 POP SWAP3 POP POP SWAP3 POP SWAP3 POP SWAP3 JUMP JUMPDEST PUSH2 0x601 DUP2 PUSH2 0x6BB JUMP JUMPDEST DUP3 MSTORE POP POP JUMP JUMPDEST PUSH1 0x0 PUSH2 0x612 DUP3 PUSH2 0x69F JUMP JUMPDEST PUSH2 0x61C DUP2 DUP6 PUSH2 0x6AA JUMP JUMPDEST SWAP4 POP PUSH2 0x62C DUP2 DUP6 PUSH1 0x20 DUP7 ADD PUSH2 0x6D1 JUMP JUMPDEST PUSH2 0x635 DUP2 PUSH2 0x7AD JUMP JUMPDEST DUP5 ADD SWAP2 POP POP SWAP3 SWAP2 POP POP JUMP JUMPDEST PUSH1 0x0 PUSH1 0x40 DUP4 ADD PUSH1 0x0 DUP4 ADD MLOAD DUP5 DUP3 SUB PUSH1 0x0 DUP7 ADD MSTORE PUSH2 0x65D DUP3 DUP3 PUSH2 0x607 JUMP JUMPDEST SWAP2 POP POP PUSH1 0x20 DUP4 ADD MLOAD PUSH2 0x672 PUSH1 0x20 DUP7 ADD DUP3 PUSH2 0x5F8 JUMP JUMPDEST POP DUP1 SWAP2 POP POP SWAP3 SWAP2 POP POP JUMP JUMPDEST PUSH1 0x0 PUSH1 0x20 DUP3 ADD SWAP1 POP DUP2 DUP2 SUB PUSH1 0x0 DUP4 ADD MSTORE PUSH2 0x697 DUP2 DUP5 PUSH2 0x640 JUMP JUMPDEST SWAP1 POP SWAP3 SWAP2 POP POP JUMP JUMPDEST PUSH1 0x0 DUP2 MLOAD SWAP1 POP SWAP2 SWAP1 POP JUMP JUMPDEST PUSH1 0x0 DUP3 DUP3 MSTORE PUSH1 0x20 DUP3 ADD SWAP1 POP SWAP3 SWAP2 POP POP JUMP JUMPDEST PUSH1 0x0 DUP2 ISZERO ISZERO SWAP1 POP SWAP2 SWAP1 POP JUMP JUMPDEST PUSH1 0x0 DUP2 SWAP1 POP SWAP2 SWAP1 POP JUMP JUMPDEST PUSH1 0x0 JUMPDEST DUP4 DUP2 LT ISZERO PUSH2 0x6EF JUMPI DUP1 DUP3 ADD MLOAD DUP2 DUP5 ADD MSTORE PUSH1 0x20 DUP2 ADD SWAP1 POP PUSH2 0x6D4 JUMP JUMPDEST DUP4 DUP2 GT ISZERO PUSH2 0x6FE JUMPI PUSH1 0x0 DUP5 DUP5 ADD MSTORE JUMPDEST POP POP POP POP JUMP JUMPDEST PUSH1 0x0 PUSH1 0x2 DUP3 DIV SWAP1 POP PUSH1 0x1 DUP3 AND DUP1 PUSH2 0x71C JUMPI PUSH1 0x7F DUP3 AND SWAP2 POP JUMPDEST PUSH1 0x20 DUP3 LT DUP2 EQ ISZERO PUSH2 0x730 JUMPI PUSH2 0x72F PUSH2 0x736 JUMP JUMPDEST JUMPDEST POP SWAP2 SWAP1 POP JUMP JUMPDEST PUSH32 0x4E487B7100000000000000000000000000000000000000000000000000000000 PUSH1 0x0 MSTORE PUSH1 0x22 PUSH1 0x4 MSTORE PUSH1 0x24 PUSH1 0x0 REVERT JUMPDEST PUSH32 0x4E487B7100000000000000000000000000000000000000000000000000000000 PUSH1 0x0 MSTORE PUSH1 0x32 PUSH1 0x4 MSTORE PUSH1 0x24 PUSH1 0x0 REVERT JUMPDEST PUSH1 0x0 DUP1 REVERT JUMPDEST PUSH1 0x0 DUP1 REVERT JUMPDEST PUSH1 0x0 DUP1 REVERT JUMPDEST PUSH1 0x0 DUP1 REVERT JUMPDEST PUSH1 0x0 DUP1 REVERT JUMPDEST PUSH1 0x0 PUSH1 0x1F NOT PUSH1 0x1F DUP4 ADD AND SWAP1 POP SWAP2 SWAP1 POP JUMP JUMPDEST PUSH2 0x7C7 DUP2 PUSH2 0x6C7 JUMP JUMPDEST DUP2 EQ PUSH2 0x7D2 JUMPI PUSH1 0x0 DUP1 REVERT JUMPDEST POP JUMP INVALID LOG2 PUSH5 0x6970667358 0x22 SLT KECCAK256 PUSH14 0xDF1F5D743775F5117DCAD4D814CE DELEGATECALL 0xC1 CALLDATALOAD SLT 0x2F SWAP6 0xC6 0xB4 ISZERO 0xE9 0x4B PC 0x23 PUSH16 0x6C02364736F6C634300080700330000 "
				},
				"gasEstimates": {
					"creation": {
						"codeDepositCost": "411800",
						"executionCost": "449",
						"totalCost": "412249"
					},
					"external": {
						"createTodo(string)": "infinite",
						"deleteTodo()": "210",
						"getTodo(uint256)": "infinite",
						"toggleTodo(uint256)": "33337",
						"updateTodo(uint256,string)": "infinite"
					}
				},
				"methodIdentifiers": {
					"createTodo(string)": "e34f1221",
					"deleteTodo()": "f11fe10a",
					"getTodo(uint256)": "dd68afb6",
					"toggleTodo(uint256)": "dc00282c",
					"updateTodo(uint256,string)": "d534ee88"
				}
			},
			"storageLayout": {
				"storage": [
					{
						"astId": 10,
						"contract": "Week5/TodoList.sol:TodoList",
						"label": "todoList",
						"offset": 0,
						"slot": "0",
						"type": "t_array(t_struct(Todo)6_storage)dyn_storage"
					}
				],
				"types": {
					"t_array(t_struct(Todo)6_storage)dyn_storage": {
						"base": "t_struct(Todo)6_storage",
						"encoding": "dynamic_array",
						"label": "struct TodoList.Todo[]",
						"numberOfBytes": "32"
					},
					"t_bool": {
						"encoding": "inplace",
						"label": "bool",
						"numberOfBytes": "1"
					},
					"t_string_storage": {
						"encoding": "bytes",
						"label": "string",
						"numberOfBytes": "32"
					},
					"t_struct(Todo)6_storage": {
						"encoding": "inplace",
						"label": "struct TodoList.Todo",
						"members": [
							{
								"astId": 3,
								"contract": "Week5/TodoList.sol:TodoList",
								"label": "text",
								"offset": 0,
								"slot": "0",
								"type": "t_string_storage"
							},
							{
								"astId": 5,
								"contract": "Week5/TodoList.sol:TodoList",
								"label": "isCheck",
								"offset": 0,
								"slot": "1",
								"type": "t_bool"
							}
						],
						"numberOfBytes": "64"
					}
				}
			},
			"userdoc": {
				"kind": "user",
				"methods": {},
				"version": 1
			}
		}
	}
}