{
	"Week5/Caller.sol": {
		"Caller": {
			"abi": [
				{
					"inputs": [],
					"name": "CallFailed",
					"type": "error"
				},
				{
					"inputs": [
						{
							"internalType": "address",
							"name": "_to",
							"type": "address"
						},
						{
							"internalType": "uint256",
							"name": "a",
							"type": "uint256"
						},
						{
							"internalType": "uint256",
							"name": "b",
							"type": "uint256"
						}
					],
					"name": "call",
					"outputs": [
						{
							"internalType": "bytes",
							"name": "",
							"type": "bytes"
						}
					],
					"stateMutability": "nonpayable",
					"type": "function"
				},
				{
					"inputs": [
						{
							"internalType": "address",
							"name": "_to",
							"type": "address"
						},
						{
							"internalType": "uint256",
							"name": "a",
							"type": "uint256"
						},
						{
							"internalType": "uint256",
							"name": "b",
							"type": "uint256"
						}
					],
					"name": "delegatecall",
					"outputs": [
						{
							"internalType": "bytes",
							"name": "",
							"type": "bytes"
						}
					],
					"stateMutability": "nonpayable",
					"type": "function"
				}
			],
			"devdoc": {
				"kind": "dev",
				"methods": {},
				"version": 1
			},
			"evm": {
				"assembly": "    /* \"Week5/Caller.sol\":91:689  contract Caller {... */\n  mstore(0x40, 0x80)\n  callvalue\n  dup1\n  iszero\n  tag_1\n  jumpi\n  0x00\n  dup1\n  revert\ntag_1:\n  pop\n  dataSize(sub_0)\n  dup1\n  dataOffset(sub_0)\n  0x00\n  codecopy\n  0x00\n  return\nstop\n\nsub_0: assembly {\n        /* \"Week5/Caller.sol\":91:689  contract Caller {... */\n      mstore(0x40, 0x80)\n      callvalue\n      dup1\n      iszero\n      tag_1\n      jumpi\n      0x00\n      dup1\n      revert\n    tag_1:\n      pop\n      jumpi(tag_2, lt(calldatasize, 0x04))\n      shr(0xe0, calldataload(0x00))\n      dup1\n      0x5064d83a\n      eq\n      tag_3\n      jumpi\n      dup1\n      0x9126f99c\n      eq\n      tag_4\n      jumpi\n    tag_2:\n      0x00\n      dup1\n      revert\n        /* \"Week5/Caller.sol\":113:389  function call(address _to, uint a, uint b) external returns(bytes memory) {... */\n    tag_3:\n      tag_5\n      0x04\n      dup1\n      calldatasize\n      sub\n      dup2\n      add\n      swap1\n      tag_6\n      swap2\n      swap1\n      tag_7\n      jump\t// in\n    tag_6:\n      tag_8\n      jump\t// in\n    tag_5:\n      mload(0x40)\n      tag_9\n      swap2\n      swap1\n      tag_10\n      jump\t// in\n    tag_9:\n      mload(0x40)\n      dup1\n      swap2\n      sub\n      swap1\n      return\n        /* \"Week5/Caller.sol\":395:687  function delegatecall(address _to, uint a, uint b) external returns(bytes memory) {... */\n    tag_4:\n      tag_11\n      0x04\n      dup1\n      calldatasize\n      sub\n      dup2\n      add\n      swap1\n      tag_12\n      swap2\n      swap1\n      tag_7\n      jump\t// in\n    tag_12:\n      tag_13\n      jump\t// in\n    tag_11:\n      mload(0x40)\n      tag_14\n      swap2\n      swap1\n      tag_10\n      jump\t// in\n    tag_14:\n      mload(0x40)\n      dup1\n      swap2\n      sub\n      swap1\n      return\n        /* \"Week5/Caller.sol\":113:389  function call(address _to, uint a, uint b) external returns(bytes memory) {... */\n    tag_8:\n        /* \"Week5/Caller.sol\":173:185  bytes memory */\n      0x60\n        /* \"Week5/Caller.sol\":198:210  bool success */\n      0x00\n        /* \"Week5/Caller.sol\":212:229  bytes memory data */\n      dup1\n        /* \"Week5/Caller.sol\":233:236  _to */\n      dup6\n        /* \"Week5/Caller.sol\":233:241  _to.call */\n      0xffffffffffffffffffffffffffffffffffffffff\n      and\n        /* \"Week5/Caller.sol\":290:291  a */\n      dup6\n        /* \"Week5/Caller.sol\":293:294  b */\n      dup6\n        /* \"Week5/Caller.sol\":242:295  abi.encodeWithSignature(\"sum(uint256,uint256)\", a, b) */\n      add(0x24, mload(0x40))\n      tag_16\n      swap3\n      swap2\n      swap1\n      tag_17\n      jump\t// in\n    tag_16:\n      mload(0x40)\n      0x20\n      dup2\n      dup4\n      sub\n      sub\n      dup2\n      mstore\n      swap1\n      0x40\n      mstore\n      and(not(0xffffffffffffffffffffffffffffffffffffffffffffffffffffffff), 0xcad0899b00000000000000000000000000000000000000000000000000000000)\n      0x20\n      dup3\n      add\n      dup1\n      mload\n      0xffffffffffffffffffffffffffffffffffffffffffffffffffffffff\n      dup4\n      dup2\n      dup4\n      and\n      or\n      dup4\n      mstore\n      pop\n      pop\n      pop\n      pop\n        /* \"Week5/Caller.sol\":233:296  _to.call(abi.encodeWithSignature(\"sum(uint256,uint256)\", a, b)) */\n      mload(0x40)\n      tag_18\n      swap2\n      swap1\n      tag_19\n      jump\t// in\n    tag_18:\n      0x00\n      mload(0x40)\n      dup1\n      dup4\n      sub\n      dup2\n      0x00\n      dup7\n      gas\n      call\n      swap2\n      pop\n      pop\n      returndatasize\n      dup1\n      0x00\n      dup2\n      eq\n      tag_22\n      jumpi\n      mload(0x40)\n      swap2\n      pop\n      and(add(returndatasize, 0x3f), not(0x1f))\n      dup3\n      add\n      0x40\n      mstore\n      returndatasize\n      dup3\n      mstore\n      returndatasize\n      0x00\n      0x20\n      dup5\n      add\n      returndatacopy\n      jump(tag_21)\n    tag_22:\n      0x60\n      swap2\n      pop\n    tag_21:\n      pop\n        /* \"Week5/Caller.sol\":197:296  (bool success, bytes memory data) = _to.call(abi.encodeWithSignature(\"sum(uint256,uint256)\", a, b)) */\n      swap2\n      pop\n      swap2\n      pop\n        /* \"Week5/Caller.sol\":310:317  success */\n      dup2\n        /* \"Week5/Caller.sol\":306:362  if(!success){... */\n      tag_23\n      jumpi\n        /* \"Week5/Caller.sol\":339:351  CallFailed() */\n      mload(0x40)\n      0x3204506f00000000000000000000000000000000000000000000000000000000\n      dup2\n      mstore\n      0x04\n      add\n      mload(0x40)\n      dup1\n      swap2\n      sub\n      swap1\n      revert\n        /* \"Week5/Caller.sol\":306:362  if(!success){... */\n    tag_23:\n        /* \"Week5/Caller.sol\":378:382  data */\n      dup1\n        /* \"Week5/Caller.sol\":371:382  return data */\n      swap3\n      pop\n      pop\n      pop\n        /* \"Week5/Caller.sol\":113:389  function call(address _to, uint a, uint b) external returns(bytes memory) {... */\n      swap4\n      swap3\n      pop\n      pop\n      pop\n      jump\t// out\n        /* \"Week5/Caller.sol\":395:687  function delegatecall(address _to, uint a, uint b) external returns(bytes memory) {... */\n    tag_13:\n        /* \"Week5/Caller.sol\":463:475  bytes memory */\n      0x60\n        /* \"Week5/Caller.sol\":488:500  bool success */\n      0x00\n        /* \"Week5/Caller.sol\":502:519  bytes memory data */\n      dup1\n        /* \"Week5/Caller.sol\":523:526  _to */\n      dup6\n        /* \"Week5/Caller.sol\":523:539  _to.delegatecall */\n      0xffffffffffffffffffffffffffffffffffffffff\n      and\n        /* \"Week5/Caller.sol\":588:589  a */\n      dup6\n        /* \"Week5/Caller.sol\":591:592  b */\n      dup6\n        /* \"Week5/Caller.sol\":540:593  abi.encodeWithSignature(\"sum(uint256,uint256)\", a, b) */\n      add(0x24, mload(0x40))\n      tag_25\n      swap3\n      swap2\n      swap1\n      tag_17\n      jump\t// in\n    tag_25:\n      mload(0x40)\n      0x20\n      dup2\n      dup4\n      sub\n      sub\n      dup2\n      mstore\n      swap1\n      0x40\n      mstore\n      and(not(0xffffffffffffffffffffffffffffffffffffffffffffffffffffffff), 0xcad0899b00000000000000000000000000000000000000000000000000000000)\n      0x20\n      dup3\n      add\n      dup1\n      mload\n      0xffffffffffffffffffffffffffffffffffffffffffffffffffffffff\n      dup4\n      dup2\n      dup4\n      and\n      or\n      dup4\n      mstore\n      pop\n      pop\n      pop\n      pop\n        /* \"Week5/Caller.sol\":523:594  _to.delegatecall(abi.encodeWithSignature(\"sum(uint256,uint256)\", a, b)) */\n      mload(0x40)\n      tag_26\n      swap2\n      swap1\n      tag_19\n      jump\t// in\n    tag_26:\n      0x00\n      mload(0x40)\n      dup1\n      dup4\n      sub\n      dup2\n      dup6\n      gas\n      delegatecall\n      swap2\n      pop\n      pop\n      returndatasize\n      dup1\n      0x00\n      dup2\n      eq\n      tag_29\n      jumpi\n      mload(0x40)\n      swap2\n      pop\n      and(add(returndatasize, 0x3f), not(0x1f))\n      dup3\n      add\n      0x40\n      mstore\n      returndatasize\n      dup3\n      mstore\n      returndatasize\n      0x00\n      0x20\n      dup5\n      add\n      returndatacopy\n      jump(tag_28)\n    tag_29:\n      0x60\n      swap2\n      pop\n    tag_28:\n      pop\n        /* \"Week5/Caller.sol\":487:594  (bool success, bytes memory data) = _to.delegatecall(abi.encodeWithSignature(\"sum(uint256,uint256)\", a, b)) */\n      swap2\n      pop\n      swap2\n      pop\n        /* \"Week5/Caller.sol\":608:615  success */\n      dup2\n        /* \"Week5/Caller.sol\":604:660  if(!success){... */\n      tag_30\n      jumpi\n        /* \"Week5/Caller.sol\":637:649  CallFailed() */\n      mload(0x40)\n      0x3204506f00000000000000000000000000000000000000000000000000000000\n      dup2\n      mstore\n      0x04\n      add\n      mload(0x40)\n      dup1\n      swap2\n      sub\n      swap1\n      revert\n        /* \"Week5/Caller.sol\":604:660  if(!success){... */\n    tag_30:\n        /* \"Week5/Caller.sol\":676:680  data */\n      dup1\n        /* \"Week5/Caller.sol\":669:680  return data */\n      swap3\n      pop\n      pop\n      pop\n        /* \"Week5/Caller.sol\":395:687  function delegatecall(address _to, uint a, uint b) external returns(bytes memory) {... */\n      swap4\n      swap3\n      pop\n      pop\n      pop\n      jump\t// out\n        /* \"#utility.yul\":88:205   */\n    tag_32:\n        /* \"#utility.yul\":197:198   */\n      0x00\n        /* \"#utility.yul\":194:195   */\n      dup1\n        /* \"#utility.yul\":187:199   */\n      revert\n        /* \"#utility.yul\":334:460   */\n    tag_34:\n        /* \"#utility.yul\":371:378   */\n      0x00\n        /* \"#utility.yul\":411:453   */\n      0xffffffffffffffffffffffffffffffffffffffff\n        /* \"#utility.yul\":404:409   */\n      dup3\n        /* \"#utility.yul\":400:454   */\n      and\n        /* \"#utility.yul\":389:454   */\n      swap1\n      pop\n        /* \"#utility.yul\":334:460   */\n      swap2\n      swap1\n      pop\n      jump\t// out\n        /* \"#utility.yul\":466:562   */\n    tag_35:\n        /* \"#utility.yul\":503:510   */\n      0x00\n        /* \"#utility.yul\":532:556   */\n      tag_55\n        /* \"#utility.yul\":550:555   */\n      dup3\n        /* \"#utility.yul\":532:556   */\n      tag_34\n      jump\t// in\n    tag_55:\n        /* \"#utility.yul\":521:556   */\n      swap1\n      pop\n        /* \"#utility.yul\":466:562   */\n      swap2\n      swap1\n      pop\n      jump\t// out\n        /* \"#utility.yul\":568:690   */\n    tag_36:\n        /* \"#utility.yul\":641:665   */\n      tag_57\n        /* \"#utility.yul\":659:664   */\n      dup2\n        /* \"#utility.yul\":641:665   */\n      tag_35\n      jump\t// in\n    tag_57:\n        /* \"#utility.yul\":634:639   */\n      dup2\n        /* \"#utility.yul\":631:666   */\n      eq\n        /* \"#utility.yul\":621:684   */\n      tag_58\n      jumpi\n        /* \"#utility.yul\":680:681   */\n      0x00\n        /* \"#utility.yul\":677:678   */\n      dup1\n        /* \"#utility.yul\":670:682   */\n      revert\n        /* \"#utility.yul\":621:684   */\n    tag_58:\n        /* \"#utility.yul\":568:690   */\n      pop\n      jump\t// out\n        /* \"#utility.yul\":696:835   */\n    tag_37:\n        /* \"#utility.yul\":742:747   */\n      0x00\n        /* \"#utility.yul\":780:786   */\n      dup2\n        /* \"#utility.yul\":767:787   */\n      calldataload\n        /* \"#utility.yul\":758:787   */\n      swap1\n      pop\n        /* \"#utility.yul\":796:829   */\n      tag_60\n        /* \"#utility.yul\":823:828   */\n      dup2\n        /* \"#utility.yul\":796:829   */\n      tag_36\n      jump\t// in\n    tag_60:\n        /* \"#utility.yul\":696:835   */\n      swap3\n      swap2\n      pop\n      pop\n      jump\t// out\n        /* \"#utility.yul\":841:918   */\n    tag_38:\n        /* \"#utility.yul\":878:885   */\n      0x00\n        /* \"#utility.yul\":907:912   */\n      dup2\n        /* \"#utility.yul\":896:912   */\n      swap1\n      pop\n        /* \"#utility.yul\":841:918   */\n      swap2\n      swap1\n      pop\n      jump\t// out\n        /* \"#utility.yul\":924:1046   */\n    tag_39:\n        /* \"#utility.yul\":997:1021   */\n      tag_63\n        /* \"#utility.yul\":1015:1020   */\n      dup2\n        /* \"#utility.yul\":997:1021   */\n      tag_38\n      jump\t// in\n    tag_63:\n        /* \"#utility.yul\":990:995   */\n      dup2\n        /* \"#utility.yul\":987:1022   */\n      eq\n        /* \"#utility.yul\":977:1040   */\n      tag_64\n      jumpi\n        /* \"#utility.yul\":1036:1037   */\n      0x00\n        /* \"#utility.yul\":1033:1034   */\n      dup1\n        /* \"#utility.yul\":1026:1038   */\n      revert\n        /* \"#utility.yul\":977:1040   */\n    tag_64:\n        /* \"#utility.yul\":924:1046   */\n      pop\n      jump\t// out\n        /* \"#utility.yul\":1052:1191   */\n    tag_40:\n        /* \"#utility.yul\":1098:1103   */\n      0x00\n        /* \"#utility.yul\":1136:1142   */\n      dup2\n        /* \"#utility.yul\":1123:1143   */\n      calldataload\n        /* \"#utility.yul\":1114:1143   */\n      swap1\n      pop\n        /* \"#utility.yul\":1152:1185   */\n      tag_66\n        /* \"#utility.yul\":1179:1184   */\n      dup2\n        /* \"#utility.yul\":1152:1185   */\n      tag_39\n      jump\t// in\n    tag_66:\n        /* \"#utility.yul\":1052:1191   */\n      swap3\n      swap2\n      pop\n      pop\n      jump\t// out\n        /* \"#utility.yul\":1197:1816   */\n    tag_7:\n        /* \"#utility.yul\":1274:1280   */\n      0x00\n        /* \"#utility.yul\":1282:1288   */\n      dup1\n        /* \"#utility.yul\":1290:1296   */\n      0x00\n        /* \"#utility.yul\":1339:1341   */\n      0x60\n        /* \"#utility.yul\":1327:1336   */\n      dup5\n        /* \"#utility.yul\":1318:1325   */\n      dup7\n        /* \"#utility.yul\":1314:1337   */\n      sub\n        /* \"#utility.yul\":1310:1342   */\n      slt\n        /* \"#utility.yul\":1307:1426   */\n      iszero\n      tag_68\n      jumpi\n        /* \"#utility.yul\":1345:1424   */\n      tag_69\n      tag_32\n      jump\t// in\n    tag_69:\n        /* \"#utility.yul\":1307:1426   */\n    tag_68:\n        /* \"#utility.yul\":1465:1466   */\n      0x00\n        /* \"#utility.yul\":1490:1543   */\n      tag_70\n        /* \"#utility.yul\":1535:1542   */\n      dup7\n        /* \"#utility.yul\":1526:1532   */\n      dup3\n        /* \"#utility.yul\":1515:1524   */\n      dup8\n        /* \"#utility.yul\":1511:1533   */\n      add\n        /* \"#utility.yul\":1490:1543   */\n      tag_37\n      jump\t// in\n    tag_70:\n        /* \"#utility.yul\":1480:1543   */\n      swap4\n      pop\n        /* \"#utility.yul\":1436:1553   */\n      pop\n        /* \"#utility.yul\":1592:1594   */\n      0x20\n        /* \"#utility.yul\":1618:1671   */\n      tag_71\n        /* \"#utility.yul\":1663:1670   */\n      dup7\n        /* \"#utility.yul\":1654:1660   */\n      dup3\n        /* \"#utility.yul\":1643:1652   */\n      dup8\n        /* \"#utility.yul\":1639:1661   */\n      add\n        /* \"#utility.yul\":1618:1671   */\n      tag_40\n      jump\t// in\n    tag_71:\n        /* \"#utility.yul\":1608:1671   */\n      swap3\n      pop\n        /* \"#utility.yul\":1563:1681   */\n      pop\n        /* \"#utility.yul\":1720:1722   */\n      0x40\n        /* \"#utility.yul\":1746:1799   */\n      tag_72\n        /* \"#utility.yul\":1791:1798   */\n      dup7\n        /* \"#utility.yul\":1782:1788   */\n      dup3\n        /* \"#utility.yul\":1771:1780   */\n      dup8\n        /* \"#utility.yul\":1767:1789   */\n      add\n        /* \"#utility.yul\":1746:1799   */\n      tag_40\n      jump\t// in\n    tag_72:\n        /* \"#utility.yul\":1736:1799   */\n      swap2\n      pop\n        /* \"#utility.yul\":1691:1809   */\n      pop\n        /* \"#utility.yul\":1197:1816   */\n      swap3\n      pop\n      swap3\n      pop\n      swap3\n      jump\t// out\n        /* \"#utility.yul\":1822:1920   */\n    tag_41:\n        /* \"#utility.yul\":1873:1879   */\n      0x00\n        /* \"#utility.yul\":1907:1912   */\n      dup2\n        /* \"#utility.yul\":1901:1913   */\n      mload\n        /* \"#utility.yul\":1891:1913   */\n      swap1\n      pop\n        /* \"#utility.yul\":1822:1920   */\n      swap2\n      swap1\n      pop\n      jump\t// out\n        /* \"#utility.yul\":1926:2094   */\n    tag_42:\n        /* \"#utility.yul\":2009:2020   */\n      0x00\n        /* \"#utility.yul\":2043:2049   */\n      dup3\n        /* \"#utility.yul\":2038:2041   */\n      dup3\n        /* \"#utility.yul\":2031:2050   */\n      mstore\n        /* \"#utility.yul\":2083:2087   */\n      0x20\n        /* \"#utility.yul\":2078:2081   */\n      dup3\n        /* \"#utility.yul\":2074:2088   */\n      add\n        /* \"#utility.yul\":2059:2088   */\n      swap1\n      pop\n        /* \"#utility.yul\":1926:2094   */\n      swap3\n      swap2\n      pop\n      pop\n      jump\t// out\n        /* \"#utility.yul\":2100:2346   */\n    tag_43:\n        /* \"#utility.yul\":2181:2182   */\n      0x00\n        /* \"#utility.yul\":2191:2304   */\n    tag_76:\n        /* \"#utility.yul\":2205:2211   */\n      dup4\n        /* \"#utility.yul\":2202:2203   */\n      dup2\n        /* \"#utility.yul\":2199:2212   */\n      lt\n        /* \"#utility.yul\":2191:2304   */\n      iszero\n      tag_78\n      jumpi\n        /* \"#utility.yul\":2290:2291   */\n      dup1\n        /* \"#utility.yul\":2285:2288   */\n      dup3\n        /* \"#utility.yul\":2281:2292   */\n      add\n        /* \"#utility.yul\":2275:2293   */\n      mload\n        /* \"#utility.yul\":2271:2272   */\n      dup2\n        /* \"#utility.yul\":2266:2269   */\n      dup5\n        /* \"#utility.yul\":2262:2273   */\n      add\n        /* \"#utility.yul\":2255:2294   */\n      mstore\n        /* \"#utility.yul\":2227:2229   */\n      0x20\n        /* \"#utility.yul\":2224:2225   */\n      dup2\n        /* \"#utility.yul\":2220:2230   */\n      add\n        /* \"#utility.yul\":2215:2230   */\n      swap1\n      pop\n        /* \"#utility.yul\":2191:2304   */\n      jump(tag_76)\n    tag_78:\n        /* \"#utility.yul\":2338:2339   */\n      0x00\n        /* \"#utility.yul\":2329:2335   */\n      dup5\n        /* \"#utility.yul\":2324:2327   */\n      dup5\n        /* \"#utility.yul\":2320:2336   */\n      add\n        /* \"#utility.yul\":2313:2340   */\n      mstore\n        /* \"#utility.yul\":2162:2346   */\n      pop\n        /* \"#utility.yul\":2100:2346   */\n      pop\n      pop\n      pop\n      jump\t// out\n        /* \"#utility.yul\":2352:2454   */\n    tag_44:\n        /* \"#utility.yul\":2393:2399   */\n      0x00\n        /* \"#utility.yul\":2444:2446   */\n      0x1f\n        /* \"#utility.yul\":2440:2447   */\n      not\n        /* \"#utility.yul\":2435:2437   */\n      0x1f\n        /* \"#utility.yul\":2428:2433   */\n      dup4\n        /* \"#utility.yul\":2424:2438   */\n      add\n        /* \"#utility.yul\":2420:2448   */\n      and\n        /* \"#utility.yul\":2410:2448   */\n      swap1\n      pop\n        /* \"#utility.yul\":2352:2454   */\n      swap2\n      swap1\n      pop\n      jump\t// out\n        /* \"#utility.yul\":2460:2833   */\n    tag_45:\n        /* \"#utility.yul\":2546:2549   */\n      0x00\n        /* \"#utility.yul\":2574:2612   */\n      tag_81\n        /* \"#utility.yul\":2606:2611   */\n      dup3\n        /* \"#utility.yul\":2574:2612   */\n      tag_41\n      jump\t// in\n    tag_81:\n        /* \"#utility.yul\":2628:2698   */\n      tag_82\n        /* \"#utility.yul\":2691:2697   */\n      dup2\n        /* \"#utility.yul\":2686:2689   */\n      dup6\n        /* \"#utility.yul\":2628:2698   */\n      tag_42\n      jump\t// in\n    tag_82:\n        /* \"#utility.yul\":2621:2698   */\n      swap4\n      pop\n        /* \"#utility.yul\":2707:2772   */\n      tag_83\n        /* \"#utility.yul\":2765:2771   */\n      dup2\n        /* \"#utility.yul\":2760:2763   */\n      dup6\n        /* \"#utility.yul\":2753:2757   */\n      0x20\n        /* \"#utility.yul\":2746:2751   */\n      dup7\n        /* \"#utility.yul\":2742:2758   */\n      add\n        /* \"#utility.yul\":2707:2772   */\n      tag_43\n      jump\t// in\n    tag_83:\n        /* \"#utility.yul\":2797:2826   */\n      tag_84\n        /* \"#utility.yul\":2819:2825   */\n      dup2\n        /* \"#utility.yul\":2797:2826   */\n      tag_44\n      jump\t// in\n    tag_84:\n        /* \"#utility.yul\":2792:2795   */\n      dup5\n        /* \"#utility.yul\":2788:2827   */\n      add\n        /* \"#utility.yul\":2781:2827   */\n      swap2\n      pop\n        /* \"#utility.yul\":2550:2833   */\n      pop\n        /* \"#utility.yul\":2460:2833   */\n      swap3\n      swap2\n      pop\n      pop\n      jump\t// out\n        /* \"#utility.yul\":2839:3148   */\n    tag_10:\n        /* \"#utility.yul\":2950:2954   */\n      0x00\n        /* \"#utility.yul\":2988:2990   */\n      0x20\n        /* \"#utility.yul\":2977:2986   */\n      dup3\n        /* \"#utility.yul\":2973:2991   */\n      add\n        /* \"#utility.yul\":2965:2991   */\n      swap1\n      pop\n        /* \"#utility.yul\":3037:3046   */\n      dup2\n        /* \"#utility.yul\":3031:3035   */\n      dup2\n        /* \"#utility.yul\":3027:3047   */\n      sub\n        /* \"#utility.yul\":3023:3024   */\n      0x00\n        /* \"#utility.yul\":3012:3021   */\n      dup4\n        /* \"#utility.yul\":3008:3025   */\n      add\n        /* \"#utility.yul\":3001:3048   */\n      mstore\n        /* \"#utility.yul\":3065:3141   */\n      tag_86\n        /* \"#utility.yul\":3136:3140   */\n      dup2\n        /* \"#utility.yul\":3127:3133   */\n      dup5\n        /* \"#utility.yul\":3065:3141   */\n      tag_45\n      jump\t// in\n    tag_86:\n        /* \"#utility.yul\":3057:3141   */\n      swap1\n      pop\n        /* \"#utility.yul\":2839:3148   */\n      swap3\n      swap2\n      pop\n      pop\n      jump\t// out\n        /* \"#utility.yul\":3154:3272   */\n    tag_46:\n        /* \"#utility.yul\":3241:3265   */\n      tag_88\n        /* \"#utility.yul\":3259:3264   */\n      dup2\n        /* \"#utility.yul\":3241:3265   */\n      tag_38\n      jump\t// in\n    tag_88:\n        /* \"#utility.yul\":3236:3239   */\n      dup3\n        /* \"#utility.yul\":3229:3266   */\n      mstore\n        /* \"#utility.yul\":3154:3272   */\n      pop\n      pop\n      jump\t// out\n        /* \"#utility.yul\":3278:3610   */\n    tag_17:\n        /* \"#utility.yul\":3399:3403   */\n      0x00\n        /* \"#utility.yul\":3437:3439   */\n      0x40\n        /* \"#utility.yul\":3426:3435   */\n      dup3\n        /* \"#utility.yul\":3422:3440   */\n      add\n        /* \"#utility.yul\":3414:3440   */\n      swap1\n      pop\n        /* \"#utility.yul\":3450:3521   */\n      tag_90\n        /* \"#utility.yul\":3518:3519   */\n      0x00\n        /* \"#utility.yul\":3507:3516   */\n      dup4\n        /* \"#utility.yul\":3503:3520   */\n      add\n        /* \"#utility.yul\":3494:3500   */\n      dup6\n        /* \"#utility.yul\":3450:3521   */\n      tag_46\n      jump\t// in\n    tag_90:\n        /* \"#utility.yul\":3531:3603   */\n      tag_91\n        /* \"#utility.yul\":3599:3601   */\n      0x20\n        /* \"#utility.yul\":3588:3597   */\n      dup4\n        /* \"#utility.yul\":3584:3602   */\n      add\n        /* \"#utility.yul\":3575:3581   */\n      dup5\n        /* \"#utility.yul\":3531:3603   */\n      tag_46\n      jump\t// in\n    tag_91:\n        /* \"#utility.yul\":3278:3610   */\n      swap4\n      swap3\n      pop\n      pop\n      pop\n      jump\t// out\n        /* \"#utility.yul\":3616:3763   */\n    tag_47:\n        /* \"#utility.yul\":3717:3728   */\n      0x00\n        /* \"#utility.yul\":3754:3757   */\n      dup2\n        /* \"#utility.yul\":3739:3757   */\n      swap1\n      pop\n        /* \"#utility.yul\":3616:3763   */\n      swap3\n      swap2\n      pop\n      pop\n      jump\t// out\n        /* \"#utility.yul\":3769:4155   */\n    tag_48:\n        /* \"#utility.yul\":3873:3876   */\n      0x00\n        /* \"#utility.yul\":3901:3939   */\n      tag_94\n        /* \"#utility.yul\":3933:3938   */\n      dup3\n        /* \"#utility.yul\":3901:3939   */\n      tag_41\n      jump\t// in\n    tag_94:\n        /* \"#utility.yul\":3955:4043   */\n      tag_95\n        /* \"#utility.yul\":4036:4042   */\n      dup2\n        /* \"#utility.yul\":4031:4034   */\n      dup6\n        /* \"#utility.yul\":3955:4043   */\n      tag_47\n      jump\t// in\n    tag_95:\n        /* \"#utility.yul\":3948:4043   */\n      swap4\n      pop\n        /* \"#utility.yul\":4052:4117   */\n      tag_96\n        /* \"#utility.yul\":4110:4116   */\n      dup2\n        /* \"#utility.yul\":4105:4108   */\n      dup6\n        /* \"#utility.yul\":4098:4102   */\n      0x20\n        /* \"#utility.yul\":4091:4096   */\n      dup7\n        /* \"#utility.yul\":4087:4103   */\n      add\n        /* \"#utility.yul\":4052:4117   */\n      tag_43\n      jump\t// in\n    tag_96:\n        /* \"#utility.yul\":4142:4148   */\n      dup1\n        /* \"#utility.yul\":4137:4140   */\n      dup5\n        /* \"#utility.yul\":4133:4149   */\n      add\n        /* \"#utility.yul\":4126:4149   */\n      swap2\n      pop\n        /* \"#utility.yul\":3877:4155   */\n      pop\n        /* \"#utility.yul\":3769:4155   */\n      swap3\n      swap2\n      pop\n      pop\n      jump\t// out\n        /* \"#utility.yul\":4161:4432   */\n    tag_19:\n        /* \"#utility.yul\":4291:4294   */\n      0x00\n        /* \"#utility.yul\":4313:4406   */\n      tag_98\n        /* \"#utility.yul\":4402:4405   */\n      dup3\n        /* \"#utility.yul\":4393:4399   */\n      dup5\n        /* \"#utility.yul\":4313:4406   */\n      tag_48\n      jump\t// in\n    tag_98:\n        /* \"#utility.yul\":4306:4406   */\n      swap2\n      pop\n        /* \"#utility.yul\":4423:4426   */\n      dup2\n        /* \"#utility.yul\":4416:4426   */\n      swap1\n      pop\n        /* \"#utility.yul\":4161:4432   */\n      swap3\n      swap2\n      pop\n      pop\n      jump\t// out\n\n    auxdata: 0xa2646970667358221220c43a5926820aec238df4399a29147f48141f10a89f341fdb31e202eae2192c6e64736f6c63430008110033\n}\n",
				"bytecode": {
					"linkReferences": {},
					"object": "608060405234801561001057600080fd5b5061057e806100206000396000f3fe608060405234801561001057600080fd5b50600436106100365760003560e01c80635064d83a1461003b5780639126f99c1461006b575b600080fd5b610055600480360381019061005091906103b8565b61009b565b604051610062919061049b565b60405180910390f35b610085600480360381019061008091906103b8565b6101de565b604051610092919061049b565b60405180910390f35b60606000808573ffffffffffffffffffffffffffffffffffffffff1685856040516024016100ca9291906104cc565b6040516020818303038152906040527fcad0899b000000000000000000000000000000000000000000000000000000007bffffffffffffffffffffffffffffffffffffffffffffffffffffffff19166020820180517bffffffffffffffffffffffffffffffffffffffffffffffffffffffff83818316178352505050506040516101549190610531565b6000604051808303816000865af19150503d8060008114610191576040519150601f19603f3d011682016040523d82523d6000602084013e610196565b606091505b5091509150816101d2576040517f3204506f00000000000000000000000000000000000000000000000000000000815260040160405180910390fd5b80925050509392505050565b60606000808573ffffffffffffffffffffffffffffffffffffffff16858560405160240161020d9291906104cc565b6040516020818303038152906040527fcad0899b000000000000000000000000000000000000000000000000000000007bffffffffffffffffffffffffffffffffffffffffffffffffffffffff19166020820180517bffffffffffffffffffffffffffffffffffffffffffffffffffffffff83818316178352505050506040516102979190610531565b600060405180830381855af49150503d80600081146102d2576040519150601f19603f3d011682016040523d82523d6000602084013e6102d7565b606091505b509150915081610313576040517f3204506f00000000000000000000000000000000000000000000000000000000815260040160405180910390fd5b80925050509392505050565b600080fd5b600073ffffffffffffffffffffffffffffffffffffffff82169050919050565b600061034f82610324565b9050919050565b61035f81610344565b811461036a57600080fd5b50565b60008135905061037c81610356565b92915050565b6000819050919050565b61039581610382565b81146103a057600080fd5b50565b6000813590506103b28161038c565b92915050565b6000806000606084860312156103d1576103d061031f565b5b60006103df8682870161036d565b93505060206103f0868287016103a3565b9250506040610401868287016103a3565b9150509250925092565b600081519050919050565b600082825260208201905092915050565b60005b8381101561044557808201518184015260208101905061042a565b60008484015250505050565b6000601f19601f8301169050919050565b600061046d8261040b565b6104778185610416565b9350610487818560208601610427565b61049081610451565b840191505092915050565b600060208201905081810360008301526104b58184610462565b905092915050565b6104c681610382565b82525050565b60006040820190506104e160008301856104bd565b6104ee60208301846104bd565b9392505050565b600081905092915050565b600061050b8261040b565b61051581856104f5565b9350610525818560208601610427565b80840191505092915050565b600061053d8284610500565b91508190509291505056fea2646970667358221220c43a5926820aec238df4399a29147f48141f10a89f341fdb31e202eae2192c6e64736f6c63430008110033",
					"opcodes": "PUSH1 0x80 PUSH1 0x40 MSTORE CALLVALUE DUP1 ISZERO PUSH2 0x10 JUMPI PUSH1 0x0 DUP1 REVERT JUMPDEST POP PUSH2 0x57E DUP1 PUSH2 0x20 PUSH1 0x0 CODECOPY PUSH1 0x0 RETURN INVALID PUSH1 0x80 PUSH1 0x40 MSTORE CALLVALUE DUP1 ISZERO PUSH2 0x10 JUMPI PUSH1 0x0 DUP1 REVERT JUMPDEST POP PUSH1 0x4 CALLDATASIZE LT PUSH2 0x36 JUMPI PUSH1 0x0 CALLDATALOAD PUSH1 0xE0 SHR DUP1 PUSH4 0x5064D83A EQ PUSH2 0x3B JUMPI DUP1 PUSH4 0x9126F99C EQ PUSH2 0x6B JUMPI JUMPDEST PUSH1 0x0 DUP1 REVERT JUMPDEST PUSH2 0x55 PUSH1 0x4 DUP1 CALLDATASIZE SUB DUP2 ADD SWAP1 PUSH2 0x50 SWAP2 SWAP1 PUSH2 0x3B8 JUMP JUMPDEST PUSH2 0x9B JUMP JUMPDEST PUSH1 0x40 MLOAD PUSH2 0x62 SWAP2 SWAP1 PUSH2 0x49B JUMP JUMPDEST PUSH1 0x40 MLOAD DUP1 SWAP2 SUB SWAP1 RETURN JUMPDEST PUSH2 0x85 PUSH1 0x4 DUP1 CALLDATASIZE SUB DUP2 ADD SWAP1 PUSH2 0x80 SWAP2 SWAP1 PUSH2 0x3B8 JUMP JUMPDEST PUSH2 0x1DE JUMP JUMPDEST PUSH1 0x40 MLOAD PUSH2 0x92 SWAP2 SWAP1 PUSH2 0x49B JUMP JUMPDEST PUSH1 0x40 MLOAD DUP1 SWAP2 SUB SWAP1 RETURN JUMPDEST PUSH1 0x60 PUSH1 0x0 DUP1 DUP6 PUSH20 0xFFFFFFFFFFFFFFFFFFFFFFFFFFFFFFFFFFFFFFFF AND DUP6 DUP6 PUSH1 0x40 MLOAD PUSH1 0x24 ADD PUSH2 0xCA SWAP3 SWAP2 SWAP1 PUSH2 0x4CC JUMP JUMPDEST PUSH1 0x40 MLOAD PUSH1 0x20 DUP2 DUP4 SUB SUB DUP2 MSTORE SWAP1 PUSH1 0x40 MSTORE PUSH32 0xCAD0899B00000000000000000000000000000000000000000000000000000000 PUSH28 0xFFFFFFFFFFFFFFFFFFFFFFFFFFFFFFFFFFFFFFFFFFFFFFFFFFFFFFFF NOT AND PUSH1 0x20 DUP3 ADD DUP1 MLOAD PUSH28 0xFFFFFFFFFFFFFFFFFFFFFFFFFFFFFFFFFFFFFFFFFFFFFFFFFFFFFFFF DUP4 DUP2 DUP4 AND OR DUP4 MSTORE POP POP POP POP PUSH1 0x40 MLOAD PUSH2 0x154 SWAP2 SWAP1 PUSH2 0x531 JUMP JUMPDEST PUSH1 0x0 PUSH1 0x40 MLOAD DUP1 DUP4 SUB DUP2 PUSH1 0x0 DUP7 GAS CALL SWAP2 POP POP RETURNDATASIZE DUP1 PUSH1 0x0 DUP2 EQ PUSH2 0x191 JUMPI PUSH1 0x40 MLOAD SWAP2 POP PUSH1 0x1F NOT PUSH1 0x3F RETURNDATASIZE ADD AND DUP3 ADD PUSH1 0x40 MSTORE RETURNDATASIZE DUP3 MSTORE RETURNDATASIZE PUSH1 0x0 PUSH1 0x20 DUP5 ADD RETURNDATACOPY PUSH2 0x196 JUMP JUMPDEST PUSH1 0x60 SWAP2 POP JUMPDEST POP SWAP2 POP SWAP2 POP DUP2 PUSH2 0x1D2 JUMPI PUSH1 0x40 MLOAD PUSH32 0x3204506F00000000000000000000000000000000000000000000000000000000 DUP2 MSTORE PUSH1 0x4 ADD PUSH1 0x40 MLOAD DUP1 SWAP2 SUB SWAP1 REVERT JUMPDEST DUP1 SWAP3 POP POP POP SWAP4 SWAP3 POP POP POP JUMP JUMPDEST PUSH1 0x60 PUSH1 0x0 DUP1 DUP6 PUSH20 0xFFFFFFFFFFFFFFFFFFFFFFFFFFFFFFFFFFFFFFFF AND DUP6 DUP6 PUSH1 0x40 MLOAD PUSH1 0x24 ADD PUSH2 0x20D SWAP3 SWAP2 SWAP1 PUSH2 0x4CC JUMP JUMPDEST PUSH1 0x40 MLOAD PUSH1 0x20 DUP2 DUP4 SUB SUB DUP2 MSTORE SWAP1 PUSH1 0x40 MSTORE PUSH32 0xCAD0899B00000000000000000000000000000000000000000000000000000000 PUSH28 0xFFFFFFFFFFFFFFFFFFFFFFFFFFFFFFFFFFFFFFFFFFFFFFFFFFFFFFFF NOT AND PUSH1 0x20 DUP3 ADD DUP1 MLOAD PUSH28 0xFFFFFFFFFFFFFFFFFFFFFFFFFFFFFFFFFFFFFFFFFFFFFFFFFFFFFFFF DUP4 DUP2 DUP4 AND OR DUP4 MSTORE POP POP POP POP PUSH1 0x40 MLOAD PUSH2 0x297 SWAP2 SWAP1 PUSH2 0x531 JUMP JUMPDEST PUSH1 0x0 PUSH1 0x40 MLOAD DUP1 DUP4 SUB DUP2 DUP6 GAS DELEGATECALL SWAP2 POP POP RETURNDATASIZE DUP1 PUSH1 0x0 DUP2 EQ PUSH2 0x2D2 JUMPI PUSH1 0x40 MLOAD SWAP2 POP PUSH1 0x1F NOT PUSH1 0x3F RETURNDATASIZE ADD AND DUP3 ADD PUSH1 0x40 MSTORE RETURNDATASIZE DUP3 MSTORE RETURNDATASIZE PUSH1 0x0 PUSH1 0x20 DUP5 ADD RETURNDATACOPY PUSH2 0x2D7 JUMP JUMPDEST PUSH1 0x60 SWAP2 POP JUMPDEST POP SWAP2 POP SWAP2 POP DUP2 PUSH2 0x313 JUMPI PUSH1 0x40 MLOAD PUSH32 0x3204506F00000000000000000000000000000000000000000000000000000000 DUP2 MSTORE PUSH1 0x4 ADD PUSH1 0x40 MLOAD DUP1 SWAP2 SUB SWAP1 REVERT JUMPDEST DUP1 SWAP3 POP POP POP SWAP4 SWAP3 POP POP POP JUMP JUMPDEST PUSH1 0x0 DUP1 REVERT JUMPDEST PUSH1 0x0 PUSH20 0xFFFFFFFFFFFFFFFFFFFFFFFFFFFFFFFFFFFFFFFF DUP3 AND SWAP1 POP SWAP2 SWAP1 POP JUMP JUMPDEST PUSH1 0x0 PUSH2 0x34F DUP3 PUSH2 0x324 JUMP JUMPDEST SWAP1 POP SWAP2 SWAP1 POP JUMP JUMPDEST PUSH2 0x35F DUP2 PUSH2 0x344 JUMP JUMPDEST DUP2 EQ PUSH2 0x36A JUMPI PUSH1 0x0 DUP1 REVERT JUMPDEST POP JUMP JUMPDEST PUSH1 0x0 DUP2 CALLDATALOAD SWAP1 POP PUSH2 0x37C DUP2 PUSH2 0x356 JUMP JUMPDEST SWAP3 SWAP2 POP POP JUMP JUMPDEST PUSH1 0x0 DUP2 SWAP1 POP SWAP2 SWAP1 POP JUMP JUMPDEST PUSH2 0x395 DUP2 PUSH2 0x382 JUMP JUMPDEST DUP2 EQ PUSH2 0x3A0 JUMPI PUSH1 0x0 DUP1 REVERT JUMPDEST POP JUMP JUMPDEST PUSH1 0x0 DUP2 CALLDATALOAD SWAP1 POP PUSH2 0x3B2 DUP2 PUSH2 0x38C JUMP JUMPDEST SWAP3 SWAP2 POP POP JUMP JUMPDEST PUSH1 0x0 DUP1 PUSH1 0x0 PUSH1 0x60 DUP5 DUP7 SUB SLT ISZERO PUSH2 0x3D1 JUMPI PUSH2 0x3D0 PUSH2 0x31F JUMP JUMPDEST JUMPDEST PUSH1 0x0 PUSH2 0x3DF DUP7 DUP3 DUP8 ADD PUSH2 0x36D JUMP JUMPDEST SWAP4 POP POP PUSH1 0x20 PUSH2 0x3F0 DUP7 DUP3 DUP8 ADD PUSH2 0x3A3 JUMP JUMPDEST SWAP3 POP POP PUSH1 0x40 PUSH2 0x401 DUP7 DUP3 DUP8 ADD PUSH2 0x3A3 JUMP JUMPDEST SWAP2 POP POP SWAP3 POP SWAP3 POP SWAP3 JUMP JUMPDEST PUSH1 0x0 DUP2 MLOAD SWAP1 POP SWAP2 SWAP1 POP JUMP JUMPDEST PUSH1 0x0 DUP3 DUP3 MSTORE PUSH1 0x20 DUP3 ADD SWAP1 POP SWAP3 SWAP2 POP POP JUMP JUMPDEST PUSH1 0x0 JUMPDEST DUP4 DUP2 LT ISZERO PUSH2 0x445 JUMPI DUP1 DUP3 ADD MLOAD DUP2 DUP5 ADD MSTORE PUSH1 0x20 DUP2 ADD SWAP1 POP PUSH2 0x42A JUMP JUMPDEST PUSH1 0x0 DUP5 DUP5 ADD MSTORE POP POP POP POP JUMP JUMPDEST PUSH1 0x0 PUSH1 0x1F NOT PUSH1 0x1F DUP4 ADD AND SWAP1 POP SWAP2 SWAP1 POP JUMP JUMPDEST PUSH1 0x0 PUSH2 0x46D DUP3 PUSH2 0x40B JUMP JUMPDEST PUSH2 0x477 DUP2 DUP6 PUSH2 0x416 JUMP JUMPDEST SWAP4 POP PUSH2 0x487 DUP2 DUP6 PUSH1 0x20 DUP7 ADD PUSH2 0x427 JUMP JUMPDEST PUSH2 0x490 DUP2 PUSH2 0x451 JUMP JUMPDEST DUP5 ADD SWAP2 POP POP SWAP3 SWAP2 POP POP JUMP JUMPDEST PUSH1 0x0 PUSH1 0x20 DUP3 ADD SWAP1 POP DUP2 DUP2 SUB PUSH1 0x0 DUP4 ADD MSTORE PUSH2 0x4B5 DUP2 DUP5 PUSH2 0x462 JUMP JUMPDEST SWAP1 POP SWAP3 SWAP2 POP POP JUMP JUMPDEST PUSH2 0x4C6 DUP2 PUSH2 0x382 JUMP JUMPDEST DUP3 MSTORE POP POP JUMP JUMPDEST PUSH1 0x0 PUSH1 0x40 DUP3 ADD SWAP1 POP PUSH2 0x4E1 PUSH1 0x0 DUP4 ADD DUP6 PUSH2 0x4BD JUMP JUMPDEST PUSH2 0x4EE PUSH1 0x20 DUP4 ADD DUP5 PUSH2 0x4BD JUMP JUMPDEST SWAP4 SWAP3 POP POP POP JUMP JUMPDEST PUSH1 0x0 DUP2 SWAP1 POP SWAP3 SWAP2 POP POP JUMP JUMPDEST PUSH1 0x0 PUSH2 0x50B DUP3 PUSH2 0x40B JUMP JUMPDEST PUSH2 0x515 DUP2 DUP6 PUSH2 0x4F5 JUMP JUMPDEST SWAP4 POP PUSH2 0x525 DUP2 DUP6 PUSH1 0x20 DUP7 ADD PUSH2 0x427 JUMP JUMPDEST DUP1 DUP5 ADD SWAP2 POP POP SWAP3 SWAP2 POP POP JUMP JUMPDEST PUSH1 0x0 PUSH2 0x53D DUP3 DUP5 PUSH2 0x500 JUMP JUMPDEST SWAP2 POP DUP2 SWAP1 POP SWAP3 SWAP2 POP POP JUMP INVALID LOG2 PUSH5 0x6970667358 0x22 SLT KECCAK256 0xC4 GASPRICE MSIZE 0x26 DUP3 EXP 0xEC 0x23 DUP14 DELEGATECALL CODECOPY SWAP11 0x29 EQ PUSH32 0x48141F10A89F341FDB31E202EAE2192C6E64736F6C6343000811003300000000 "
				},
				"gasEstimates": {
					"creation": {
						"codeDepositCost": "281200",
						"executionCost": "318",
						"totalCost": "281518"
					},
					"external": {
						"call(address,uint256,uint256)": "infinite",
						"delegatecall(address,uint256,uint256)": "infinite"
					}
				},
				"methodIdentifiers": {
					"call(address,uint256,uint256)": "5064d83a",
					"delegatecall(address,uint256,uint256)": "9126f99c"
				}
			},
			"storageLayout": {
				"storage": [],
				"types": null
			},
			"userdoc": {
				"kind": "user",
				"methods": {},
				"version": 1
			}
		}
	}
}