{
	"Week5/TodoList.sol": {
		"TodoList": {
			"abi": [
				{
					"inputs": [
						{
							"internalType": "string",
							"name": "text",
							"type": "string"
						}
					],
					"name": "createTodo",
					"outputs": [],
					"stateMutability": "nonpayable",
					"type": "function"
				}
			],
			"devdoc": {
				"kind": "dev",
				"methods": {},
				"version": 1
			},
			"evm": {
				"assembly": "    /* \"Week5/TodoList.sol\":70:252  contract TodoList {... */\n  mstore(0x40, 0x80)\n  callvalue\n  dup1\n  iszero\n  tag_1\n  jumpi\n  0x00\n  dup1\n  revert\ntag_1:\n  pop\n  dataSize(sub_0)\n  dup1\n  dataOffset(sub_0)\n  0x00\n  codecopy\n  0x00\n  return\nstop\n\nsub_0: assembly {\n        /* \"Week5/TodoList.sol\":70:252  contract TodoList {... */\n      mstore(0x40, 0x80)\n      callvalue\n      dup1\n      iszero\n      tag_1\n      jumpi\n      0x00\n      dup1\n      revert\n    tag_1:\n      pop\n      jumpi(tag_2, lt(calldatasize, 0x04))\n      shr(0xe0, calldataload(0x00))\n      dup1\n      0xe34f1221\n      eq\n      tag_3\n      jumpi\n    tag_2:\n      0x00\n      dup1\n      revert\n        /* \"Week5/TodoList.sol\":183:250  function createTodo(string calldata text) external {... */\n    tag_3:\n      tag_4\n      tag_5\n      calldatasize\n      0x04\n      tag_6\n      jump\t// in\n    tag_5:\n      pop\n      pop\n      jump\n    tag_4:\n      stop\n        /* \"#utility.yul\":14:606   */\n    tag_6:\n        /* \"#utility.yul\":85:91   */\n      0x00\n        /* \"#utility.yul\":93:99   */\n      dup1\n        /* \"#utility.yul\":146:148   */\n      0x20\n        /* \"#utility.yul\":134:143   */\n      dup4\n        /* \"#utility.yul\":125:132   */\n      dup6\n        /* \"#utility.yul\":121:144   */\n      sub\n        /* \"#utility.yul\":117:149   */\n      slt\n        /* \"#utility.yul\":114:166   */\n      iszero\n      tag_11\n      jumpi\n        /* \"#utility.yul\":162:163   */\n      0x00\n        /* \"#utility.yul\":159:160   */\n      dup1\n        /* \"#utility.yul\":152:164   */\n      revert\n        /* \"#utility.yul\":114:166   */\n    tag_11:\n        /* \"#utility.yul\":202:211   */\n      dup3\n        /* \"#utility.yul\":189:212   */\n      calldataload\n        /* \"#utility.yul\":231:249   */\n      0xffffffffffffffff\n        /* \"#utility.yul\":272:274   */\n      dup1\n        /* \"#utility.yul\":264:270   */\n      dup3\n        /* \"#utility.yul\":261:275   */\n      gt\n        /* \"#utility.yul\":258:292   */\n      iszero\n      tag_12\n      jumpi\n        /* \"#utility.yul\":288:289   */\n      0x00\n        /* \"#utility.yul\":285:286   */\n      dup1\n        /* \"#utility.yul\":278:290   */\n      revert\n        /* \"#utility.yul\":258:292   */\n    tag_12:\n        /* \"#utility.yul\":326:332   */\n      dup2\n        /* \"#utility.yul\":315:324   */\n      dup6\n        /* \"#utility.yul\":311:333   */\n      add\n        /* \"#utility.yul\":301:333   */\n      swap2\n      pop\n        /* \"#utility.yul\":371:378   */\n      dup6\n        /* \"#utility.yul\":364:368   */\n      0x1f\n        /* \"#utility.yul\":360:362   */\n      dup4\n        /* \"#utility.yul\":356:369   */\n      add\n        /* \"#utility.yul\":352:379   */\n      slt\n        /* \"#utility.yul\":342:397   */\n      tag_13\n      jumpi\n        /* \"#utility.yul\":393:394   */\n      0x00\n        /* \"#utility.yul\":390:391   */\n      dup1\n        /* \"#utility.yul\":383:395   */\n      revert\n        /* \"#utility.yul\":342:397   */\n    tag_13:\n        /* \"#utility.yul\":433:435   */\n      dup2\n        /* \"#utility.yul\":420:436   */\n      calldataload\n        /* \"#utility.yul\":459:461   */\n      dup2\n        /* \"#utility.yul\":451:457   */\n      dup2\n        /* \"#utility.yul\":448:462   */\n      gt\n        /* \"#utility.yul\":445:479   */\n      iszero\n      tag_14\n      jumpi\n        /* \"#utility.yul\":475:476   */\n      0x00\n        /* \"#utility.yul\":472:473   */\n      dup1\n        /* \"#utility.yul\":465:477   */\n      revert\n        /* \"#utility.yul\":445:479   */\n    tag_14:\n        /* \"#utility.yul\":520:527   */\n      dup7\n        /* \"#utility.yul\":515:517   */\n      0x20\n        /* \"#utility.yul\":506:512   */\n      dup3\n        /* \"#utility.yul\":502:504   */\n      dup6\n        /* \"#utility.yul\":498:513   */\n      add\n        /* \"#utility.yul\":494:518   */\n      add\n        /* \"#utility.yul\":491:528   */\n      gt\n        /* \"#utility.yul\":488:545   */\n      iszero\n      tag_15\n      jumpi\n        /* \"#utility.yul\":541:542   */\n      0x00\n        /* \"#utility.yul\":538:539   */\n      dup1\n        /* \"#utility.yul\":531:543   */\n      revert\n        /* \"#utility.yul\":488:545   */\n    tag_15:\n        /* \"#utility.yul\":572:574   */\n      0x20\n        /* \"#utility.yul\":564:575   */\n      swap3\n      swap1\n      swap3\n      add\n      swap7\n        /* \"#utility.yul\":594:600   */\n      swap2\n      swap6\n      pop\n        /* \"#utility.yul\":14:606   */\n      swap1\n      swap4\n      pop\n      pop\n      pop\n      pop\n      jump\t// out\n\n    auxdata: 0xa26469706673582212201a2c1c1d81032875152000ddef89848251ca76cbaf8b846151418c47bdc9328264736f6c63430008100033\n}\n",
				"bytecode": {
					"linkReferences": {},
					"object": "608060405234801561001057600080fd5b5060e18061001f6000396000f3fe6080604052348015600f57600080fd5b506004361060285760003560e01c8063e34f122114602d575b600080fd5b603c6038366004603e565b5050565b005b60008060208385031215605057600080fd5b823567ffffffffffffffff80821115606757600080fd5b818501915085601f830112607a57600080fd5b813581811115608857600080fd5b866020828501011115609957600080fd5b6020929092019691955090935050505056fea26469706673582212201a2c1c1d81032875152000ddef89848251ca76cbaf8b846151418c47bdc9328264736f6c63430008100033",
					"opcodes": "PUSH1 0x80 PUSH1 0x40 MSTORE CALLVALUE DUP1 ISZERO PUSH2 0x10 JUMPI PUSH1 0x0 DUP1 REVERT JUMPDEST POP PUSH1 0xE1 DUP1 PUSH2 0x1F PUSH1 0x0 CODECOPY PUSH1 0x0 RETURN INVALID PUSH1 0x80 PUSH1 0x40 MSTORE CALLVALUE DUP1 ISZERO PUSH1 0xF JUMPI PUSH1 0x0 DUP1 REVERT JUMPDEST POP PUSH1 0x4 CALLDATASIZE LT PUSH1 0x28 JUMPI PUSH1 0x0 CALLDATALOAD PUSH1 0xE0 SHR DUP1 PUSH4 0xE34F1221 EQ PUSH1 0x2D JUMPI JUMPDEST PUSH1 0x0 DUP1 REVERT JUMPDEST PUSH1 0x3C PUSH1 0x38 CALLDATASIZE PUSH1 0x4 PUSH1 0x3E JUMP JUMPDEST POP POP JUMP JUMPDEST STOP JUMPDEST PUSH1 0x0 DUP1 PUSH1 0x20 DUP4 DUP6 SUB SLT ISZERO PUSH1 0x50 JUMPI PUSH1 0x0 DUP1 REVERT JUMPDEST DUP3 CALLDATALOAD PUSH8 0xFFFFFFFFFFFFFFFF DUP1 DUP3 GT ISZERO PUSH1 0x67 JUMPI PUSH1 0x0 DUP1 REVERT JUMPDEST DUP2 DUP6 ADD SWAP2 POP DUP6 PUSH1 0x1F DUP4 ADD SLT PUSH1 0x7A JUMPI PUSH1 0x0 DUP1 REVERT JUMPDEST DUP2 CALLDATALOAD DUP2 DUP2 GT ISZERO PUSH1 0x88 JUMPI PUSH1 0x0 DUP1 REVERT JUMPDEST DUP7 PUSH1 0x20 DUP3 DUP6 ADD ADD GT ISZERO PUSH1 0x99 JUMPI PUSH1 0x0 DUP1 REVERT JUMPDEST PUSH1 0x20 SWAP3 SWAP1 SWAP3 ADD SWAP7 SWAP2 SWAP6 POP SWAP1 SWAP4 POP POP POP POP JUMP INVALID LOG2 PUSH5 0x6970667358 0x22 SLT KECCAK256 BYTE 0x2C SHR SAR DUP2 SUB 0x28 PUSH22 0x152000DDEF89848251CA76CBAF8B846151418C47BDC9 ORIGIN DUP3 PUSH5 0x736F6C6343 STOP ADDMOD LT STOP CALLER "
				},
				"gasEstimates": {
					"creation": {
						"codeDepositCost": "45000",
						"executionCost": "99",
						"totalCost": "45099"
					},
					"external": {
						"createTodo(string)": "369"
					}
				},
				"methodIdentifiers": {
					"createTodo(string)": "e34f1221"
				}
			},
			"storageLayout": {
				"storage": [
					{
						"astId": 10,
						"contract": "Week5/TodoList.sol:TodoList",
						"label": "todoList",
						"offset": 0,
						"slot": "0",
						"type": "t_array(t_struct(Todo)6_storage)dyn_storage"
					}
				],
				"types": {
					"t_array(t_struct(Todo)6_storage)dyn_storage": {
						"base": "t_struct(Todo)6_storage",
						"encoding": "dynamic_array",
						"label": "struct TodoList.Todo[]",
						"numberOfBytes": "32"
					},
					"t_bool": {
						"encoding": "inplace",
						"label": "bool",
						"numberOfBytes": "1"
					},
					"t_string_storage": {
						"encoding": "bytes",
						"label": "string",
						"numberOfBytes": "32"
					},
					"t_struct(Todo)6_storage": {
						"encoding": "inplace",
						"label": "struct TodoList.Todo",
						"members": [
							{
								"astId": 3,
								"contract": "Week5/TodoList.sol:TodoList",
								"label": "text",
								"offset": 0,
								"slot": "0",
								"type": "t_string_storage"
							},
							{
								"astId": 5,
								"contract": "Week5/TodoList.sol:TodoList",
								"label": "isCheck",
								"offset": 0,
								"slot": "1",
								"type": "t_bool"
							}
						],
						"numberOfBytes": "64"
					}
				}
			},
			"userdoc": {
				"kind": "user",
				"methods": {},
				"version": 1
			}
		}
	}
}