{
	"Week5/TodoList.sol": {
		"TodoList": {
			"abi": [
				{
					"inputs": [
						{
							"internalType": "string",
							"name": "_text",
							"type": "string"
						}
					],
					"name": "createTodo",
					"outputs": [],
					"stateMutability": "nonpayable",
					"type": "function"
				},
				{
					"inputs": [
						{
							"internalType": "uint256",
							"name": "_index",
							"type": "uint256"
						},
						{
							"internalType": "string",
							"name": "_text",
							"type": "string"
						}
					],
					"name": "tog",
					"outputs": [],
					"stateMutability": "nonpayable",
					"type": "function"
				},
				{
					"inputs": [
						{
							"internalType": "uint256",
							"name": "_index",
							"type": "uint256"
						},
						{
							"internalType": "string",
							"name": "_text",
							"type": "string"
						}
					],
					"name": "updateTodo",
					"outputs": [],
					"stateMutability": "nonpayable",
					"type": "function"
				}
			],
			"devdoc": {
				"kind": "dev",
				"methods": {},
				"version": 1
			},
			"evm": {
				"assembly": "    /* \"Week5/TodoList.sol\":70:602  contract TodoList {... */\n  mstore(0x40, 0x80)\n  callvalue\n  dup1\n  iszero\n  tag_1\n  jumpi\n  0x00\n  dup1\n  revert\ntag_1:\n  pop\n  dataSize(sub_0)\n  dup1\n  dataOffset(sub_0)\n  0x00\n  codecopy\n  0x00\n  return\nstop\n\nsub_0: assembly {\n        /* \"Week5/TodoList.sol\":70:602  contract TodoList {... */\n      mstore(0x40, 0x80)\n      callvalue\n      dup1\n      iszero\n      tag_1\n      jumpi\n      0x00\n      dup1\n      revert\n    tag_1:\n      pop\n      jumpi(tag_2, lt(calldatasize, 0x04))\n      shr(0xe0, calldataload(0x00))\n      dup1\n      0x6bb8046d\n      eq\n      tag_3\n      jumpi\n      dup1\n      0xd534ee88\n      eq\n      tag_3\n      jumpi\n      dup1\n      0xe34f1221\n      eq\n      tag_5\n      jumpi\n    tag_2:\n      0x00\n      dup1\n      revert\n        /* \"Week5/TodoList.sol\":452:600  function tog(uint _index, string calldata _text) external  {... */\n    tag_3:\n      tag_6\n      tag_7\n      calldatasize\n      0x04\n      tag_8\n      jump\t// in\n    tag_7:\n      tag_9\n      jump\t// in\n    tag_6:\n      stop\n        /* \"Week5/TodoList.sol\":183:285  function createTodo(string calldata _text) external {... */\n    tag_5:\n      tag_6\n      tag_14\n      calldatasize\n      0x04\n      tag_15\n      jump\t// in\n    tag_14:\n      tag_16\n      jump\t// in\n        /* \"Week5/TodoList.sol\":452:600  function tog(uint _index, string calldata _text) external  {... */\n    tag_9:\n        /* \"Week5/TodoList.sol\":538:546  todoList */\n      0x00\n        /* \"Week5/TodoList.sol\":538:553  todoList.length */\n      sload\n        /* \"Week5/TodoList.sol\":529:553  _index < todoList.length */\n      dup4\n      lt\n        /* \"Week5/TodoList.sol\":521:554  require(_index < todoList.length) */\n      tag_18\n      jumpi\n      0x00\n      dup1\n      revert\n    tag_18:\n        /* \"Week5/TodoList.sol\":588:593  _text */\n      dup2\n      dup2\n        /* \"Week5/TodoList.sol\":564:572  todoList */\n      0x00\n        /* \"Week5/TodoList.sol\":573:579  _index */\n      dup6\n        /* \"Week5/TodoList.sol\":564:580  todoList[_index] */\n      dup2\n      sload\n      dup2\n      lt\n      tag_20\n      jumpi\n      tag_20\n      tag_21\n      jump\t// in\n    tag_20:\n      swap1\n      0x00\n      mstore\n      keccak256(0x00, 0x20)\n      swap1\n      0x02\n      mul\n      add\n        /* \"Week5/TodoList.sol\":564:585  todoList[_index].text */\n      0x00\n      add\n        /* \"Week5/TodoList.sol\":564:593  todoList[_index].text = _text */\n      swap2\n      dup3\n      tag_23\n      swap3\n      swap2\n      swap1\n      tag_24\n      jump\t// in\n    tag_23:\n      pop\n        /* \"Week5/TodoList.sol\":452:600  function tog(uint _index, string calldata _text) external  {... */\n      pop\n      pop\n      pop\n      jump\t// out\n        /* \"Week5/TodoList.sol\":183:285  function createTodo(string calldata _text) external {... */\n    tag_16:\n        /* \"Week5/TodoList.sol\":259:277  Todo(_text, false) */\n      0x40\n      dup1\n      mload\n      0x60\n      0x20\n      0x1f\n      dup6\n      add\n      dup2\n      swap1\n      div\n      mul\n      dup3\n      add\n      dup2\n      add\n      dup4\n      mstore\n      swap2\n      dup2\n      add\n      dup4\n      dup2\n      mstore\n        /* \"Week5/TodoList.sol\":245:253  todoList */\n      0x00\n      swap3\n        /* \"Week5/TodoList.sol\":259:277  Todo(_text, false) */\n      dup3\n      swap2\n      swap1\n        /* \"Week5/TodoList.sol\":264:269  _text */\n      dup7\n      swap1\n      dup7\n      swap1\n      dup2\n      swap1\n        /* \"Week5/TodoList.sol\":259:277  Todo(_text, false) */\n      dup6\n      add\n        /* \"Week5/TodoList.sol\":264:269  _text */\n      dup4\n      dup3\n      dup1\n      dup3\n        /* \"Week5/TodoList.sol\":259:277  Todo(_text, false) */\n      dup5\n      calldatacopy\n      0x00\n      swap3\n      add\n      dup3\n      swap1\n      mstore\n      pop\n      swap4\n      dup6\n      mstore\n      pop\n      pop\n      pop\n      0x20\n      swap2\n      dup3\n      add\n      dup2\n      swap1\n      mstore\n        /* \"Week5/TodoList.sol\":245:278  todoList.push(Todo(_text, false)) */\n      dup4\n      sload\n        /* \"Week5/TodoList.sol\":259:277  Todo(_text, false) */\n      0x01\n        /* \"Week5/TodoList.sol\":245:278  todoList.push(Todo(_text, false)) */\n      dup2\n      add\n      dup6\n      sstore\n      swap4\n      dup2\n      mstore\n      keccak256\n      dup2\n      mload\n      swap2\n      swap3\n      0x02\n      mul\n      add\n      swap1\n      dup2\n      swap1\n      tag_33\n      swap1\n      dup3\n      tag_34\n      jump\t// in\n    tag_33:\n      pop\n      0x20\n      swap2\n      swap1\n      swap2\n      add\n      mload\n      0x01\n      swap1\n      swap2\n      add\n      dup1\n      sload\n      not(0xff)\n      and\n      swap2\n      iszero\n      iszero\n      swap2\n      swap1\n      swap2\n      or\n      swap1\n      sstore\n      pop\n      pop\n        /* \"Week5/TodoList.sol\":183:285  function createTodo(string calldata _text) external {... */\n      jump\t// out\n        /* \"#utility.yul\":14:362   */\n    tag_35:\n        /* \"#utility.yul\":66:74   */\n      0x00\n        /* \"#utility.yul\":76:82   */\n      dup1\n        /* \"#utility.yul\":130:133   */\n      dup4\n        /* \"#utility.yul\":123:127   */\n      0x1f\n        /* \"#utility.yul\":115:121   */\n      dup5\n        /* \"#utility.yul\":111:128   */\n      add\n        /* \"#utility.yul\":107:134   */\n      slt\n        /* \"#utility.yul\":97:152   */\n      tag_43\n      jumpi\n        /* \"#utility.yul\":148:149   */\n      0x00\n        /* \"#utility.yul\":145:146   */\n      dup1\n        /* \"#utility.yul\":138:150   */\n      revert\n        /* \"#utility.yul\":97:152   */\n    tag_43:\n      pop\n        /* \"#utility.yul\":171:191   */\n      dup2\n      calldataload\n        /* \"#utility.yul\":214:232   */\n      0xffffffffffffffff\n        /* \"#utility.yul\":203:233   */\n      dup2\n      gt\n        /* \"#utility.yul\":200:250   */\n      iszero\n      tag_44\n      jumpi\n        /* \"#utility.yul\":246:247   */\n      0x00\n        /* \"#utility.yul\":243:244   */\n      dup1\n        /* \"#utility.yul\":236:248   */\n      revert\n        /* \"#utility.yul\":200:250   */\n    tag_44:\n        /* \"#utility.yul\":283:287   */\n      0x20\n        /* \"#utility.yul\":275:281   */\n      dup4\n        /* \"#utility.yul\":271:288   */\n      add\n        /* \"#utility.yul\":259:288   */\n      swap2\n      pop\n        /* \"#utility.yul\":335:338   */\n      dup4\n        /* \"#utility.yul\":328:332   */\n      0x20\n        /* \"#utility.yul\":319:325   */\n      dup3\n        /* \"#utility.yul\":311:317   */\n      dup6\n        /* \"#utility.yul\":307:326   */\n      add\n        /* \"#utility.yul\":303:333   */\n      add\n        /* \"#utility.yul\":300:339   */\n      gt\n        /* \"#utility.yul\":297:356   */\n      iszero\n      tag_45\n      jumpi\n        /* \"#utility.yul\":352:353   */\n      0x00\n        /* \"#utility.yul\":349:350   */\n      dup1\n        /* \"#utility.yul\":342:354   */\n      revert\n        /* \"#utility.yul\":297:356   */\n    tag_45:\n        /* \"#utility.yul\":14:362   */\n      swap3\n      pop\n      swap3\n      swap1\n      pop\n      jump\t// out\n        /* \"#utility.yul\":367:846   */\n    tag_8:\n        /* \"#utility.yul\":447:453   */\n      0x00\n        /* \"#utility.yul\":455:461   */\n      dup1\n        /* \"#utility.yul\":463:469   */\n      0x00\n        /* \"#utility.yul\":516:518   */\n      0x40\n        /* \"#utility.yul\":504:513   */\n      dup5\n        /* \"#utility.yul\":495:502   */\n      dup7\n        /* \"#utility.yul\":491:514   */\n      sub\n        /* \"#utility.yul\":487:519   */\n      slt\n        /* \"#utility.yul\":484:536   */\n      iszero\n      tag_47\n      jumpi\n        /* \"#utility.yul\":532:533   */\n      0x00\n        /* \"#utility.yul\":529:530   */\n      dup1\n        /* \"#utility.yul\":522:534   */\n      revert\n        /* \"#utility.yul\":484:536   */\n    tag_47:\n        /* \"#utility.yul\":568:577   */\n      dup4\n        /* \"#utility.yul\":555:578   */\n      calldataload\n        /* \"#utility.yul\":545:578   */\n      swap3\n      pop\n        /* \"#utility.yul\":629:631   */\n      0x20\n        /* \"#utility.yul\":618:627   */\n      dup5\n        /* \"#utility.yul\":614:632   */\n      add\n        /* \"#utility.yul\":601:633   */\n      calldataload\n        /* \"#utility.yul\":656:674   */\n      0xffffffffffffffff\n        /* \"#utility.yul\":648:654   */\n      dup2\n        /* \"#utility.yul\":645:675   */\n      gt\n        /* \"#utility.yul\":642:692   */\n      iszero\n      tag_48\n      jumpi\n        /* \"#utility.yul\":688:689   */\n      0x00\n        /* \"#utility.yul\":685:686   */\n      dup1\n        /* \"#utility.yul\":678:690   */\n      revert\n        /* \"#utility.yul\":642:692   */\n    tag_48:\n        /* \"#utility.yul\":727:786   */\n      tag_49\n        /* \"#utility.yul\":778:785   */\n      dup7\n        /* \"#utility.yul\":769:775   */\n      dup3\n        /* \"#utility.yul\":758:767   */\n      dup8\n        /* \"#utility.yul\":754:776   */\n      add\n        /* \"#utility.yul\":727:786   */\n      tag_35\n      jump\t// in\n    tag_49:\n        /* \"#utility.yul\":367:846   */\n      swap5\n      swap8\n        /* \"#utility.yul\":805:813   */\n      swap1\n      swap7\n      pop\n        /* \"#utility.yul\":701:786   */\n      swap4\n      swap5\n      pop\n      pop\n      pop\n      pop\n        /* \"#utility.yul\":367:846   */\n      jump\t// out\n        /* \"#utility.yul\":851:1262   */\n    tag_15:\n        /* \"#utility.yul\":922:928   */\n      0x00\n        /* \"#utility.yul\":930:936   */\n      dup1\n        /* \"#utility.yul\":983:985   */\n      0x20\n        /* \"#utility.yul\":971:980   */\n      dup4\n        /* \"#utility.yul\":962:969   */\n      dup6\n        /* \"#utility.yul\":958:981   */\n      sub\n        /* \"#utility.yul\":954:986   */\n      slt\n        /* \"#utility.yul\":951:1003   */\n      iszero\n      tag_51\n      jumpi\n        /* \"#utility.yul\":999:1000   */\n      0x00\n        /* \"#utility.yul\":996:997   */\n      dup1\n        /* \"#utility.yul\":989:1001   */\n      revert\n        /* \"#utility.yul\":951:1003   */\n    tag_51:\n        /* \"#utility.yul\":1039:1048   */\n      dup3\n        /* \"#utility.yul\":1026:1049   */\n      calldataload\n        /* \"#utility.yul\":1072:1090   */\n      0xffffffffffffffff\n        /* \"#utility.yul\":1064:1070   */\n      dup2\n        /* \"#utility.yul\":1061:1091   */\n      gt\n        /* \"#utility.yul\":1058:1108   */\n      iszero\n      tag_52\n      jumpi\n        /* \"#utility.yul\":1104:1105   */\n      0x00\n        /* \"#utility.yul\":1101:1102   */\n      dup1\n        /* \"#utility.yul\":1094:1106   */\n      revert\n        /* \"#utility.yul\":1058:1108   */\n    tag_52:\n        /* \"#utility.yul\":1143:1202   */\n      tag_53\n        /* \"#utility.yul\":1194:1201   */\n      dup6\n        /* \"#utility.yul\":1185:1191   */\n      dup3\n        /* \"#utility.yul\":1174:1183   */\n      dup7\n        /* \"#utility.yul\":1170:1192   */\n      add\n        /* \"#utility.yul\":1143:1202   */\n      tag_35\n      jump\t// in\n    tag_53:\n        /* \"#utility.yul\":1221:1229   */\n      swap1\n      swap7\n        /* \"#utility.yul\":1117:1202   */\n      swap1\n      swap6\n      pop\n        /* \"#utility.yul\":851:1262   */\n      swap4\n      pop\n      pop\n      pop\n      pop\n      jump\t// out\n        /* \"#utility.yul\":1267:1394   */\n    tag_21:\n        /* \"#utility.yul\":1328:1338   */\n      0x4e487b71\n        /* \"#utility.yul\":1323:1326   */\n      0xe0\n        /* \"#utility.yul\":1319:1339   */\n      shl\n        /* \"#utility.yul\":1316:1317   */\n      0x00\n        /* \"#utility.yul\":1309:1340   */\n      mstore\n        /* \"#utility.yul\":1359:1363   */\n      0x32\n        /* \"#utility.yul\":1356:1357   */\n      0x04\n        /* \"#utility.yul\":1349:1364   */\n      mstore\n        /* \"#utility.yul\":1383:1387   */\n      0x24\n        /* \"#utility.yul\":1380:1381   */\n      0x00\n        /* \"#utility.yul\":1373:1388   */\n      revert\n        /* \"#utility.yul\":1399:1526   */\n    tag_36:\n        /* \"#utility.yul\":1460:1470   */\n      0x4e487b71\n        /* \"#utility.yul\":1455:1458   */\n      0xe0\n        /* \"#utility.yul\":1451:1471   */\n      shl\n        /* \"#utility.yul\":1448:1449   */\n      0x00\n        /* \"#utility.yul\":1441:1472   */\n      mstore\n        /* \"#utility.yul\":1491:1495   */\n      0x41\n        /* \"#utility.yul\":1488:1489   */\n      0x04\n        /* \"#utility.yul\":1481:1496   */\n      mstore\n        /* \"#utility.yul\":1515:1519   */\n      0x24\n        /* \"#utility.yul\":1512:1513   */\n      0x00\n        /* \"#utility.yul\":1505:1520   */\n      revert\n        /* \"#utility.yul\":1531:1911   */\n    tag_37:\n        /* \"#utility.yul\":1610:1611   */\n      0x01\n        /* \"#utility.yul\":1606:1618   */\n      dup2\n      dup2\n      shr\n      swap1\n        /* \"#utility.yul\":1653:1665   */\n      dup3\n      and\n      dup1\n        /* \"#utility.yul\":1674:1735   */\n      tag_57\n      jumpi\n        /* \"#utility.yul\":1728:1732   */\n      0x7f\n        /* \"#utility.yul\":1720:1726   */\n      dup3\n        /* \"#utility.yul\":1716:1733   */\n      and\n        /* \"#utility.yul\":1706:1733   */\n      swap2\n      pop\n        /* \"#utility.yul\":1674:1735   */\n    tag_57:\n        /* \"#utility.yul\":1781:1783   */\n      0x20\n        /* \"#utility.yul\":1773:1779   */\n      dup3\n        /* \"#utility.yul\":1770:1784   */\n      lt\n        /* \"#utility.yul\":1750:1768   */\n      dup2\n        /* \"#utility.yul\":1747:1785   */\n      sub\n        /* \"#utility.yul\":1744:1905   */\n      tag_58\n      jumpi\n        /* \"#utility.yul\":1827:1837   */\n      0x4e487b71\n        /* \"#utility.yul\":1822:1825   */\n      0xe0\n        /* \"#utility.yul\":1818:1838   */\n      shl\n        /* \"#utility.yul\":1815:1816   */\n      0x00\n        /* \"#utility.yul\":1808:1839   */\n      mstore\n        /* \"#utility.yul\":1862:1866   */\n      0x22\n        /* \"#utility.yul\":1859:1860   */\n      0x04\n        /* \"#utility.yul\":1852:1867   */\n      mstore\n        /* \"#utility.yul\":1890:1894   */\n      0x24\n        /* \"#utility.yul\":1887:1888   */\n      0x00\n        /* \"#utility.yul\":1880:1895   */\n      revert\n        /* \"#utility.yul\":1744:1905   */\n    tag_58:\n      pop\n        /* \"#utility.yul\":1531:1911   */\n      swap2\n      swap1\n      pop\n      jump\t// out\n        /* \"#utility.yul\":2042:2587   */\n    tag_39:\n        /* \"#utility.yul\":2144:2146   */\n      0x1f\n        /* \"#utility.yul\":2139:2142   */\n      dup3\n        /* \"#utility.yul\":2136:2147   */\n      gt\n        /* \"#utility.yul\":2133:2581   */\n      iszero\n      tag_61\n      jumpi\n        /* \"#utility.yul\":2180:2181   */\n      0x00\n        /* \"#utility.yul\":2205:2210   */\n      dup2\n        /* \"#utility.yul\":2201:2203   */\n      dup2\n        /* \"#utility.yul\":2194:2211   */\n      mstore\n        /* \"#utility.yul\":2250:2254   */\n      0x20\n        /* \"#utility.yul\":2246:2248   */\n      dup2\n        /* \"#utility.yul\":2236:2255   */\n      keccak256\n        /* \"#utility.yul\":2320:2322   */\n      0x1f\n        /* \"#utility.yul\":2308:2318   */\n      dup6\n        /* \"#utility.yul\":2304:2323   */\n      add\n        /* \"#utility.yul\":2301:2302   */\n      0x05\n        /* \"#utility.yul\":2297:2324   */\n      shr\n        /* \"#utility.yul\":2291:2295   */\n      dup2\n        /* \"#utility.yul\":2287:2325   */\n      add\n        /* \"#utility.yul\":2356:2360   */\n      0x20\n        /* \"#utility.yul\":2344:2354   */\n      dup7\n        /* \"#utility.yul\":2341:2361   */\n      lt\n        /* \"#utility.yul\":2338:2385   */\n      iszero\n      tag_62\n      jumpi\n      pop\n        /* \"#utility.yul\":2379:2383   */\n      dup1\n        /* \"#utility.yul\":2338:2385   */\n    tag_62:\n        /* \"#utility.yul\":2434:2436   */\n      0x1f\n        /* \"#utility.yul\":2429:2432   */\n      dup6\n        /* \"#utility.yul\":2425:2437   */\n      add\n        /* \"#utility.yul\":2422:2423   */\n      0x05\n        /* \"#utility.yul\":2418:2438   */\n      shr\n        /* \"#utility.yul\":2412:2416   */\n      dup3\n        /* \"#utility.yul\":2408:2439   */\n      add\n        /* \"#utility.yul\":2398:2439   */\n      swap2\n      pop\n        /* \"#utility.yul\":2489:2571   */\n    tag_63:\n        /* \"#utility.yul\":2507:2509   */\n      dup2\n        /* \"#utility.yul\":2500:2505   */\n      dup2\n        /* \"#utility.yul\":2497:2510   */\n      lt\n        /* \"#utility.yul\":2489:2571   */\n      iszero\n      tag_65\n      jumpi\n        /* \"#utility.yul\":2552:2569   */\n      dup3\n      dup2\n      sstore\n        /* \"#utility.yul\":2533:2534   */\n      0x01\n        /* \"#utility.yul\":2522:2535   */\n      add\n        /* \"#utility.yul\":2489:2571   */\n      jump(tag_63)\n    tag_65:\n        /* \"#utility.yul\":2493:2496   */\n      pop\n      pop\n      pop\n        /* \"#utility.yul\":2133:2581   */\n    tag_61:\n        /* \"#utility.yul\":2042:2587   */\n      pop\n      pop\n      pop\n      jump\t// out\n        /* \"#utility.yul\":2763:3969   */\n    tag_24:\n        /* \"#utility.yul\":2887:2905   */\n      0xffffffffffffffff\n        /* \"#utility.yul\":2882:2885   */\n      dup4\n        /* \"#utility.yul\":2879:2906   */\n      gt\n        /* \"#utility.yul\":2876:2929   */\n      iszero\n      tag_69\n      jumpi\n        /* \"#utility.yul\":2909:2927   */\n      tag_69\n      tag_36\n      jump\t// in\n    tag_69:\n        /* \"#utility.yul\":2938:3032   */\n      tag_70\n        /* \"#utility.yul\":3028:3031   */\n      dup4\n        /* \"#utility.yul\":2988:3026   */\n      tag_71\n        /* \"#utility.yul\":3020:3024   */\n      dup4\n        /* \"#utility.yul\":3014:3025   */\n      sload\n        /* \"#utility.yul\":2988:3026   */\n      tag_37\n      jump\t// in\n    tag_71:\n        /* \"#utility.yul\":2982:2986   */\n      dup4\n        /* \"#utility.yul\":2938:3032   */\n      tag_39\n      jump\t// in\n    tag_70:\n        /* \"#utility.yul\":3058:3059   */\n      0x00\n        /* \"#utility.yul\":3083:3085   */\n      0x1f\n        /* \"#utility.yul\":3078:3081   */\n      dup5\n        /* \"#utility.yul\":3075:3086   */\n      gt\n        /* \"#utility.yul\":3100:3101   */\n      0x01\n        /* \"#utility.yul\":3095:3711   */\n      dup2\n      eq\n      tag_73\n      jumpi\n        /* \"#utility.yul\":3755:3756   */\n      0x00\n        /* \"#utility.yul\":3772:3775   */\n      dup6\n        /* \"#utility.yul\":3769:3862   */\n      iszero\n      tag_74\n      jumpi\n      pop\n        /* \"#utility.yul\":3828:3847   */\n      dup4\n      dup3\n      add\n        /* \"#utility.yul\":3815:3848   */\n      calldataload\n        /* \"#utility.yul\":3769:3862   */\n    tag_74:\n      not(0x00)\n        /* \"#utility.yul\":2720:2721   */\n      0x03\n        /* \"#utility.yul\":2716:2727   */\n      dup8\n      swap1\n      shl\n        /* \"#utility.yul\":2712:2736   */\n      shr\n        /* \"#utility.yul\":2708:2737   */\n      not\n        /* \"#utility.yul\":2698:2738   */\n      and\n        /* \"#utility.yul\":2744:2745   */\n      0x01\n        /* \"#utility.yul\":2740:2751   */\n      dup7\n      swap1\n      shl\n        /* \"#utility.yul\":2695:2752   */\n      or\n        /* \"#utility.yul\":3875:3953   */\n      dup4\n      sstore\n        /* \"#utility.yul\":3068:3963   */\n      jump(tag_72)\n        /* \"#utility.yul\":3095:3711   */\n    tag_73:\n        /* \"#utility.yul\":1989:1990   */\n      0x00\n        /* \"#utility.yul\":1982:1996   */\n      dup4\n      dup2\n      mstore\n        /* \"#utility.yul\":2026:2030   */\n      0x20\n        /* \"#utility.yul\":2013:2031   */\n      swap1\n      keccak256\n      not(0x1f)\n        /* \"#utility.yul\":3131:3148   */\n      dup7\n      and\n      swap1\n        /* \"#utility.yul\":3232:3241   */\n      dup4\n        /* \"#utility.yul\":3254:3483   */\n    tag_77:\n        /* \"#utility.yul\":3268:3275   */\n      dup3\n        /* \"#utility.yul\":3265:3266   */\n      dup2\n        /* \"#utility.yul\":3262:3276   */\n      lt\n        /* \"#utility.yul\":3254:3483   */\n      iszero\n      tag_79\n      jumpi\n        /* \"#utility.yul\":3357:3376   */\n      dup7\n      dup6\n      add\n        /* \"#utility.yul\":3344:3377   */\n      calldataload\n        /* \"#utility.yul\":3329:3378   */\n      dup3\n      sstore\n        /* \"#utility.yul\":3464:3468   */\n      0x20\n        /* \"#utility.yul\":3449:3469   */\n      swap5\n      dup6\n      add\n      swap5\n        /* \"#utility.yul\":3417:3418   */\n      0x01\n        /* \"#utility.yul\":3405:3419   */\n      swap1\n      swap3\n      add\n      swap2\n        /* \"#utility.yul\":3284:3296   */\n      add\n        /* \"#utility.yul\":3254:3483   */\n      jump(tag_77)\n    tag_79:\n        /* \"#utility.yul\":3258:3261   */\n      pop\n        /* \"#utility.yul\":3511:3514   */\n      dup7\n        /* \"#utility.yul\":3502:3509   */\n      dup3\n        /* \"#utility.yul\":3499:3515   */\n      lt\n        /* \"#utility.yul\":3496:3655   */\n      iszero\n      tag_80\n      jumpi\n        /* \"#utility.yul\":3635:3636   */\n      0x00\n        /* \"#utility.yul\":3631:3637   */\n      not\n        /* \"#utility.yul\":3625:3628   */\n      0xf8\n        /* \"#utility.yul\":3619:3622   */\n      dup9\n        /* \"#utility.yul\":3616:3617   */\n      0x03\n        /* \"#utility.yul\":3612:3623   */\n      shl\n        /* \"#utility.yul\":3608:3629   */\n      and\n        /* \"#utility.yul\":3604:3638   */\n      shr\n        /* \"#utility.yul\":3600:3639   */\n      not\n        /* \"#utility.yul\":3587:3596   */\n      dup5\n        /* \"#utility.yul\":3582:3585   */\n      dup8\n        /* \"#utility.yul\":3578:3597   */\n      add\n        /* \"#utility.yul\":3565:3598   */\n      calldataload\n        /* \"#utility.yul\":3561:3640   */\n      and\n        /* \"#utility.yul\":3553:3559   */\n      dup2\n        /* \"#utility.yul\":3546:3641   */\n      sstore\n        /* \"#utility.yul\":3496:3655   */\n    tag_80:\n      pop\n      pop\n        /* \"#utility.yul\":3698:3699   */\n      0x01\n        /* \"#utility.yul\":3692:3695   */\n      dup6\n        /* \"#utility.yul\":3689:3690   */\n      0x01\n        /* \"#utility.yul\":3685:3696   */\n      shl\n        /* \"#utility.yul\":3681:3700   */\n      add\n        /* \"#utility.yul\":3675:3679   */\n      dup4\n        /* \"#utility.yul\":3668:3701   */\n      sstore\n        /* \"#utility.yul\":3068:3963   */\n    tag_72:\n      pop\n      pop\n        /* \"#utility.yul\":2763:3969   */\n      pop\n      pop\n      pop\n      jump\t// out\n        /* \"#utility.yul\":3974:5326   */\n    tag_34:\n        /* \"#utility.yul\":4100:4103   */\n      dup2\n        /* \"#utility.yul\":4094:4104   */\n      mload\n        /* \"#utility.yul\":4127:4145   */\n      0xffffffffffffffff\n        /* \"#utility.yul\":4119:4125   */\n      dup2\n        /* \"#utility.yul\":4116:4146   */\n      gt\n        /* \"#utility.yul\":4113:4169   */\n      iszero\n      tag_83\n      jumpi\n        /* \"#utility.yul\":4149:4167   */\n      tag_83\n      tag_36\n      jump\t// in\n    tag_83:\n        /* \"#utility.yul\":4178:4275   */\n      tag_84\n        /* \"#utility.yul\":4268:4274   */\n      dup2\n        /* \"#utility.yul\":4228:4266   */\n      tag_85\n        /* \"#utility.yul\":4260:4264   */\n      dup5\n        /* \"#utility.yul\":4254:4265   */\n      sload\n        /* \"#utility.yul\":4228:4266   */\n      tag_37\n      jump\t// in\n    tag_85:\n        /* \"#utility.yul\":4222:4226   */\n      dup5\n        /* \"#utility.yul\":4178:4275   */\n      tag_39\n      jump\t// in\n    tag_84:\n        /* \"#utility.yul\":4330:4334   */\n      0x20\n      dup1\n        /* \"#utility.yul\":4394:4396   */\n      0x1f\n        /* \"#utility.yul\":4383:4397   */\n      dup4\n      gt\n        /* \"#utility.yul\":4411:4412   */\n      0x01\n        /* \"#utility.yul\":4406:5069   */\n      dup2\n      eq\n      tag_87\n      jumpi\n        /* \"#utility.yul\":5113:5114   */\n      0x00\n        /* \"#utility.yul\":5130:5136   */\n      dup5\n        /* \"#utility.yul\":5127:5216   */\n      iszero\n      tag_88\n      jumpi\n      pop\n        /* \"#utility.yul\":5182:5201   */\n      dup6\n      dup4\n      add\n        /* \"#utility.yul\":5176:5202   */\n      mload\n        /* \"#utility.yul\":5127:5216   */\n    tag_88:\n      not(0x00)\n        /* \"#utility.yul\":2720:2721   */\n      0x03\n        /* \"#utility.yul\":2716:2727   */\n      dup7\n      swap1\n      shl\n        /* \"#utility.yul\":2712:2736   */\n      shr\n        /* \"#utility.yul\":2708:2737   */\n      not\n        /* \"#utility.yul\":2698:2738   */\n      and\n        /* \"#utility.yul\":2744:2745   */\n      0x01\n        /* \"#utility.yul\":2740:2751   */\n      dup6\n      swap1\n      shl\n        /* \"#utility.yul\":2695:2752   */\n      or\n        /* \"#utility.yul\":5229:5310   */\n      dup6\n      sstore\n        /* \"#utility.yul\":4376:5320   */\n      jump(tag_65)\n        /* \"#utility.yul\":4406:5069   */\n    tag_87:\n        /* \"#utility.yul\":1989:1990   */\n      0x00\n        /* \"#utility.yul\":1982:1996   */\n      dup6\n      dup2\n      mstore\n        /* \"#utility.yul\":2026:2030   */\n      0x20\n        /* \"#utility.yul\":2013:2031   */\n      dup2\n      keccak256\n      not(0x1f)\n        /* \"#utility.yul\":4442:4462   */\n      dup7\n      and\n      swap2\n        /* \"#utility.yul\":4560:4796   */\n    tag_91:\n        /* \"#utility.yul\":4574:4581   */\n      dup3\n        /* \"#utility.yul\":4571:4572   */\n      dup2\n        /* \"#utility.yul\":4568:4582   */\n      lt\n        /* \"#utility.yul\":4560:4796   */\n      iszero\n      tag_93\n      jumpi\n        /* \"#utility.yul\":4663:4682   */\n      dup9\n      dup7\n      add\n        /* \"#utility.yul\":4657:4683   */\n      mload\n        /* \"#utility.yul\":4642:4684   */\n      dup3\n      sstore\n        /* \"#utility.yul\":4755:4782   */\n      swap5\n      dup5\n      add\n      swap5\n        /* \"#utility.yul\":4723:4724   */\n      0x01\n        /* \"#utility.yul\":4711:4725   */\n      swap1\n      swap2\n      add\n      swap1\n        /* \"#utility.yul\":4590:4609   */\n      dup5\n      add\n        /* \"#utility.yul\":4560:4796   */\n      jump(tag_91)\n    tag_93:\n        /* \"#utility.yul\":4564:4567   */\n      pop\n        /* \"#utility.yul\":4824:4830   */\n      dup6\n        /* \"#utility.yul\":4815:4822   */\n      dup3\n        /* \"#utility.yul\":4812:4831   */\n      lt\n        /* \"#utility.yul\":4809:5010   */\n      iszero\n      tag_94\n      jumpi\n        /* \"#utility.yul\":4885:4904   */\n      dup8\n      dup6\n      add\n        /* \"#utility.yul\":4879:4905   */\n      mload\n      not(0x00)\n        /* \"#utility.yul\":4968:4969   */\n      0x03\n        /* \"#utility.yul\":4964:4978   */\n      dup9\n      swap1\n      shl\n        /* \"#utility.yul\":4980:4983   */\n      0xf8\n        /* \"#utility.yul\":4960:4984   */\n      and\n        /* \"#utility.yul\":4956:4993   */\n      shr\n        /* \"#utility.yul\":4952:4994   */\n      not\n        /* \"#utility.yul\":4937:4995   */\n      and\n        /* \"#utility.yul\":4922:4996   */\n      dup2\n      sstore\n        /* \"#utility.yul\":4809:5010   */\n    tag_94:\n      pop\n      pop\n      pop\n      pop\n      pop\n        /* \"#utility.yul\":5056:5057   */\n      0x01\n        /* \"#utility.yul\":5040:5054   */\n      swap1\n      dup2\n      shl\n        /* \"#utility.yul\":5036:5058   */\n      add\n        /* \"#utility.yul\":5023:5059   */\n      swap1\n      sstore\n      pop\n        /* \"#utility.yul\":3974:5326   */\n      jump\t// out\n\n    auxdata: 0xa264697066735822122074672ecbdf703886b87cd0e76ab12ab03389a4348cda5dd3cd98ebb7468f272c64736f6c63430008100033\n}\n",
				"bytecode": {
					"linkReferences": {},
					"object": "608060405234801561001057600080fd5b5061047f806100206000396000f3fe608060405234801561001057600080fd5b50600436106100415760003560e01c80636bb8046d14610046578063d534ee8814610046578063e34f12211461005b575b600080fd5b610059610054366004610185565b61006e565b005b6100596100693660046101d1565b6100b5565b600054831061007c57600080fd5b81816000858154811061009157610091610213565b906000526020600020906002020160000191826100af9291906102c8565b50505050565b6040805160606020601f850181900402820181018352918101838152600092829190869086908190850183828082843760009201829052509385525050506020918201819052835460018101855593815220815191926002020190819061011c9082610389565b50602091909101516001909101805460ff19169115159190911790555050565b60008083601f84011261014e57600080fd5b50813567ffffffffffffffff81111561016657600080fd5b60208301915083602082850101111561017e57600080fd5b9250929050565b60008060006040848603121561019a57600080fd5b83359250602084013567ffffffffffffffff8111156101b857600080fd5b6101c48682870161013c565b9497909650939450505050565b600080602083850312156101e457600080fd5b823567ffffffffffffffff8111156101fb57600080fd5b6102078582860161013c565b90969095509350505050565b634e487b7160e01b600052603260045260246000fd5b634e487b7160e01b600052604160045260246000fd5b600181811c9082168061025357607f821691505b60208210810361027357634e487b7160e01b600052602260045260246000fd5b50919050565b601f8211156102c357600081815260208120601f850160051c810160208610156102a05750805b601f850160051c820191505b818110156102bf578281556001016102ac565b5050505b505050565b67ffffffffffffffff8311156102e0576102e0610229565b6102f4836102ee835461023f565b83610279565b6000601f84116001811461032857600085156103105750838201355b600019600387901b1c1916600186901b178355610382565b600083815260209020601f19861690835b828110156103595786850135825560209485019460019092019101610339565b50868210156103765760001960f88860031b161c19848701351681555b505060018560011b0183555b5050505050565b815167ffffffffffffffff8111156103a3576103a3610229565b6103b7816103b1845461023f565b84610279565b602080601f8311600181146103ec57600084156103d45750858301515b600019600386901b1c1916600185901b1785556102bf565b600085815260208120601f198616915b8281101561041b578886015182559484019460019091019084016103fc565b50858210156104395787850151600019600388901b60f8161c191681555b5050505050600190811b0190555056fea264697066735822122074672ecbdf703886b87cd0e76ab12ab03389a4348cda5dd3cd98ebb7468f272c64736f6c63430008100033",
					"opcodes": "PUSH1 0x80 PUSH1 0x40 MSTORE CALLVALUE DUP1 ISZERO PUSH2 0x10 JUMPI PUSH1 0x0 DUP1 REVERT JUMPDEST POP PUSH2 0x47F DUP1 PUSH2 0x20 PUSH1 0x0 CODECOPY PUSH1 0x0 RETURN INVALID PUSH1 0x80 PUSH1 0x40 MSTORE CALLVALUE DUP1 ISZERO PUSH2 0x10 JUMPI PUSH1 0x0 DUP1 REVERT JUMPDEST POP PUSH1 0x4 CALLDATASIZE LT PUSH2 0x41 JUMPI PUSH1 0x0 CALLDATALOAD PUSH1 0xE0 SHR DUP1 PUSH4 0x6BB8046D EQ PUSH2 0x46 JUMPI DUP1 PUSH4 0xD534EE88 EQ PUSH2 0x46 JUMPI DUP1 PUSH4 0xE34F1221 EQ PUSH2 0x5B JUMPI JUMPDEST PUSH1 0x0 DUP1 REVERT JUMPDEST PUSH2 0x59 PUSH2 0x54 CALLDATASIZE PUSH1 0x4 PUSH2 0x185 JUMP JUMPDEST PUSH2 0x6E JUMP JUMPDEST STOP JUMPDEST PUSH2 0x59 PUSH2 0x69 CALLDATASIZE PUSH1 0x4 PUSH2 0x1D1 JUMP JUMPDEST PUSH2 0xB5 JUMP JUMPDEST PUSH1 0x0 SLOAD DUP4 LT PUSH2 0x7C JUMPI PUSH1 0x0 DUP1 REVERT JUMPDEST DUP2 DUP2 PUSH1 0x0 DUP6 DUP2 SLOAD DUP2 LT PUSH2 0x91 JUMPI PUSH2 0x91 PUSH2 0x213 JUMP JUMPDEST SWAP1 PUSH1 0x0 MSTORE PUSH1 0x20 PUSH1 0x0 KECCAK256 SWAP1 PUSH1 0x2 MUL ADD PUSH1 0x0 ADD SWAP2 DUP3 PUSH2 0xAF SWAP3 SWAP2 SWAP1 PUSH2 0x2C8 JUMP JUMPDEST POP POP POP POP JUMP JUMPDEST PUSH1 0x40 DUP1 MLOAD PUSH1 0x60 PUSH1 0x20 PUSH1 0x1F DUP6 ADD DUP2 SWAP1 DIV MUL DUP3 ADD DUP2 ADD DUP4 MSTORE SWAP2 DUP2 ADD DUP4 DUP2 MSTORE PUSH1 0x0 SWAP3 DUP3 SWAP2 SWAP1 DUP7 SWAP1 DUP7 SWAP1 DUP2 SWAP1 DUP6 ADD DUP4 DUP3 DUP1 DUP3 DUP5 CALLDATACOPY PUSH1 0x0 SWAP3 ADD DUP3 SWAP1 MSTORE POP SWAP4 DUP6 MSTORE POP POP POP PUSH1 0x20 SWAP2 DUP3 ADD DUP2 SWAP1 MSTORE DUP4 SLOAD PUSH1 0x1 DUP2 ADD DUP6 SSTORE SWAP4 DUP2 MSTORE KECCAK256 DUP2 MLOAD SWAP2 SWAP3 PUSH1 0x2 MUL ADD SWAP1 DUP2 SWAP1 PUSH2 0x11C SWAP1 DUP3 PUSH2 0x389 JUMP JUMPDEST POP PUSH1 0x20 SWAP2 SWAP1 SWAP2 ADD MLOAD PUSH1 0x1 SWAP1 SWAP2 ADD DUP1 SLOAD PUSH1 0xFF NOT AND SWAP2 ISZERO ISZERO SWAP2 SWAP1 SWAP2 OR SWAP1 SSTORE POP POP JUMP JUMPDEST PUSH1 0x0 DUP1 DUP4 PUSH1 0x1F DUP5 ADD SLT PUSH2 0x14E JUMPI PUSH1 0x0 DUP1 REVERT JUMPDEST POP DUP2 CALLDATALOAD PUSH8 0xFFFFFFFFFFFFFFFF DUP2 GT ISZERO PUSH2 0x166 JUMPI PUSH1 0x0 DUP1 REVERT JUMPDEST PUSH1 0x20 DUP4 ADD SWAP2 POP DUP4 PUSH1 0x20 DUP3 DUP6 ADD ADD GT ISZERO PUSH2 0x17E JUMPI PUSH1 0x0 DUP1 REVERT JUMPDEST SWAP3 POP SWAP3 SWAP1 POP JUMP JUMPDEST PUSH1 0x0 DUP1 PUSH1 0x0 PUSH1 0x40 DUP5 DUP7 SUB SLT ISZERO PUSH2 0x19A JUMPI PUSH1 0x0 DUP1 REVERT JUMPDEST DUP4 CALLDATALOAD SWAP3 POP PUSH1 0x20 DUP5 ADD CALLDATALOAD PUSH8 0xFFFFFFFFFFFFFFFF DUP2 GT ISZERO PUSH2 0x1B8 JUMPI PUSH1 0x0 DUP1 REVERT JUMPDEST PUSH2 0x1C4 DUP7 DUP3 DUP8 ADD PUSH2 0x13C JUMP JUMPDEST SWAP5 SWAP8 SWAP1 SWAP7 POP SWAP4 SWAP5 POP POP POP POP JUMP JUMPDEST PUSH1 0x0 DUP1 PUSH1 0x20 DUP4 DUP6 SUB SLT ISZERO PUSH2 0x1E4 JUMPI PUSH1 0x0 DUP1 REVERT JUMPDEST DUP3 CALLDATALOAD PUSH8 0xFFFFFFFFFFFFFFFF DUP2 GT ISZERO PUSH2 0x1FB JUMPI PUSH1 0x0 DUP1 REVERT JUMPDEST PUSH2 0x207 DUP6 DUP3 DUP7 ADD PUSH2 0x13C JUMP JUMPDEST SWAP1 SWAP7 SWAP1 SWAP6 POP SWAP4 POP POP POP POP JUMP JUMPDEST PUSH4 0x4E487B71 PUSH1 0xE0 SHL PUSH1 0x0 MSTORE PUSH1 0x32 PUSH1 0x4 MSTORE PUSH1 0x24 PUSH1 0x0 REVERT JUMPDEST PUSH4 0x4E487B71 PUSH1 0xE0 SHL PUSH1 0x0 MSTORE PUSH1 0x41 PUSH1 0x4 MSTORE PUSH1 0x24 PUSH1 0x0 REVERT JUMPDEST PUSH1 0x1 DUP2 DUP2 SHR SWAP1 DUP3 AND DUP1 PUSH2 0x253 JUMPI PUSH1 0x7F DUP3 AND SWAP2 POP JUMPDEST PUSH1 0x20 DUP3 LT DUP2 SUB PUSH2 0x273 JUMPI PUSH4 0x4E487B71 PUSH1 0xE0 SHL PUSH1 0x0 MSTORE PUSH1 0x22 PUSH1 0x4 MSTORE PUSH1 0x24 PUSH1 0x0 REVERT JUMPDEST POP SWAP2 SWAP1 POP JUMP JUMPDEST PUSH1 0x1F DUP3 GT ISZERO PUSH2 0x2C3 JUMPI PUSH1 0x0 DUP2 DUP2 MSTORE PUSH1 0x20 DUP2 KECCAK256 PUSH1 0x1F DUP6 ADD PUSH1 0x5 SHR DUP2 ADD PUSH1 0x20 DUP7 LT ISZERO PUSH2 0x2A0 JUMPI POP DUP1 JUMPDEST PUSH1 0x1F DUP6 ADD PUSH1 0x5 SHR DUP3 ADD SWAP2 POP JUMPDEST DUP2 DUP2 LT ISZERO PUSH2 0x2BF JUMPI DUP3 DUP2 SSTORE PUSH1 0x1 ADD PUSH2 0x2AC JUMP JUMPDEST POP POP POP JUMPDEST POP POP POP JUMP JUMPDEST PUSH8 0xFFFFFFFFFFFFFFFF DUP4 GT ISZERO PUSH2 0x2E0 JUMPI PUSH2 0x2E0 PUSH2 0x229 JUMP JUMPDEST PUSH2 0x2F4 DUP4 PUSH2 0x2EE DUP4 SLOAD PUSH2 0x23F JUMP JUMPDEST DUP4 PUSH2 0x279 JUMP JUMPDEST PUSH1 0x0 PUSH1 0x1F DUP5 GT PUSH1 0x1 DUP2 EQ PUSH2 0x328 JUMPI PUSH1 0x0 DUP6 ISZERO PUSH2 0x310 JUMPI POP DUP4 DUP3 ADD CALLDATALOAD JUMPDEST PUSH1 0x0 NOT PUSH1 0x3 DUP8 SWAP1 SHL SHR NOT AND PUSH1 0x1 DUP7 SWAP1 SHL OR DUP4 SSTORE PUSH2 0x382 JUMP JUMPDEST PUSH1 0x0 DUP4 DUP2 MSTORE PUSH1 0x20 SWAP1 KECCAK256 PUSH1 0x1F NOT DUP7 AND SWAP1 DUP4 JUMPDEST DUP3 DUP2 LT ISZERO PUSH2 0x359 JUMPI DUP7 DUP6 ADD CALLDATALOAD DUP3 SSTORE PUSH1 0x20 SWAP5 DUP6 ADD SWAP5 PUSH1 0x1 SWAP1 SWAP3 ADD SWAP2 ADD PUSH2 0x339 JUMP JUMPDEST POP DUP7 DUP3 LT ISZERO PUSH2 0x376 JUMPI PUSH1 0x0 NOT PUSH1 0xF8 DUP9 PUSH1 0x3 SHL AND SHR NOT DUP5 DUP8 ADD CALLDATALOAD AND DUP2 SSTORE JUMPDEST POP POP PUSH1 0x1 DUP6 PUSH1 0x1 SHL ADD DUP4 SSTORE JUMPDEST POP POP POP POP POP JUMP JUMPDEST DUP2 MLOAD PUSH8 0xFFFFFFFFFFFFFFFF DUP2 GT ISZERO PUSH2 0x3A3 JUMPI PUSH2 0x3A3 PUSH2 0x229 JUMP JUMPDEST PUSH2 0x3B7 DUP2 PUSH2 0x3B1 DUP5 SLOAD PUSH2 0x23F JUMP JUMPDEST DUP5 PUSH2 0x279 JUMP JUMPDEST PUSH1 0x20 DUP1 PUSH1 0x1F DUP4 GT PUSH1 0x1 DUP2 EQ PUSH2 0x3EC JUMPI PUSH1 0x0 DUP5 ISZERO PUSH2 0x3D4 JUMPI POP DUP6 DUP4 ADD MLOAD JUMPDEST PUSH1 0x0 NOT PUSH1 0x3 DUP7 SWAP1 SHL SHR NOT AND PUSH1 0x1 DUP6 SWAP1 SHL OR DUP6 SSTORE PUSH2 0x2BF JUMP JUMPDEST PUSH1 0x0 DUP6 DUP2 MSTORE PUSH1 0x20 DUP2 KECCAK256 PUSH1 0x1F NOT DUP7 AND SWAP2 JUMPDEST DUP3 DUP2 LT ISZERO PUSH2 0x41B JUMPI DUP9 DUP7 ADD MLOAD DUP3 SSTORE SWAP5 DUP5 ADD SWAP5 PUSH1 0x1 SWAP1 SWAP2 ADD SWAP1 DUP5 ADD PUSH2 0x3FC JUMP JUMPDEST POP DUP6 DUP3 LT ISZERO PUSH2 0x439 JUMPI DUP8 DUP6 ADD MLOAD PUSH1 0x0 NOT PUSH1 0x3 DUP9 SWAP1 SHL PUSH1 0xF8 AND SHR NOT AND DUP2 SSTORE JUMPDEST POP POP POP POP POP PUSH1 0x1 SWAP1 DUP2 SHL ADD SWAP1 SSTORE POP JUMP INVALID LOG2 PUSH5 0x6970667358 0x22 SLT KECCAK256 PUSH21 0x672ECBDF703886B87CD0E76AB12AB03389A4348CDA 0x5D 0xD3 0xCD SWAP9 0xEB 0xB7 CHAINID DUP16 0x27 0x2C PUSH5 0x736F6C6343 STOP ADDMOD LT STOP CALLER "
				},
				"gasEstimates": {
					"creation": {
						"codeDepositCost": "230200",
						"executionCost": "269",
						"totalCost": "230469"
					},
					"external": {
						"createTodo(string)": "infinite",
						"tog(uint256,string)": "infinite",
						"updateTodo(uint256,string)": "infinite"
					}
				},
				"methodIdentifiers": {
					"createTodo(string)": "e34f1221",
					"tog(uint256,string)": "6bb8046d",
					"updateTodo(uint256,string)": "d534ee88"
				}
			},
			"storageLayout": {
				"storage": [
					{
						"astId": 10,
						"contract": "Week5/TodoList.sol:TodoList",
						"label": "todoList",
						"offset": 0,
						"slot": "0",
						"type": "t_array(t_struct(Todo)6_storage)dyn_storage"
					}
				],
				"types": {
					"t_array(t_struct(Todo)6_storage)dyn_storage": {
						"base": "t_struct(Todo)6_storage",
						"encoding": "dynamic_array",
						"label": "struct TodoList.Todo[]",
						"numberOfBytes": "32"
					},
					"t_bool": {
						"encoding": "inplace",
						"label": "bool",
						"numberOfBytes": "1"
					},
					"t_string_storage": {
						"encoding": "bytes",
						"label": "string",
						"numberOfBytes": "32"
					},
					"t_struct(Todo)6_storage": {
						"encoding": "inplace",
						"label": "struct TodoList.Todo",
						"members": [
							{
								"astId": 3,
								"contract": "Week5/TodoList.sol:TodoList",
								"label": "text",
								"offset": 0,
								"slot": "0",
								"type": "t_string_storage"
							},
							{
								"astId": 5,
								"contract": "Week5/TodoList.sol:TodoList",
								"label": "isCheck",
								"offset": 0,
								"slot": "1",
								"type": "t_bool"
							}
						],
						"numberOfBytes": "64"
					}
				}
			},
			"userdoc": {
				"kind": "user",
				"methods": {},
				"version": 1
			}
		}
	}
}