{
	"Week5/Callee.sol": {
		"Callee": {
			"abi": [
				{
					"anonymous": false,
					"inputs": [
						{
							"indexed": false,
							"internalType": "bytes",
							"name": "data",
							"type": "bytes"
						},
						{
							"indexed": true,
							"internalType": "address",
							"name": "sender",
							"type": "address"
						},
						{
							"indexed": true,
							"internalType": "address",
							"name": "txOrigin",
							"type": "address"
						}
					],
					"name": "Log",
					"type": "event"
				},
				{
					"inputs": [
						{
							"internalType": "uint256",
							"name": "a",
							"type": "uint256"
						},
						{
							"internalType": "uint256",
							"name": "b",
							"type": "uint256"
						}
					],
					"name": "sum",
					"outputs": [
						{
							"internalType": "uint256",
							"name": "",
							"type": "uint256"
						}
					],
					"stateMutability": "nonpayable",
					"type": "function"
				}
			],
			"devdoc": {
				"kind": "dev",
				"methods": {},
				"version": 1
			},
			"evm": {
				"assembly": "    /* \"Week5/Callee.sol\":70:385  contract Callee {... */\n  mstore(0x40, 0x80)\n  callvalue\n  dup1\n  iszero\n  tag_1\n  jumpi\n  0x00\n  dup1\n  revert\ntag_1:\n  pop\n  dataSize(sub_0)\n  dup1\n  dataOffset(sub_0)\n  0x00\n  codecopy\n  0x00\n  return\nstop\n\nsub_0: assembly {\n        /* \"Week5/Callee.sol\":70:385  contract Callee {... */\n      mstore(0x40, 0x80)\n      callvalue\n      dup1\n      iszero\n      tag_1\n      jumpi\n      0x00\n      dup1\n      revert\n    tag_1:\n      pop\n      jumpi(tag_2, lt(calldatasize, 0x04))\n      shr(0xe0, calldataload(0x00))\n      dup1\n      0xcad0899b\n      eq\n      tag_3\n      jumpi\n    tag_2:\n      0x00\n      dup1\n      revert\n        /* \"Week5/Callee.sol\":251:383  function sum(uint a, uint b) external returns(uint) {... */\n    tag_3:\n      tag_4\n      0x04\n      dup1\n      calldatasize\n      sub\n      dup2\n      add\n      swap1\n      tag_5\n      swap2\n      swap1\n      tag_6\n      jump\t// in\n    tag_5:\n      tag_7\n      jump\t// in\n    tag_4:\n      mload(0x40)\n      tag_8\n      swap2\n      swap1\n      tag_9\n      jump\t// in\n    tag_8:\n      mload(0x40)\n      dup1\n      swap2\n      sub\n      swap1\n      return\n    tag_7:\n        /* \"Week5/Callee.sol\":297:301  uint */\n      0x00\n        /* \"Week5/Callee.sol\":344:353  tx.origin */\n      origin\n        /* \"Week5/Callee.sol\":318:354  Log(msg.data, msg.sender, tx.origin) */\n      0xffffffffffffffffffffffffffffffffffffffff\n      and\n        /* \"Week5/Callee.sol\":332:342  msg.sender */\n      caller\n        /* \"Week5/Callee.sol\":318:354  Log(msg.data, msg.sender, tx.origin) */\n      0xffffffffffffffffffffffffffffffffffffffff\n      and\n      0x0c3efcf7b8a6c65769318a5cb031e5a9d2beeb0addb02347132dfd18c6123369\n        /* \"Week5/Callee.sol\":322:330  msg.data */\n      0x00\n      calldatasize\n        /* \"Week5/Callee.sol\":318:354  Log(msg.data, msg.sender, tx.origin) */\n      mload(0x40)\n      tag_11\n      swap3\n      swap2\n      swap1\n      tag_12\n      jump\t// in\n    tag_11:\n      mload(0x40)\n      dup1\n      swap2\n      sub\n      swap1\n      log3\n        /* \"Week5/Callee.sol\":375:376  b */\n      dup2\n        /* \"Week5/Callee.sol\":371:372  a */\n      dup4\n        /* \"Week5/Callee.sol\":371:376  a + b */\n      tag_13\n      swap2\n      swap1\n      tag_14\n      jump\t// in\n    tag_13:\n        /* \"Week5/Callee.sol\":364:376  return a + b */\n      swap1\n      pop\n        /* \"Week5/Callee.sol\":251:383  function sum(uint a, uint b) external returns(uint) {... */\n      swap3\n      swap2\n      pop\n      pop\n      jump\t// out\n        /* \"#utility.yul\":7:146   */\n    tag_16:\n        /* \"#utility.yul\":53:58   */\n      0x00\n        /* \"#utility.yul\":91:97   */\n      dup2\n        /* \"#utility.yul\":78:98   */\n      calldataload\n        /* \"#utility.yul\":69:98   */\n      swap1\n      pop\n        /* \"#utility.yul\":107:140   */\n      tag_18\n        /* \"#utility.yul\":134:139   */\n      dup2\n        /* \"#utility.yul\":107:140   */\n      tag_19\n      jump\t// in\n    tag_18:\n        /* \"#utility.yul\":7:146   */\n      swap3\n      swap2\n      pop\n      pop\n      jump\t// out\n        /* \"#utility.yul\":152:626   */\n    tag_6:\n        /* \"#utility.yul\":220:226   */\n      0x00\n        /* \"#utility.yul\":228:234   */\n      dup1\n        /* \"#utility.yul\":277:279   */\n      0x40\n        /* \"#utility.yul\":265:274   */\n      dup4\n        /* \"#utility.yul\":256:263   */\n      dup6\n        /* \"#utility.yul\":252:275   */\n      sub\n        /* \"#utility.yul\":248:280   */\n      slt\n        /* \"#utility.yul\":245:364   */\n      iszero\n      tag_21\n      jumpi\n        /* \"#utility.yul\":283:362   */\n      tag_22\n      tag_23\n      jump\t// in\n    tag_22:\n        /* \"#utility.yul\":245:364   */\n    tag_21:\n        /* \"#utility.yul\":403:404   */\n      0x00\n        /* \"#utility.yul\":428:481   */\n      tag_24\n        /* \"#utility.yul\":473:480   */\n      dup6\n        /* \"#utility.yul\":464:470   */\n      dup3\n        /* \"#utility.yul\":453:462   */\n      dup7\n        /* \"#utility.yul\":449:471   */\n      add\n        /* \"#utility.yul\":428:481   */\n      tag_16\n      jump\t// in\n    tag_24:\n        /* \"#utility.yul\":418:481   */\n      swap3\n      pop\n        /* \"#utility.yul\":374:491   */\n      pop\n        /* \"#utility.yul\":530:532   */\n      0x20\n        /* \"#utility.yul\":556:609   */\n      tag_25\n        /* \"#utility.yul\":601:608   */\n      dup6\n        /* \"#utility.yul\":592:598   */\n      dup3\n        /* \"#utility.yul\":581:590   */\n      dup7\n        /* \"#utility.yul\":577:599   */\n      add\n        /* \"#utility.yul\":556:609   */\n      tag_16\n      jump\t// in\n    tag_25:\n        /* \"#utility.yul\":546:609   */\n      swap2\n      pop\n        /* \"#utility.yul\":501:619   */\n      pop\n        /* \"#utility.yul\":152:626   */\n      swap3\n      pop\n      swap3\n      swap1\n      pop\n      jump\t// out\n        /* \"#utility.yul\":654:955   */\n    tag_26:\n        /* \"#utility.yul\":750:753   */\n      0x00\n        /* \"#utility.yul\":771:841   */\n      tag_28\n        /* \"#utility.yul\":834:840   */\n      dup4\n        /* \"#utility.yul\":829:832   */\n      dup6\n        /* \"#utility.yul\":771:841   */\n      tag_29\n      jump\t// in\n    tag_28:\n        /* \"#utility.yul\":764:841   */\n      swap4\n      pop\n        /* \"#utility.yul\":851:894   */\n      tag_30\n        /* \"#utility.yul\":887:893   */\n      dup4\n        /* \"#utility.yul\":882:885   */\n      dup6\n        /* \"#utility.yul\":875:880   */\n      dup5\n        /* \"#utility.yul\":851:894   */\n      tag_31\n      jump\t// in\n    tag_30:\n        /* \"#utility.yul\":919:948   */\n      tag_32\n        /* \"#utility.yul\":941:947   */\n      dup4\n        /* \"#utility.yul\":919:948   */\n      tag_33\n      jump\t// in\n    tag_32:\n        /* \"#utility.yul\":914:917   */\n      dup5\n        /* \"#utility.yul\":910:949   */\n      add\n        /* \"#utility.yul\":903:949   */\n      swap1\n      pop\n        /* \"#utility.yul\":654:955   */\n      swap4\n      swap3\n      pop\n      pop\n      pop\n      jump\t// out\n        /* \"#utility.yul\":961:1079   */\n    tag_34:\n        /* \"#utility.yul\":1048:1072   */\n      tag_36\n        /* \"#utility.yul\":1066:1071   */\n      dup2\n        /* \"#utility.yul\":1048:1072   */\n      tag_37\n      jump\t// in\n    tag_36:\n        /* \"#utility.yul\":1043:1046   */\n      dup3\n        /* \"#utility.yul\":1036:1073   */\n      mstore\n        /* \"#utility.yul\":961:1079   */\n      pop\n      pop\n      jump\t// out\n        /* \"#utility.yul\":1085:1414   */\n    tag_12:\n        /* \"#utility.yul\":1206:1210   */\n      0x00\n        /* \"#utility.yul\":1244:1246   */\n      0x20\n        /* \"#utility.yul\":1233:1242   */\n      dup3\n        /* \"#utility.yul\":1229:1247   */\n      add\n        /* \"#utility.yul\":1221:1247   */\n      swap1\n      pop\n        /* \"#utility.yul\":1293:1302   */\n      dup2\n        /* \"#utility.yul\":1287:1291   */\n      dup2\n        /* \"#utility.yul\":1283:1303   */\n      sub\n        /* \"#utility.yul\":1279:1280   */\n      0x00\n        /* \"#utility.yul\":1268:1277   */\n      dup4\n        /* \"#utility.yul\":1264:1281   */\n      add\n        /* \"#utility.yul\":1257:1304   */\n      mstore\n        /* \"#utility.yul\":1321:1407   */\n      tag_39\n        /* \"#utility.yul\":1402:1406   */\n      dup2\n        /* \"#utility.yul\":1393:1399   */\n      dup5\n        /* \"#utility.yul\":1385:1391   */\n      dup7\n        /* \"#utility.yul\":1321:1407   */\n      tag_26\n      jump\t// in\n    tag_39:\n        /* \"#utility.yul\":1313:1407   */\n      swap1\n      pop\n        /* \"#utility.yul\":1085:1414   */\n      swap4\n      swap3\n      pop\n      pop\n      pop\n      jump\t// out\n        /* \"#utility.yul\":1420:1642   */\n    tag_9:\n        /* \"#utility.yul\":1513:1517   */\n      0x00\n        /* \"#utility.yul\":1551:1553   */\n      0x20\n        /* \"#utility.yul\":1540:1549   */\n      dup3\n        /* \"#utility.yul\":1536:1554   */\n      add\n        /* \"#utility.yul\":1528:1554   */\n      swap1\n      pop\n        /* \"#utility.yul\":1564:1635   */\n      tag_41\n        /* \"#utility.yul\":1632:1633   */\n      0x00\n        /* \"#utility.yul\":1621:1630   */\n      dup4\n        /* \"#utility.yul\":1617:1634   */\n      add\n        /* \"#utility.yul\":1608:1614   */\n      dup5\n        /* \"#utility.yul\":1564:1635   */\n      tag_34\n      jump\t// in\n    tag_41:\n        /* \"#utility.yul\":1420:1642   */\n      swap3\n      swap2\n      pop\n      pop\n      jump\t// out\n        /* \"#utility.yul\":1729:1897   */\n    tag_29:\n        /* \"#utility.yul\":1812:1823   */\n      0x00\n        /* \"#utility.yul\":1846:1852   */\n      dup3\n        /* \"#utility.yul\":1841:1844   */\n      dup3\n        /* \"#utility.yul\":1834:1853   */\n      mstore\n        /* \"#utility.yul\":1886:1890   */\n      0x20\n        /* \"#utility.yul\":1881:1884   */\n      dup3\n        /* \"#utility.yul\":1877:1891   */\n      add\n        /* \"#utility.yul\":1862:1891   */\n      swap1\n      pop\n        /* \"#utility.yul\":1729:1897   */\n      swap3\n      swap2\n      pop\n      pop\n      jump\t// out\n        /* \"#utility.yul\":1903:2208   */\n    tag_14:\n        /* \"#utility.yul\":1943:1946   */\n      0x00\n        /* \"#utility.yul\":1962:1982   */\n      tag_46\n        /* \"#utility.yul\":1980:1981   */\n      dup3\n        /* \"#utility.yul\":1962:1982   */\n      tag_37\n      jump\t// in\n    tag_46:\n        /* \"#utility.yul\":1957:1982   */\n      swap2\n      pop\n        /* \"#utility.yul\":1996:2016   */\n      tag_47\n        /* \"#utility.yul\":2014:2015   */\n      dup4\n        /* \"#utility.yul\":1996:2016   */\n      tag_37\n      jump\t// in\n    tag_47:\n        /* \"#utility.yul\":1991:2016   */\n      swap3\n      pop\n        /* \"#utility.yul\":2150:2151   */\n      dup3\n        /* \"#utility.yul\":2082:2148   */\n      0xffffffffffffffffffffffffffffffffffffffffffffffffffffffffffffffff\n        /* \"#utility.yul\":2078:2152   */\n      sub\n        /* \"#utility.yul\":2075:2076   */\n      dup3\n        /* \"#utility.yul\":2072:2153   */\n      gt\n        /* \"#utility.yul\":2069:2176   */\n      iszero\n      tag_48\n      jumpi\n        /* \"#utility.yul\":2156:2174   */\n      tag_49\n      tag_50\n      jump\t// in\n    tag_49:\n        /* \"#utility.yul\":2069:2176   */\n    tag_48:\n        /* \"#utility.yul\":2200:2201   */\n      dup3\n        /* \"#utility.yul\":2197:2198   */\n      dup3\n        /* \"#utility.yul\":2193:2202   */\n      add\n        /* \"#utility.yul\":2186:2202   */\n      swap1\n      pop\n        /* \"#utility.yul\":1903:2208   */\n      swap3\n      swap2\n      pop\n      pop\n      jump\t// out\n        /* \"#utility.yul\":2214:2291   */\n    tag_37:\n        /* \"#utility.yul\":2251:2258   */\n      0x00\n        /* \"#utility.yul\":2280:2285   */\n      dup2\n        /* \"#utility.yul\":2269:2285   */\n      swap1\n      pop\n        /* \"#utility.yul\":2214:2291   */\n      swap2\n      swap1\n      pop\n      jump\t// out\n        /* \"#utility.yul\":2297:2451   */\n    tag_31:\n        /* \"#utility.yul\":2381:2387   */\n      dup3\n        /* \"#utility.yul\":2376:2379   */\n      dup2\n        /* \"#utility.yul\":2371:2374   */\n      dup4\n        /* \"#utility.yul\":2358:2388   */\n      calldatacopy\n        /* \"#utility.yul\":2443:2444   */\n      0x00\n        /* \"#utility.yul\":2434:2440   */\n      dup4\n        /* \"#utility.yul\":2429:2432   */\n      dup4\n        /* \"#utility.yul\":2425:2441   */\n      add\n        /* \"#utility.yul\":2418:2445   */\n      mstore\n        /* \"#utility.yul\":2297:2451   */\n      pop\n      pop\n      pop\n      jump\t// out\n        /* \"#utility.yul\":2457:2637   */\n    tag_50:\n        /* \"#utility.yul\":2505:2582   */\n      0x4e487b7100000000000000000000000000000000000000000000000000000000\n        /* \"#utility.yul\":2502:2503   */\n      0x00\n        /* \"#utility.yul\":2495:2583   */\n      mstore\n        /* \"#utility.yul\":2602:2606   */\n      0x11\n        /* \"#utility.yul\":2599:2600   */\n      0x04\n        /* \"#utility.yul\":2592:2607   */\n      mstore\n        /* \"#utility.yul\":2626:2630   */\n      0x24\n        /* \"#utility.yul\":2623:2624   */\n      0x00\n        /* \"#utility.yul\":2616:2631   */\n      revert\n        /* \"#utility.yul\":2766:2883   */\n    tag_23:\n        /* \"#utility.yul\":2875:2876   */\n      0x00\n        /* \"#utility.yul\":2872:2873   */\n      dup1\n        /* \"#utility.yul\":2865:2877   */\n      revert\n        /* \"#utility.yul\":2889:2991   */\n    tag_33:\n        /* \"#utility.yul\":2930:2936   */\n      0x00\n        /* \"#utility.yul\":2981:2983   */\n      0x1f\n        /* \"#utility.yul\":2977:2984   */\n      not\n        /* \"#utility.yul\":2972:2974   */\n      0x1f\n        /* \"#utility.yul\":2965:2970   */\n      dup4\n        /* \"#utility.yul\":2961:2975   */\n      add\n        /* \"#utility.yul\":2957:2985   */\n      and\n        /* \"#utility.yul\":2947:2985   */\n      swap1\n      pop\n        /* \"#utility.yul\":2889:2991   */\n      swap2\n      swap1\n      pop\n      jump\t// out\n        /* \"#utility.yul\":2997:3119   */\n    tag_19:\n        /* \"#utility.yul\":3070:3094   */\n      tag_59\n        /* \"#utility.yul\":3088:3093   */\n      dup2\n        /* \"#utility.yul\":3070:3094   */\n      tag_37\n      jump\t// in\n    tag_59:\n        /* \"#utility.yul\":3063:3068   */\n      dup2\n        /* \"#utility.yul\":3060:3095   */\n      eq\n        /* \"#utility.yul\":3050:3113   */\n      tag_60\n      jumpi\n        /* \"#utility.yul\":3109:3110   */\n      0x00\n        /* \"#utility.yul\":3106:3107   */\n      dup1\n        /* \"#utility.yul\":3099:3111   */\n      revert\n        /* \"#utility.yul\":3050:3113   */\n    tag_60:\n        /* \"#utility.yul\":2997:3119   */\n      pop\n      jump\t// out\n\n    auxdata: 0xa264697066735822122002cf49ff5b23f5e580b8b528d35c848d44758460b8a9300f09783b650ecc9ebb64736f6c63430008070033\n}\n",
				"bytecode": {
					"linkReferences": {},
					"object": "608060405234801561001057600080fd5b506102c0806100206000396000f3fe608060405234801561001057600080fd5b506004361061002b5760003560e01c8063cad0899b14610030575b600080fd5b61004a600480360381019061004591906100f3565b610060565b6040516100579190610193565b60405180910390f35b60003273ffffffffffffffffffffffffffffffffffffffff163373ffffffffffffffffffffffffffffffffffffffff167f0c3efcf7b8a6c65769318a5cb031e5a9d2beeb0addb02347132dfd18c61233696000366040516100c292919061016f565b60405180910390a381836100d691906101bf565b905092915050565b6000813590506100ed81610273565b92915050565b6000806040838503121561010a5761010961025d565b5b6000610118858286016100de565b9250506020610129858286016100de565b9150509250929050565b600061013f83856101ae565b935061014c83858461021f565b61015583610262565b840190509392505050565b61016981610215565b82525050565b6000602082019050818103600083015261018a818486610133565b90509392505050565b60006020820190506101a86000830184610160565b92915050565b600082825260208201905092915050565b60006101ca82610215565b91506101d583610215565b9250827fffffffffffffffffffffffffffffffffffffffffffffffffffffffffffffffff0382111561020a5761020961022e565b5b828201905092915050565b6000819050919050565b82818337600083830152505050565b7f4e487b7100000000000000000000000000000000000000000000000000000000600052601160045260246000fd5b600080fd5b6000601f19601f8301169050919050565b61027c81610215565b811461028757600080fd5b5056fea264697066735822122002cf49ff5b23f5e580b8b528d35c848d44758460b8a9300f09783b650ecc9ebb64736f6c63430008070033",
					"opcodes": "PUSH1 0x80 PUSH1 0x40 MSTORE CALLVALUE DUP1 ISZERO PUSH2 0x10 JUMPI PUSH1 0x0 DUP1 REVERT JUMPDEST POP PUSH2 0x2C0 DUP1 PUSH2 0x20 PUSH1 0x0 CODECOPY PUSH1 0x0 RETURN INVALID PUSH1 0x80 PUSH1 0x40 MSTORE CALLVALUE DUP1 ISZERO PUSH2 0x10 JUMPI PUSH1 0x0 DUP1 REVERT JUMPDEST POP PUSH1 0x4 CALLDATASIZE LT PUSH2 0x2B JUMPI PUSH1 0x0 CALLDATALOAD PUSH1 0xE0 SHR DUP1 PUSH4 0xCAD0899B EQ PUSH2 0x30 JUMPI JUMPDEST PUSH1 0x0 DUP1 REVERT JUMPDEST PUSH2 0x4A PUSH1 0x4 DUP1 CALLDATASIZE SUB DUP2 ADD SWAP1 PUSH2 0x45 SWAP2 SWAP1 PUSH2 0xF3 JUMP JUMPDEST PUSH2 0x60 JUMP JUMPDEST PUSH1 0x40 MLOAD PUSH2 0x57 SWAP2 SWAP1 PUSH2 0x193 JUMP JUMPDEST PUSH1 0x40 MLOAD DUP1 SWAP2 SUB SWAP1 RETURN JUMPDEST PUSH1 0x0 ORIGIN PUSH20 0xFFFFFFFFFFFFFFFFFFFFFFFFFFFFFFFFFFFFFFFF AND CALLER PUSH20 0xFFFFFFFFFFFFFFFFFFFFFFFFFFFFFFFFFFFFFFFF AND PUSH32 0xC3EFCF7B8A6C65769318A5CB031E5A9D2BEEB0ADDB02347132DFD18C6123369 PUSH1 0x0 CALLDATASIZE PUSH1 0x40 MLOAD PUSH2 0xC2 SWAP3 SWAP2 SWAP1 PUSH2 0x16F JUMP JUMPDEST PUSH1 0x40 MLOAD DUP1 SWAP2 SUB SWAP1 LOG3 DUP2 DUP4 PUSH2 0xD6 SWAP2 SWAP1 PUSH2 0x1BF JUMP JUMPDEST SWAP1 POP SWAP3 SWAP2 POP POP JUMP JUMPDEST PUSH1 0x0 DUP2 CALLDATALOAD SWAP1 POP PUSH2 0xED DUP2 PUSH2 0x273 JUMP JUMPDEST SWAP3 SWAP2 POP POP JUMP JUMPDEST PUSH1 0x0 DUP1 PUSH1 0x40 DUP4 DUP6 SUB SLT ISZERO PUSH2 0x10A JUMPI PUSH2 0x109 PUSH2 0x25D JUMP JUMPDEST JUMPDEST PUSH1 0x0 PUSH2 0x118 DUP6 DUP3 DUP7 ADD PUSH2 0xDE JUMP JUMPDEST SWAP3 POP POP PUSH1 0x20 PUSH2 0x129 DUP6 DUP3 DUP7 ADD PUSH2 0xDE JUMP JUMPDEST SWAP2 POP POP SWAP3 POP SWAP3 SWAP1 POP JUMP JUMPDEST PUSH1 0x0 PUSH2 0x13F DUP4 DUP6 PUSH2 0x1AE JUMP JUMPDEST SWAP4 POP PUSH2 0x14C DUP4 DUP6 DUP5 PUSH2 0x21F JUMP JUMPDEST PUSH2 0x155 DUP4 PUSH2 0x262 JUMP JUMPDEST DUP5 ADD SWAP1 POP SWAP4 SWAP3 POP POP POP JUMP JUMPDEST PUSH2 0x169 DUP2 PUSH2 0x215 JUMP JUMPDEST DUP3 MSTORE POP POP JUMP JUMPDEST PUSH1 0x0 PUSH1 0x20 DUP3 ADD SWAP1 POP DUP2 DUP2 SUB PUSH1 0x0 DUP4 ADD MSTORE PUSH2 0x18A DUP2 DUP5 DUP7 PUSH2 0x133 JUMP JUMPDEST SWAP1 POP SWAP4 SWAP3 POP POP POP JUMP JUMPDEST PUSH1 0x0 PUSH1 0x20 DUP3 ADD SWAP1 POP PUSH2 0x1A8 PUSH1 0x0 DUP4 ADD DUP5 PUSH2 0x160 JUMP JUMPDEST SWAP3 SWAP2 POP POP JUMP JUMPDEST PUSH1 0x0 DUP3 DUP3 MSTORE PUSH1 0x20 DUP3 ADD SWAP1 POP SWAP3 SWAP2 POP POP JUMP JUMPDEST PUSH1 0x0 PUSH2 0x1CA DUP3 PUSH2 0x215 JUMP JUMPDEST SWAP2 POP PUSH2 0x1D5 DUP4 PUSH2 0x215 JUMP JUMPDEST SWAP3 POP DUP3 PUSH32 0xFFFFFFFFFFFFFFFFFFFFFFFFFFFFFFFFFFFFFFFFFFFFFFFFFFFFFFFFFFFFFFFF SUB DUP3 GT ISZERO PUSH2 0x20A JUMPI PUSH2 0x209 PUSH2 0x22E JUMP JUMPDEST JUMPDEST DUP3 DUP3 ADD SWAP1 POP SWAP3 SWAP2 POP POP JUMP JUMPDEST PUSH1 0x0 DUP2 SWAP1 POP SWAP2 SWAP1 POP JUMP JUMPDEST DUP3 DUP2 DUP4 CALLDATACOPY PUSH1 0x0 DUP4 DUP4 ADD MSTORE POP POP POP JUMP JUMPDEST PUSH32 0x4E487B7100000000000000000000000000000000000000000000000000000000 PUSH1 0x0 MSTORE PUSH1 0x11 PUSH1 0x4 MSTORE PUSH1 0x24 PUSH1 0x0 REVERT JUMPDEST PUSH1 0x0 DUP1 REVERT JUMPDEST PUSH1 0x0 PUSH1 0x1F NOT PUSH1 0x1F DUP4 ADD AND SWAP1 POP SWAP2 SWAP1 POP JUMP JUMPDEST PUSH2 0x27C DUP2 PUSH2 0x215 JUMP JUMPDEST DUP2 EQ PUSH2 0x287 JUMPI PUSH1 0x0 DUP1 REVERT JUMPDEST POP JUMP INVALID LOG2 PUSH5 0x6970667358 0x22 SLT KECCAK256 MUL 0xCF 0x49 SELFDESTRUCT JUMPDEST 0x23 CREATE2 0xE5 DUP1 0xB8 0xB5 0x28 0xD3 0x5C DUP5 DUP14 DIFFICULTY PUSH22 0x8460B8A9300F09783B650ECC9EBB64736F6C63430008 SMOD STOP CALLER "
				},
				"gasEstimates": {
					"creation": {
						"codeDepositCost": "140800",
						"executionCost": "183",
						"totalCost": "140983"
					},
					"external": {
						"sum(uint256,uint256)": "infinite"
					}
				},
				"methodIdentifiers": {
					"sum(uint256,uint256)": "cad0899b"
				}
			},
			"storageLayout": {
				"storage": [],
				"types": null
			},
			"userdoc": {
				"kind": "user",
				"methods": {},
				"version": 1
			}
		}
	}
}