{
	"Week5/ArrayRemoveShift.sol": {
		"ArrayRemoveReplace": {
			"abi": [
				{
					"inputs": [],
					"name": "getArray",
					"outputs": [
						{
							"internalType": "uint256[]",
							"name": "",
							"type": "uint256[]"
						}
					],
					"stateMutability": "view",
					"type": "function"
				},
				{
					"inputs": [
						{
							"internalType": "uint256",
							"name": "_index",
							"type": "uint256"
						}
					],
					"name": "remove",
					"outputs": [],
					"stateMutability": "nonpayable",
					"type": "function"
				}
			],
			"devdoc": {
				"kind": "dev",
				"methods": {},
				"version": 1
			},
			"evm": {
				"assembly": "    /* \"Week5/ArrayRemoveShift.sol\":104:134  uint[] array = [1, 2, 3, 4, 5] */\n  0x0120\n    /* \"Week5/ArrayRemoveShift.sol\":70:575  contract ArrayRemoveReplace {... */\n  0x40\n    /* \"Week5/ArrayRemoveShift.sol\":104:134  uint[] array = [1, 2, 3, 4, 5] */\n  mstore\n    /* \"Week5/ArrayRemoveShift.sol\":120:121  1 */\n  0x01\n    /* \"Week5/ArrayRemoveShift.sol\":70:575  contract ArrayRemoveReplace {... */\n  0x80\n    /* \"Week5/ArrayRemoveShift.sol\":104:134  uint[] array = [1, 2, 3, 4, 5] */\n  swap1\n  dup2\n  mstore\n    /* \"Week5/ArrayRemoveShift.sol\":123:124  2 */\n  0x02\n    /* \"Week5/ArrayRemoveShift.sol\":104:134  uint[] array = [1, 2, 3, 4, 5] */\n  0xa0\n  mstore\n    /* \"Week5/ArrayRemoveShift.sol\":126:127  3 */\n  0x03\n    /* \"Week5/ArrayRemoveShift.sol\":104:134  uint[] array = [1, 2, 3, 4, 5] */\n  0xc0\n  mstore\n    /* \"Week5/ArrayRemoveShift.sol\":129:130  4 */\n  0x04\n    /* \"Week5/ArrayRemoveShift.sol\":104:134  uint[] array = [1, 2, 3, 4, 5] */\n  0xe0\n  mstore\n    /* \"Week5/ArrayRemoveShift.sol\":132:133  5 */\n  0x05\n    /* \"Week5/ArrayRemoveShift.sol\":104:134  uint[] array = [1, 2, 3, 4, 5] */\n  0x0100\n  dup2\n  swap1\n  mstore\n  tag_1\n  swap2\n  0x00\n  swap2\n  tag_2\n  jump\t// in\ntag_1:\n  pop\n    /* \"Week5/ArrayRemoveShift.sol\":70:575  contract ArrayRemoveReplace {... */\n  callvalue\n  dup1\n  iszero\n  tag_3\n  jumpi\n  0x00\n  dup1\n  revert\ntag_3:\n  pop\n  jump(tag_4)\ntag_2:\n  dup3\n  dup1\n  sload\n  dup3\n  dup3\n  sstore\n  swap1\n  0x00\n  mstore\n  keccak256(0x00, 0x20)\n  swap1\n  dup2\n  add\n  swap3\n  dup3\n  iszero\n  tag_7\n  jumpi\n  swap2\n  0x20\n  mul\n  dup3\n  add\ntag_6:\n  dup3\n  dup2\n  gt\n  iszero\n  tag_7\n  jumpi\n  dup3\n  mload\n  dup3\n  swap1\n  0xff\n  and\n  swap1\n  sstore\n  swap2\n  0x20\n  add\n  swap2\n  swap1\n  0x01\n  add\n  swap1\n  jump(tag_6)\ntag_7:\n  pop\n  tag_8\n  swap3\n  swap2\n  pop\n  tag_9\n  jump\t// in\ntag_8:\n  pop\n  swap1\n  jump\t// out\ntag_9:\ntag_10:\n  dup1\n  dup3\n  gt\n  iszero\n  tag_8\n  jumpi\n  0x00\n  dup2\n  sstore\n  0x01\n  add\n  jump(tag_10)\ntag_4:\n  dataSize(sub_0)\n  dup1\n  dataOffset(sub_0)\n  0x00\n  codecopy\n  0x00\n  return\nstop\n\nsub_0: assembly {\n        /* \"Week5/ArrayRemoveShift.sol\":70:575  contract ArrayRemoveReplace {... */\n      mstore(0x40, 0x80)\n      callvalue\n      dup1\n      iszero\n      tag_1\n      jumpi\n      0x00\n      dup1\n      revert\n    tag_1:\n      pop\n      jumpi(tag_2, lt(calldatasize, 0x04))\n      shr(0xe0, calldataload(0x00))\n      dup1\n      0x4cc82215\n      eq\n      tag_3\n      jumpi\n      dup1\n      0xd504ea1d\n      eq\n      tag_4\n      jumpi\n    tag_2:\n      0x00\n      dup1\n      revert\n        /* \"Week5/ArrayRemoveShift.sol\":335:573  function remove(uint _index) external {... */\n    tag_3:\n      tag_5\n      tag_6\n      calldatasize\n      0x04\n      tag_7\n      jump\t// in\n    tag_6:\n      tag_8\n      jump\t// in\n    tag_5:\n      stop\n        /* \"Week5/ArrayRemoveShift.sol\":192:278  function getArray() external view returns(uint[] memory) {... */\n    tag_4:\n      tag_9\n      tag_10\n      jump\t// in\n    tag_9:\n      mload(0x40)\n      tag_11\n      swap2\n      swap1\n      tag_12\n      jump\t// in\n    tag_11:\n      mload(0x40)\n      dup1\n      swap2\n      sub\n      swap1\n      return\n        /* \"Week5/ArrayRemoveShift.sol\":335:573  function remove(uint _index) external {... */\n    tag_8:\n        /* \"Week5/ArrayRemoveShift.sol\":400:405  array */\n      0x00\n        /* \"Week5/ArrayRemoveShift.sol\":400:412  array.length */\n      sload\n        /* \"Week5/ArrayRemoveShift.sol\":391:412  _index < array.length */\n      dup2\n      lt\n        /* \"Week5/ArrayRemoveShift.sol\":383:413  require(_index < array.length) */\n      tag_14\n      jumpi\n      0x00\n      dup1\n      revert\n    tag_14:\n        /* \"Week5/ArrayRemoveShift.sol\":478:483  array */\n      0x00\n        /* \"Week5/ArrayRemoveShift.sol\":484:496  array.length */\n      dup1\n      sload\n        /* \"Week5/ArrayRemoveShift.sol\":484:498  array.length-1 */\n      tag_15\n      swap1\n        /* \"Week5/ArrayRemoveShift.sol\":497:498  1 */\n      0x01\n      swap1\n        /* \"Week5/ArrayRemoveShift.sol\":484:498  array.length-1 */\n      tag_16\n      jump\t// in\n    tag_15:\n        /* \"Week5/ArrayRemoveShift.sol\":478:499  array[array.length-1] */\n      dup2\n      sload\n      dup2\n      lt\n      tag_18\n      jumpi\n      tag_18\n      tag_19\n      jump\t// in\n    tag_18:\n      swap1\n      0x00\n      mstore\n      keccak256(0x00, 0x20)\n      add\n      sload\n        /* \"Week5/ArrayRemoveShift.sol\":462:467  array */\n      0x00\n        /* \"Week5/ArrayRemoveShift.sol\":468:474  _index */\n      dup3\n        /* \"Week5/ArrayRemoveShift.sol\":462:475  array[_index] */\n      dup2\n      sload\n      dup2\n      lt\n      tag_22\n      jumpi\n      tag_22\n      tag_19\n      jump\t// in\n    tag_22:\n      swap1\n      0x00\n      mstore\n      keccak256(0x00, 0x20)\n      add\n        /* \"Week5/ArrayRemoveShift.sol\":462:499  array[_index] = array[array.length-1] */\n      dup2\n      swap1\n      sstore\n      pop\n        /* \"Week5/ArrayRemoveShift.sol\":555:560  array */\n      0x00\n        /* \"Week5/ArrayRemoveShift.sol\":555:566  array.pop() */\n      dup1\n      sload\n      dup1\n      tag_25\n      jumpi\n      tag_25\n      tag_26\n      jump\t// in\n    tag_25:\n      0x01\n      swap1\n      sub\n      dup2\n      dup2\n      swap1\n      0x00\n      mstore\n      keccak256(0x00, 0x20)\n      add\n      0x00\n      swap1\n      sstore\n      swap1\n      sstore\n        /* \"Week5/ArrayRemoveShift.sol\":335:573  function remove(uint _index) external {... */\n      pop\n      jump\t// out\n        /* \"Week5/ArrayRemoveShift.sol\":192:278  function getArray() external view returns(uint[] memory) {... */\n    tag_10:\n        /* \"Week5/ArrayRemoveShift.sol\":234:247  uint[] memory */\n      0x60\n        /* \"Week5/ArrayRemoveShift.sol\":266:271  array */\n      0x00\n        /* \"Week5/ArrayRemoveShift.sol\":259:271  return array */\n      dup1\n      sload\n      dup1\n      0x20\n      mul\n      0x20\n      add\n      mload(0x40)\n      swap1\n      dup2\n      add\n      0x40\n      mstore\n      dup1\n      swap3\n      swap2\n      swap1\n      dup2\n      dup2\n      mstore\n      0x20\n      add\n      dup3\n      dup1\n      sload\n      dup1\n      iszero\n      tag_29\n      jumpi\n      0x20\n      mul\n      dup3\n      add\n      swap2\n      swap1\n      0x00\n      mstore\n      keccak256(0x00, 0x20)\n      swap1\n    tag_30:\n      dup2\n      sload\n      dup2\n      mstore\n      0x20\n      add\n      swap1\n      0x01\n      add\n      swap1\n      dup1\n      dup4\n      gt\n      tag_30\n      jumpi\n    tag_29:\n      pop\n      pop\n      pop\n      pop\n      pop\n      swap1\n      pop\n        /* \"Week5/ArrayRemoveShift.sol\":192:278  function getArray() external view returns(uint[] memory) {... */\n      swap1\n      jump\t// out\n        /* \"#utility.yul\":14:194   */\n    tag_7:\n        /* \"#utility.yul\":73:79   */\n      0x00\n        /* \"#utility.yul\":126:128   */\n      0x20\n        /* \"#utility.yul\":114:123   */\n      dup3\n        /* \"#utility.yul\":105:112   */\n      dup5\n        /* \"#utility.yul\":101:124   */\n      sub\n        /* \"#utility.yul\":97:129   */\n      slt\n        /* \"#utility.yul\":94:146   */\n      iszero\n      tag_33\n      jumpi\n        /* \"#utility.yul\":142:143   */\n      0x00\n        /* \"#utility.yul\":139:140   */\n      dup1\n        /* \"#utility.yul\":132:144   */\n      revert\n        /* \"#utility.yul\":94:146   */\n    tag_33:\n      pop\n        /* \"#utility.yul\":165:188   */\n      calldataload\n      swap2\n        /* \"#utility.yul\":14:194   */\n      swap1\n      pop\n      jump\t// out\n        /* \"#utility.yul\":199:831   */\n    tag_12:\n        /* \"#utility.yul\":370:372   */\n      0x20\n        /* \"#utility.yul\":422:443   */\n      dup1\n      dup3\n      mstore\n        /* \"#utility.yul\":492:505   */\n      dup3\n      mload\n        /* \"#utility.yul\":395:413   */\n      dup3\n      dup3\n      add\n        /* \"#utility.yul\":514:536   */\n      dup2\n      swap1\n      mstore\n        /* \"#utility.yul\":341:345   */\n      0x00\n      swap2\n        /* \"#utility.yul\":370:372   */\n      swap1\n        /* \"#utility.yul\":593:608   */\n      dup5\n      dup3\n      add\n      swap1\n        /* \"#utility.yul\":567:569   */\n      0x40\n        /* \"#utility.yul\":552:570   */\n      dup6\n      add\n      swap1\n        /* \"#utility.yul\":341:345   */\n      dup5\n        /* \"#utility.yul\":636:805   */\n    tag_35:\n        /* \"#utility.yul\":650:656   */\n      dup2\n        /* \"#utility.yul\":647:648   */\n      dup2\n        /* \"#utility.yul\":644:657   */\n      lt\n        /* \"#utility.yul\":636:805   */\n      iszero\n      tag_37\n      jumpi\n        /* \"#utility.yul\":711:724   */\n      dup4\n      mload\n        /* \"#utility.yul\":699:725   */\n      dup4\n      mstore\n        /* \"#utility.yul\":780:795   */\n      swap3\n      dup5\n      add\n      swap3\n        /* \"#utility.yul\":745:757   */\n      swap2\n      dup5\n      add\n      swap2\n        /* \"#utility.yul\":672:673   */\n      0x01\n        /* \"#utility.yul\":665:674   */\n      add\n        /* \"#utility.yul\":636:805   */\n      jump(tag_35)\n    tag_37:\n      pop\n        /* \"#utility.yul\":822:825   */\n      swap1\n      swap7\n        /* \"#utility.yul\":199:831   */\n      swap6\n      pop\n      pop\n      pop\n      pop\n      pop\n      pop\n      jump\t// out\n        /* \"#utility.yul\":836:1061   */\n    tag_16:\n        /* \"#utility.yul\":903:912   */\n      dup2\n      dup2\n      sub\n        /* \"#utility.yul\":924:935   */\n      dup2\n      dup2\n      gt\n        /* \"#utility.yul\":921:1055   */\n      iszero\n      tag_39\n      jumpi\n        /* \"#utility.yul\":977:987   */\n      0x4e487b71\n        /* \"#utility.yul\":972:975   */\n      0xe0\n        /* \"#utility.yul\":968:988   */\n      shl\n        /* \"#utility.yul\":965:966   */\n      0x00\n        /* \"#utility.yul\":958:989   */\n      mstore\n        /* \"#utility.yul\":1012:1016   */\n      0x11\n        /* \"#utility.yul\":1009:1010   */\n      0x04\n        /* \"#utility.yul\":1002:1017   */\n      mstore\n        /* \"#utility.yul\":1040:1044   */\n      0x24\n        /* \"#utility.yul\":1037:1038   */\n      0x00\n        /* \"#utility.yul\":1030:1045   */\n      revert\n        /* \"#utility.yul\":921:1055   */\n    tag_39:\n        /* \"#utility.yul\":836:1061   */\n      swap3\n      swap2\n      pop\n      pop\n      jump\t// out\n        /* \"#utility.yul\":1066:1193   */\n    tag_19:\n        /* \"#utility.yul\":1127:1137   */\n      0x4e487b71\n        /* \"#utility.yul\":1122:1125   */\n      0xe0\n        /* \"#utility.yul\":1118:1138   */\n      shl\n        /* \"#utility.yul\":1115:1116   */\n      0x00\n        /* \"#utility.yul\":1108:1139   */\n      mstore\n        /* \"#utility.yul\":1158:1162   */\n      0x32\n        /* \"#utility.yul\":1155:1156   */\n      0x04\n        /* \"#utility.yul\":1148:1163   */\n      mstore\n        /* \"#utility.yul\":1182:1186   */\n      0x24\n        /* \"#utility.yul\":1179:1180   */\n      0x00\n        /* \"#utility.yul\":1172:1187   */\n      revert\n        /* \"#utility.yul\":1198:1325   */\n    tag_26:\n        /* \"#utility.yul\":1259:1269   */\n      0x4e487b71\n        /* \"#utility.yul\":1254:1257   */\n      0xe0\n        /* \"#utility.yul\":1250:1270   */\n      shl\n        /* \"#utility.yul\":1247:1248   */\n      0x00\n        /* \"#utility.yul\":1240:1271   */\n      mstore\n        /* \"#utility.yul\":1290:1294   */\n      0x31\n        /* \"#utility.yul\":1287:1288   */\n      0x04\n        /* \"#utility.yul\":1280:1295   */\n      mstore\n        /* \"#utility.yul\":1314:1318   */\n      0x24\n        /* \"#utility.yul\":1311:1312   */\n      0x00\n        /* \"#utility.yul\":1304:1319   */\n      revert\n\n    auxdata: 0xa264697066735822122036a359d376a9fb35b1ef0fde546ff2d691411ce0cc244ccca35724facf923f3e64736f6c63430008100033\n}\n",
				"bytecode": {
					"linkReferences": {},
					"object": "61012060405260016080908152600260a052600360c052600460e052600561010081905261002f91600091610042565b5034801561003c57600080fd5b506100a7565b828054828255906000526020600020908101928215610082579160200282015b82811115610082578251829060ff16905591602001919060010190610062565b5061008e929150610092565b5090565b5b8082111561008e5760008155600101610093565b610230806100b66000396000f3fe608060405234801561001057600080fd5b50600436106100365760003560e01c80634cc822151461003b578063d504ea1d14610050575b600080fd5b61004e61004936600461014a565b61006e565b005b6100586100f2565b6040516100659190610163565b60405180910390f35b600054811061007c57600080fd5b6000805461008c906001906101a7565b8154811061009c5761009c6101ce565b9060005260206000200154600082815481106100ba576100ba6101ce565b906000526020600020018190555060008054806100d9576100d96101e4565b6001900381819060005260206000200160009055905550565b6060600080548060200260200160405190810160405280929190818152602001828054801561014057602002820191906000526020600020905b81548152602001906001019080831161012c575b5050505050905090565b60006020828403121561015c57600080fd5b5035919050565b6020808252825182820181905260009190848201906040850190845b8181101561019b5783518352928401929184019160010161017f565b50909695505050505050565b818103818111156101c857634e487b7160e01b600052601160045260246000fd5b92915050565b634e487b7160e01b600052603260045260246000fd5b634e487b7160e01b600052603160045260246000fdfea264697066735822122036a359d376a9fb35b1ef0fde546ff2d691411ce0cc244ccca35724facf923f3e64736f6c63430008100033",
					"opcodes": "PUSH2 0x120 PUSH1 0x40 MSTORE PUSH1 0x1 PUSH1 0x80 SWAP1 DUP2 MSTORE PUSH1 0x2 PUSH1 0xA0 MSTORE PUSH1 0x3 PUSH1 0xC0 MSTORE PUSH1 0x4 PUSH1 0xE0 MSTORE PUSH1 0x5 PUSH2 0x100 DUP2 SWAP1 MSTORE PUSH2 0x2F SWAP2 PUSH1 0x0 SWAP2 PUSH2 0x42 JUMP JUMPDEST POP CALLVALUE DUP1 ISZERO PUSH2 0x3C JUMPI PUSH1 0x0 DUP1 REVERT JUMPDEST POP PUSH2 0xA7 JUMP JUMPDEST DUP3 DUP1 SLOAD DUP3 DUP3 SSTORE SWAP1 PUSH1 0x0 MSTORE PUSH1 0x20 PUSH1 0x0 KECCAK256 SWAP1 DUP2 ADD SWAP3 DUP3 ISZERO PUSH2 0x82 JUMPI SWAP2 PUSH1 0x20 MUL DUP3 ADD JUMPDEST DUP3 DUP2 GT ISZERO PUSH2 0x82 JUMPI DUP3 MLOAD DUP3 SWAP1 PUSH1 0xFF AND SWAP1 SSTORE SWAP2 PUSH1 0x20 ADD SWAP2 SWAP1 PUSH1 0x1 ADD SWAP1 PUSH2 0x62 JUMP JUMPDEST POP PUSH2 0x8E SWAP3 SWAP2 POP PUSH2 0x92 JUMP JUMPDEST POP SWAP1 JUMP JUMPDEST JUMPDEST DUP1 DUP3 GT ISZERO PUSH2 0x8E JUMPI PUSH1 0x0 DUP2 SSTORE PUSH1 0x1 ADD PUSH2 0x93 JUMP JUMPDEST PUSH2 0x230 DUP1 PUSH2 0xB6 PUSH1 0x0 CODECOPY PUSH1 0x0 RETURN INVALID PUSH1 0x80 PUSH1 0x40 MSTORE CALLVALUE DUP1 ISZERO PUSH2 0x10 JUMPI PUSH1 0x0 DUP1 REVERT JUMPDEST POP PUSH1 0x4 CALLDATASIZE LT PUSH2 0x36 JUMPI PUSH1 0x0 CALLDATALOAD PUSH1 0xE0 SHR DUP1 PUSH4 0x4CC82215 EQ PUSH2 0x3B JUMPI DUP1 PUSH4 0xD504EA1D EQ PUSH2 0x50 JUMPI JUMPDEST PUSH1 0x0 DUP1 REVERT JUMPDEST PUSH2 0x4E PUSH2 0x49 CALLDATASIZE PUSH1 0x4 PUSH2 0x14A JUMP JUMPDEST PUSH2 0x6E JUMP JUMPDEST STOP JUMPDEST PUSH2 0x58 PUSH2 0xF2 JUMP JUMPDEST PUSH1 0x40 MLOAD PUSH2 0x65 SWAP2 SWAP1 PUSH2 0x163 JUMP JUMPDEST PUSH1 0x40 MLOAD DUP1 SWAP2 SUB SWAP1 RETURN JUMPDEST PUSH1 0x0 SLOAD DUP2 LT PUSH2 0x7C JUMPI PUSH1 0x0 DUP1 REVERT JUMPDEST PUSH1 0x0 DUP1 SLOAD PUSH2 0x8C SWAP1 PUSH1 0x1 SWAP1 PUSH2 0x1A7 JUMP JUMPDEST DUP2 SLOAD DUP2 LT PUSH2 0x9C JUMPI PUSH2 0x9C PUSH2 0x1CE JUMP JUMPDEST SWAP1 PUSH1 0x0 MSTORE PUSH1 0x20 PUSH1 0x0 KECCAK256 ADD SLOAD PUSH1 0x0 DUP3 DUP2 SLOAD DUP2 LT PUSH2 0xBA JUMPI PUSH2 0xBA PUSH2 0x1CE JUMP JUMPDEST SWAP1 PUSH1 0x0 MSTORE PUSH1 0x20 PUSH1 0x0 KECCAK256 ADD DUP2 SWAP1 SSTORE POP PUSH1 0x0 DUP1 SLOAD DUP1 PUSH2 0xD9 JUMPI PUSH2 0xD9 PUSH2 0x1E4 JUMP JUMPDEST PUSH1 0x1 SWAP1 SUB DUP2 DUP2 SWAP1 PUSH1 0x0 MSTORE PUSH1 0x20 PUSH1 0x0 KECCAK256 ADD PUSH1 0x0 SWAP1 SSTORE SWAP1 SSTORE POP JUMP JUMPDEST PUSH1 0x60 PUSH1 0x0 DUP1 SLOAD DUP1 PUSH1 0x20 MUL PUSH1 0x20 ADD PUSH1 0x40 MLOAD SWAP1 DUP2 ADD PUSH1 0x40 MSTORE DUP1 SWAP3 SWAP2 SWAP1 DUP2 DUP2 MSTORE PUSH1 0x20 ADD DUP3 DUP1 SLOAD DUP1 ISZERO PUSH2 0x140 JUMPI PUSH1 0x20 MUL DUP3 ADD SWAP2 SWAP1 PUSH1 0x0 MSTORE PUSH1 0x20 PUSH1 0x0 KECCAK256 SWAP1 JUMPDEST DUP2 SLOAD DUP2 MSTORE PUSH1 0x20 ADD SWAP1 PUSH1 0x1 ADD SWAP1 DUP1 DUP4 GT PUSH2 0x12C JUMPI JUMPDEST POP POP POP POP POP SWAP1 POP SWAP1 JUMP JUMPDEST PUSH1 0x0 PUSH1 0x20 DUP3 DUP5 SUB SLT ISZERO PUSH2 0x15C JUMPI PUSH1 0x0 DUP1 REVERT JUMPDEST POP CALLDATALOAD SWAP2 SWAP1 POP JUMP JUMPDEST PUSH1 0x20 DUP1 DUP3 MSTORE DUP3 MLOAD DUP3 DUP3 ADD DUP2 SWAP1 MSTORE PUSH1 0x0 SWAP2 SWAP1 DUP5 DUP3 ADD SWAP1 PUSH1 0x40 DUP6 ADD SWAP1 DUP5 JUMPDEST DUP2 DUP2 LT ISZERO PUSH2 0x19B JUMPI DUP4 MLOAD DUP4 MSTORE SWAP3 DUP5 ADD SWAP3 SWAP2 DUP5 ADD SWAP2 PUSH1 0x1 ADD PUSH2 0x17F JUMP JUMPDEST POP SWAP1 SWAP7 SWAP6 POP POP POP POP POP POP JUMP JUMPDEST DUP2 DUP2 SUB DUP2 DUP2 GT ISZERO PUSH2 0x1C8 JUMPI PUSH4 0x4E487B71 PUSH1 0xE0 SHL PUSH1 0x0 MSTORE PUSH1 0x11 PUSH1 0x4 MSTORE PUSH1 0x24 PUSH1 0x0 REVERT JUMPDEST SWAP3 SWAP2 POP POP JUMP JUMPDEST PUSH4 0x4E487B71 PUSH1 0xE0 SHL PUSH1 0x0 MSTORE PUSH1 0x32 PUSH1 0x4 MSTORE PUSH1 0x24 PUSH1 0x0 REVERT JUMPDEST PUSH4 0x4E487B71 PUSH1 0xE0 SHL PUSH1 0x0 MSTORE PUSH1 0x31 PUSH1 0x4 MSTORE PUSH1 0x24 PUSH1 0x0 REVERT INVALID LOG2 PUSH5 0x6970667358 0x22 SLT KECCAK256 CALLDATASIZE LOG3 MSIZE 0xD3 PUSH23 0xA9FB35B1EF0FDE546FF2D691411CE0CC244CCCA35724FA 0xCF SWAP3 EXTCODEHASH RETURNDATACOPY PUSH5 0x736F6C6343 STOP ADDMOD LT STOP CALLER "
				},
				"gasEstimates": {
					"creation": {
						"codeDepositCost": "112000",
						"executionCost": "infinite",
						"totalCost": "infinite"
					},
					"external": {
						"getArray()": "infinite",
						"remove(uint256)": "62377"
					}
				},
				"methodIdentifiers": {
					"getArray()": "d504ea1d",
					"remove(uint256)": "4cc82215"
				}
			},
			"storageLayout": {
				"storage": [
					{
						"astId": 10,
						"contract": "Week5/ArrayRemoveShift.sol:ArrayRemoveReplace",
						"label": "array",
						"offset": 0,
						"slot": "0",
						"type": "t_array(t_uint256)dyn_storage"
					}
				],
				"types": {
					"t_array(t_uint256)dyn_storage": {
						"base": "t_uint256",
						"encoding": "dynamic_array",
						"label": "uint256[]",
						"numberOfBytes": "32"
					},
					"t_uint256": {
						"encoding": "inplace",
						"label": "uint256",
						"numberOfBytes": "32"
					}
				}
			},
			"userdoc": {
				"kind": "user",
				"methods": {},
				"version": 1
			}
		}
	}
}