{
	"Week5/ClaimBack.sol": {
		"ClaimBack": {
			"abi": [
				{
					"inputs": [],
					"stateMutability": "payable",
					"type": "constructor"
				},
				{
					"inputs": [
						{
							"internalType": "bytes",
							"name": "",
							"type": "bytes"
						}
					],
					"name": "ClaimError",
					"type": "error"
				},
				{
					"inputs": [],
					"name": "claim",
					"outputs": [
						{
							"internalType": "bytes",
							"name": "",
							"type": "bytes"
						}
					],
					"stateMutability": "payable",
					"type": "function"
				},
				{
					"inputs": [],
					"name": "claimDelegate",
					"outputs": [
						{
							"internalType": "bytes",
							"name": "",
							"type": "bytes"
						}
					],
					"stateMutability": "payable",
					"type": "function"
				},
				{
					"inputs": [],
					"name": "transfer",
					"outputs": [
						{
							"internalType": "bytes",
							"name": "",
							"type": "bytes"
						}
					],
					"stateMutability": "payable",
					"type": "function"
				},
				{
					"inputs": [],
					"name": "transferDelegate",
					"outputs": [
						{
							"internalType": "bytes",
							"name": "",
							"type": "bytes"
						}
					],
					"stateMutability": "payable",
					"type": "function"
				},
				{
					"stateMutability": "payable",
					"type": "receive"
				}
			],
			"devdoc": {
				"kind": "dev",
				"methods": {},
				"version": 1
			},
			"evm": {
				"assembly": "    /* \"Week5/ClaimBack.sol\":221:1523  contract ClaimBack {... */\n  mstore(0x40, 0x80)\n  dataSize(sub_0)\n  dup1\n  dataOffset(sub_0)\n  0x00\n  codecopy\n  0x00\n  return\nstop\n\nsub_0: assembly {\n        /* \"Week5/ClaimBack.sol\":221:1523  contract ClaimBack {... */\n      mstore(0x40, 0x80)\n      jumpi(tag_1, lt(calldatasize, 0x04))\n      shr(0xe0, calldataload(0x00))\n      dup1\n      0x4e71d92d\n      eq\n      tag_3\n      jumpi\n      dup1\n      0x8a4068dd\n      eq\n      tag_4\n      jumpi\n      dup1\n      0xbf56af1b\n      eq\n      tag_3\n      jumpi\n      dup1\n      0xdd164a3b\n      eq\n      tag_6\n      jumpi\n      0x00\n      dup1\n      revert\n    tag_1:\n      jumpi(tag_2, calldatasize)\n      stop\n    tag_2:\n      0x00\n      dup1\n      revert\n        /* \"Week5/ClaimBack.sol\":702:962  function claim() external payable returns(bytes memory) {... */\n    tag_3:\n      tag_9\n      tag_10\n      jump\t// in\n    tag_9:\n      mload(0x40)\n      tag_11\n      swap2\n      swap1\n      tag_12\n      jump\t// in\n    tag_11:\n      mload(0x40)\n      dup1\n      swap2\n      sub\n      swap1\n      return\n        /* \"Week5/ClaimBack.sol\":409:696  function transfer() external payable returns(bytes memory) {... */\n    tag_4:\n      tag_9\n      tag_14\n      jump\t// in\n        /* \"Week5/ClaimBack.sol\":968:1247  function transferDelegate() external payable returns(bytes memory) {... */\n    tag_6:\n      tag_9\n      tag_20\n      jump\t// in\n        /* \"Week5/ClaimBack.sol\":702:962  function claim() external payable returns(bytes memory) {... */\n    tag_10:\n        /* \"Week5/ClaimBack.sol\":818:862  abi.encodeWithSignature(\"claim(uint256)\", 1) */\n      mload(0x40)\n        /* \"Week5/ClaimBack.sol\":860:861  1 */\n      0x01\n        /* \"Week5/ClaimBack.sol\":818:862  abi.encodeWithSignature(\"claim(uint256)\", 1) */\n      0x24\n      dup3\n      add\n        /* \"#utility.yul\":820:856   */\n      mstore\n        /* \"Week5/ClaimBack.sol\":744:756  bytes memory */\n      0x60\n      swap1\n        /* \"Week5/ClaimBack.sol\":769:781  bool success */\n      0x00\n      swap1\n      dup2\n      swap1\n        /* \"Week5/ClaimBack.sol\":282:324  0xd33C69361e00f01C3085ac77ab2fA13bE10376E8 */\n      0xd33c69361e00f01c3085ac77ab2fa13be10376e8\n      swap1\n        /* \"#utility.yul\":793:811   */\n      0x44\n      add\n        /* \"Week5/ClaimBack.sol\":818:862  abi.encodeWithSignature(\"claim(uint256)\", 1) */\n      0x40\n      dup1\n      mload\n      not(0x1f)\n      dup2\n      dup5\n      sub\n      add\n      dup2\n      mstore\n      swap2\n      dup2\n      mstore\n      0x20\n      dup3\n      add\n      dup1\n      mload\n      sub(shl(0xe0, 0x01), 0x01)\n      and\n      shl(0xe0, 0x379607f5)\n      or\n      swap1\n      mstore\n        /* \"Week5/ClaimBack.sol\":804:863  CONTRACT.call(abi.encodeWithSignature(\"claim(uint256)\", 1)) */\n      mload\n      tag_25\n      swap2\n        /* \"Week5/ClaimBack.sol\":818:862  abi.encodeWithSignature(\"claim(uint256)\", 1) */\n      swap1\n        /* \"Week5/ClaimBack.sol\":804:863  CONTRACT.call(abi.encodeWithSignature(\"claim(uint256)\", 1)) */\n      tag_26\n      jump\t// in\n    tag_25:\n      0x00\n      mload(0x40)\n      dup1\n      dup4\n      sub\n      dup2\n      0x00\n      dup7\n      gas\n      call\n      swap2\n      pop\n      pop\n      returndatasize\n      dup1\n      0x00\n      dup2\n      eq\n      tag_29\n      jumpi\n      mload(0x40)\n      swap2\n      pop\n      and(add(returndatasize, 0x3f), not(0x1f))\n      dup3\n      add\n      0x40\n      mstore\n      returndatasize\n      dup3\n      mstore\n      returndatasize\n      0x00\n      0x20\n      dup5\n      add\n      returndatacopy\n      jump(tag_28)\n    tag_29:\n      0x60\n      swap2\n      pop\n    tag_28:\n      pop\n        /* \"Week5/ClaimBack.sol\":768:863  (bool success, bytes memory data) = CONTRACT.call(abi.encodeWithSignature(\"claim(uint256)\", 1)) */\n      swap2\n      pop\n      swap2\n      pop\n        /* \"Week5/ClaimBack.sol\":878:885  success */\n      dup2\n        /* \"Week5/ClaimBack.sol\":873:935  if (!success) {... */\n      tag_30\n      jumpi\n        /* \"Week5/ClaimBack.sol\":919:923  data */\n      dup1\n        /* \"Week5/ClaimBack.sol\":908:924  ClaimError(data) */\n      mload(0x40)\n      shl(0xe1, 0x3b4c5f6f)\n      dup2\n      mstore\n      0x04\n      add\n      tag_31\n      swap2\n      swap1\n      tag_12\n      jump\t// in\n    tag_31:\n      mload(0x40)\n      dup1\n      swap2\n      sub\n      swap1\n      revert\n        /* \"Week5/ClaimBack.sol\":873:935  if (!success) {... */\n    tag_30:\n        /* \"Week5/ClaimBack.sol\":951:955  data */\n      swap3\n        /* \"Week5/ClaimBack.sol\":702:962  function claim() external payable returns(bytes memory) {... */\n      swap2\n      pop\n      pop\n      jump\t// out\n        /* \"Week5/ClaimBack.sol\":409:696  function transfer() external payable returns(bytes memory) {... */\n    tag_14:\n        /* \"Week5/ClaimBack.sol\":454:466  bytes memory */\n      0x60\n        /* \"Week5/ClaimBack.sol\":536:548  bool success */\n      0x00\n        /* \"Week5/ClaimBack.sol\":550:567  bytes memory data */\n      dup1\n        /* \"Week5/ClaimBack.sol\":282:324  0xd33C69361e00f01C3085ac77ab2fA13bE10376E8 */\n      0xd33c69361e00f01c3085ac77ab2fa13be10376e8\n      sub(shl(0xa0, 0x01), 0x01)\n        /* \"Week5/ClaimBack.sol\":571:584  CONTRACT.call */\n      and\n        /* \"Week5/ClaimBack.sol\":591:607  1000000000000000 */\n      0x038d7ea4c68000\n        /* \"Week5/ClaimBack.sol\":571:612  CONTRACT.call{value:1000000000000000}(\"\") */\n      mload(0x40)\n      0x00\n      mload(0x40)\n      dup1\n      dup4\n      sub\n      dup2\n      dup6\n      dup8\n      gas\n      call\n      swap3\n      pop\n      pop\n      pop\n      returndatasize\n      dup1\n      0x00\n      dup2\n      eq\n      tag_37\n      jumpi\n      mload(0x40)\n      swap2\n      pop\n      and(add(returndatasize, 0x3f), not(0x1f))\n      dup3\n      add\n      0x40\n      mstore\n      returndatasize\n      dup3\n      mstore\n      returndatasize\n      0x00\n      0x20\n      dup5\n      add\n      returndatacopy\n      jump(tag_36)\n    tag_37:\n      0x60\n      swap2\n      pop\n    tag_36:\n      pop\n        /* \"Week5/ClaimBack.sol\":535:612  (bool success, bytes memory data) = CONTRACT.call{value:1000000000000000}(\"\") */\n      swap2\n      pop\n      swap2\n      pop\n        /* \"Week5/ClaimBack.sol\":627:634  success */\n      dup2\n        /* \"Week5/ClaimBack.sol\":622:669  if (!success) {... */\n      tag_30\n      jumpi\n        /* \"Week5/ClaimBack.sol\":650:658  revert() */\n      0x00\n      dup1\n      revert\n        /* \"Week5/ClaimBack.sol\":968:1247  function transferDelegate() external payable returns(bytes memory) {... */\n    tag_20:\n        /* \"Week5/ClaimBack.sol\":1138:1163  CONTRACT.delegatecall(\"\") */\n      mload(0x40)\n        /* \"Week5/ClaimBack.sol\":1021:1033  bytes memory */\n      0x60\n      swap1\n        /* \"Week5/ClaimBack.sol\":1103:1115  bool success */\n      0x00\n      swap1\n      dup2\n      swap1\n        /* \"Week5/ClaimBack.sol\":282:324  0xd33C69361e00f01C3085ac77ab2fA13bE10376E8 */\n      0xd33c69361e00f01c3085ac77ab2fa13be10376e8\n      swap1\n        /* \"Week5/ClaimBack.sol\":1103:1115  bool success */\n      dup3\n        /* \"Week5/ClaimBack.sol\":1138:1163  CONTRACT.delegatecall(\"\") */\n      dup2\n        /* \"Week5/ClaimBack.sol\":1103:1115  bool success */\n      dup2\n        /* \"Week5/ClaimBack.sol\":1138:1163  CONTRACT.delegatecall(\"\") */\n      dup2\n        /* \"Week5/ClaimBack.sol\":282:324  0xd33C69361e00f01C3085ac77ab2fA13bE10376E8 */\n      dup6\n        /* \"Week5/ClaimBack.sol\":1138:1163  CONTRACT.delegatecall(\"\") */\n      gas\n      delegatecall\n      swap2\n      pop\n      pop\n      returndatasize\n      dup1\n      0x00\n      dup2\n      eq\n      tag_37\n      jumpi\n      mload(0x40)\n      swap2\n      pop\n      and(add(returndatasize, 0x3f), not(0x1f))\n      dup3\n      add\n      0x40\n      mstore\n      returndatasize\n      dup3\n      mstore\n      returndatasize\n      0x00\n      0x20\n      dup5\n      add\n      returndatacopy\n      jump(tag_36)\n        /* \"#utility.yul\":14:264   */\n    tag_53:\n        /* \"#utility.yul\":99:100   */\n      0x00\n        /* \"#utility.yul\":109:222   */\n    tag_56:\n        /* \"#utility.yul\":123:129   */\n      dup4\n        /* \"#utility.yul\":120:121   */\n      dup2\n        /* \"#utility.yul\":117:130   */\n      lt\n        /* \"#utility.yul\":109:222   */\n      iszero\n      tag_58\n      jumpi\n        /* \"#utility.yul\":199:210   */\n      dup2\n      dup2\n      add\n        /* \"#utility.yul\":193:211   */\n      mload\n        /* \"#utility.yul\":180:191   */\n      dup4\n      dup3\n      add\n        /* \"#utility.yul\":173:212   */\n      mstore\n        /* \"#utility.yul\":145:147   */\n      0x20\n        /* \"#utility.yul\":138:148   */\n      add\n        /* \"#utility.yul\":109:222   */\n      jump(tag_56)\n    tag_58:\n      pop\n      pop\n        /* \"#utility.yul\":256:257   */\n      0x00\n        /* \"#utility.yul\":238:254   */\n      swap2\n      add\n        /* \"#utility.yul\":231:258   */\n      mstore\n        /* \"#utility.yul\":14:264   */\n      jump\t// out\n        /* \"#utility.yul\":269:663   */\n    tag_12:\n        /* \"#utility.yul\":416:418   */\n      0x20\n        /* \"#utility.yul\":405:414   */\n      dup2\n        /* \"#utility.yul\":398:419   */\n      mstore\n        /* \"#utility.yul\":379:383   */\n      0x00\n        /* \"#utility.yul\":448:454   */\n      dup3\n        /* \"#utility.yul\":442:455   */\n      mload\n        /* \"#utility.yul\":491:497   */\n      dup1\n        /* \"#utility.yul\":486:488   */\n      0x20\n        /* \"#utility.yul\":475:484   */\n      dup5\n        /* \"#utility.yul\":471:489   */\n      add\n        /* \"#utility.yul\":464:498   */\n      mstore\n        /* \"#utility.yul\":507:586   */\n      tag_60\n        /* \"#utility.yul\":579:585   */\n      dup2\n        /* \"#utility.yul\":574:576   */\n      0x40\n        /* \"#utility.yul\":563:572   */\n      dup6\n        /* \"#utility.yul\":559:577   */\n      add\n        /* \"#utility.yul\":554:556   */\n      0x20\n        /* \"#utility.yul\":546:552   */\n      dup8\n        /* \"#utility.yul\":542:557   */\n      add\n        /* \"#utility.yul\":507:586   */\n      tag_53\n      jump\t// in\n    tag_60:\n        /* \"#utility.yul\":647:649   */\n      0x1f\n        /* \"#utility.yul\":626:641   */\n      add\n      not(0x1f)\n        /* \"#utility.yul\":622:651   */\n      and\n        /* \"#utility.yul\":607:652   */\n      swap2\n      swap1\n      swap2\n      add\n        /* \"#utility.yul\":654:656   */\n      0x40\n        /* \"#utility.yul\":603:657   */\n      add\n      swap3\n        /* \"#utility.yul\":269:663   */\n      swap2\n      pop\n      pop\n      jump\t// out\n        /* \"#utility.yul\":867:1154   */\n    tag_26:\n        /* \"#utility.yul\":996:999   */\n      0x00\n        /* \"#utility.yul\":1034:1040   */\n      dup3\n        /* \"#utility.yul\":1028:1041   */\n      mload\n        /* \"#utility.yul\":1050:1116   */\n      tag_63\n        /* \"#utility.yul\":1109:1115   */\n      dup2\n        /* \"#utility.yul\":1104:1107   */\n      dup5\n        /* \"#utility.yul\":1097:1101   */\n      0x20\n        /* \"#utility.yul\":1089:1095   */\n      dup8\n        /* \"#utility.yul\":1085:1102   */\n      add\n        /* \"#utility.yul\":1050:1116   */\n      tag_53\n      jump\t// in\n    tag_63:\n        /* \"#utility.yul\":1132:1148   */\n      swap2\n      swap1\n      swap2\n      add\n      swap3\n        /* \"#utility.yul\":867:1154   */\n      swap2\n      pop\n      pop\n      jump\t// out\n\n    auxdata: 0xa2646970667358221220b33b168a7941ca6dee5b5c57c61de7568da69c51f394535b2a9498f0ce7fc4b064736f6c63430008100033\n}\n",
				"bytecode": {
					"linkReferences": {},
					"object": "60806040526102d2806100136000396000f3fe6080604052600436106100435760003560e01c80634e71d92d1461004f5780638a4068dd1461006d578063bf56af1b1461004f578063dd164a3b1461007557600080fd5b3661004a57005b600080fd5b61005761007d565b604051610064919061024d565b60405180910390f35b610057610153565b6100576101d2565b60405160016024820152606090600090819073d33c69361e00f01c3085ac77ab2fa13be10376e89060440160408051601f198184030181529181526020820180516001600160e01b031663379607f560e01b179052516100dd9190610280565b6000604051808303816000865af19150503d806000811461011a576040519150601f19603f3d011682016040523d82523d6000602084013e61011f565b606091505b50915091508161014d5780604051633b4c5f6f60e11b8152600401610144919061024d565b60405180910390fd5b92915050565b606060008073d33c69361e00f01c3085ac77ab2fa13be10376e86001600160a01b031666038d7ea4c6800060405160006040518083038185875af1925050503d80600081146101be576040519150601f19603f3d011682016040523d82523d6000602084013e6101c3565b606091505b50915091508161014d57600080fd5b604051606090600090819073d33c69361e00f01c3085ac77ab2fa13be10376e89082818181855af49150503d80600081146101be576040519150601f19603f3d011682016040523d82523d6000602084013e6101c3565b60005b8381101561024457818101518382015260200161022c565b50506000910152565b602081526000825180602084015261026c816040850160208701610229565b601f01601f19169190910160400192915050565b60008251610292818460208701610229565b919091019291505056fea2646970667358221220b33b168a7941ca6dee5b5c57c61de7568da69c51f394535b2a9498f0ce7fc4b064736f6c63430008100033",
					"opcodes": "PUSH1 0x80 PUSH1 0x40 MSTORE PUSH2 0x2D2 DUP1 PUSH2 0x13 PUSH1 0x0 CODECOPY PUSH1 0x0 RETURN INVALID PUSH1 0x80 PUSH1 0x40 MSTORE PUSH1 0x4 CALLDATASIZE LT PUSH2 0x43 JUMPI PUSH1 0x0 CALLDATALOAD PUSH1 0xE0 SHR DUP1 PUSH4 0x4E71D92D EQ PUSH2 0x4F JUMPI DUP1 PUSH4 0x8A4068DD EQ PUSH2 0x6D JUMPI DUP1 PUSH4 0xBF56AF1B EQ PUSH2 0x4F JUMPI DUP1 PUSH4 0xDD164A3B EQ PUSH2 0x75 JUMPI PUSH1 0x0 DUP1 REVERT JUMPDEST CALLDATASIZE PUSH2 0x4A JUMPI STOP JUMPDEST PUSH1 0x0 DUP1 REVERT JUMPDEST PUSH2 0x57 PUSH2 0x7D JUMP JUMPDEST PUSH1 0x40 MLOAD PUSH2 0x64 SWAP2 SWAP1 PUSH2 0x24D JUMP JUMPDEST PUSH1 0x40 MLOAD DUP1 SWAP2 SUB SWAP1 RETURN JUMPDEST PUSH2 0x57 PUSH2 0x153 JUMP JUMPDEST PUSH2 0x57 PUSH2 0x1D2 JUMP JUMPDEST PUSH1 0x40 MLOAD PUSH1 0x1 PUSH1 0x24 DUP3 ADD MSTORE PUSH1 0x60 SWAP1 PUSH1 0x0 SWAP1 DUP2 SWAP1 PUSH20 0xD33C69361E00F01C3085AC77AB2FA13BE10376E8 SWAP1 PUSH1 0x44 ADD PUSH1 0x40 DUP1 MLOAD PUSH1 0x1F NOT DUP2 DUP5 SUB ADD DUP2 MSTORE SWAP2 DUP2 MSTORE PUSH1 0x20 DUP3 ADD DUP1 MLOAD PUSH1 0x1 PUSH1 0x1 PUSH1 0xE0 SHL SUB AND PUSH4 0x379607F5 PUSH1 0xE0 SHL OR SWAP1 MSTORE MLOAD PUSH2 0xDD SWAP2 SWAP1 PUSH2 0x280 JUMP JUMPDEST PUSH1 0x0 PUSH1 0x40 MLOAD DUP1 DUP4 SUB DUP2 PUSH1 0x0 DUP7 GAS CALL SWAP2 POP POP RETURNDATASIZE DUP1 PUSH1 0x0 DUP2 EQ PUSH2 0x11A JUMPI PUSH1 0x40 MLOAD SWAP2 POP PUSH1 0x1F NOT PUSH1 0x3F RETURNDATASIZE ADD AND DUP3 ADD PUSH1 0x40 MSTORE RETURNDATASIZE DUP3 MSTORE RETURNDATASIZE PUSH1 0x0 PUSH1 0x20 DUP5 ADD RETURNDATACOPY PUSH2 0x11F JUMP JUMPDEST PUSH1 0x60 SWAP2 POP JUMPDEST POP SWAP2 POP SWAP2 POP DUP2 PUSH2 0x14D JUMPI DUP1 PUSH1 0x40 MLOAD PUSH4 0x3B4C5F6F PUSH1 0xE1 SHL DUP2 MSTORE PUSH1 0x4 ADD PUSH2 0x144 SWAP2 SWAP1 PUSH2 0x24D JUMP JUMPDEST PUSH1 0x40 MLOAD DUP1 SWAP2 SUB SWAP1 REVERT JUMPDEST SWAP3 SWAP2 POP POP JUMP JUMPDEST PUSH1 0x60 PUSH1 0x0 DUP1 PUSH20 0xD33C69361E00F01C3085AC77AB2FA13BE10376E8 PUSH1 0x1 PUSH1 0x1 PUSH1 0xA0 SHL SUB AND PUSH7 0x38D7EA4C68000 PUSH1 0x40 MLOAD PUSH1 0x0 PUSH1 0x40 MLOAD DUP1 DUP4 SUB DUP2 DUP6 DUP8 GAS CALL SWAP3 POP POP POP RETURNDATASIZE DUP1 PUSH1 0x0 DUP2 EQ PUSH2 0x1BE JUMPI PUSH1 0x40 MLOAD SWAP2 POP PUSH1 0x1F NOT PUSH1 0x3F RETURNDATASIZE ADD AND DUP3 ADD PUSH1 0x40 MSTORE RETURNDATASIZE DUP3 MSTORE RETURNDATASIZE PUSH1 0x0 PUSH1 0x20 DUP5 ADD RETURNDATACOPY PUSH2 0x1C3 JUMP JUMPDEST PUSH1 0x60 SWAP2 POP JUMPDEST POP SWAP2 POP SWAP2 POP DUP2 PUSH2 0x14D JUMPI PUSH1 0x0 DUP1 REVERT JUMPDEST PUSH1 0x40 MLOAD PUSH1 0x60 SWAP1 PUSH1 0x0 SWAP1 DUP2 SWAP1 PUSH20 0xD33C69361E00F01C3085AC77AB2FA13BE10376E8 SWAP1 DUP3 DUP2 DUP2 DUP2 DUP6 GAS DELEGATECALL SWAP2 POP POP RETURNDATASIZE DUP1 PUSH1 0x0 DUP2 EQ PUSH2 0x1BE JUMPI PUSH1 0x40 MLOAD SWAP2 POP PUSH1 0x1F NOT PUSH1 0x3F RETURNDATASIZE ADD AND DUP3 ADD PUSH1 0x40 MSTORE RETURNDATASIZE DUP3 MSTORE RETURNDATASIZE PUSH1 0x0 PUSH1 0x20 DUP5 ADD RETURNDATACOPY PUSH2 0x1C3 JUMP JUMPDEST PUSH1 0x0 JUMPDEST DUP4 DUP2 LT ISZERO PUSH2 0x244 JUMPI DUP2 DUP2 ADD MLOAD DUP4 DUP3 ADD MSTORE PUSH1 0x20 ADD PUSH2 0x22C JUMP JUMPDEST POP POP PUSH1 0x0 SWAP2 ADD MSTORE JUMP JUMPDEST PUSH1 0x20 DUP2 MSTORE PUSH1 0x0 DUP3 MLOAD DUP1 PUSH1 0x20 DUP5 ADD MSTORE PUSH2 0x26C DUP2 PUSH1 0x40 DUP6 ADD PUSH1 0x20 DUP8 ADD PUSH2 0x229 JUMP JUMPDEST PUSH1 0x1F ADD PUSH1 0x1F NOT AND SWAP2 SWAP1 SWAP2 ADD PUSH1 0x40 ADD SWAP3 SWAP2 POP POP JUMP JUMPDEST PUSH1 0x0 DUP3 MLOAD PUSH2 0x292 DUP2 DUP5 PUSH1 0x20 DUP8 ADD PUSH2 0x229 JUMP JUMPDEST SWAP2 SWAP1 SWAP2 ADD SWAP3 SWAP2 POP POP JUMP INVALID LOG2 PUSH5 0x6970667358 0x22 SLT KECCAK256 0xB3 EXTCODESIZE AND DUP11 PUSH26 0x41CA6DEE5B5C57C61DE7568DA69C51F394535B2A9498F0CE7FC4 0xB0 PUSH5 0x736F6C6343 STOP ADDMOD LT STOP CALLER "
				},
				"gasEstimates": {
					"creation": {
						"codeDepositCost": "144400",
						"executionCost": "166",
						"totalCost": "144566"
					},
					"external": {
						"claim()": "infinite",
						"claimDelegate()": "infinite",
						"transfer()": "infinite",
						"transferDelegate()": "infinite"
					}
				},
				"methodIdentifiers": {
					"claim()": "4e71d92d",
					"claimDelegate()": "bf56af1b",
					"transfer()": "8a4068dd",
					"transferDelegate()": "dd164a3b"
				}
			},
			"storageLayout": {
				"storage": [],
				"types": null
			},
			"userdoc": {
				"kind": "user",
				"methods": {},
				"version": 1
			}
		}
	}
}