{
	"Week5/FunctionSelector.sol": {
		"FunctionSelector": {
			"abi": [
				{
					"inputs": [],
					"name": "encodeWithSignature",
					"outputs": [
						{
							"internalType": "bytes",
							"name": "",
							"type": "bytes"
						}
					],
					"stateMutability": "pure",
					"type": "function"
				},
				{
					"inputs": [],
					"name": "encodeWithSignatureManual",
					"outputs": [
						{
							"internalType": "bytes4",
							"name": "",
							"type": "bytes4"
						}
					],
					"stateMutability": "pure",
					"type": "function"
				}
			],
			"devdoc": {
				"kind": "dev",
				"methods": {},
				"version": 1
			},
			"evm": {
				"assembly": "    /* \"Week5/FunctionSelector.sol\":70:387  contract FunctionSelector {... */\n  mstore(0x40, 0x80)\n  callvalue\n  dup1\n  iszero\n  tag_1\n  jumpi\n  0x00\n  dup1\n  revert\ntag_1:\n  pop\n  dataSize(sub_0)\n  dup1\n  dataOffset(sub_0)\n  0x00\n  codecopy\n  0x00\n  return\nstop\n\nsub_0: assembly {\n        /* \"Week5/FunctionSelector.sol\":70:387  contract FunctionSelector {... */\n      mstore(0x40, 0x80)\n      callvalue\n      dup1\n      iszero\n      tag_1\n      jumpi\n      0x00\n      dup1\n      revert\n    tag_1:\n      pop\n      jumpi(tag_2, lt(calldatasize, 0x04))\n      shr(0xe0, calldataload(0x00))\n      dup1\n      0x72d9353c\n      eq\n      tag_3\n      jumpi\n      dup1\n      0xe4f2a84a\n      eq\n      tag_4\n      jumpi\n    tag_2:\n      0x00\n      dup1\n      revert\n        /* \"Week5/FunctionSelector.sol\":246:385  function encodeWithSignatureManual() external pure returns(bytes4) {... */\n    tag_3:\n      tag_5\n      tag_6\n      jump\t// in\n    tag_5:\n      mload(0x40)\n      tag_7\n      swap2\n      swap1\n      tag_8\n      jump\t// in\n    tag_7:\n      mload(0x40)\n      dup1\n      swap2\n      sub\n      swap1\n      return\n        /* \"Week5/FunctionSelector.sol\":102:240  function encodeWithSignature() external pure returns(bytes memory) {... */\n    tag_4:\n      tag_9\n      tag_10\n      jump\t// in\n    tag_9:\n      mload(0x40)\n      tag_11\n      swap2\n      swap1\n      tag_12\n      jump\t// in\n    tag_11:\n      mload(0x40)\n      dup1\n      swap2\n      sub\n      swap1\n      return\n        /* \"Week5/FunctionSelector.sol\":246:385  function encodeWithSignatureManual() external pure returns(bytes4) {... */\n    tag_6:\n        /* \"Week5/FunctionSelector.sol\":305:311  bytes4 */\n      0x00\n        /* \"Week5/FunctionSelector.sol\":347:376  bytes(\"sum(uint256,uint256)\") */\n      mload(0x40)\n      dup1\n      0x40\n      add\n      0x40\n      mstore\n      dup1\n      0x14\n      dup2\n      mstore\n      0x20\n      add\n      0x73756d2875696e743235362c75696e7432353629000000000000000000000000\n      dup2\n      mstore\n      pop\n        /* \"Week5/FunctionSelector.sol\":337:377  keccak256(bytes(\"sum(uint256,uint256)\")) */\n      dup1\n      mload\n      swap1\n      0x20\n      add\n      keccak256\n        /* \"Week5/FunctionSelector.sol\":323:378  return bytes4(keccak256(bytes(\"sum(uint256,uint256)\"))) */\n      swap1\n      pop\n        /* \"Week5/FunctionSelector.sol\":246:385  function encodeWithSignatureManual() external pure returns(bytes4) {... */\n      swap1\n      jump\t// out\n        /* \"Week5/FunctionSelector.sol\":102:240  function encodeWithSignature() external pure returns(bytes memory) {... */\n    tag_10:\n        /* \"Week5/FunctionSelector.sol\":155:167  bytes memory */\n      0x60\n        /* \"Week5/FunctionSelector.sol\":186:233  abi.encodeWithSignature(\"sum(uint256,uint256)\") */\n      add(0x24, mload(0x40))\n      mload(0x40)\n      0x20\n      dup2\n      dup4\n      sub\n      sub\n      dup2\n      mstore\n      swap1\n      0x40\n      mstore\n      and(not(0xffffffffffffffffffffffffffffffffffffffffffffffffffffffff), 0xcad0899b00000000000000000000000000000000000000000000000000000000)\n      0x20\n      dup3\n      add\n      dup1\n      mload\n      0xffffffffffffffffffffffffffffffffffffffffffffffffffffffff\n      dup4\n      dup2\n      dup4\n      and\n      or\n      dup4\n      mstore\n      pop\n      pop\n      pop\n      pop\n        /* \"Week5/FunctionSelector.sol\":179:233  return abi.encodeWithSignature(\"sum(uint256,uint256)\") */\n      swap1\n      pop\n        /* \"Week5/FunctionSelector.sol\":102:240  function encodeWithSignature() external pure returns(bytes memory) {... */\n      swap1\n      jump\t// out\n        /* \"#utility.yul\":7:122   */\n    tag_16:\n        /* \"#utility.yul\":92:115   */\n      tag_18\n        /* \"#utility.yul\":109:114   */\n      dup2\n        /* \"#utility.yul\":92:115   */\n      tag_19\n      jump\t// in\n    tag_18:\n        /* \"#utility.yul\":87:90   */\n      dup3\n        /* \"#utility.yul\":80:116   */\n      mstore\n        /* \"#utility.yul\":7:122   */\n      pop\n      pop\n      jump\t// out\n        /* \"#utility.yul\":128:488   */\n    tag_20:\n        /* \"#utility.yul\":214:217   */\n      0x00\n        /* \"#utility.yul\":242:280   */\n      tag_22\n        /* \"#utility.yul\":274:279   */\n      dup3\n        /* \"#utility.yul\":242:280   */\n      tag_23\n      jump\t// in\n    tag_22:\n        /* \"#utility.yul\":296:366   */\n      tag_24\n        /* \"#utility.yul\":359:365   */\n      dup2\n        /* \"#utility.yul\":354:357   */\n      dup6\n        /* \"#utility.yul\":296:366   */\n      tag_25\n      jump\t// in\n    tag_24:\n        /* \"#utility.yul\":289:366   */\n      swap4\n      pop\n        /* \"#utility.yul\":375:427   */\n      tag_26\n        /* \"#utility.yul\":420:426   */\n      dup2\n        /* \"#utility.yul\":415:418   */\n      dup6\n        /* \"#utility.yul\":408:412   */\n      0x20\n        /* \"#utility.yul\":401:406   */\n      dup7\n        /* \"#utility.yul\":397:413   */\n      add\n        /* \"#utility.yul\":375:427   */\n      tag_27\n      jump\t// in\n    tag_26:\n        /* \"#utility.yul\":452:481   */\n      tag_28\n        /* \"#utility.yul\":474:480   */\n      dup2\n        /* \"#utility.yul\":452:481   */\n      tag_29\n      jump\t// in\n    tag_28:\n        /* \"#utility.yul\":447:450   */\n      dup5\n        /* \"#utility.yul\":443:482   */\n      add\n        /* \"#utility.yul\":436:482   */\n      swap2\n      pop\n        /* \"#utility.yul\":218:488   */\n      pop\n        /* \"#utility.yul\":128:488   */\n      swap3\n      swap2\n      pop\n      pop\n      jump\t// out\n        /* \"#utility.yul\":494:712   */\n    tag_8:\n        /* \"#utility.yul\":585:589   */\n      0x00\n        /* \"#utility.yul\":623:625   */\n      0x20\n        /* \"#utility.yul\":612:621   */\n      dup3\n        /* \"#utility.yul\":608:626   */\n      add\n        /* \"#utility.yul\":600:626   */\n      swap1\n      pop\n        /* \"#utility.yul\":636:705   */\n      tag_31\n        /* \"#utility.yul\":702:703   */\n      0x00\n        /* \"#utility.yul\":691:700   */\n      dup4\n        /* \"#utility.yul\":687:704   */\n      add\n        /* \"#utility.yul\":678:684   */\n      dup5\n        /* \"#utility.yul\":636:705   */\n      tag_16\n      jump\t// in\n    tag_31:\n        /* \"#utility.yul\":494:712   */\n      swap3\n      swap2\n      pop\n      pop\n      jump\t// out\n        /* \"#utility.yul\":718:1027   */\n    tag_12:\n        /* \"#utility.yul\":829:833   */\n      0x00\n        /* \"#utility.yul\":867:869   */\n      0x20\n        /* \"#utility.yul\":856:865   */\n      dup3\n        /* \"#utility.yul\":852:870   */\n      add\n        /* \"#utility.yul\":844:870   */\n      swap1\n      pop\n        /* \"#utility.yul\":916:925   */\n      dup2\n        /* \"#utility.yul\":910:914   */\n      dup2\n        /* \"#utility.yul\":906:926   */\n      sub\n        /* \"#utility.yul\":902:903   */\n      0x00\n        /* \"#utility.yul\":891:900   */\n      dup4\n        /* \"#utility.yul\":887:904   */\n      add\n        /* \"#utility.yul\":880:927   */\n      mstore\n        /* \"#utility.yul\":944:1020   */\n      tag_33\n        /* \"#utility.yul\":1015:1019   */\n      dup2\n        /* \"#utility.yul\":1006:1012   */\n      dup5\n        /* \"#utility.yul\":944:1020   */\n      tag_20\n      jump\t// in\n    tag_33:\n        /* \"#utility.yul\":936:1020   */\n      swap1\n      pop\n        /* \"#utility.yul\":718:1027   */\n      swap3\n      swap2\n      pop\n      pop\n      jump\t// out\n        /* \"#utility.yul\":1033:1131   */\n    tag_23:\n        /* \"#utility.yul\":1084:1090   */\n      0x00\n        /* \"#utility.yul\":1118:1123   */\n      dup2\n        /* \"#utility.yul\":1112:1124   */\n      mload\n        /* \"#utility.yul\":1102:1124   */\n      swap1\n      pop\n        /* \"#utility.yul\":1033:1131   */\n      swap2\n      swap1\n      pop\n      jump\t// out\n        /* \"#utility.yul\":1137:1305   */\n    tag_25:\n        /* \"#utility.yul\":1220:1231   */\n      0x00\n        /* \"#utility.yul\":1254:1260   */\n      dup3\n        /* \"#utility.yul\":1249:1252   */\n      dup3\n        /* \"#utility.yul\":1242:1261   */\n      mstore\n        /* \"#utility.yul\":1294:1298   */\n      0x20\n        /* \"#utility.yul\":1289:1292   */\n      dup3\n        /* \"#utility.yul\":1285:1299   */\n      add\n        /* \"#utility.yul\":1270:1299   */\n      swap1\n      pop\n        /* \"#utility.yul\":1137:1305   */\n      swap3\n      swap2\n      pop\n      pop\n      jump\t// out\n        /* \"#utility.yul\":1311:1460   */\n    tag_19:\n        /* \"#utility.yul\":1347:1354   */\n      0x00\n        /* \"#utility.yul\":1387:1453   */\n      0xffffffff00000000000000000000000000000000000000000000000000000000\n        /* \"#utility.yul\":1380:1385   */\n      dup3\n        /* \"#utility.yul\":1376:1454   */\n      and\n        /* \"#utility.yul\":1365:1454   */\n      swap1\n      pop\n        /* \"#utility.yul\":1311:1460   */\n      swap2\n      swap1\n      pop\n      jump\t// out\n        /* \"#utility.yul\":1466:1773   */\n    tag_27:\n        /* \"#utility.yul\":1534:1535   */\n      0x00\n        /* \"#utility.yul\":1544:1657   */\n    tag_38:\n        /* \"#utility.yul\":1558:1564   */\n      dup4\n        /* \"#utility.yul\":1555:1556   */\n      dup2\n        /* \"#utility.yul\":1552:1565   */\n      lt\n        /* \"#utility.yul\":1544:1657   */\n      iszero\n      tag_40\n      jumpi\n        /* \"#utility.yul\":1643:1644   */\n      dup1\n        /* \"#utility.yul\":1638:1641   */\n      dup3\n        /* \"#utility.yul\":1634:1645   */\n      add\n        /* \"#utility.yul\":1628:1646   */\n      mload\n        /* \"#utility.yul\":1624:1625   */\n      dup2\n        /* \"#utility.yul\":1619:1622   */\n      dup5\n        /* \"#utility.yul\":1615:1626   */\n      add\n        /* \"#utility.yul\":1608:1647   */\n      mstore\n        /* \"#utility.yul\":1580:1582   */\n      0x20\n        /* \"#utility.yul\":1577:1578   */\n      dup2\n        /* \"#utility.yul\":1573:1583   */\n      add\n        /* \"#utility.yul\":1568:1583   */\n      swap1\n      pop\n        /* \"#utility.yul\":1544:1657   */\n      jump(tag_38)\n    tag_40:\n        /* \"#utility.yul\":1675:1681   */\n      dup4\n        /* \"#utility.yul\":1672:1673   */\n      dup2\n        /* \"#utility.yul\":1669:1682   */\n      gt\n        /* \"#utility.yul\":1666:1767   */\n      iszero\n      tag_41\n      jumpi\n        /* \"#utility.yul\":1755:1756   */\n      0x00\n        /* \"#utility.yul\":1746:1752   */\n      dup5\n        /* \"#utility.yul\":1741:1744   */\n      dup5\n        /* \"#utility.yul\":1737:1753   */\n      add\n        /* \"#utility.yul\":1730:1757   */\n      mstore\n        /* \"#utility.yul\":1666:1767   */\n    tag_41:\n        /* \"#utility.yul\":1515:1773   */\n      pop\n        /* \"#utility.yul\":1466:1773   */\n      pop\n      pop\n      pop\n      jump\t// out\n        /* \"#utility.yul\":1779:1881   */\n    tag_29:\n        /* \"#utility.yul\":1820:1826   */\n      0x00\n        /* \"#utility.yul\":1871:1873   */\n      0x1f\n        /* \"#utility.yul\":1867:1874   */\n      not\n        /* \"#utility.yul\":1862:1864   */\n      0x1f\n        /* \"#utility.yul\":1855:1860   */\n      dup4\n        /* \"#utility.yul\":1851:1865   */\n      add\n        /* \"#utility.yul\":1847:1875   */\n      and\n        /* \"#utility.yul\":1837:1875   */\n      swap1\n      pop\n        /* \"#utility.yul\":1779:1881   */\n      swap2\n      swap1\n      pop\n      jump\t// out\n\n    auxdata: 0xa2646970667358221220f487c916919bd5e181a39451e30b45cee3f32c619cc54f70ec54b4ccf02d01fb64736f6c63430008070033\n}\n",
				"bytecode": {
					"linkReferences": {},
					"object": "608060405234801561001057600080fd5b5061028c806100206000396000f3fe608060405234801561001057600080fd5b50600436106100365760003560e01c806372d9353c1461003b578063e4f2a84a14610059575b600080fd5b610043610077565b604051610050919061018d565b60405180910390f35b6100616100bb565b60405161006e91906101a8565b60405180910390f35b60006040518060400160405280601481526020017f73756d2875696e743235362c75696e743235362900000000000000000000000081525080519060200120905090565b60606040516024016040516020818303038152906040527fcad0899b000000000000000000000000000000000000000000000000000000007bffffffffffffffffffffffffffffffffffffffffffffffffffffffff19166020820180517bffffffffffffffffffffffffffffffffffffffffffffffffffffffff8381831617835250505050905090565b61014e816101e6565b82525050565b600061015f826101ca565b61016981856101d5565b9350610179818560208601610212565b61018281610245565b840191505092915050565b60006020820190506101a26000830184610145565b92915050565b600060208201905081810360008301526101c28184610154565b905092915050565b600081519050919050565b600082825260208201905092915050565b60007fffffffff0000000000000000000000000000000000000000000000000000000082169050919050565b60005b83811015610230578082015181840152602081019050610215565b8381111561023f576000848401525b50505050565b6000601f19601f830116905091905056fea2646970667358221220f487c916919bd5e181a39451e30b45cee3f32c619cc54f70ec54b4ccf02d01fb64736f6c63430008070033",
					"opcodes": "PUSH1 0x80 PUSH1 0x40 MSTORE CALLVALUE DUP1 ISZERO PUSH2 0x10 JUMPI PUSH1 0x0 DUP1 REVERT JUMPDEST POP PUSH2 0x28C DUP1 PUSH2 0x20 PUSH1 0x0 CODECOPY PUSH1 0x0 RETURN INVALID PUSH1 0x80 PUSH1 0x40 MSTORE CALLVALUE DUP1 ISZERO PUSH2 0x10 JUMPI PUSH1 0x0 DUP1 REVERT JUMPDEST POP PUSH1 0x4 CALLDATASIZE LT PUSH2 0x36 JUMPI PUSH1 0x0 CALLDATALOAD PUSH1 0xE0 SHR DUP1 PUSH4 0x72D9353C EQ PUSH2 0x3B JUMPI DUP1 PUSH4 0xE4F2A84A EQ PUSH2 0x59 JUMPI JUMPDEST PUSH1 0x0 DUP1 REVERT JUMPDEST PUSH2 0x43 PUSH2 0x77 JUMP JUMPDEST PUSH1 0x40 MLOAD PUSH2 0x50 SWAP2 SWAP1 PUSH2 0x18D JUMP JUMPDEST PUSH1 0x40 MLOAD DUP1 SWAP2 SUB SWAP1 RETURN JUMPDEST PUSH2 0x61 PUSH2 0xBB JUMP JUMPDEST PUSH1 0x40 MLOAD PUSH2 0x6E SWAP2 SWAP1 PUSH2 0x1A8 JUMP JUMPDEST PUSH1 0x40 MLOAD DUP1 SWAP2 SUB SWAP1 RETURN JUMPDEST PUSH1 0x0 PUSH1 0x40 MLOAD DUP1 PUSH1 0x40 ADD PUSH1 0x40 MSTORE DUP1 PUSH1 0x14 DUP2 MSTORE PUSH1 0x20 ADD PUSH32 0x73756D2875696E743235362C75696E7432353629000000000000000000000000 DUP2 MSTORE POP DUP1 MLOAD SWAP1 PUSH1 0x20 ADD KECCAK256 SWAP1 POP SWAP1 JUMP JUMPDEST PUSH1 0x60 PUSH1 0x40 MLOAD PUSH1 0x24 ADD PUSH1 0x40 MLOAD PUSH1 0x20 DUP2 DUP4 SUB SUB DUP2 MSTORE SWAP1 PUSH1 0x40 MSTORE PUSH32 0xCAD0899B00000000000000000000000000000000000000000000000000000000 PUSH28 0xFFFFFFFFFFFFFFFFFFFFFFFFFFFFFFFFFFFFFFFFFFFFFFFFFFFFFFFF NOT AND PUSH1 0x20 DUP3 ADD DUP1 MLOAD PUSH28 0xFFFFFFFFFFFFFFFFFFFFFFFFFFFFFFFFFFFFFFFFFFFFFFFFFFFFFFFF DUP4 DUP2 DUP4 AND OR DUP4 MSTORE POP POP POP POP SWAP1 POP SWAP1 JUMP JUMPDEST PUSH2 0x14E DUP2 PUSH2 0x1E6 JUMP JUMPDEST DUP3 MSTORE POP POP JUMP JUMPDEST PUSH1 0x0 PUSH2 0x15F DUP3 PUSH2 0x1CA JUMP JUMPDEST PUSH2 0x169 DUP2 DUP6 PUSH2 0x1D5 JUMP JUMPDEST SWAP4 POP PUSH2 0x179 DUP2 DUP6 PUSH1 0x20 DUP7 ADD PUSH2 0x212 JUMP JUMPDEST PUSH2 0x182 DUP2 PUSH2 0x245 JUMP JUMPDEST DUP5 ADD SWAP2 POP POP SWAP3 SWAP2 POP POP JUMP JUMPDEST PUSH1 0x0 PUSH1 0x20 DUP3 ADD SWAP1 POP PUSH2 0x1A2 PUSH1 0x0 DUP4 ADD DUP5 PUSH2 0x145 JUMP JUMPDEST SWAP3 SWAP2 POP POP JUMP JUMPDEST PUSH1 0x0 PUSH1 0x20 DUP3 ADD SWAP1 POP DUP2 DUP2 SUB PUSH1 0x0 DUP4 ADD MSTORE PUSH2 0x1C2 DUP2 DUP5 PUSH2 0x154 JUMP JUMPDEST SWAP1 POP SWAP3 SWAP2 POP POP JUMP JUMPDEST PUSH1 0x0 DUP2 MLOAD SWAP1 POP SWAP2 SWAP1 POP JUMP JUMPDEST PUSH1 0x0 DUP3 DUP3 MSTORE PUSH1 0x20 DUP3 ADD SWAP1 POP SWAP3 SWAP2 POP POP JUMP JUMPDEST PUSH1 0x0 PUSH32 0xFFFFFFFF00000000000000000000000000000000000000000000000000000000 DUP3 AND SWAP1 POP SWAP2 SWAP1 POP JUMP JUMPDEST PUSH1 0x0 JUMPDEST DUP4 DUP2 LT ISZERO PUSH2 0x230 JUMPI DUP1 DUP3 ADD MLOAD DUP2 DUP5 ADD MSTORE PUSH1 0x20 DUP2 ADD SWAP1 POP PUSH2 0x215 JUMP JUMPDEST DUP4 DUP2 GT ISZERO PUSH2 0x23F JUMPI PUSH1 0x0 DUP5 DUP5 ADD MSTORE JUMPDEST POP POP POP POP JUMP JUMPDEST PUSH1 0x0 PUSH1 0x1F NOT PUSH1 0x1F DUP4 ADD AND SWAP1 POP SWAP2 SWAP1 POP JUMP INVALID LOG2 PUSH5 0x6970667358 0x22 SLT KECCAK256 DELEGATECALL DUP8 0xC9 AND SWAP2 SWAP12 0xD5 0xE1 DUP2 LOG3 SWAP5 MLOAD 0xE3 SIGNEXTEND GASLIMIT 0xCE 0xE3 RETURN 0x2C PUSH2 0x9CC5 0x4F PUSH17 0xEC54B4CCF02D01FB64736F6C6343000807 STOP CALLER "
				},
				"gasEstimates": {
					"creation": {
						"codeDepositCost": "130400",
						"executionCost": "177",
						"totalCost": "130577"
					},
					"external": {
						"encodeWithSignature()": "infinite",
						"encodeWithSignatureManual()": "425"
					}
				},
				"methodIdentifiers": {
					"encodeWithSignature()": "e4f2a84a",
					"encodeWithSignatureManual()": "72d9353c"
				}
			},
			"storageLayout": {
				"storage": [],
				"types": null
			},
			"userdoc": {
				"kind": "user",
				"methods": {},
				"version": 1
			}
		}
	}
}