{
	"Week5/TodoList.sol": {
		"TodoList": {
			"abi": [
				{
					"inputs": [
						{
							"internalType": "string",
							"name": "_text",
							"type": "string"
						}
					],
					"name": "createTodo",
					"outputs": [],
					"stateMutability": "nonpayable",
					"type": "function"
				},
				{
					"inputs": [
						{
							"internalType": "uint256",
							"name": "_index",
							"type": "uint256"
						},
						{
							"internalType": "string",
							"name": "_text",
							"type": "string"
						}
					],
					"name": "updateTodo",
					"outputs": [],
					"stateMutability": "nonpayable",
					"type": "function"
				}
			],
			"devdoc": {
				"kind": "dev",
				"methods": {},
				"version": 1
			},
			"evm": {
				"assembly": "    /* \"Week5/TodoList.sol\":70:367  contract TodoList {... */\n  mstore(0x40, 0x80)\n  callvalue\n  dup1\n  iszero\n  tag_1\n  jumpi\n  0x00\n  dup1\n  revert\ntag_1:\n  pop\n  dataSize(sub_0)\n  dup1\n  dataOffset(sub_0)\n  0x00\n  codecopy\n  0x00\n  return\nstop\n\nsub_0: assembly {\n        /* \"Week5/TodoList.sol\":70:367  contract TodoList {... */\n      mstore(0x40, 0x80)\n      callvalue\n      dup1\n      iszero\n      tag_1\n      jumpi\n      0x00\n      dup1\n      revert\n    tag_1:\n      pop\n      jumpi(tag_2, lt(calldatasize, 0x04))\n      shr(0xe0, calldataload(0x00))\n      dup1\n      0xd534ee88\n      eq\n      tag_3\n      jumpi\n      dup1\n      0xe34f1221\n      eq\n      tag_4\n      jumpi\n    tag_2:\n      0x00\n      dup1\n      revert\n        /* \"Week5/TodoList.sol\":291:365  function updateTodo(uint _index, string calldata _text) external  {... */\n    tag_3:\n      tag_5\n      tag_6\n      calldatasize\n      0x04\n      tag_7\n      jump\t// in\n    tag_6:\n      pop\n      pop\n      pop\n      jump\n    tag_5:\n      stop\n        /* \"Week5/TodoList.sol\":183:285  function createTodo(string calldata _text) external {... */\n    tag_4:\n      tag_5\n      tag_10\n      calldatasize\n      0x04\n      tag_11\n      jump\t// in\n    tag_10:\n        /* \"Week5/TodoList.sol\":259:277  Todo(_text, false) */\n      0x40\n      dup1\n      mload\n      0x60\n      0x20\n      0x1f\n      dup6\n      add\n      dup2\n      swap1\n      div\n      mul\n      dup3\n      add\n      dup2\n      add\n      dup4\n      mstore\n      swap2\n      dup2\n      add\n      dup4\n      dup2\n      mstore\n        /* \"Week5/TodoList.sol\":245:253  todoList */\n      0x00\n      swap3\n        /* \"Week5/TodoList.sol\":259:277  Todo(_text, false) */\n      dup3\n      swap2\n      swap1\n        /* \"Week5/TodoList.sol\":264:269  _text */\n      dup7\n      swap1\n      dup7\n      swap1\n      dup2\n      swap1\n        /* \"Week5/TodoList.sol\":259:277  Todo(_text, false) */\n      dup6\n      add\n        /* \"Week5/TodoList.sol\":264:269  _text */\n      dup4\n      dup3\n      dup1\n      dup3\n        /* \"Week5/TodoList.sol\":259:277  Todo(_text, false) */\n      dup5\n      calldatacopy\n      0x00\n      swap3\n      add\n      dup3\n      swap1\n      mstore\n      pop\n      swap4\n      dup6\n      mstore\n      pop\n      pop\n      pop\n      0x20\n      swap2\n      dup3\n      add\n      dup2\n      swap1\n      mstore\n        /* \"Week5/TodoList.sol\":245:278  todoList.push(Todo(_text, false)) */\n      dup4\n      sload\n        /* \"Week5/TodoList.sol\":259:277  Todo(_text, false) */\n      0x01\n        /* \"Week5/TodoList.sol\":245:278  todoList.push(Todo(_text, false)) */\n      dup2\n      add\n      dup6\n      sstore\n      swap4\n      dup2\n      mstore\n      keccak256\n      dup2\n      mload\n      swap2\n      swap3\n      0x02\n      mul\n      add\n      swap1\n      dup2\n      swap1\n      tag_16\n      swap1\n      dup3\n      tag_17\n      jump\t// in\n    tag_16:\n      pop\n      0x20\n      swap2\n      swap1\n      swap2\n      add\n      mload\n      0x01\n      swap1\n      swap2\n      add\n      dup1\n      sload\n      not(0xff)\n      and\n      swap2\n      iszero\n      iszero\n      swap2\n      swap1\n      swap2\n      or\n      swap1\n      sstore\n      pop\n      pop\n        /* \"Week5/TodoList.sol\":183:285  function createTodo(string calldata _text) external {... */\n      jump\t// out\n        /* \"#utility.yul\":14:362   */\n    tag_18:\n        /* \"#utility.yul\":66:74   */\n      0x00\n        /* \"#utility.yul\":76:82   */\n      dup1\n        /* \"#utility.yul\":130:133   */\n      dup4\n        /* \"#utility.yul\":123:127   */\n      0x1f\n        /* \"#utility.yul\":115:121   */\n      dup5\n        /* \"#utility.yul\":111:128   */\n      add\n        /* \"#utility.yul\":107:134   */\n      slt\n        /* \"#utility.yul\":97:152   */\n      tag_26\n      jumpi\n        /* \"#utility.yul\":148:149   */\n      0x00\n        /* \"#utility.yul\":145:146   */\n      dup1\n        /* \"#utility.yul\":138:150   */\n      revert\n        /* \"#utility.yul\":97:152   */\n    tag_26:\n      pop\n        /* \"#utility.yul\":171:191   */\n      dup2\n      calldataload\n        /* \"#utility.yul\":214:232   */\n      0xffffffffffffffff\n        /* \"#utility.yul\":203:233   */\n      dup2\n      gt\n        /* \"#utility.yul\":200:250   */\n      iszero\n      tag_27\n      jumpi\n        /* \"#utility.yul\":246:247   */\n      0x00\n        /* \"#utility.yul\":243:244   */\n      dup1\n        /* \"#utility.yul\":236:248   */\n      revert\n        /* \"#utility.yul\":200:250   */\n    tag_27:\n        /* \"#utility.yul\":283:287   */\n      0x20\n        /* \"#utility.yul\":275:281   */\n      dup4\n        /* \"#utility.yul\":271:288   */\n      add\n        /* \"#utility.yul\":259:288   */\n      swap2\n      pop\n        /* \"#utility.yul\":335:338   */\n      dup4\n        /* \"#utility.yul\":328:332   */\n      0x20\n        /* \"#utility.yul\":319:325   */\n      dup3\n        /* \"#utility.yul\":311:317   */\n      dup6\n        /* \"#utility.yul\":307:326   */\n      add\n        /* \"#utility.yul\":303:333   */\n      add\n        /* \"#utility.yul\":300:339   */\n      gt\n        /* \"#utility.yul\":297:356   */\n      iszero\n      tag_28\n      jumpi\n        /* \"#utility.yul\":352:353   */\n      0x00\n        /* \"#utility.yul\":349:350   */\n      dup1\n        /* \"#utility.yul\":342:354   */\n      revert\n        /* \"#utility.yul\":297:356   */\n    tag_28:\n        /* \"#utility.yul\":14:362   */\n      swap3\n      pop\n      swap3\n      swap1\n      pop\n      jump\t// out\n        /* \"#utility.yul\":367:846   */\n    tag_7:\n        /* \"#utility.yul\":447:453   */\n      0x00\n        /* \"#utility.yul\":455:461   */\n      dup1\n        /* \"#utility.yul\":463:469   */\n      0x00\n        /* \"#utility.yul\":516:518   */\n      0x40\n        /* \"#utility.yul\":504:513   */\n      dup5\n        /* \"#utility.yul\":495:502   */\n      dup7\n        /* \"#utility.yul\":491:514   */\n      sub\n        /* \"#utility.yul\":487:519   */\n      slt\n        /* \"#utility.yul\":484:536   */\n      iszero\n      tag_30\n      jumpi\n        /* \"#utility.yul\":532:533   */\n      0x00\n        /* \"#utility.yul\":529:530   */\n      dup1\n        /* \"#utility.yul\":522:534   */\n      revert\n        /* \"#utility.yul\":484:536   */\n    tag_30:\n        /* \"#utility.yul\":568:577   */\n      dup4\n        /* \"#utility.yul\":555:578   */\n      calldataload\n        /* \"#utility.yul\":545:578   */\n      swap3\n      pop\n        /* \"#utility.yul\":629:631   */\n      0x20\n        /* \"#utility.yul\":618:627   */\n      dup5\n        /* \"#utility.yul\":614:632   */\n      add\n        /* \"#utility.yul\":601:633   */\n      calldataload\n        /* \"#utility.yul\":656:674   */\n      0xffffffffffffffff\n        /* \"#utility.yul\":648:654   */\n      dup2\n        /* \"#utility.yul\":645:675   */\n      gt\n        /* \"#utility.yul\":642:692   */\n      iszero\n      tag_31\n      jumpi\n        /* \"#utility.yul\":688:689   */\n      0x00\n        /* \"#utility.yul\":685:686   */\n      dup1\n        /* \"#utility.yul\":678:690   */\n      revert\n        /* \"#utility.yul\":642:692   */\n    tag_31:\n        /* \"#utility.yul\":727:786   */\n      tag_32\n        /* \"#utility.yul\":778:785   */\n      dup7\n        /* \"#utility.yul\":769:775   */\n      dup3\n        /* \"#utility.yul\":758:767   */\n      dup8\n        /* \"#utility.yul\":754:776   */\n      add\n        /* \"#utility.yul\":727:786   */\n      tag_18\n      jump\t// in\n    tag_32:\n        /* \"#utility.yul\":367:846   */\n      swap5\n      swap8\n        /* \"#utility.yul\":805:813   */\n      swap1\n      swap7\n      pop\n        /* \"#utility.yul\":701:786   */\n      swap4\n      swap5\n      pop\n      pop\n      pop\n      pop\n        /* \"#utility.yul\":367:846   */\n      jump\t// out\n        /* \"#utility.yul\":851:1262   */\n    tag_11:\n        /* \"#utility.yul\":922:928   */\n      0x00\n        /* \"#utility.yul\":930:936   */\n      dup1\n        /* \"#utility.yul\":983:985   */\n      0x20\n        /* \"#utility.yul\":971:980   */\n      dup4\n        /* \"#utility.yul\":962:969   */\n      dup6\n        /* \"#utility.yul\":958:981   */\n      sub\n        /* \"#utility.yul\":954:986   */\n      slt\n        /* \"#utility.yul\":951:1003   */\n      iszero\n      tag_34\n      jumpi\n        /* \"#utility.yul\":999:1000   */\n      0x00\n        /* \"#utility.yul\":996:997   */\n      dup1\n        /* \"#utility.yul\":989:1001   */\n      revert\n        /* \"#utility.yul\":951:1003   */\n    tag_34:\n        /* \"#utility.yul\":1039:1048   */\n      dup3\n        /* \"#utility.yul\":1026:1049   */\n      calldataload\n        /* \"#utility.yul\":1072:1090   */\n      0xffffffffffffffff\n        /* \"#utility.yul\":1064:1070   */\n      dup2\n        /* \"#utility.yul\":1061:1091   */\n      gt\n        /* \"#utility.yul\":1058:1108   */\n      iszero\n      tag_35\n      jumpi\n        /* \"#utility.yul\":1104:1105   */\n      0x00\n        /* \"#utility.yul\":1101:1102   */\n      dup1\n        /* \"#utility.yul\":1094:1106   */\n      revert\n        /* \"#utility.yul\":1058:1108   */\n    tag_35:\n        /* \"#utility.yul\":1143:1202   */\n      tag_36\n        /* \"#utility.yul\":1194:1201   */\n      dup6\n        /* \"#utility.yul\":1185:1191   */\n      dup3\n        /* \"#utility.yul\":1174:1183   */\n      dup7\n        /* \"#utility.yul\":1170:1192   */\n      add\n        /* \"#utility.yul\":1143:1202   */\n      tag_18\n      jump\t// in\n    tag_36:\n        /* \"#utility.yul\":1221:1229   */\n      swap1\n      swap7\n        /* \"#utility.yul\":1117:1202   */\n      swap1\n      swap6\n      pop\n        /* \"#utility.yul\":851:1262   */\n      swap4\n      pop\n      pop\n      pop\n      pop\n      jump\t// out\n        /* \"#utility.yul\":1267:1394   */\n    tag_19:\n        /* \"#utility.yul\":1328:1338   */\n      0x4e487b71\n        /* \"#utility.yul\":1323:1326   */\n      0xe0\n        /* \"#utility.yul\":1319:1339   */\n      shl\n        /* \"#utility.yul\":1316:1317   */\n      0x00\n        /* \"#utility.yul\":1309:1340   */\n      mstore\n        /* \"#utility.yul\":1359:1363   */\n      0x41\n        /* \"#utility.yul\":1356:1357   */\n      0x04\n        /* \"#utility.yul\":1349:1364   */\n      mstore\n        /* \"#utility.yul\":1383:1387   */\n      0x24\n        /* \"#utility.yul\":1380:1381   */\n      0x00\n        /* \"#utility.yul\":1373:1388   */\n      revert\n        /* \"#utility.yul\":1399:1779   */\n    tag_20:\n        /* \"#utility.yul\":1478:1479   */\n      0x01\n        /* \"#utility.yul\":1474:1486   */\n      dup2\n      dup2\n      shr\n      swap1\n        /* \"#utility.yul\":1521:1533   */\n      dup3\n      and\n      dup1\n        /* \"#utility.yul\":1542:1603   */\n      tag_39\n      jumpi\n        /* \"#utility.yul\":1596:1600   */\n      0x7f\n        /* \"#utility.yul\":1588:1594   */\n      dup3\n        /* \"#utility.yul\":1584:1601   */\n      and\n        /* \"#utility.yul\":1574:1601   */\n      swap2\n      pop\n        /* \"#utility.yul\":1542:1603   */\n    tag_39:\n        /* \"#utility.yul\":1649:1651   */\n      0x20\n        /* \"#utility.yul\":1641:1647   */\n      dup3\n        /* \"#utility.yul\":1638:1652   */\n      lt\n        /* \"#utility.yul\":1618:1636   */\n      dup2\n        /* \"#utility.yul\":1615:1653   */\n      sub\n        /* \"#utility.yul\":1612:1773   */\n      tag_40\n      jumpi\n        /* \"#utility.yul\":1695:1705   */\n      0x4e487b71\n        /* \"#utility.yul\":1690:1693   */\n      0xe0\n        /* \"#utility.yul\":1686:1706   */\n      shl\n        /* \"#utility.yul\":1683:1684   */\n      0x00\n        /* \"#utility.yul\":1676:1707   */\n      mstore\n        /* \"#utility.yul\":1730:1734   */\n      0x22\n        /* \"#utility.yul\":1727:1728   */\n      0x04\n        /* \"#utility.yul\":1720:1735   */\n      mstore\n        /* \"#utility.yul\":1758:1762   */\n      0x24\n        /* \"#utility.yul\":1755:1756   */\n      0x00\n        /* \"#utility.yul\":1748:1763   */\n      revert\n        /* \"#utility.yul\":1612:1773   */\n    tag_40:\n      pop\n        /* \"#utility.yul\":1399:1779   */\n      swap2\n      swap1\n      pop\n      jump\t// out\n        /* \"#utility.yul\":1910:2455   */\n    tag_22:\n        /* \"#utility.yul\":2012:2014   */\n      0x1f\n        /* \"#utility.yul\":2007:2010   */\n      dup3\n        /* \"#utility.yul\":2004:2015   */\n      gt\n        /* \"#utility.yul\":2001:2449   */\n      iszero\n      tag_6\n      jumpi\n        /* \"#utility.yul\":2048:2049   */\n      0x00\n        /* \"#utility.yul\":2073:2078   */\n      dup2\n        /* \"#utility.yul\":2069:2071   */\n      dup2\n        /* \"#utility.yul\":2062:2079   */\n      mstore\n        /* \"#utility.yul\":2118:2122   */\n      0x20\n        /* \"#utility.yul\":2114:2116   */\n      dup2\n        /* \"#utility.yul\":2104:2123   */\n      keccak256\n        /* \"#utility.yul\":2188:2190   */\n      0x1f\n        /* \"#utility.yul\":2176:2186   */\n      dup6\n        /* \"#utility.yul\":2172:2191   */\n      add\n        /* \"#utility.yul\":2169:2170   */\n      0x05\n        /* \"#utility.yul\":2165:2192   */\n      shr\n        /* \"#utility.yul\":2159:2163   */\n      dup2\n        /* \"#utility.yul\":2155:2193   */\n      add\n        /* \"#utility.yul\":2224:2228   */\n      0x20\n        /* \"#utility.yul\":2212:2222   */\n      dup7\n        /* \"#utility.yul\":2209:2229   */\n      lt\n        /* \"#utility.yul\":2206:2253   */\n      iszero\n      tag_44\n      jumpi\n      pop\n        /* \"#utility.yul\":2247:2251   */\n      dup1\n        /* \"#utility.yul\":2206:2253   */\n    tag_44:\n        /* \"#utility.yul\":2302:2304   */\n      0x1f\n        /* \"#utility.yul\":2297:2300   */\n      dup6\n        /* \"#utility.yul\":2293:2305   */\n      add\n        /* \"#utility.yul\":2290:2291   */\n      0x05\n        /* \"#utility.yul\":2286:2306   */\n      shr\n        /* \"#utility.yul\":2280:2284   */\n      dup3\n        /* \"#utility.yul\":2276:2307   */\n      add\n        /* \"#utility.yul\":2266:2307   */\n      swap2\n      pop\n        /* \"#utility.yul\":2357:2439   */\n    tag_45:\n        /* \"#utility.yul\":2375:2377   */\n      dup2\n        /* \"#utility.yul\":2368:2373   */\n      dup2\n        /* \"#utility.yul\":2365:2378   */\n      lt\n        /* \"#utility.yul\":2357:2439   */\n      iszero\n      tag_47\n      jumpi\n        /* \"#utility.yul\":2420:2437   */\n      dup3\n      dup2\n      sstore\n        /* \"#utility.yul\":2401:2402   */\n      0x01\n        /* \"#utility.yul\":2390:2403   */\n      add\n        /* \"#utility.yul\":2357:2439   */\n      jump(tag_45)\n    tag_47:\n        /* \"#utility.yul\":2361:2364   */\n      pop\n      pop\n      pop\n        /* \"#utility.yul\":1910:2455   */\n      pop\n      pop\n      pop\n      jump\t// out\n        /* \"#utility.yul\":2631:3983   */\n    tag_17:\n        /* \"#utility.yul\":2757:2760   */\n      dup2\n        /* \"#utility.yul\":2751:2761   */\n      mload\n        /* \"#utility.yul\":2784:2802   */\n      0xffffffffffffffff\n        /* \"#utility.yul\":2776:2782   */\n      dup2\n        /* \"#utility.yul\":2773:2803   */\n      gt\n        /* \"#utility.yul\":2770:2826   */\n      iszero\n      tag_51\n      jumpi\n        /* \"#utility.yul\":2806:2824   */\n      tag_51\n      tag_19\n      jump\t// in\n    tag_51:\n        /* \"#utility.yul\":2835:2932   */\n      tag_52\n        /* \"#utility.yul\":2925:2931   */\n      dup2\n        /* \"#utility.yul\":2885:2923   */\n      tag_53\n        /* \"#utility.yul\":2917:2921   */\n      dup5\n        /* \"#utility.yul\":2911:2922   */\n      sload\n        /* \"#utility.yul\":2885:2923   */\n      tag_20\n      jump\t// in\n    tag_53:\n        /* \"#utility.yul\":2879:2883   */\n      dup5\n        /* \"#utility.yul\":2835:2932   */\n      tag_22\n      jump\t// in\n    tag_52:\n        /* \"#utility.yul\":2987:2991   */\n      0x20\n      dup1\n        /* \"#utility.yul\":3051:3053   */\n      0x1f\n        /* \"#utility.yul\":3040:3054   */\n      dup4\n      gt\n        /* \"#utility.yul\":3068:3069   */\n      0x01\n        /* \"#utility.yul\":3063:3726   */\n      dup2\n      eq\n      tag_55\n      jumpi\n        /* \"#utility.yul\":3770:3771   */\n      0x00\n        /* \"#utility.yul\":3787:3793   */\n      dup5\n        /* \"#utility.yul\":3784:3873   */\n      iszero\n      tag_56\n      jumpi\n      pop\n        /* \"#utility.yul\":3839:3858   */\n      dup6\n      dup4\n      add\n        /* \"#utility.yul\":3833:3859   */\n      mload\n        /* \"#utility.yul\":3784:3873   */\n    tag_56:\n      not(0x00)\n        /* \"#utility.yul\":2588:2589   */\n      0x03\n        /* \"#utility.yul\":2584:2595   */\n      dup7\n      swap1\n      shl\n        /* \"#utility.yul\":2580:2604   */\n      shr\n        /* \"#utility.yul\":2576:2605   */\n      not\n        /* \"#utility.yul\":2566:2606   */\n      and\n        /* \"#utility.yul\":2612:2613   */\n      0x01\n        /* \"#utility.yul\":2608:2619   */\n      dup6\n      swap1\n      shl\n        /* \"#utility.yul\":2563:2620   */\n      or\n        /* \"#utility.yul\":3886:3967   */\n      dup6\n      sstore\n        /* \"#utility.yul\":3033:3977   */\n      jump(tag_47)\n        /* \"#utility.yul\":3063:3726   */\n    tag_55:\n        /* \"#utility.yul\":1857:1858   */\n      0x00\n        /* \"#utility.yul\":1850:1864   */\n      dup6\n      dup2\n      mstore\n        /* \"#utility.yul\":1894:1898   */\n      0x20\n        /* \"#utility.yul\":1881:1899   */\n      dup2\n      keccak256\n      not(0x1f)\n        /* \"#utility.yul\":3099:3119   */\n      dup7\n      and\n      swap2\n        /* \"#utility.yul\":3217:3453   */\n    tag_59:\n        /* \"#utility.yul\":3231:3238   */\n      dup3\n        /* \"#utility.yul\":3228:3229   */\n      dup2\n        /* \"#utility.yul\":3225:3239   */\n      lt\n        /* \"#utility.yul\":3217:3453   */\n      iszero\n      tag_61\n      jumpi\n        /* \"#utility.yul\":3320:3339   */\n      dup9\n      dup7\n      add\n        /* \"#utility.yul\":3314:3340   */\n      mload\n        /* \"#utility.yul\":3299:3341   */\n      dup3\n      sstore\n        /* \"#utility.yul\":3412:3439   */\n      swap5\n      dup5\n      add\n      swap5\n        /* \"#utility.yul\":3380:3381   */\n      0x01\n        /* \"#utility.yul\":3368:3382   */\n      swap1\n      swap2\n      add\n      swap1\n        /* \"#utility.yul\":3247:3266   */\n      dup5\n      add\n        /* \"#utility.yul\":3217:3453   */\n      jump(tag_59)\n    tag_61:\n        /* \"#utility.yul\":3221:3224   */\n      pop\n        /* \"#utility.yul\":3481:3487   */\n      dup6\n        /* \"#utility.yul\":3472:3479   */\n      dup3\n        /* \"#utility.yul\":3469:3488   */\n      lt\n        /* \"#utility.yul\":3466:3667   */\n      iszero\n      tag_62\n      jumpi\n        /* \"#utility.yul\":3542:3561   */\n      dup8\n      dup6\n      add\n        /* \"#utility.yul\":3536:3562   */\n      mload\n      not(0x00)\n        /* \"#utility.yul\":3625:3626   */\n      0x03\n        /* \"#utility.yul\":3621:3635   */\n      dup9\n      swap1\n      shl\n        /* \"#utility.yul\":3637:3640   */\n      0xf8\n        /* \"#utility.yul\":3617:3641   */\n      and\n        /* \"#utility.yul\":3613:3650   */\n      shr\n        /* \"#utility.yul\":3609:3651   */\n      not\n        /* \"#utility.yul\":3594:3652   */\n      and\n        /* \"#utility.yul\":3579:3653   */\n      dup2\n      sstore\n        /* \"#utility.yul\":3466:3667   */\n    tag_62:\n      pop\n      pop\n      pop\n      pop\n      pop\n        /* \"#utility.yul\":3713:3714   */\n      0x01\n        /* \"#utility.yul\":3697:3711   */\n      swap1\n      dup2\n      shl\n        /* \"#utility.yul\":3693:3715   */\n      add\n        /* \"#utility.yul\":3680:3716   */\n      swap1\n      sstore\n      pop\n        /* \"#utility.yul\":2631:3983   */\n      jump\t// out\n\n    auxdata: 0xa2646970667358221220a4df2abdf4026fcc3e1877c8c65a4e4bbed7b1b5c7f145abd2c739f9b2aafe9d64736f6c63430008100033\n}\n",
				"bytecode": {
					"linkReferences": {},
					"object": "608060405234801561001057600080fd5b50610350806100206000396000f3fe608060405234801561001057600080fd5b50600436106100365760003560e01c8063d534ee881461003b578063e34f122114610050575b600080fd5b61004e61004936600461012e565b505050565b005b61004e61005e36600461017a565b6040805160606020601f85018190040282018101835291810183815260009282919086908690819085018382808284376000920182905250938552505050602091820181905283546001810185559381522081519192600202019081906100c5908261025a565b50602091909101516001909101805460ff19169115159190911790555050565b60008083601f8401126100f757600080fd5b50813567ffffffffffffffff81111561010f57600080fd5b60208301915083602082850101111561012757600080fd5b9250929050565b60008060006040848603121561014357600080fd5b83359250602084013567ffffffffffffffff81111561016157600080fd5b61016d868287016100e5565b9497909650939450505050565b6000806020838503121561018d57600080fd5b823567ffffffffffffffff8111156101a457600080fd5b6101b0858286016100e5565b90969095509350505050565b634e487b7160e01b600052604160045260246000fd5b600181811c908216806101e657607f821691505b60208210810361020657634e487b7160e01b600052602260045260246000fd5b50919050565b601f82111561004957600081815260208120601f850160051c810160208610156102335750805b601f850160051c820191505b818110156102525782815560010161023f565b505050505050565b815167ffffffffffffffff811115610274576102746101bc565b6102888161028284546101d2565b8461020c565b602080601f8311600181146102bd57600084156102a55750858301515b600019600386901b1c1916600185901b178555610252565b600085815260208120601f198616915b828110156102ec578886015182559484019460019091019084016102cd565b508582101561030a5787850151600019600388901b60f8161c191681555b5050505050600190811b0190555056fea2646970667358221220a4df2abdf4026fcc3e1877c8c65a4e4bbed7b1b5c7f145abd2c739f9b2aafe9d64736f6c63430008100033",
					"opcodes": "PUSH1 0x80 PUSH1 0x40 MSTORE CALLVALUE DUP1 ISZERO PUSH2 0x10 JUMPI PUSH1 0x0 DUP1 REVERT JUMPDEST POP PUSH2 0x350 DUP1 PUSH2 0x20 PUSH1 0x0 CODECOPY PUSH1 0x0 RETURN INVALID PUSH1 0x80 PUSH1 0x40 MSTORE CALLVALUE DUP1 ISZERO PUSH2 0x10 JUMPI PUSH1 0x0 DUP1 REVERT JUMPDEST POP PUSH1 0x4 CALLDATASIZE LT PUSH2 0x36 JUMPI PUSH1 0x0 CALLDATALOAD PUSH1 0xE0 SHR DUP1 PUSH4 0xD534EE88 EQ PUSH2 0x3B JUMPI DUP1 PUSH4 0xE34F1221 EQ PUSH2 0x50 JUMPI JUMPDEST PUSH1 0x0 DUP1 REVERT JUMPDEST PUSH2 0x4E PUSH2 0x49 CALLDATASIZE PUSH1 0x4 PUSH2 0x12E JUMP JUMPDEST POP POP POP JUMP JUMPDEST STOP JUMPDEST PUSH2 0x4E PUSH2 0x5E CALLDATASIZE PUSH1 0x4 PUSH2 0x17A JUMP JUMPDEST PUSH1 0x40 DUP1 MLOAD PUSH1 0x60 PUSH1 0x20 PUSH1 0x1F DUP6 ADD DUP2 SWAP1 DIV MUL DUP3 ADD DUP2 ADD DUP4 MSTORE SWAP2 DUP2 ADD DUP4 DUP2 MSTORE PUSH1 0x0 SWAP3 DUP3 SWAP2 SWAP1 DUP7 SWAP1 DUP7 SWAP1 DUP2 SWAP1 DUP6 ADD DUP4 DUP3 DUP1 DUP3 DUP5 CALLDATACOPY PUSH1 0x0 SWAP3 ADD DUP3 SWAP1 MSTORE POP SWAP4 DUP6 MSTORE POP POP POP PUSH1 0x20 SWAP2 DUP3 ADD DUP2 SWAP1 MSTORE DUP4 SLOAD PUSH1 0x1 DUP2 ADD DUP6 SSTORE SWAP4 DUP2 MSTORE KECCAK256 DUP2 MLOAD SWAP2 SWAP3 PUSH1 0x2 MUL ADD SWAP1 DUP2 SWAP1 PUSH2 0xC5 SWAP1 DUP3 PUSH2 0x25A JUMP JUMPDEST POP PUSH1 0x20 SWAP2 SWAP1 SWAP2 ADD MLOAD PUSH1 0x1 SWAP1 SWAP2 ADD DUP1 SLOAD PUSH1 0xFF NOT AND SWAP2 ISZERO ISZERO SWAP2 SWAP1 SWAP2 OR SWAP1 SSTORE POP POP JUMP JUMPDEST PUSH1 0x0 DUP1 DUP4 PUSH1 0x1F DUP5 ADD SLT PUSH2 0xF7 JUMPI PUSH1 0x0 DUP1 REVERT JUMPDEST POP DUP2 CALLDATALOAD PUSH8 0xFFFFFFFFFFFFFFFF DUP2 GT ISZERO PUSH2 0x10F JUMPI PUSH1 0x0 DUP1 REVERT JUMPDEST PUSH1 0x20 DUP4 ADD SWAP2 POP DUP4 PUSH1 0x20 DUP3 DUP6 ADD ADD GT ISZERO PUSH2 0x127 JUMPI PUSH1 0x0 DUP1 REVERT JUMPDEST SWAP3 POP SWAP3 SWAP1 POP JUMP JUMPDEST PUSH1 0x0 DUP1 PUSH1 0x0 PUSH1 0x40 DUP5 DUP7 SUB SLT ISZERO PUSH2 0x143 JUMPI PUSH1 0x0 DUP1 REVERT JUMPDEST DUP4 CALLDATALOAD SWAP3 POP PUSH1 0x20 DUP5 ADD CALLDATALOAD PUSH8 0xFFFFFFFFFFFFFFFF DUP2 GT ISZERO PUSH2 0x161 JUMPI PUSH1 0x0 DUP1 REVERT JUMPDEST PUSH2 0x16D DUP7 DUP3 DUP8 ADD PUSH2 0xE5 JUMP JUMPDEST SWAP5 SWAP8 SWAP1 SWAP7 POP SWAP4 SWAP5 POP POP POP POP JUMP JUMPDEST PUSH1 0x0 DUP1 PUSH1 0x20 DUP4 DUP6 SUB SLT ISZERO PUSH2 0x18D JUMPI PUSH1 0x0 DUP1 REVERT JUMPDEST DUP3 CALLDATALOAD PUSH8 0xFFFFFFFFFFFFFFFF DUP2 GT ISZERO PUSH2 0x1A4 JUMPI PUSH1 0x0 DUP1 REVERT JUMPDEST PUSH2 0x1B0 DUP6 DUP3 DUP7 ADD PUSH2 0xE5 JUMP JUMPDEST SWAP1 SWAP7 SWAP1 SWAP6 POP SWAP4 POP POP POP POP JUMP JUMPDEST PUSH4 0x4E487B71 PUSH1 0xE0 SHL PUSH1 0x0 MSTORE PUSH1 0x41 PUSH1 0x4 MSTORE PUSH1 0x24 PUSH1 0x0 REVERT JUMPDEST PUSH1 0x1 DUP2 DUP2 SHR SWAP1 DUP3 AND DUP1 PUSH2 0x1E6 JUMPI PUSH1 0x7F DUP3 AND SWAP2 POP JUMPDEST PUSH1 0x20 DUP3 LT DUP2 SUB PUSH2 0x206 JUMPI PUSH4 0x4E487B71 PUSH1 0xE0 SHL PUSH1 0x0 MSTORE PUSH1 0x22 PUSH1 0x4 MSTORE PUSH1 0x24 PUSH1 0x0 REVERT JUMPDEST POP SWAP2 SWAP1 POP JUMP JUMPDEST PUSH1 0x1F DUP3 GT ISZERO PUSH2 0x49 JUMPI PUSH1 0x0 DUP2 DUP2 MSTORE PUSH1 0x20 DUP2 KECCAK256 PUSH1 0x1F DUP6 ADD PUSH1 0x5 SHR DUP2 ADD PUSH1 0x20 DUP7 LT ISZERO PUSH2 0x233 JUMPI POP DUP1 JUMPDEST PUSH1 0x1F DUP6 ADD PUSH1 0x5 SHR DUP3 ADD SWAP2 POP JUMPDEST DUP2 DUP2 LT ISZERO PUSH2 0x252 JUMPI DUP3 DUP2 SSTORE PUSH1 0x1 ADD PUSH2 0x23F JUMP JUMPDEST POP POP POP POP POP POP JUMP JUMPDEST DUP2 MLOAD PUSH8 0xFFFFFFFFFFFFFFFF DUP2 GT ISZERO PUSH2 0x274 JUMPI PUSH2 0x274 PUSH2 0x1BC JUMP JUMPDEST PUSH2 0x288 DUP2 PUSH2 0x282 DUP5 SLOAD PUSH2 0x1D2 JUMP JUMPDEST DUP5 PUSH2 0x20C JUMP JUMPDEST PUSH1 0x20 DUP1 PUSH1 0x1F DUP4 GT PUSH1 0x1 DUP2 EQ PUSH2 0x2BD JUMPI PUSH1 0x0 DUP5 ISZERO PUSH2 0x2A5 JUMPI POP DUP6 DUP4 ADD MLOAD JUMPDEST PUSH1 0x0 NOT PUSH1 0x3 DUP7 SWAP1 SHL SHR NOT AND PUSH1 0x1 DUP6 SWAP1 SHL OR DUP6 SSTORE PUSH2 0x252 JUMP JUMPDEST PUSH1 0x0 DUP6 DUP2 MSTORE PUSH1 0x20 DUP2 KECCAK256 PUSH1 0x1F NOT DUP7 AND SWAP2 JUMPDEST DUP3 DUP2 LT ISZERO PUSH2 0x2EC JUMPI DUP9 DUP7 ADD MLOAD DUP3 SSTORE SWAP5 DUP5 ADD SWAP5 PUSH1 0x1 SWAP1 SWAP2 ADD SWAP1 DUP5 ADD PUSH2 0x2CD JUMP JUMPDEST POP DUP6 DUP3 LT ISZERO PUSH2 0x30A JUMPI DUP8 DUP6 ADD MLOAD PUSH1 0x0 NOT PUSH1 0x3 DUP9 SWAP1 SHL PUSH1 0xF8 AND SHR NOT AND DUP2 SSTORE JUMPDEST POP POP POP POP POP PUSH1 0x1 SWAP1 DUP2 SHL ADD SWAP1 SSTORE POP JUMP INVALID LOG2 PUSH5 0x6970667358 0x22 SLT KECCAK256 LOG4 0xDF 0x2A 0xBD DELEGATECALL MUL PUSH16 0xCC3E1877C8C65A4E4BBED7B1B5C7F145 0xAB 0xD2 0xC7 CODECOPY 0xF9 0xB2 0xAA INVALID SWAP14 PUSH5 0x736F6C6343 STOP ADDMOD LT STOP CALLER "
				},
				"gasEstimates": {
					"creation": {
						"codeDepositCost": "169600",
						"executionCost": "214",
						"totalCost": "169814"
					},
					"external": {
						"createTodo(string)": "infinite",
						"updateTodo(uint256,string)": "433"
					}
				},
				"methodIdentifiers": {
					"createTodo(string)": "e34f1221",
					"updateTodo(uint256,string)": "d534ee88"
				}
			},
			"storageLayout": {
				"storage": [
					{
						"astId": 10,
						"contract": "Week5/TodoList.sol:TodoList",
						"label": "todoList",
						"offset": 0,
						"slot": "0",
						"type": "t_array(t_struct(Todo)6_storage)dyn_storage"
					}
				],
				"types": {
					"t_array(t_struct(Todo)6_storage)dyn_storage": {
						"base": "t_struct(Todo)6_storage",
						"encoding": "dynamic_array",
						"label": "struct TodoList.Todo[]",
						"numberOfBytes": "32"
					},
					"t_bool": {
						"encoding": "inplace",
						"label": "bool",
						"numberOfBytes": "1"
					},
					"t_string_storage": {
						"encoding": "bytes",
						"label": "string",
						"numberOfBytes": "32"
					},
					"t_struct(Todo)6_storage": {
						"encoding": "inplace",
						"label": "struct TodoList.Todo",
						"members": [
							{
								"astId": 3,
								"contract": "Week5/TodoList.sol:TodoList",
								"label": "text",
								"offset": 0,
								"slot": "0",
								"type": "t_string_storage"
							},
							{
								"astId": 5,
								"contract": "Week5/TodoList.sol:TodoList",
								"label": "isCheck",
								"offset": 0,
								"slot": "1",
								"type": "t_bool"
							}
						],
						"numberOfBytes": "64"
					}
				}
			},
			"userdoc": {
				"kind": "user",
				"methods": {},
				"version": 1
			}
		}
	}
}