{
	"Week5/Array1.sol": {
		"Array1": {
			"abi": [
				{
					"inputs": [
						{
							"internalType": "uint256",
							"name": "_index",
							"type": "uint256"
						}
					],
					"name": "remove",
					"outputs": [],
					"stateMutability": "nonpayable",
					"type": "function"
				}
			],
			"devdoc": {
				"kind": "dev",
				"methods": {},
				"version": 1
			},
			"evm": {
				"assembly": "    /* \"Week5/Array1.sol\":92:122  uint[] array = [1, 2, 3, 4, 5] */\n  0x0120\n    /* \"Week5/Array1.sol\":70:185  contract Array1 {... */\n  0x40\n    /* \"Week5/Array1.sol\":92:122  uint[] array = [1, 2, 3, 4, 5] */\n  mstore\n    /* \"Week5/Array1.sol\":108:109  1 */\n  0x01\n    /* \"Week5/Array1.sol\":70:185  contract Array1 {... */\n  0x80\n    /* \"Week5/Array1.sol\":92:122  uint[] array = [1, 2, 3, 4, 5] */\n  swap1\n  dup2\n  mstore\n    /* \"Week5/Array1.sol\":111:112  2 */\n  0x02\n    /* \"Week5/Array1.sol\":92:122  uint[] array = [1, 2, 3, 4, 5] */\n  0xa0\n  mstore\n    /* \"Week5/Array1.sol\":114:115  3 */\n  0x03\n    /* \"Week5/Array1.sol\":92:122  uint[] array = [1, 2, 3, 4, 5] */\n  0xc0\n  mstore\n    /* \"Week5/Array1.sol\":117:118  4 */\n  0x04\n    /* \"Week5/Array1.sol\":92:122  uint[] array = [1, 2, 3, 4, 5] */\n  0xe0\n  mstore\n    /* \"Week5/Array1.sol\":120:121  5 */\n  0x05\n    /* \"Week5/Array1.sol\":92:122  uint[] array = [1, 2, 3, 4, 5] */\n  0x0100\n  dup2\n  swap1\n  mstore\n  tag_1\n  swap2\n  0x00\n  swap2\n  tag_2\n  jump\t// in\ntag_1:\n  pop\n    /* \"Week5/Array1.sol\":70:185  contract Array1 {... */\n  callvalue\n  dup1\n  iszero\n  tag_3\n  jumpi\n  0x00\n  dup1\n  revert\ntag_3:\n  pop\n  jump(tag_4)\ntag_2:\n  dup3\n  dup1\n  sload\n  dup3\n  dup3\n  sstore\n  swap1\n  0x00\n  mstore\n  keccak256(0x00, 0x20)\n  swap1\n  dup2\n  add\n  swap3\n  dup3\n  iszero\n  tag_7\n  jumpi\n  swap2\n  0x20\n  mul\n  dup3\n  add\ntag_6:\n  dup3\n  dup2\n  gt\n  iszero\n  tag_7\n  jumpi\n  dup3\n  mload\n  dup3\n  swap1\n  0xff\n  and\n  swap1\n  sstore\n  swap2\n  0x20\n  add\n  swap2\n  swap1\n  0x01\n  add\n  swap1\n  jump(tag_6)\ntag_7:\n  pop\n  tag_8\n  swap3\n  swap2\n  pop\n  tag_9\n  jump\t// in\ntag_8:\n  pop\n  swap1\n  jump\t// out\ntag_9:\ntag_10:\n  dup1\n  dup3\n  gt\n  iszero\n  tag_8\n  jumpi\n  0x00\n  dup2\n  sstore\n  0x01\n  add\n  jump(tag_10)\ntag_4:\n  dataSize(sub_0)\n  dup1\n  dataOffset(sub_0)\n  0x00\n  codecopy\n  0x00\n  return\nstop\n\nsub_0: assembly {\n        /* \"Week5/Array1.sol\":70:185  contract Array1 {... */\n      mstore(0x40, 0x80)\n      callvalue\n      dup1\n      iszero\n      tag_1\n      jumpi\n      0x00\n      dup1\n      revert\n    tag_1:\n      pop\n      jumpi(tag_2, lt(calldatasize, 0x04))\n      shr(0xe0, calldataload(0x00))\n      dup1\n      0x4cc82215\n      eq\n      tag_3\n      jumpi\n    tag_2:\n      0x00\n      dup1\n      revert\n        /* \"Week5/Array1.sol\":129:183  function remove(uint _index) external {... */\n    tag_3:\n      tag_4\n      tag_5\n      calldatasize\n      0x04\n      tag_6\n      jump\t// in\n    tag_5:\n      pop\n      jump\n    tag_4:\n      stop\n        /* \"#utility.yul\":14:194   */\n    tag_6:\n        /* \"#utility.yul\":73:79   */\n      0x00\n        /* \"#utility.yul\":126:128   */\n      0x20\n        /* \"#utility.yul\":114:123   */\n      dup3\n        /* \"#utility.yul\":105:112   */\n      dup5\n        /* \"#utility.yul\":101:124   */\n      sub\n        /* \"#utility.yul\":97:129   */\n      slt\n        /* \"#utility.yul\":94:146   */\n      iszero\n      tag_11\n      jumpi\n        /* \"#utility.yul\":142:143   */\n      0x00\n        /* \"#utility.yul\":139:140   */\n      dup1\n        /* \"#utility.yul\":132:144   */\n      revert\n        /* \"#utility.yul\":94:146   */\n    tag_11:\n      pop\n        /* \"#utility.yul\":165:188   */\n      calldataload\n      swap2\n        /* \"#utility.yul\":14:194   */\n      swap1\n      pop\n      jump\t// out\n\n    auxdata: 0xa264697066735822122035350fb665ee3fe86620ec3cb7529f1cc171f098ef2f47360549e976cbb9019864736f6c63430008100033\n}\n",
				"bytecode": {
					"linkReferences": {},
					"object": "61012060405260016080908152600260a052600360c052600460e052600561010081905261002f91600091610042565b5034801561003c57600080fd5b506100a7565b828054828255906000526020600020908101928215610082579160200282015b82811115610082578251829060ff16905591602001919060010190610062565b5061008e929150610092565b5090565b5b8082111561008e5760008155600101610093565b608b806100b56000396000f3fe6080604052348015600f57600080fd5b506004361060285760003560e01c80634cc8221514602d575b600080fd5b603b6038366004603d565b50565b005b600060208284031215604e57600080fd5b503591905056fea264697066735822122035350fb665ee3fe86620ec3cb7529f1cc171f098ef2f47360549e976cbb9019864736f6c63430008100033",
					"opcodes": "PUSH2 0x120 PUSH1 0x40 MSTORE PUSH1 0x1 PUSH1 0x80 SWAP1 DUP2 MSTORE PUSH1 0x2 PUSH1 0xA0 MSTORE PUSH1 0x3 PUSH1 0xC0 MSTORE PUSH1 0x4 PUSH1 0xE0 MSTORE PUSH1 0x5 PUSH2 0x100 DUP2 SWAP1 MSTORE PUSH2 0x2F SWAP2 PUSH1 0x0 SWAP2 PUSH2 0x42 JUMP JUMPDEST POP CALLVALUE DUP1 ISZERO PUSH2 0x3C JUMPI PUSH1 0x0 DUP1 REVERT JUMPDEST POP PUSH2 0xA7 JUMP JUMPDEST DUP3 DUP1 SLOAD DUP3 DUP3 SSTORE SWAP1 PUSH1 0x0 MSTORE PUSH1 0x20 PUSH1 0x0 KECCAK256 SWAP1 DUP2 ADD SWAP3 DUP3 ISZERO PUSH2 0x82 JUMPI SWAP2 PUSH1 0x20 MUL DUP3 ADD JUMPDEST DUP3 DUP2 GT ISZERO PUSH2 0x82 JUMPI DUP3 MLOAD DUP3 SWAP1 PUSH1 0xFF AND SWAP1 SSTORE SWAP2 PUSH1 0x20 ADD SWAP2 SWAP1 PUSH1 0x1 ADD SWAP1 PUSH2 0x62 JUMP JUMPDEST POP PUSH2 0x8E SWAP3 SWAP2 POP PUSH2 0x92 JUMP JUMPDEST POP SWAP1 JUMP JUMPDEST JUMPDEST DUP1 DUP3 GT ISZERO PUSH2 0x8E JUMPI PUSH1 0x0 DUP2 SSTORE PUSH1 0x1 ADD PUSH2 0x93 JUMP JUMPDEST PUSH1 0x8B DUP1 PUSH2 0xB5 PUSH1 0x0 CODECOPY PUSH1 0x0 RETURN INVALID PUSH1 0x80 PUSH1 0x40 MSTORE CALLVALUE DUP1 ISZERO PUSH1 0xF JUMPI PUSH1 0x0 DUP1 REVERT JUMPDEST POP PUSH1 0x4 CALLDATASIZE LT PUSH1 0x28 JUMPI PUSH1 0x0 CALLDATALOAD PUSH1 0xE0 SHR DUP1 PUSH4 0x4CC82215 EQ PUSH1 0x2D JUMPI JUMPDEST PUSH1 0x0 DUP1 REVERT JUMPDEST PUSH1 0x3B PUSH1 0x38 CALLDATASIZE PUSH1 0x4 PUSH1 0x3D JUMP JUMPDEST POP JUMP JUMPDEST STOP JUMPDEST PUSH1 0x0 PUSH1 0x20 DUP3 DUP5 SUB SLT ISZERO PUSH1 0x4E JUMPI PUSH1 0x0 DUP1 REVERT JUMPDEST POP CALLDATALOAD SWAP2 SWAP1 POP JUMP INVALID LOG2 PUSH5 0x6970667358 0x22 SLT KECCAK256 CALLDATALOAD CALLDATALOAD 0xF 0xB6 PUSH6 0xEE3FE86620EC EXTCODECOPY 0xB7 MSTORE SWAP16 SHR 0xC1 PUSH18 0xF098EF2F47360549E976CBB9019864736F6C PUSH4 0x43000810 STOP CALLER "
				},
				"gasEstimates": {
					"creation": {
						"codeDepositCost": "27800",
						"executionCost": "infinite",
						"totalCost": "infinite"
					},
					"external": {
						"remove(uint256)": "189"
					}
				},
				"methodIdentifiers": {
					"remove(uint256)": "4cc82215"
				}
			},
			"storageLayout": {
				"storage": [
					{
						"astId": 10,
						"contract": "Week5/Array1.sol:Array1",
						"label": "array",
						"offset": 0,
						"slot": "0",
						"type": "t_array(t_uint256)dyn_storage"
					}
				],
				"types": {
					"t_array(t_uint256)dyn_storage": {
						"base": "t_uint256",
						"encoding": "dynamic_array",
						"label": "uint256[]",
						"numberOfBytes": "32"
					},
					"t_uint256": {
						"encoding": "inplace",
						"label": "uint256",
						"numberOfBytes": "32"
					}
				}
			},
			"userdoc": {
				"kind": "user",
				"methods": {},
				"version": 1
			}
		}
	}
}