{
	"Week5/Caller.sol": {
		"Caller": {
			"abi": [
				{
					"inputs": [],
					"name": "CallFailed",
					"type": "error"
				},
				{
					"inputs": [
						{
							"internalType": "address",
							"name": "_to",
							"type": "address"
						},
						{
							"internalType": "uint256",
							"name": "a",
							"type": "uint256"
						},
						{
							"internalType": "uint256",
							"name": "b",
							"type": "uint256"
						}
					],
					"name": "call",
					"outputs": [
						{
							"internalType": "bytes",
							"name": "",
							"type": "bytes"
						}
					],
					"stateMutability": "nonpayable",
					"type": "function"
				},
				{
					"inputs": [
						{
							"internalType": "address",
							"name": "_to",
							"type": "address"
						},
						{
							"internalType": "uint256",
							"name": "a",
							"type": "uint256"
						},
						{
							"internalType": "uint256",
							"name": "b",
							"type": "uint256"
						}
					],
					"name": "delegatecall",
					"outputs": [
						{
							"internalType": "bytes",
							"name": "",
							"type": "bytes"
						}
					],
					"stateMutability": "nonpayable",
					"type": "function"
				}
			],
			"devdoc": {
				"kind": "dev",
				"methods": {},
				"version": 1
			},
			"evm": {
				"assembly": "    /* \"Week5/Caller.sol\":91:689  contract Caller {... */\n  mstore(0x40, 0x80)\n  callvalue\n  dup1\n  iszero\n  tag_1\n  jumpi\n  0x00\n  dup1\n  revert\ntag_1:\n  pop\n  dataSize(sub_0)\n  dup1\n  dataOffset(sub_0)\n  0x00\n  codecopy\n  0x00\n  return\nstop\n\nsub_0: assembly {\n        /* \"Week5/Caller.sol\":91:689  contract Caller {... */\n      mstore(0x40, 0x80)\n      callvalue\n      dup1\n      iszero\n      tag_1\n      jumpi\n      0x00\n      dup1\n      revert\n    tag_1:\n      pop\n      jumpi(tag_2, lt(calldatasize, 0x04))\n      shr(0xe0, calldataload(0x00))\n      dup1\n      0x5064d83a\n      eq\n      tag_3\n      jumpi\n      dup1\n      0x9126f99c\n      eq\n      tag_4\n      jumpi\n    tag_2:\n      0x00\n      dup1\n      revert\n        /* \"Week5/Caller.sol\":113:389  function call(address _to, uint a, uint b) external returns(bytes memory) {... */\n    tag_3:\n      tag_5\n      0x04\n      dup1\n      calldatasize\n      sub\n      dup2\n      add\n      swap1\n      tag_6\n      swap2\n      swap1\n      tag_7\n      jump\t// in\n    tag_6:\n      tag_8\n      jump\t// in\n    tag_5:\n      mload(0x40)\n      tag_9\n      swap2\n      swap1\n      tag_10\n      jump\t// in\n    tag_9:\n      mload(0x40)\n      dup1\n      swap2\n      sub\n      swap1\n      return\n        /* \"Week5/Caller.sol\":395:687  function delegatecall(address _to, uint a, uint b) external returns(bytes memory) {... */\n    tag_4:\n      tag_11\n      0x04\n      dup1\n      calldatasize\n      sub\n      dup2\n      add\n      swap1\n      tag_12\n      swap2\n      swap1\n      tag_7\n      jump\t// in\n    tag_12:\n      tag_13\n      jump\t// in\n    tag_11:\n      mload(0x40)\n      tag_14\n      swap2\n      swap1\n      tag_10\n      jump\t// in\n    tag_14:\n      mload(0x40)\n      dup1\n      swap2\n      sub\n      swap1\n      return\n        /* \"Week5/Caller.sol\":113:389  function call(address _to, uint a, uint b) external returns(bytes memory) {... */\n    tag_8:\n        /* \"Week5/Caller.sol\":173:185  bytes memory */\n      0x60\n        /* \"Week5/Caller.sol\":198:210  bool success */\n      0x00\n        /* \"Week5/Caller.sol\":212:229  bytes memory data */\n      dup1\n        /* \"Week5/Caller.sol\":233:236  _to */\n      dup6\n        /* \"Week5/Caller.sol\":233:241  _to.call */\n      0xffffffffffffffffffffffffffffffffffffffff\n      and\n        /* \"Week5/Caller.sol\":290:291  a */\n      dup6\n        /* \"Week5/Caller.sol\":293:294  b */\n      dup6\n        /* \"Week5/Caller.sol\":242:295  abi.encodeWithSignature(\"sum(uint256,uint256)\", a, b) */\n      add(0x24, mload(0x40))\n      tag_16\n      swap3\n      swap2\n      swap1\n      tag_17\n      jump\t// in\n    tag_16:\n      mload(0x40)\n      0x20\n      dup2\n      dup4\n      sub\n      sub\n      dup2\n      mstore\n      swap1\n      0x40\n      mstore\n      and(not(0xffffffffffffffffffffffffffffffffffffffffffffffffffffffff), 0xcad0899b00000000000000000000000000000000000000000000000000000000)\n      0x20\n      dup3\n      add\n      dup1\n      mload\n      0xffffffffffffffffffffffffffffffffffffffffffffffffffffffff\n      dup4\n      dup2\n      dup4\n      and\n      or\n      dup4\n      mstore\n      pop\n      pop\n      pop\n      pop\n        /* \"Week5/Caller.sol\":233:296  _to.call(abi.encodeWithSignature(\"sum(uint256,uint256)\", a, b)) */\n      mload(0x40)\n      tag_18\n      swap2\n      swap1\n      tag_19\n      jump\t// in\n    tag_18:\n      0x00\n      mload(0x40)\n      dup1\n      dup4\n      sub\n      dup2\n      0x00\n      dup7\n      gas\n      call\n      swap2\n      pop\n      pop\n      returndatasize\n      dup1\n      0x00\n      dup2\n      eq\n      tag_22\n      jumpi\n      mload(0x40)\n      swap2\n      pop\n      and(add(returndatasize, 0x3f), not(0x1f))\n      dup3\n      add\n      0x40\n      mstore\n      returndatasize\n      dup3\n      mstore\n      returndatasize\n      0x00\n      0x20\n      dup5\n      add\n      returndatacopy\n      jump(tag_21)\n    tag_22:\n      0x60\n      swap2\n      pop\n    tag_21:\n      pop\n        /* \"Week5/Caller.sol\":197:296  (bool success, bytes memory data) = _to.call(abi.encodeWithSignature(\"sum(uint256,uint256)\", a, b)) */\n      swap2\n      pop\n      swap2\n      pop\n        /* \"Week5/Caller.sol\":310:317  success */\n      dup2\n        /* \"Week5/Caller.sol\":306:362  if(!success){... */\n      tag_23\n      jumpi\n        /* \"Week5/Caller.sol\":339:351  CallFailed() */\n      mload(0x40)\n      0x3204506f00000000000000000000000000000000000000000000000000000000\n      dup2\n      mstore\n      0x04\n      add\n      mload(0x40)\n      dup1\n      swap2\n      sub\n      swap1\n      revert\n        /* \"Week5/Caller.sol\":306:362  if(!success){... */\n    tag_23:\n        /* \"Week5/Caller.sol\":378:382  data */\n      dup1\n        /* \"Week5/Caller.sol\":371:382  return data */\n      swap3\n      pop\n      pop\n      pop\n        /* \"Week5/Caller.sol\":113:389  function call(address _to, uint a, uint b) external returns(bytes memory) {... */\n      swap4\n      swap3\n      pop\n      pop\n      pop\n      jump\t// out\n        /* \"Week5/Caller.sol\":395:687  function delegatecall(address _to, uint a, uint b) external returns(bytes memory) {... */\n    tag_13:\n        /* \"Week5/Caller.sol\":463:475  bytes memory */\n      0x60\n        /* \"Week5/Caller.sol\":488:500  bool success */\n      0x00\n        /* \"Week5/Caller.sol\":502:519  bytes memory data */\n      dup1\n        /* \"Week5/Caller.sol\":523:526  _to */\n      dup6\n        /* \"Week5/Caller.sol\":523:539  _to.delegatecall */\n      0xffffffffffffffffffffffffffffffffffffffff\n      and\n        /* \"Week5/Caller.sol\":588:589  a */\n      dup6\n        /* \"Week5/Caller.sol\":591:592  b */\n      dup6\n        /* \"Week5/Caller.sol\":540:593  abi.encodeWithSignature(\"sum(uint256,uint256)\", a, b) */\n      add(0x24, mload(0x40))\n      tag_25\n      swap3\n      swap2\n      swap1\n      tag_17\n      jump\t// in\n    tag_25:\n      mload(0x40)\n      0x20\n      dup2\n      dup4\n      sub\n      sub\n      dup2\n      mstore\n      swap1\n      0x40\n      mstore\n      and(not(0xffffffffffffffffffffffffffffffffffffffffffffffffffffffff), 0xcad0899b00000000000000000000000000000000000000000000000000000000)\n      0x20\n      dup3\n      add\n      dup1\n      mload\n      0xffffffffffffffffffffffffffffffffffffffffffffffffffffffff\n      dup4\n      dup2\n      dup4\n      and\n      or\n      dup4\n      mstore\n      pop\n      pop\n      pop\n      pop\n        /* \"Week5/Caller.sol\":523:594  _to.delegatecall(abi.encodeWithSignature(\"sum(uint256,uint256)\", a, b)) */\n      mload(0x40)\n      tag_26\n      swap2\n      swap1\n      tag_19\n      jump\t// in\n    tag_26:\n      0x00\n      mload(0x40)\n      dup1\n      dup4\n      sub\n      dup2\n      dup6\n      gas\n      delegatecall\n      swap2\n      pop\n      pop\n      returndatasize\n      dup1\n      0x00\n      dup2\n      eq\n      tag_29\n      jumpi\n      mload(0x40)\n      swap2\n      pop\n      and(add(returndatasize, 0x3f), not(0x1f))\n      dup3\n      add\n      0x40\n      mstore\n      returndatasize\n      dup3\n      mstore\n      returndatasize\n      0x00\n      0x20\n      dup5\n      add\n      returndatacopy\n      jump(tag_28)\n    tag_29:\n      0x60\n      swap2\n      pop\n    tag_28:\n      pop\n        /* \"Week5/Caller.sol\":487:594  (bool success, bytes memory data) = _to.delegatecall(abi.encodeWithSignature(\"sum(uint256,uint256)\", a, b)) */\n      swap2\n      pop\n      swap2\n      pop\n        /* \"Week5/Caller.sol\":608:615  success */\n      dup2\n        /* \"Week5/Caller.sol\":604:660  if(!success){... */\n      tag_30\n      jumpi\n        /* \"Week5/Caller.sol\":637:649  CallFailed() */\n      mload(0x40)\n      0x3204506f00000000000000000000000000000000000000000000000000000000\n      dup2\n      mstore\n      0x04\n      add\n      mload(0x40)\n      dup1\n      swap2\n      sub\n      swap1\n      revert\n        /* \"Week5/Caller.sol\":604:660  if(!success){... */\n    tag_30:\n        /* \"Week5/Caller.sol\":676:680  data */\n      dup1\n        /* \"Week5/Caller.sol\":669:680  return data */\n      swap3\n      pop\n      pop\n      pop\n        /* \"Week5/Caller.sol\":395:687  function delegatecall(address _to, uint a, uint b) external returns(bytes memory) {... */\n      swap4\n      swap3\n      pop\n      pop\n      pop\n      jump\t// out\n        /* \"#utility.yul\":7:146   */\n    tag_32:\n        /* \"#utility.yul\":53:58   */\n      0x00\n        /* \"#utility.yul\":91:97   */\n      dup2\n        /* \"#utility.yul\":78:98   */\n      calldataload\n        /* \"#utility.yul\":69:98   */\n      swap1\n      pop\n        /* \"#utility.yul\":107:140   */\n      tag_34\n        /* \"#utility.yul\":134:139   */\n      dup2\n        /* \"#utility.yul\":107:140   */\n      tag_35\n      jump\t// in\n    tag_34:\n        /* \"#utility.yul\":7:146   */\n      swap3\n      swap2\n      pop\n      pop\n      jump\t// out\n        /* \"#utility.yul\":152:291   */\n    tag_36:\n        /* \"#utility.yul\":198:203   */\n      0x00\n        /* \"#utility.yul\":236:242   */\n      dup2\n        /* \"#utility.yul\":223:243   */\n      calldataload\n        /* \"#utility.yul\":214:243   */\n      swap1\n      pop\n        /* \"#utility.yul\":252:285   */\n      tag_38\n        /* \"#utility.yul\":279:284   */\n      dup2\n        /* \"#utility.yul\":252:285   */\n      tag_39\n      jump\t// in\n    tag_38:\n        /* \"#utility.yul\":152:291   */\n      swap3\n      swap2\n      pop\n      pop\n      jump\t// out\n        /* \"#utility.yul\":297:916   */\n    tag_7:\n        /* \"#utility.yul\":374:380   */\n      0x00\n        /* \"#utility.yul\":382:388   */\n      dup1\n        /* \"#utility.yul\":390:396   */\n      0x00\n        /* \"#utility.yul\":439:441   */\n      0x60\n        /* \"#utility.yul\":427:436   */\n      dup5\n        /* \"#utility.yul\":418:425   */\n      dup7\n        /* \"#utility.yul\":414:437   */\n      sub\n        /* \"#utility.yul\":410:442   */\n      slt\n        /* \"#utility.yul\":407:526   */\n      iszero\n      tag_41\n      jumpi\n        /* \"#utility.yul\":445:524   */\n      tag_42\n      tag_43\n      jump\t// in\n    tag_42:\n        /* \"#utility.yul\":407:526   */\n    tag_41:\n        /* \"#utility.yul\":565:566   */\n      0x00\n        /* \"#utility.yul\":590:643   */\n      tag_44\n        /* \"#utility.yul\":635:642   */\n      dup7\n        /* \"#utility.yul\":626:632   */\n      dup3\n        /* \"#utility.yul\":615:624   */\n      dup8\n        /* \"#utility.yul\":611:633   */\n      add\n        /* \"#utility.yul\":590:643   */\n      tag_32\n      jump\t// in\n    tag_44:\n        /* \"#utility.yul\":580:643   */\n      swap4\n      pop\n        /* \"#utility.yul\":536:653   */\n      pop\n        /* \"#utility.yul\":692:694   */\n      0x20\n        /* \"#utility.yul\":718:771   */\n      tag_45\n        /* \"#utility.yul\":763:770   */\n      dup7\n        /* \"#utility.yul\":754:760   */\n      dup3\n        /* \"#utility.yul\":743:752   */\n      dup8\n        /* \"#utility.yul\":739:761   */\n      add\n        /* \"#utility.yul\":718:771   */\n      tag_36\n      jump\t// in\n    tag_45:\n        /* \"#utility.yul\":708:771   */\n      swap3\n      pop\n        /* \"#utility.yul\":663:781   */\n      pop\n        /* \"#utility.yul\":820:822   */\n      0x40\n        /* \"#utility.yul\":846:899   */\n      tag_46\n        /* \"#utility.yul\":891:898   */\n      dup7\n        /* \"#utility.yul\":882:888   */\n      dup3\n        /* \"#utility.yul\":871:880   */\n      dup8\n        /* \"#utility.yul\":867:889   */\n      add\n        /* \"#utility.yul\":846:899   */\n      tag_36\n      jump\t// in\n    tag_46:\n        /* \"#utility.yul\":836:899   */\n      swap2\n      pop\n        /* \"#utility.yul\":791:909   */\n      pop\n        /* \"#utility.yul\":297:916   */\n      swap3\n      pop\n      swap3\n      pop\n      swap3\n      jump\t// out\n        /* \"#utility.yul\":922:1282   */\n    tag_47:\n        /* \"#utility.yul\":1008:1011   */\n      0x00\n        /* \"#utility.yul\":1036:1074   */\n      tag_49\n        /* \"#utility.yul\":1068:1073   */\n      dup3\n        /* \"#utility.yul\":1036:1074   */\n      tag_50\n      jump\t// in\n    tag_49:\n        /* \"#utility.yul\":1090:1160   */\n      tag_51\n        /* \"#utility.yul\":1153:1159   */\n      dup2\n        /* \"#utility.yul\":1148:1151   */\n      dup6\n        /* \"#utility.yul\":1090:1160   */\n      tag_52\n      jump\t// in\n    tag_51:\n        /* \"#utility.yul\":1083:1160   */\n      swap4\n      pop\n        /* \"#utility.yul\":1169:1221   */\n      tag_53\n        /* \"#utility.yul\":1214:1220   */\n      dup2\n        /* \"#utility.yul\":1209:1212   */\n      dup6\n        /* \"#utility.yul\":1202:1206   */\n      0x20\n        /* \"#utility.yul\":1195:1200   */\n      dup7\n        /* \"#utility.yul\":1191:1207   */\n      add\n        /* \"#utility.yul\":1169:1221   */\n      tag_54\n      jump\t// in\n    tag_53:\n        /* \"#utility.yul\":1246:1275   */\n      tag_55\n        /* \"#utility.yul\":1268:1274   */\n      dup2\n        /* \"#utility.yul\":1246:1275   */\n      tag_56\n      jump\t// in\n    tag_55:\n        /* \"#utility.yul\":1241:1244   */\n      dup5\n        /* \"#utility.yul\":1237:1276   */\n      add\n        /* \"#utility.yul\":1230:1276   */\n      swap2\n      pop\n        /* \"#utility.yul\":1012:1282   */\n      pop\n        /* \"#utility.yul\":922:1282   */\n      swap3\n      swap2\n      pop\n      pop\n      jump\t// out\n        /* \"#utility.yul\":1288:1661   */\n    tag_57:\n        /* \"#utility.yul\":1392:1395   */\n      0x00\n        /* \"#utility.yul\":1420:1458   */\n      tag_59\n        /* \"#utility.yul\":1452:1457   */\n      dup3\n        /* \"#utility.yul\":1420:1458   */\n      tag_50\n      jump\t// in\n    tag_59:\n        /* \"#utility.yul\":1474:1562   */\n      tag_60\n        /* \"#utility.yul\":1555:1561   */\n      dup2\n        /* \"#utility.yul\":1550:1553   */\n      dup6\n        /* \"#utility.yul\":1474:1562   */\n      tag_61\n      jump\t// in\n    tag_60:\n        /* \"#utility.yul\":1467:1562   */\n      swap4\n      pop\n        /* \"#utility.yul\":1571:1623   */\n      tag_62\n        /* \"#utility.yul\":1616:1622   */\n      dup2\n        /* \"#utility.yul\":1611:1614   */\n      dup6\n        /* \"#utility.yul\":1604:1608   */\n      0x20\n        /* \"#utility.yul\":1597:1602   */\n      dup7\n        /* \"#utility.yul\":1593:1609   */\n      add\n        /* \"#utility.yul\":1571:1623   */\n      tag_54\n      jump\t// in\n    tag_62:\n        /* \"#utility.yul\":1648:1654   */\n      dup1\n        /* \"#utility.yul\":1643:1646   */\n      dup5\n        /* \"#utility.yul\":1639:1655   */\n      add\n        /* \"#utility.yul\":1632:1655   */\n      swap2\n      pop\n        /* \"#utility.yul\":1396:1661   */\n      pop\n        /* \"#utility.yul\":1288:1661   */\n      swap3\n      swap2\n      pop\n      pop\n      jump\t// out\n        /* \"#utility.yul\":1667:1785   */\n    tag_63:\n        /* \"#utility.yul\":1754:1778   */\n      tag_65\n        /* \"#utility.yul\":1772:1777   */\n      dup2\n        /* \"#utility.yul\":1754:1778   */\n      tag_66\n      jump\t// in\n    tag_65:\n        /* \"#utility.yul\":1749:1752   */\n      dup3\n        /* \"#utility.yul\":1742:1779   */\n      mstore\n        /* \"#utility.yul\":1667:1785   */\n      pop\n      pop\n      jump\t// out\n        /* \"#utility.yul\":1791:2062   */\n    tag_19:\n        /* \"#utility.yul\":1921:1924   */\n      0x00\n        /* \"#utility.yul\":1943:2036   */\n      tag_68\n        /* \"#utility.yul\":2032:2035   */\n      dup3\n        /* \"#utility.yul\":2023:2029   */\n      dup5\n        /* \"#utility.yul\":1943:2036   */\n      tag_57\n      jump\t// in\n    tag_68:\n        /* \"#utility.yul\":1936:2036   */\n      swap2\n      pop\n        /* \"#utility.yul\":2053:2056   */\n      dup2\n        /* \"#utility.yul\":2046:2056   */\n      swap1\n      pop\n        /* \"#utility.yul\":1791:2062   */\n      swap3\n      swap2\n      pop\n      pop\n      jump\t// out\n        /* \"#utility.yul\":2068:2377   */\n    tag_10:\n        /* \"#utility.yul\":2179:2183   */\n      0x00\n        /* \"#utility.yul\":2217:2219   */\n      0x20\n        /* \"#utility.yul\":2206:2215   */\n      dup3\n        /* \"#utility.yul\":2202:2220   */\n      add\n        /* \"#utility.yul\":2194:2220   */\n      swap1\n      pop\n        /* \"#utility.yul\":2266:2275   */\n      dup2\n        /* \"#utility.yul\":2260:2264   */\n      dup2\n        /* \"#utility.yul\":2256:2276   */\n      sub\n        /* \"#utility.yul\":2252:2253   */\n      0x00\n        /* \"#utility.yul\":2241:2250   */\n      dup4\n        /* \"#utility.yul\":2237:2254   */\n      add\n        /* \"#utility.yul\":2230:2277   */\n      mstore\n        /* \"#utility.yul\":2294:2370   */\n      tag_70\n        /* \"#utility.yul\":2365:2369   */\n      dup2\n        /* \"#utility.yul\":2356:2362   */\n      dup5\n        /* \"#utility.yul\":2294:2370   */\n      tag_47\n      jump\t// in\n    tag_70:\n        /* \"#utility.yul\":2286:2370   */\n      swap1\n      pop\n        /* \"#utility.yul\":2068:2377   */\n      swap3\n      swap2\n      pop\n      pop\n      jump\t// out\n        /* \"#utility.yul\":2383:2715   */\n    tag_17:\n        /* \"#utility.yul\":2504:2508   */\n      0x00\n        /* \"#utility.yul\":2542:2544   */\n      0x40\n        /* \"#utility.yul\":2531:2540   */\n      dup3\n        /* \"#utility.yul\":2527:2545   */\n      add\n        /* \"#utility.yul\":2519:2545   */\n      swap1\n      pop\n        /* \"#utility.yul\":2555:2626   */\n      tag_72\n        /* \"#utility.yul\":2623:2624   */\n      0x00\n        /* \"#utility.yul\":2612:2621   */\n      dup4\n        /* \"#utility.yul\":2608:2625   */\n      add\n        /* \"#utility.yul\":2599:2605   */\n      dup6\n        /* \"#utility.yul\":2555:2626   */\n      tag_63\n      jump\t// in\n    tag_72:\n        /* \"#utility.yul\":2636:2708   */\n      tag_73\n        /* \"#utility.yul\":2704:2706   */\n      0x20\n        /* \"#utility.yul\":2693:2702   */\n      dup4\n        /* \"#utility.yul\":2689:2707   */\n      add\n        /* \"#utility.yul\":2680:2686   */\n      dup5\n        /* \"#utility.yul\":2636:2708   */\n      tag_63\n      jump\t// in\n    tag_73:\n        /* \"#utility.yul\":2383:2715   */\n      swap4\n      swap3\n      pop\n      pop\n      pop\n      jump\t// out\n        /* \"#utility.yul\":2802:2900   */\n    tag_50:\n        /* \"#utility.yul\":2853:2859   */\n      0x00\n        /* \"#utility.yul\":2887:2892   */\n      dup2\n        /* \"#utility.yul\":2881:2893   */\n      mload\n        /* \"#utility.yul\":2871:2893   */\n      swap1\n      pop\n        /* \"#utility.yul\":2802:2900   */\n      swap2\n      swap1\n      pop\n      jump\t// out\n        /* \"#utility.yul\":2906:3074   */\n    tag_52:\n        /* \"#utility.yul\":2989:3000   */\n      0x00\n        /* \"#utility.yul\":3023:3029   */\n      dup3\n        /* \"#utility.yul\":3018:3021   */\n      dup3\n        /* \"#utility.yul\":3011:3030   */\n      mstore\n        /* \"#utility.yul\":3063:3067   */\n      0x20\n        /* \"#utility.yul\":3058:3061   */\n      dup3\n        /* \"#utility.yul\":3054:3068   */\n      add\n        /* \"#utility.yul\":3039:3068   */\n      swap1\n      pop\n        /* \"#utility.yul\":2906:3074   */\n      swap3\n      swap2\n      pop\n      pop\n      jump\t// out\n        /* \"#utility.yul\":3080:3227   */\n    tag_61:\n        /* \"#utility.yul\":3181:3192   */\n      0x00\n        /* \"#utility.yul\":3218:3221   */\n      dup2\n        /* \"#utility.yul\":3203:3221   */\n      swap1\n      pop\n        /* \"#utility.yul\":3080:3227   */\n      swap3\n      swap2\n      pop\n      pop\n      jump\t// out\n        /* \"#utility.yul\":3233:3329   */\n    tag_79:\n        /* \"#utility.yul\":3270:3277   */\n      0x00\n        /* \"#utility.yul\":3299:3323   */\n      tag_81\n        /* \"#utility.yul\":3317:3322   */\n      dup3\n        /* \"#utility.yul\":3299:3323   */\n      tag_82\n      jump\t// in\n    tag_81:\n        /* \"#utility.yul\":3288:3323   */\n      swap1\n      pop\n        /* \"#utility.yul\":3233:3329   */\n      swap2\n      swap1\n      pop\n      jump\t// out\n        /* \"#utility.yul\":3335:3461   */\n    tag_82:\n        /* \"#utility.yul\":3372:3379   */\n      0x00\n        /* \"#utility.yul\":3412:3454   */\n      0xffffffffffffffffffffffffffffffffffffffff\n        /* \"#utility.yul\":3405:3410   */\n      dup3\n        /* \"#utility.yul\":3401:3455   */\n      and\n        /* \"#utility.yul\":3390:3455   */\n      swap1\n      pop\n        /* \"#utility.yul\":3335:3461   */\n      swap2\n      swap1\n      pop\n      jump\t// out\n        /* \"#utility.yul\":3467:3544   */\n    tag_66:\n        /* \"#utility.yul\":3504:3511   */\n      0x00\n        /* \"#utility.yul\":3533:3538   */\n      dup2\n        /* \"#utility.yul\":3522:3538   */\n      swap1\n      pop\n        /* \"#utility.yul\":3467:3544   */\n      swap2\n      swap1\n      pop\n      jump\t// out\n        /* \"#utility.yul\":3550:3857   */\n    tag_54:\n        /* \"#utility.yul\":3618:3619   */\n      0x00\n        /* \"#utility.yul\":3628:3741   */\n    tag_86:\n        /* \"#utility.yul\":3642:3648   */\n      dup4\n        /* \"#utility.yul\":3639:3640   */\n      dup2\n        /* \"#utility.yul\":3636:3649   */\n      lt\n        /* \"#utility.yul\":3628:3741   */\n      iszero\n      tag_88\n      jumpi\n        /* \"#utility.yul\":3727:3728   */\n      dup1\n        /* \"#utility.yul\":3722:3725   */\n      dup3\n        /* \"#utility.yul\":3718:3729   */\n      add\n        /* \"#utility.yul\":3712:3730   */\n      mload\n        /* \"#utility.yul\":3708:3709   */\n      dup2\n        /* \"#utility.yul\":3703:3706   */\n      dup5\n        /* \"#utility.yul\":3699:3710   */\n      add\n        /* \"#utility.yul\":3692:3731   */\n      mstore\n        /* \"#utility.yul\":3664:3666   */\n      0x20\n        /* \"#utility.yul\":3661:3662   */\n      dup2\n        /* \"#utility.yul\":3657:3667   */\n      add\n        /* \"#utility.yul\":3652:3667   */\n      swap1\n      pop\n        /* \"#utility.yul\":3628:3741   */\n      jump(tag_86)\n    tag_88:\n        /* \"#utility.yul\":3759:3765   */\n      dup4\n        /* \"#utility.yul\":3756:3757   */\n      dup2\n        /* \"#utility.yul\":3753:3766   */\n      gt\n        /* \"#utility.yul\":3750:3851   */\n      iszero\n      tag_89\n      jumpi\n        /* \"#utility.yul\":3839:3840   */\n      0x00\n        /* \"#utility.yul\":3830:3836   */\n      dup5\n        /* \"#utility.yul\":3825:3828   */\n      dup5\n        /* \"#utility.yul\":3821:3837   */\n      add\n        /* \"#utility.yul\":3814:3841   */\n      mstore\n        /* \"#utility.yul\":3750:3851   */\n    tag_89:\n        /* \"#utility.yul\":3599:3857   */\n      pop\n        /* \"#utility.yul\":3550:3857   */\n      pop\n      pop\n      pop\n      jump\t// out\n        /* \"#utility.yul\":3986:4103   */\n    tag_43:\n        /* \"#utility.yul\":4095:4096   */\n      0x00\n        /* \"#utility.yul\":4092:4093   */\n      dup1\n        /* \"#utility.yul\":4085:4097   */\n      revert\n        /* \"#utility.yul\":4109:4211   */\n    tag_56:\n        /* \"#utility.yul\":4150:4156   */\n      0x00\n        /* \"#utility.yul\":4201:4203   */\n      0x1f\n        /* \"#utility.yul\":4197:4204   */\n      not\n        /* \"#utility.yul\":4192:4194   */\n      0x1f\n        /* \"#utility.yul\":4185:4190   */\n      dup4\n        /* \"#utility.yul\":4181:4195   */\n      add\n        /* \"#utility.yul\":4177:4205   */\n      and\n        /* \"#utility.yul\":4167:4205   */\n      swap1\n      pop\n        /* \"#utility.yul\":4109:4211   */\n      swap2\n      swap1\n      pop\n      jump\t// out\n        /* \"#utility.yul\":4217:4339   */\n    tag_35:\n        /* \"#utility.yul\":4290:4314   */\n      tag_95\n        /* \"#utility.yul\":4308:4313   */\n      dup2\n        /* \"#utility.yul\":4290:4314   */\n      tag_79\n      jump\t// in\n    tag_95:\n        /* \"#utility.yul\":4283:4288   */\n      dup2\n        /* \"#utility.yul\":4280:4315   */\n      eq\n        /* \"#utility.yul\":4270:4333   */\n      tag_96\n      jumpi\n        /* \"#utility.yul\":4329:4330   */\n      0x00\n        /* \"#utility.yul\":4326:4327   */\n      dup1\n        /* \"#utility.yul\":4319:4331   */\n      revert\n        /* \"#utility.yul\":4270:4333   */\n    tag_96:\n        /* \"#utility.yul\":4217:4339   */\n      pop\n      jump\t// out\n        /* \"#utility.yul\":4345:4467   */\n    tag_39:\n        /* \"#utility.yul\":4418:4442   */\n      tag_98\n        /* \"#utility.yul\":4436:4441   */\n      dup2\n        /* \"#utility.yul\":4418:4442   */\n      tag_66\n      jump\t// in\n    tag_98:\n        /* \"#utility.yul\":4411:4416   */\n      dup2\n        /* \"#utility.yul\":4408:4443   */\n      eq\n        /* \"#utility.yul\":4398:4461   */\n      tag_99\n      jumpi\n        /* \"#utility.yul\":4457:4458   */\n      0x00\n        /* \"#utility.yul\":4454:4455   */\n      dup1\n        /* \"#utility.yul\":4447:4459   */\n      revert\n        /* \"#utility.yul\":4398:4461   */\n    tag_99:\n        /* \"#utility.yul\":4345:4467   */\n      pop\n      jump\t// out\n\n    auxdata: 0xa2646970667358221220397d62cd431af82826920971a91e234114aa770aaaf65a3da10a11b36717132c64736f6c63430008070033\n}\n",
				"bytecode": {
					"linkReferences": {},
					"object": "608060405234801561001057600080fd5b50610587806100206000396000f3fe608060405234801561001057600080fd5b50600436106100365760003560e01c80635064d83a1461003b5780639126f99c1461006b575b600080fd5b61005560048036038101906100509190610349565b61009b565b604051610062919061042c565b60405180910390f35b61008560048036038101906100809190610349565b6101de565b604051610092919061042c565b60405180910390f35b60606000808573ffffffffffffffffffffffffffffffffffffffff1685856040516024016100ca92919061044e565b6040516020818303038152906040527fcad0899b000000000000000000000000000000000000000000000000000000007bffffffffffffffffffffffffffffffffffffffffffffffffffffffff19166020820180517bffffffffffffffffffffffffffffffffffffffffffffffffffffffff83818316178352505050506040516101549190610415565b6000604051808303816000865af19150503d8060008114610191576040519150601f19603f3d011682016040523d82523d6000602084013e610196565b606091505b5091509150816101d2576040517f3204506f00000000000000000000000000000000000000000000000000000000815260040160405180910390fd5b80925050509392505050565b60606000808573ffffffffffffffffffffffffffffffffffffffff16858560405160240161020d92919061044e565b6040516020818303038152906040527fcad0899b000000000000000000000000000000000000000000000000000000007bffffffffffffffffffffffffffffffffffffffffffffffffffffffff19166020820180517bffffffffffffffffffffffffffffffffffffffffffffffffffffffff83818316178352505050506040516102979190610415565b600060405180830381855af49150503d80600081146102d2576040519150601f19603f3d011682016040523d82523d6000602084013e6102d7565b606091505b509150915081610313576040517f3204506f00000000000000000000000000000000000000000000000000000000815260040160405180910390fd5b80925050509392505050565b60008135905061032e81610523565b92915050565b6000813590506103438161053a565b92915050565b6000806000606084860312156103625761036161050d565b5b60006103708682870161031f565b935050602061038186828701610334565b925050604061039286828701610334565b9150509250925092565b60006103a782610477565b6103b18185610482565b93506103c18185602086016104da565b6103ca81610512565b840191505092915050565b60006103e082610477565b6103ea8185610493565b93506103fa8185602086016104da565b80840191505092915050565b61040f816104d0565b82525050565b600061042182846103d5565b915081905092915050565b60006020820190508181036000830152610446818461039c565b905092915050565b60006040820190506104636000830185610406565b6104706020830184610406565b9392505050565b600081519050919050565b600082825260208201905092915050565b600081905092915050565b60006104a9826104b0565b9050919050565b600073ffffffffffffffffffffffffffffffffffffffff82169050919050565b6000819050919050565b60005b838110156104f85780820151818401526020810190506104dd565b83811115610507576000848401525b50505050565b600080fd5b6000601f19601f8301169050919050565b61052c8161049e565b811461053757600080fd5b50565b610543816104d0565b811461054e57600080fd5b5056fea2646970667358221220397d62cd431af82826920971a91e234114aa770aaaf65a3da10a11b36717132c64736f6c63430008070033",
					"opcodes": "PUSH1 0x80 PUSH1 0x40 MSTORE CALLVALUE DUP1 ISZERO PUSH2 0x10 JUMPI PUSH1 0x0 DUP1 REVERT JUMPDEST POP PUSH2 0x587 DUP1 PUSH2 0x20 PUSH1 0x0 CODECOPY PUSH1 0x0 RETURN INVALID PUSH1 0x80 PUSH1 0x40 MSTORE CALLVALUE DUP1 ISZERO PUSH2 0x10 JUMPI PUSH1 0x0 DUP1 REVERT JUMPDEST POP PUSH1 0x4 CALLDATASIZE LT PUSH2 0x36 JUMPI PUSH1 0x0 CALLDATALOAD PUSH1 0xE0 SHR DUP1 PUSH4 0x5064D83A EQ PUSH2 0x3B JUMPI DUP1 PUSH4 0x9126F99C EQ PUSH2 0x6B JUMPI JUMPDEST PUSH1 0x0 DUP1 REVERT JUMPDEST PUSH2 0x55 PUSH1 0x4 DUP1 CALLDATASIZE SUB DUP2 ADD SWAP1 PUSH2 0x50 SWAP2 SWAP1 PUSH2 0x349 JUMP JUMPDEST PUSH2 0x9B JUMP JUMPDEST PUSH1 0x40 MLOAD PUSH2 0x62 SWAP2 SWAP1 PUSH2 0x42C JUMP JUMPDEST PUSH1 0x40 MLOAD DUP1 SWAP2 SUB SWAP1 RETURN JUMPDEST PUSH2 0x85 PUSH1 0x4 DUP1 CALLDATASIZE SUB DUP2 ADD SWAP1 PUSH2 0x80 SWAP2 SWAP1 PUSH2 0x349 JUMP JUMPDEST PUSH2 0x1DE JUMP JUMPDEST PUSH1 0x40 MLOAD PUSH2 0x92 SWAP2 SWAP1 PUSH2 0x42C JUMP JUMPDEST PUSH1 0x40 MLOAD DUP1 SWAP2 SUB SWAP1 RETURN JUMPDEST PUSH1 0x60 PUSH1 0x0 DUP1 DUP6 PUSH20 0xFFFFFFFFFFFFFFFFFFFFFFFFFFFFFFFFFFFFFFFF AND DUP6 DUP6 PUSH1 0x40 MLOAD PUSH1 0x24 ADD PUSH2 0xCA SWAP3 SWAP2 SWAP1 PUSH2 0x44E JUMP JUMPDEST PUSH1 0x40 MLOAD PUSH1 0x20 DUP2 DUP4 SUB SUB DUP2 MSTORE SWAP1 PUSH1 0x40 MSTORE PUSH32 0xCAD0899B00000000000000000000000000000000000000000000000000000000 PUSH28 0xFFFFFFFFFFFFFFFFFFFFFFFFFFFFFFFFFFFFFFFFFFFFFFFFFFFFFFFF NOT AND PUSH1 0x20 DUP3 ADD DUP1 MLOAD PUSH28 0xFFFFFFFFFFFFFFFFFFFFFFFFFFFFFFFFFFFFFFFFFFFFFFFFFFFFFFFF DUP4 DUP2 DUP4 AND OR DUP4 MSTORE POP POP POP POP PUSH1 0x40 MLOAD PUSH2 0x154 SWAP2 SWAP1 PUSH2 0x415 JUMP JUMPDEST PUSH1 0x0 PUSH1 0x40 MLOAD DUP1 DUP4 SUB DUP2 PUSH1 0x0 DUP7 GAS CALL SWAP2 POP POP RETURNDATASIZE DUP1 PUSH1 0x0 DUP2 EQ PUSH2 0x191 JUMPI PUSH1 0x40 MLOAD SWAP2 POP PUSH1 0x1F NOT PUSH1 0x3F RETURNDATASIZE ADD AND DUP3 ADD PUSH1 0x40 MSTORE RETURNDATASIZE DUP3 MSTORE RETURNDATASIZE PUSH1 0x0 PUSH1 0x20 DUP5 ADD RETURNDATACOPY PUSH2 0x196 JUMP JUMPDEST PUSH1 0x60 SWAP2 POP JUMPDEST POP SWAP2 POP SWAP2 POP DUP2 PUSH2 0x1D2 JUMPI PUSH1 0x40 MLOAD PUSH32 0x3204506F00000000000000000000000000000000000000000000000000000000 DUP2 MSTORE PUSH1 0x4 ADD PUSH1 0x40 MLOAD DUP1 SWAP2 SUB SWAP1 REVERT JUMPDEST DUP1 SWAP3 POP POP POP SWAP4 SWAP3 POP POP POP JUMP JUMPDEST PUSH1 0x60 PUSH1 0x0 DUP1 DUP6 PUSH20 0xFFFFFFFFFFFFFFFFFFFFFFFFFFFFFFFFFFFFFFFF AND DUP6 DUP6 PUSH1 0x40 MLOAD PUSH1 0x24 ADD PUSH2 0x20D SWAP3 SWAP2 SWAP1 PUSH2 0x44E JUMP JUMPDEST PUSH1 0x40 MLOAD PUSH1 0x20 DUP2 DUP4 SUB SUB DUP2 MSTORE SWAP1 PUSH1 0x40 MSTORE PUSH32 0xCAD0899B00000000000000000000000000000000000000000000000000000000 PUSH28 0xFFFFFFFFFFFFFFFFFFFFFFFFFFFFFFFFFFFFFFFFFFFFFFFFFFFFFFFF NOT AND PUSH1 0x20 DUP3 ADD DUP1 MLOAD PUSH28 0xFFFFFFFFFFFFFFFFFFFFFFFFFFFFFFFFFFFFFFFFFFFFFFFFFFFFFFFF DUP4 DUP2 DUP4 AND OR DUP4 MSTORE POP POP POP POP PUSH1 0x40 MLOAD PUSH2 0x297 SWAP2 SWAP1 PUSH2 0x415 JUMP JUMPDEST PUSH1 0x0 PUSH1 0x40 MLOAD DUP1 DUP4 SUB DUP2 DUP6 GAS DELEGATECALL SWAP2 POP POP RETURNDATASIZE DUP1 PUSH1 0x0 DUP2 EQ PUSH2 0x2D2 JUMPI PUSH1 0x40 MLOAD SWAP2 POP PUSH1 0x1F NOT PUSH1 0x3F RETURNDATASIZE ADD AND DUP3 ADD PUSH1 0x40 MSTORE RETURNDATASIZE DUP3 MSTORE RETURNDATASIZE PUSH1 0x0 PUSH1 0x20 DUP5 ADD RETURNDATACOPY PUSH2 0x2D7 JUMP JUMPDEST PUSH1 0x60 SWAP2 POP JUMPDEST POP SWAP2 POP SWAP2 POP DUP2 PUSH2 0x313 JUMPI PUSH1 0x40 MLOAD PUSH32 0x3204506F00000000000000000000000000000000000000000000000000000000 DUP2 MSTORE PUSH1 0x4 ADD PUSH1 0x40 MLOAD DUP1 SWAP2 SUB SWAP1 REVERT JUMPDEST DUP1 SWAP3 POP POP POP SWAP4 SWAP3 POP POP POP JUMP JUMPDEST PUSH1 0x0 DUP2 CALLDATALOAD SWAP1 POP PUSH2 0x32E DUP2 PUSH2 0x523 JUMP JUMPDEST SWAP3 SWAP2 POP POP JUMP JUMPDEST PUSH1 0x0 DUP2 CALLDATALOAD SWAP1 POP PUSH2 0x343 DUP2 PUSH2 0x53A JUMP JUMPDEST SWAP3 SWAP2 POP POP JUMP JUMPDEST PUSH1 0x0 DUP1 PUSH1 0x0 PUSH1 0x60 DUP5 DUP7 SUB SLT ISZERO PUSH2 0x362 JUMPI PUSH2 0x361 PUSH2 0x50D JUMP JUMPDEST JUMPDEST PUSH1 0x0 PUSH2 0x370 DUP7 DUP3 DUP8 ADD PUSH2 0x31F JUMP JUMPDEST SWAP4 POP POP PUSH1 0x20 PUSH2 0x381 DUP7 DUP3 DUP8 ADD PUSH2 0x334 JUMP JUMPDEST SWAP3 POP POP PUSH1 0x40 PUSH2 0x392 DUP7 DUP3 DUP8 ADD PUSH2 0x334 JUMP JUMPDEST SWAP2 POP POP SWAP3 POP SWAP3 POP SWAP3 JUMP JUMPDEST PUSH1 0x0 PUSH2 0x3A7 DUP3 PUSH2 0x477 JUMP JUMPDEST PUSH2 0x3B1 DUP2 DUP6 PUSH2 0x482 JUMP JUMPDEST SWAP4 POP PUSH2 0x3C1 DUP2 DUP6 PUSH1 0x20 DUP7 ADD PUSH2 0x4DA JUMP JUMPDEST PUSH2 0x3CA DUP2 PUSH2 0x512 JUMP JUMPDEST DUP5 ADD SWAP2 POP POP SWAP3 SWAP2 POP POP JUMP JUMPDEST PUSH1 0x0 PUSH2 0x3E0 DUP3 PUSH2 0x477 JUMP JUMPDEST PUSH2 0x3EA DUP2 DUP6 PUSH2 0x493 JUMP JUMPDEST SWAP4 POP PUSH2 0x3FA DUP2 DUP6 PUSH1 0x20 DUP7 ADD PUSH2 0x4DA JUMP JUMPDEST DUP1 DUP5 ADD SWAP2 POP POP SWAP3 SWAP2 POP POP JUMP JUMPDEST PUSH2 0x40F DUP2 PUSH2 0x4D0 JUMP JUMPDEST DUP3 MSTORE POP POP JUMP JUMPDEST PUSH1 0x0 PUSH2 0x421 DUP3 DUP5 PUSH2 0x3D5 JUMP JUMPDEST SWAP2 POP DUP2 SWAP1 POP SWAP3 SWAP2 POP POP JUMP JUMPDEST PUSH1 0x0 PUSH1 0x20 DUP3 ADD SWAP1 POP DUP2 DUP2 SUB PUSH1 0x0 DUP4 ADD MSTORE PUSH2 0x446 DUP2 DUP5 PUSH2 0x39C JUMP JUMPDEST SWAP1 POP SWAP3 SWAP2 POP POP JUMP JUMPDEST PUSH1 0x0 PUSH1 0x40 DUP3 ADD SWAP1 POP PUSH2 0x463 PUSH1 0x0 DUP4 ADD DUP6 PUSH2 0x406 JUMP JUMPDEST PUSH2 0x470 PUSH1 0x20 DUP4 ADD DUP5 PUSH2 0x406 JUMP JUMPDEST SWAP4 SWAP3 POP POP POP JUMP JUMPDEST PUSH1 0x0 DUP2 MLOAD SWAP1 POP SWAP2 SWAP1 POP JUMP JUMPDEST PUSH1 0x0 DUP3 DUP3 MSTORE PUSH1 0x20 DUP3 ADD SWAP1 POP SWAP3 SWAP2 POP POP JUMP JUMPDEST PUSH1 0x0 DUP2 SWAP1 POP SWAP3 SWAP2 POP POP JUMP JUMPDEST PUSH1 0x0 PUSH2 0x4A9 DUP3 PUSH2 0x4B0 JUMP JUMPDEST SWAP1 POP SWAP2 SWAP1 POP JUMP JUMPDEST PUSH1 0x0 PUSH20 0xFFFFFFFFFFFFFFFFFFFFFFFFFFFFFFFFFFFFFFFF DUP3 AND SWAP1 POP SWAP2 SWAP1 POP JUMP JUMPDEST PUSH1 0x0 DUP2 SWAP1 POP SWAP2 SWAP1 POP JUMP JUMPDEST PUSH1 0x0 JUMPDEST DUP4 DUP2 LT ISZERO PUSH2 0x4F8 JUMPI DUP1 DUP3 ADD MLOAD DUP2 DUP5 ADD MSTORE PUSH1 0x20 DUP2 ADD SWAP1 POP PUSH2 0x4DD JUMP JUMPDEST DUP4 DUP2 GT ISZERO PUSH2 0x507 JUMPI PUSH1 0x0 DUP5 DUP5 ADD MSTORE JUMPDEST POP POP POP POP JUMP JUMPDEST PUSH1 0x0 DUP1 REVERT JUMPDEST PUSH1 0x0 PUSH1 0x1F NOT PUSH1 0x1F DUP4 ADD AND SWAP1 POP SWAP2 SWAP1 POP JUMP JUMPDEST PUSH2 0x52C DUP2 PUSH2 0x49E JUMP JUMPDEST DUP2 EQ PUSH2 0x537 JUMPI PUSH1 0x0 DUP1 REVERT JUMPDEST POP JUMP JUMPDEST PUSH2 0x543 DUP2 PUSH2 0x4D0 JUMP JUMPDEST DUP2 EQ PUSH2 0x54E JUMPI PUSH1 0x0 DUP1 REVERT JUMPDEST POP JUMP INVALID LOG2 PUSH5 0x6970667358 0x22 SLT KECCAK256 CODECOPY PUSH30 0x62CD431AF82826920971A91E234114AA770AAAF65A3DA10A11B36717132C PUSH5 0x736F6C6343 STOP ADDMOD SMOD STOP CALLER "
				},
				"gasEstimates": {
					"creation": {
						"codeDepositCost": "283000",
						"executionCost": "324",
						"totalCost": "283324"
					},
					"external": {
						"call(address,uint256,uint256)": "infinite",
						"delegatecall(address,uint256,uint256)": "infinite"
					}
				},
				"methodIdentifiers": {
					"call(address,uint256,uint256)": "5064d83a",
					"delegatecall(address,uint256,uint256)": "9126f99c"
				}
			},
			"storageLayout": {
				"storage": [],
				"types": null
			},
			"userdoc": {
				"kind": "user",
				"methods": {},
				"version": 1
			}
		}
	}
}