{
	"Week5/Array1.sol": {
		"Array1": {
			"abi": [
				{
					"inputs": [
						{
							"internalType": "uint256",
							"name": "_index",
							"type": "uint256"
						}
					],
					"name": "remove",
					"outputs": [],
					"stateMutability": "nonpayable",
					"type": "function"
				}
			],
			"devdoc": {
				"kind": "dev",
				"methods": {},
				"version": 1
			},
			"evm": {
				"assembly": "    /* \"Week5/Array1.sol\":92:122  uint[] array = [1, 2, 3, 4, 5] */\n  0x0120\n    /* \"Week5/Array1.sol\":70:341  contract Array1 {... */\n  0x40\n    /* \"Week5/Array1.sol\":92:122  uint[] array = [1, 2, 3, 4, 5] */\n  mstore\n    /* \"Week5/Array1.sol\":108:109  1 */\n  0x01\n    /* \"Week5/Array1.sol\":70:341  contract Array1 {... */\n  0x80\n    /* \"Week5/Array1.sol\":92:122  uint[] array = [1, 2, 3, 4, 5] */\n  swap1\n  dup2\n  mstore\n    /* \"Week5/Array1.sol\":111:112  2 */\n  0x02\n    /* \"Week5/Array1.sol\":92:122  uint[] array = [1, 2, 3, 4, 5] */\n  0xa0\n  mstore\n    /* \"Week5/Array1.sol\":114:115  3 */\n  0x03\n    /* \"Week5/Array1.sol\":92:122  uint[] array = [1, 2, 3, 4, 5] */\n  0xc0\n  mstore\n    /* \"Week5/Array1.sol\":117:118  4 */\n  0x04\n    /* \"Week5/Array1.sol\":92:122  uint[] array = [1, 2, 3, 4, 5] */\n  0xe0\n  mstore\n    /* \"Week5/Array1.sol\":120:121  5 */\n  0x05\n    /* \"Week5/Array1.sol\":92:122  uint[] array = [1, 2, 3, 4, 5] */\n  0x0100\n  dup2\n  swap1\n  mstore\n  tag_1\n  swap2\n  0x00\n  swap2\n  tag_2\n  jump\t// in\ntag_1:\n  pop\n    /* \"Week5/Array1.sol\":70:341  contract Array1 {... */\n  callvalue\n  dup1\n  iszero\n  tag_3\n  jumpi\n  0x00\n  dup1\n  revert\ntag_3:\n  pop\n  jump(tag_4)\ntag_2:\n  dup3\n  dup1\n  sload\n  dup3\n  dup3\n  sstore\n  swap1\n  0x00\n  mstore\n  keccak256(0x00, 0x20)\n  swap1\n  dup2\n  add\n  swap3\n  dup3\n  iszero\n  tag_7\n  jumpi\n  swap2\n  0x20\n  mul\n  dup3\n  add\ntag_6:\n  dup3\n  dup2\n  gt\n  iszero\n  tag_7\n  jumpi\n  dup3\n  mload\n  dup3\n  swap1\n  0xff\n  and\n  swap1\n  sstore\n  swap2\n  0x20\n  add\n  swap2\n  swap1\n  0x01\n  add\n  swap1\n  jump(tag_6)\ntag_7:\n  pop\n  tag_8\n  swap3\n  swap2\n  pop\n  tag_9\n  jump\t// in\ntag_8:\n  pop\n  swap1\n  jump\t// out\ntag_9:\ntag_10:\n  dup1\n  dup3\n  gt\n  iszero\n  tag_8\n  jumpi\n  0x00\n  dup2\n  sstore\n  0x01\n  add\n  jump(tag_10)\ntag_4:\n  dataSize(sub_0)\n  dup1\n  dataOffset(sub_0)\n  0x00\n  codecopy\n  0x00\n  return\nstop\n\nsub_0: assembly {\n        /* \"Week5/Array1.sol\":70:341  contract Array1 {... */\n      mstore(0x40, 0x80)\n      callvalue\n      dup1\n      iszero\n      tag_1\n      jumpi\n      0x00\n      dup1\n      revert\n    tag_1:\n      pop\n      jumpi(tag_2, lt(calldatasize, 0x04))\n      shr(0xe0, calldataload(0x00))\n      dup1\n      0x4cc82215\n      eq\n      tag_3\n      jumpi\n    tag_2:\n      0x00\n      dup1\n      revert\n        /* \"Week5/Array1.sol\":129:339  function remove(uint _index) external {... */\n    tag_3:\n      tag_4\n      tag_5\n      calldatasize\n      0x04\n      tag_6\n      jump\t// in\n    tag_5:\n      tag_7\n      jump\t// in\n    tag_4:\n      stop\n    tag_7:\n        /* \"Week5/Array1.sol\":194:199  array */\n      0x00\n        /* \"Week5/Array1.sol\":194:206  array.length */\n      sload\n        /* \"Week5/Array1.sol\":185:206  _index < array.length */\n      dup2\n      lt\n        /* \"Week5/Array1.sol\":177:207  require(_index < array.length) */\n      tag_9\n      jumpi\n      0x00\n      dup1\n      revert\n    tag_9:\n        /* \"Week5/Array1.sol\":231:237  _index */\n      dup1\n        /* \"Week5/Array1.sol\":217:312  for (uint i = _index; i < array.length - 1; i++) {... */\n    tag_10:\n        /* \"Week5/Array1.sol\":243:248  array */\n      0x00\n        /* \"Week5/Array1.sol\":243:255  array.length */\n      sload\n        /* \"Week5/Array1.sol\":243:259  array.length - 1 */\n      tag_13\n      swap1\n        /* \"Week5/Array1.sol\":258:259  1 */\n      0x01\n      swap1\n        /* \"Week5/Array1.sol\":243:259  array.length - 1 */\n      tag_14\n      jump\t// in\n    tag_13:\n        /* \"Week5/Array1.sol\":239:240  i */\n      dup2\n        /* \"Week5/Array1.sol\":239:259  i < array.length - 1 */\n      lt\n        /* \"Week5/Array1.sol\":217:312  for (uint i = _index; i < array.length - 1; i++) {... */\n      iszero\n      tag_11\n      jumpi\n        /* \"Week5/Array1.sol\":291:296  array */\n      0x00\n        /* \"Week5/Array1.sol\":297:300  i+1 */\n      tag_15\n        /* \"Week5/Array1.sol\":297:298  i */\n      dup3\n        /* \"Week5/Array1.sol\":299:300  1 */\n      0x01\n        /* \"Week5/Array1.sol\":297:300  i+1 */\n      tag_16\n      jump\t// in\n    tag_15:\n        /* \"Week5/Array1.sol\":291:301  array[i+1] */\n      dup2\n      sload\n      dup2\n      lt\n      tag_18\n      jumpi\n      tag_18\n      tag_19\n      jump\t// in\n    tag_18:\n      swap1\n      0x00\n      mstore\n      keccak256(0x00, 0x20)\n      add\n      sload\n        /* \"Week5/Array1.sol\":280:285  array */\n      0x00\n        /* \"Week5/Array1.sol\":286:287  i */\n      dup3\n        /* \"Week5/Array1.sol\":280:288  array[i] */\n      dup2\n      sload\n      dup2\n      lt\n      tag_22\n      jumpi\n      tag_22\n      tag_19\n      jump\t// in\n    tag_22:\n      0x00\n      swap2\n      dup3\n      mstore\n      0x20\n      swap1\n      swap2\n      keccak256\n      add\n        /* \"Week5/Array1.sol\":280:301  array[i] = array[i+1] */\n      sstore\n        /* \"Week5/Array1.sol\":261:264  i++ */\n      dup1\n      tag_24\n      dup2\n      tag_25\n      jump\t// in\n    tag_24:\n      swap2\n      pop\n      pop\n        /* \"Week5/Array1.sol\":217:312  for (uint i = _index; i < array.length - 1; i++) {... */\n      jump(tag_10)\n    tag_11:\n      pop\n        /* \"Week5/Array1.sol\":321:326  array */\n      0x00\n        /* \"Week5/Array1.sol\":321:332  array.pop() */\n      dup1\n      sload\n      dup1\n      tag_27\n      jumpi\n      tag_27\n      tag_28\n      jump\t// in\n    tag_27:\n      0x01\n      swap1\n      sub\n      dup2\n      dup2\n      swap1\n      0x00\n      mstore\n      keccak256(0x00, 0x20)\n      add\n      0x00\n      swap1\n      sstore\n      swap1\n      sstore\n        /* \"Week5/Array1.sol\":129:339  function remove(uint _index) external {... */\n      pop\n      jump\t// out\n        /* \"#utility.yul\":14:194   */\n    tag_6:\n        /* \"#utility.yul\":73:79   */\n      0x00\n        /* \"#utility.yul\":126:128   */\n      0x20\n        /* \"#utility.yul\":114:123   */\n      dup3\n        /* \"#utility.yul\":105:112   */\n      dup5\n        /* \"#utility.yul\":101:124   */\n      sub\n        /* \"#utility.yul\":97:129   */\n      slt\n        /* \"#utility.yul\":94:146   */\n      iszero\n      tag_33\n      jumpi\n        /* \"#utility.yul\":142:143   */\n      0x00\n        /* \"#utility.yul\":139:140   */\n      dup1\n        /* \"#utility.yul\":132:144   */\n      revert\n        /* \"#utility.yul\":94:146   */\n    tag_33:\n      pop\n        /* \"#utility.yul\":165:188   */\n      calldataload\n      swap2\n        /* \"#utility.yul\":14:194   */\n      swap1\n      pop\n      jump\t// out\n        /* \"#utility.yul\":199:326   */\n    tag_30:\n        /* \"#utility.yul\":260:270   */\n      0x4e487b71\n        /* \"#utility.yul\":255:258   */\n      0xe0\n        /* \"#utility.yul\":251:271   */\n      shl\n        /* \"#utility.yul\":248:249   */\n      0x00\n        /* \"#utility.yul\":241:272   */\n      mstore\n        /* \"#utility.yul\":291:295   */\n      0x11\n        /* \"#utility.yul\":288:289   */\n      0x04\n        /* \"#utility.yul\":281:296   */\n      mstore\n        /* \"#utility.yul\":315:319   */\n      0x24\n        /* \"#utility.yul\":312:313   */\n      0x00\n        /* \"#utility.yul\":305:320   */\n      revert\n        /* \"#utility.yul\":331:459   */\n    tag_14:\n        /* \"#utility.yul\":398:407   */\n      dup2\n      dup2\n      sub\n        /* \"#utility.yul\":419:430   */\n      dup2\n      dup2\n      gt\n        /* \"#utility.yul\":416:453   */\n      iszero\n      tag_37\n      jumpi\n        /* \"#utility.yul\":433:451   */\n      tag_37\n      tag_30\n      jump\t// in\n    tag_37:\n        /* \"#utility.yul\":331:459   */\n      swap3\n      swap2\n      pop\n      pop\n      jump\t// out\n        /* \"#utility.yul\":464:589   */\n    tag_16:\n        /* \"#utility.yul\":529:538   */\n      dup1\n      dup3\n      add\n        /* \"#utility.yul\":550:560   */\n      dup1\n      dup3\n      gt\n        /* \"#utility.yul\":547:583   */\n      iszero\n      tag_37\n      jumpi\n        /* \"#utility.yul\":563:581   */\n      tag_37\n      tag_30\n      jump\t// in\n        /* \"#utility.yul\":594:721   */\n    tag_19:\n        /* \"#utility.yul\":655:665   */\n      0x4e487b71\n        /* \"#utility.yul\":650:653   */\n      0xe0\n        /* \"#utility.yul\":646:666   */\n      shl\n        /* \"#utility.yul\":643:644   */\n      0x00\n        /* \"#utility.yul\":636:667   */\n      mstore\n        /* \"#utility.yul\":686:690   */\n      0x32\n        /* \"#utility.yul\":683:684   */\n      0x04\n        /* \"#utility.yul\":676:691   */\n      mstore\n        /* \"#utility.yul\":710:714   */\n      0x24\n        /* \"#utility.yul\":707:708   */\n      0x00\n        /* \"#utility.yul\":700:715   */\n      revert\n        /* \"#utility.yul\":726:861   */\n    tag_25:\n        /* \"#utility.yul\":765:768   */\n      0x00\n        /* \"#utility.yul\":786:803   */\n      0x01\n      dup3\n      add\n        /* \"#utility.yul\":783:826   */\n      tag_44\n      jumpi\n        /* \"#utility.yul\":806:824   */\n      tag_44\n      tag_30\n      jump\t// in\n    tag_44:\n      pop\n        /* \"#utility.yul\":853:854   */\n      0x01\n        /* \"#utility.yul\":842:855   */\n      add\n      swap1\n        /* \"#utility.yul\":726:861   */\n      jump\t// out\n        /* \"#utility.yul\":866:993   */\n    tag_28:\n        /* \"#utility.yul\":927:937   */\n      0x4e487b71\n        /* \"#utility.yul\":922:925   */\n      0xe0\n        /* \"#utility.yul\":918:938   */\n      shl\n        /* \"#utility.yul\":915:916   */\n      0x00\n        /* \"#utility.yul\":908:939   */\n      mstore\n        /* \"#utility.yul\":958:962   */\n      0x31\n        /* \"#utility.yul\":955:956   */\n      0x04\n        /* \"#utility.yul\":948:963   */\n      mstore\n        /* \"#utility.yul\":982:986   */\n      0x24\n        /* \"#utility.yul\":979:980   */\n      0x00\n        /* \"#utility.yul\":972:987   */\n      revert\n\n    auxdata: 0xa26469706673582212204983e8bbb0a249f362e982aeeacfa7f045457a34fbda4560def97cdf7d96de9064736f6c63430008100033\n}\n",
				"bytecode": {
					"linkReferences": {},
					"object": "61012060405260016080908152600260a052600360c052600460e052600561010081905261002f91600091610042565b5034801561003c57600080fd5b506100a7565b828054828255906000526020600020908101928215610082579160200282015b82811115610082578251829060ff16905591602001919060010190610062565b5061008e929150610092565b5090565b5b8082111561008e5760008155600101610093565b6101c5806100b66000396000f3fe608060405234801561001057600080fd5b506004361061002b5760003560e01c80634cc8221514610030575b600080fd5b61004361003e3660046100ef565b610045565b005b600054811061005357600080fd5b805b6000546100649060019061011e565b8110156100c4576000610078826001610137565b815481106100885761008861014a565b9060005260206000200154600082815481106100a6576100a661014a565b600091825260209091200155806100bc81610160565b915050610055565b5060008054806100d6576100d6610179565b6001900381819060005260206000200160009055905550565b60006020828403121561010157600080fd5b5035919050565b634e487b7160e01b600052601160045260246000fd5b8181038181111561013157610131610108565b92915050565b8082018082111561013157610131610108565b634e487b7160e01b600052603260045260246000fd5b60006001820161017257610172610108565b5060010190565b634e487b7160e01b600052603160045260246000fdfea26469706673582212204983e8bbb0a249f362e982aeeacfa7f045457a34fbda4560def97cdf7d96de9064736f6c63430008100033",
					"opcodes": "PUSH2 0x120 PUSH1 0x40 MSTORE PUSH1 0x1 PUSH1 0x80 SWAP1 DUP2 MSTORE PUSH1 0x2 PUSH1 0xA0 MSTORE PUSH1 0x3 PUSH1 0xC0 MSTORE PUSH1 0x4 PUSH1 0xE0 MSTORE PUSH1 0x5 PUSH2 0x100 DUP2 SWAP1 MSTORE PUSH2 0x2F SWAP2 PUSH1 0x0 SWAP2 PUSH2 0x42 JUMP JUMPDEST POP CALLVALUE DUP1 ISZERO PUSH2 0x3C JUMPI PUSH1 0x0 DUP1 REVERT JUMPDEST POP PUSH2 0xA7 JUMP JUMPDEST DUP3 DUP1 SLOAD DUP3 DUP3 SSTORE SWAP1 PUSH1 0x0 MSTORE PUSH1 0x20 PUSH1 0x0 KECCAK256 SWAP1 DUP2 ADD SWAP3 DUP3 ISZERO PUSH2 0x82 JUMPI SWAP2 PUSH1 0x20 MUL DUP3 ADD JUMPDEST DUP3 DUP2 GT ISZERO PUSH2 0x82 JUMPI DUP3 MLOAD DUP3 SWAP1 PUSH1 0xFF AND SWAP1 SSTORE SWAP2 PUSH1 0x20 ADD SWAP2 SWAP1 PUSH1 0x1 ADD SWAP1 PUSH2 0x62 JUMP JUMPDEST POP PUSH2 0x8E SWAP3 SWAP2 POP PUSH2 0x92 JUMP JUMPDEST POP SWAP1 JUMP JUMPDEST JUMPDEST DUP1 DUP3 GT ISZERO PUSH2 0x8E JUMPI PUSH1 0x0 DUP2 SSTORE PUSH1 0x1 ADD PUSH2 0x93 JUMP JUMPDEST PUSH2 0x1C5 DUP1 PUSH2 0xB6 PUSH1 0x0 CODECOPY PUSH1 0x0 RETURN INVALID PUSH1 0x80 PUSH1 0x40 MSTORE CALLVALUE DUP1 ISZERO PUSH2 0x10 JUMPI PUSH1 0x0 DUP1 REVERT JUMPDEST POP PUSH1 0x4 CALLDATASIZE LT PUSH2 0x2B JUMPI PUSH1 0x0 CALLDATALOAD PUSH1 0xE0 SHR DUP1 PUSH4 0x4CC82215 EQ PUSH2 0x30 JUMPI JUMPDEST PUSH1 0x0 DUP1 REVERT JUMPDEST PUSH2 0x43 PUSH2 0x3E CALLDATASIZE PUSH1 0x4 PUSH2 0xEF JUMP JUMPDEST PUSH2 0x45 JUMP JUMPDEST STOP JUMPDEST PUSH1 0x0 SLOAD DUP2 LT PUSH2 0x53 JUMPI PUSH1 0x0 DUP1 REVERT JUMPDEST DUP1 JUMPDEST PUSH1 0x0 SLOAD PUSH2 0x64 SWAP1 PUSH1 0x1 SWAP1 PUSH2 0x11E JUMP JUMPDEST DUP2 LT ISZERO PUSH2 0xC4 JUMPI PUSH1 0x0 PUSH2 0x78 DUP3 PUSH1 0x1 PUSH2 0x137 JUMP JUMPDEST DUP2 SLOAD DUP2 LT PUSH2 0x88 JUMPI PUSH2 0x88 PUSH2 0x14A JUMP JUMPDEST SWAP1 PUSH1 0x0 MSTORE PUSH1 0x20 PUSH1 0x0 KECCAK256 ADD SLOAD PUSH1 0x0 DUP3 DUP2 SLOAD DUP2 LT PUSH2 0xA6 JUMPI PUSH2 0xA6 PUSH2 0x14A JUMP JUMPDEST PUSH1 0x0 SWAP2 DUP3 MSTORE PUSH1 0x20 SWAP1 SWAP2 KECCAK256 ADD SSTORE DUP1 PUSH2 0xBC DUP2 PUSH2 0x160 JUMP JUMPDEST SWAP2 POP POP PUSH2 0x55 JUMP JUMPDEST POP PUSH1 0x0 DUP1 SLOAD DUP1 PUSH2 0xD6 JUMPI PUSH2 0xD6 PUSH2 0x179 JUMP JUMPDEST PUSH1 0x1 SWAP1 SUB DUP2 DUP2 SWAP1 PUSH1 0x0 MSTORE PUSH1 0x20 PUSH1 0x0 KECCAK256 ADD PUSH1 0x0 SWAP1 SSTORE SWAP1 SSTORE POP JUMP JUMPDEST PUSH1 0x0 PUSH1 0x20 DUP3 DUP5 SUB SLT ISZERO PUSH2 0x101 JUMPI PUSH1 0x0 DUP1 REVERT JUMPDEST POP CALLDATALOAD SWAP2 SWAP1 POP JUMP JUMPDEST PUSH4 0x4E487B71 PUSH1 0xE0 SHL PUSH1 0x0 MSTORE PUSH1 0x11 PUSH1 0x4 MSTORE PUSH1 0x24 PUSH1 0x0 REVERT JUMPDEST DUP2 DUP2 SUB DUP2 DUP2 GT ISZERO PUSH2 0x131 JUMPI PUSH2 0x131 PUSH2 0x108 JUMP JUMPDEST SWAP3 SWAP2 POP POP JUMP JUMPDEST DUP1 DUP3 ADD DUP1 DUP3 GT ISZERO PUSH2 0x131 JUMPI PUSH2 0x131 PUSH2 0x108 JUMP JUMPDEST PUSH4 0x4E487B71 PUSH1 0xE0 SHL PUSH1 0x0 MSTORE PUSH1 0x32 PUSH1 0x4 MSTORE PUSH1 0x24 PUSH1 0x0 REVERT JUMPDEST PUSH1 0x0 PUSH1 0x1 DUP3 ADD PUSH2 0x172 JUMPI PUSH2 0x172 PUSH2 0x108 JUMP JUMPDEST POP PUSH1 0x1 ADD SWAP1 JUMP JUMPDEST PUSH4 0x4E487B71 PUSH1 0xE0 SHL PUSH1 0x0 MSTORE PUSH1 0x31 PUSH1 0x4 MSTORE PUSH1 0x24 PUSH1 0x0 REVERT INVALID LOG2 PUSH5 0x6970667358 0x22 SLT KECCAK256 0x49 DUP4 0xE8 0xBB 0xB0 LOG2 0x49 RETURN PUSH3 0xE982AE 0xEA 0xCF 0xA7 CREATE GASLIMIT GASLIMIT PUSH27 0x34FBDA4560DEF97CDF7D96DE9064736F6C63430008100033000000 "
				},
				"gasEstimates": {
					"creation": {
						"codeDepositCost": "90600",
						"executionCost": "infinite",
						"totalCost": "infinite"
					},
					"external": {
						"remove(uint256)": "infinite"
					}
				},
				"methodIdentifiers": {
					"remove(uint256)": "4cc82215"
				}
			},
			"storageLayout": {
				"storage": [
					{
						"astId": 10,
						"contract": "Week5/Array1.sol:Array1",
						"label": "array",
						"offset": 0,
						"slot": "0",
						"type": "t_array(t_uint256)dyn_storage"
					}
				],
				"types": {
					"t_array(t_uint256)dyn_storage": {
						"base": "t_uint256",
						"encoding": "dynamic_array",
						"label": "uint256[]",
						"numberOfBytes": "32"
					},
					"t_uint256": {
						"encoding": "inplace",
						"label": "uint256",
						"numberOfBytes": "32"
					}
				}
			},
			"userdoc": {
				"kind": "user",
				"methods": {},
				"version": 1
			}
		}
	}
}