{
	"Week5/Keccak256.sol": {
		"Keccak256": {
			"abi": [
				{
					"inputs": [
						{
							"internalType": "string",
							"name": "s1",
							"type": "string"
						},
						{
							"internalType": "string",
							"name": "s2",
							"type": "string"
						}
					],
					"name": "encode",
					"outputs": [
						{
							"internalType": "bytes",
							"name": "",
							"type": "bytes"
						}
					],
					"stateMutability": "pure",
					"type": "function"
				},
				{
					"inputs": [
						{
							"internalType": "bytes",
							"name": "s1",
							"type": "bytes"
						},
						{
							"internalType": "string",
							"name": "s2",
							"type": "string"
						}
					],
					"name": "encodeBytes",
					"outputs": [
						{
							"internalType": "bytes",
							"name": "",
							"type": "bytes"
						}
					],
					"stateMutability": "pure",
					"type": "function"
				},
				{
					"inputs": [
						{
							"internalType": "string",
							"name": "s1",
							"type": "string"
						},
						{
							"internalType": "string",
							"name": "s2",
							"type": "string"
						}
					],
					"name": "encodePacked",
					"outputs": [
						{
							"internalType": "bytes",
							"name": "",
							"type": "bytes"
						}
					],
					"stateMutability": "pure",
					"type": "function"
				}
			],
			"devdoc": {
				"kind": "dev",
				"methods": {},
				"version": 1
			},
			"evm": {
				"assembly": "    /* \"Week5/Keccak256.sol\":70:515  contract Keccak256 {... */\n  mstore(0x40, 0x80)\n  callvalue\n  dup1\n  iszero\n  tag_1\n  jumpi\n  0x00\n  dup1\n  revert\ntag_1:\n  pop\n  dataSize(sub_0)\n  dup1\n  dataOffset(sub_0)\n  0x00\n  codecopy\n  0x00\n  return\nstop\n\nsub_0: assembly {\n        /* \"Week5/Keccak256.sol\":70:515  contract Keccak256 {... */\n      mstore(0x40, 0x80)\n      callvalue\n      dup1\n      iszero\n      tag_1\n      jumpi\n      0x00\n      dup1\n      revert\n    tag_1:\n      pop\n      jumpi(tag_2, lt(calldatasize, 0x04))\n      shr(0xe0, calldataload(0x00))\n      dup1\n      0x17fe2da2\n      eq\n      tag_3\n      jumpi\n      dup1\n      0x24a95168\n      eq\n      tag_4\n      jumpi\n      dup1\n      0x892e5d01\n      eq\n      tag_5\n      jumpi\n    tag_2:\n      0x00\n      dup1\n      revert\n        /* \"Week5/Keccak256.sol\":95:225  function encode(string memory s1, string memory s2) external pure returns(bytes memory) {... */\n    tag_3:\n      tag_6\n      0x04\n      dup1\n      calldatasize\n      sub\n      dup2\n      add\n      swap1\n      tag_7\n      swap2\n      swap1\n      tag_8\n      jump\t// in\n    tag_7:\n      tag_9\n      jump\t// in\n    tag_6:\n      mload(0x40)\n      tag_10\n      swap2\n      swap1\n      tag_11\n      jump\t// in\n    tag_10:\n      mload(0x40)\n      dup1\n      swap2\n      sub\n      swap1\n      return\n        /* \"Week5/Keccak256.sol\":231:365  function encodeBytes(bytes memory s1, string memory s2) external pure returns(bytes memory) {... */\n    tag_4:\n      tag_12\n      0x04\n      dup1\n      calldatasize\n      sub\n      dup2\n      add\n      swap1\n      tag_13\n      swap2\n      swap1\n      tag_14\n      jump\t// in\n    tag_13:\n      tag_15\n      jump\t// in\n    tag_12:\n      mload(0x40)\n      tag_16\n      swap2\n      swap1\n      tag_11\n      jump\t// in\n    tag_16:\n      mload(0x40)\n      dup1\n      swap2\n      sub\n      swap1\n      return\n        /* \"Week5/Keccak256.sol\":371:513  function encodePacked(string memory s1, string memory s2) external pure returns(bytes memory) {... */\n    tag_5:\n      tag_17\n      0x04\n      dup1\n      calldatasize\n      sub\n      dup2\n      add\n      swap1\n      tag_18\n      swap2\n      swap1\n      tag_8\n      jump\t// in\n    tag_18:\n      tag_19\n      jump\t// in\n    tag_17:\n      mload(0x40)\n      tag_20\n      swap2\n      swap1\n      tag_11\n      jump\t// in\n    tag_20:\n      mload(0x40)\n      dup1\n      swap2\n      sub\n      swap1\n      return\n        /* \"Week5/Keccak256.sol\":95:225  function encode(string memory s1, string memory s2) external pure returns(bytes memory) {... */\n    tag_9:\n        /* \"Week5/Keccak256.sol\":169:181  bytes memory */\n      0x60\n        /* \"Week5/Keccak256.sol\":211:213  s1 */\n      dup3\n        /* \"Week5/Keccak256.sol\":215:217  s2 */\n      dup3\n        /* \"Week5/Keccak256.sol\":200:218  abi.encode(s1, s2) */\n      add(0x20, mload(0x40))\n      tag_22\n      swap3\n      swap2\n      swap1\n      tag_23\n      jump\t// in\n    tag_22:\n      mload(0x40)\n      0x20\n      dup2\n      dup4\n      sub\n      sub\n      dup2\n      mstore\n      swap1\n      0x40\n      mstore\n        /* \"Week5/Keccak256.sol\":193:218  return abi.encode(s1, s2) */\n      swap1\n      pop\n        /* \"Week5/Keccak256.sol\":95:225  function encode(string memory s1, string memory s2) external pure returns(bytes memory) {... */\n      swap3\n      swap2\n      pop\n      pop\n      jump\t// out\n        /* \"Week5/Keccak256.sol\":231:365  function encodeBytes(bytes memory s1, string memory s2) external pure returns(bytes memory) {... */\n    tag_15:\n        /* \"Week5/Keccak256.sol\":309:321  bytes memory */\n      0x60\n        /* \"Week5/Keccak256.sol\":351:353  s1 */\n      dup3\n        /* \"Week5/Keccak256.sol\":355:357  s2 */\n      dup3\n        /* \"Week5/Keccak256.sol\":340:358  abi.encode(s1, s2) */\n      add(0x20, mload(0x40))\n      tag_25\n      swap3\n      swap2\n      swap1\n      tag_26\n      jump\t// in\n    tag_25:\n      mload(0x40)\n      0x20\n      dup2\n      dup4\n      sub\n      sub\n      dup2\n      mstore\n      swap1\n      0x40\n      mstore\n        /* \"Week5/Keccak256.sol\":333:358  return abi.encode(s1, s2) */\n      swap1\n      pop\n        /* \"Week5/Keccak256.sol\":231:365  function encodeBytes(bytes memory s1, string memory s2) external pure returns(bytes memory) {... */\n      swap3\n      swap2\n      pop\n      pop\n      jump\t// out\n        /* \"Week5/Keccak256.sol\":371:513  function encodePacked(string memory s1, string memory s2) external pure returns(bytes memory) {... */\n    tag_19:\n        /* \"Week5/Keccak256.sol\":451:463  bytes memory */\n      0x60\n        /* \"Week5/Keccak256.sol\":499:501  s1 */\n      dup3\n        /* \"Week5/Keccak256.sol\":503:505  s2 */\n      dup3\n        /* \"Week5/Keccak256.sol\":482:506  abi.encodePacked(s1, s2) */\n      add(0x20, mload(0x40))\n      tag_28\n      swap3\n      swap2\n      swap1\n      tag_29\n      jump\t// in\n    tag_28:\n      mload(0x40)\n      0x20\n      dup2\n      dup4\n      sub\n      sub\n      dup2\n      mstore\n      swap1\n      0x40\n      mstore\n        /* \"Week5/Keccak256.sol\":475:506  return abi.encodePacked(s1, s2) */\n      swap1\n      pop\n        /* \"Week5/Keccak256.sol\":371:513  function encodePacked(string memory s1, string memory s2) external pure returns(bytes memory) {... */\n      swap3\n      swap2\n      pop\n      pop\n      jump\t// out\n        /* \"#utility.yul\":7:417   */\n    tag_31:\n        /* \"#utility.yul\":84:89   */\n      0x00\n        /* \"#utility.yul\":109:174   */\n      tag_33\n        /* \"#utility.yul\":125:173   */\n      tag_34\n        /* \"#utility.yul\":166:172   */\n      dup5\n        /* \"#utility.yul\":125:173   */\n      tag_35\n      jump\t// in\n    tag_34:\n        /* \"#utility.yul\":109:174   */\n      tag_36\n      jump\t// in\n    tag_33:\n        /* \"#utility.yul\":100:174   */\n      swap1\n      pop\n        /* \"#utility.yul\":197:203   */\n      dup3\n        /* \"#utility.yul\":190:195   */\n      dup2\n        /* \"#utility.yul\":183:204   */\n      mstore\n        /* \"#utility.yul\":235:239   */\n      0x20\n        /* \"#utility.yul\":228:233   */\n      dup2\n        /* \"#utility.yul\":224:240   */\n      add\n        /* \"#utility.yul\":273:276   */\n      dup5\n        /* \"#utility.yul\":264:270   */\n      dup5\n        /* \"#utility.yul\":259:262   */\n      dup5\n        /* \"#utility.yul\":255:271   */\n      add\n        /* \"#utility.yul\":252:277   */\n      gt\n        /* \"#utility.yul\":249:361   */\n      iszero\n      tag_37\n      jumpi\n        /* \"#utility.yul\":280:359   */\n      tag_38\n      tag_39\n      jump\t// in\n    tag_38:\n        /* \"#utility.yul\":249:361   */\n    tag_37:\n        /* \"#utility.yul\":370:411   */\n      tag_40\n        /* \"#utility.yul\":404:410   */\n      dup5\n        /* \"#utility.yul\":399:402   */\n      dup3\n        /* \"#utility.yul\":394:397   */\n      dup6\n        /* \"#utility.yul\":370:411   */\n      tag_41\n      jump\t// in\n    tag_40:\n        /* \"#utility.yul\":90:417   */\n      pop\n        /* \"#utility.yul\":7:417   */\n      swap4\n      swap3\n      pop\n      pop\n      pop\n      jump\t// out\n        /* \"#utility.yul\":423:835   */\n    tag_42:\n        /* \"#utility.yul\":501:506   */\n      0x00\n        /* \"#utility.yul\":526:592   */\n      tag_44\n        /* \"#utility.yul\":542:591   */\n      tag_45\n        /* \"#utility.yul\":584:590   */\n      dup5\n        /* \"#utility.yul\":542:591   */\n      tag_46\n      jump\t// in\n    tag_45:\n        /* \"#utility.yul\":526:592   */\n      tag_36\n      jump\t// in\n    tag_44:\n        /* \"#utility.yul\":517:592   */\n      swap1\n      pop\n        /* \"#utility.yul\":615:621   */\n      dup3\n        /* \"#utility.yul\":608:613   */\n      dup2\n        /* \"#utility.yul\":601:622   */\n      mstore\n        /* \"#utility.yul\":653:657   */\n      0x20\n        /* \"#utility.yul\":646:651   */\n      dup2\n        /* \"#utility.yul\":642:658   */\n      add\n        /* \"#utility.yul\":691:694   */\n      dup5\n        /* \"#utility.yul\":682:688   */\n      dup5\n        /* \"#utility.yul\":677:680   */\n      dup5\n        /* \"#utility.yul\":673:689   */\n      add\n        /* \"#utility.yul\":670:695   */\n      gt\n        /* \"#utility.yul\":667:779   */\n      iszero\n      tag_47\n      jumpi\n        /* \"#utility.yul\":698:777   */\n      tag_48\n      tag_39\n      jump\t// in\n    tag_48:\n        /* \"#utility.yul\":667:779   */\n    tag_47:\n        /* \"#utility.yul\":788:829   */\n      tag_49\n        /* \"#utility.yul\":822:828   */\n      dup5\n        /* \"#utility.yul\":817:820   */\n      dup3\n        /* \"#utility.yul\":812:815   */\n      dup6\n        /* \"#utility.yul\":788:829   */\n      tag_41\n      jump\t// in\n    tag_49:\n        /* \"#utility.yul\":507:835   */\n      pop\n        /* \"#utility.yul\":423:835   */\n      swap4\n      swap3\n      pop\n      pop\n      pop\n      jump\t// out\n        /* \"#utility.yul\":854:1192   */\n    tag_50:\n        /* \"#utility.yul\":909:914   */\n      0x00\n        /* \"#utility.yul\":958:961   */\n      dup3\n        /* \"#utility.yul\":951:955   */\n      0x1f\n        /* \"#utility.yul\":943:949   */\n      dup4\n        /* \"#utility.yul\":939:956   */\n      add\n        /* \"#utility.yul\":935:962   */\n      slt\n        /* \"#utility.yul\":925:1047   */\n      tag_52\n      jumpi\n        /* \"#utility.yul\":966:1045   */\n      tag_53\n      tag_54\n      jump\t// in\n    tag_53:\n        /* \"#utility.yul\":925:1047   */\n    tag_52:\n        /* \"#utility.yul\":1083:1089   */\n      dup2\n        /* \"#utility.yul\":1070:1090   */\n      calldataload\n        /* \"#utility.yul\":1108:1186   */\n      tag_55\n        /* \"#utility.yul\":1182:1185   */\n      dup5\n        /* \"#utility.yul\":1174:1180   */\n      dup3\n        /* \"#utility.yul\":1167:1171   */\n      0x20\n        /* \"#utility.yul\":1159:1165   */\n      dup7\n        /* \"#utility.yul\":1155:1172   */\n      add\n        /* \"#utility.yul\":1108:1186   */\n      tag_31\n      jump\t// in\n    tag_55:\n        /* \"#utility.yul\":1099:1186   */\n      swap2\n      pop\n        /* \"#utility.yul\":915:1192   */\n      pop\n        /* \"#utility.yul\":854:1192   */\n      swap3\n      swap2\n      pop\n      pop\n      jump\t// out\n        /* \"#utility.yul\":1212:1552   */\n    tag_56:\n        /* \"#utility.yul\":1268:1273   */\n      0x00\n        /* \"#utility.yul\":1317:1320   */\n      dup3\n        /* \"#utility.yul\":1310:1314   */\n      0x1f\n        /* \"#utility.yul\":1302:1308   */\n      dup4\n        /* \"#utility.yul\":1298:1315   */\n      add\n        /* \"#utility.yul\":1294:1321   */\n      slt\n        /* \"#utility.yul\":1284:1406   */\n      tag_58\n      jumpi\n        /* \"#utility.yul\":1325:1404   */\n      tag_59\n      tag_54\n      jump\t// in\n    tag_59:\n        /* \"#utility.yul\":1284:1406   */\n    tag_58:\n        /* \"#utility.yul\":1442:1448   */\n      dup2\n        /* \"#utility.yul\":1429:1449   */\n      calldataload\n        /* \"#utility.yul\":1467:1546   */\n      tag_60\n        /* \"#utility.yul\":1542:1545   */\n      dup5\n        /* \"#utility.yul\":1534:1540   */\n      dup3\n        /* \"#utility.yul\":1527:1531   */\n      0x20\n        /* \"#utility.yul\":1519:1525   */\n      dup7\n        /* \"#utility.yul\":1515:1532   */\n      add\n        /* \"#utility.yul\":1467:1546   */\n      tag_42\n      jump\t// in\n    tag_60:\n        /* \"#utility.yul\":1458:1546   */\n      swap2\n      pop\n        /* \"#utility.yul\":1274:1552   */\n      pop\n        /* \"#utility.yul\":1212:1552   */\n      swap3\n      swap2\n      pop\n      pop\n      jump\t// out\n        /* \"#utility.yul\":1558:2390   */\n    tag_14:\n        /* \"#utility.yul\":1645:1651   */\n      0x00\n        /* \"#utility.yul\":1653:1659   */\n      dup1\n        /* \"#utility.yul\":1702:1704   */\n      0x40\n        /* \"#utility.yul\":1690:1699   */\n      dup4\n        /* \"#utility.yul\":1681:1688   */\n      dup6\n        /* \"#utility.yul\":1677:1700   */\n      sub\n        /* \"#utility.yul\":1673:1705   */\n      slt\n        /* \"#utility.yul\":1670:1789   */\n      iszero\n      tag_62\n      jumpi\n        /* \"#utility.yul\":1708:1787   */\n      tag_63\n      tag_64\n      jump\t// in\n    tag_63:\n        /* \"#utility.yul\":1670:1789   */\n    tag_62:\n        /* \"#utility.yul\":1856:1857   */\n      0x00\n        /* \"#utility.yul\":1845:1854   */\n      dup4\n        /* \"#utility.yul\":1841:1858   */\n      add\n        /* \"#utility.yul\":1828:1859   */\n      calldataload\n        /* \"#utility.yul\":1886:1904   */\n      0xffffffffffffffff\n        /* \"#utility.yul\":1878:1884   */\n      dup2\n        /* \"#utility.yul\":1875:1905   */\n      gt\n        /* \"#utility.yul\":1872:1989   */\n      iszero\n      tag_65\n      jumpi\n        /* \"#utility.yul\":1908:1987   */\n      tag_66\n      tag_67\n      jump\t// in\n    tag_66:\n        /* \"#utility.yul\":1872:1989   */\n    tag_65:\n        /* \"#utility.yul\":2013:2075   */\n      tag_68\n        /* \"#utility.yul\":2067:2074   */\n      dup6\n        /* \"#utility.yul\":2058:2064   */\n      dup3\n        /* \"#utility.yul\":2047:2056   */\n      dup7\n        /* \"#utility.yul\":2043:2065   */\n      add\n        /* \"#utility.yul\":2013:2075   */\n      tag_50\n      jump\t// in\n    tag_68:\n        /* \"#utility.yul\":2003:2075   */\n      swap3\n      pop\n        /* \"#utility.yul\":1799:2085   */\n      pop\n        /* \"#utility.yul\":2152:2154   */\n      0x20\n        /* \"#utility.yul\":2141:2150   */\n      dup4\n        /* \"#utility.yul\":2137:2155   */\n      add\n        /* \"#utility.yul\":2124:2156   */\n      calldataload\n        /* \"#utility.yul\":2183:2201   */\n      0xffffffffffffffff\n        /* \"#utility.yul\":2175:2181   */\n      dup2\n        /* \"#utility.yul\":2172:2202   */\n      gt\n        /* \"#utility.yul\":2169:2286   */\n      iszero\n      tag_69\n      jumpi\n        /* \"#utility.yul\":2205:2284   */\n      tag_70\n      tag_67\n      jump\t// in\n    tag_70:\n        /* \"#utility.yul\":2169:2286   */\n    tag_69:\n        /* \"#utility.yul\":2310:2373   */\n      tag_71\n        /* \"#utility.yul\":2365:2372   */\n      dup6\n        /* \"#utility.yul\":2356:2362   */\n      dup3\n        /* \"#utility.yul\":2345:2354   */\n      dup7\n        /* \"#utility.yul\":2341:2363   */\n      add\n        /* \"#utility.yul\":2310:2373   */\n      tag_56\n      jump\t// in\n    tag_71:\n        /* \"#utility.yul\":2300:2373   */\n      swap2\n      pop\n        /* \"#utility.yul\":2095:2383   */\n      pop\n        /* \"#utility.yul\":1558:2390   */\n      swap3\n      pop\n      swap3\n      swap1\n      pop\n      jump\t// out\n        /* \"#utility.yul\":2396:3230   */\n    tag_8:\n        /* \"#utility.yul\":2484:2490   */\n      0x00\n        /* \"#utility.yul\":2492:2498   */\n      dup1\n        /* \"#utility.yul\":2541:2543   */\n      0x40\n        /* \"#utility.yul\":2529:2538   */\n      dup4\n        /* \"#utility.yul\":2520:2527   */\n      dup6\n        /* \"#utility.yul\":2516:2539   */\n      sub\n        /* \"#utility.yul\":2512:2544   */\n      slt\n        /* \"#utility.yul\":2509:2628   */\n      iszero\n      tag_73\n      jumpi\n        /* \"#utility.yul\":2547:2626   */\n      tag_74\n      tag_64\n      jump\t// in\n    tag_74:\n        /* \"#utility.yul\":2509:2628   */\n    tag_73:\n        /* \"#utility.yul\":2695:2696   */\n      0x00\n        /* \"#utility.yul\":2684:2693   */\n      dup4\n        /* \"#utility.yul\":2680:2697   */\n      add\n        /* \"#utility.yul\":2667:2698   */\n      calldataload\n        /* \"#utility.yul\":2725:2743   */\n      0xffffffffffffffff\n        /* \"#utility.yul\":2717:2723   */\n      dup2\n        /* \"#utility.yul\":2714:2744   */\n      gt\n        /* \"#utility.yul\":2711:2828   */\n      iszero\n      tag_75\n      jumpi\n        /* \"#utility.yul\":2747:2826   */\n      tag_76\n      tag_67\n      jump\t// in\n    tag_76:\n        /* \"#utility.yul\":2711:2828   */\n    tag_75:\n        /* \"#utility.yul\":2852:2915   */\n      tag_77\n        /* \"#utility.yul\":2907:2914   */\n      dup6\n        /* \"#utility.yul\":2898:2904   */\n      dup3\n        /* \"#utility.yul\":2887:2896   */\n      dup7\n        /* \"#utility.yul\":2883:2905   */\n      add\n        /* \"#utility.yul\":2852:2915   */\n      tag_56\n      jump\t// in\n    tag_77:\n        /* \"#utility.yul\":2842:2915   */\n      swap3\n      pop\n        /* \"#utility.yul\":2638:2925   */\n      pop\n        /* \"#utility.yul\":2992:2994   */\n      0x20\n        /* \"#utility.yul\":2981:2990   */\n      dup4\n        /* \"#utility.yul\":2977:2995   */\n      add\n        /* \"#utility.yul\":2964:2996   */\n      calldataload\n        /* \"#utility.yul\":3023:3041   */\n      0xffffffffffffffff\n        /* \"#utility.yul\":3015:3021   */\n      dup2\n        /* \"#utility.yul\":3012:3042   */\n      gt\n        /* \"#utility.yul\":3009:3126   */\n      iszero\n      tag_78\n      jumpi\n        /* \"#utility.yul\":3045:3124   */\n      tag_79\n      tag_67\n      jump\t// in\n    tag_79:\n        /* \"#utility.yul\":3009:3126   */\n    tag_78:\n        /* \"#utility.yul\":3150:3213   */\n      tag_80\n        /* \"#utility.yul\":3205:3212   */\n      dup6\n        /* \"#utility.yul\":3196:3202   */\n      dup3\n        /* \"#utility.yul\":3185:3194   */\n      dup7\n        /* \"#utility.yul\":3181:3203   */\n      add\n        /* \"#utility.yul\":3150:3213   */\n      tag_56\n      jump\t// in\n    tag_80:\n        /* \"#utility.yul\":3140:3213   */\n      swap2\n      pop\n        /* \"#utility.yul\":2935:3223   */\n      pop\n        /* \"#utility.yul\":2396:3230   */\n      swap3\n      pop\n      swap3\n      swap1\n      pop\n      jump\t// out\n        /* \"#utility.yul\":3236:3596   */\n    tag_81:\n        /* \"#utility.yul\":3322:3325   */\n      0x00\n        /* \"#utility.yul\":3350:3388   */\n      tag_83\n        /* \"#utility.yul\":3382:3387   */\n      dup3\n        /* \"#utility.yul\":3350:3388   */\n      tag_84\n      jump\t// in\n    tag_83:\n        /* \"#utility.yul\":3404:3474   */\n      tag_85\n        /* \"#utility.yul\":3467:3473   */\n      dup2\n        /* \"#utility.yul\":3462:3465   */\n      dup6\n        /* \"#utility.yul\":3404:3474   */\n      tag_86\n      jump\t// in\n    tag_85:\n        /* \"#utility.yul\":3397:3474   */\n      swap4\n      pop\n        /* \"#utility.yul\":3483:3535   */\n      tag_87\n        /* \"#utility.yul\":3528:3534   */\n      dup2\n        /* \"#utility.yul\":3523:3526   */\n      dup6\n        /* \"#utility.yul\":3516:3520   */\n      0x20\n        /* \"#utility.yul\":3509:3514   */\n      dup7\n        /* \"#utility.yul\":3505:3521   */\n      add\n        /* \"#utility.yul\":3483:3535   */\n      tag_88\n      jump\t// in\n    tag_87:\n        /* \"#utility.yul\":3560:3589   */\n      tag_89\n        /* \"#utility.yul\":3582:3588   */\n      dup2\n        /* \"#utility.yul\":3560:3589   */\n      tag_90\n      jump\t// in\n    tag_89:\n        /* \"#utility.yul\":3555:3558   */\n      dup5\n        /* \"#utility.yul\":3551:3590   */\n      add\n        /* \"#utility.yul\":3544:3590   */\n      swap2\n      pop\n        /* \"#utility.yul\":3326:3596   */\n      pop\n        /* \"#utility.yul\":3236:3596   */\n      swap3\n      swap2\n      pop\n      pop\n      jump\t// out\n        /* \"#utility.yul\":3602:3966   */\n    tag_91:\n        /* \"#utility.yul\":3690:3693   */\n      0x00\n        /* \"#utility.yul\":3718:3757   */\n      tag_93\n        /* \"#utility.yul\":3751:3756   */\n      dup3\n        /* \"#utility.yul\":3718:3757   */\n      tag_94\n      jump\t// in\n    tag_93:\n        /* \"#utility.yul\":3773:3844   */\n      tag_95\n        /* \"#utility.yul\":3837:3843   */\n      dup2\n        /* \"#utility.yul\":3832:3835   */\n      dup6\n        /* \"#utility.yul\":3773:3844   */\n      tag_96\n      jump\t// in\n    tag_95:\n        /* \"#utility.yul\":3766:3844   */\n      swap4\n      pop\n        /* \"#utility.yul\":3853:3905   */\n      tag_97\n        /* \"#utility.yul\":3898:3904   */\n      dup2\n        /* \"#utility.yul\":3893:3896   */\n      dup6\n        /* \"#utility.yul\":3886:3890   */\n      0x20\n        /* \"#utility.yul\":3879:3884   */\n      dup7\n        /* \"#utility.yul\":3875:3891   */\n      add\n        /* \"#utility.yul\":3853:3905   */\n      tag_88\n      jump\t// in\n    tag_97:\n        /* \"#utility.yul\":3930:3959   */\n      tag_98\n        /* \"#utility.yul\":3952:3958   */\n      dup2\n        /* \"#utility.yul\":3930:3959   */\n      tag_90\n      jump\t// in\n    tag_98:\n        /* \"#utility.yul\":3925:3928   */\n      dup5\n        /* \"#utility.yul\":3921:3960   */\n      add\n        /* \"#utility.yul\":3914:3960   */\n      swap2\n      pop\n        /* \"#utility.yul\":3694:3966   */\n      pop\n        /* \"#utility.yul\":3602:3966   */\n      swap3\n      swap2\n      pop\n      pop\n      jump\t// out\n        /* \"#utility.yul\":3972:4349   */\n    tag_99:\n        /* \"#utility.yul\":4078:4081   */\n      0x00\n        /* \"#utility.yul\":4106:4145   */\n      tag_101\n        /* \"#utility.yul\":4139:4144   */\n      dup3\n        /* \"#utility.yul\":4106:4145   */\n      tag_94\n      jump\t// in\n    tag_101:\n        /* \"#utility.yul\":4161:4250   */\n      tag_102\n        /* \"#utility.yul\":4243:4249   */\n      dup2\n        /* \"#utility.yul\":4238:4241   */\n      dup6\n        /* \"#utility.yul\":4161:4250   */\n      tag_103\n      jump\t// in\n    tag_102:\n        /* \"#utility.yul\":4154:4250   */\n      swap4\n      pop\n        /* \"#utility.yul\":4259:4311   */\n      tag_104\n        /* \"#utility.yul\":4304:4310   */\n      dup2\n        /* \"#utility.yul\":4299:4302   */\n      dup6\n        /* \"#utility.yul\":4292:4296   */\n      0x20\n        /* \"#utility.yul\":4285:4290   */\n      dup7\n        /* \"#utility.yul\":4281:4297   */\n      add\n        /* \"#utility.yul\":4259:4311   */\n      tag_88\n      jump\t// in\n    tag_104:\n        /* \"#utility.yul\":4336:4342   */\n      dup1\n        /* \"#utility.yul\":4331:4334   */\n      dup5\n        /* \"#utility.yul\":4327:4343   */\n      add\n        /* \"#utility.yul\":4320:4343   */\n      swap2\n      pop\n        /* \"#utility.yul\":4082:4349   */\n      pop\n        /* \"#utility.yul\":3972:4349   */\n      swap3\n      swap2\n      pop\n      pop\n      jump\t// out\n        /* \"#utility.yul\":4355:4790   */\n    tag_29:\n        /* \"#utility.yul\":4535:4538   */\n      0x00\n        /* \"#utility.yul\":4557:4652   */\n      tag_106\n        /* \"#utility.yul\":4648:4651   */\n      dup3\n        /* \"#utility.yul\":4639:4645   */\n      dup6\n        /* \"#utility.yul\":4557:4652   */\n      tag_99\n      jump\t// in\n    tag_106:\n        /* \"#utility.yul\":4550:4652   */\n      swap2\n      pop\n        /* \"#utility.yul\":4669:4764   */\n      tag_107\n        /* \"#utility.yul\":4760:4763   */\n      dup3\n        /* \"#utility.yul\":4751:4757   */\n      dup5\n        /* \"#utility.yul\":4669:4764   */\n      tag_99\n      jump\t// in\n    tag_107:\n        /* \"#utility.yul\":4662:4764   */\n      swap2\n      pop\n        /* \"#utility.yul\":4781:4784   */\n      dup2\n        /* \"#utility.yul\":4774:4784   */\n      swap1\n      pop\n        /* \"#utility.yul\":4355:4790   */\n      swap4\n      swap3\n      pop\n      pop\n      pop\n      jump\t// out\n        /* \"#utility.yul\":4796:5105   */\n    tag_11:\n        /* \"#utility.yul\":4907:4911   */\n      0x00\n        /* \"#utility.yul\":4945:4947   */\n      0x20\n        /* \"#utility.yul\":4934:4943   */\n      dup3\n        /* \"#utility.yul\":4930:4948   */\n      add\n        /* \"#utility.yul\":4922:4948   */\n      swap1\n      pop\n        /* \"#utility.yul\":4994:5003   */\n      dup2\n        /* \"#utility.yul\":4988:4992   */\n      dup2\n        /* \"#utility.yul\":4984:5004   */\n      sub\n        /* \"#utility.yul\":4980:4981   */\n      0x00\n        /* \"#utility.yul\":4969:4978   */\n      dup4\n        /* \"#utility.yul\":4965:4982   */\n      add\n        /* \"#utility.yul\":4958:5005   */\n      mstore\n        /* \"#utility.yul\":5022:5098   */\n      tag_109\n        /* \"#utility.yul\":5093:5097   */\n      dup2\n        /* \"#utility.yul\":5084:5090   */\n      dup5\n        /* \"#utility.yul\":5022:5098   */\n      tag_81\n      jump\t// in\n    tag_109:\n        /* \"#utility.yul\":5014:5098   */\n      swap1\n      pop\n        /* \"#utility.yul\":4796:5105   */\n      swap3\n      swap2\n      pop\n      pop\n      jump\t// out\n        /* \"#utility.yul\":5111:5621   */\n    tag_26:\n        /* \"#utility.yul\":5270:5274   */\n      0x00\n        /* \"#utility.yul\":5308:5310   */\n      0x40\n        /* \"#utility.yul\":5297:5306   */\n      dup3\n        /* \"#utility.yul\":5293:5311   */\n      add\n        /* \"#utility.yul\":5285:5311   */\n      swap1\n      pop\n        /* \"#utility.yul\":5357:5366   */\n      dup2\n        /* \"#utility.yul\":5351:5355   */\n      dup2\n        /* \"#utility.yul\":5347:5367   */\n      sub\n        /* \"#utility.yul\":5343:5344   */\n      0x00\n        /* \"#utility.yul\":5332:5341   */\n      dup4\n        /* \"#utility.yul\":5328:5345   */\n      add\n        /* \"#utility.yul\":5321:5368   */\n      mstore\n        /* \"#utility.yul\":5385:5461   */\n      tag_111\n        /* \"#utility.yul\":5456:5460   */\n      dup2\n        /* \"#utility.yul\":5447:5453   */\n      dup6\n        /* \"#utility.yul\":5385:5461   */\n      tag_81\n      jump\t// in\n    tag_111:\n        /* \"#utility.yul\":5377:5461   */\n      swap1\n      pop\n        /* \"#utility.yul\":5508:5517   */\n      dup2\n        /* \"#utility.yul\":5502:5506   */\n      dup2\n        /* \"#utility.yul\":5498:5518   */\n      sub\n        /* \"#utility.yul\":5493:5495   */\n      0x20\n        /* \"#utility.yul\":5482:5491   */\n      dup4\n        /* \"#utility.yul\":5478:5496   */\n      add\n        /* \"#utility.yul\":5471:5519   */\n      mstore\n        /* \"#utility.yul\":5536:5614   */\n      tag_112\n        /* \"#utility.yul\":5609:5613   */\n      dup2\n        /* \"#utility.yul\":5600:5606   */\n      dup5\n        /* \"#utility.yul\":5536:5614   */\n      tag_91\n      jump\t// in\n    tag_112:\n        /* \"#utility.yul\":5528:5614   */\n      swap1\n      pop\n        /* \"#utility.yul\":5111:5621   */\n      swap4\n      swap3\n      pop\n      pop\n      pop\n      jump\t// out\n        /* \"#utility.yul\":5627:6141   */\n    tag_23:\n        /* \"#utility.yul\":5788:5792   */\n      0x00\n        /* \"#utility.yul\":5826:5828   */\n      0x40\n        /* \"#utility.yul\":5815:5824   */\n      dup3\n        /* \"#utility.yul\":5811:5829   */\n      add\n        /* \"#utility.yul\":5803:5829   */\n      swap1\n      pop\n        /* \"#utility.yul\":5875:5884   */\n      dup2\n        /* \"#utility.yul\":5869:5873   */\n      dup2\n        /* \"#utility.yul\":5865:5885   */\n      sub\n        /* \"#utility.yul\":5861:5862   */\n      0x00\n        /* \"#utility.yul\":5850:5859   */\n      dup4\n        /* \"#utility.yul\":5846:5863   */\n      add\n        /* \"#utility.yul\":5839:5886   */\n      mstore\n        /* \"#utility.yul\":5903:5981   */\n      tag_114\n        /* \"#utility.yul\":5976:5980   */\n      dup2\n        /* \"#utility.yul\":5967:5973   */\n      dup6\n        /* \"#utility.yul\":5903:5981   */\n      tag_91\n      jump\t// in\n    tag_114:\n        /* \"#utility.yul\":5895:5981   */\n      swap1\n      pop\n        /* \"#utility.yul\":6028:6037   */\n      dup2\n        /* \"#utility.yul\":6022:6026   */\n      dup2\n        /* \"#utility.yul\":6018:6038   */\n      sub\n        /* \"#utility.yul\":6013:6015   */\n      0x20\n        /* \"#utility.yul\":6002:6011   */\n      dup4\n        /* \"#utility.yul\":5998:6016   */\n      add\n        /* \"#utility.yul\":5991:6039   */\n      mstore\n        /* \"#utility.yul\":6056:6134   */\n      tag_115\n        /* \"#utility.yul\":6129:6133   */\n      dup2\n        /* \"#utility.yul\":6120:6126   */\n      dup5\n        /* \"#utility.yul\":6056:6134   */\n      tag_91\n      jump\t// in\n    tag_115:\n        /* \"#utility.yul\":6048:6134   */\n      swap1\n      pop\n        /* \"#utility.yul\":5627:6141   */\n      swap4\n      swap3\n      pop\n      pop\n      pop\n      jump\t// out\n        /* \"#utility.yul\":6147:6276   */\n    tag_36:\n        /* \"#utility.yul\":6181:6187   */\n      0x00\n        /* \"#utility.yul\":6208:6228   */\n      tag_117\n      tag_118\n      jump\t// in\n    tag_117:\n        /* \"#utility.yul\":6198:6228   */\n      swap1\n      pop\n        /* \"#utility.yul\":6237:6270   */\n      tag_119\n        /* \"#utility.yul\":6265:6269   */\n      dup3\n        /* \"#utility.yul\":6257:6263   */\n      dup3\n        /* \"#utility.yul\":6237:6270   */\n      tag_120\n      jump\t// in\n    tag_119:\n        /* \"#utility.yul\":6147:6276   */\n      swap2\n      swap1\n      pop\n      jump\t// out\n        /* \"#utility.yul\":6282:6357   */\n    tag_118:\n        /* \"#utility.yul\":6315:6321   */\n      0x00\n        /* \"#utility.yul\":6348:6350   */\n      0x40\n        /* \"#utility.yul\":6342:6351   */\n      mload\n        /* \"#utility.yul\":6332:6351   */\n      swap1\n      pop\n        /* \"#utility.yul\":6282:6357   */\n      swap1\n      jump\t// out\n        /* \"#utility.yul\":6363:6670   */\n    tag_35:\n        /* \"#utility.yul\":6424:6428   */\n      0x00\n        /* \"#utility.yul\":6514:6532   */\n      0xffffffffffffffff\n        /* \"#utility.yul\":6506:6512   */\n      dup3\n        /* \"#utility.yul\":6503:6533   */\n      gt\n        /* \"#utility.yul\":6500:6556   */\n      iszero\n      tag_123\n      jumpi\n        /* \"#utility.yul\":6536:6554   */\n      tag_124\n      tag_125\n      jump\t// in\n    tag_124:\n        /* \"#utility.yul\":6500:6556   */\n    tag_123:\n        /* \"#utility.yul\":6574:6603   */\n      tag_126\n        /* \"#utility.yul\":6596:6602   */\n      dup3\n        /* \"#utility.yul\":6574:6603   */\n      tag_90\n      jump\t// in\n    tag_126:\n        /* \"#utility.yul\":6566:6603   */\n      swap1\n      pop\n        /* \"#utility.yul\":6658:6662   */\n      0x20\n        /* \"#utility.yul\":6652:6656   */\n      dup2\n        /* \"#utility.yul\":6648:6663   */\n      add\n        /* \"#utility.yul\":6640:6663   */\n      swap1\n      pop\n        /* \"#utility.yul\":6363:6670   */\n      swap2\n      swap1\n      pop\n      jump\t// out\n        /* \"#utility.yul\":6676:6984   */\n    tag_46:\n        /* \"#utility.yul\":6738:6742   */\n      0x00\n        /* \"#utility.yul\":6828:6846   */\n      0xffffffffffffffff\n        /* \"#utility.yul\":6820:6826   */\n      dup3\n        /* \"#utility.yul\":6817:6847   */\n      gt\n        /* \"#utility.yul\":6814:6870   */\n      iszero\n      tag_128\n      jumpi\n        /* \"#utility.yul\":6850:6868   */\n      tag_129\n      tag_125\n      jump\t// in\n    tag_129:\n        /* \"#utility.yul\":6814:6870   */\n    tag_128:\n        /* \"#utility.yul\":6888:6917   */\n      tag_130\n        /* \"#utility.yul\":6910:6916   */\n      dup3\n        /* \"#utility.yul\":6888:6917   */\n      tag_90\n      jump\t// in\n    tag_130:\n        /* \"#utility.yul\":6880:6917   */\n      swap1\n      pop\n        /* \"#utility.yul\":6972:6976   */\n      0x20\n        /* \"#utility.yul\":6966:6970   */\n      dup2\n        /* \"#utility.yul\":6962:6977   */\n      add\n        /* \"#utility.yul\":6954:6977   */\n      swap1\n      pop\n        /* \"#utility.yul\":6676:6984   */\n      swap2\n      swap1\n      pop\n      jump\t// out\n        /* \"#utility.yul\":6990:7088   */\n    tag_84:\n        /* \"#utility.yul\":7041:7047   */\n      0x00\n        /* \"#utility.yul\":7075:7080   */\n      dup2\n        /* \"#utility.yul\":7069:7081   */\n      mload\n        /* \"#utility.yul\":7059:7081   */\n      swap1\n      pop\n        /* \"#utility.yul\":6990:7088   */\n      swap2\n      swap1\n      pop\n      jump\t// out\n        /* \"#utility.yul\":7094:7193   */\n    tag_94:\n        /* \"#utility.yul\":7146:7152   */\n      0x00\n        /* \"#utility.yul\":7180:7185   */\n      dup2\n        /* \"#utility.yul\":7174:7186   */\n      mload\n        /* \"#utility.yul\":7164:7186   */\n      swap1\n      pop\n        /* \"#utility.yul\":7094:7193   */\n      swap2\n      swap1\n      pop\n      jump\t// out\n        /* \"#utility.yul\":7199:7367   */\n    tag_86:\n        /* \"#utility.yul\":7282:7293   */\n      0x00\n        /* \"#utility.yul\":7316:7322   */\n      dup3\n        /* \"#utility.yul\":7311:7314   */\n      dup3\n        /* \"#utility.yul\":7304:7323   */\n      mstore\n        /* \"#utility.yul\":7356:7360   */\n      0x20\n        /* \"#utility.yul\":7351:7354   */\n      dup3\n        /* \"#utility.yul\":7347:7361   */\n      add\n        /* \"#utility.yul\":7332:7361   */\n      swap1\n      pop\n        /* \"#utility.yul\":7199:7367   */\n      swap3\n      swap2\n      pop\n      pop\n      jump\t// out\n        /* \"#utility.yul\":7373:7542   */\n    tag_96:\n        /* \"#utility.yul\":7457:7468   */\n      0x00\n        /* \"#utility.yul\":7491:7497   */\n      dup3\n        /* \"#utility.yul\":7486:7489   */\n      dup3\n        /* \"#utility.yul\":7479:7498   */\n      mstore\n        /* \"#utility.yul\":7531:7535   */\n      0x20\n        /* \"#utility.yul\":7526:7529   */\n      dup3\n        /* \"#utility.yul\":7522:7536   */\n      add\n        /* \"#utility.yul\":7507:7536   */\n      swap1\n      pop\n        /* \"#utility.yul\":7373:7542   */\n      swap3\n      swap2\n      pop\n      pop\n      jump\t// out\n        /* \"#utility.yul\":7548:7696   */\n    tag_103:\n        /* \"#utility.yul\":7650:7661   */\n      0x00\n        /* \"#utility.yul\":7687:7690   */\n      dup2\n        /* \"#utility.yul\":7672:7690   */\n      swap1\n      pop\n        /* \"#utility.yul\":7548:7696   */\n      swap3\n      swap2\n      pop\n      pop\n      jump\t// out\n        /* \"#utility.yul\":7702:7856   */\n    tag_41:\n        /* \"#utility.yul\":7786:7792   */\n      dup3\n        /* \"#utility.yul\":7781:7784   */\n      dup2\n        /* \"#utility.yul\":7776:7779   */\n      dup4\n        /* \"#utility.yul\":7763:7793   */\n      calldatacopy\n        /* \"#utility.yul\":7848:7849   */\n      0x00\n        /* \"#utility.yul\":7839:7845   */\n      dup4\n        /* \"#utility.yul\":7834:7837   */\n      dup4\n        /* \"#utility.yul\":7830:7846   */\n      add\n        /* \"#utility.yul\":7823:7850   */\n      mstore\n        /* \"#utility.yul\":7702:7856   */\n      pop\n      pop\n      pop\n      jump\t// out\n        /* \"#utility.yul\":7862:8169   */\n    tag_88:\n        /* \"#utility.yul\":7930:7931   */\n      0x00\n        /* \"#utility.yul\":7940:8053   */\n    tag_138:\n        /* \"#utility.yul\":7954:7960   */\n      dup4\n        /* \"#utility.yul\":7951:7952   */\n      dup2\n        /* \"#utility.yul\":7948:7961   */\n      lt\n        /* \"#utility.yul\":7940:8053   */\n      iszero\n      tag_140\n      jumpi\n        /* \"#utility.yul\":8039:8040   */\n      dup1\n        /* \"#utility.yul\":8034:8037   */\n      dup3\n        /* \"#utility.yul\":8030:8041   */\n      add\n        /* \"#utility.yul\":8024:8042   */\n      mload\n        /* \"#utility.yul\":8020:8021   */\n      dup2\n        /* \"#utility.yul\":8015:8018   */\n      dup5\n        /* \"#utility.yul\":8011:8022   */\n      add\n        /* \"#utility.yul\":8004:8043   */\n      mstore\n        /* \"#utility.yul\":7976:7978   */\n      0x20\n        /* \"#utility.yul\":7973:7974   */\n      dup2\n        /* \"#utility.yul\":7969:7979   */\n      add\n        /* \"#utility.yul\":7964:7979   */\n      swap1\n      pop\n        /* \"#utility.yul\":7940:8053   */\n      jump(tag_138)\n    tag_140:\n        /* \"#utility.yul\":8071:8077   */\n      dup4\n        /* \"#utility.yul\":8068:8069   */\n      dup2\n        /* \"#utility.yul\":8065:8078   */\n      gt\n        /* \"#utility.yul\":8062:8163   */\n      iszero\n      tag_141\n      jumpi\n        /* \"#utility.yul\":8151:8152   */\n      0x00\n        /* \"#utility.yul\":8142:8148   */\n      dup5\n        /* \"#utility.yul\":8137:8140   */\n      dup5\n        /* \"#utility.yul\":8133:8149   */\n      add\n        /* \"#utility.yul\":8126:8153   */\n      mstore\n        /* \"#utility.yul\":8062:8163   */\n    tag_141:\n        /* \"#utility.yul\":7911:8169   */\n      pop\n        /* \"#utility.yul\":7862:8169   */\n      pop\n      pop\n      pop\n      jump\t// out\n        /* \"#utility.yul\":8175:8456   */\n    tag_120:\n        /* \"#utility.yul\":8258:8285   */\n      tag_143\n        /* \"#utility.yul\":8280:8284   */\n      dup3\n        /* \"#utility.yul\":8258:8285   */\n      tag_90\n      jump\t// in\n    tag_143:\n        /* \"#utility.yul\":8250:8256   */\n      dup2\n        /* \"#utility.yul\":8246:8286   */\n      add\n        /* \"#utility.yul\":8388:8394   */\n      dup2\n        /* \"#utility.yul\":8376:8386   */\n      dup2\n        /* \"#utility.yul\":8373:8395   */\n      lt\n        /* \"#utility.yul\":8352:8370   */\n      0xffffffffffffffff\n        /* \"#utility.yul\":8340:8350   */\n      dup3\n        /* \"#utility.yul\":8337:8371   */\n      gt\n        /* \"#utility.yul\":8334:8396   */\n      or\n        /* \"#utility.yul\":8331:8419   */\n      iszero\n      tag_144\n      jumpi\n        /* \"#utility.yul\":8399:8417   */\n      tag_145\n      tag_125\n      jump\t// in\n    tag_145:\n        /* \"#utility.yul\":8331:8419   */\n    tag_144:\n        /* \"#utility.yul\":8439:8449   */\n      dup1\n        /* \"#utility.yul\":8435:8437   */\n      0x40\n        /* \"#utility.yul\":8428:8450   */\n      mstore\n        /* \"#utility.yul\":8218:8456   */\n      pop\n        /* \"#utility.yul\":8175:8456   */\n      pop\n      pop\n      jump\t// out\n        /* \"#utility.yul\":8462:8642   */\n    tag_125:\n        /* \"#utility.yul\":8510:8587   */\n      0x4e487b7100000000000000000000000000000000000000000000000000000000\n        /* \"#utility.yul\":8507:8508   */\n      0x00\n        /* \"#utility.yul\":8500:8588   */\n      mstore\n        /* \"#utility.yul\":8607:8611   */\n      0x41\n        /* \"#utility.yul\":8604:8605   */\n      0x04\n        /* \"#utility.yul\":8597:8612   */\n      mstore\n        /* \"#utility.yul\":8631:8635   */\n      0x24\n        /* \"#utility.yul\":8628:8629   */\n      0x00\n        /* \"#utility.yul\":8621:8636   */\n      revert\n        /* \"#utility.yul\":8648:8765   */\n    tag_54:\n        /* \"#utility.yul\":8757:8758   */\n      0x00\n        /* \"#utility.yul\":8754:8755   */\n      dup1\n        /* \"#utility.yul\":8747:8759   */\n      revert\n        /* \"#utility.yul\":8771:8888   */\n    tag_39:\n        /* \"#utility.yul\":8880:8881   */\n      0x00\n        /* \"#utility.yul\":8877:8878   */\n      dup1\n        /* \"#utility.yul\":8870:8882   */\n      revert\n        /* \"#utility.yul\":8894:9011   */\n    tag_67:\n        /* \"#utility.yul\":9003:9004   */\n      0x00\n        /* \"#utility.yul\":9000:9001   */\n      dup1\n        /* \"#utility.yul\":8993:9005   */\n      revert\n        /* \"#utility.yul\":9017:9134   */\n    tag_64:\n        /* \"#utility.yul\":9126:9127   */\n      0x00\n        /* \"#utility.yul\":9123:9124   */\n      dup1\n        /* \"#utility.yul\":9116:9128   */\n      revert\n        /* \"#utility.yul\":9140:9242   */\n    tag_90:\n        /* \"#utility.yul\":9181:9187   */\n      0x00\n        /* \"#utility.yul\":9232:9234   */\n      0x1f\n        /* \"#utility.yul\":9228:9235   */\n      not\n        /* \"#utility.yul\":9223:9225   */\n      0x1f\n        /* \"#utility.yul\":9216:9221   */\n      dup4\n        /* \"#utility.yul\":9212:9226   */\n      add\n        /* \"#utility.yul\":9208:9236   */\n      and\n        /* \"#utility.yul\":9198:9236   */\n      swap1\n      pop\n        /* \"#utility.yul\":9140:9242   */\n      swap2\n      swap1\n      pop\n      jump\t// out\n\n    auxdata: 0xa2646970667358221220a6d8633dc0b1ffce866d3b39ad8e375d7966b177520b741183e23eba229cd22e64736f6c63430008070033\n}\n",
				"bytecode": {
					"linkReferences": {},
					"object": "608060405234801561001057600080fd5b50610648806100206000396000f3fe608060405234801561001057600080fd5b50600436106100415760003560e01c806317fe2da21461004657806324a9516814610076578063892e5d01146100a6575b600080fd5b610060600480360381019061005b91906102b2565b6100d6565b60405161006d91906103f1565b60405180910390f35b610090600480360381019061008b919061023a565b610102565b60405161009d91906103f1565b60405180910390f35b6100c060048036038101906100bb91906102b2565b61012e565b6040516100cd91906103f1565b60405180910390f35b606082826040516020016100eb92919061044a565b604051602081830303815290604052905092915050565b60608282604051602001610117929190610413565b604051602081830303815290604052905092915050565b606082826040516020016101439291906103cd565b604051602081830303815290604052905092915050565b600061016d610168846104a6565b610481565b905082815260208101848484011115610189576101886105f2565b5b61019484828561054b565b509392505050565b60006101af6101aa846104d7565b610481565b9050828152602081018484840111156101cb576101ca6105f2565b5b6101d684828561054b565b509392505050565b600082601f8301126101f3576101f26105ed565b5b813561020384826020860161015a565b91505092915050565b600082601f830112610221576102206105ed565b5b813561023184826020860161019c565b91505092915050565b60008060408385031215610251576102506105fc565b5b600083013567ffffffffffffffff81111561026f5761026e6105f7565b5b61027b858286016101de565b925050602083013567ffffffffffffffff81111561029c5761029b6105f7565b5b6102a88582860161020c565b9150509250929050565b600080604083850312156102c9576102c86105fc565b5b600083013567ffffffffffffffff8111156102e7576102e66105f7565b5b6102f38582860161020c565b925050602083013567ffffffffffffffff811115610314576103136105f7565b5b6103208582860161020c565b9150509250929050565b600061033582610508565b61033f818561051e565b935061034f81856020860161055a565b61035881610601565b840191505092915050565b600061036e82610513565b610378818561052f565b935061038881856020860161055a565b61039181610601565b840191505092915050565b60006103a782610513565b6103b18185610540565b93506103c181856020860161055a565b80840191505092915050565b60006103d9828561039c565b91506103e5828461039c565b91508190509392505050565b6000602082019050818103600083015261040b818461032a565b905092915050565b6000604082019050818103600083015261042d818561032a565b905081810360208301526104418184610363565b90509392505050565b600060408201905081810360008301526104648185610363565b905081810360208301526104788184610363565b90509392505050565b600061048b61049c565b9050610497828261058d565b919050565b6000604051905090565b600067ffffffffffffffff8211156104c1576104c06105be565b5b6104ca82610601565b9050602081019050919050565b600067ffffffffffffffff8211156104f2576104f16105be565b5b6104fb82610601565b9050602081019050919050565b600081519050919050565b600081519050919050565b600082825260208201905092915050565b600082825260208201905092915050565b600081905092915050565b82818337600083830152505050565b60005b8381101561057857808201518184015260208101905061055d565b83811115610587576000848401525b50505050565b61059682610601565b810181811067ffffffffffffffff821117156105b5576105b46105be565b5b80604052505050565b7f4e487b7100000000000000000000000000000000000000000000000000000000600052604160045260246000fd5b600080fd5b600080fd5b600080fd5b600080fd5b6000601f19601f830116905091905056fea2646970667358221220a6d8633dc0b1ffce866d3b39ad8e375d7966b177520b741183e23eba229cd22e64736f6c63430008070033",
					"opcodes": "PUSH1 0x80 PUSH1 0x40 MSTORE CALLVALUE DUP1 ISZERO PUSH2 0x10 JUMPI PUSH1 0x0 DUP1 REVERT JUMPDEST POP PUSH2 0x648 DUP1 PUSH2 0x20 PUSH1 0x0 CODECOPY PUSH1 0x0 RETURN INVALID PUSH1 0x80 PUSH1 0x40 MSTORE CALLVALUE DUP1 ISZERO PUSH2 0x10 JUMPI PUSH1 0x0 DUP1 REVERT JUMPDEST POP PUSH1 0x4 CALLDATASIZE LT PUSH2 0x41 JUMPI PUSH1 0x0 CALLDATALOAD PUSH1 0xE0 SHR DUP1 PUSH4 0x17FE2DA2 EQ PUSH2 0x46 JUMPI DUP1 PUSH4 0x24A95168 EQ PUSH2 0x76 JUMPI DUP1 PUSH4 0x892E5D01 EQ PUSH2 0xA6 JUMPI JUMPDEST PUSH1 0x0 DUP1 REVERT JUMPDEST PUSH2 0x60 PUSH1 0x4 DUP1 CALLDATASIZE SUB DUP2 ADD SWAP1 PUSH2 0x5B SWAP2 SWAP1 PUSH2 0x2B2 JUMP JUMPDEST PUSH2 0xD6 JUMP JUMPDEST PUSH1 0x40 MLOAD PUSH2 0x6D SWAP2 SWAP1 PUSH2 0x3F1 JUMP JUMPDEST PUSH1 0x40 MLOAD DUP1 SWAP2 SUB SWAP1 RETURN JUMPDEST PUSH2 0x90 PUSH1 0x4 DUP1 CALLDATASIZE SUB DUP2 ADD SWAP1 PUSH2 0x8B SWAP2 SWAP1 PUSH2 0x23A JUMP JUMPDEST PUSH2 0x102 JUMP JUMPDEST PUSH1 0x40 MLOAD PUSH2 0x9D SWAP2 SWAP1 PUSH2 0x3F1 JUMP JUMPDEST PUSH1 0x40 MLOAD DUP1 SWAP2 SUB SWAP1 RETURN JUMPDEST PUSH2 0xC0 PUSH1 0x4 DUP1 CALLDATASIZE SUB DUP2 ADD SWAP1 PUSH2 0xBB SWAP2 SWAP1 PUSH2 0x2B2 JUMP JUMPDEST PUSH2 0x12E JUMP JUMPDEST PUSH1 0x40 MLOAD PUSH2 0xCD SWAP2 SWAP1 PUSH2 0x3F1 JUMP JUMPDEST PUSH1 0x40 MLOAD DUP1 SWAP2 SUB SWAP1 RETURN JUMPDEST PUSH1 0x60 DUP3 DUP3 PUSH1 0x40 MLOAD PUSH1 0x20 ADD PUSH2 0xEB SWAP3 SWAP2 SWAP1 PUSH2 0x44A JUMP JUMPDEST PUSH1 0x40 MLOAD PUSH1 0x20 DUP2 DUP4 SUB SUB DUP2 MSTORE SWAP1 PUSH1 0x40 MSTORE SWAP1 POP SWAP3 SWAP2 POP POP JUMP JUMPDEST PUSH1 0x60 DUP3 DUP3 PUSH1 0x40 MLOAD PUSH1 0x20 ADD PUSH2 0x117 SWAP3 SWAP2 SWAP1 PUSH2 0x413 JUMP JUMPDEST PUSH1 0x40 MLOAD PUSH1 0x20 DUP2 DUP4 SUB SUB DUP2 MSTORE SWAP1 PUSH1 0x40 MSTORE SWAP1 POP SWAP3 SWAP2 POP POP JUMP JUMPDEST PUSH1 0x60 DUP3 DUP3 PUSH1 0x40 MLOAD PUSH1 0x20 ADD PUSH2 0x143 SWAP3 SWAP2 SWAP1 PUSH2 0x3CD JUMP JUMPDEST PUSH1 0x40 MLOAD PUSH1 0x20 DUP2 DUP4 SUB SUB DUP2 MSTORE SWAP1 PUSH1 0x40 MSTORE SWAP1 POP SWAP3 SWAP2 POP POP JUMP JUMPDEST PUSH1 0x0 PUSH2 0x16D PUSH2 0x168 DUP5 PUSH2 0x4A6 JUMP JUMPDEST PUSH2 0x481 JUMP JUMPDEST SWAP1 POP DUP3 DUP2 MSTORE PUSH1 0x20 DUP2 ADD DUP5 DUP5 DUP5 ADD GT ISZERO PUSH2 0x189 JUMPI PUSH2 0x188 PUSH2 0x5F2 JUMP JUMPDEST JUMPDEST PUSH2 0x194 DUP5 DUP3 DUP6 PUSH2 0x54B JUMP JUMPDEST POP SWAP4 SWAP3 POP POP POP JUMP JUMPDEST PUSH1 0x0 PUSH2 0x1AF PUSH2 0x1AA DUP5 PUSH2 0x4D7 JUMP JUMPDEST PUSH2 0x481 JUMP JUMPDEST SWAP1 POP DUP3 DUP2 MSTORE PUSH1 0x20 DUP2 ADD DUP5 DUP5 DUP5 ADD GT ISZERO PUSH2 0x1CB JUMPI PUSH2 0x1CA PUSH2 0x5F2 JUMP JUMPDEST JUMPDEST PUSH2 0x1D6 DUP5 DUP3 DUP6 PUSH2 0x54B JUMP JUMPDEST POP SWAP4 SWAP3 POP POP POP JUMP JUMPDEST PUSH1 0x0 DUP3 PUSH1 0x1F DUP4 ADD SLT PUSH2 0x1F3 JUMPI PUSH2 0x1F2 PUSH2 0x5ED JUMP JUMPDEST JUMPDEST DUP2 CALLDATALOAD PUSH2 0x203 DUP5 DUP3 PUSH1 0x20 DUP7 ADD PUSH2 0x15A JUMP JUMPDEST SWAP2 POP POP SWAP3 SWAP2 POP POP JUMP JUMPDEST PUSH1 0x0 DUP3 PUSH1 0x1F DUP4 ADD SLT PUSH2 0x221 JUMPI PUSH2 0x220 PUSH2 0x5ED JUMP JUMPDEST JUMPDEST DUP2 CALLDATALOAD PUSH2 0x231 DUP5 DUP3 PUSH1 0x20 DUP7 ADD PUSH2 0x19C JUMP JUMPDEST SWAP2 POP POP SWAP3 SWAP2 POP POP JUMP JUMPDEST PUSH1 0x0 DUP1 PUSH1 0x40 DUP4 DUP6 SUB SLT ISZERO PUSH2 0x251 JUMPI PUSH2 0x250 PUSH2 0x5FC JUMP JUMPDEST JUMPDEST PUSH1 0x0 DUP4 ADD CALLDATALOAD PUSH8 0xFFFFFFFFFFFFFFFF DUP2 GT ISZERO PUSH2 0x26F JUMPI PUSH2 0x26E PUSH2 0x5F7 JUMP JUMPDEST JUMPDEST PUSH2 0x27B DUP6 DUP3 DUP7 ADD PUSH2 0x1DE JUMP JUMPDEST SWAP3 POP POP PUSH1 0x20 DUP4 ADD CALLDATALOAD PUSH8 0xFFFFFFFFFFFFFFFF DUP2 GT ISZERO PUSH2 0x29C JUMPI PUSH2 0x29B PUSH2 0x5F7 JUMP JUMPDEST JUMPDEST PUSH2 0x2A8 DUP6 DUP3 DUP7 ADD PUSH2 0x20C JUMP JUMPDEST SWAP2 POP POP SWAP3 POP SWAP3 SWAP1 POP JUMP JUMPDEST PUSH1 0x0 DUP1 PUSH1 0x40 DUP4 DUP6 SUB SLT ISZERO PUSH2 0x2C9 JUMPI PUSH2 0x2C8 PUSH2 0x5FC JUMP JUMPDEST JUMPDEST PUSH1 0x0 DUP4 ADD CALLDATALOAD PUSH8 0xFFFFFFFFFFFFFFFF DUP2 GT ISZERO PUSH2 0x2E7 JUMPI PUSH2 0x2E6 PUSH2 0x5F7 JUMP JUMPDEST JUMPDEST PUSH2 0x2F3 DUP6 DUP3 DUP7 ADD PUSH2 0x20C JUMP JUMPDEST SWAP3 POP POP PUSH1 0x20 DUP4 ADD CALLDATALOAD PUSH8 0xFFFFFFFFFFFFFFFF DUP2 GT ISZERO PUSH2 0x314 JUMPI PUSH2 0x313 PUSH2 0x5F7 JUMP JUMPDEST JUMPDEST PUSH2 0x320 DUP6 DUP3 DUP7 ADD PUSH2 0x20C JUMP JUMPDEST SWAP2 POP POP SWAP3 POP SWAP3 SWAP1 POP JUMP JUMPDEST PUSH1 0x0 PUSH2 0x335 DUP3 PUSH2 0x508 JUMP JUMPDEST PUSH2 0x33F DUP2 DUP6 PUSH2 0x51E JUMP JUMPDEST SWAP4 POP PUSH2 0x34F DUP2 DUP6 PUSH1 0x20 DUP7 ADD PUSH2 0x55A JUMP JUMPDEST PUSH2 0x358 DUP2 PUSH2 0x601 JUMP JUMPDEST DUP5 ADD SWAP2 POP POP SWAP3 SWAP2 POP POP JUMP JUMPDEST PUSH1 0x0 PUSH2 0x36E DUP3 PUSH2 0x513 JUMP JUMPDEST PUSH2 0x378 DUP2 DUP6 PUSH2 0x52F JUMP JUMPDEST SWAP4 POP PUSH2 0x388 DUP2 DUP6 PUSH1 0x20 DUP7 ADD PUSH2 0x55A JUMP JUMPDEST PUSH2 0x391 DUP2 PUSH2 0x601 JUMP JUMPDEST DUP5 ADD SWAP2 POP POP SWAP3 SWAP2 POP POP JUMP JUMPDEST PUSH1 0x0 PUSH2 0x3A7 DUP3 PUSH2 0x513 JUMP JUMPDEST PUSH2 0x3B1 DUP2 DUP6 PUSH2 0x540 JUMP JUMPDEST SWAP4 POP PUSH2 0x3C1 DUP2 DUP6 PUSH1 0x20 DUP7 ADD PUSH2 0x55A JUMP JUMPDEST DUP1 DUP5 ADD SWAP2 POP POP SWAP3 SWAP2 POP POP JUMP JUMPDEST PUSH1 0x0 PUSH2 0x3D9 DUP3 DUP6 PUSH2 0x39C JUMP JUMPDEST SWAP2 POP PUSH2 0x3E5 DUP3 DUP5 PUSH2 0x39C JUMP JUMPDEST SWAP2 POP DUP2 SWAP1 POP SWAP4 SWAP3 POP POP POP JUMP JUMPDEST PUSH1 0x0 PUSH1 0x20 DUP3 ADD SWAP1 POP DUP2 DUP2 SUB PUSH1 0x0 DUP4 ADD MSTORE PUSH2 0x40B DUP2 DUP5 PUSH2 0x32A JUMP JUMPDEST SWAP1 POP SWAP3 SWAP2 POP POP JUMP JUMPDEST PUSH1 0x0 PUSH1 0x40 DUP3 ADD SWAP1 POP DUP2 DUP2 SUB PUSH1 0x0 DUP4 ADD MSTORE PUSH2 0x42D DUP2 DUP6 PUSH2 0x32A JUMP JUMPDEST SWAP1 POP DUP2 DUP2 SUB PUSH1 0x20 DUP4 ADD MSTORE PUSH2 0x441 DUP2 DUP5 PUSH2 0x363 JUMP JUMPDEST SWAP1 POP SWAP4 SWAP3 POP POP POP JUMP JUMPDEST PUSH1 0x0 PUSH1 0x40 DUP3 ADD SWAP1 POP DUP2 DUP2 SUB PUSH1 0x0 DUP4 ADD MSTORE PUSH2 0x464 DUP2 DUP6 PUSH2 0x363 JUMP JUMPDEST SWAP1 POP DUP2 DUP2 SUB PUSH1 0x20 DUP4 ADD MSTORE PUSH2 0x478 DUP2 DUP5 PUSH2 0x363 JUMP JUMPDEST SWAP1 POP SWAP4 SWAP3 POP POP POP JUMP JUMPDEST PUSH1 0x0 PUSH2 0x48B PUSH2 0x49C JUMP JUMPDEST SWAP1 POP PUSH2 0x497 DUP3 DUP3 PUSH2 0x58D JUMP JUMPDEST SWAP2 SWAP1 POP JUMP JUMPDEST PUSH1 0x0 PUSH1 0x40 MLOAD SWAP1 POP SWAP1 JUMP JUMPDEST PUSH1 0x0 PUSH8 0xFFFFFFFFFFFFFFFF DUP3 GT ISZERO PUSH2 0x4C1 JUMPI PUSH2 0x4C0 PUSH2 0x5BE JUMP JUMPDEST JUMPDEST PUSH2 0x4CA DUP3 PUSH2 0x601 JUMP JUMPDEST SWAP1 POP PUSH1 0x20 DUP2 ADD SWAP1 POP SWAP2 SWAP1 POP JUMP JUMPDEST PUSH1 0x0 PUSH8 0xFFFFFFFFFFFFFFFF DUP3 GT ISZERO PUSH2 0x4F2 JUMPI PUSH2 0x4F1 PUSH2 0x5BE JUMP JUMPDEST JUMPDEST PUSH2 0x4FB DUP3 PUSH2 0x601 JUMP JUMPDEST SWAP1 POP PUSH1 0x20 DUP2 ADD SWAP1 POP SWAP2 SWAP1 POP JUMP JUMPDEST PUSH1 0x0 DUP2 MLOAD SWAP1 POP SWAP2 SWAP1 POP JUMP JUMPDEST PUSH1 0x0 DUP2 MLOAD SWAP1 POP SWAP2 SWAP1 POP JUMP JUMPDEST PUSH1 0x0 DUP3 DUP3 MSTORE PUSH1 0x20 DUP3 ADD SWAP1 POP SWAP3 SWAP2 POP POP JUMP JUMPDEST PUSH1 0x0 DUP3 DUP3 MSTORE PUSH1 0x20 DUP3 ADD SWAP1 POP SWAP3 SWAP2 POP POP JUMP JUMPDEST PUSH1 0x0 DUP2 SWAP1 POP SWAP3 SWAP2 POP POP JUMP JUMPDEST DUP3 DUP2 DUP4 CALLDATACOPY PUSH1 0x0 DUP4 DUP4 ADD MSTORE POP POP POP JUMP JUMPDEST PUSH1 0x0 JUMPDEST DUP4 DUP2 LT ISZERO PUSH2 0x578 JUMPI DUP1 DUP3 ADD MLOAD DUP2 DUP5 ADD MSTORE PUSH1 0x20 DUP2 ADD SWAP1 POP PUSH2 0x55D JUMP JUMPDEST DUP4 DUP2 GT ISZERO PUSH2 0x587 JUMPI PUSH1 0x0 DUP5 DUP5 ADD MSTORE JUMPDEST POP POP POP POP JUMP JUMPDEST PUSH2 0x596 DUP3 PUSH2 0x601 JUMP JUMPDEST DUP2 ADD DUP2 DUP2 LT PUSH8 0xFFFFFFFFFFFFFFFF DUP3 GT OR ISZERO PUSH2 0x5B5 JUMPI PUSH2 0x5B4 PUSH2 0x5BE JUMP JUMPDEST JUMPDEST DUP1 PUSH1 0x40 MSTORE POP POP POP JUMP JUMPDEST PUSH32 0x4E487B7100000000000000000000000000000000000000000000000000000000 PUSH1 0x0 MSTORE PUSH1 0x41 PUSH1 0x4 MSTORE PUSH1 0x24 PUSH1 0x0 REVERT JUMPDEST PUSH1 0x0 DUP1 REVERT JUMPDEST PUSH1 0x0 DUP1 REVERT JUMPDEST PUSH1 0x0 DUP1 REVERT JUMPDEST PUSH1 0x0 DUP1 REVERT JUMPDEST PUSH1 0x0 PUSH1 0x1F NOT PUSH1 0x1F DUP4 ADD AND SWAP1 POP SWAP2 SWAP1 POP JUMP INVALID LOG2 PUSH5 0x6970667358 0x22 SLT KECCAK256 0xA6 0xD8 PUSH4 0x3DC0B1FF 0xCE DUP7 PUSH14 0x3B39AD8E375D7966B177520B7411 DUP4 0xE2 RETURNDATACOPY 0xBA 0x22 SWAP13 0xD2 0x2E PUSH5 0x736F6C6343 STOP ADDMOD SMOD STOP CALLER "
				},
				"gasEstimates": {
					"creation": {
						"codeDepositCost": "321600",
						"executionCost": "362",
						"totalCost": "321962"
					},
					"external": {
						"encode(string,string)": "infinite",
						"encodeBytes(bytes,string)": "infinite",
						"encodePacked(string,string)": "infinite"
					}
				},
				"methodIdentifiers": {
					"encode(string,string)": "17fe2da2",
					"encodeBytes(bytes,string)": "24a95168",
					"encodePacked(string,string)": "892e5d01"
				}
			},
			"storageLayout": {
				"storage": [],
				"types": null
			},
			"userdoc": {
				"kind": "user",
				"methods": {},
				"version": 1
			}
		}
	}
}