{
	"Week5/Keccak256.sol": {
		"Keccak256": {
			"abi": [
				{
					"inputs": [
						{
							"internalType": "string",
							"name": "s1",
							"type": "string"
						},
						{
							"internalType": "string",
							"name": "s2",
							"type": "string"
						}
					],
					"name": "encode",
					"outputs": [
						{
							"internalType": "bytes",
							"name": "",
							"type": "bytes"
						}
					],
					"stateMutability": "pure",
					"type": "function"
				},
				{
					"inputs": [
						{
							"internalType": "string",
							"name": "s1",
							"type": "string"
						},
						{
							"internalType": "string",
							"name": "s2",
							"type": "string"
						}
					],
					"name": "encodeB",
					"outputs": [
						{
							"internalType": "bytes",
							"name": "",
							"type": "bytes"
						}
					],
					"stateMutability": "pure",
					"type": "function"
				},
				{
					"inputs": [
						{
							"internalType": "string",
							"name": "s1",
							"type": "string"
						},
						{
							"internalType": "string",
							"name": "s2",
							"type": "string"
						}
					],
					"name": "encodePacked",
					"outputs": [
						{
							"internalType": "bytes",
							"name": "",
							"type": "bytes"
						}
					],
					"stateMutability": "pure",
					"type": "function"
				}
			],
			"devdoc": {
				"kind": "dev",
				"methods": {},
				"version": 1
			},
			"evm": {
				"assembly": "    /* \"Week5/Keccak256.sol\":70:512  contract Keccak256 {... */\n  mstore(0x40, 0x80)\n  callvalue\n  dup1\n  iszero\n  tag_1\n  jumpi\n  0x00\n  dup1\n  revert\ntag_1:\n  pop\n  dataSize(sub_0)\n  dup1\n  dataOffset(sub_0)\n  0x00\n  codecopy\n  0x00\n  return\nstop\n\nsub_0: assembly {\n        /* \"Week5/Keccak256.sol\":70:512  contract Keccak256 {... */\n      mstore(0x40, 0x80)\n      callvalue\n      dup1\n      iszero\n      tag_1\n      jumpi\n      0x00\n      dup1\n      revert\n    tag_1:\n      pop\n      jumpi(tag_2, lt(calldatasize, 0x04))\n      shr(0xe0, calldataload(0x00))\n      dup1\n      0x17fe2da2\n      eq\n      tag_3\n      jumpi\n      dup1\n      0x892e5d01\n      eq\n      tag_4\n      jumpi\n      dup1\n      0x8e66f9f2\n      eq\n      tag_5\n      jumpi\n    tag_2:\n      0x00\n      dup1\n      revert\n        /* \"Week5/Keccak256.sol\":95:225  function encode(string memory s1, string memory s2) external pure returns(bytes memory) {... */\n    tag_3:\n      tag_6\n      0x04\n      dup1\n      calldatasize\n      sub\n      dup2\n      add\n      swap1\n      tag_7\n      swap2\n      swap1\n      tag_8\n      jump\t// in\n    tag_7:\n      tag_9\n      jump\t// in\n    tag_6:\n      mload(0x40)\n      tag_10\n      swap2\n      swap1\n      tag_11\n      jump\t// in\n    tag_10:\n      mload(0x40)\n      dup1\n      swap2\n      sub\n      swap1\n      return\n        /* \"Week5/Keccak256.sol\":368:510  function encodePacked(string memory s1, string memory s2) external pure returns(bytes memory) {... */\n    tag_4:\n      tag_12\n      0x04\n      dup1\n      calldatasize\n      sub\n      dup2\n      add\n      swap1\n      tag_13\n      swap2\n      swap1\n      tag_8\n      jump\t// in\n    tag_13:\n      tag_14\n      jump\t// in\n    tag_12:\n      mload(0x40)\n      tag_15\n      swap2\n      swap1\n      tag_11\n      jump\t// in\n    tag_15:\n      mload(0x40)\n      dup1\n      swap2\n      sub\n      swap1\n      return\n        /* \"Week5/Keccak256.sol\":231:362  function encodeB(string memory s1, string memory s2) external pure returns(bytes memory) {... */\n    tag_5:\n      tag_16\n      0x04\n      dup1\n      calldatasize\n      sub\n      dup2\n      add\n      swap1\n      tag_17\n      swap2\n      swap1\n      tag_8\n      jump\t// in\n    tag_17:\n      tag_18\n      jump\t// in\n    tag_16:\n      mload(0x40)\n      tag_19\n      swap2\n      swap1\n      tag_11\n      jump\t// in\n    tag_19:\n      mload(0x40)\n      dup1\n      swap2\n      sub\n      swap1\n      return\n        /* \"Week5/Keccak256.sol\":95:225  function encode(string memory s1, string memory s2) external pure returns(bytes memory) {... */\n    tag_9:\n        /* \"Week5/Keccak256.sol\":169:181  bytes memory */\n      0x60\n        /* \"Week5/Keccak256.sol\":211:213  s1 */\n      dup3\n        /* \"Week5/Keccak256.sol\":215:217  s2 */\n      dup3\n        /* \"Week5/Keccak256.sol\":200:218  abi.encode(s1, s2) */\n      add(0x20, mload(0x40))\n      tag_21\n      swap3\n      swap2\n      swap1\n      tag_22\n      jump\t// in\n    tag_21:\n      mload(0x40)\n      0x20\n      dup2\n      dup4\n      sub\n      sub\n      dup2\n      mstore\n      swap1\n      0x40\n      mstore\n        /* \"Week5/Keccak256.sol\":193:218  return abi.encode(s1, s2) */\n      swap1\n      pop\n        /* \"Week5/Keccak256.sol\":95:225  function encode(string memory s1, string memory s2) external pure returns(bytes memory) {... */\n      swap3\n      swap2\n      pop\n      pop\n      jump\t// out\n        /* \"Week5/Keccak256.sol\":368:510  function encodePacked(string memory s1, string memory s2) external pure returns(bytes memory) {... */\n    tag_14:\n        /* \"Week5/Keccak256.sol\":448:460  bytes memory */\n      0x60\n        /* \"Week5/Keccak256.sol\":496:498  s1 */\n      dup3\n        /* \"Week5/Keccak256.sol\":500:502  s2 */\n      dup3\n        /* \"Week5/Keccak256.sol\":479:503  abi.encodePacked(s1, s2) */\n      add(0x20, mload(0x40))\n      tag_24\n      swap3\n      swap2\n      swap1\n      tag_25\n      jump\t// in\n    tag_24:\n      mload(0x40)\n      0x20\n      dup2\n      dup4\n      sub\n      sub\n      dup2\n      mstore\n      swap1\n      0x40\n      mstore\n        /* \"Week5/Keccak256.sol\":472:503  return abi.encodePacked(s1, s2) */\n      swap1\n      pop\n        /* \"Week5/Keccak256.sol\":368:510  function encodePacked(string memory s1, string memory s2) external pure returns(bytes memory) {... */\n      swap3\n      swap2\n      pop\n      pop\n      jump\t// out\n        /* \"Week5/Keccak256.sol\":231:362  function encodeB(string memory s1, string memory s2) external pure returns(bytes memory) {... */\n    tag_18:\n        /* \"Week5/Keccak256.sol\":306:318  bytes memory */\n      0x60\n        /* \"Week5/Keccak256.sol\":348:350  s1 */\n      dup3\n        /* \"Week5/Keccak256.sol\":352:354  s2 */\n      dup3\n        /* \"Week5/Keccak256.sol\":337:355  abi.encode(s1, s2) */\n      add(0x20, mload(0x40))\n      tag_27\n      swap3\n      swap2\n      swap1\n      tag_22\n      jump\t// in\n    tag_27:\n      mload(0x40)\n      0x20\n      dup2\n      dup4\n      sub\n      sub\n      dup2\n      mstore\n      swap1\n      0x40\n      mstore\n        /* \"Week5/Keccak256.sol\":330:355  return abi.encode(s1, s2) */\n      swap1\n      pop\n        /* \"Week5/Keccak256.sol\":231:362  function encodeB(string memory s1, string memory s2) external pure returns(bytes memory) {... */\n      swap3\n      swap2\n      pop\n      pop\n      jump\t// out\n        /* \"#utility.yul\":7:419   */\n    tag_29:\n        /* \"#utility.yul\":85:90   */\n      0x00\n        /* \"#utility.yul\":110:176   */\n      tag_31\n        /* \"#utility.yul\":126:175   */\n      tag_32\n        /* \"#utility.yul\":168:174   */\n      dup5\n        /* \"#utility.yul\":126:175   */\n      tag_33\n      jump\t// in\n    tag_32:\n        /* \"#utility.yul\":110:176   */\n      tag_34\n      jump\t// in\n    tag_31:\n        /* \"#utility.yul\":101:176   */\n      swap1\n      pop\n        /* \"#utility.yul\":199:205   */\n      dup3\n        /* \"#utility.yul\":192:197   */\n      dup2\n        /* \"#utility.yul\":185:206   */\n      mstore\n        /* \"#utility.yul\":237:241   */\n      0x20\n        /* \"#utility.yul\":230:235   */\n      dup2\n        /* \"#utility.yul\":226:242   */\n      add\n        /* \"#utility.yul\":275:278   */\n      dup5\n        /* \"#utility.yul\":266:272   */\n      dup5\n        /* \"#utility.yul\":261:264   */\n      dup5\n        /* \"#utility.yul\":257:273   */\n      add\n        /* \"#utility.yul\":254:279   */\n      gt\n        /* \"#utility.yul\":251:363   */\n      iszero\n      tag_35\n      jumpi\n        /* \"#utility.yul\":282:361   */\n      tag_36\n      tag_37\n      jump\t// in\n    tag_36:\n        /* \"#utility.yul\":251:363   */\n    tag_35:\n        /* \"#utility.yul\":372:413   */\n      tag_38\n        /* \"#utility.yul\":406:412   */\n      dup5\n        /* \"#utility.yul\":401:404   */\n      dup3\n        /* \"#utility.yul\":396:399   */\n      dup6\n        /* \"#utility.yul\":372:413   */\n      tag_39\n      jump\t// in\n    tag_38:\n        /* \"#utility.yul\":91:419   */\n      pop\n        /* \"#utility.yul\":7:419   */\n      swap4\n      swap3\n      pop\n      pop\n      pop\n      jump\t// out\n        /* \"#utility.yul\":439:779   */\n    tag_40:\n        /* \"#utility.yul\":495:500   */\n      0x00\n        /* \"#utility.yul\":544:547   */\n      dup3\n        /* \"#utility.yul\":537:541   */\n      0x1f\n        /* \"#utility.yul\":529:535   */\n      dup4\n        /* \"#utility.yul\":525:542   */\n      add\n        /* \"#utility.yul\":521:548   */\n      slt\n        /* \"#utility.yul\":511:633   */\n      tag_42\n      jumpi\n        /* \"#utility.yul\":552:631   */\n      tag_43\n      tag_44\n      jump\t// in\n    tag_43:\n        /* \"#utility.yul\":511:633   */\n    tag_42:\n        /* \"#utility.yul\":669:675   */\n      dup2\n        /* \"#utility.yul\":656:676   */\n      calldataload\n        /* \"#utility.yul\":694:773   */\n      tag_45\n        /* \"#utility.yul\":769:772   */\n      dup5\n        /* \"#utility.yul\":761:767   */\n      dup3\n        /* \"#utility.yul\":754:758   */\n      0x20\n        /* \"#utility.yul\":746:752   */\n      dup7\n        /* \"#utility.yul\":742:759   */\n      add\n        /* \"#utility.yul\":694:773   */\n      tag_29\n      jump\t// in\n    tag_45:\n        /* \"#utility.yul\":685:773   */\n      swap2\n      pop\n        /* \"#utility.yul\":501:779   */\n      pop\n        /* \"#utility.yul\":439:779   */\n      swap3\n      swap2\n      pop\n      pop\n      jump\t// out\n        /* \"#utility.yul\":785:1619   */\n    tag_8:\n        /* \"#utility.yul\":873:879   */\n      0x00\n        /* \"#utility.yul\":881:887   */\n      dup1\n        /* \"#utility.yul\":930:932   */\n      0x40\n        /* \"#utility.yul\":918:927   */\n      dup4\n        /* \"#utility.yul\":909:916   */\n      dup6\n        /* \"#utility.yul\":905:928   */\n      sub\n        /* \"#utility.yul\":901:933   */\n      slt\n        /* \"#utility.yul\":898:1017   */\n      iszero\n      tag_47\n      jumpi\n        /* \"#utility.yul\":936:1015   */\n      tag_48\n      tag_49\n      jump\t// in\n    tag_48:\n        /* \"#utility.yul\":898:1017   */\n    tag_47:\n        /* \"#utility.yul\":1084:1085   */\n      0x00\n        /* \"#utility.yul\":1073:1082   */\n      dup4\n        /* \"#utility.yul\":1069:1086   */\n      add\n        /* \"#utility.yul\":1056:1087   */\n      calldataload\n        /* \"#utility.yul\":1114:1132   */\n      0xffffffffffffffff\n        /* \"#utility.yul\":1106:1112   */\n      dup2\n        /* \"#utility.yul\":1103:1133   */\n      gt\n        /* \"#utility.yul\":1100:1217   */\n      iszero\n      tag_50\n      jumpi\n        /* \"#utility.yul\":1136:1215   */\n      tag_51\n      tag_52\n      jump\t// in\n    tag_51:\n        /* \"#utility.yul\":1100:1217   */\n    tag_50:\n        /* \"#utility.yul\":1241:1304   */\n      tag_53\n        /* \"#utility.yul\":1296:1303   */\n      dup6\n        /* \"#utility.yul\":1287:1293   */\n      dup3\n        /* \"#utility.yul\":1276:1285   */\n      dup7\n        /* \"#utility.yul\":1272:1294   */\n      add\n        /* \"#utility.yul\":1241:1304   */\n      tag_40\n      jump\t// in\n    tag_53:\n        /* \"#utility.yul\":1231:1304   */\n      swap3\n      pop\n        /* \"#utility.yul\":1027:1314   */\n      pop\n        /* \"#utility.yul\":1381:1383   */\n      0x20\n        /* \"#utility.yul\":1370:1379   */\n      dup4\n        /* \"#utility.yul\":1366:1384   */\n      add\n        /* \"#utility.yul\":1353:1385   */\n      calldataload\n        /* \"#utility.yul\":1412:1430   */\n      0xffffffffffffffff\n        /* \"#utility.yul\":1404:1410   */\n      dup2\n        /* \"#utility.yul\":1401:1431   */\n      gt\n        /* \"#utility.yul\":1398:1515   */\n      iszero\n      tag_54\n      jumpi\n        /* \"#utility.yul\":1434:1513   */\n      tag_55\n      tag_52\n      jump\t// in\n    tag_55:\n        /* \"#utility.yul\":1398:1515   */\n    tag_54:\n        /* \"#utility.yul\":1539:1602   */\n      tag_56\n        /* \"#utility.yul\":1594:1601   */\n      dup6\n        /* \"#utility.yul\":1585:1591   */\n      dup3\n        /* \"#utility.yul\":1574:1583   */\n      dup7\n        /* \"#utility.yul\":1570:1592   */\n      add\n        /* \"#utility.yul\":1539:1602   */\n      tag_40\n      jump\t// in\n    tag_56:\n        /* \"#utility.yul\":1529:1602   */\n      swap2\n      pop\n        /* \"#utility.yul\":1324:1612   */\n      pop\n        /* \"#utility.yul\":785:1619   */\n      swap3\n      pop\n      swap3\n      swap1\n      pop\n      jump\t// out\n        /* \"#utility.yul\":1625:1985   */\n    tag_57:\n        /* \"#utility.yul\":1711:1714   */\n      0x00\n        /* \"#utility.yul\":1739:1777   */\n      tag_59\n        /* \"#utility.yul\":1771:1776   */\n      dup3\n        /* \"#utility.yul\":1739:1777   */\n      tag_60\n      jump\t// in\n    tag_59:\n        /* \"#utility.yul\":1793:1863   */\n      tag_61\n        /* \"#utility.yul\":1856:1862   */\n      dup2\n        /* \"#utility.yul\":1851:1854   */\n      dup6\n        /* \"#utility.yul\":1793:1863   */\n      tag_62\n      jump\t// in\n    tag_61:\n        /* \"#utility.yul\":1786:1863   */\n      swap4\n      pop\n        /* \"#utility.yul\":1872:1924   */\n      tag_63\n        /* \"#utility.yul\":1917:1923   */\n      dup2\n        /* \"#utility.yul\":1912:1915   */\n      dup6\n        /* \"#utility.yul\":1905:1909   */\n      0x20\n        /* \"#utility.yul\":1898:1903   */\n      dup7\n        /* \"#utility.yul\":1894:1910   */\n      add\n        /* \"#utility.yul\":1872:1924   */\n      tag_64\n      jump\t// in\n    tag_63:\n        /* \"#utility.yul\":1949:1978   */\n      tag_65\n        /* \"#utility.yul\":1971:1977   */\n      dup2\n        /* \"#utility.yul\":1949:1978   */\n      tag_66\n      jump\t// in\n    tag_65:\n        /* \"#utility.yul\":1944:1947   */\n      dup5\n        /* \"#utility.yul\":1940:1979   */\n      add\n        /* \"#utility.yul\":1933:1979   */\n      swap2\n      pop\n        /* \"#utility.yul\":1715:1985   */\n      pop\n        /* \"#utility.yul\":1625:1985   */\n      swap3\n      swap2\n      pop\n      pop\n      jump\t// out\n        /* \"#utility.yul\":1991:2355   */\n    tag_67:\n        /* \"#utility.yul\":2079:2082   */\n      0x00\n        /* \"#utility.yul\":2107:2146   */\n      tag_69\n        /* \"#utility.yul\":2140:2145   */\n      dup3\n        /* \"#utility.yul\":2107:2146   */\n      tag_70\n      jump\t// in\n    tag_69:\n        /* \"#utility.yul\":2162:2233   */\n      tag_71\n        /* \"#utility.yul\":2226:2232   */\n      dup2\n        /* \"#utility.yul\":2221:2224   */\n      dup6\n        /* \"#utility.yul\":2162:2233   */\n      tag_72\n      jump\t// in\n    tag_71:\n        /* \"#utility.yul\":2155:2233   */\n      swap4\n      pop\n        /* \"#utility.yul\":2242:2294   */\n      tag_73\n        /* \"#utility.yul\":2287:2293   */\n      dup2\n        /* \"#utility.yul\":2282:2285   */\n      dup6\n        /* \"#utility.yul\":2275:2279   */\n      0x20\n        /* \"#utility.yul\":2268:2273   */\n      dup7\n        /* \"#utility.yul\":2264:2280   */\n      add\n        /* \"#utility.yul\":2242:2294   */\n      tag_64\n      jump\t// in\n    tag_73:\n        /* \"#utility.yul\":2319:2348   */\n      tag_74\n        /* \"#utility.yul\":2341:2347   */\n      dup2\n        /* \"#utility.yul\":2319:2348   */\n      tag_66\n      jump\t// in\n    tag_74:\n        /* \"#utility.yul\":2314:2317   */\n      dup5\n        /* \"#utility.yul\":2310:2349   */\n      add\n        /* \"#utility.yul\":2303:2349   */\n      swap2\n      pop\n        /* \"#utility.yul\":2083:2355   */\n      pop\n        /* \"#utility.yul\":1991:2355   */\n      swap3\n      swap2\n      pop\n      pop\n      jump\t// out\n        /* \"#utility.yul\":2361:2738   */\n    tag_75:\n        /* \"#utility.yul\":2467:2470   */\n      0x00\n        /* \"#utility.yul\":2495:2534   */\n      tag_77\n        /* \"#utility.yul\":2528:2533   */\n      dup3\n        /* \"#utility.yul\":2495:2534   */\n      tag_70\n      jump\t// in\n    tag_77:\n        /* \"#utility.yul\":2550:2639   */\n      tag_78\n        /* \"#utility.yul\":2632:2638   */\n      dup2\n        /* \"#utility.yul\":2627:2630   */\n      dup6\n        /* \"#utility.yul\":2550:2639   */\n      tag_79\n      jump\t// in\n    tag_78:\n        /* \"#utility.yul\":2543:2639   */\n      swap4\n      pop\n        /* \"#utility.yul\":2648:2700   */\n      tag_80\n        /* \"#utility.yul\":2693:2699   */\n      dup2\n        /* \"#utility.yul\":2688:2691   */\n      dup6\n        /* \"#utility.yul\":2681:2685   */\n      0x20\n        /* \"#utility.yul\":2674:2679   */\n      dup7\n        /* \"#utility.yul\":2670:2686   */\n      add\n        /* \"#utility.yul\":2648:2700   */\n      tag_64\n      jump\t// in\n    tag_80:\n        /* \"#utility.yul\":2725:2731   */\n      dup1\n        /* \"#utility.yul\":2720:2723   */\n      dup5\n        /* \"#utility.yul\":2716:2732   */\n      add\n        /* \"#utility.yul\":2709:2732   */\n      swap2\n      pop\n        /* \"#utility.yul\":2471:2738   */\n      pop\n        /* \"#utility.yul\":2361:2738   */\n      swap3\n      swap2\n      pop\n      pop\n      jump\t// out\n        /* \"#utility.yul\":2744:3179   */\n    tag_25:\n        /* \"#utility.yul\":2924:2927   */\n      0x00\n        /* \"#utility.yul\":2946:3041   */\n      tag_82\n        /* \"#utility.yul\":3037:3040   */\n      dup3\n        /* \"#utility.yul\":3028:3034   */\n      dup6\n        /* \"#utility.yul\":2946:3041   */\n      tag_75\n      jump\t// in\n    tag_82:\n        /* \"#utility.yul\":2939:3041   */\n      swap2\n      pop\n        /* \"#utility.yul\":3058:3153   */\n      tag_83\n        /* \"#utility.yul\":3149:3152   */\n      dup3\n        /* \"#utility.yul\":3140:3146   */\n      dup5\n        /* \"#utility.yul\":3058:3153   */\n      tag_75\n      jump\t// in\n    tag_83:\n        /* \"#utility.yul\":3051:3153   */\n      swap2\n      pop\n        /* \"#utility.yul\":3170:3173   */\n      dup2\n        /* \"#utility.yul\":3163:3173   */\n      swap1\n      pop\n        /* \"#utility.yul\":2744:3179   */\n      swap4\n      swap3\n      pop\n      pop\n      pop\n      jump\t// out\n        /* \"#utility.yul\":3185:3494   */\n    tag_11:\n        /* \"#utility.yul\":3296:3300   */\n      0x00\n        /* \"#utility.yul\":3334:3336   */\n      0x20\n        /* \"#utility.yul\":3323:3332   */\n      dup3\n        /* \"#utility.yul\":3319:3337   */\n      add\n        /* \"#utility.yul\":3311:3337   */\n      swap1\n      pop\n        /* \"#utility.yul\":3383:3392   */\n      dup2\n        /* \"#utility.yul\":3377:3381   */\n      dup2\n        /* \"#utility.yul\":3373:3393   */\n      sub\n        /* \"#utility.yul\":3369:3370   */\n      0x00\n        /* \"#utility.yul\":3358:3367   */\n      dup4\n        /* \"#utility.yul\":3354:3371   */\n      add\n        /* \"#utility.yul\":3347:3394   */\n      mstore\n        /* \"#utility.yul\":3411:3487   */\n      tag_85\n        /* \"#utility.yul\":3482:3486   */\n      dup2\n        /* \"#utility.yul\":3473:3479   */\n      dup5\n        /* \"#utility.yul\":3411:3487   */\n      tag_57\n      jump\t// in\n    tag_85:\n        /* \"#utility.yul\":3403:3487   */\n      swap1\n      pop\n        /* \"#utility.yul\":3185:3494   */\n      swap3\n      swap2\n      pop\n      pop\n      jump\t// out\n        /* \"#utility.yul\":3500:4014   */\n    tag_22:\n        /* \"#utility.yul\":3661:3665   */\n      0x00\n        /* \"#utility.yul\":3699:3701   */\n      0x40\n        /* \"#utility.yul\":3688:3697   */\n      dup3\n        /* \"#utility.yul\":3684:3702   */\n      add\n        /* \"#utility.yul\":3676:3702   */\n      swap1\n      pop\n        /* \"#utility.yul\":3748:3757   */\n      dup2\n        /* \"#utility.yul\":3742:3746   */\n      dup2\n        /* \"#utility.yul\":3738:3758   */\n      sub\n        /* \"#utility.yul\":3734:3735   */\n      0x00\n        /* \"#utility.yul\":3723:3732   */\n      dup4\n        /* \"#utility.yul\":3719:3736   */\n      add\n        /* \"#utility.yul\":3712:3759   */\n      mstore\n        /* \"#utility.yul\":3776:3854   */\n      tag_87\n        /* \"#utility.yul\":3849:3853   */\n      dup2\n        /* \"#utility.yul\":3840:3846   */\n      dup6\n        /* \"#utility.yul\":3776:3854   */\n      tag_67\n      jump\t// in\n    tag_87:\n        /* \"#utility.yul\":3768:3854   */\n      swap1\n      pop\n        /* \"#utility.yul\":3901:3910   */\n      dup2\n        /* \"#utility.yul\":3895:3899   */\n      dup2\n        /* \"#utility.yul\":3891:3911   */\n      sub\n        /* \"#utility.yul\":3886:3888   */\n      0x20\n        /* \"#utility.yul\":3875:3884   */\n      dup4\n        /* \"#utility.yul\":3871:3889   */\n      add\n        /* \"#utility.yul\":3864:3912   */\n      mstore\n        /* \"#utility.yul\":3929:4007   */\n      tag_88\n        /* \"#utility.yul\":4002:4006   */\n      dup2\n        /* \"#utility.yul\":3993:3999   */\n      dup5\n        /* \"#utility.yul\":3929:4007   */\n      tag_67\n      jump\t// in\n    tag_88:\n        /* \"#utility.yul\":3921:4007   */\n      swap1\n      pop\n        /* \"#utility.yul\":3500:4014   */\n      swap4\n      swap3\n      pop\n      pop\n      pop\n      jump\t// out\n        /* \"#utility.yul\":4020:4149   */\n    tag_34:\n        /* \"#utility.yul\":4054:4060   */\n      0x00\n        /* \"#utility.yul\":4081:4101   */\n      tag_90\n      tag_91\n      jump\t// in\n    tag_90:\n        /* \"#utility.yul\":4071:4101   */\n      swap1\n      pop\n        /* \"#utility.yul\":4110:4143   */\n      tag_92\n        /* \"#utility.yul\":4138:4142   */\n      dup3\n        /* \"#utility.yul\":4130:4136   */\n      dup3\n        /* \"#utility.yul\":4110:4143   */\n      tag_93\n      jump\t// in\n    tag_92:\n        /* \"#utility.yul\":4020:4149   */\n      swap2\n      swap1\n      pop\n      jump\t// out\n        /* \"#utility.yul\":4155:4230   */\n    tag_91:\n        /* \"#utility.yul\":4188:4194   */\n      0x00\n        /* \"#utility.yul\":4221:4223   */\n      0x40\n        /* \"#utility.yul\":4215:4224   */\n      mload\n        /* \"#utility.yul\":4205:4224   */\n      swap1\n      pop\n        /* \"#utility.yul\":4155:4230   */\n      swap1\n      jump\t// out\n        /* \"#utility.yul\":4236:4544   */\n    tag_33:\n        /* \"#utility.yul\":4298:4302   */\n      0x00\n        /* \"#utility.yul\":4388:4406   */\n      0xffffffffffffffff\n        /* \"#utility.yul\":4380:4386   */\n      dup3\n        /* \"#utility.yul\":4377:4407   */\n      gt\n        /* \"#utility.yul\":4374:4430   */\n      iszero\n      tag_96\n      jumpi\n        /* \"#utility.yul\":4410:4428   */\n      tag_97\n      tag_98\n      jump\t// in\n    tag_97:\n        /* \"#utility.yul\":4374:4430   */\n    tag_96:\n        /* \"#utility.yul\":4448:4477   */\n      tag_99\n        /* \"#utility.yul\":4470:4476   */\n      dup3\n        /* \"#utility.yul\":4448:4477   */\n      tag_66\n      jump\t// in\n    tag_99:\n        /* \"#utility.yul\":4440:4477   */\n      swap1\n      pop\n        /* \"#utility.yul\":4532:4536   */\n      0x20\n        /* \"#utility.yul\":4526:4530   */\n      dup2\n        /* \"#utility.yul\":4522:4537   */\n      add\n        /* \"#utility.yul\":4514:4537   */\n      swap1\n      pop\n        /* \"#utility.yul\":4236:4544   */\n      swap2\n      swap1\n      pop\n      jump\t// out\n        /* \"#utility.yul\":4550:4648   */\n    tag_60:\n        /* \"#utility.yul\":4601:4607   */\n      0x00\n        /* \"#utility.yul\":4635:4640   */\n      dup2\n        /* \"#utility.yul\":4629:4641   */\n      mload\n        /* \"#utility.yul\":4619:4641   */\n      swap1\n      pop\n        /* \"#utility.yul\":4550:4648   */\n      swap2\n      swap1\n      pop\n      jump\t// out\n        /* \"#utility.yul\":4654:4753   */\n    tag_70:\n        /* \"#utility.yul\":4706:4712   */\n      0x00\n        /* \"#utility.yul\":4740:4745   */\n      dup2\n        /* \"#utility.yul\":4734:4746   */\n      mload\n        /* \"#utility.yul\":4724:4746   */\n      swap1\n      pop\n        /* \"#utility.yul\":4654:4753   */\n      swap2\n      swap1\n      pop\n      jump\t// out\n        /* \"#utility.yul\":4759:4927   */\n    tag_62:\n        /* \"#utility.yul\":4842:4853   */\n      0x00\n        /* \"#utility.yul\":4876:4882   */\n      dup3\n        /* \"#utility.yul\":4871:4874   */\n      dup3\n        /* \"#utility.yul\":4864:4883   */\n      mstore\n        /* \"#utility.yul\":4916:4920   */\n      0x20\n        /* \"#utility.yul\":4911:4914   */\n      dup3\n        /* \"#utility.yul\":4907:4921   */\n      add\n        /* \"#utility.yul\":4892:4921   */\n      swap1\n      pop\n        /* \"#utility.yul\":4759:4927   */\n      swap3\n      swap2\n      pop\n      pop\n      jump\t// out\n        /* \"#utility.yul\":4933:5102   */\n    tag_72:\n        /* \"#utility.yul\":5017:5028   */\n      0x00\n        /* \"#utility.yul\":5051:5057   */\n      dup3\n        /* \"#utility.yul\":5046:5049   */\n      dup3\n        /* \"#utility.yul\":5039:5058   */\n      mstore\n        /* \"#utility.yul\":5091:5095   */\n      0x20\n        /* \"#utility.yul\":5086:5089   */\n      dup3\n        /* \"#utility.yul\":5082:5096   */\n      add\n        /* \"#utility.yul\":5067:5096   */\n      swap1\n      pop\n        /* \"#utility.yul\":4933:5102   */\n      swap3\n      swap2\n      pop\n      pop\n      jump\t// out\n        /* \"#utility.yul\":5108:5256   */\n    tag_79:\n        /* \"#utility.yul\":5210:5221   */\n      0x00\n        /* \"#utility.yul\":5247:5250   */\n      dup2\n        /* \"#utility.yul\":5232:5250   */\n      swap1\n      pop\n        /* \"#utility.yul\":5108:5256   */\n      swap3\n      swap2\n      pop\n      pop\n      jump\t// out\n        /* \"#utility.yul\":5262:5416   */\n    tag_39:\n        /* \"#utility.yul\":5346:5352   */\n      dup3\n        /* \"#utility.yul\":5341:5344   */\n      dup2\n        /* \"#utility.yul\":5336:5339   */\n      dup4\n        /* \"#utility.yul\":5323:5353   */\n      calldatacopy\n        /* \"#utility.yul\":5408:5409   */\n      0x00\n        /* \"#utility.yul\":5399:5405   */\n      dup4\n        /* \"#utility.yul\":5394:5397   */\n      dup4\n        /* \"#utility.yul\":5390:5406   */\n      add\n        /* \"#utility.yul\":5383:5410   */\n      mstore\n        /* \"#utility.yul\":5262:5416   */\n      pop\n      pop\n      pop\n      jump\t// out\n        /* \"#utility.yul\":5422:5729   */\n    tag_64:\n        /* \"#utility.yul\":5490:5491   */\n      0x00\n        /* \"#utility.yul\":5500:5613   */\n    tag_107:\n        /* \"#utility.yul\":5514:5520   */\n      dup4\n        /* \"#utility.yul\":5511:5512   */\n      dup2\n        /* \"#utility.yul\":5508:5521   */\n      lt\n        /* \"#utility.yul\":5500:5613   */\n      iszero\n      tag_109\n      jumpi\n        /* \"#utility.yul\":5599:5600   */\n      dup1\n        /* \"#utility.yul\":5594:5597   */\n      dup3\n        /* \"#utility.yul\":5590:5601   */\n      add\n        /* \"#utility.yul\":5584:5602   */\n      mload\n        /* \"#utility.yul\":5580:5581   */\n      dup2\n        /* \"#utility.yul\":5575:5578   */\n      dup5\n        /* \"#utility.yul\":5571:5582   */\n      add\n        /* \"#utility.yul\":5564:5603   */\n      mstore\n        /* \"#utility.yul\":5536:5538   */\n      0x20\n        /* \"#utility.yul\":5533:5534   */\n      dup2\n        /* \"#utility.yul\":5529:5539   */\n      add\n        /* \"#utility.yul\":5524:5539   */\n      swap1\n      pop\n        /* \"#utility.yul\":5500:5613   */\n      jump(tag_107)\n    tag_109:\n        /* \"#utility.yul\":5631:5637   */\n      dup4\n        /* \"#utility.yul\":5628:5629   */\n      dup2\n        /* \"#utility.yul\":5625:5638   */\n      gt\n        /* \"#utility.yul\":5622:5723   */\n      iszero\n      tag_110\n      jumpi\n        /* \"#utility.yul\":5711:5712   */\n      0x00\n        /* \"#utility.yul\":5702:5708   */\n      dup5\n        /* \"#utility.yul\":5697:5700   */\n      dup5\n        /* \"#utility.yul\":5693:5709   */\n      add\n        /* \"#utility.yul\":5686:5713   */\n      mstore\n        /* \"#utility.yul\":5622:5723   */\n    tag_110:\n        /* \"#utility.yul\":5471:5729   */\n      pop\n        /* \"#utility.yul\":5422:5729   */\n      pop\n      pop\n      pop\n      jump\t// out\n        /* \"#utility.yul\":5735:6016   */\n    tag_93:\n        /* \"#utility.yul\":5818:5845   */\n      tag_112\n        /* \"#utility.yul\":5840:5844   */\n      dup3\n        /* \"#utility.yul\":5818:5845   */\n      tag_66\n      jump\t// in\n    tag_112:\n        /* \"#utility.yul\":5810:5816   */\n      dup2\n        /* \"#utility.yul\":5806:5846   */\n      add\n        /* \"#utility.yul\":5948:5954   */\n      dup2\n        /* \"#utility.yul\":5936:5946   */\n      dup2\n        /* \"#utility.yul\":5933:5955   */\n      lt\n        /* \"#utility.yul\":5912:5930   */\n      0xffffffffffffffff\n        /* \"#utility.yul\":5900:5910   */\n      dup3\n        /* \"#utility.yul\":5897:5931   */\n      gt\n        /* \"#utility.yul\":5894:5956   */\n      or\n        /* \"#utility.yul\":5891:5979   */\n      iszero\n      tag_113\n      jumpi\n        /* \"#utility.yul\":5959:5977   */\n      tag_114\n      tag_98\n      jump\t// in\n    tag_114:\n        /* \"#utility.yul\":5891:5979   */\n    tag_113:\n        /* \"#utility.yul\":5999:6009   */\n      dup1\n        /* \"#utility.yul\":5995:5997   */\n      0x40\n        /* \"#utility.yul\":5988:6010   */\n      mstore\n        /* \"#utility.yul\":5778:6016   */\n      pop\n        /* \"#utility.yul\":5735:6016   */\n      pop\n      pop\n      jump\t// out\n        /* \"#utility.yul\":6022:6202   */\n    tag_98:\n        /* \"#utility.yul\":6070:6147   */\n      0x4e487b7100000000000000000000000000000000000000000000000000000000\n        /* \"#utility.yul\":6067:6068   */\n      0x00\n        /* \"#utility.yul\":6060:6148   */\n      mstore\n        /* \"#utility.yul\":6167:6171   */\n      0x41\n        /* \"#utility.yul\":6164:6165   */\n      0x04\n        /* \"#utility.yul\":6157:6172   */\n      mstore\n        /* \"#utility.yul\":6191:6195   */\n      0x24\n        /* \"#utility.yul\":6188:6189   */\n      0x00\n        /* \"#utility.yul\":6181:6196   */\n      revert\n        /* \"#utility.yul\":6208:6325   */\n    tag_44:\n        /* \"#utility.yul\":6317:6318   */\n      0x00\n        /* \"#utility.yul\":6314:6315   */\n      dup1\n        /* \"#utility.yul\":6307:6319   */\n      revert\n        /* \"#utility.yul\":6331:6448   */\n    tag_37:\n        /* \"#utility.yul\":6440:6441   */\n      0x00\n        /* \"#utility.yul\":6437:6438   */\n      dup1\n        /* \"#utility.yul\":6430:6442   */\n      revert\n        /* \"#utility.yul\":6454:6571   */\n    tag_52:\n        /* \"#utility.yul\":6563:6564   */\n      0x00\n        /* \"#utility.yul\":6560:6561   */\n      dup1\n        /* \"#utility.yul\":6553:6565   */\n      revert\n        /* \"#utility.yul\":6577:6694   */\n    tag_49:\n        /* \"#utility.yul\":6686:6687   */\n      0x00\n        /* \"#utility.yul\":6683:6684   */\n      dup1\n        /* \"#utility.yul\":6676:6688   */\n      revert\n        /* \"#utility.yul\":6700:6802   */\n    tag_66:\n        /* \"#utility.yul\":6741:6747   */\n      0x00\n        /* \"#utility.yul\":6792:6794   */\n      0x1f\n        /* \"#utility.yul\":6788:6795   */\n      not\n        /* \"#utility.yul\":6783:6785   */\n      0x1f\n        /* \"#utility.yul\":6776:6781   */\n      dup4\n        /* \"#utility.yul\":6772:6786   */\n      add\n        /* \"#utility.yul\":6768:6796   */\n      and\n        /* \"#utility.yul\":6758:6796   */\n      swap1\n      pop\n        /* \"#utility.yul\":6700:6802   */\n      swap2\n      swap1\n      pop\n      jump\t// out\n\n    auxdata: 0xa2646970667358221220f9e1d391aa6735377d1bcf1ff53827c82704e1dba13086141de0b72e1f5805b764736f6c63430008070033\n}\n",
				"bytecode": {
					"linkReferences": {},
					"object": "608060405234801561001057600080fd5b506104f8806100206000396000f3fe608060405234801561001057600080fd5b50600436106100415760003560e01c806317fe2da214610046578063892e5d01146100765780638e66f9f2146100a6575b600080fd5b610060600480360381019061005b91906101ca565b6100d6565b60405161006d9190610309565b60405180910390f35b610090600480360381019061008b91906101ca565b610102565b60405161009d9190610309565b60405180910390f35b6100c060048036038101906100bb91906101ca565b61012e565b6040516100cd9190610309565b60405180910390f35b606082826040516020016100eb92919061032b565b604051602081830303815290604052905092915050565b606082826040516020016101179291906102e5565b604051602081830303815290604052905092915050565b6060828260405160200161014392919061032b565b604051602081830303815290604052905092915050565b600061016d61016884610387565b610362565b905082815260208101848484011115610189576101886104a2565b5b6101948482856103fb565b509392505050565b600082601f8301126101b1576101b061049d565b5b81356101c184826020860161015a565b91505092915050565b600080604083850312156101e1576101e06104ac565b5b600083013567ffffffffffffffff8111156101ff576101fe6104a7565b5b61020b8582860161019c565b925050602083013567ffffffffffffffff81111561022c5761022b6104a7565b5b6102388582860161019c565b9150509250929050565b600061024d826103b8565b61025781856103ce565b935061026781856020860161040a565b610270816104b1565b840191505092915050565b6000610286826103c3565b61029081856103df565b93506102a081856020860161040a565b6102a9816104b1565b840191505092915050565b60006102bf826103c3565b6102c981856103f0565b93506102d981856020860161040a565b80840191505092915050565b60006102f182856102b4565b91506102fd82846102b4565b91508190509392505050565b600060208201905081810360008301526103238184610242565b905092915050565b60006040820190508181036000830152610345818561027b565b90508181036020830152610359818461027b565b90509392505050565b600061036c61037d565b9050610378828261043d565b919050565b6000604051905090565b600067ffffffffffffffff8211156103a2576103a161046e565b5b6103ab826104b1565b9050602081019050919050565b600081519050919050565b600081519050919050565b600082825260208201905092915050565b600082825260208201905092915050565b600081905092915050565b82818337600083830152505050565b60005b8381101561042857808201518184015260208101905061040d565b83811115610437576000848401525b50505050565b610446826104b1565b810181811067ffffffffffffffff821117156104655761046461046e565b5b80604052505050565b7f4e487b7100000000000000000000000000000000000000000000000000000000600052604160045260246000fd5b600080fd5b600080fd5b600080fd5b600080fd5b6000601f19601f830116905091905056fea2646970667358221220f9e1d391aa6735377d1bcf1ff53827c82704e1dba13086141de0b72e1f5805b764736f6c63430008070033",
					"opcodes": "PUSH1 0x80 PUSH1 0x40 MSTORE CALLVALUE DUP1 ISZERO PUSH2 0x10 JUMPI PUSH1 0x0 DUP1 REVERT JUMPDEST POP PUSH2 0x4F8 DUP1 PUSH2 0x20 PUSH1 0x0 CODECOPY PUSH1 0x0 RETURN INVALID PUSH1 0x80 PUSH1 0x40 MSTORE CALLVALUE DUP1 ISZERO PUSH2 0x10 JUMPI PUSH1 0x0 DUP1 REVERT JUMPDEST POP PUSH1 0x4 CALLDATASIZE LT PUSH2 0x41 JUMPI PUSH1 0x0 CALLDATALOAD PUSH1 0xE0 SHR DUP1 PUSH4 0x17FE2DA2 EQ PUSH2 0x46 JUMPI DUP1 PUSH4 0x892E5D01 EQ PUSH2 0x76 JUMPI DUP1 PUSH4 0x8E66F9F2 EQ PUSH2 0xA6 JUMPI JUMPDEST PUSH1 0x0 DUP1 REVERT JUMPDEST PUSH2 0x60 PUSH1 0x4 DUP1 CALLDATASIZE SUB DUP2 ADD SWAP1 PUSH2 0x5B SWAP2 SWAP1 PUSH2 0x1CA JUMP JUMPDEST PUSH2 0xD6 JUMP JUMPDEST PUSH1 0x40 MLOAD PUSH2 0x6D SWAP2 SWAP1 PUSH2 0x309 JUMP JUMPDEST PUSH1 0x40 MLOAD DUP1 SWAP2 SUB SWAP1 RETURN JUMPDEST PUSH2 0x90 PUSH1 0x4 DUP1 CALLDATASIZE SUB DUP2 ADD SWAP1 PUSH2 0x8B SWAP2 SWAP1 PUSH2 0x1CA JUMP JUMPDEST PUSH2 0x102 JUMP JUMPDEST PUSH1 0x40 MLOAD PUSH2 0x9D SWAP2 SWAP1 PUSH2 0x309 JUMP JUMPDEST PUSH1 0x40 MLOAD DUP1 SWAP2 SUB SWAP1 RETURN JUMPDEST PUSH2 0xC0 PUSH1 0x4 DUP1 CALLDATASIZE SUB DUP2 ADD SWAP1 PUSH2 0xBB SWAP2 SWAP1 PUSH2 0x1CA JUMP JUMPDEST PUSH2 0x12E JUMP JUMPDEST PUSH1 0x40 MLOAD PUSH2 0xCD SWAP2 SWAP1 PUSH2 0x309 JUMP JUMPDEST PUSH1 0x40 MLOAD DUP1 SWAP2 SUB SWAP1 RETURN JUMPDEST PUSH1 0x60 DUP3 DUP3 PUSH1 0x40 MLOAD PUSH1 0x20 ADD PUSH2 0xEB SWAP3 SWAP2 SWAP1 PUSH2 0x32B JUMP JUMPDEST PUSH1 0x40 MLOAD PUSH1 0x20 DUP2 DUP4 SUB SUB DUP2 MSTORE SWAP1 PUSH1 0x40 MSTORE SWAP1 POP SWAP3 SWAP2 POP POP JUMP JUMPDEST PUSH1 0x60 DUP3 DUP3 PUSH1 0x40 MLOAD PUSH1 0x20 ADD PUSH2 0x117 SWAP3 SWAP2 SWAP1 PUSH2 0x2E5 JUMP JUMPDEST PUSH1 0x40 MLOAD PUSH1 0x20 DUP2 DUP4 SUB SUB DUP2 MSTORE SWAP1 PUSH1 0x40 MSTORE SWAP1 POP SWAP3 SWAP2 POP POP JUMP JUMPDEST PUSH1 0x60 DUP3 DUP3 PUSH1 0x40 MLOAD PUSH1 0x20 ADD PUSH2 0x143 SWAP3 SWAP2 SWAP1 PUSH2 0x32B JUMP JUMPDEST PUSH1 0x40 MLOAD PUSH1 0x20 DUP2 DUP4 SUB SUB DUP2 MSTORE SWAP1 PUSH1 0x40 MSTORE SWAP1 POP SWAP3 SWAP2 POP POP JUMP JUMPDEST PUSH1 0x0 PUSH2 0x16D PUSH2 0x168 DUP5 PUSH2 0x387 JUMP JUMPDEST PUSH2 0x362 JUMP JUMPDEST SWAP1 POP DUP3 DUP2 MSTORE PUSH1 0x20 DUP2 ADD DUP5 DUP5 DUP5 ADD GT ISZERO PUSH2 0x189 JUMPI PUSH2 0x188 PUSH2 0x4A2 JUMP JUMPDEST JUMPDEST PUSH2 0x194 DUP5 DUP3 DUP6 PUSH2 0x3FB JUMP JUMPDEST POP SWAP4 SWAP3 POP POP POP JUMP JUMPDEST PUSH1 0x0 DUP3 PUSH1 0x1F DUP4 ADD SLT PUSH2 0x1B1 JUMPI PUSH2 0x1B0 PUSH2 0x49D JUMP JUMPDEST JUMPDEST DUP2 CALLDATALOAD PUSH2 0x1C1 DUP5 DUP3 PUSH1 0x20 DUP7 ADD PUSH2 0x15A JUMP JUMPDEST SWAP2 POP POP SWAP3 SWAP2 POP POP JUMP JUMPDEST PUSH1 0x0 DUP1 PUSH1 0x40 DUP4 DUP6 SUB SLT ISZERO PUSH2 0x1E1 JUMPI PUSH2 0x1E0 PUSH2 0x4AC JUMP JUMPDEST JUMPDEST PUSH1 0x0 DUP4 ADD CALLDATALOAD PUSH8 0xFFFFFFFFFFFFFFFF DUP2 GT ISZERO PUSH2 0x1FF JUMPI PUSH2 0x1FE PUSH2 0x4A7 JUMP JUMPDEST JUMPDEST PUSH2 0x20B DUP6 DUP3 DUP7 ADD PUSH2 0x19C JUMP JUMPDEST SWAP3 POP POP PUSH1 0x20 DUP4 ADD CALLDATALOAD PUSH8 0xFFFFFFFFFFFFFFFF DUP2 GT ISZERO PUSH2 0x22C JUMPI PUSH2 0x22B PUSH2 0x4A7 JUMP JUMPDEST JUMPDEST PUSH2 0x238 DUP6 DUP3 DUP7 ADD PUSH2 0x19C JUMP JUMPDEST SWAP2 POP POP SWAP3 POP SWAP3 SWAP1 POP JUMP JUMPDEST PUSH1 0x0 PUSH2 0x24D DUP3 PUSH2 0x3B8 JUMP JUMPDEST PUSH2 0x257 DUP2 DUP6 PUSH2 0x3CE JUMP JUMPDEST SWAP4 POP PUSH2 0x267 DUP2 DUP6 PUSH1 0x20 DUP7 ADD PUSH2 0x40A JUMP JUMPDEST PUSH2 0x270 DUP2 PUSH2 0x4B1 JUMP JUMPDEST DUP5 ADD SWAP2 POP POP SWAP3 SWAP2 POP POP JUMP JUMPDEST PUSH1 0x0 PUSH2 0x286 DUP3 PUSH2 0x3C3 JUMP JUMPDEST PUSH2 0x290 DUP2 DUP6 PUSH2 0x3DF JUMP JUMPDEST SWAP4 POP PUSH2 0x2A0 DUP2 DUP6 PUSH1 0x20 DUP7 ADD PUSH2 0x40A JUMP JUMPDEST PUSH2 0x2A9 DUP2 PUSH2 0x4B1 JUMP JUMPDEST DUP5 ADD SWAP2 POP POP SWAP3 SWAP2 POP POP JUMP JUMPDEST PUSH1 0x0 PUSH2 0x2BF DUP3 PUSH2 0x3C3 JUMP JUMPDEST PUSH2 0x2C9 DUP2 DUP6 PUSH2 0x3F0 JUMP JUMPDEST SWAP4 POP PUSH2 0x2D9 DUP2 DUP6 PUSH1 0x20 DUP7 ADD PUSH2 0x40A JUMP JUMPDEST DUP1 DUP5 ADD SWAP2 POP POP SWAP3 SWAP2 POP POP JUMP JUMPDEST PUSH1 0x0 PUSH2 0x2F1 DUP3 DUP6 PUSH2 0x2B4 JUMP JUMPDEST SWAP2 POP PUSH2 0x2FD DUP3 DUP5 PUSH2 0x2B4 JUMP JUMPDEST SWAP2 POP DUP2 SWAP1 POP SWAP4 SWAP3 POP POP POP JUMP JUMPDEST PUSH1 0x0 PUSH1 0x20 DUP3 ADD SWAP1 POP DUP2 DUP2 SUB PUSH1 0x0 DUP4 ADD MSTORE PUSH2 0x323 DUP2 DUP5 PUSH2 0x242 JUMP JUMPDEST SWAP1 POP SWAP3 SWAP2 POP POP JUMP JUMPDEST PUSH1 0x0 PUSH1 0x40 DUP3 ADD SWAP1 POP DUP2 DUP2 SUB PUSH1 0x0 DUP4 ADD MSTORE PUSH2 0x345 DUP2 DUP6 PUSH2 0x27B JUMP JUMPDEST SWAP1 POP DUP2 DUP2 SUB PUSH1 0x20 DUP4 ADD MSTORE PUSH2 0x359 DUP2 DUP5 PUSH2 0x27B JUMP JUMPDEST SWAP1 POP SWAP4 SWAP3 POP POP POP JUMP JUMPDEST PUSH1 0x0 PUSH2 0x36C PUSH2 0x37D JUMP JUMPDEST SWAP1 POP PUSH2 0x378 DUP3 DUP3 PUSH2 0x43D JUMP JUMPDEST SWAP2 SWAP1 POP JUMP JUMPDEST PUSH1 0x0 PUSH1 0x40 MLOAD SWAP1 POP SWAP1 JUMP JUMPDEST PUSH1 0x0 PUSH8 0xFFFFFFFFFFFFFFFF DUP3 GT ISZERO PUSH2 0x3A2 JUMPI PUSH2 0x3A1 PUSH2 0x46E JUMP JUMPDEST JUMPDEST PUSH2 0x3AB DUP3 PUSH2 0x4B1 JUMP JUMPDEST SWAP1 POP PUSH1 0x20 DUP2 ADD SWAP1 POP SWAP2 SWAP1 POP JUMP JUMPDEST PUSH1 0x0 DUP2 MLOAD SWAP1 POP SWAP2 SWAP1 POP JUMP JUMPDEST PUSH1 0x0 DUP2 MLOAD SWAP1 POP SWAP2 SWAP1 POP JUMP JUMPDEST PUSH1 0x0 DUP3 DUP3 MSTORE PUSH1 0x20 DUP3 ADD SWAP1 POP SWAP3 SWAP2 POP POP JUMP JUMPDEST PUSH1 0x0 DUP3 DUP3 MSTORE PUSH1 0x20 DUP3 ADD SWAP1 POP SWAP3 SWAP2 POP POP JUMP JUMPDEST PUSH1 0x0 DUP2 SWAP1 POP SWAP3 SWAP2 POP POP JUMP JUMPDEST DUP3 DUP2 DUP4 CALLDATACOPY PUSH1 0x0 DUP4 DUP4 ADD MSTORE POP POP POP JUMP JUMPDEST PUSH1 0x0 JUMPDEST DUP4 DUP2 LT ISZERO PUSH2 0x428 JUMPI DUP1 DUP3 ADD MLOAD DUP2 DUP5 ADD MSTORE PUSH1 0x20 DUP2 ADD SWAP1 POP PUSH2 0x40D JUMP JUMPDEST DUP4 DUP2 GT ISZERO PUSH2 0x437 JUMPI PUSH1 0x0 DUP5 DUP5 ADD MSTORE JUMPDEST POP POP POP POP JUMP JUMPDEST PUSH2 0x446 DUP3 PUSH2 0x4B1 JUMP JUMPDEST DUP2 ADD DUP2 DUP2 LT PUSH8 0xFFFFFFFFFFFFFFFF DUP3 GT OR ISZERO PUSH2 0x465 JUMPI PUSH2 0x464 PUSH2 0x46E JUMP JUMPDEST JUMPDEST DUP1 PUSH1 0x40 MSTORE POP POP POP JUMP JUMPDEST PUSH32 0x4E487B7100000000000000000000000000000000000000000000000000000000 PUSH1 0x0 MSTORE PUSH1 0x41 PUSH1 0x4 MSTORE PUSH1 0x24 PUSH1 0x0 REVERT JUMPDEST PUSH1 0x0 DUP1 REVERT JUMPDEST PUSH1 0x0 DUP1 REVERT JUMPDEST PUSH1 0x0 DUP1 REVERT JUMPDEST PUSH1 0x0 DUP1 REVERT JUMPDEST PUSH1 0x0 PUSH1 0x1F NOT PUSH1 0x1F DUP4 ADD AND SWAP1 POP SWAP2 SWAP1 POP JUMP INVALID LOG2 PUSH5 0x6970667358 0x22 SLT KECCAK256 0xF9 0xE1 0xD3 SWAP2 0xAA PUSH8 0x35377D1BCF1FF538 0x27 0xC8 0x27 DIV 0xE1 0xDB LOG1 ADDRESS DUP7 EQ SAR 0xE0 0xB7 0x2E 0x1F PC SDIV 0xB7 PUSH5 0x736F6C6343 STOP ADDMOD SMOD STOP CALLER "
				},
				"gasEstimates": {
					"creation": {
						"codeDepositCost": "254400",
						"executionCost": "294",
						"totalCost": "254694"
					},
					"external": {
						"encode(string,string)": "infinite",
						"encodeB(string,string)": "infinite",
						"encodePacked(string,string)": "infinite"
					}
				},
				"methodIdentifiers": {
					"encode(string,string)": "17fe2da2",
					"encodeB(string,string)": "8e66f9f2",
					"encodePacked(string,string)": "892e5d01"
				}
			},
			"storageLayout": {
				"storage": [],
				"types": null
			},
			"userdoc": {
				"kind": "user",
				"methods": {},
				"version": 1
			}
		}
	}
}