{
	"Week5/TodoList.sol": {
		"TodoList": {
			"abi": [
				{
					"inputs": [
						{
							"internalType": "string",
							"name": "_text",
							"type": "string"
						}
					],
					"name": "createTodo",
					"outputs": [],
					"stateMutability": "nonpayable",
					"type": "function"
				},
				{
					"inputs": [
						{
							"internalType": "uint256",
							"name": "_index",
							"type": "uint256"
						}
					],
					"name": "getTodo",
					"outputs": [
						{
							"components": [
								{
									"internalType": "string",
									"name": "text",
									"type": "string"
								},
								{
									"internalType": "bool",
									"name": "isCheck",
									"type": "bool"
								}
							],
							"internalType": "struct TodoList.Todo",
							"name": "",
							"type": "tuple"
						}
					],
					"stateMutability": "view",
					"type": "function"
				},
				{
					"inputs": [
						{
							"internalType": "uint256",
							"name": "_index",
							"type": "uint256"
						}
					],
					"name": "toggleTodo",
					"outputs": [],
					"stateMutability": "nonpayable",
					"type": "function"
				},
				{
					"inputs": [
						{
							"internalType": "uint256",
							"name": "_index",
							"type": "uint256"
						},
						{
							"internalType": "string",
							"name": "_text",
							"type": "string"
						}
					],
					"name": "updateTodo",
					"outputs": [],
					"stateMutability": "nonpayable",
					"type": "function"
				}
			],
			"devdoc": {
				"kind": "dev",
				"methods": {},
				"version": 1
			},
			"evm": {
				"assembly": "    /* \"Week5/TodoList.sol\":70:797  contract TodoList {... */\n  mstore(0x40, 0x80)\n  callvalue\n  dup1\n  iszero\n  tag_1\n  jumpi\n  0x00\n  dup1\n  revert\ntag_1:\n  pop\n  dataSize(sub_0)\n  dup1\n  dataOffset(sub_0)\n  0x00\n  codecopy\n  0x00\n  return\nstop\n\nsub_0: assembly {\n        /* \"Week5/TodoList.sol\":70:797  contract TodoList {... */\n      mstore(0x40, 0x80)\n      callvalue\n      dup1\n      iszero\n      tag_1\n      jumpi\n      0x00\n      dup1\n      revert\n    tag_1:\n      pop\n      jumpi(tag_2, lt(calldatasize, 0x04))\n      shr(0xe0, calldataload(0x00))\n      dup1\n      0xd534ee88\n      eq\n      tag_3\n      jumpi\n      dup1\n      0xdc00282c\n      eq\n      tag_4\n      jumpi\n      dup1\n      0xdd68afb6\n      eq\n      tag_5\n      jumpi\n      dup1\n      0xe34f1221\n      eq\n      tag_6\n      jumpi\n    tag_2:\n      0x00\n      dup1\n      revert\n        /* \"Week5/TodoList.sol\":345:500  function updateTodo(uint _index, string calldata _text) external  {... */\n    tag_3:\n      tag_7\n      tag_8\n      calldatasize\n      0x04\n      tag_9\n      jump\t// in\n    tag_8:\n      tag_10\n      jump\t// in\n    tag_7:\n      stop\n        /* \"Week5/TodoList.sol\":529:684  function toggleTodo(uint _index) external  {... */\n    tag_4:\n      tag_7\n      tag_12\n      calldatasize\n      0x04\n      tag_13\n      jump\t// in\n    tag_12:\n      tag_14\n      jump\t// in\n        /* \"Week5/TodoList.sol\":690:795  function getTodo(uint _index) external view returns(Todo memory) {... */\n    tag_5:\n      tag_15\n      tag_16\n      calldatasize\n      0x04\n      tag_13\n      jump\t// in\n    tag_16:\n      tag_17\n      jump\t// in\n    tag_15:\n      mload(0x40)\n      tag_18\n      swap2\n      swap1\n      tag_19\n      jump\t// in\n    tag_18:\n      mload(0x40)\n      dup1\n      swap2\n      sub\n      swap1\n      return\n        /* \"Week5/TodoList.sol\":208:310  function createTodo(string calldata _text) external {... */\n    tag_6:\n      tag_7\n      tag_21\n      calldatasize\n      0x04\n      tag_22\n      jump\t// in\n    tag_21:\n      tag_23\n      jump\t// in\n        /* \"Week5/TodoList.sol\":345:500  function updateTodo(uint _index, string calldata _text) external  {... */\n    tag_10:\n        /* \"Week5/TodoList.sol\":438:446  todoList */\n      0x00\n        /* \"Week5/TodoList.sol\":438:453  todoList.length */\n      sload\n        /* \"Week5/TodoList.sol\":429:453  _index < todoList.length */\n      dup4\n      lt\n        /* \"Week5/TodoList.sol\":421:454  require(_index < todoList.length) */\n      tag_25\n      jumpi\n      0x00\n      dup1\n      revert\n    tag_25:\n        /* \"Week5/TodoList.sol\":488:493  _text */\n      dup2\n      dup2\n        /* \"Week5/TodoList.sol\":464:472  todoList */\n      0x00\n        /* \"Week5/TodoList.sol\":473:479  _index */\n      dup6\n        /* \"Week5/TodoList.sol\":464:480  todoList[_index] */\n      dup2\n      sload\n      dup2\n      lt\n      tag_27\n      jumpi\n      tag_27\n      tag_28\n      jump\t// in\n    tag_27:\n      swap1\n      0x00\n      mstore\n      keccak256(0x00, 0x20)\n      swap1\n      0x02\n      mul\n      add\n        /* \"Week5/TodoList.sol\":464:485  todoList[_index].text */\n      0x00\n      add\n        /* \"Week5/TodoList.sol\":464:493  todoList[_index].text = _text */\n      swap2\n      dup3\n      tag_30\n      swap3\n      swap2\n      swap1\n      tag_31\n      jump\t// in\n    tag_30:\n      pop\n        /* \"Week5/TodoList.sol\":345:500  function updateTodo(uint _index, string calldata _text) external  {... */\n      pop\n      pop\n      pop\n      jump\t// out\n        /* \"Week5/TodoList.sol\":529:684  function toggleTodo(uint _index) external  {... */\n    tag_14:\n        /* \"Week5/TodoList.sol\":599:607  todoList */\n      0x00\n        /* \"Week5/TodoList.sol\":599:614  todoList.length */\n      sload\n        /* \"Week5/TodoList.sol\":590:614  _index < todoList.length */\n      dup2\n      lt\n        /* \"Week5/TodoList.sol\":582:615  require(_index < todoList.length) */\n      tag_33\n      jumpi\n      0x00\n      dup1\n      revert\n    tag_33:\n        /* \"Week5/TodoList.sol\":653:661  todoList */\n      0x00\n        /* \"Week5/TodoList.sol\":662:668  _index */\n      dup2\n        /* \"Week5/TodoList.sol\":653:669  todoList[_index] */\n      dup2\n      sload\n      dup2\n      lt\n      tag_35\n      jumpi\n      tag_35\n      tag_28\n      jump\t// in\n    tag_35:\n      0x00\n      swap2\n      dup3\n      mstore\n      0x20\n      dup3\n      keccak256\n        /* \"Week5/TodoList.sol\":653:677  todoList[_index].isCheck */\n      0x01\n        /* \"Week5/TodoList.sol\":653:669  todoList[_index] */\n      0x02\n      swap1\n      swap3\n      mul\n      add\n        /* \"Week5/TodoList.sol\":653:677  todoList[_index].isCheck */\n      add\n      sload\n        /* \"Week5/TodoList.sol\":625:641  todoList[_index] */\n      dup2\n      sload\n        /* \"Week5/TodoList.sol\":653:677  todoList[_index].isCheck */\n      0xff\n      swap1\n      swap2\n      and\n        /* \"Week5/TodoList.sol\":652:677  !todoList[_index].isCheck */\n      iszero\n      swap2\n        /* \"Week5/TodoList.sol\":653:669  todoList[_index] */\n      swap1\n        /* \"Week5/TodoList.sol\":634:640  _index */\n      dup4\n      swap1\n        /* \"Week5/TodoList.sol\":625:641  todoList[_index] */\n      dup2\n      lt\n      tag_38\n      jumpi\n      tag_38\n      tag_28\n      jump\t// in\n    tag_38:\n      0x00\n      swap2\n      dup3\n      mstore\n      0x20\n      swap1\n      swap2\n      keccak256\n      0x02\n      swap1\n      swap2\n      mul\n      add\n        /* \"Week5/TodoList.sol\":625:649  todoList[_index].isCheck */\n      0x01\n      add\n        /* \"Week5/TodoList.sol\":625:677  todoList[_index].isCheck = !todoList[_index].isCheck */\n      dup1\n      sload\n      not(0xff)\n      and\n      swap2\n      iszero\n      iszero\n      swap2\n      swap1\n      swap2\n      or\n      swap1\n      sstore\n      pop\n        /* \"Week5/TodoList.sol\":529:684  function toggleTodo(uint _index) external  {... */\n      jump\t// out\n        /* \"Week5/TodoList.sol\":690:795  function getTodo(uint _index) external view returns(Todo memory) {... */\n    tag_17:\n      0x40\n      dup1\n      mload\n      dup1\n      dup3\n      add\n      swap1\n      swap2\n      mstore\n      0x60\n      dup2\n      mstore\n      0x00\n      0x20\n      dup3\n      add\n      mstore\n        /* \"Week5/TodoList.sol\":772:780  todoList */\n      0x00\n        /* \"Week5/TodoList.sol\":781:787  _index */\n      dup3\n        /* \"Week5/TodoList.sol\":772:788  todoList[_index] */\n      dup2\n      sload\n      dup2\n      lt\n      tag_44\n      jumpi\n      tag_44\n      tag_28\n      jump\t// in\n    tag_44:\n      swap1\n      0x00\n      mstore\n      keccak256(0x00, 0x20)\n      swap1\n      0x02\n      mul\n      add\n        /* \"Week5/TodoList.sol\":765:788  return todoList[_index] */\n      mload(0x40)\n      dup1\n      0x40\n      add\n      0x40\n      mstore\n      swap1\n      dup2\n      0x00\n      dup3\n      add\n      dup1\n      sload\n      tag_46\n      swap1\n      tag_47\n      jump\t// in\n    tag_46:\n      dup1\n      0x1f\n      add\n      0x20\n      dup1\n      swap2\n      div\n      mul\n      0x20\n      add\n      mload(0x40)\n      swap1\n      dup2\n      add\n      0x40\n      mstore\n      dup1\n      swap3\n      swap2\n      swap1\n      dup2\n      dup2\n      mstore\n      0x20\n      add\n      dup3\n      dup1\n      sload\n      tag_48\n      swap1\n      tag_47\n      jump\t// in\n    tag_48:\n      dup1\n      iszero\n      tag_49\n      jumpi\n      dup1\n      0x1f\n      lt\n      tag_50\n      jumpi\n      0x0100\n      dup1\n      dup4\n      sload\n      div\n      mul\n      dup4\n      mstore\n      swap2\n      0x20\n      add\n      swap2\n      jump(tag_49)\n    tag_50:\n      dup3\n      add\n      swap2\n      swap1\n      0x00\n      mstore\n      keccak256(0x00, 0x20)\n      swap1\n    tag_51:\n      dup2\n      sload\n      dup2\n      mstore\n      swap1\n      0x01\n      add\n      swap1\n      0x20\n      add\n      dup1\n      dup4\n      gt\n      tag_51\n      jumpi\n      dup3\n      swap1\n      sub\n      0x1f\n      and\n      dup3\n      add\n      swap2\n    tag_49:\n      pop\n      pop\n      pop\n      swap2\n      dup4\n      mstore\n      pop\n      pop\n      0x01\n      swap2\n      swap1\n      swap2\n      add\n      sload\n      0xff\n      and\n      iszero\n      iszero\n      0x20\n      swap1\n      swap2\n      add\n      mstore\n      swap3\n        /* \"Week5/TodoList.sol\":690:795  function getTodo(uint _index) external view returns(Todo memory) {... */\n      swap2\n      pop\n      pop\n      jump\t// out\n        /* \"Week5/TodoList.sol\":208:310  function createTodo(string calldata _text) external {... */\n    tag_23:\n        /* \"Week5/TodoList.sol\":284:302  Todo(_text, false) */\n      0x40\n      dup1\n      mload\n      0x60\n      0x20\n      0x1f\n      dup6\n      add\n      dup2\n      swap1\n      div\n      mul\n      dup3\n      add\n      dup2\n      add\n      dup4\n      mstore\n      swap2\n      dup2\n      add\n      dup4\n      dup2\n      mstore\n        /* \"Week5/TodoList.sol\":270:278  todoList */\n      0x00\n      swap3\n        /* \"Week5/TodoList.sol\":284:302  Todo(_text, false) */\n      dup3\n      swap2\n      swap1\n        /* \"Week5/TodoList.sol\":289:294  _text */\n      dup7\n      swap1\n      dup7\n      swap1\n      dup2\n      swap1\n        /* \"Week5/TodoList.sol\":284:302  Todo(_text, false) */\n      dup6\n      add\n        /* \"Week5/TodoList.sol\":289:294  _text */\n      dup4\n      dup3\n      dup1\n      dup3\n        /* \"Week5/TodoList.sol\":284:302  Todo(_text, false) */\n      dup5\n      calldatacopy\n      0x00\n      swap3\n      add\n      dup3\n      swap1\n      mstore\n      pop\n      swap4\n      dup6\n      mstore\n      pop\n      pop\n      pop\n      0x20\n      swap2\n      dup3\n      add\n      dup2\n      swap1\n      mstore\n        /* \"Week5/TodoList.sol\":270:303  todoList.push(Todo(_text, false)) */\n      dup4\n      sload\n        /* \"Week5/TodoList.sol\":284:302  Todo(_text, false) */\n      0x01\n        /* \"Week5/TodoList.sol\":270:303  todoList.push(Todo(_text, false)) */\n      dup2\n      add\n      dup6\n      sstore\n      swap4\n      dup2\n      mstore\n      keccak256\n      dup2\n      mload\n      swap2\n      swap3\n      0x02\n      mul\n      add\n      swap1\n      dup2\n      swap1\n      tag_54\n      swap1\n      dup3\n      tag_55\n      jump\t// in\n    tag_54:\n      pop\n      0x20\n      swap2\n      swap1\n      swap2\n      add\n      mload\n      0x01\n      swap1\n      swap2\n      add\n      dup1\n      sload\n      not(0xff)\n      and\n      swap2\n      iszero\n      iszero\n      swap2\n      swap1\n      swap2\n      or\n      swap1\n      sstore\n      pop\n      pop\n        /* \"Week5/TodoList.sol\":208:310  function createTodo(string calldata _text) external {... */\n      jump\t// out\n        /* \"#utility.yul\":14:362   */\n    tag_56:\n        /* \"#utility.yul\":66:74   */\n      0x00\n        /* \"#utility.yul\":76:82   */\n      dup1\n        /* \"#utility.yul\":130:133   */\n      dup4\n        /* \"#utility.yul\":123:127   */\n      0x1f\n        /* \"#utility.yul\":115:121   */\n      dup5\n        /* \"#utility.yul\":111:128   */\n      add\n        /* \"#utility.yul\":107:134   */\n      slt\n        /* \"#utility.yul\":97:152   */\n      tag_63\n      jumpi\n        /* \"#utility.yul\":148:149   */\n      0x00\n        /* \"#utility.yul\":145:146   */\n      dup1\n        /* \"#utility.yul\":138:150   */\n      revert\n        /* \"#utility.yul\":97:152   */\n    tag_63:\n      pop\n        /* \"#utility.yul\":171:191   */\n      dup2\n      calldataload\n        /* \"#utility.yul\":214:232   */\n      0xffffffffffffffff\n        /* \"#utility.yul\":203:233   */\n      dup2\n      gt\n        /* \"#utility.yul\":200:250   */\n      iszero\n      tag_64\n      jumpi\n        /* \"#utility.yul\":246:247   */\n      0x00\n        /* \"#utility.yul\":243:244   */\n      dup1\n        /* \"#utility.yul\":236:248   */\n      revert\n        /* \"#utility.yul\":200:250   */\n    tag_64:\n        /* \"#utility.yul\":283:287   */\n      0x20\n        /* \"#utility.yul\":275:281   */\n      dup4\n        /* \"#utility.yul\":271:288   */\n      add\n        /* \"#utility.yul\":259:288   */\n      swap2\n      pop\n        /* \"#utility.yul\":335:338   */\n      dup4\n        /* \"#utility.yul\":328:332   */\n      0x20\n        /* \"#utility.yul\":319:325   */\n      dup3\n        /* \"#utility.yul\":311:317   */\n      dup6\n        /* \"#utility.yul\":307:326   */\n      add\n        /* \"#utility.yul\":303:333   */\n      add\n        /* \"#utility.yul\":300:339   */\n      gt\n        /* \"#utility.yul\":297:356   */\n      iszero\n      tag_65\n      jumpi\n        /* \"#utility.yul\":352:353   */\n      0x00\n        /* \"#utility.yul\":349:350   */\n      dup1\n        /* \"#utility.yul\":342:354   */\n      revert\n        /* \"#utility.yul\":297:356   */\n    tag_65:\n        /* \"#utility.yul\":14:362   */\n      swap3\n      pop\n      swap3\n      swap1\n      pop\n      jump\t// out\n        /* \"#utility.yul\":367:846   */\n    tag_9:\n        /* \"#utility.yul\":447:453   */\n      0x00\n        /* \"#utility.yul\":455:461   */\n      dup1\n        /* \"#utility.yul\":463:469   */\n      0x00\n        /* \"#utility.yul\":516:518   */\n      0x40\n        /* \"#utility.yul\":504:513   */\n      dup5\n        /* \"#utility.yul\":495:502   */\n      dup7\n        /* \"#utility.yul\":491:514   */\n      sub\n        /* \"#utility.yul\":487:519   */\n      slt\n        /* \"#utility.yul\":484:536   */\n      iszero\n      tag_67\n      jumpi\n        /* \"#utility.yul\":532:533   */\n      0x00\n        /* \"#utility.yul\":529:530   */\n      dup1\n        /* \"#utility.yul\":522:534   */\n      revert\n        /* \"#utility.yul\":484:536   */\n    tag_67:\n        /* \"#utility.yul\":568:577   */\n      dup4\n        /* \"#utility.yul\":555:578   */\n      calldataload\n        /* \"#utility.yul\":545:578   */\n      swap3\n      pop\n        /* \"#utility.yul\":629:631   */\n      0x20\n        /* \"#utility.yul\":618:627   */\n      dup5\n        /* \"#utility.yul\":614:632   */\n      add\n        /* \"#utility.yul\":601:633   */\n      calldataload\n        /* \"#utility.yul\":656:674   */\n      0xffffffffffffffff\n        /* \"#utility.yul\":648:654   */\n      dup2\n        /* \"#utility.yul\":645:675   */\n      gt\n        /* \"#utility.yul\":642:692   */\n      iszero\n      tag_68\n      jumpi\n        /* \"#utility.yul\":688:689   */\n      0x00\n        /* \"#utility.yul\":685:686   */\n      dup1\n        /* \"#utility.yul\":678:690   */\n      revert\n        /* \"#utility.yul\":642:692   */\n    tag_68:\n        /* \"#utility.yul\":727:786   */\n      tag_69\n        /* \"#utility.yul\":778:785   */\n      dup7\n        /* \"#utility.yul\":769:775   */\n      dup3\n        /* \"#utility.yul\":758:767   */\n      dup8\n        /* \"#utility.yul\":754:776   */\n      add\n        /* \"#utility.yul\":727:786   */\n      tag_56\n      jump\t// in\n    tag_69:\n        /* \"#utility.yul\":367:846   */\n      swap5\n      swap8\n        /* \"#utility.yul\":805:813   */\n      swap1\n      swap7\n      pop\n        /* \"#utility.yul\":701:786   */\n      swap4\n      swap5\n      pop\n      pop\n      pop\n      pop\n        /* \"#utility.yul\":367:846   */\n      jump\t// out\n        /* \"#utility.yul\":851:1031   */\n    tag_13:\n        /* \"#utility.yul\":910:916   */\n      0x00\n        /* \"#utility.yul\":963:965   */\n      0x20\n        /* \"#utility.yul\":951:960   */\n      dup3\n        /* \"#utility.yul\":942:949   */\n      dup5\n        /* \"#utility.yul\":938:961   */\n      sub\n        /* \"#utility.yul\":934:966   */\n      slt\n        /* \"#utility.yul\":931:983   */\n      iszero\n      tag_71\n      jumpi\n        /* \"#utility.yul\":979:980   */\n      0x00\n        /* \"#utility.yul\":976:977   */\n      dup1\n        /* \"#utility.yul\":969:981   */\n      revert\n        /* \"#utility.yul\":931:983   */\n    tag_71:\n      pop\n        /* \"#utility.yul\":1002:1025   */\n      calldataload\n      swap2\n        /* \"#utility.yul\":851:1031   */\n      swap1\n      pop\n      jump\t// out\n        /* \"#utility.yul\":1036:1777   */\n    tag_19:\n        /* \"#utility.yul\":1166:1170   */\n      0x00\n        /* \"#utility.yul\":1195:1197   */\n      0x20\n        /* \"#utility.yul\":1224:1226   */\n      dup1\n        /* \"#utility.yul\":1213:1222   */\n      dup4\n        /* \"#utility.yul\":1206:1227   */\n      mstore\n        /* \"#utility.yul\":1262:1268   */\n      dup4\n        /* \"#utility.yul\":1256:1269   */\n      mload\n        /* \"#utility.yul\":1305:1309   */\n      0x40\n        /* \"#utility.yul\":1300:1302   */\n      dup3\n        /* \"#utility.yul\":1289:1298   */\n      dup6\n        /* \"#utility.yul\":1285:1303   */\n      add\n        /* \"#utility.yul\":1278:1310   */\n      mstore\n        /* \"#utility.yul\":1339:1351   */\n      dup1\n        /* \"#utility.yul\":1333:1352   */\n      mload\n        /* \"#utility.yul\":1388:1394   */\n      dup1\n        /* \"#utility.yul\":1383:1385   */\n      0x60\n        /* \"#utility.yul\":1372:1381   */\n      dup7\n        /* \"#utility.yul\":1368:1386   */\n      add\n        /* \"#utility.yul\":1361:1395   */\n      mstore\n        /* \"#utility.yul\":1413:1414   */\n      0x00\n        /* \"#utility.yul\":1423:1570   */\n    tag_73:\n        /* \"#utility.yul\":1437:1443   */\n      dup2\n        /* \"#utility.yul\":1434:1435   */\n      dup2\n        /* \"#utility.yul\":1431:1444   */\n      lt\n        /* \"#utility.yul\":1423:1570   */\n      iszero\n      tag_75\n      jumpi\n        /* \"#utility.yul\":1533:1553   */\n      dup3\n      dup2\n      add\n        /* \"#utility.yul\":1529:1558   */\n      dup5\n      add\n        /* \"#utility.yul\":1523:1559   */\n      mload\n        /* \"#utility.yul\":1498:1515   */\n      dup7\n      dup3\n      add\n        /* \"#utility.yul\":1517:1520   */\n      0x80\n        /* \"#utility.yul\":1494:1521   */\n      add\n        /* \"#utility.yul\":1487:1560   */\n      mstore\n        /* \"#utility.yul\":1452:1462   */\n      dup4\n      add\n        /* \"#utility.yul\":1423:1570   */\n      jump(tag_73)\n    tag_75:\n        /* \"#utility.yul\":1427:1430   */\n      pop\n        /* \"#utility.yul\":1620:1621   */\n      0x00\n        /* \"#utility.yul\":1614:1617   */\n      0x80\n        /* \"#utility.yul\":1605:1611   */\n      dup3\n        /* \"#utility.yul\":1594:1603   */\n      dup8\n        /* \"#utility.yul\":1590:1612   */\n      add\n        /* \"#utility.yul\":1586:1618   */\n      add\n        /* \"#utility.yul\":1579:1622   */\n      mstore\n        /* \"#utility.yul\":1692:1694   */\n      dup3\n        /* \"#utility.yul\":1684:1690   */\n      dup7\n        /* \"#utility.yul\":1680:1695   */\n      add\n        /* \"#utility.yul\":1674:1696   */\n      mload\n        /* \"#utility.yul\":1667:1697   */\n      iszero\n        /* \"#utility.yul\":1660:1698   */\n      iszero\n        /* \"#utility.yul\":1653:1657   */\n      0x40\n        /* \"#utility.yul\":1642:1651   */\n      dup7\n        /* \"#utility.yul\":1638:1658   */\n      add\n        /* \"#utility.yul\":1631:1699   */\n      mstore\n        /* \"#utility.yul\":1767:1770   */\n      0x80\n        /* \"#utility.yul\":1760:1762   */\n      0x1f\n        /* \"#utility.yul\":1756:1763   */\n      not\n        /* \"#utility.yul\":1751:1753   */\n      0x1f\n        /* \"#utility.yul\":1743:1749   */\n      dup4\n        /* \"#utility.yul\":1739:1754   */\n      add\n        /* \"#utility.yul\":1735:1764   */\n      and\n        /* \"#utility.yul\":1724:1733   */\n      dup7\n        /* \"#utility.yul\":1720:1765   */\n      add\n        /* \"#utility.yul\":1716:1771   */\n      add\n        /* \"#utility.yul\":1708:1771   */\n      swap4\n      pop\n      pop\n      pop\n      pop\n        /* \"#utility.yul\":1036:1777   */\n      swap3\n      swap2\n      pop\n      pop\n      jump\t// out\n        /* \"#utility.yul\":1782:2193   */\n    tag_22:\n        /* \"#utility.yul\":1853:1859   */\n      0x00\n        /* \"#utility.yul\":1861:1867   */\n      dup1\n        /* \"#utility.yul\":1914:1916   */\n      0x20\n        /* \"#utility.yul\":1902:1911   */\n      dup4\n        /* \"#utility.yul\":1893:1900   */\n      dup6\n        /* \"#utility.yul\":1889:1912   */\n      sub\n        /* \"#utility.yul\":1885:1917   */\n      slt\n        /* \"#utility.yul\":1882:1934   */\n      iszero\n      tag_77\n      jumpi\n        /* \"#utility.yul\":1930:1931   */\n      0x00\n        /* \"#utility.yul\":1927:1928   */\n      dup1\n        /* \"#utility.yul\":1920:1932   */\n      revert\n        /* \"#utility.yul\":1882:1934   */\n    tag_77:\n        /* \"#utility.yul\":1970:1979   */\n      dup3\n        /* \"#utility.yul\":1957:1980   */\n      calldataload\n        /* \"#utility.yul\":2003:2021   */\n      0xffffffffffffffff\n        /* \"#utility.yul\":1995:2001   */\n      dup2\n        /* \"#utility.yul\":1992:2022   */\n      gt\n        /* \"#utility.yul\":1989:2039   */\n      iszero\n      tag_78\n      jumpi\n        /* \"#utility.yul\":2035:2036   */\n      0x00\n        /* \"#utility.yul\":2032:2033   */\n      dup1\n        /* \"#utility.yul\":2025:2037   */\n      revert\n        /* \"#utility.yul\":1989:2039   */\n    tag_78:\n        /* \"#utility.yul\":2074:2133   */\n      tag_79\n        /* \"#utility.yul\":2125:2132   */\n      dup6\n        /* \"#utility.yul\":2116:2122   */\n      dup3\n        /* \"#utility.yul\":2105:2114   */\n      dup7\n        /* \"#utility.yul\":2101:2123   */\n      add\n        /* \"#utility.yul\":2074:2133   */\n      tag_56\n      jump\t// in\n    tag_79:\n        /* \"#utility.yul\":2152:2160   */\n      swap1\n      swap7\n        /* \"#utility.yul\":2048:2133   */\n      swap1\n      swap6\n      pop\n        /* \"#utility.yul\":1782:2193   */\n      swap4\n      pop\n      pop\n      pop\n      pop\n      jump\t// out\n        /* \"#utility.yul\":2198:2325   */\n    tag_28:\n        /* \"#utility.yul\":2259:2269   */\n      0x4e487b71\n        /* \"#utility.yul\":2254:2257   */\n      0xe0\n        /* \"#utility.yul\":2250:2270   */\n      shl\n        /* \"#utility.yul\":2247:2248   */\n      0x00\n        /* \"#utility.yul\":2240:2271   */\n      mstore\n        /* \"#utility.yul\":2290:2294   */\n      0x32\n        /* \"#utility.yul\":2287:2288   */\n      0x04\n        /* \"#utility.yul\":2280:2295   */\n      mstore\n        /* \"#utility.yul\":2314:2318   */\n      0x24\n        /* \"#utility.yul\":2311:2312   */\n      0x00\n        /* \"#utility.yul\":2304:2319   */\n      revert\n        /* \"#utility.yul\":2330:2457   */\n    tag_57:\n        /* \"#utility.yul\":2391:2401   */\n      0x4e487b71\n        /* \"#utility.yul\":2386:2389   */\n      0xe0\n        /* \"#utility.yul\":2382:2402   */\n      shl\n        /* \"#utility.yul\":2379:2380   */\n      0x00\n        /* \"#utility.yul\":2372:2403   */\n      mstore\n        /* \"#utility.yul\":2422:2426   */\n      0x41\n        /* \"#utility.yul\":2419:2420   */\n      0x04\n        /* \"#utility.yul\":2412:2427   */\n      mstore\n        /* \"#utility.yul\":2446:2450   */\n      0x24\n        /* \"#utility.yul\":2443:2444   */\n      0x00\n        /* \"#utility.yul\":2436:2451   */\n      revert\n        /* \"#utility.yul\":2462:2842   */\n    tag_47:\n        /* \"#utility.yul\":2541:2542   */\n      0x01\n        /* \"#utility.yul\":2537:2549   */\n      dup2\n      dup2\n      shr\n      swap1\n        /* \"#utility.yul\":2584:2596   */\n      dup3\n      and\n      dup1\n        /* \"#utility.yul\":2605:2666   */\n      tag_83\n      jumpi\n        /* \"#utility.yul\":2659:2663   */\n      0x7f\n        /* \"#utility.yul\":2651:2657   */\n      dup3\n        /* \"#utility.yul\":2647:2664   */\n      and\n        /* \"#utility.yul\":2637:2664   */\n      swap2\n      pop\n        /* \"#utility.yul\":2605:2666   */\n    tag_83:\n        /* \"#utility.yul\":2712:2714   */\n      0x20\n        /* \"#utility.yul\":2704:2710   */\n      dup3\n        /* \"#utility.yul\":2701:2715   */\n      lt\n        /* \"#utility.yul\":2681:2699   */\n      dup2\n        /* \"#utility.yul\":2678:2716   */\n      sub\n        /* \"#utility.yul\":2675:2836   */\n      tag_84\n      jumpi\n        /* \"#utility.yul\":2758:2768   */\n      0x4e487b71\n        /* \"#utility.yul\":2753:2756   */\n      0xe0\n        /* \"#utility.yul\":2749:2769   */\n      shl\n        /* \"#utility.yul\":2746:2747   */\n      0x00\n        /* \"#utility.yul\":2739:2770   */\n      mstore\n        /* \"#utility.yul\":2793:2797   */\n      0x22\n        /* \"#utility.yul\":2790:2791   */\n      0x04\n        /* \"#utility.yul\":2783:2798   */\n      mstore\n        /* \"#utility.yul\":2821:2825   */\n      0x24\n        /* \"#utility.yul\":2818:2819   */\n      0x00\n        /* \"#utility.yul\":2811:2826   */\n      revert\n        /* \"#utility.yul\":2675:2836   */\n    tag_84:\n      pop\n        /* \"#utility.yul\":2462:2842   */\n      swap2\n      swap1\n      pop\n      jump\t// out\n        /* \"#utility.yul\":2973:3518   */\n    tag_59:\n        /* \"#utility.yul\":3075:3077   */\n      0x1f\n        /* \"#utility.yul\":3070:3073   */\n      dup3\n        /* \"#utility.yul\":3067:3078   */\n      gt\n        /* \"#utility.yul\":3064:3512   */\n      iszero\n      tag_87\n      jumpi\n        /* \"#utility.yul\":3111:3112   */\n      0x00\n        /* \"#utility.yul\":3136:3141   */\n      dup2\n        /* \"#utility.yul\":3132:3134   */\n      dup2\n        /* \"#utility.yul\":3125:3142   */\n      mstore\n        /* \"#utility.yul\":3181:3185   */\n      0x20\n        /* \"#utility.yul\":3177:3179   */\n      dup2\n        /* \"#utility.yul\":3167:3186   */\n      keccak256\n        /* \"#utility.yul\":3251:3253   */\n      0x1f\n        /* \"#utility.yul\":3239:3249   */\n      dup6\n        /* \"#utility.yul\":3235:3254   */\n      add\n        /* \"#utility.yul\":3232:3233   */\n      0x05\n        /* \"#utility.yul\":3228:3255   */\n      shr\n        /* \"#utility.yul\":3222:3226   */\n      dup2\n        /* \"#utility.yul\":3218:3256   */\n      add\n        /* \"#utility.yul\":3287:3291   */\n      0x20\n        /* \"#utility.yul\":3275:3285   */\n      dup7\n        /* \"#utility.yul\":3272:3292   */\n      lt\n        /* \"#utility.yul\":3269:3316   */\n      iszero\n      tag_88\n      jumpi\n      pop\n        /* \"#utility.yul\":3310:3314   */\n      dup1\n        /* \"#utility.yul\":3269:3316   */\n    tag_88:\n        /* \"#utility.yul\":3365:3367   */\n      0x1f\n        /* \"#utility.yul\":3360:3363   */\n      dup6\n        /* \"#utility.yul\":3356:3368   */\n      add\n        /* \"#utility.yul\":3353:3354   */\n      0x05\n        /* \"#utility.yul\":3349:3369   */\n      shr\n        /* \"#utility.yul\":3343:3347   */\n      dup3\n        /* \"#utility.yul\":3339:3370   */\n      add\n        /* \"#utility.yul\":3329:3370   */\n      swap2\n      pop\n        /* \"#utility.yul\":3420:3502   */\n    tag_89:\n        /* \"#utility.yul\":3438:3440   */\n      dup2\n        /* \"#utility.yul\":3431:3436   */\n      dup2\n        /* \"#utility.yul\":3428:3441   */\n      lt\n        /* \"#utility.yul\":3420:3502   */\n      iszero\n      tag_91\n      jumpi\n        /* \"#utility.yul\":3483:3500   */\n      dup3\n      dup2\n      sstore\n        /* \"#utility.yul\":3464:3465   */\n      0x01\n        /* \"#utility.yul\":3453:3466   */\n      add\n        /* \"#utility.yul\":3420:3502   */\n      jump(tag_89)\n    tag_91:\n        /* \"#utility.yul\":3424:3427   */\n      pop\n      pop\n      pop\n        /* \"#utility.yul\":3064:3512   */\n    tag_87:\n        /* \"#utility.yul\":2973:3518   */\n      pop\n      pop\n      pop\n      jump\t// out\n        /* \"#utility.yul\":3694:4900   */\n    tag_31:\n        /* \"#utility.yul\":3818:3836   */\n      0xffffffffffffffff\n        /* \"#utility.yul\":3813:3816   */\n      dup4\n        /* \"#utility.yul\":3810:3837   */\n      gt\n        /* \"#utility.yul\":3807:3860   */\n      iszero\n      tag_95\n      jumpi\n        /* \"#utility.yul\":3840:3858   */\n      tag_95\n      tag_57\n      jump\t// in\n    tag_95:\n        /* \"#utility.yul\":3869:3963   */\n      tag_96\n        /* \"#utility.yul\":3959:3962   */\n      dup4\n        /* \"#utility.yul\":3919:3957   */\n      tag_97\n        /* \"#utility.yul\":3951:3955   */\n      dup4\n        /* \"#utility.yul\":3945:3956   */\n      sload\n        /* \"#utility.yul\":3919:3957   */\n      tag_47\n      jump\t// in\n    tag_97:\n        /* \"#utility.yul\":3913:3917   */\n      dup4\n        /* \"#utility.yul\":3869:3963   */\n      tag_59\n      jump\t// in\n    tag_96:\n        /* \"#utility.yul\":3989:3990   */\n      0x00\n        /* \"#utility.yul\":4014:4016   */\n      0x1f\n        /* \"#utility.yul\":4009:4012   */\n      dup5\n        /* \"#utility.yul\":4006:4017   */\n      gt\n        /* \"#utility.yul\":4031:4032   */\n      0x01\n        /* \"#utility.yul\":4026:4642   */\n      dup2\n      eq\n      tag_99\n      jumpi\n        /* \"#utility.yul\":4686:4687   */\n      0x00\n        /* \"#utility.yul\":4703:4706   */\n      dup6\n        /* \"#utility.yul\":4700:4793   */\n      iszero\n      tag_100\n      jumpi\n      pop\n        /* \"#utility.yul\":4759:4778   */\n      dup4\n      dup3\n      add\n        /* \"#utility.yul\":4746:4779   */\n      calldataload\n        /* \"#utility.yul\":4700:4793   */\n    tag_100:\n      not(0x00)\n        /* \"#utility.yul\":3651:3652   */\n      0x03\n        /* \"#utility.yul\":3647:3658   */\n      dup8\n      swap1\n      shl\n        /* \"#utility.yul\":3643:3667   */\n      shr\n        /* \"#utility.yul\":3639:3668   */\n      not\n        /* \"#utility.yul\":3629:3669   */\n      and\n        /* \"#utility.yul\":3675:3676   */\n      0x01\n        /* \"#utility.yul\":3671:3682   */\n      dup7\n      swap1\n      shl\n        /* \"#utility.yul\":3626:3683   */\n      or\n        /* \"#utility.yul\":4806:4884   */\n      dup4\n      sstore\n        /* \"#utility.yul\":3999:4894   */\n      jump(tag_98)\n        /* \"#utility.yul\":4026:4642   */\n    tag_99:\n        /* \"#utility.yul\":2920:2921   */\n      0x00\n        /* \"#utility.yul\":2913:2927   */\n      dup4\n      dup2\n      mstore\n        /* \"#utility.yul\":2957:2961   */\n      0x20\n        /* \"#utility.yul\":2944:2962   */\n      swap1\n      keccak256\n      not(0x1f)\n        /* \"#utility.yul\":4062:4079   */\n      dup7\n      and\n      swap1\n        /* \"#utility.yul\":4163:4172   */\n      dup4\n        /* \"#utility.yul\":4185:4414   */\n    tag_103:\n        /* \"#utility.yul\":4199:4206   */\n      dup3\n        /* \"#utility.yul\":4196:4197   */\n      dup2\n        /* \"#utility.yul\":4193:4207   */\n      lt\n        /* \"#utility.yul\":4185:4414   */\n      iszero\n      tag_105\n      jumpi\n        /* \"#utility.yul\":4288:4307   */\n      dup7\n      dup6\n      add\n        /* \"#utility.yul\":4275:4308   */\n      calldataload\n        /* \"#utility.yul\":4260:4309   */\n      dup3\n      sstore\n        /* \"#utility.yul\":4395:4399   */\n      0x20\n        /* \"#utility.yul\":4380:4400   */\n      swap5\n      dup6\n      add\n      swap5\n        /* \"#utility.yul\":4348:4349   */\n      0x01\n        /* \"#utility.yul\":4336:4350   */\n      swap1\n      swap3\n      add\n      swap2\n        /* \"#utility.yul\":4215:4227   */\n      add\n        /* \"#utility.yul\":4185:4414   */\n      jump(tag_103)\n    tag_105:\n        /* \"#utility.yul\":4189:4192   */\n      pop\n        /* \"#utility.yul\":4442:4445   */\n      dup7\n        /* \"#utility.yul\":4433:4440   */\n      dup3\n        /* \"#utility.yul\":4430:4446   */\n      lt\n        /* \"#utility.yul\":4427:4586   */\n      iszero\n      tag_106\n      jumpi\n        /* \"#utility.yul\":4566:4567   */\n      0x00\n        /* \"#utility.yul\":4562:4568   */\n      not\n        /* \"#utility.yul\":4556:4559   */\n      0xf8\n        /* \"#utility.yul\":4550:4553   */\n      dup9\n        /* \"#utility.yul\":4547:4548   */\n      0x03\n        /* \"#utility.yul\":4543:4554   */\n      shl\n        /* \"#utility.yul\":4539:4560   */\n      and\n        /* \"#utility.yul\":4535:4569   */\n      shr\n        /* \"#utility.yul\":4531:4570   */\n      not\n        /* \"#utility.yul\":4518:4527   */\n      dup5\n        /* \"#utility.yul\":4513:4516   */\n      dup8\n        /* \"#utility.yul\":4509:4528   */\n      add\n        /* \"#utility.yul\":4496:4529   */\n      calldataload\n        /* \"#utility.yul\":4492:4571   */\n      and\n        /* \"#utility.yul\":4484:4490   */\n      dup2\n        /* \"#utility.yul\":4477:4572   */\n      sstore\n        /* \"#utility.yul\":4427:4586   */\n    tag_106:\n      pop\n      pop\n        /* \"#utility.yul\":4629:4630   */\n      0x01\n        /* \"#utility.yul\":4623:4626   */\n      dup6\n        /* \"#utility.yul\":4620:4621   */\n      0x01\n        /* \"#utility.yul\":4616:4627   */\n      shl\n        /* \"#utility.yul\":4612:4631   */\n      add\n        /* \"#utility.yul\":4606:4610   */\n      dup4\n        /* \"#utility.yul\":4599:4632   */\n      sstore\n        /* \"#utility.yul\":3999:4894   */\n    tag_98:\n      pop\n      pop\n        /* \"#utility.yul\":3694:4900   */\n      pop\n      pop\n      pop\n      jump\t// out\n        /* \"#utility.yul\":4905:6257   */\n    tag_55:\n        /* \"#utility.yul\":5031:5034   */\n      dup2\n        /* \"#utility.yul\":5025:5035   */\n      mload\n        /* \"#utility.yul\":5058:5076   */\n      0xffffffffffffffff\n        /* \"#utility.yul\":5050:5056   */\n      dup2\n        /* \"#utility.yul\":5047:5077   */\n      gt\n        /* \"#utility.yul\":5044:5100   */\n      iszero\n      tag_109\n      jumpi\n        /* \"#utility.yul\":5080:5098   */\n      tag_109\n      tag_57\n      jump\t// in\n    tag_109:\n        /* \"#utility.yul\":5109:5206   */\n      tag_110\n        /* \"#utility.yul\":5199:5205   */\n      dup2\n        /* \"#utility.yul\":5159:5197   */\n      tag_111\n        /* \"#utility.yul\":5191:5195   */\n      dup5\n        /* \"#utility.yul\":5185:5196   */\n      sload\n        /* \"#utility.yul\":5159:5197   */\n      tag_47\n      jump\t// in\n    tag_111:\n        /* \"#utility.yul\":5153:5157   */\n      dup5\n        /* \"#utility.yul\":5109:5206   */\n      tag_59\n      jump\t// in\n    tag_110:\n        /* \"#utility.yul\":5261:5265   */\n      0x20\n      dup1\n        /* \"#utility.yul\":5325:5327   */\n      0x1f\n        /* \"#utility.yul\":5314:5328   */\n      dup4\n      gt\n        /* \"#utility.yul\":5342:5343   */\n      0x01\n        /* \"#utility.yul\":5337:6000   */\n      dup2\n      eq\n      tag_113\n      jumpi\n        /* \"#utility.yul\":6044:6045   */\n      0x00\n        /* \"#utility.yul\":6061:6067   */\n      dup5\n        /* \"#utility.yul\":6058:6147   */\n      iszero\n      tag_114\n      jumpi\n      pop\n        /* \"#utility.yul\":6113:6132   */\n      dup6\n      dup4\n      add\n        /* \"#utility.yul\":6107:6133   */\n      mload\n        /* \"#utility.yul\":6058:6147   */\n    tag_114:\n      not(0x00)\n        /* \"#utility.yul\":3651:3652   */\n      0x03\n        /* \"#utility.yul\":3647:3658   */\n      dup7\n      swap1\n      shl\n        /* \"#utility.yul\":3643:3667   */\n      shr\n        /* \"#utility.yul\":3639:3668   */\n      not\n        /* \"#utility.yul\":3629:3669   */\n      and\n        /* \"#utility.yul\":3675:3676   */\n      0x01\n        /* \"#utility.yul\":3671:3682   */\n      dup6\n      swap1\n      shl\n        /* \"#utility.yul\":3626:3683   */\n      or\n        /* \"#utility.yul\":6160:6241   */\n      dup6\n      sstore\n        /* \"#utility.yul\":5307:6251   */\n      jump(tag_91)\n        /* \"#utility.yul\":5337:6000   */\n    tag_113:\n        /* \"#utility.yul\":2920:2921   */\n      0x00\n        /* \"#utility.yul\":2913:2927   */\n      dup6\n      dup2\n      mstore\n        /* \"#utility.yul\":2957:2961   */\n      0x20\n        /* \"#utility.yul\":2944:2962   */\n      dup2\n      keccak256\n      not(0x1f)\n        /* \"#utility.yul\":5373:5393   */\n      dup7\n      and\n      swap2\n        /* \"#utility.yul\":5491:5727   */\n    tag_117:\n        /* \"#utility.yul\":5505:5512   */\n      dup3\n        /* \"#utility.yul\":5502:5503   */\n      dup2\n        /* \"#utility.yul\":5499:5513   */\n      lt\n        /* \"#utility.yul\":5491:5727   */\n      iszero\n      tag_119\n      jumpi\n        /* \"#utility.yul\":5594:5613   */\n      dup9\n      dup7\n      add\n        /* \"#utility.yul\":5588:5614   */\n      mload\n        /* \"#utility.yul\":5573:5615   */\n      dup3\n      sstore\n        /* \"#utility.yul\":5686:5713   */\n      swap5\n      dup5\n      add\n      swap5\n        /* \"#utility.yul\":5654:5655   */\n      0x01\n        /* \"#utility.yul\":5642:5656   */\n      swap1\n      swap2\n      add\n      swap1\n        /* \"#utility.yul\":5521:5540   */\n      dup5\n      add\n        /* \"#utility.yul\":5491:5727   */\n      jump(tag_117)\n    tag_119:\n        /* \"#utility.yul\":5495:5498   */\n      pop\n        /* \"#utility.yul\":5755:5761   */\n      dup6\n        /* \"#utility.yul\":5746:5753   */\n      dup3\n        /* \"#utility.yul\":5743:5762   */\n      lt\n        /* \"#utility.yul\":5740:5941   */\n      iszero\n      tag_120\n      jumpi\n        /* \"#utility.yul\":5816:5835   */\n      dup8\n      dup6\n      add\n        /* \"#utility.yul\":5810:5836   */\n      mload\n      not(0x00)\n        /* \"#utility.yul\":5899:5900   */\n      0x03\n        /* \"#utility.yul\":5895:5909   */\n      dup9\n      swap1\n      shl\n        /* \"#utility.yul\":5911:5914   */\n      0xf8\n        /* \"#utility.yul\":5891:5915   */\n      and\n        /* \"#utility.yul\":5887:5924   */\n      shr\n        /* \"#utility.yul\":5883:5925   */\n      not\n        /* \"#utility.yul\":5868:5926   */\n      and\n        /* \"#utility.yul\":5853:5927   */\n      dup2\n      sstore\n        /* \"#utility.yul\":5740:5941   */\n    tag_120:\n      pop\n      pop\n      pop\n      pop\n      pop\n        /* \"#utility.yul\":5987:5988   */\n      0x01\n        /* \"#utility.yul\":5971:5985   */\n      swap1\n      dup2\n      shl\n        /* \"#utility.yul\":5967:5989   */\n      add\n        /* \"#utility.yul\":5954:5990   */\n      swap1\n      sstore\n      pop\n        /* \"#utility.yul\":4905:6257   */\n      jump\t// out\n\n    auxdata: 0xa2646970667358221220a7d1df6e6329f9c41ac60017328d9d57f89a96365700ec18367df9110286eb7264736f6c63430008100033\n}\n",
				"bytecode": {
					"linkReferences": {},
					"object": "608060405234801561001057600080fd5b5061069f806100206000396000f3fe608060405234801561001057600080fd5b506004361061004c5760003560e01c8063d534ee8814610051578063dc00282c14610066578063dd68afb614610079578063e34f1221146100a2575b600080fd5b61006461005f366004610329565b6100b5565b005b610064610074366004610375565b6100fc565b61008c610087366004610375565b61016f565b604051610099919061038e565b60405180910390f35b6100646100b03660046103f1565b610259565b60005483106100c357600080fd5b8181600085815481106100d8576100d8610433565b906000526020600020906002020160000191826100f69291906104e8565b50505050565b600054811061010a57600080fd5b6000818154811061011d5761011d610433565b60009182526020822060016002909202010154815460ff9091161591908390811061014a5761014a610433565b60009182526020909120600290910201600101805460ff191691151591909117905550565b6040805180820190915260608152600060208201526000828154811061019757610197610433565b90600052602060002090600202016040518060400160405290816000820180546101c09061045f565b80601f01602080910402602001604051908101604052809291908181526020018280546101ec9061045f565b80156102395780601f1061020e57610100808354040283529160200191610239565b820191906000526020600020905b81548152906001019060200180831161021c57829003601f168201915b50505091835250506001919091015460ff16151560209091015292915050565b6040805160606020601f85018190040282018101835291810183815260009282919086908690819085018382808284376000920182905250938552505050602091820181905283546001810185559381522081519192600202019081906102c090826105a9565b50602091909101516001909101805460ff19169115159190911790555050565b60008083601f8401126102f257600080fd5b50813567ffffffffffffffff81111561030a57600080fd5b60208301915083602082850101111561032257600080fd5b9250929050565b60008060006040848603121561033e57600080fd5b83359250602084013567ffffffffffffffff81111561035c57600080fd5b610368868287016102e0565b9497909650939450505050565b60006020828403121561038757600080fd5b5035919050565b600060208083528351604082850152805180606086015260005b818110156103c4578281018401518682016080015283016103a8565b5060006080828701015282860151151560408601526080601f19601f830116860101935050505092915050565b6000806020838503121561040457600080fd5b823567ffffffffffffffff81111561041b57600080fd5b610427858286016102e0565b90969095509350505050565b634e487b7160e01b600052603260045260246000fd5b634e487b7160e01b600052604160045260246000fd5b600181811c9082168061047357607f821691505b60208210810361049357634e487b7160e01b600052602260045260246000fd5b50919050565b601f8211156104e357600081815260208120601f850160051c810160208610156104c05750805b601f850160051c820191505b818110156104df578281556001016104cc565b5050505b505050565b67ffffffffffffffff83111561050057610500610449565b6105148361050e835461045f565b83610499565b6000601f84116001811461054857600085156105305750838201355b600019600387901b1c1916600186901b1783556105a2565b600083815260209020601f19861690835b828110156105795786850135825560209485019460019092019101610559565b50868210156105965760001960f88860031b161c19848701351681555b505060018560011b0183555b5050505050565b815167ffffffffffffffff8111156105c3576105c3610449565b6105d7816105d1845461045f565b84610499565b602080601f83116001811461060c57600084156105f45750858301515b600019600386901b1c1916600185901b1785556104df565b600085815260208120601f198616915b8281101561063b5788860151825594840194600190910190840161061c565b50858210156106595787850151600019600388901b60f8161c191681555b5050505050600190811b0190555056fea2646970667358221220a7d1df6e6329f9c41ac60017328d9d57f89a96365700ec18367df9110286eb7264736f6c63430008100033",
					"opcodes": "PUSH1 0x80 PUSH1 0x40 MSTORE CALLVALUE DUP1 ISZERO PUSH2 0x10 JUMPI PUSH1 0x0 DUP1 REVERT JUMPDEST POP PUSH2 0x69F DUP1 PUSH2 0x20 PUSH1 0x0 CODECOPY PUSH1 0x0 RETURN INVALID PUSH1 0x80 PUSH1 0x40 MSTORE CALLVALUE DUP1 ISZERO PUSH2 0x10 JUMPI PUSH1 0x0 DUP1 REVERT JUMPDEST POP PUSH1 0x4 CALLDATASIZE LT PUSH2 0x4C JUMPI PUSH1 0x0 CALLDATALOAD PUSH1 0xE0 SHR DUP1 PUSH4 0xD534EE88 EQ PUSH2 0x51 JUMPI DUP1 PUSH4 0xDC00282C EQ PUSH2 0x66 JUMPI DUP1 PUSH4 0xDD68AFB6 EQ PUSH2 0x79 JUMPI DUP1 PUSH4 0xE34F1221 EQ PUSH2 0xA2 JUMPI JUMPDEST PUSH1 0x0 DUP1 REVERT JUMPDEST PUSH2 0x64 PUSH2 0x5F CALLDATASIZE PUSH1 0x4 PUSH2 0x329 JUMP JUMPDEST PUSH2 0xB5 JUMP JUMPDEST STOP JUMPDEST PUSH2 0x64 PUSH2 0x74 CALLDATASIZE PUSH1 0x4 PUSH2 0x375 JUMP JUMPDEST PUSH2 0xFC JUMP JUMPDEST PUSH2 0x8C PUSH2 0x87 CALLDATASIZE PUSH1 0x4 PUSH2 0x375 JUMP JUMPDEST PUSH2 0x16F JUMP JUMPDEST PUSH1 0x40 MLOAD PUSH2 0x99 SWAP2 SWAP1 PUSH2 0x38E JUMP JUMPDEST PUSH1 0x40 MLOAD DUP1 SWAP2 SUB SWAP1 RETURN JUMPDEST PUSH2 0x64 PUSH2 0xB0 CALLDATASIZE PUSH1 0x4 PUSH2 0x3F1 JUMP JUMPDEST PUSH2 0x259 JUMP JUMPDEST PUSH1 0x0 SLOAD DUP4 LT PUSH2 0xC3 JUMPI PUSH1 0x0 DUP1 REVERT JUMPDEST DUP2 DUP2 PUSH1 0x0 DUP6 DUP2 SLOAD DUP2 LT PUSH2 0xD8 JUMPI PUSH2 0xD8 PUSH2 0x433 JUMP JUMPDEST SWAP1 PUSH1 0x0 MSTORE PUSH1 0x20 PUSH1 0x0 KECCAK256 SWAP1 PUSH1 0x2 MUL ADD PUSH1 0x0 ADD SWAP2 DUP3 PUSH2 0xF6 SWAP3 SWAP2 SWAP1 PUSH2 0x4E8 JUMP JUMPDEST POP POP POP POP JUMP JUMPDEST PUSH1 0x0 SLOAD DUP2 LT PUSH2 0x10A JUMPI PUSH1 0x0 DUP1 REVERT JUMPDEST PUSH1 0x0 DUP2 DUP2 SLOAD DUP2 LT PUSH2 0x11D JUMPI PUSH2 0x11D PUSH2 0x433 JUMP JUMPDEST PUSH1 0x0 SWAP2 DUP3 MSTORE PUSH1 0x20 DUP3 KECCAK256 PUSH1 0x1 PUSH1 0x2 SWAP1 SWAP3 MUL ADD ADD SLOAD DUP2 SLOAD PUSH1 0xFF SWAP1 SWAP2 AND ISZERO SWAP2 SWAP1 DUP4 SWAP1 DUP2 LT PUSH2 0x14A JUMPI PUSH2 0x14A PUSH2 0x433 JUMP JUMPDEST PUSH1 0x0 SWAP2 DUP3 MSTORE PUSH1 0x20 SWAP1 SWAP2 KECCAK256 PUSH1 0x2 SWAP1 SWAP2 MUL ADD PUSH1 0x1 ADD DUP1 SLOAD PUSH1 0xFF NOT AND SWAP2 ISZERO ISZERO SWAP2 SWAP1 SWAP2 OR SWAP1 SSTORE POP JUMP JUMPDEST PUSH1 0x40 DUP1 MLOAD DUP1 DUP3 ADD SWAP1 SWAP2 MSTORE PUSH1 0x60 DUP2 MSTORE PUSH1 0x0 PUSH1 0x20 DUP3 ADD MSTORE PUSH1 0x0 DUP3 DUP2 SLOAD DUP2 LT PUSH2 0x197 JUMPI PUSH2 0x197 PUSH2 0x433 JUMP JUMPDEST SWAP1 PUSH1 0x0 MSTORE PUSH1 0x20 PUSH1 0x0 KECCAK256 SWAP1 PUSH1 0x2 MUL ADD PUSH1 0x40 MLOAD DUP1 PUSH1 0x40 ADD PUSH1 0x40 MSTORE SWAP1 DUP2 PUSH1 0x0 DUP3 ADD DUP1 SLOAD PUSH2 0x1C0 SWAP1 PUSH2 0x45F JUMP JUMPDEST DUP1 PUSH1 0x1F ADD PUSH1 0x20 DUP1 SWAP2 DIV MUL PUSH1 0x20 ADD PUSH1 0x40 MLOAD SWAP1 DUP2 ADD PUSH1 0x40 MSTORE DUP1 SWAP3 SWAP2 SWAP1 DUP2 DUP2 MSTORE PUSH1 0x20 ADD DUP3 DUP1 SLOAD PUSH2 0x1EC SWAP1 PUSH2 0x45F JUMP JUMPDEST DUP1 ISZERO PUSH2 0x239 JUMPI DUP1 PUSH1 0x1F LT PUSH2 0x20E JUMPI PUSH2 0x100 DUP1 DUP4 SLOAD DIV MUL DUP4 MSTORE SWAP2 PUSH1 0x20 ADD SWAP2 PUSH2 0x239 JUMP JUMPDEST DUP3 ADD SWAP2 SWAP1 PUSH1 0x0 MSTORE PUSH1 0x20 PUSH1 0x0 KECCAK256 SWAP1 JUMPDEST DUP2 SLOAD DUP2 MSTORE SWAP1 PUSH1 0x1 ADD SWAP1 PUSH1 0x20 ADD DUP1 DUP4 GT PUSH2 0x21C JUMPI DUP3 SWAP1 SUB PUSH1 0x1F AND DUP3 ADD SWAP2 JUMPDEST POP POP POP SWAP2 DUP4 MSTORE POP POP PUSH1 0x1 SWAP2 SWAP1 SWAP2 ADD SLOAD PUSH1 0xFF AND ISZERO ISZERO PUSH1 0x20 SWAP1 SWAP2 ADD MSTORE SWAP3 SWAP2 POP POP JUMP JUMPDEST PUSH1 0x40 DUP1 MLOAD PUSH1 0x60 PUSH1 0x20 PUSH1 0x1F DUP6 ADD DUP2 SWAP1 DIV MUL DUP3 ADD DUP2 ADD DUP4 MSTORE SWAP2 DUP2 ADD DUP4 DUP2 MSTORE PUSH1 0x0 SWAP3 DUP3 SWAP2 SWAP1 DUP7 SWAP1 DUP7 SWAP1 DUP2 SWAP1 DUP6 ADD DUP4 DUP3 DUP1 DUP3 DUP5 CALLDATACOPY PUSH1 0x0 SWAP3 ADD DUP3 SWAP1 MSTORE POP SWAP4 DUP6 MSTORE POP POP POP PUSH1 0x20 SWAP2 DUP3 ADD DUP2 SWAP1 MSTORE DUP4 SLOAD PUSH1 0x1 DUP2 ADD DUP6 SSTORE SWAP4 DUP2 MSTORE KECCAK256 DUP2 MLOAD SWAP2 SWAP3 PUSH1 0x2 MUL ADD SWAP1 DUP2 SWAP1 PUSH2 0x2C0 SWAP1 DUP3 PUSH2 0x5A9 JUMP JUMPDEST POP PUSH1 0x20 SWAP2 SWAP1 SWAP2 ADD MLOAD PUSH1 0x1 SWAP1 SWAP2 ADD DUP1 SLOAD PUSH1 0xFF NOT AND SWAP2 ISZERO ISZERO SWAP2 SWAP1 SWAP2 OR SWAP1 SSTORE POP POP JUMP JUMPDEST PUSH1 0x0 DUP1 DUP4 PUSH1 0x1F DUP5 ADD SLT PUSH2 0x2F2 JUMPI PUSH1 0x0 DUP1 REVERT JUMPDEST POP DUP2 CALLDATALOAD PUSH8 0xFFFFFFFFFFFFFFFF DUP2 GT ISZERO PUSH2 0x30A JUMPI PUSH1 0x0 DUP1 REVERT JUMPDEST PUSH1 0x20 DUP4 ADD SWAP2 POP DUP4 PUSH1 0x20 DUP3 DUP6 ADD ADD GT ISZERO PUSH2 0x322 JUMPI PUSH1 0x0 DUP1 REVERT JUMPDEST SWAP3 POP SWAP3 SWAP1 POP JUMP JUMPDEST PUSH1 0x0 DUP1 PUSH1 0x0 PUSH1 0x40 DUP5 DUP7 SUB SLT ISZERO PUSH2 0x33E JUMPI PUSH1 0x0 DUP1 REVERT JUMPDEST DUP4 CALLDATALOAD SWAP3 POP PUSH1 0x20 DUP5 ADD CALLDATALOAD PUSH8 0xFFFFFFFFFFFFFFFF DUP2 GT ISZERO PUSH2 0x35C JUMPI PUSH1 0x0 DUP1 REVERT JUMPDEST PUSH2 0x368 DUP7 DUP3 DUP8 ADD PUSH2 0x2E0 JUMP JUMPDEST SWAP5 SWAP8 SWAP1 SWAP7 POP SWAP4 SWAP5 POP POP POP POP JUMP JUMPDEST PUSH1 0x0 PUSH1 0x20 DUP3 DUP5 SUB SLT ISZERO PUSH2 0x387 JUMPI PUSH1 0x0 DUP1 REVERT JUMPDEST POP CALLDATALOAD SWAP2 SWAP1 POP JUMP JUMPDEST PUSH1 0x0 PUSH1 0x20 DUP1 DUP4 MSTORE DUP4 MLOAD PUSH1 0x40 DUP3 DUP6 ADD MSTORE DUP1 MLOAD DUP1 PUSH1 0x60 DUP7 ADD MSTORE PUSH1 0x0 JUMPDEST DUP2 DUP2 LT ISZERO PUSH2 0x3C4 JUMPI DUP3 DUP2 ADD DUP5 ADD MLOAD DUP7 DUP3 ADD PUSH1 0x80 ADD MSTORE DUP4 ADD PUSH2 0x3A8 JUMP JUMPDEST POP PUSH1 0x0 PUSH1 0x80 DUP3 DUP8 ADD ADD MSTORE DUP3 DUP7 ADD MLOAD ISZERO ISZERO PUSH1 0x40 DUP7 ADD MSTORE PUSH1 0x80 PUSH1 0x1F NOT PUSH1 0x1F DUP4 ADD AND DUP7 ADD ADD SWAP4 POP POP POP POP SWAP3 SWAP2 POP POP JUMP JUMPDEST PUSH1 0x0 DUP1 PUSH1 0x20 DUP4 DUP6 SUB SLT ISZERO PUSH2 0x404 JUMPI PUSH1 0x0 DUP1 REVERT JUMPDEST DUP3 CALLDATALOAD PUSH8 0xFFFFFFFFFFFFFFFF DUP2 GT ISZERO PUSH2 0x41B JUMPI PUSH1 0x0 DUP1 REVERT JUMPDEST PUSH2 0x427 DUP6 DUP3 DUP7 ADD PUSH2 0x2E0 JUMP JUMPDEST SWAP1 SWAP7 SWAP1 SWAP6 POP SWAP4 POP POP POP POP JUMP JUMPDEST PUSH4 0x4E487B71 PUSH1 0xE0 SHL PUSH1 0x0 MSTORE PUSH1 0x32 PUSH1 0x4 MSTORE PUSH1 0x24 PUSH1 0x0 REVERT JUMPDEST PUSH4 0x4E487B71 PUSH1 0xE0 SHL PUSH1 0x0 MSTORE PUSH1 0x41 PUSH1 0x4 MSTORE PUSH1 0x24 PUSH1 0x0 REVERT JUMPDEST PUSH1 0x1 DUP2 DUP2 SHR SWAP1 DUP3 AND DUP1 PUSH2 0x473 JUMPI PUSH1 0x7F DUP3 AND SWAP2 POP JUMPDEST PUSH1 0x20 DUP3 LT DUP2 SUB PUSH2 0x493 JUMPI PUSH4 0x4E487B71 PUSH1 0xE0 SHL PUSH1 0x0 MSTORE PUSH1 0x22 PUSH1 0x4 MSTORE PUSH1 0x24 PUSH1 0x0 REVERT JUMPDEST POP SWAP2 SWAP1 POP JUMP JUMPDEST PUSH1 0x1F DUP3 GT ISZERO PUSH2 0x4E3 JUMPI PUSH1 0x0 DUP2 DUP2 MSTORE PUSH1 0x20 DUP2 KECCAK256 PUSH1 0x1F DUP6 ADD PUSH1 0x5 SHR DUP2 ADD PUSH1 0x20 DUP7 LT ISZERO PUSH2 0x4C0 JUMPI POP DUP1 JUMPDEST PUSH1 0x1F DUP6 ADD PUSH1 0x5 SHR DUP3 ADD SWAP2 POP JUMPDEST DUP2 DUP2 LT ISZERO PUSH2 0x4DF JUMPI DUP3 DUP2 SSTORE PUSH1 0x1 ADD PUSH2 0x4CC JUMP JUMPDEST POP POP POP JUMPDEST POP POP POP JUMP JUMPDEST PUSH8 0xFFFFFFFFFFFFFFFF DUP4 GT ISZERO PUSH2 0x500 JUMPI PUSH2 0x500 PUSH2 0x449 JUMP JUMPDEST PUSH2 0x514 DUP4 PUSH2 0x50E DUP4 SLOAD PUSH2 0x45F JUMP JUMPDEST DUP4 PUSH2 0x499 JUMP JUMPDEST PUSH1 0x0 PUSH1 0x1F DUP5 GT PUSH1 0x1 DUP2 EQ PUSH2 0x548 JUMPI PUSH1 0x0 DUP6 ISZERO PUSH2 0x530 JUMPI POP DUP4 DUP3 ADD CALLDATALOAD JUMPDEST PUSH1 0x0 NOT PUSH1 0x3 DUP8 SWAP1 SHL SHR NOT AND PUSH1 0x1 DUP7 SWAP1 SHL OR DUP4 SSTORE PUSH2 0x5A2 JUMP JUMPDEST PUSH1 0x0 DUP4 DUP2 MSTORE PUSH1 0x20 SWAP1 KECCAK256 PUSH1 0x1F NOT DUP7 AND SWAP1 DUP4 JUMPDEST DUP3 DUP2 LT ISZERO PUSH2 0x579 JUMPI DUP7 DUP6 ADD CALLDATALOAD DUP3 SSTORE PUSH1 0x20 SWAP5 DUP6 ADD SWAP5 PUSH1 0x1 SWAP1 SWAP3 ADD SWAP2 ADD PUSH2 0x559 JUMP JUMPDEST POP DUP7 DUP3 LT ISZERO PUSH2 0x596 JUMPI PUSH1 0x0 NOT PUSH1 0xF8 DUP9 PUSH1 0x3 SHL AND SHR NOT DUP5 DUP8 ADD CALLDATALOAD AND DUP2 SSTORE JUMPDEST POP POP PUSH1 0x1 DUP6 PUSH1 0x1 SHL ADD DUP4 SSTORE JUMPDEST POP POP POP POP POP JUMP JUMPDEST DUP2 MLOAD PUSH8 0xFFFFFFFFFFFFFFFF DUP2 GT ISZERO PUSH2 0x5C3 JUMPI PUSH2 0x5C3 PUSH2 0x449 JUMP JUMPDEST PUSH2 0x5D7 DUP2 PUSH2 0x5D1 DUP5 SLOAD PUSH2 0x45F JUMP JUMPDEST DUP5 PUSH2 0x499 JUMP JUMPDEST PUSH1 0x20 DUP1 PUSH1 0x1F DUP4 GT PUSH1 0x1 DUP2 EQ PUSH2 0x60C JUMPI PUSH1 0x0 DUP5 ISZERO PUSH2 0x5F4 JUMPI POP DUP6 DUP4 ADD MLOAD JUMPDEST PUSH1 0x0 NOT PUSH1 0x3 DUP7 SWAP1 SHL SHR NOT AND PUSH1 0x1 DUP6 SWAP1 SHL OR DUP6 SSTORE PUSH2 0x4DF JUMP JUMPDEST PUSH1 0x0 DUP6 DUP2 MSTORE PUSH1 0x20 DUP2 KECCAK256 PUSH1 0x1F NOT DUP7 AND SWAP2 JUMPDEST DUP3 DUP2 LT ISZERO PUSH2 0x63B JUMPI DUP9 DUP7 ADD MLOAD DUP3 SSTORE SWAP5 DUP5 ADD SWAP5 PUSH1 0x1 SWAP1 SWAP2 ADD SWAP1 DUP5 ADD PUSH2 0x61C JUMP JUMPDEST POP DUP6 DUP3 LT ISZERO PUSH2 0x659 JUMPI DUP8 DUP6 ADD MLOAD PUSH1 0x0 NOT PUSH1 0x3 DUP9 SWAP1 SHL PUSH1 0xF8 AND SHR NOT AND DUP2 SSTORE JUMPDEST POP POP POP POP POP PUSH1 0x1 SWAP1 DUP2 SHL ADD SWAP1 SSTORE POP JUMP INVALID LOG2 PUSH5 0x6970667358 0x22 SLT KECCAK256 0xA7 0xD1 0xDF PUSH15 0x6329F9C41AC60017328D9D57F89A96 CALLDATASIZE JUMPI STOP 0xEC XOR CALLDATASIZE PUSH30 0xF9110286EB7264736F6C6343000810003300000000000000000000000000 "
				},
				"gasEstimates": {
					"creation": {
						"codeDepositCost": "339000",
						"executionCost": "374",
						"totalCost": "339374"
					},
					"external": {
						"createTodo(string)": "infinite",
						"getTodo(uint256)": "infinite",
						"toggleTodo(uint256)": "33118",
						"updateTodo(uint256,string)": "infinite"
					}
				},
				"methodIdentifiers": {
					"createTodo(string)": "e34f1221",
					"getTodo(uint256)": "dd68afb6",
					"toggleTodo(uint256)": "dc00282c",
					"updateTodo(uint256,string)": "d534ee88"
				}
			},
			"storageLayout": {
				"storage": [
					{
						"astId": 10,
						"contract": "Week5/TodoList.sol:TodoList",
						"label": "todoList",
						"offset": 0,
						"slot": "0",
						"type": "t_array(t_struct(Todo)6_storage)dyn_storage"
					}
				],
				"types": {
					"t_array(t_struct(Todo)6_storage)dyn_storage": {
						"base": "t_struct(Todo)6_storage",
						"encoding": "dynamic_array",
						"label": "struct TodoList.Todo[]",
						"numberOfBytes": "32"
					},
					"t_bool": {
						"encoding": "inplace",
						"label": "bool",
						"numberOfBytes": "1"
					},
					"t_string_storage": {
						"encoding": "bytes",
						"label": "string",
						"numberOfBytes": "32"
					},
					"t_struct(Todo)6_storage": {
						"encoding": "inplace",
						"label": "struct TodoList.Todo",
						"members": [
							{
								"astId": 3,
								"contract": "Week5/TodoList.sol:TodoList",
								"label": "text",
								"offset": 0,
								"slot": "0",
								"type": "t_string_storage"
							},
							{
								"astId": 5,
								"contract": "Week5/TodoList.sol:TodoList",
								"label": "isCheck",
								"offset": 0,
								"slot": "1",
								"type": "t_bool"
							}
						],
						"numberOfBytes": "64"
					}
				}
			},
			"userdoc": {
				"kind": "user",
				"methods": {},
				"version": 1
			}
		}
	}
}