{
	"Week5/Array1.sol": {
		"Array1": {
			"abi": [
				{
					"inputs": [
						{
							"internalType": "uint256",
							"name": "",
							"type": "uint256"
						}
					],
					"name": "array",
					"outputs": [
						{
							"internalType": "uint256",
							"name": "",
							"type": "uint256"
						}
					],
					"stateMutability": "view",
					"type": "function"
				},
				{
					"inputs": [
						{
							"internalType": "uint256",
							"name": "_index",
							"type": "uint256"
						}
					],
					"name": "remove",
					"outputs": [],
					"stateMutability": "nonpayable",
					"type": "function"
				}
			],
			"devdoc": {
				"kind": "dev",
				"methods": {},
				"version": 1
			},
			"evm": {
				"assembly": "    /* \"Week5/Array1.sol\":92:129  uint[] public array = [1, 2, 3, 4, 5] */\n  0x0120\n    /* \"Week5/Array1.sol\":70:348  contract Array1 {... */\n  0x40\n    /* \"Week5/Array1.sol\":92:129  uint[] public array = [1, 2, 3, 4, 5] */\n  mstore\n    /* \"Week5/Array1.sol\":115:116  1 */\n  0x01\n    /* \"Week5/Array1.sol\":70:348  contract Array1 {... */\n  0x80\n    /* \"Week5/Array1.sol\":92:129  uint[] public array = [1, 2, 3, 4, 5] */\n  swap1\n  dup2\n  mstore\n    /* \"Week5/Array1.sol\":118:119  2 */\n  0x02\n    /* \"Week5/Array1.sol\":92:129  uint[] public array = [1, 2, 3, 4, 5] */\n  0xa0\n  mstore\n    /* \"Week5/Array1.sol\":121:122  3 */\n  0x03\n    /* \"Week5/Array1.sol\":92:129  uint[] public array = [1, 2, 3, 4, 5] */\n  0xc0\n  mstore\n    /* \"Week5/Array1.sol\":124:125  4 */\n  0x04\n    /* \"Week5/Array1.sol\":92:129  uint[] public array = [1, 2, 3, 4, 5] */\n  0xe0\n  mstore\n    /* \"Week5/Array1.sol\":127:128  5 */\n  0x05\n    /* \"Week5/Array1.sol\":92:129  uint[] public array = [1, 2, 3, 4, 5] */\n  0x0100\n  dup2\n  swap1\n  mstore\n  tag_1\n  swap2\n  0x00\n  swap2\n  tag_2\n  jump\t// in\ntag_1:\n  pop\n    /* \"Week5/Array1.sol\":70:348  contract Array1 {... */\n  callvalue\n  dup1\n  iszero\n  tag_3\n  jumpi\n  0x00\n  dup1\n  revert\ntag_3:\n  pop\n  jump(tag_4)\ntag_2:\n  dup3\n  dup1\n  sload\n  dup3\n  dup3\n  sstore\n  swap1\n  0x00\n  mstore\n  keccak256(0x00, 0x20)\n  swap1\n  dup2\n  add\n  swap3\n  dup3\n  iszero\n  tag_7\n  jumpi\n  swap2\n  0x20\n  mul\n  dup3\n  add\ntag_6:\n  dup3\n  dup2\n  gt\n  iszero\n  tag_7\n  jumpi\n  dup3\n  mload\n  dup3\n  swap1\n  0xff\n  and\n  swap1\n  sstore\n  swap2\n  0x20\n  add\n  swap2\n  swap1\n  0x01\n  add\n  swap1\n  jump(tag_6)\ntag_7:\n  pop\n  tag_8\n  swap3\n  swap2\n  pop\n  tag_9\n  jump\t// in\ntag_8:\n  pop\n  swap1\n  jump\t// out\ntag_9:\ntag_10:\n  dup1\n  dup3\n  gt\n  iszero\n  tag_8\n  jumpi\n  0x00\n  dup2\n  sstore\n  0x01\n  add\n  jump(tag_10)\ntag_4:\n  dataSize(sub_0)\n  dup1\n  dataOffset(sub_0)\n  0x00\n  codecopy\n  0x00\n  return\nstop\n\nsub_0: assembly {\n        /* \"Week5/Array1.sol\":70:348  contract Array1 {... */\n      mstore(0x40, 0x80)\n      callvalue\n      dup1\n      iszero\n      tag_1\n      jumpi\n      0x00\n      dup1\n      revert\n    tag_1:\n      pop\n      jumpi(tag_2, lt(calldatasize, 0x04))\n      shr(0xe0, calldataload(0x00))\n      dup1\n      0x38d94193\n      eq\n      tag_3\n      jumpi\n      dup1\n      0x4cc82215\n      eq\n      tag_4\n      jumpi\n    tag_2:\n      0x00\n      dup1\n      revert\n        /* \"Week5/Array1.sol\":92:129  uint[] public array = [1, 2, 3, 4, 5] */\n    tag_3:\n      tag_5\n      tag_6\n      calldatasize\n      0x04\n      tag_7\n      jump\t// in\n    tag_6:\n      tag_8\n      jump\t// in\n    tag_5:\n      mload(0x40)\n        /* \"#utility.yul\":345:370   */\n      swap1\n      dup2\n      mstore\n        /* \"#utility.yul\":333:335   */\n      0x20\n        /* \"#utility.yul\":318:336   */\n      add\n        /* \"Week5/Array1.sol\":92:129  uint[] public array = [1, 2, 3, 4, 5] */\n      mload(0x40)\n      dup1\n      swap2\n      sub\n      swap1\n      return\n        /* \"Week5/Array1.sol\":136:346  function remove(uint _index) external {... */\n    tag_4:\n      tag_11\n      tag_12\n      calldatasize\n      0x04\n      tag_7\n      jump\t// in\n    tag_12:\n      tag_13\n      jump\t// in\n    tag_11:\n      stop\n        /* \"Week5/Array1.sol\":92:129  uint[] public array = [1, 2, 3, 4, 5] */\n    tag_8:\n      0x00\n      dup2\n      dup2\n      sload\n      dup2\n      lt\n      tag_14\n      jumpi\n      0x00\n      dup1\n      revert\n    tag_14:\n      0x00\n      swap2\n      dup3\n      mstore\n      0x20\n      swap1\n      swap2\n      keccak256\n      add\n      sload\n      swap1\n      pop\n      dup2\n      jump\t// out\n        /* \"Week5/Array1.sol\":136:346  function remove(uint _index) external {... */\n    tag_13:\n        /* \"Week5/Array1.sol\":201:206  array */\n      0x00\n        /* \"Week5/Array1.sol\":201:213  array.length */\n      sload\n        /* \"Week5/Array1.sol\":192:213  _index < array.length */\n      dup2\n      lt\n        /* \"Week5/Array1.sol\":184:214  require(_index < array.length) */\n      tag_17\n      jumpi\n      0x00\n      dup1\n      revert\n    tag_17:\n        /* \"Week5/Array1.sol\":238:244  _index */\n      dup1\n        /* \"Week5/Array1.sol\":224:319  for (uint i = _index; i < array.length - 1; i++) {... */\n    tag_18:\n        /* \"Week5/Array1.sol\":250:255  array */\n      0x00\n        /* \"Week5/Array1.sol\":250:262  array.length */\n      sload\n        /* \"Week5/Array1.sol\":250:266  array.length - 1 */\n      tag_21\n      swap1\n        /* \"Week5/Array1.sol\":265:266  1 */\n      0x01\n      swap1\n        /* \"Week5/Array1.sol\":250:266  array.length - 1 */\n      tag_22\n      jump\t// in\n    tag_21:\n        /* \"Week5/Array1.sol\":246:247  i */\n      dup2\n        /* \"Week5/Array1.sol\":246:266  i < array.length - 1 */\n      lt\n        /* \"Week5/Array1.sol\":224:319  for (uint i = _index; i < array.length - 1; i++) {... */\n      iszero\n      tag_19\n      jumpi\n        /* \"Week5/Array1.sol\":298:303  array */\n      0x00\n        /* \"Week5/Array1.sol\":304:307  i+1 */\n      tag_23\n        /* \"Week5/Array1.sol\":304:305  i */\n      dup3\n        /* \"Week5/Array1.sol\":306:307  1 */\n      0x01\n        /* \"Week5/Array1.sol\":304:307  i+1 */\n      tag_24\n      jump\t// in\n    tag_23:\n        /* \"Week5/Array1.sol\":298:308  array[i+1] */\n      dup2\n      sload\n      dup2\n      lt\n      tag_26\n      jumpi\n      tag_26\n      tag_27\n      jump\t// in\n    tag_26:\n      swap1\n      0x00\n      mstore\n      keccak256(0x00, 0x20)\n      add\n      sload\n        /* \"Week5/Array1.sol\":287:292  array */\n      0x00\n        /* \"Week5/Array1.sol\":293:294  i */\n      dup3\n        /* \"Week5/Array1.sol\":287:295  array[i] */\n      dup2\n      sload\n      dup2\n      lt\n      tag_30\n      jumpi\n      tag_30\n      tag_27\n      jump\t// in\n    tag_30:\n      0x00\n      swap2\n      dup3\n      mstore\n      0x20\n      swap1\n      swap2\n      keccak256\n      add\n        /* \"Week5/Array1.sol\":287:308  array[i] = array[i+1] */\n      sstore\n        /* \"Week5/Array1.sol\":268:271  i++ */\n      dup1\n      tag_32\n      dup2\n      tag_33\n      jump\t// in\n    tag_32:\n      swap2\n      pop\n      pop\n        /* \"Week5/Array1.sol\":224:319  for (uint i = _index; i < array.length - 1; i++) {... */\n      jump(tag_18)\n    tag_19:\n      pop\n        /* \"Week5/Array1.sol\":328:333  array */\n      0x00\n        /* \"Week5/Array1.sol\":328:339  array.pop() */\n      dup1\n      sload\n      dup1\n      tag_35\n      jumpi\n      tag_35\n      tag_36\n      jump\t// in\n    tag_35:\n      0x01\n      swap1\n      sub\n      dup2\n      dup2\n      swap1\n      0x00\n      mstore\n      keccak256(0x00, 0x20)\n      add\n      0x00\n      swap1\n      sstore\n      swap1\n      sstore\n        /* \"Week5/Array1.sol\":136:346  function remove(uint _index) external {... */\n      pop\n      jump\t// out\n        /* \"#utility.yul\":14:194   */\n    tag_7:\n        /* \"#utility.yul\":73:79   */\n      0x00\n        /* \"#utility.yul\":126:128   */\n      0x20\n        /* \"#utility.yul\":114:123   */\n      dup3\n        /* \"#utility.yul\":105:112   */\n      dup5\n        /* \"#utility.yul\":101:124   */\n      sub\n        /* \"#utility.yul\":97:129   */\n      slt\n        /* \"#utility.yul\":94:146   */\n      iszero\n      tag_41\n      jumpi\n        /* \"#utility.yul\":142:143   */\n      0x00\n        /* \"#utility.yul\":139:140   */\n      dup1\n        /* \"#utility.yul\":132:144   */\n      revert\n        /* \"#utility.yul\":94:146   */\n    tag_41:\n      pop\n        /* \"#utility.yul\":165:188   */\n      calldataload\n      swap2\n        /* \"#utility.yul\":14:194   */\n      swap1\n      pop\n      jump\t// out\n        /* \"#utility.yul\":381:508   */\n    tag_38:\n        /* \"#utility.yul\":442:452   */\n      0x4e487b71\n        /* \"#utility.yul\":437:440   */\n      0xe0\n        /* \"#utility.yul\":433:453   */\n      shl\n        /* \"#utility.yul\":430:431   */\n      0x00\n        /* \"#utility.yul\":423:454   */\n      mstore\n        /* \"#utility.yul\":473:477   */\n      0x11\n        /* \"#utility.yul\":470:471   */\n      0x04\n        /* \"#utility.yul\":463:478   */\n      mstore\n        /* \"#utility.yul\":497:501   */\n      0x24\n        /* \"#utility.yul\":494:495   */\n      0x00\n        /* \"#utility.yul\":487:502   */\n      revert\n        /* \"#utility.yul\":513:641   */\n    tag_22:\n        /* \"#utility.yul\":580:589   */\n      dup2\n      dup2\n      sub\n        /* \"#utility.yul\":601:612   */\n      dup2\n      dup2\n      gt\n        /* \"#utility.yul\":598:635   */\n      iszero\n      tag_46\n      jumpi\n        /* \"#utility.yul\":615:633   */\n      tag_46\n      tag_38\n      jump\t// in\n    tag_46:\n        /* \"#utility.yul\":513:641   */\n      swap3\n      swap2\n      pop\n      pop\n      jump\t// out\n        /* \"#utility.yul\":646:771   */\n    tag_24:\n        /* \"#utility.yul\":711:720   */\n      dup1\n      dup3\n      add\n        /* \"#utility.yul\":732:742   */\n      dup1\n      dup3\n      gt\n        /* \"#utility.yul\":729:765   */\n      iszero\n      tag_46\n      jumpi\n        /* \"#utility.yul\":745:763   */\n      tag_46\n      tag_38\n      jump\t// in\n        /* \"#utility.yul\":776:903   */\n    tag_27:\n        /* \"#utility.yul\":837:847   */\n      0x4e487b71\n        /* \"#utility.yul\":832:835   */\n      0xe0\n        /* \"#utility.yul\":828:848   */\n      shl\n        /* \"#utility.yul\":825:826   */\n      0x00\n        /* \"#utility.yul\":818:849   */\n      mstore\n        /* \"#utility.yul\":868:872   */\n      0x32\n        /* \"#utility.yul\":865:866   */\n      0x04\n        /* \"#utility.yul\":858:873   */\n      mstore\n        /* \"#utility.yul\":892:896   */\n      0x24\n        /* \"#utility.yul\":889:890   */\n      0x00\n        /* \"#utility.yul\":882:897   */\n      revert\n        /* \"#utility.yul\":908:1043   */\n    tag_33:\n        /* \"#utility.yul\":947:950   */\n      0x00\n        /* \"#utility.yul\":968:985   */\n      0x01\n      dup3\n      add\n        /* \"#utility.yul\":965:1008   */\n      tag_53\n      jumpi\n        /* \"#utility.yul\":988:1006   */\n      tag_53\n      tag_38\n      jump\t// in\n    tag_53:\n      pop\n        /* \"#utility.yul\":1035:1036   */\n      0x01\n        /* \"#utility.yul\":1024:1037   */\n      add\n      swap1\n        /* \"#utility.yul\":908:1043   */\n      jump\t// out\n        /* \"#utility.yul\":1048:1175   */\n    tag_36:\n        /* \"#utility.yul\":1109:1119   */\n      0x4e487b71\n        /* \"#utility.yul\":1104:1107   */\n      0xe0\n        /* \"#utility.yul\":1100:1120   */\n      shl\n        /* \"#utility.yul\":1097:1098   */\n      0x00\n        /* \"#utility.yul\":1090:1121   */\n      mstore\n        /* \"#utility.yul\":1140:1144   */\n      0x31\n        /* \"#utility.yul\":1137:1138   */\n      0x04\n        /* \"#utility.yul\":1130:1145   */\n      mstore\n        /* \"#utility.yul\":1164:1168   */\n      0x24\n        /* \"#utility.yul\":1161:1162   */\n      0x00\n        /* \"#utility.yul\":1154:1169   */\n      revert\n\n    auxdata: 0xa264697066735822122075ef15d730bd15575eb845f9504aa6d58180eac79634f86386137808d7c6c5ee64736f6c63430008100033\n}\n",
				"bytecode": {
					"linkReferences": {},
					"object": "61012060405260016080908152600260a052600360c052600460e052600561010081905261002f91600091610042565b5034801561003c57600080fd5b506100a7565b828054828255906000526020600020908101928215610082579160200282015b82811115610082578251829060ff16905591602001919060010190610062565b5061008e929150610092565b5090565b5b8082111561008e5760008155600101610093565b610216806100b66000396000f3fe608060405234801561001057600080fd5b50600436106100365760003560e01c806338d941931461003b5780634cc8221514610060575b600080fd5b61004e610049366004610140565b610075565b60405190815260200160405180910390f35b61007361006e366004610140565b610096565b005b6000818154811061008557600080fd5b600091825260209091200154905081565b60005481106100a457600080fd5b805b6000546100b59060019061016f565b8110156101155760006100c9826001610188565b815481106100d9576100d961019b565b9060005260206000200154600082815481106100f7576100f761019b565b6000918252602090912001558061010d816101b1565b9150506100a6565b506000805480610127576101276101ca565b6001900381819060005260206000200160009055905550565b60006020828403121561015257600080fd5b5035919050565b634e487b7160e01b600052601160045260246000fd5b8181038181111561018257610182610159565b92915050565b8082018082111561018257610182610159565b634e487b7160e01b600052603260045260246000fd5b6000600182016101c3576101c3610159565b5060010190565b634e487b7160e01b600052603160045260246000fdfea264697066735822122075ef15d730bd15575eb845f9504aa6d58180eac79634f86386137808d7c6c5ee64736f6c63430008100033",
					"opcodes": "PUSH2 0x120 PUSH1 0x40 MSTORE PUSH1 0x1 PUSH1 0x80 SWAP1 DUP2 MSTORE PUSH1 0x2 PUSH1 0xA0 MSTORE PUSH1 0x3 PUSH1 0xC0 MSTORE PUSH1 0x4 PUSH1 0xE0 MSTORE PUSH1 0x5 PUSH2 0x100 DUP2 SWAP1 MSTORE PUSH2 0x2F SWAP2 PUSH1 0x0 SWAP2 PUSH2 0x42 JUMP JUMPDEST POP CALLVALUE DUP1 ISZERO PUSH2 0x3C JUMPI PUSH1 0x0 DUP1 REVERT JUMPDEST POP PUSH2 0xA7 JUMP JUMPDEST DUP3 DUP1 SLOAD DUP3 DUP3 SSTORE SWAP1 PUSH1 0x0 MSTORE PUSH1 0x20 PUSH1 0x0 KECCAK256 SWAP1 DUP2 ADD SWAP3 DUP3 ISZERO PUSH2 0x82 JUMPI SWAP2 PUSH1 0x20 MUL DUP3 ADD JUMPDEST DUP3 DUP2 GT ISZERO PUSH2 0x82 JUMPI DUP3 MLOAD DUP3 SWAP1 PUSH1 0xFF AND SWAP1 SSTORE SWAP2 PUSH1 0x20 ADD SWAP2 SWAP1 PUSH1 0x1 ADD SWAP1 PUSH2 0x62 JUMP JUMPDEST POP PUSH2 0x8E SWAP3 SWAP2 POP PUSH2 0x92 JUMP JUMPDEST POP SWAP1 JUMP JUMPDEST JUMPDEST DUP1 DUP3 GT ISZERO PUSH2 0x8E JUMPI PUSH1 0x0 DUP2 SSTORE PUSH1 0x1 ADD PUSH2 0x93 JUMP JUMPDEST PUSH2 0x216 DUP1 PUSH2 0xB6 PUSH1 0x0 CODECOPY PUSH1 0x0 RETURN INVALID PUSH1 0x80 PUSH1 0x40 MSTORE CALLVALUE DUP1 ISZERO PUSH2 0x10 JUMPI PUSH1 0x0 DUP1 REVERT JUMPDEST POP PUSH1 0x4 CALLDATASIZE LT PUSH2 0x36 JUMPI PUSH1 0x0 CALLDATALOAD PUSH1 0xE0 SHR DUP1 PUSH4 0x38D94193 EQ PUSH2 0x3B JUMPI DUP1 PUSH4 0x4CC82215 EQ PUSH2 0x60 JUMPI JUMPDEST PUSH1 0x0 DUP1 REVERT JUMPDEST PUSH2 0x4E PUSH2 0x49 CALLDATASIZE PUSH1 0x4 PUSH2 0x140 JUMP JUMPDEST PUSH2 0x75 JUMP JUMPDEST PUSH1 0x40 MLOAD SWAP1 DUP2 MSTORE PUSH1 0x20 ADD PUSH1 0x40 MLOAD DUP1 SWAP2 SUB SWAP1 RETURN JUMPDEST PUSH2 0x73 PUSH2 0x6E CALLDATASIZE PUSH1 0x4 PUSH2 0x140 JUMP JUMPDEST PUSH2 0x96 JUMP JUMPDEST STOP JUMPDEST PUSH1 0x0 DUP2 DUP2 SLOAD DUP2 LT PUSH2 0x85 JUMPI PUSH1 0x0 DUP1 REVERT JUMPDEST PUSH1 0x0 SWAP2 DUP3 MSTORE PUSH1 0x20 SWAP1 SWAP2 KECCAK256 ADD SLOAD SWAP1 POP DUP2 JUMP JUMPDEST PUSH1 0x0 SLOAD DUP2 LT PUSH2 0xA4 JUMPI PUSH1 0x0 DUP1 REVERT JUMPDEST DUP1 JUMPDEST PUSH1 0x0 SLOAD PUSH2 0xB5 SWAP1 PUSH1 0x1 SWAP1 PUSH2 0x16F JUMP JUMPDEST DUP2 LT ISZERO PUSH2 0x115 JUMPI PUSH1 0x0 PUSH2 0xC9 DUP3 PUSH1 0x1 PUSH2 0x188 JUMP JUMPDEST DUP2 SLOAD DUP2 LT PUSH2 0xD9 JUMPI PUSH2 0xD9 PUSH2 0x19B JUMP JUMPDEST SWAP1 PUSH1 0x0 MSTORE PUSH1 0x20 PUSH1 0x0 KECCAK256 ADD SLOAD PUSH1 0x0 DUP3 DUP2 SLOAD DUP2 LT PUSH2 0xF7 JUMPI PUSH2 0xF7 PUSH2 0x19B JUMP JUMPDEST PUSH1 0x0 SWAP2 DUP3 MSTORE PUSH1 0x20 SWAP1 SWAP2 KECCAK256 ADD SSTORE DUP1 PUSH2 0x10D DUP2 PUSH2 0x1B1 JUMP JUMPDEST SWAP2 POP POP PUSH2 0xA6 JUMP JUMPDEST POP PUSH1 0x0 DUP1 SLOAD DUP1 PUSH2 0x127 JUMPI PUSH2 0x127 PUSH2 0x1CA JUMP JUMPDEST PUSH1 0x1 SWAP1 SUB DUP2 DUP2 SWAP1 PUSH1 0x0 MSTORE PUSH1 0x20 PUSH1 0x0 KECCAK256 ADD PUSH1 0x0 SWAP1 SSTORE SWAP1 SSTORE POP JUMP JUMPDEST PUSH1 0x0 PUSH1 0x20 DUP3 DUP5 SUB SLT ISZERO PUSH2 0x152 JUMPI PUSH1 0x0 DUP1 REVERT JUMPDEST POP CALLDATALOAD SWAP2 SWAP1 POP JUMP JUMPDEST PUSH4 0x4E487B71 PUSH1 0xE0 SHL PUSH1 0x0 MSTORE PUSH1 0x11 PUSH1 0x4 MSTORE PUSH1 0x24 PUSH1 0x0 REVERT JUMPDEST DUP2 DUP2 SUB DUP2 DUP2 GT ISZERO PUSH2 0x182 JUMPI PUSH2 0x182 PUSH2 0x159 JUMP JUMPDEST SWAP3 SWAP2 POP POP JUMP JUMPDEST DUP1 DUP3 ADD DUP1 DUP3 GT ISZERO PUSH2 0x182 JUMPI PUSH2 0x182 PUSH2 0x159 JUMP JUMPDEST PUSH4 0x4E487B71 PUSH1 0xE0 SHL PUSH1 0x0 MSTORE PUSH1 0x32 PUSH1 0x4 MSTORE PUSH1 0x24 PUSH1 0x0 REVERT JUMPDEST PUSH1 0x0 PUSH1 0x1 DUP3 ADD PUSH2 0x1C3 JUMPI PUSH2 0x1C3 PUSH2 0x159 JUMP JUMPDEST POP PUSH1 0x1 ADD SWAP1 JUMP JUMPDEST PUSH4 0x4E487B71 PUSH1 0xE0 SHL PUSH1 0x0 MSTORE PUSH1 0x31 PUSH1 0x4 MSTORE PUSH1 0x24 PUSH1 0x0 REVERT INVALID LOG2 PUSH5 0x6970667358 0x22 SLT KECCAK256 PUSH22 0xEF15D730BD15575EB845F9504AA6D58180EAC79634F8 PUSH4 0x86137808 0xD7 0xC6 0xC5 0xEE PUSH5 0x736F6C6343 STOP ADDMOD LT STOP CALLER "
				},
				"gasEstimates": {
					"creation": {
						"codeDepositCost": "106800",
						"executionCost": "infinite",
						"totalCost": "infinite"
					},
					"external": {
						"array(uint256)": "4541",
						"remove(uint256)": "infinite"
					}
				},
				"methodIdentifiers": {
					"array(uint256)": "38d94193",
					"remove(uint256)": "4cc82215"
				}
			},
			"storageLayout": {
				"storage": [
					{
						"astId": 10,
						"contract": "Week5/Array1.sol:Array1",
						"label": "array",
						"offset": 0,
						"slot": "0",
						"type": "t_array(t_uint256)dyn_storage"
					}
				],
				"types": {
					"t_array(t_uint256)dyn_storage": {
						"base": "t_uint256",
						"encoding": "dynamic_array",
						"label": "uint256[]",
						"numberOfBytes": "32"
					},
					"t_uint256": {
						"encoding": "inplace",
						"label": "uint256",
						"numberOfBytes": "32"
					}
				}
			},
			"userdoc": {
				"kind": "user",
				"methods": {},
				"version": 1
			}
		}
	}
}