{
	"Week5/Keccak256.sol": {
		"Keccak256": {
			"abi": [
				{
					"anonymous": false,
					"inputs": [
						{
							"indexed": false,
							"internalType": "bytes32",
							"name": "data",
							"type": "bytes32"
						}
					],
					"name": "Log",
					"type": "event"
				},
				{
					"inputs": [
						{
							"internalType": "string",
							"name": "s1",
							"type": "string"
						},
						{
							"internalType": "string",
							"name": "s2",
							"type": "string"
						}
					],
					"name": "encode",
					"outputs": [
						{
							"internalType": "bytes32",
							"name": "me",
							"type": "bytes32"
						}
					],
					"stateMutability": "nonpayable",
					"type": "function"
				},
				{
					"inputs": [
						{
							"internalType": "string",
							"name": "s1",
							"type": "string"
						},
						{
							"internalType": "string",
							"name": "s2",
							"type": "string"
						}
					],
					"name": "encodePacked",
					"outputs": [],
					"stateMutability": "nonpayable",
					"type": "function"
				}
			],
			"devdoc": {
				"kind": "dev",
				"methods": {},
				"version": 1
			},
			"evm": {
				"assembly": "    /* \"Week5/Keccak256.sol\":70:396  contract Keccak256 {... */\n  mstore(0x40, 0x80)\n  callvalue\n  dup1\n  iszero\n  tag_1\n  jumpi\n  0x00\n  dup1\n  revert\ntag_1:\n  pop\n  dataSize(sub_0)\n  dup1\n  dataOffset(sub_0)\n  0x00\n  codecopy\n  0x00\n  return\nstop\n\nsub_0: assembly {\n        /* \"Week5/Keccak256.sol\":70:396  contract Keccak256 {... */\n      mstore(0x40, 0x80)\n      callvalue\n      dup1\n      iszero\n      tag_1\n      jumpi\n      0x00\n      dup1\n      revert\n    tag_1:\n      pop\n      jumpi(tag_2, lt(calldatasize, 0x04))\n      shr(0xe0, calldataload(0x00))\n      dup1\n      0x17fe2da2\n      eq\n      tag_3\n      jumpi\n      dup1\n      0x892e5d01\n      eq\n      tag_4\n      jumpi\n    tag_2:\n      0x00\n      dup1\n      revert\n        /* \"Week5/Keccak256.sol\":125:259  function encode(string memory s1, string memory s2) external returns(bytes32 me) {... */\n    tag_3:\n      tag_5\n      0x04\n      dup1\n      calldatasize\n      sub\n      dup2\n      add\n      swap1\n      tag_6\n      swap2\n      swap1\n      tag_7\n      jump\t// in\n    tag_6:\n      tag_8\n      jump\t// in\n    tag_5:\n      mload(0x40)\n      tag_9\n      swap2\n      swap1\n      tag_10\n      jump\t// in\n    tag_9:\n      mload(0x40)\n      dup1\n      swap2\n      sub\n      swap1\n      return\n        /* \"Week5/Keccak256.sol\":265:394  function encodePacked(string memory s1, string memory s2) external {... */\n    tag_4:\n      tag_11\n      0x04\n      dup1\n      calldatasize\n      sub\n      dup2\n      add\n      swap1\n      tag_12\n      swap2\n      swap1\n      tag_7\n      jump\t// in\n    tag_12:\n      tag_13\n      jump\t// in\n    tag_11:\n      stop\n        /* \"Week5/Keccak256.sol\":125:259  function encode(string memory s1, string memory s2) external returns(bytes32 me) {... */\n    tag_8:\n        /* \"Week5/Keccak256.sol\":194:204  bytes32 me */\n      0x00\n        /* \"Week5/Keccak256.sol\":244:246  s1 */\n      dup3\n        /* \"Week5/Keccak256.sol\":248:250  s2 */\n      dup3\n        /* \"Week5/Keccak256.sol\":233:251  abi.encode(s1, s2) */\n      add(0x20, mload(0x40))\n      tag_15\n      swap3\n      swap2\n      swap1\n      tag_16\n      jump\t// in\n    tag_15:\n      mload(0x40)\n      0x20\n      dup2\n      dup4\n      sub\n      sub\n      dup2\n      mstore\n      swap1\n      0x40\n      mstore\n        /* \"Week5/Keccak256.sol\":223:252  keccak256(abi.encode(s1, s2)) */\n      dup1\n      mload\n      swap1\n      0x20\n      add\n      keccak256\n        /* \"Week5/Keccak256.sol\":216:252  return keccak256(abi.encode(s1, s2)) */\n      swap1\n      pop\n        /* \"Week5/Keccak256.sol\":125:259  function encode(string memory s1, string memory s2) external returns(bytes32 me) {... */\n      swap3\n      swap2\n      pop\n      pop\n      jump\t// out\n        /* \"Week5/Keccak256.sol\":265:394  function encodePacked(string memory s1, string memory s2) external {... */\n    tag_13:\n        /* \"Week5/Keccak256.sol\":347:387  Log(keccak256(abi.encodePacked(s1, s2))) */\n      0x32d5ab96f608074ecb7a2188938a6154ca0cb72029f98b277aa9284b9d47f5c3\n        /* \"Week5/Keccak256.sol\":378:380  s1 */\n      dup3\n        /* \"Week5/Keccak256.sol\":382:384  s2 */\n      dup3\n        /* \"Week5/Keccak256.sol\":361:385  abi.encodePacked(s1, s2) */\n      add(0x20, mload(0x40))\n      tag_18\n      swap3\n      swap2\n      swap1\n      tag_19\n      jump\t// in\n    tag_18:\n      mload(0x40)\n      0x20\n      dup2\n      dup4\n      sub\n      sub\n      dup2\n      mstore\n      swap1\n      0x40\n      mstore\n        /* \"Week5/Keccak256.sol\":351:386  keccak256(abi.encodePacked(s1, s2)) */\n      dup1\n      mload\n      swap1\n      0x20\n      add\n      keccak256\n        /* \"Week5/Keccak256.sol\":347:387  Log(keccak256(abi.encodePacked(s1, s2))) */\n      mload(0x40)\n      tag_20\n      swap2\n      swap1\n      tag_10\n      jump\t// in\n    tag_20:\n      mload(0x40)\n      dup1\n      swap2\n      sub\n      swap1\n      log1\n        /* \"Week5/Keccak256.sol\":265:394  function encodePacked(string memory s1, string memory s2) external {... */\n      pop\n      pop\n      jump\t// out\n        /* \"#utility.yul\":7:419   */\n    tag_22:\n        /* \"#utility.yul\":85:90   */\n      0x00\n        /* \"#utility.yul\":110:176   */\n      tag_24\n        /* \"#utility.yul\":126:175   */\n      tag_25\n        /* \"#utility.yul\":168:174   */\n      dup5\n        /* \"#utility.yul\":126:175   */\n      tag_26\n      jump\t// in\n    tag_25:\n        /* \"#utility.yul\":110:176   */\n      tag_27\n      jump\t// in\n    tag_24:\n        /* \"#utility.yul\":101:176   */\n      swap1\n      pop\n        /* \"#utility.yul\":199:205   */\n      dup3\n        /* \"#utility.yul\":192:197   */\n      dup2\n        /* \"#utility.yul\":185:206   */\n      mstore\n        /* \"#utility.yul\":237:241   */\n      0x20\n        /* \"#utility.yul\":230:235   */\n      dup2\n        /* \"#utility.yul\":226:242   */\n      add\n        /* \"#utility.yul\":275:278   */\n      dup5\n        /* \"#utility.yul\":266:272   */\n      dup5\n        /* \"#utility.yul\":261:264   */\n      dup5\n        /* \"#utility.yul\":257:273   */\n      add\n        /* \"#utility.yul\":254:279   */\n      gt\n        /* \"#utility.yul\":251:363   */\n      iszero\n      tag_28\n      jumpi\n        /* \"#utility.yul\":282:361   */\n      tag_29\n      tag_30\n      jump\t// in\n    tag_29:\n        /* \"#utility.yul\":251:363   */\n    tag_28:\n        /* \"#utility.yul\":372:413   */\n      tag_31\n        /* \"#utility.yul\":406:412   */\n      dup5\n        /* \"#utility.yul\":401:404   */\n      dup3\n        /* \"#utility.yul\":396:399   */\n      dup6\n        /* \"#utility.yul\":372:413   */\n      tag_32\n      jump\t// in\n    tag_31:\n        /* \"#utility.yul\":91:419   */\n      pop\n        /* \"#utility.yul\":7:419   */\n      swap4\n      swap3\n      pop\n      pop\n      pop\n      jump\t// out\n        /* \"#utility.yul\":439:779   */\n    tag_33:\n        /* \"#utility.yul\":495:500   */\n      0x00\n        /* \"#utility.yul\":544:547   */\n      dup3\n        /* \"#utility.yul\":537:541   */\n      0x1f\n        /* \"#utility.yul\":529:535   */\n      dup4\n        /* \"#utility.yul\":525:542   */\n      add\n        /* \"#utility.yul\":521:548   */\n      slt\n        /* \"#utility.yul\":511:633   */\n      tag_35\n      jumpi\n        /* \"#utility.yul\":552:631   */\n      tag_36\n      tag_37\n      jump\t// in\n    tag_36:\n        /* \"#utility.yul\":511:633   */\n    tag_35:\n        /* \"#utility.yul\":669:675   */\n      dup2\n        /* \"#utility.yul\":656:676   */\n      calldataload\n        /* \"#utility.yul\":694:773   */\n      tag_38\n        /* \"#utility.yul\":769:772   */\n      dup5\n        /* \"#utility.yul\":761:767   */\n      dup3\n        /* \"#utility.yul\":754:758   */\n      0x20\n        /* \"#utility.yul\":746:752   */\n      dup7\n        /* \"#utility.yul\":742:759   */\n      add\n        /* \"#utility.yul\":694:773   */\n      tag_22\n      jump\t// in\n    tag_38:\n        /* \"#utility.yul\":685:773   */\n      swap2\n      pop\n        /* \"#utility.yul\":501:779   */\n      pop\n        /* \"#utility.yul\":439:779   */\n      swap3\n      swap2\n      pop\n      pop\n      jump\t// out\n        /* \"#utility.yul\":785:1619   */\n    tag_7:\n        /* \"#utility.yul\":873:879   */\n      0x00\n        /* \"#utility.yul\":881:887   */\n      dup1\n        /* \"#utility.yul\":930:932   */\n      0x40\n        /* \"#utility.yul\":918:927   */\n      dup4\n        /* \"#utility.yul\":909:916   */\n      dup6\n        /* \"#utility.yul\":905:928   */\n      sub\n        /* \"#utility.yul\":901:933   */\n      slt\n        /* \"#utility.yul\":898:1017   */\n      iszero\n      tag_40\n      jumpi\n        /* \"#utility.yul\":936:1015   */\n      tag_41\n      tag_42\n      jump\t// in\n    tag_41:\n        /* \"#utility.yul\":898:1017   */\n    tag_40:\n        /* \"#utility.yul\":1084:1085   */\n      0x00\n        /* \"#utility.yul\":1073:1082   */\n      dup4\n        /* \"#utility.yul\":1069:1086   */\n      add\n        /* \"#utility.yul\":1056:1087   */\n      calldataload\n        /* \"#utility.yul\":1114:1132   */\n      0xffffffffffffffff\n        /* \"#utility.yul\":1106:1112   */\n      dup2\n        /* \"#utility.yul\":1103:1133   */\n      gt\n        /* \"#utility.yul\":1100:1217   */\n      iszero\n      tag_43\n      jumpi\n        /* \"#utility.yul\":1136:1215   */\n      tag_44\n      tag_45\n      jump\t// in\n    tag_44:\n        /* \"#utility.yul\":1100:1217   */\n    tag_43:\n        /* \"#utility.yul\":1241:1304   */\n      tag_46\n        /* \"#utility.yul\":1296:1303   */\n      dup6\n        /* \"#utility.yul\":1287:1293   */\n      dup3\n        /* \"#utility.yul\":1276:1285   */\n      dup7\n        /* \"#utility.yul\":1272:1294   */\n      add\n        /* \"#utility.yul\":1241:1304   */\n      tag_33\n      jump\t// in\n    tag_46:\n        /* \"#utility.yul\":1231:1304   */\n      swap3\n      pop\n        /* \"#utility.yul\":1027:1314   */\n      pop\n        /* \"#utility.yul\":1381:1383   */\n      0x20\n        /* \"#utility.yul\":1370:1379   */\n      dup4\n        /* \"#utility.yul\":1366:1384   */\n      add\n        /* \"#utility.yul\":1353:1385   */\n      calldataload\n        /* \"#utility.yul\":1412:1430   */\n      0xffffffffffffffff\n        /* \"#utility.yul\":1404:1410   */\n      dup2\n        /* \"#utility.yul\":1401:1431   */\n      gt\n        /* \"#utility.yul\":1398:1515   */\n      iszero\n      tag_47\n      jumpi\n        /* \"#utility.yul\":1434:1513   */\n      tag_48\n      tag_45\n      jump\t// in\n    tag_48:\n        /* \"#utility.yul\":1398:1515   */\n    tag_47:\n        /* \"#utility.yul\":1539:1602   */\n      tag_49\n        /* \"#utility.yul\":1594:1601   */\n      dup6\n        /* \"#utility.yul\":1585:1591   */\n      dup3\n        /* \"#utility.yul\":1574:1583   */\n      dup7\n        /* \"#utility.yul\":1570:1592   */\n      add\n        /* \"#utility.yul\":1539:1602   */\n      tag_33\n      jump\t// in\n    tag_49:\n        /* \"#utility.yul\":1529:1602   */\n      swap2\n      pop\n        /* \"#utility.yul\":1324:1612   */\n      pop\n        /* \"#utility.yul\":785:1619   */\n      swap3\n      pop\n      swap3\n      swap1\n      pop\n      jump\t// out\n        /* \"#utility.yul\":1625:1743   */\n    tag_50:\n        /* \"#utility.yul\":1712:1736   */\n      tag_52\n        /* \"#utility.yul\":1730:1735   */\n      dup2\n        /* \"#utility.yul\":1712:1736   */\n      tag_53\n      jump\t// in\n    tag_52:\n        /* \"#utility.yul\":1707:1710   */\n      dup3\n        /* \"#utility.yul\":1700:1737   */\n      mstore\n        /* \"#utility.yul\":1625:1743   */\n      pop\n      pop\n      jump\t// out\n        /* \"#utility.yul\":1749:2113   */\n    tag_54:\n        /* \"#utility.yul\":1837:1840   */\n      0x00\n        /* \"#utility.yul\":1865:1904   */\n      tag_56\n        /* \"#utility.yul\":1898:1903   */\n      dup3\n        /* \"#utility.yul\":1865:1904   */\n      tag_57\n      jump\t// in\n    tag_56:\n        /* \"#utility.yul\":1920:1991   */\n      tag_58\n        /* \"#utility.yul\":1984:1990   */\n      dup2\n        /* \"#utility.yul\":1979:1982   */\n      dup6\n        /* \"#utility.yul\":1920:1991   */\n      tag_59\n      jump\t// in\n    tag_58:\n        /* \"#utility.yul\":1913:1991   */\n      swap4\n      pop\n        /* \"#utility.yul\":2000:2052   */\n      tag_60\n        /* \"#utility.yul\":2045:2051   */\n      dup2\n        /* \"#utility.yul\":2040:2043   */\n      dup6\n        /* \"#utility.yul\":2033:2037   */\n      0x20\n        /* \"#utility.yul\":2026:2031   */\n      dup7\n        /* \"#utility.yul\":2022:2038   */\n      add\n        /* \"#utility.yul\":2000:2052   */\n      tag_61\n      jump\t// in\n    tag_60:\n        /* \"#utility.yul\":2077:2106   */\n      tag_62\n        /* \"#utility.yul\":2099:2105   */\n      dup2\n        /* \"#utility.yul\":2077:2106   */\n      tag_63\n      jump\t// in\n    tag_62:\n        /* \"#utility.yul\":2072:2075   */\n      dup5\n        /* \"#utility.yul\":2068:2107   */\n      add\n        /* \"#utility.yul\":2061:2107   */\n      swap2\n      pop\n        /* \"#utility.yul\":1841:2113   */\n      pop\n        /* \"#utility.yul\":1749:2113   */\n      swap3\n      swap2\n      pop\n      pop\n      jump\t// out\n        /* \"#utility.yul\":2119:2496   */\n    tag_64:\n        /* \"#utility.yul\":2225:2228   */\n      0x00\n        /* \"#utility.yul\":2253:2292   */\n      tag_66\n        /* \"#utility.yul\":2286:2291   */\n      dup3\n        /* \"#utility.yul\":2253:2292   */\n      tag_57\n      jump\t// in\n    tag_66:\n        /* \"#utility.yul\":2308:2397   */\n      tag_67\n        /* \"#utility.yul\":2390:2396   */\n      dup2\n        /* \"#utility.yul\":2385:2388   */\n      dup6\n        /* \"#utility.yul\":2308:2397   */\n      tag_68\n      jump\t// in\n    tag_67:\n        /* \"#utility.yul\":2301:2397   */\n      swap4\n      pop\n        /* \"#utility.yul\":2406:2458   */\n      tag_69\n        /* \"#utility.yul\":2451:2457   */\n      dup2\n        /* \"#utility.yul\":2446:2449   */\n      dup6\n        /* \"#utility.yul\":2439:2443   */\n      0x20\n        /* \"#utility.yul\":2432:2437   */\n      dup7\n        /* \"#utility.yul\":2428:2444   */\n      add\n        /* \"#utility.yul\":2406:2458   */\n      tag_61\n      jump\t// in\n    tag_69:\n        /* \"#utility.yul\":2483:2489   */\n      dup1\n        /* \"#utility.yul\":2478:2481   */\n      dup5\n        /* \"#utility.yul\":2474:2490   */\n      add\n        /* \"#utility.yul\":2467:2490   */\n      swap2\n      pop\n        /* \"#utility.yul\":2229:2496   */\n      pop\n        /* \"#utility.yul\":2119:2496   */\n      swap3\n      swap2\n      pop\n      pop\n      jump\t// out\n        /* \"#utility.yul\":2502:2937   */\n    tag_19:\n        /* \"#utility.yul\":2682:2685   */\n      0x00\n        /* \"#utility.yul\":2704:2799   */\n      tag_71\n        /* \"#utility.yul\":2795:2798   */\n      dup3\n        /* \"#utility.yul\":2786:2792   */\n      dup6\n        /* \"#utility.yul\":2704:2799   */\n      tag_64\n      jump\t// in\n    tag_71:\n        /* \"#utility.yul\":2697:2799   */\n      swap2\n      pop\n        /* \"#utility.yul\":2816:2911   */\n      tag_72\n        /* \"#utility.yul\":2907:2910   */\n      dup3\n        /* \"#utility.yul\":2898:2904   */\n      dup5\n        /* \"#utility.yul\":2816:2911   */\n      tag_64\n      jump\t// in\n    tag_72:\n        /* \"#utility.yul\":2809:2911   */\n      swap2\n      pop\n        /* \"#utility.yul\":2928:2931   */\n      dup2\n        /* \"#utility.yul\":2921:2931   */\n      swap1\n      pop\n        /* \"#utility.yul\":2502:2937   */\n      swap4\n      swap3\n      pop\n      pop\n      pop\n      jump\t// out\n        /* \"#utility.yul\":2943:3165   */\n    tag_10:\n        /* \"#utility.yul\":3036:3040   */\n      0x00\n        /* \"#utility.yul\":3074:3076   */\n      0x20\n        /* \"#utility.yul\":3063:3072   */\n      dup3\n        /* \"#utility.yul\":3059:3077   */\n      add\n        /* \"#utility.yul\":3051:3077   */\n      swap1\n      pop\n        /* \"#utility.yul\":3087:3158   */\n      tag_74\n        /* \"#utility.yul\":3155:3156   */\n      0x00\n        /* \"#utility.yul\":3144:3153   */\n      dup4\n        /* \"#utility.yul\":3140:3157   */\n      add\n        /* \"#utility.yul\":3131:3137   */\n      dup5\n        /* \"#utility.yul\":3087:3158   */\n      tag_50\n      jump\t// in\n    tag_74:\n        /* \"#utility.yul\":2943:3165   */\n      swap3\n      swap2\n      pop\n      pop\n      jump\t// out\n        /* \"#utility.yul\":3171:3685   */\n    tag_16:\n        /* \"#utility.yul\":3332:3336   */\n      0x00\n        /* \"#utility.yul\":3370:3372   */\n      0x40\n        /* \"#utility.yul\":3359:3368   */\n      dup3\n        /* \"#utility.yul\":3355:3373   */\n      add\n        /* \"#utility.yul\":3347:3373   */\n      swap1\n      pop\n        /* \"#utility.yul\":3419:3428   */\n      dup2\n        /* \"#utility.yul\":3413:3417   */\n      dup2\n        /* \"#utility.yul\":3409:3429   */\n      sub\n        /* \"#utility.yul\":3405:3406   */\n      0x00\n        /* \"#utility.yul\":3394:3403   */\n      dup4\n        /* \"#utility.yul\":3390:3407   */\n      add\n        /* \"#utility.yul\":3383:3430   */\n      mstore\n        /* \"#utility.yul\":3447:3525   */\n      tag_76\n        /* \"#utility.yul\":3520:3524   */\n      dup2\n        /* \"#utility.yul\":3511:3517   */\n      dup6\n        /* \"#utility.yul\":3447:3525   */\n      tag_54\n      jump\t// in\n    tag_76:\n        /* \"#utility.yul\":3439:3525   */\n      swap1\n      pop\n        /* \"#utility.yul\":3572:3581   */\n      dup2\n        /* \"#utility.yul\":3566:3570   */\n      dup2\n        /* \"#utility.yul\":3562:3582   */\n      sub\n        /* \"#utility.yul\":3557:3559   */\n      0x20\n        /* \"#utility.yul\":3546:3555   */\n      dup4\n        /* \"#utility.yul\":3542:3560   */\n      add\n        /* \"#utility.yul\":3535:3583   */\n      mstore\n        /* \"#utility.yul\":3600:3678   */\n      tag_77\n        /* \"#utility.yul\":3673:3677   */\n      dup2\n        /* \"#utility.yul\":3664:3670   */\n      dup5\n        /* \"#utility.yul\":3600:3678   */\n      tag_54\n      jump\t// in\n    tag_77:\n        /* \"#utility.yul\":3592:3678   */\n      swap1\n      pop\n        /* \"#utility.yul\":3171:3685   */\n      swap4\n      swap3\n      pop\n      pop\n      pop\n      jump\t// out\n        /* \"#utility.yul\":3691:3820   */\n    tag_27:\n        /* \"#utility.yul\":3725:3731   */\n      0x00\n        /* \"#utility.yul\":3752:3772   */\n      tag_79\n      tag_80\n      jump\t// in\n    tag_79:\n        /* \"#utility.yul\":3742:3772   */\n      swap1\n      pop\n        /* \"#utility.yul\":3781:3814   */\n      tag_81\n        /* \"#utility.yul\":3809:3813   */\n      dup3\n        /* \"#utility.yul\":3801:3807   */\n      dup3\n        /* \"#utility.yul\":3781:3814   */\n      tag_82\n      jump\t// in\n    tag_81:\n        /* \"#utility.yul\":3691:3820   */\n      swap2\n      swap1\n      pop\n      jump\t// out\n        /* \"#utility.yul\":3826:3901   */\n    tag_80:\n        /* \"#utility.yul\":3859:3865   */\n      0x00\n        /* \"#utility.yul\":3892:3894   */\n      0x40\n        /* \"#utility.yul\":3886:3895   */\n      mload\n        /* \"#utility.yul\":3876:3895   */\n      swap1\n      pop\n        /* \"#utility.yul\":3826:3901   */\n      swap1\n      jump\t// out\n        /* \"#utility.yul\":3907:4215   */\n    tag_26:\n        /* \"#utility.yul\":3969:3973   */\n      0x00\n        /* \"#utility.yul\":4059:4077   */\n      0xffffffffffffffff\n        /* \"#utility.yul\":4051:4057   */\n      dup3\n        /* \"#utility.yul\":4048:4078   */\n      gt\n        /* \"#utility.yul\":4045:4101   */\n      iszero\n      tag_85\n      jumpi\n        /* \"#utility.yul\":4081:4099   */\n      tag_86\n      tag_87\n      jump\t// in\n    tag_86:\n        /* \"#utility.yul\":4045:4101   */\n    tag_85:\n        /* \"#utility.yul\":4119:4148   */\n      tag_88\n        /* \"#utility.yul\":4141:4147   */\n      dup3\n        /* \"#utility.yul\":4119:4148   */\n      tag_63\n      jump\t// in\n    tag_88:\n        /* \"#utility.yul\":4111:4148   */\n      swap1\n      pop\n        /* \"#utility.yul\":4203:4207   */\n      0x20\n        /* \"#utility.yul\":4197:4201   */\n      dup2\n        /* \"#utility.yul\":4193:4208   */\n      add\n        /* \"#utility.yul\":4185:4208   */\n      swap1\n      pop\n        /* \"#utility.yul\":3907:4215   */\n      swap2\n      swap1\n      pop\n      jump\t// out\n        /* \"#utility.yul\":4221:4320   */\n    tag_57:\n        /* \"#utility.yul\":4273:4279   */\n      0x00\n        /* \"#utility.yul\":4307:4312   */\n      dup2\n        /* \"#utility.yul\":4301:4313   */\n      mload\n        /* \"#utility.yul\":4291:4313   */\n      swap1\n      pop\n        /* \"#utility.yul\":4221:4320   */\n      swap2\n      swap1\n      pop\n      jump\t// out\n        /* \"#utility.yul\":4326:4495   */\n    tag_59:\n        /* \"#utility.yul\":4410:4421   */\n      0x00\n        /* \"#utility.yul\":4444:4450   */\n      dup3\n        /* \"#utility.yul\":4439:4442   */\n      dup3\n        /* \"#utility.yul\":4432:4451   */\n      mstore\n        /* \"#utility.yul\":4484:4488   */\n      0x20\n        /* \"#utility.yul\":4479:4482   */\n      dup3\n        /* \"#utility.yul\":4475:4489   */\n      add\n        /* \"#utility.yul\":4460:4489   */\n      swap1\n      pop\n        /* \"#utility.yul\":4326:4495   */\n      swap3\n      swap2\n      pop\n      pop\n      jump\t// out\n        /* \"#utility.yul\":4501:4649   */\n    tag_68:\n        /* \"#utility.yul\":4603:4614   */\n      0x00\n        /* \"#utility.yul\":4640:4643   */\n      dup2\n        /* \"#utility.yul\":4625:4643   */\n      swap1\n      pop\n        /* \"#utility.yul\":4501:4649   */\n      swap3\n      swap2\n      pop\n      pop\n      jump\t// out\n        /* \"#utility.yul\":4655:4732   */\n    tag_53:\n        /* \"#utility.yul\":4692:4699   */\n      0x00\n        /* \"#utility.yul\":4721:4726   */\n      dup2\n        /* \"#utility.yul\":4710:4726   */\n      swap1\n      pop\n        /* \"#utility.yul\":4655:4732   */\n      swap2\n      swap1\n      pop\n      jump\t// out\n        /* \"#utility.yul\":4738:4892   */\n    tag_32:\n        /* \"#utility.yul\":4822:4828   */\n      dup3\n        /* \"#utility.yul\":4817:4820   */\n      dup2\n        /* \"#utility.yul\":4812:4815   */\n      dup4\n        /* \"#utility.yul\":4799:4829   */\n      calldatacopy\n        /* \"#utility.yul\":4884:4885   */\n      0x00\n        /* \"#utility.yul\":4875:4881   */\n      dup4\n        /* \"#utility.yul\":4870:4873   */\n      dup4\n        /* \"#utility.yul\":4866:4882   */\n      add\n        /* \"#utility.yul\":4859:4886   */\n      mstore\n        /* \"#utility.yul\":4738:4892   */\n      pop\n      pop\n      pop\n      jump\t// out\n        /* \"#utility.yul\":4898:5205   */\n    tag_61:\n        /* \"#utility.yul\":4966:4967   */\n      0x00\n        /* \"#utility.yul\":4976:5089   */\n    tag_95:\n        /* \"#utility.yul\":4990:4996   */\n      dup4\n        /* \"#utility.yul\":4987:4988   */\n      dup2\n        /* \"#utility.yul\":4984:4997   */\n      lt\n        /* \"#utility.yul\":4976:5089   */\n      iszero\n      tag_97\n      jumpi\n        /* \"#utility.yul\":5075:5076   */\n      dup1\n        /* \"#utility.yul\":5070:5073   */\n      dup3\n        /* \"#utility.yul\":5066:5077   */\n      add\n        /* \"#utility.yul\":5060:5078   */\n      mload\n        /* \"#utility.yul\":5056:5057   */\n      dup2\n        /* \"#utility.yul\":5051:5054   */\n      dup5\n        /* \"#utility.yul\":5047:5058   */\n      add\n        /* \"#utility.yul\":5040:5079   */\n      mstore\n        /* \"#utility.yul\":5012:5014   */\n      0x20\n        /* \"#utility.yul\":5009:5010   */\n      dup2\n        /* \"#utility.yul\":5005:5015   */\n      add\n        /* \"#utility.yul\":5000:5015   */\n      swap1\n      pop\n        /* \"#utility.yul\":4976:5089   */\n      jump(tag_95)\n    tag_97:\n        /* \"#utility.yul\":5107:5113   */\n      dup4\n        /* \"#utility.yul\":5104:5105   */\n      dup2\n        /* \"#utility.yul\":5101:5114   */\n      gt\n        /* \"#utility.yul\":5098:5199   */\n      iszero\n      tag_98\n      jumpi\n        /* \"#utility.yul\":5187:5188   */\n      0x00\n        /* \"#utility.yul\":5178:5184   */\n      dup5\n        /* \"#utility.yul\":5173:5176   */\n      dup5\n        /* \"#utility.yul\":5169:5185   */\n      add\n        /* \"#utility.yul\":5162:5189   */\n      mstore\n        /* \"#utility.yul\":5098:5199   */\n    tag_98:\n        /* \"#utility.yul\":4947:5205   */\n      pop\n        /* \"#utility.yul\":4898:5205   */\n      pop\n      pop\n      pop\n      jump\t// out\n        /* \"#utility.yul\":5211:5492   */\n    tag_82:\n        /* \"#utility.yul\":5294:5321   */\n      tag_100\n        /* \"#utility.yul\":5316:5320   */\n      dup3\n        /* \"#utility.yul\":5294:5321   */\n      tag_63\n      jump\t// in\n    tag_100:\n        /* \"#utility.yul\":5286:5292   */\n      dup2\n        /* \"#utility.yul\":5282:5322   */\n      add\n        /* \"#utility.yul\":5424:5430   */\n      dup2\n        /* \"#utility.yul\":5412:5422   */\n      dup2\n        /* \"#utility.yul\":5409:5431   */\n      lt\n        /* \"#utility.yul\":5388:5406   */\n      0xffffffffffffffff\n        /* \"#utility.yul\":5376:5386   */\n      dup3\n        /* \"#utility.yul\":5373:5407   */\n      gt\n        /* \"#utility.yul\":5370:5432   */\n      or\n        /* \"#utility.yul\":5367:5455   */\n      iszero\n      tag_101\n      jumpi\n        /* \"#utility.yul\":5435:5453   */\n      tag_102\n      tag_87\n      jump\t// in\n    tag_102:\n        /* \"#utility.yul\":5367:5455   */\n    tag_101:\n        /* \"#utility.yul\":5475:5485   */\n      dup1\n        /* \"#utility.yul\":5471:5473   */\n      0x40\n        /* \"#utility.yul\":5464:5486   */\n      mstore\n        /* \"#utility.yul\":5254:5492   */\n      pop\n        /* \"#utility.yul\":5211:5492   */\n      pop\n      pop\n      jump\t// out\n        /* \"#utility.yul\":5498:5678   */\n    tag_87:\n        /* \"#utility.yul\":5546:5623   */\n      0x4e487b7100000000000000000000000000000000000000000000000000000000\n        /* \"#utility.yul\":5543:5544   */\n      0x00\n        /* \"#utility.yul\":5536:5624   */\n      mstore\n        /* \"#utility.yul\":5643:5647   */\n      0x41\n        /* \"#utility.yul\":5640:5641   */\n      0x04\n        /* \"#utility.yul\":5633:5648   */\n      mstore\n        /* \"#utility.yul\":5667:5671   */\n      0x24\n        /* \"#utility.yul\":5664:5665   */\n      0x00\n        /* \"#utility.yul\":5657:5672   */\n      revert\n        /* \"#utility.yul\":5684:5801   */\n    tag_37:\n        /* \"#utility.yul\":5793:5794   */\n      0x00\n        /* \"#utility.yul\":5790:5791   */\n      dup1\n        /* \"#utility.yul\":5783:5795   */\n      revert\n        /* \"#utility.yul\":5807:5924   */\n    tag_30:\n        /* \"#utility.yul\":5916:5917   */\n      0x00\n        /* \"#utility.yul\":5913:5914   */\n      dup1\n        /* \"#utility.yul\":5906:5918   */\n      revert\n        /* \"#utility.yul\":5930:6047   */\n    tag_45:\n        /* \"#utility.yul\":6039:6040   */\n      0x00\n        /* \"#utility.yul\":6036:6037   */\n      dup1\n        /* \"#utility.yul\":6029:6041   */\n      revert\n        /* \"#utility.yul\":6053:6170   */\n    tag_42:\n        /* \"#utility.yul\":6162:6163   */\n      0x00\n        /* \"#utility.yul\":6159:6160   */\n      dup1\n        /* \"#utility.yul\":6152:6164   */\n      revert\n        /* \"#utility.yul\":6176:6278   */\n    tag_63:\n        /* \"#utility.yul\":6217:6223   */\n      0x00\n        /* \"#utility.yul\":6268:6270   */\n      0x1f\n        /* \"#utility.yul\":6264:6271   */\n      not\n        /* \"#utility.yul\":6259:6261   */\n      0x1f\n        /* \"#utility.yul\":6252:6257   */\n      dup4\n        /* \"#utility.yul\":6248:6262   */\n      add\n        /* \"#utility.yul\":6244:6272   */\n      and\n        /* \"#utility.yul\":6234:6272   */\n      swap1\n      pop\n        /* \"#utility.yul\":6176:6278   */\n      swap2\n      swap1\n      pop\n      jump\t// out\n\n    auxdata: 0xa2646970667358221220cddfe714e9c5b109ec3b18f82df74bbbe63f49de2c82ffae95f8f73a2959f7c564736f6c63430008070033\n}\n",
				"bytecode": {
					"linkReferences": {},
					"object": "608060405234801561001057600080fd5b50610478806100206000396000f3fe608060405234801561001057600080fd5b50600436106100365760003560e01c806317fe2da21461003b578063892e5d011461006b575b600080fd5b6100556004803603810190610050919061018d565b610087565b60405161006291906102a2565b60405180910390f35b6100856004803603810190610080919061018d565b6100ba565b005b6000828260405160200161009c9291906102bd565b60405160208183030381529060405280519060200120905092915050565b7f32d5ab96f608074ecb7a2188938a6154ca0cb72029f98b277aa9284b9d47f5c382826040516020016100ee92919061027e565b6040516020818303038152906040528051906020012060405161011191906102a2565b60405180910390a15050565b600061013061012b84610319565b6102f4565b90508281526020810184848401111561014c5761014b610422565b5b61015784828561037b565b509392505050565b600082601f8301126101745761017361041d565b5b813561018484826020860161011d565b91505092915050565b600080604083850312156101a4576101a361042c565b5b600083013567ffffffffffffffff8111156101c2576101c1610427565b5b6101ce8582860161015f565b925050602083013567ffffffffffffffff8111156101ef576101ee610427565b5b6101fb8582860161015f565b9150509250929050565b61020e81610371565b82525050565b600061021f8261034a565b6102298185610355565b935061023981856020860161038a565b61024281610431565b840191505092915050565b60006102588261034a565b6102628185610366565b935061027281856020860161038a565b80840191505092915050565b600061028a828561024d565b9150610296828461024d565b91508190509392505050565b60006020820190506102b76000830184610205565b92915050565b600060408201905081810360008301526102d78185610214565b905081810360208301526102eb8184610214565b90509392505050565b60006102fe61030f565b905061030a82826103bd565b919050565b6000604051905090565b600067ffffffffffffffff821115610334576103336103ee565b5b61033d82610431565b9050602081019050919050565b600081519050919050565b600082825260208201905092915050565b600081905092915050565b6000819050919050565b82818337600083830152505050565b60005b838110156103a857808201518184015260208101905061038d565b838111156103b7576000848401525b50505050565b6103c682610431565b810181811067ffffffffffffffff821117156103e5576103e46103ee565b5b80604052505050565b7f4e487b7100000000000000000000000000000000000000000000000000000000600052604160045260246000fd5b600080fd5b600080fd5b600080fd5b600080fd5b6000601f19601f830116905091905056fea2646970667358221220cddfe714e9c5b109ec3b18f82df74bbbe63f49de2c82ffae95f8f73a2959f7c564736f6c63430008070033",
					"opcodes": "PUSH1 0x80 PUSH1 0x40 MSTORE CALLVALUE DUP1 ISZERO PUSH2 0x10 JUMPI PUSH1 0x0 DUP1 REVERT JUMPDEST POP PUSH2 0x478 DUP1 PUSH2 0x20 PUSH1 0x0 CODECOPY PUSH1 0x0 RETURN INVALID PUSH1 0x80 PUSH1 0x40 MSTORE CALLVALUE DUP1 ISZERO PUSH2 0x10 JUMPI PUSH1 0x0 DUP1 REVERT JUMPDEST POP PUSH1 0x4 CALLDATASIZE LT PUSH2 0x36 JUMPI PUSH1 0x0 CALLDATALOAD PUSH1 0xE0 SHR DUP1 PUSH4 0x17FE2DA2 EQ PUSH2 0x3B JUMPI DUP1 PUSH4 0x892E5D01 EQ PUSH2 0x6B JUMPI JUMPDEST PUSH1 0x0 DUP1 REVERT JUMPDEST PUSH2 0x55 PUSH1 0x4 DUP1 CALLDATASIZE SUB DUP2 ADD SWAP1 PUSH2 0x50 SWAP2 SWAP1 PUSH2 0x18D JUMP JUMPDEST PUSH2 0x87 JUMP JUMPDEST PUSH1 0x40 MLOAD PUSH2 0x62 SWAP2 SWAP1 PUSH2 0x2A2 JUMP JUMPDEST PUSH1 0x40 MLOAD DUP1 SWAP2 SUB SWAP1 RETURN JUMPDEST PUSH2 0x85 PUSH1 0x4 DUP1 CALLDATASIZE SUB DUP2 ADD SWAP1 PUSH2 0x80 SWAP2 SWAP1 PUSH2 0x18D JUMP JUMPDEST PUSH2 0xBA JUMP JUMPDEST STOP JUMPDEST PUSH1 0x0 DUP3 DUP3 PUSH1 0x40 MLOAD PUSH1 0x20 ADD PUSH2 0x9C SWAP3 SWAP2 SWAP1 PUSH2 0x2BD JUMP JUMPDEST PUSH1 0x40 MLOAD PUSH1 0x20 DUP2 DUP4 SUB SUB DUP2 MSTORE SWAP1 PUSH1 0x40 MSTORE DUP1 MLOAD SWAP1 PUSH1 0x20 ADD KECCAK256 SWAP1 POP SWAP3 SWAP2 POP POP JUMP JUMPDEST PUSH32 0x32D5AB96F608074ECB7A2188938A6154CA0CB72029F98B277AA9284B9D47F5C3 DUP3 DUP3 PUSH1 0x40 MLOAD PUSH1 0x20 ADD PUSH2 0xEE SWAP3 SWAP2 SWAP1 PUSH2 0x27E JUMP JUMPDEST PUSH1 0x40 MLOAD PUSH1 0x20 DUP2 DUP4 SUB SUB DUP2 MSTORE SWAP1 PUSH1 0x40 MSTORE DUP1 MLOAD SWAP1 PUSH1 0x20 ADD KECCAK256 PUSH1 0x40 MLOAD PUSH2 0x111 SWAP2 SWAP1 PUSH2 0x2A2 JUMP JUMPDEST PUSH1 0x40 MLOAD DUP1 SWAP2 SUB SWAP1 LOG1 POP POP JUMP JUMPDEST PUSH1 0x0 PUSH2 0x130 PUSH2 0x12B DUP5 PUSH2 0x319 JUMP JUMPDEST PUSH2 0x2F4 JUMP JUMPDEST SWAP1 POP DUP3 DUP2 MSTORE PUSH1 0x20 DUP2 ADD DUP5 DUP5 DUP5 ADD GT ISZERO PUSH2 0x14C JUMPI PUSH2 0x14B PUSH2 0x422 JUMP JUMPDEST JUMPDEST PUSH2 0x157 DUP5 DUP3 DUP6 PUSH2 0x37B JUMP JUMPDEST POP SWAP4 SWAP3 POP POP POP JUMP JUMPDEST PUSH1 0x0 DUP3 PUSH1 0x1F DUP4 ADD SLT PUSH2 0x174 JUMPI PUSH2 0x173 PUSH2 0x41D JUMP JUMPDEST JUMPDEST DUP2 CALLDATALOAD PUSH2 0x184 DUP5 DUP3 PUSH1 0x20 DUP7 ADD PUSH2 0x11D JUMP JUMPDEST SWAP2 POP POP SWAP3 SWAP2 POP POP JUMP JUMPDEST PUSH1 0x0 DUP1 PUSH1 0x40 DUP4 DUP6 SUB SLT ISZERO PUSH2 0x1A4 JUMPI PUSH2 0x1A3 PUSH2 0x42C JUMP JUMPDEST JUMPDEST PUSH1 0x0 DUP4 ADD CALLDATALOAD PUSH8 0xFFFFFFFFFFFFFFFF DUP2 GT ISZERO PUSH2 0x1C2 JUMPI PUSH2 0x1C1 PUSH2 0x427 JUMP JUMPDEST JUMPDEST PUSH2 0x1CE DUP6 DUP3 DUP7 ADD PUSH2 0x15F JUMP JUMPDEST SWAP3 POP POP PUSH1 0x20 DUP4 ADD CALLDATALOAD PUSH8 0xFFFFFFFFFFFFFFFF DUP2 GT ISZERO PUSH2 0x1EF JUMPI PUSH2 0x1EE PUSH2 0x427 JUMP JUMPDEST JUMPDEST PUSH2 0x1FB DUP6 DUP3 DUP7 ADD PUSH2 0x15F JUMP JUMPDEST SWAP2 POP POP SWAP3 POP SWAP3 SWAP1 POP JUMP JUMPDEST PUSH2 0x20E DUP2 PUSH2 0x371 JUMP JUMPDEST DUP3 MSTORE POP POP JUMP JUMPDEST PUSH1 0x0 PUSH2 0x21F DUP3 PUSH2 0x34A JUMP JUMPDEST PUSH2 0x229 DUP2 DUP6 PUSH2 0x355 JUMP JUMPDEST SWAP4 POP PUSH2 0x239 DUP2 DUP6 PUSH1 0x20 DUP7 ADD PUSH2 0x38A JUMP JUMPDEST PUSH2 0x242 DUP2 PUSH2 0x431 JUMP JUMPDEST DUP5 ADD SWAP2 POP POP SWAP3 SWAP2 POP POP JUMP JUMPDEST PUSH1 0x0 PUSH2 0x258 DUP3 PUSH2 0x34A JUMP JUMPDEST PUSH2 0x262 DUP2 DUP6 PUSH2 0x366 JUMP JUMPDEST SWAP4 POP PUSH2 0x272 DUP2 DUP6 PUSH1 0x20 DUP7 ADD PUSH2 0x38A JUMP JUMPDEST DUP1 DUP5 ADD SWAP2 POP POP SWAP3 SWAP2 POP POP JUMP JUMPDEST PUSH1 0x0 PUSH2 0x28A DUP3 DUP6 PUSH2 0x24D JUMP JUMPDEST SWAP2 POP PUSH2 0x296 DUP3 DUP5 PUSH2 0x24D JUMP JUMPDEST SWAP2 POP DUP2 SWAP1 POP SWAP4 SWAP3 POP POP POP JUMP JUMPDEST PUSH1 0x0 PUSH1 0x20 DUP3 ADD SWAP1 POP PUSH2 0x2B7 PUSH1 0x0 DUP4 ADD DUP5 PUSH2 0x205 JUMP JUMPDEST SWAP3 SWAP2 POP POP JUMP JUMPDEST PUSH1 0x0 PUSH1 0x40 DUP3 ADD SWAP1 POP DUP2 DUP2 SUB PUSH1 0x0 DUP4 ADD MSTORE PUSH2 0x2D7 DUP2 DUP6 PUSH2 0x214 JUMP JUMPDEST SWAP1 POP DUP2 DUP2 SUB PUSH1 0x20 DUP4 ADD MSTORE PUSH2 0x2EB DUP2 DUP5 PUSH2 0x214 JUMP JUMPDEST SWAP1 POP SWAP4 SWAP3 POP POP POP JUMP JUMPDEST PUSH1 0x0 PUSH2 0x2FE PUSH2 0x30F JUMP JUMPDEST SWAP1 POP PUSH2 0x30A DUP3 DUP3 PUSH2 0x3BD JUMP JUMPDEST SWAP2 SWAP1 POP JUMP JUMPDEST PUSH1 0x0 PUSH1 0x40 MLOAD SWAP1 POP SWAP1 JUMP JUMPDEST PUSH1 0x0 PUSH8 0xFFFFFFFFFFFFFFFF DUP3 GT ISZERO PUSH2 0x334 JUMPI PUSH2 0x333 PUSH2 0x3EE JUMP JUMPDEST JUMPDEST PUSH2 0x33D DUP3 PUSH2 0x431 JUMP JUMPDEST SWAP1 POP PUSH1 0x20 DUP2 ADD SWAP1 POP SWAP2 SWAP1 POP JUMP JUMPDEST PUSH1 0x0 DUP2 MLOAD SWAP1 POP SWAP2 SWAP1 POP JUMP JUMPDEST PUSH1 0x0 DUP3 DUP3 MSTORE PUSH1 0x20 DUP3 ADD SWAP1 POP SWAP3 SWAP2 POP POP JUMP JUMPDEST PUSH1 0x0 DUP2 SWAP1 POP SWAP3 SWAP2 POP POP JUMP JUMPDEST PUSH1 0x0 DUP2 SWAP1 POP SWAP2 SWAP1 POP JUMP JUMPDEST DUP3 DUP2 DUP4 CALLDATACOPY PUSH1 0x0 DUP4 DUP4 ADD MSTORE POP POP POP JUMP JUMPDEST PUSH1 0x0 JUMPDEST DUP4 DUP2 LT ISZERO PUSH2 0x3A8 JUMPI DUP1 DUP3 ADD MLOAD DUP2 DUP5 ADD MSTORE PUSH1 0x20 DUP2 ADD SWAP1 POP PUSH2 0x38D JUMP JUMPDEST DUP4 DUP2 GT ISZERO PUSH2 0x3B7 JUMPI PUSH1 0x0 DUP5 DUP5 ADD MSTORE JUMPDEST POP POP POP POP JUMP JUMPDEST PUSH2 0x3C6 DUP3 PUSH2 0x431 JUMP JUMPDEST DUP2 ADD DUP2 DUP2 LT PUSH8 0xFFFFFFFFFFFFFFFF DUP3 GT OR ISZERO PUSH2 0x3E5 JUMPI PUSH2 0x3E4 PUSH2 0x3EE JUMP JUMPDEST JUMPDEST DUP1 PUSH1 0x40 MSTORE POP POP POP JUMP JUMPDEST PUSH32 0x4E487B7100000000000000000000000000000000000000000000000000000000 PUSH1 0x0 MSTORE PUSH1 0x41 PUSH1 0x4 MSTORE PUSH1 0x24 PUSH1 0x0 REVERT JUMPDEST PUSH1 0x0 DUP1 REVERT JUMPDEST PUSH1 0x0 DUP1 REVERT JUMPDEST PUSH1 0x0 DUP1 REVERT JUMPDEST PUSH1 0x0 DUP1 REVERT JUMPDEST PUSH1 0x0 PUSH1 0x1F NOT PUSH1 0x1F DUP4 ADD AND SWAP1 POP SWAP2 SWAP1 POP JUMP INVALID LOG2 PUSH5 0x6970667358 0x22 SLT KECCAK256 0xCD 0xDF 0xE7 EQ 0xE9 0xC5 0xB1 MULMOD 0xEC EXTCODESIZE XOR 0xF8 0x2D 0xF7 0x4B 0xBB 0xE6 EXTCODEHASH 0x49 0xDE 0x2C DUP3 SELFDESTRUCT 0xAE SWAP6 0xF8 0xF7 GASPRICE 0x29 MSIZE 0xF7 0xC5 PUSH5 0x736F6C6343 STOP ADDMOD SMOD STOP CALLER "
				},
				"gasEstimates": {
					"creation": {
						"codeDepositCost": "228800",
						"executionCost": "269",
						"totalCost": "229069"
					},
					"external": {
						"encode(string,string)": "infinite",
						"encodePacked(string,string)": "infinite"
					}
				},
				"methodIdentifiers": {
					"encode(string,string)": "17fe2da2",
					"encodePacked(string,string)": "892e5d01"
				}
			},
			"storageLayout": {
				"storage": [],
				"types": null
			},
			"userdoc": {
				"kind": "user",
				"methods": {},
				"version": 1
			}
		}
	}
}