{
	"Week5/SelfDestruct.sol": {
		"ArrayRemoveShift": {
			"abi": [
				{
					"inputs": [],
					"name": "selfDestruct",
					"outputs": [],
					"stateMutability": "nonpayable",
					"type": "function"
				}
			],
			"devdoc": {
				"kind": "dev",
				"methods": {},
				"version": 1
			},
			"evm": {
				"assembly": "    /* \"Week5/SelfDestruct.sol\":70:236  contract ArrayRemoveShift {... */\n  mstore(0x40, 0x80)\n    /* \"Week5/SelfDestruct.sol\":135:177  0x7155807a967852Be190eb1591776D9e41ED48e14 */\n  0x7155807a967852be190eb1591776d9e41ed48e14\n    /* \"Week5/SelfDestruct.sol\":102:178  address payable TARGET = payable(0x7155807a967852Be190eb1591776D9e41ED48e14) */\n  0x00\n  dup1\n  0x0100\n  exp\n  dup2\n  sload\n  dup2\n  0xffffffffffffffffffffffffffffffffffffffff\n  mul\n  not\n  and\n  swap1\n  dup4\n  0xffffffffffffffffffffffffffffffffffffffff\n  and\n  mul\n  or\n  swap1\n  sstore\n  pop\n    /* \"Week5/SelfDestruct.sol\":70:236  contract ArrayRemoveShift {... */\n  callvalue\n  dup1\n  iszero\n  tag_1\n  jumpi\n  0x00\n  dup1\n  revert\ntag_1:\n  pop\n  dataSize(sub_0)\n  dup1\n  dataOffset(sub_0)\n  0x00\n  codecopy\n  0x00\n  return\nstop\n\nsub_0: assembly {\n        /* \"Week5/SelfDestruct.sol\":70:236  contract ArrayRemoveShift {... */\n      mstore(0x40, 0x80)\n      callvalue\n      dup1\n      iszero\n      tag_1\n      jumpi\n      0x00\n      dup1\n      revert\n    tag_1:\n      pop\n      jumpi(tag_2, lt(calldatasize, 0x04))\n      shr(0xe0, calldataload(0x00))\n      dup1\n      0x9cb8a26a\n      eq\n      tag_3\n      jumpi\n    tag_2:\n      0x00\n      dup1\n      revert\n        /* \"Week5/SelfDestruct.sol\":185:234  function selfDestruct() external {... */\n    tag_3:\n      tag_4\n      tag_5\n      jump\t// in\n    tag_4:\n      stop\n    tag_5:\n      jump\t// out\n\n    auxdata: 0xa2646970667358221220dfe792996ebebf2edd002ed8c4f419e4ce75b600e57073c616cbfca58554737c64736f6c63430008070033\n}\n",
				"bytecode": {
					"linkReferences": {},
					"object": "6080604052737155807a967852be190eb1591776d9e41ed48e146000806101000a81548173ffffffffffffffffffffffffffffffffffffffff021916908373ffffffffffffffffffffffffffffffffffffffff160217905550348015606357600080fd5b50606d806100726000396000f3fe6080604052348015600f57600080fd5b506004361060285760003560e01c80639cb8a26a14602d575b600080fd5b60336035565b005b56fea2646970667358221220dfe792996ebebf2edd002ed8c4f419e4ce75b600e57073c616cbfca58554737c64736f6c63430008070033",
					"opcodes": "PUSH1 0x80 PUSH1 0x40 MSTORE PUSH20 0x7155807A967852BE190EB1591776D9E41ED48E14 PUSH1 0x0 DUP1 PUSH2 0x100 EXP DUP2 SLOAD DUP2 PUSH20 0xFFFFFFFFFFFFFFFFFFFFFFFFFFFFFFFFFFFFFFFF MUL NOT AND SWAP1 DUP4 PUSH20 0xFFFFFFFFFFFFFFFFFFFFFFFFFFFFFFFFFFFFFFFF AND MUL OR SWAP1 SSTORE POP CALLVALUE DUP1 ISZERO PUSH1 0x63 JUMPI PUSH1 0x0 DUP1 REVERT JUMPDEST POP PUSH1 0x6D DUP1 PUSH2 0x72 PUSH1 0x0 CODECOPY PUSH1 0x0 RETURN INVALID PUSH1 0x80 PUSH1 0x40 MSTORE CALLVALUE DUP1 ISZERO PUSH1 0xF JUMPI PUSH1 0x0 DUP1 REVERT JUMPDEST POP PUSH1 0x4 CALLDATASIZE LT PUSH1 0x28 JUMPI PUSH1 0x0 CALLDATALOAD PUSH1 0xE0 SHR DUP1 PUSH4 0x9CB8A26A EQ PUSH1 0x2D JUMPI JUMPDEST PUSH1 0x0 DUP1 REVERT JUMPDEST PUSH1 0x33 PUSH1 0x35 JUMP JUMPDEST STOP JUMPDEST JUMP INVALID LOG2 PUSH5 0x6970667358 0x22 SLT KECCAK256 0xDF 0xE7 SWAP3 SWAP10 PUSH15 0xBEBF2EDD002ED8C4F419E4CE75B600 0xE5 PUSH17 0x73C616CBFCA58554737C64736F6C634300 ADDMOD SMOD STOP CALLER "
				},
				"gasEstimates": {
					"creation": {
						"codeDepositCost": "21800",
						"executionCost": "24342",
						"totalCost": "46142"
					},
					"external": {
						"selfDestruct()": "122"
					}
				},
				"methodIdentifiers": {
					"selfDestruct()": "9cb8a26a"
				}
			},
			"storageLayout": {
				"storage": [
					{
						"astId": 7,
						"contract": "Week5/SelfDestruct.sol:ArrayRemoveShift",
						"label": "TARGET",
						"offset": 0,
						"slot": "0",
						"type": "t_address_payable"
					}
				],
				"types": {
					"t_address_payable": {
						"encoding": "inplace",
						"label": "address payable",
						"numberOfBytes": "20"
					}
				}
			},
			"userdoc": {
				"kind": "user",
				"methods": {},
				"version": 1
			}
		}
	}
}