{
	"Week5/ClaimBack.sol": {
		"ClaimBack": {
			"abi": [
				{
					"inputs": [],
					"stateMutability": "payable",
					"type": "constructor"
				},
				{
					"inputs": [
						{
							"internalType": "bytes",
							"name": "",
							"type": "bytes"
						}
					],
					"name": "ClaimError",
					"type": "error"
				},
				{
					"inputs": [],
					"name": "claim",
					"outputs": [
						{
							"internalType": "bytes",
							"name": "",
							"type": "bytes"
						}
					],
					"stateMutability": "payable",
					"type": "function"
				},
				{
					"inputs": [],
					"name": "transfer",
					"outputs": [
						{
							"internalType": "bytes",
							"name": "",
							"type": "bytes"
						}
					],
					"stateMutability": "payable",
					"type": "function"
				},
				{
					"stateMutability": "payable",
					"type": "receive"
				}
			],
			"devdoc": {
				"kind": "dev",
				"methods": {},
				"version": 1
			},
			"evm": {
				"assembly": "    /* \"Week5/ClaimBack.sol\":221:956  contract ClaimBack {... */\n  mstore(0x40, 0x80)\n  dataSize(sub_0)\n  dup1\n  dataOffset(sub_0)\n  0x00\n  codecopy\n  0x00\n  return\nstop\n\nsub_0: assembly {\n        /* \"Week5/ClaimBack.sol\":221:956  contract ClaimBack {... */\n      mstore(0x40, 0x80)\n      jumpi(tag_1, lt(calldatasize, 0x04))\n      shr(0xe0, calldataload(0x00))\n      dup1\n      0x4e71d92d\n      eq\n      tag_3\n      jumpi\n      dup1\n      0x8a4068dd\n      eq\n      tag_4\n      jumpi\n      0x00\n      dup1\n      revert\n    tag_1:\n      jumpi(tag_2, calldatasize)\n      stop\n    tag_2:\n      0x00\n      dup1\n      revert\n        /* \"Week5/ClaimBack.sol\":694:954  function claim() external payable returns(bytes memory) {... */\n    tag_3:\n      tag_7\n      tag_8\n      jump\t// in\n    tag_7:\n      mload(0x40)\n      tag_9\n      swap2\n      swap1\n      tag_10\n      jump\t// in\n    tag_9:\n      mload(0x40)\n      dup1\n      swap2\n      sub\n      swap1\n      return\n        /* \"Week5/ClaimBack.sol\":357:644  function transfer() external payable returns(bytes memory) {... */\n    tag_4:\n      tag_7\n      tag_12\n      jump\t// in\n        /* \"Week5/ClaimBack.sol\":694:954  function claim() external payable returns(bytes memory) {... */\n    tag_8:\n        /* \"Week5/ClaimBack.sol\":810:854  abi.encodeWithSignature(\"claim(uint256)\", 0) */\n      mload(0x40)\n        /* \"Week5/ClaimBack.sol\":761:773  bool success */\n      0x00\n        /* \"Week5/ClaimBack.sol\":810:854  abi.encodeWithSignature(\"claim(uint256)\", 0) */\n      0x24\n      dup3\n      add\n        /* \"#utility.yul\":820:856   */\n      dup2\n      swap1\n      mstore\n        /* \"Week5/ClaimBack.sol\":736:748  bytes memory */\n      0x60\n      swap2\n        /* \"Week5/ClaimBack.sol\":761:773  bool success */\n      dup2\n      swap1\n        /* \"Week5/ClaimBack.sol\":275:317  0xd33C69361e00f01C3085ac77ab2fA13bE10376E8 */\n      0xd33c69361e00f01c3085ac77ab2fa13be10376e8\n      swap1\n        /* \"#utility.yul\":793:811   */\n      0x44\n      add\n        /* \"Week5/ClaimBack.sol\":810:854  abi.encodeWithSignature(\"claim(uint256)\", 0) */\n      0x40\n      dup1\n      mload\n      not(0x1f)\n      dup2\n      dup5\n      sub\n      add\n      dup2\n      mstore\n      swap2\n      dup2\n      mstore\n      0x20\n      dup3\n      add\n      dup1\n      mload\n      sub(shl(0xe0, 0x01), 0x01)\n      and\n      shl(0xe0, 0x379607f5)\n      or\n      swap1\n      mstore\n        /* \"Week5/ClaimBack.sol\":796:855  CONTRACT.call(abi.encodeWithSignature(\"claim(uint256)\", 0)) */\n      mload\n      tag_17\n      swap2\n        /* \"Week5/ClaimBack.sol\":810:854  abi.encodeWithSignature(\"claim(uint256)\", 0) */\n      swap1\n        /* \"Week5/ClaimBack.sol\":796:855  CONTRACT.call(abi.encodeWithSignature(\"claim(uint256)\", 0)) */\n      tag_18\n      jump\t// in\n    tag_17:\n      0x00\n      mload(0x40)\n      dup1\n      dup4\n      sub\n      dup2\n      0x00\n      dup7\n      gas\n      call\n      swap2\n      pop\n      pop\n      returndatasize\n      dup1\n      0x00\n      dup2\n      eq\n      tag_21\n      jumpi\n      mload(0x40)\n      swap2\n      pop\n      and(add(returndatasize, 0x3f), not(0x1f))\n      dup3\n      add\n      0x40\n      mstore\n      returndatasize\n      dup3\n      mstore\n      returndatasize\n      0x00\n      0x20\n      dup5\n      add\n      returndatacopy\n      jump(tag_20)\n    tag_21:\n      0x60\n      swap2\n      pop\n    tag_20:\n      pop\n        /* \"Week5/ClaimBack.sol\":760:855  (bool success, bytes memory data) = CONTRACT.call(abi.encodeWithSignature(\"claim(uint256)\", 0)) */\n      swap2\n      pop\n      swap2\n      pop\n        /* \"Week5/ClaimBack.sol\":870:877  success */\n      dup2\n        /* \"Week5/ClaimBack.sol\":865:927  if (!success) {... */\n      tag_22\n      jumpi\n        /* \"Week5/ClaimBack.sol\":911:915  data */\n      dup1\n        /* \"Week5/ClaimBack.sol\":900:916  ClaimError(data) */\n      mload(0x40)\n      shl(0xe1, 0x3b4c5f6f)\n      dup2\n      mstore\n      0x04\n      add\n      tag_23\n      swap2\n      swap1\n      tag_10\n      jump\t// in\n    tag_23:\n      mload(0x40)\n      dup1\n      swap2\n      sub\n      swap1\n      revert\n        /* \"Week5/ClaimBack.sol\":865:927  if (!success) {... */\n    tag_22:\n        /* \"Week5/ClaimBack.sol\":943:947  data */\n      swap3\n        /* \"Week5/ClaimBack.sol\":694:954  function claim() external payable returns(bytes memory) {... */\n      swap2\n      pop\n      pop\n      jump\t// out\n        /* \"Week5/ClaimBack.sol\":357:644  function transfer() external payable returns(bytes memory) {... */\n    tag_12:\n        /* \"Week5/ClaimBack.sol\":402:414  bytes memory */\n      0x60\n        /* \"Week5/ClaimBack.sol\":484:496  bool success */\n      0x00\n        /* \"Week5/ClaimBack.sol\":498:515  bytes memory data */\n      dup1\n        /* \"Week5/ClaimBack.sol\":275:317  0xd33C69361e00f01C3085ac77ab2fA13bE10376E8 */\n      0xd33c69361e00f01c3085ac77ab2fa13be10376e8\n      sub(shl(0xa0, 0x01), 0x01)\n        /* \"Week5/ClaimBack.sol\":519:532  CONTRACT.call */\n      and\n        /* \"Week5/ClaimBack.sol\":539:555  1000000000000000 */\n      0x038d7ea4c68000\n        /* \"Week5/ClaimBack.sol\":519:560  CONTRACT.call{value:1000000000000000}(\"\") */\n      mload(0x40)\n      0x00\n      mload(0x40)\n      dup1\n      dup4\n      sub\n      dup2\n      dup6\n      dup8\n      gas\n      call\n      swap3\n      pop\n      pop\n      pop\n      returndatasize\n      dup1\n      0x00\n      dup2\n      eq\n      tag_29\n      jumpi\n      mload(0x40)\n      swap2\n      pop\n      and(add(returndatasize, 0x3f), not(0x1f))\n      dup3\n      add\n      0x40\n      mstore\n      returndatasize\n      dup3\n      mstore\n      returndatasize\n      0x00\n      0x20\n      dup5\n      add\n      returndatacopy\n      jump(tag_28)\n    tag_29:\n      0x60\n      swap2\n      pop\n    tag_28:\n      pop\n        /* \"Week5/ClaimBack.sol\":483:560  (bool success, bytes memory data) = CONTRACT.call{value:1000000000000000}(\"\") */\n      swap2\n      pop\n      swap2\n      pop\n        /* \"Week5/ClaimBack.sol\":575:582  success */\n      dup2\n        /* \"Week5/ClaimBack.sol\":570:617  if (!success) {... */\n      tag_22\n      jumpi\n        /* \"Week5/ClaimBack.sol\":598:606  revert() */\n      0x00\n      dup1\n      revert\n        /* \"#utility.yul\":14:264   */\n    tag_31:\n        /* \"#utility.yul\":99:100   */\n      0x00\n        /* \"#utility.yul\":109:222   */\n    tag_34:\n        /* \"#utility.yul\":123:129   */\n      dup4\n        /* \"#utility.yul\":120:121   */\n      dup2\n        /* \"#utility.yul\":117:130   */\n      lt\n        /* \"#utility.yul\":109:222   */\n      iszero\n      tag_36\n      jumpi\n        /* \"#utility.yul\":199:210   */\n      dup2\n      dup2\n      add\n        /* \"#utility.yul\":193:211   */\n      mload\n        /* \"#utility.yul\":180:191   */\n      dup4\n      dup3\n      add\n        /* \"#utility.yul\":173:212   */\n      mstore\n        /* \"#utility.yul\":145:147   */\n      0x20\n        /* \"#utility.yul\":138:148   */\n      add\n        /* \"#utility.yul\":109:222   */\n      jump(tag_34)\n    tag_36:\n      pop\n      pop\n        /* \"#utility.yul\":256:257   */\n      0x00\n        /* \"#utility.yul\":238:254   */\n      swap2\n      add\n        /* \"#utility.yul\":231:258   */\n      mstore\n        /* \"#utility.yul\":14:264   */\n      jump\t// out\n        /* \"#utility.yul\":269:663   */\n    tag_10:\n        /* \"#utility.yul\":416:418   */\n      0x20\n        /* \"#utility.yul\":405:414   */\n      dup2\n        /* \"#utility.yul\":398:419   */\n      mstore\n        /* \"#utility.yul\":379:383   */\n      0x00\n        /* \"#utility.yul\":448:454   */\n      dup3\n        /* \"#utility.yul\":442:455   */\n      mload\n        /* \"#utility.yul\":491:497   */\n      dup1\n        /* \"#utility.yul\":486:488   */\n      0x20\n        /* \"#utility.yul\":475:484   */\n      dup5\n        /* \"#utility.yul\":471:489   */\n      add\n        /* \"#utility.yul\":464:498   */\n      mstore\n        /* \"#utility.yul\":507:586   */\n      tag_38\n        /* \"#utility.yul\":579:585   */\n      dup2\n        /* \"#utility.yul\":574:576   */\n      0x40\n        /* \"#utility.yul\":563:572   */\n      dup6\n        /* \"#utility.yul\":559:577   */\n      add\n        /* \"#utility.yul\":554:556   */\n      0x20\n        /* \"#utility.yul\":546:552   */\n      dup8\n        /* \"#utility.yul\":542:557   */\n      add\n        /* \"#utility.yul\":507:586   */\n      tag_31\n      jump\t// in\n    tag_38:\n        /* \"#utility.yul\":647:649   */\n      0x1f\n        /* \"#utility.yul\":626:641   */\n      add\n      not(0x1f)\n        /* \"#utility.yul\":622:651   */\n      and\n        /* \"#utility.yul\":607:652   */\n      swap2\n      swap1\n      swap2\n      add\n        /* \"#utility.yul\":654:656   */\n      0x40\n        /* \"#utility.yul\":603:657   */\n      add\n      swap3\n        /* \"#utility.yul\":269:663   */\n      swap2\n      pop\n      pop\n      jump\t// out\n        /* \"#utility.yul\":867:1154   */\n    tag_18:\n        /* \"#utility.yul\":996:999   */\n      0x00\n        /* \"#utility.yul\":1034:1040   */\n      dup3\n        /* \"#utility.yul\":1028:1041   */\n      mload\n        /* \"#utility.yul\":1050:1116   */\n      tag_41\n        /* \"#utility.yul\":1109:1115   */\n      dup2\n        /* \"#utility.yul\":1104:1107   */\n      dup5\n        /* \"#utility.yul\":1097:1101   */\n      0x20\n        /* \"#utility.yul\":1089:1095   */\n      dup8\n        /* \"#utility.yul\":1085:1102   */\n      add\n        /* \"#utility.yul\":1050:1116   */\n      tag_31\n      jump\t// in\n    tag_41:\n        /* \"#utility.yul\":1132:1148   */\n      swap2\n      swap1\n      swap2\n      add\n      swap3\n        /* \"#utility.yul\":867:1154   */\n      swap2\n      pop\n      pop\n      jump\t// out\n\n    auxdata: 0xa2646970667358221220c00c3114f2081486c09292c340afad3488aa073b7d3323c4867e834fe379978a64736f6c63430008100033\n}\n",
				"bytecode": {
					"linkReferences": {},
					"object": "608060405261025c806100136000396000f3fe60806040526004361061002d5760003560e01c80634e71d92d146100395780638a4068dd1461005757600080fd5b3661003457005b600080fd5b61004161005f565b60405161004e91906101d7565b60405180910390f35b610041610134565b604051600060248201819052606091819073d33c69361e00f01c3085ac77ab2fa13be10376e89060440160408051601f198184030181529181526020820180516001600160e01b031663379607f560e01b179052516100be919061020a565b6000604051808303816000865af19150503d80600081146100fb576040519150601f19603f3d011682016040523d82523d6000602084013e610100565b606091505b50915091508161012e5780604051633b4c5f6f60e11b815260040161012591906101d7565b60405180910390fd5b92915050565b606060008073d33c69361e00f01c3085ac77ab2fa13be10376e86001600160a01b031666038d7ea4c6800060405160006040518083038185875af1925050503d806000811461019f576040519150601f19603f3d011682016040523d82523d6000602084013e6101a4565b606091505b50915091508161012e57600080fd5b60005b838110156101ce5781810151838201526020016101b6565b50506000910152565b60208152600082518060208401526101f68160408501602087016101b3565b601f01601f19169190910160400192915050565b6000825161021c8184602087016101b3565b919091019291505056fea2646970667358221220c00c3114f2081486c09292c340afad3488aa073b7d3323c4867e834fe379978a64736f6c63430008100033",
					"opcodes": "PUSH1 0x80 PUSH1 0x40 MSTORE PUSH2 0x25C DUP1 PUSH2 0x13 PUSH1 0x0 CODECOPY PUSH1 0x0 RETURN INVALID PUSH1 0x80 PUSH1 0x40 MSTORE PUSH1 0x4 CALLDATASIZE LT PUSH2 0x2D JUMPI PUSH1 0x0 CALLDATALOAD PUSH1 0xE0 SHR DUP1 PUSH4 0x4E71D92D EQ PUSH2 0x39 JUMPI DUP1 PUSH4 0x8A4068DD EQ PUSH2 0x57 JUMPI PUSH1 0x0 DUP1 REVERT JUMPDEST CALLDATASIZE PUSH2 0x34 JUMPI STOP JUMPDEST PUSH1 0x0 DUP1 REVERT JUMPDEST PUSH2 0x41 PUSH2 0x5F JUMP JUMPDEST PUSH1 0x40 MLOAD PUSH2 0x4E SWAP2 SWAP1 PUSH2 0x1D7 JUMP JUMPDEST PUSH1 0x40 MLOAD DUP1 SWAP2 SUB SWAP1 RETURN JUMPDEST PUSH2 0x41 PUSH2 0x134 JUMP JUMPDEST PUSH1 0x40 MLOAD PUSH1 0x0 PUSH1 0x24 DUP3 ADD DUP2 SWAP1 MSTORE PUSH1 0x60 SWAP2 DUP2 SWAP1 PUSH20 0xD33C69361E00F01C3085AC77AB2FA13BE10376E8 SWAP1 PUSH1 0x44 ADD PUSH1 0x40 DUP1 MLOAD PUSH1 0x1F NOT DUP2 DUP5 SUB ADD DUP2 MSTORE SWAP2 DUP2 MSTORE PUSH1 0x20 DUP3 ADD DUP1 MLOAD PUSH1 0x1 PUSH1 0x1 PUSH1 0xE0 SHL SUB AND PUSH4 0x379607F5 PUSH1 0xE0 SHL OR SWAP1 MSTORE MLOAD PUSH2 0xBE SWAP2 SWAP1 PUSH2 0x20A JUMP JUMPDEST PUSH1 0x0 PUSH1 0x40 MLOAD DUP1 DUP4 SUB DUP2 PUSH1 0x0 DUP7 GAS CALL SWAP2 POP POP RETURNDATASIZE DUP1 PUSH1 0x0 DUP2 EQ PUSH2 0xFB JUMPI PUSH1 0x40 MLOAD SWAP2 POP PUSH1 0x1F NOT PUSH1 0x3F RETURNDATASIZE ADD AND DUP3 ADD PUSH1 0x40 MSTORE RETURNDATASIZE DUP3 MSTORE RETURNDATASIZE PUSH1 0x0 PUSH1 0x20 DUP5 ADD RETURNDATACOPY PUSH2 0x100 JUMP JUMPDEST PUSH1 0x60 SWAP2 POP JUMPDEST POP SWAP2 POP SWAP2 POP DUP2 PUSH2 0x12E JUMPI DUP1 PUSH1 0x40 MLOAD PUSH4 0x3B4C5F6F PUSH1 0xE1 SHL DUP2 MSTORE PUSH1 0x4 ADD PUSH2 0x125 SWAP2 SWAP1 PUSH2 0x1D7 JUMP JUMPDEST PUSH1 0x40 MLOAD DUP1 SWAP2 SUB SWAP1 REVERT JUMPDEST SWAP3 SWAP2 POP POP JUMP JUMPDEST PUSH1 0x60 PUSH1 0x0 DUP1 PUSH20 0xD33C69361E00F01C3085AC77AB2FA13BE10376E8 PUSH1 0x1 PUSH1 0x1 PUSH1 0xA0 SHL SUB AND PUSH7 0x38D7EA4C68000 PUSH1 0x40 MLOAD PUSH1 0x0 PUSH1 0x40 MLOAD DUP1 DUP4 SUB DUP2 DUP6 DUP8 GAS CALL SWAP3 POP POP POP RETURNDATASIZE DUP1 PUSH1 0x0 DUP2 EQ PUSH2 0x19F JUMPI PUSH1 0x40 MLOAD SWAP2 POP PUSH1 0x1F NOT PUSH1 0x3F RETURNDATASIZE ADD AND DUP3 ADD PUSH1 0x40 MSTORE RETURNDATASIZE DUP3 MSTORE RETURNDATASIZE PUSH1 0x0 PUSH1 0x20 DUP5 ADD RETURNDATACOPY PUSH2 0x1A4 JUMP JUMPDEST PUSH1 0x60 SWAP2 POP JUMPDEST POP SWAP2 POP SWAP2 POP DUP2 PUSH2 0x12E JUMPI PUSH1 0x0 DUP1 REVERT JUMPDEST PUSH1 0x0 JUMPDEST DUP4 DUP2 LT ISZERO PUSH2 0x1CE JUMPI DUP2 DUP2 ADD MLOAD DUP4 DUP3 ADD MSTORE PUSH1 0x20 ADD PUSH2 0x1B6 JUMP JUMPDEST POP POP PUSH1 0x0 SWAP2 ADD MSTORE JUMP JUMPDEST PUSH1 0x20 DUP2 MSTORE PUSH1 0x0 DUP3 MLOAD DUP1 PUSH1 0x20 DUP5 ADD MSTORE PUSH2 0x1F6 DUP2 PUSH1 0x40 DUP6 ADD PUSH1 0x20 DUP8 ADD PUSH2 0x1B3 JUMP JUMPDEST PUSH1 0x1F ADD PUSH1 0x1F NOT AND SWAP2 SWAP1 SWAP2 ADD PUSH1 0x40 ADD SWAP3 SWAP2 POP POP JUMP JUMPDEST PUSH1 0x0 DUP3 MLOAD PUSH2 0x21C DUP2 DUP5 PUSH1 0x20 DUP8 ADD PUSH2 0x1B3 JUMP JUMPDEST SWAP2 SWAP1 SWAP2 ADD SWAP3 SWAP2 POP POP JUMP INVALID LOG2 PUSH5 0x6970667358 0x22 SLT KECCAK256 0xC0 0xC BALANCE EQ CALLCODE ADDMOD EQ DUP7 0xC0 SWAP3 SWAP3 0xC3 BLOCKHASH 0xAF 0xAD CALLVALUE DUP9 0xAA SMOD EXTCODESIZE PUSH30 0x3323C4867E834FE379978A64736F6C634300081000330000000000000000 "
				},
				"gasEstimates": {
					"creation": {
						"codeDepositCost": "120800",
						"executionCost": "141",
						"totalCost": "120941"
					},
					"external": {
						"claim()": "infinite",
						"transfer()": "infinite"
					}
				},
				"methodIdentifiers": {
					"claim()": "4e71d92d",
					"transfer()": "8a4068dd"
				}
			},
			"storageLayout": {
				"storage": [],
				"types": null
			},
			"userdoc": {
				"kind": "user",
				"methods": {},
				"version": 1
			}
		}
	}
}